{
	".debug/11155111/0x31Ff0F4F1268e421b7B0D0216cC71A5CB2DC02F2/contracts/UniswapV2ERC20.sol": {
		"UniswapV2ERC20": {
			"abi": [
				{
					"inputs": [],
					"payable": false,
					"stateMutability": "nonpayable",
					"type": "constructor"
				},
				{
					"anonymous": false,
					"inputs": [
						{
							"indexed": true,
							"internalType": "address",
							"name": "owner",
							"type": "address"
						},
						{
							"indexed": true,
							"internalType": "address",
							"name": "spender",
							"type": "address"
						},
						{
							"indexed": false,
							"internalType": "uint256",
							"name": "value",
							"type": "uint256"
						}
					],
					"name": "Approval",
					"type": "event"
				},
				{
					"anonymous": false,
					"inputs": [
						{
							"indexed": true,
							"internalType": "address",
							"name": "from",
							"type": "address"
						},
						{
							"indexed": true,
							"internalType": "address",
							"name": "to",
							"type": "address"
						},
						{
							"indexed": false,
							"internalType": "uint256",
							"name": "value",
							"type": "uint256"
						}
					],
					"name": "Transfer",
					"type": "event"
				},
				{
					"constant": true,
					"inputs": [],
					"name": "DOMAIN_SEPARATOR",
					"outputs": [
						{
							"internalType": "bytes32",
							"name": "",
							"type": "bytes32"
						}
					],
					"payable": false,
					"stateMutability": "view",
					"type": "function"
				},
				{
					"constant": true,
					"inputs": [],
					"name": "PERMIT_TYPEHASH",
					"outputs": [
						{
							"internalType": "bytes32",
							"name": "",
							"type": "bytes32"
						}
					],
					"payable": false,
					"stateMutability": "view",
					"type": "function"
				},
				{
					"constant": true,
					"inputs": [
						{
							"internalType": "address",
							"name": "",
							"type": "address"
						},
						{
							"internalType": "address",
							"name": "",
							"type": "address"
						}
					],
					"name": "allowance",
					"outputs": [
						{
							"internalType": "uint256",
							"name": "",
							"type": "uint256"
						}
					],
					"payable": false,
					"stateMutability": "view",
					"type": "function"
				},
				{
					"constant": false,
					"inputs": [
						{
							"internalType": "address",
							"name": "spender",
							"type": "address"
						},
						{
							"internalType": "uint256",
							"name": "value",
							"type": "uint256"
						}
					],
					"name": "approve",
					"outputs": [
						{
							"internalType": "bool",
							"name": "",
							"type": "bool"
						}
					],
					"payable": false,
					"stateMutability": "nonpayable",
					"type": "function"
				},
				{
					"constant": true,
					"inputs": [
						{
							"internalType": "address",
							"name": "",
							"type": "address"
						}
					],
					"name": "balanceOf",
					"outputs": [
						{
							"internalType": "uint256",
							"name": "",
							"type": "uint256"
						}
					],
					"payable": false,
					"stateMutability": "view",
					"type": "function"
				},
				{
					"constant": true,
					"inputs": [],
					"name": "decimals",
					"outputs": [
						{
							"internalType": "uint8",
							"name": "",
							"type": "uint8"
						}
					],
					"payable": false,
					"stateMutability": "view",
					"type": "function"
				},
				{
					"constant": true,
					"inputs": [],
					"name": "name",
					"outputs": [
						{
							"internalType": "string",
							"name": "",
							"type": "string"
						}
					],
					"payable": false,
					"stateMutability": "view",
					"type": "function"
				},
				{
					"constant": true,
					"inputs": [
						{
							"internalType": "address",
							"name": "",
							"type": "address"
						}
					],
					"name": "nonces",
					"outputs": [
						{
							"internalType": "uint256",
							"name": "",
							"type": "uint256"
						}
					],
					"payable": false,
					"stateMutability": "view",
					"type": "function"
				},
				{
					"constant": false,
					"inputs": [
						{
							"internalType": "address",
							"name": "owner",
							"type": "address"
						},
						{
							"internalType": "address",
							"name": "spender",
							"type": "address"
						},
						{
							"internalType": "uint256",
							"name": "value",
							"type": "uint256"
						},
						{
							"internalType": "uint256",
							"name": "deadline",
							"type": "uint256"
						},
						{
							"internalType": "uint8",
							"name": "v",
							"type": "uint8"
						},
						{
							"internalType": "bytes32",
							"name": "r",
							"type": "bytes32"
						},
						{
							"internalType": "bytes32",
							"name": "s",
							"type": "bytes32"
						}
					],
					"name": "permit",
					"outputs": [],
					"payable": false,
					"stateMutability": "nonpayable",
					"type": "function"
				},
				{
					"constant": true,
					"inputs": [],
					"name": "symbol",
					"outputs": [
						{
							"internalType": "string",
							"name": "",
							"type": "string"
						}
					],
					"payable": false,
					"stateMutability": "view",
					"type": "function"
				},
				{
					"constant": true,
					"inputs": [],
					"name": "totalSupply",
					"outputs": [
						{
							"internalType": "uint256",
							"name": "",
							"type": "uint256"
						}
					],
					"payable": false,
					"stateMutability": "view",
					"type": "function"
				},
				{
					"constant": false,
					"inputs": [
						{
							"internalType": "address",
							"name": "to",
							"type": "address"
						},
						{
							"internalType": "uint256",
							"name": "value",
							"type": "uint256"
						}
					],
					"name": "transfer",
					"outputs": [
						{
							"internalType": "bool",
							"name": "",
							"type": "bool"
						}
					],
					"payable": false,
					"stateMutability": "nonpayable",
					"type": "function"
				},
				{
					"constant": false,
					"inputs": [
						{
							"internalType": "address",
							"name": "from",
							"type": "address"
						},
						{
							"internalType": "address",
							"name": "to",
							"type": "address"
						},
						{
							"internalType": "uint256",
							"name": "value",
							"type": "uint256"
						}
					],
					"name": "transferFrom",
					"outputs": [
						{
							"internalType": "bool",
							"name": "",
							"type": "bool"
						}
					],
					"payable": false,
					"stateMutability": "nonpayable",
					"type": "function"
				}
			],
			"devdoc": {
				"methods": {}
			},
			"evm": {
				"assembly": "    /* \".debug/11155111/0x31Ff0F4F1268e421b7B0D0216cC71A5CB2DC02F2/contracts/UniswapV2ERC20.sol\":110:3527  contract UniswapV2ERC20 is IUniswapV2ERC20 {\r... */\n  mstore(0x40, 0x80)\n    /* \".debug/11155111/0x31Ff0F4F1268e421b7B0D0216cC71A5CB2DC02F2/contracts/UniswapV2ERC20.sol\":942:1400  constructor() public {\r... */\n  callvalue\n    /* \"--CODEGEN--\":8:17   */\n  dup1\n    /* \"--CODEGEN--\":5:7   */\n  iszero\n  tag_1\n  jumpi\n    /* \"--CODEGEN--\":30:31   */\n  0x00\n    /* \"--CODEGEN--\":27:28   */\n  dup1\n    /* \"--CODEGEN--\":20:32   */\n  revert\n    /* \"--CODEGEN--\":5:7   */\ntag_1:\n    /* \".debug/11155111/0x31Ff0F4F1268e421b7B0D0216cC71A5CB2DC02F2/contracts/UniswapV2ERC20.sol\":942:1400  constructor() public {\r... */\n  pop\n    /* \".debug/11155111/0x31Ff0F4F1268e421b7B0D0216cC71A5CB2DC02F2/contracts/UniswapV2ERC20.sol\":974:986  uint chainId */\n  0x00\n    /* \".debug/11155111/0x31Ff0F4F1268e421b7B0D0216cC71A5CB2DC02F2/contracts/UniswapV2ERC20.sol\":1032:1039  chainid */\n  chainid\n    /* \".debug/11155111/0x31Ff0F4F1268e421b7B0D0216cC71A5CB2DC02F2/contracts/UniswapV2ERC20.sol\":1021:1039  chainId := chainid */\n  swap1\n  pop\n    /* \".debug/11155111/0x31Ff0F4F1268e421b7B0D0216cC71A5CB2DC02F2/contracts/UniswapV2ERC20.sol\":1132:1227  keccak256('EIP712Domain(string name,string version,uint256 chainId,address verifyingContract)') */\n  mload(0x40)\n  dup1\n  dup1\n  data_8b73c3c69bb8fe3d512ecc4cf759cc79239f7b179b0ffacaa9a75d522b39400f\n  0x52\n  swap2\n  codecopy\n  0x52\n  add\n  swap1\n  pop\n  mload(0x40)\n  dup1\n  swap2\n  sub\n  swap1\n  keccak256\n    /* \".debug/11155111/0x31Ff0F4F1268e421b7B0D0216cC71A5CB2DC02F2/contracts/UniswapV2ERC20.sol\":1262:1266  name */\n  mload(0x40)\n  dup1\n  0x40\n  add\n  0x40\n  mstore\n  dup1\n  0x0a\n  dup2\n  mstore\n  0x20\n  add\n  0x556e697377617020563200000000000000000000000000000000000000000000\n  dup2\n  mstore\n  pop\n    /* \".debug/11155111/0x31Ff0F4F1268e421b7B0D0216cC71A5CB2DC02F2/contracts/UniswapV2ERC20.sol\":1246:1268  keccak256(bytes(name)) */\n  dup1\n  mload\n  swap1\n  0x20\n  add\n  keccak256\n    /* \".debug/11155111/0x31Ff0F4F1268e421b7B0D0216cC71A5CB2DC02F2/contracts/UniswapV2ERC20.sol\":1297:1307  bytes('1') */\n  mload(0x40)\n  dup1\n  0x40\n  add\n  0x40\n  mstore\n  dup1\n  0x01\n  dup2\n  mstore\n  0x20\n  add\n  0x3100000000000000000000000000000000000000000000000000000000000000\n  dup2\n  mstore\n  pop\n    /* \".debug/11155111/0x31Ff0F4F1268e421b7B0D0216cC71A5CB2DC02F2/contracts/UniswapV2ERC20.sol\":1287:1308  keccak256(bytes('1')) */\n  dup1\n  mload\n  swap1\n  0x20\n  add\n  keccak256\n    /* \".debug/11155111/0x31Ff0F4F1268e421b7B0D0216cC71A5CB2DC02F2/contracts/UniswapV2ERC20.sol\":1327:1334  chainId */\n  dup4\n    /* \".debug/11155111/0x31Ff0F4F1268e421b7B0D0216cC71A5CB2DC02F2/contracts/UniswapV2ERC20.sol\":1361:1365  this */\n  address\n    /* \".debug/11155111/0x31Ff0F4F1268e421b7B0D0216cC71A5CB2DC02F2/contracts/UniswapV2ERC20.sol\":1103:1381  abi.encode(\r... */\n  add(0x20, mload(0x40))\n  dup1\n  dup7\n  dup2\n  mstore\n  0x20\n  add\n  dup6\n  dup2\n  mstore\n  0x20\n  add\n  dup5\n  dup2\n  mstore\n  0x20\n  add\n  dup4\n  dup2\n  mstore\n  0x20\n  add\n  dup3\n  0xffffffffffffffffffffffffffffffffffffffff\n  and\n  0xffffffffffffffffffffffffffffffffffffffff\n  and\n  dup2\n  mstore\n  0x20\n  add\n  swap6\n  pop\n  pop\n  pop\n  pop\n  pop\n  pop\n  mload(0x40)\n    /* \"--CODEGEN--\":49:53   */\n  0x20\n    /* \"--CODEGEN--\":39:46   */\n  dup2\n    /* \"--CODEGEN--\":30:37   */\n  dup4\n    /* \"--CODEGEN--\":26:47   */\n  sub\n    /* \"--CODEGEN--\":22:54   */\n  sub\n    /* \"--CODEGEN--\":13:20   */\n  dup2\n    /* \"--CODEGEN--\":6:55   */\n  mstore\n    /* \".debug/11155111/0x31Ff0F4F1268e421b7B0D0216cC71A5CB2DC02F2/contracts/UniswapV2ERC20.sol\":1103:1381  abi.encode(\r... */\n  swap1\n  0x40\n  mstore\n    /* \".debug/11155111/0x31Ff0F4F1268e421b7B0D0216cC71A5CB2DC02F2/contracts/UniswapV2ERC20.sol\":1079:1392  keccak256(\r... */\n  dup1\n  mload\n  swap1\n  0x20\n  add\n  keccak256\n    /* \".debug/11155111/0x31Ff0F4F1268e421b7B0D0216cC71A5CB2DC02F2/contracts/UniswapV2ERC20.sol\":1060:1076  DOMAIN_SEPARATOR */\n  0x03\n    /* \".debug/11155111/0x31Ff0F4F1268e421b7B0D0216cC71A5CB2DC02F2/contracts/UniswapV2ERC20.sol\":1060:1392  DOMAIN_SEPARATOR = keccak256(\r... */\n  dup2\n  swap1\n  sstore\n  pop\n    /* \".debug/11155111/0x31Ff0F4F1268e421b7B0D0216cC71A5CB2DC02F2/contracts/UniswapV2ERC20.sol\":942:1400  constructor() public {\r... */\n  pop\n    /* \".debug/11155111/0x31Ff0F4F1268e421b7B0D0216cC71A5CB2DC02F2/contracts/UniswapV2ERC20.sol\":110:3527  contract UniswapV2ERC20 is IUniswapV2ERC20 {\r... */\n  dataSize(sub_0)\n  dup1\n  dataOffset(sub_0)\n  0x00\n  codecopy\n  0x00\n  return\nstop\ndata_8b73c3c69bb8fe3d512ecc4cf759cc79239f7b179b0ffacaa9a75d522b39400f 454950373132446f6d61696e28737472696e67206e616d652c737472696e672076657273696f6e2c75696e7432353620636861696e49642c6164647265737320766572696679696e67436f6e747261637429\n\nsub_0: assembly {\n        /* \".debug/11155111/0x31Ff0F4F1268e421b7B0D0216cC71A5CB2DC02F2/contracts/UniswapV2ERC20.sol\":110:3527  contract UniswapV2ERC20 is IUniswapV2ERC20 {\r... */\n      mstore(0x40, 0x80)\n      callvalue\n        /* \"--CODEGEN--\":8:17   */\n      dup1\n        /* \"--CODEGEN--\":5:7   */\n      iszero\n      tag_1\n      jumpi\n        /* \"--CODEGEN--\":30:31   */\n      0x00\n        /* \"--CODEGEN--\":27:28   */\n      dup1\n        /* \"--CODEGEN--\":20:32   */\n      revert\n        /* \"--CODEGEN--\":5:7   */\n    tag_1:\n        /* \".debug/11155111/0x31Ff0F4F1268e421b7B0D0216cC71A5CB2DC02F2/contracts/UniswapV2ERC20.sol\":110:3527  contract UniswapV2ERC20 is IUniswapV2ERC20 {\r... */\n      pop\n      jumpi(tag_2, lt(calldatasize, 0x04))\n      shr(0xe0, calldataload(0x00))\n      dup1\n      0x3644e515\n      gt\n      tag_16\n      jumpi\n      dup1\n      0x95d89b41\n      gt\n      tag_17\n      jumpi\n      dup1\n      0x95d89b41\n      eq\n      tag_12\n      jumpi\n      dup1\n      0xa9059cbb\n      eq\n      tag_13\n      jumpi\n      dup1\n      0xd505accf\n      eq\n      tag_14\n      jumpi\n      dup1\n      0xdd62ed3e\n      eq\n      tag_15\n      jumpi\n      jump(tag_2)\n    tag_17:\n      dup1\n      0x3644e515\n      eq\n      tag_9\n      jumpi\n      dup1\n      0x70a08231\n      eq\n      tag_10\n      jumpi\n      dup1\n      0x7ecebe00\n      eq\n      tag_11\n      jumpi\n      jump(tag_2)\n    tag_16:\n      dup1\n      0x06fdde03\n      eq\n      tag_3\n      jumpi\n      dup1\n      0x095ea7b3\n      eq\n      tag_4\n      jumpi\n      dup1\n      0x18160ddd\n      eq\n      tag_5\n      jumpi\n      dup1\n      0x23b872dd\n      eq\n      tag_6\n      jumpi\n      dup1\n      0x30adf81f\n      eq\n      tag_7\n      jumpi\n      dup1\n      0x313ce567\n      eq\n      tag_8\n      jumpi\n    tag_2:\n      0x00\n      dup1\n      revert\n        /* \".debug/11155111/0x31Ff0F4F1268e421b7B0D0216cC71A5CB2DC02F2/contracts/UniswapV2ERC20.sol\":192:234  string public constant name = 'Uniswap V2' */\n    tag_3:\n      tag_18\n      tag_19\n      jump\t// in\n    tag_18:\n      mload(0x40)\n      dup1\n      dup1\n      0x20\n      add\n      dup3\n      dup2\n      sub\n      dup3\n      mstore\n      dup4\n      dup2\n      dup2\n      mload\n      dup2\n      mstore\n      0x20\n      add\n      swap2\n      pop\n      dup1\n      mload\n      swap1\n      0x20\n      add\n      swap1\n      dup1\n      dup4\n      dup4\n        /* \"--CODEGEN--\":23:24   */\n      0x00\n        /* \"--CODEGEN--\":8:108   */\n    tag_20:\n        /* \"--CODEGEN--\":33:36   */\n      dup4\n        /* \"--CODEGEN--\":30:31   */\n      dup2\n        /* \"--CODEGEN--\":27:37   */\n      lt\n        /* \"--CODEGEN--\":8:108   */\n      iszero\n      tag_22\n      jumpi\n        /* \"--CODEGEN--\":99:100   */\n      dup1\n        /* \"--CODEGEN--\":94:97   */\n      dup3\n        /* \"--CODEGEN--\":90:101   */\n      add\n        /* \"--CODEGEN--\":84:102   */\n      mload\n        /* \"--CODEGEN--\":80:81   */\n      dup2\n        /* \"--CODEGEN--\":75:78   */\n      dup5\n        /* \"--CODEGEN--\":71:82   */\n      add\n        /* \"--CODEGEN--\":64:103   */\n      mstore\n        /* \"--CODEGEN--\":52:54   */\n      0x20\n        /* \"--CODEGEN--\":49:50   */\n      dup2\n        /* \"--CODEGEN--\":45:55   */\n      add\n        /* \"--CODEGEN--\":40:55   */\n      swap1\n      pop\n        /* \"--CODEGEN--\":8:108   */\n      jump(tag_20)\n    tag_22:\n        /* \"--CODEGEN--\":12:26   */\n      pop\n        /* \".debug/11155111/0x31Ff0F4F1268e421b7B0D0216cC71A5CB2DC02F2/contracts/UniswapV2ERC20.sol\":192:234  string public constant name = 'Uniswap V2' */\n      pop\n      pop\n      pop\n      swap1\n      pop\n      swap1\n      dup2\n      add\n      swap1\n      0x1f\n      and\n      dup1\n      iszero\n      tag_23\n      jumpi\n      dup1\n      dup3\n      sub\n      dup1\n      mload\n      0x01\n      dup4\n      0x20\n      sub\n      0x0100\n      exp\n      sub\n      not\n      and\n      dup2\n      mstore\n      0x20\n      add\n      swap2\n      pop\n    tag_23:\n      pop\n      swap3\n      pop\n      pop\n      pop\n      mload(0x40)\n      dup1\n      swap2\n      sub\n      swap1\n      return\n        /* \".debug/11155111/0x31Ff0F4F1268e421b7B0D0216cC71A5CB2DC02F2/contracts/UniswapV2ERC20.sol\":2239:2386  function approve(address spender, uint value) external returns (bool) {\r... */\n    tag_4:\n      tag_24\n      0x04\n      dup1\n      calldatasize\n      sub\n        /* \"--CODEGEN--\":13:15   */\n      0x40\n        /* \"--CODEGEN--\":8:11   */\n      dup2\n        /* \"--CODEGEN--\":5:16   */\n      lt\n        /* \"--CODEGEN--\":2:4   */\n      iszero\n      tag_25\n      jumpi\n        /* \"--CODEGEN--\":29:30   */\n      0x00\n        /* \"--CODEGEN--\":26:27   */\n      dup1\n        /* \"--CODEGEN--\":19:31   */\n      revert\n        /* \"--CODEGEN--\":2:4   */\n    tag_25:\n        /* \".debug/11155111/0x31Ff0F4F1268e421b7B0D0216cC71A5CB2DC02F2/contracts/UniswapV2ERC20.sol\":2239:2386  function approve(address spender, uint value) external returns (bool) {\r... */\n      dup2\n      add\n      swap1\n      dup1\n      dup1\n      calldataload\n      0xffffffffffffffffffffffffffffffffffffffff\n      and\n      swap1\n      0x20\n      add\n      swap1\n      swap3\n      swap2\n      swap1\n      dup1\n      calldataload\n      swap1\n      0x20\n      add\n      swap1\n      swap3\n      swap2\n      swap1\n      pop\n      pop\n      pop\n      tag_26\n      jump\t// in\n    tag_24:\n      mload(0x40)\n      dup1\n      dup3\n      iszero\n      iszero\n      iszero\n      iszero\n      dup2\n      mstore\n      0x20\n      add\n      swap2\n      pop\n      pop\n      mload(0x40)\n      dup1\n      swap2\n      sub\n      swap1\n      return\n        /* \".debug/11155111/0x31Ff0F4F1268e421b7B0D0216cC71A5CB2DC02F2/contracts/UniswapV2ERC20.sol\":330:354  uint  public totalSupply */\n    tag_5:\n      tag_27\n      tag_28\n      jump\t// in\n    tag_27:\n      mload(0x40)\n      dup1\n      dup3\n      dup2\n      mstore\n      0x20\n      add\n      swap2\n      pop\n      pop\n      mload(0x40)\n      dup1\n      swap2\n      sub\n      swap1\n      return\n        /* \".debug/11155111/0x31Ff0F4F1268e421b7B0D0216cC71A5CB2DC02F2/contracts/UniswapV2ERC20.sol\":2541:2842  function transferFrom(address from, address to, uint value) external returns (bool) {\r... */\n    tag_6:\n      tag_29\n      0x04\n      dup1\n      calldatasize\n      sub\n        /* \"--CODEGEN--\":13:15   */\n      0x60\n        /* \"--CODEGEN--\":8:11   */\n      dup2\n        /* \"--CODEGEN--\":5:16   */\n      lt\n        /* \"--CODEGEN--\":2:4   */\n      iszero\n      tag_30\n      jumpi\n        /* \"--CODEGEN--\":29:30   */\n      0x00\n        /* \"--CODEGEN--\":26:27   */\n      dup1\n        /* \"--CODEGEN--\":19:31   */\n      revert\n        /* \"--CODEGEN--\":2:4   */\n    tag_30:\n        /* \".debug/11155111/0x31Ff0F4F1268e421b7B0D0216cC71A5CB2DC02F2/contracts/UniswapV2ERC20.sol\":2541:2842  function transferFrom(address from, address to, uint value) external returns (bool) {\r... */\n      dup2\n      add\n      swap1\n      dup1\n      dup1\n      calldataload\n      0xffffffffffffffffffffffffffffffffffffffff\n      and\n      swap1\n      0x20\n      add\n      swap1\n      swap3\n      swap2\n      swap1\n      dup1\n      calldataload\n      0xffffffffffffffffffffffffffffffffffffffff\n      and\n      swap1\n      0x20\n      add\n      swap1\n      swap3\n      swap2\n      swap1\n      dup1\n      calldataload\n      swap1\n      0x20\n      add\n      swap1\n      swap3\n      swap2\n      swap1\n      pop\n      pop\n      pop\n      tag_31\n      jump\t// in\n    tag_29:\n      mload(0x40)\n      dup1\n      dup3\n      iszero\n      iszero\n      iszero\n      iszero\n      dup2\n      mstore\n      0x20\n      add\n      swap2\n      pop\n      pop\n      mload(0x40)\n      dup1\n      swap2\n      sub\n      swap1\n      return\n        /* \".debug/11155111/0x31Ff0F4F1268e421b7B0D0216cC71A5CB2DC02F2/contracts/UniswapV2ERC20.sol\":622:730  bytes32 public constant PERMIT_TYPEHASH = 0x6e71edae12b1b97f4d1f60370fef10105fa2faae0126114a169c64845d6126c9 */\n    tag_7:\n      tag_32\n      tag_33\n      jump\t// in\n    tag_32:\n      mload(0x40)\n      dup1\n      dup3\n      dup2\n      mstore\n      0x20\n      add\n      swap2\n      pop\n      pop\n      mload(0x40)\n      dup1\n      swap2\n      sub\n      swap1\n      return\n        /* \".debug/11155111/0x31Ff0F4F1268e421b7B0D0216cC71A5CB2DC02F2/contracts/UniswapV2ERC20.sol\":288:323  uint8 public constant decimals = 18 */\n    tag_8:\n      tag_34\n      tag_35\n      jump\t// in\n    tag_34:\n      mload(0x40)\n      dup1\n      dup3\n      0xff\n      and\n      0xff\n      and\n      dup2\n      mstore\n      0x20\n      add\n      swap2\n      pop\n      pop\n      mload(0x40)\n      dup1\n      swap2\n      sub\n      swap1\n      return\n        /* \".debug/11155111/0x31Ff0F4F1268e421b7B0D0216cC71A5CB2DC02F2/contracts/UniswapV2ERC20.sol\":479:510  bytes32 public DOMAIN_SEPARATOR */\n    tag_9:\n      tag_36\n      tag_37\n      jump\t// in\n    tag_36:\n      mload(0x40)\n      dup1\n      dup3\n      dup2\n      mstore\n      0x20\n      add\n      swap2\n      pop\n      pop\n      mload(0x40)\n      dup1\n      swap2\n      sub\n      swap1\n      return\n        /* \".debug/11155111/0x31Ff0F4F1268e421b7B0D0216cC71A5CB2DC02F2/contracts/UniswapV2ERC20.sol\":361:402  mapping(address => uint) public balanceOf */\n    tag_10:\n      tag_38\n      0x04\n      dup1\n      calldatasize\n      sub\n        /* \"--CODEGEN--\":13:15   */\n      0x20\n        /* \"--CODEGEN--\":8:11   */\n      dup2\n        /* \"--CODEGEN--\":5:16   */\n      lt\n        /* \"--CODEGEN--\":2:4   */\n      iszero\n      tag_39\n      jumpi\n        /* \"--CODEGEN--\":29:30   */\n      0x00\n        /* \"--CODEGEN--\":26:27   */\n      dup1\n        /* \"--CODEGEN--\":19:31   */\n      revert\n        /* \"--CODEGEN--\":2:4   */\n    tag_39:\n        /* \".debug/11155111/0x31Ff0F4F1268e421b7B0D0216cC71A5CB2DC02F2/contracts/UniswapV2ERC20.sol\":361:402  mapping(address => uint) public balanceOf */\n      dup2\n      add\n      swap1\n      dup1\n      dup1\n      calldataload\n      0xffffffffffffffffffffffffffffffffffffffff\n      and\n      swap1\n      0x20\n      add\n      swap1\n      swap3\n      swap2\n      swap1\n      pop\n      pop\n      pop\n      tag_40\n      jump\t// in\n    tag_38:\n      mload(0x40)\n      dup1\n      dup3\n      dup2\n      mstore\n      0x20\n      add\n      swap2\n      pop\n      pop\n      mload(0x40)\n      dup1\n      swap2\n      sub\n      swap1\n      return\n        /* \".debug/11155111/0x31Ff0F4F1268e421b7B0D0216cC71A5CB2DC02F2/contracts/UniswapV2ERC20.sol\":737:775  mapping(address => uint) public nonces */\n    tag_11:\n      tag_41\n      0x04\n      dup1\n      calldatasize\n      sub\n        /* \"--CODEGEN--\":13:15   */\n      0x20\n        /* \"--CODEGEN--\":8:11   */\n      dup2\n        /* \"--CODEGEN--\":5:16   */\n      lt\n        /* \"--CODEGEN--\":2:4   */\n      iszero\n      tag_42\n      jumpi\n        /* \"--CODEGEN--\":29:30   */\n      0x00\n        /* \"--CODEGEN--\":26:27   */\n      dup1\n        /* \"--CODEGEN--\":19:31   */\n      revert\n        /* \"--CODEGEN--\":2:4   */\n    tag_42:\n        /* \".debug/11155111/0x31Ff0F4F1268e421b7B0D0216cC71A5CB2DC02F2/contracts/UniswapV2ERC20.sol\":737:775  mapping(address => uint) public nonces */\n      dup2\n      add\n      swap1\n      dup1\n      dup1\n      calldataload\n      0xffffffffffffffffffffffffffffffffffffffff\n      and\n      swap1\n      0x20\n      add\n      swap1\n      swap3\n      swap2\n      swap1\n      pop\n      pop\n      pop\n      tag_43\n      jump\t// in\n    tag_41:\n      mload(0x40)\n      dup1\n      dup3\n      dup2\n      mstore\n      0x20\n      add\n      swap2\n      pop\n      pop\n      mload(0x40)\n      dup1\n      swap2\n      sub\n      swap1\n      return\n        /* \".debug/11155111/0x31Ff0F4F1268e421b7B0D0216cC71A5CB2DC02F2/contracts/UniswapV2ERC20.sol\":241:281  string public constant symbol = 'UNI-V2' */\n    tag_12:\n      tag_44\n      tag_45\n      jump\t// in\n    tag_44:\n      mload(0x40)\n      dup1\n      dup1\n      0x20\n      add\n      dup3\n      dup2\n      sub\n      dup3\n      mstore\n      dup4\n      dup2\n      dup2\n      mload\n      dup2\n      mstore\n      0x20\n      add\n      swap2\n      pop\n      dup1\n      mload\n      swap1\n      0x20\n      add\n      swap1\n      dup1\n      dup4\n      dup4\n        /* \"--CODEGEN--\":23:24   */\n      0x00\n        /* \"--CODEGEN--\":8:108   */\n    tag_46:\n        /* \"--CODEGEN--\":33:36   */\n      dup4\n        /* \"--CODEGEN--\":30:31   */\n      dup2\n        /* \"--CODEGEN--\":27:37   */\n      lt\n        /* \"--CODEGEN--\":8:108   */\n      iszero\n      tag_48\n      jumpi\n        /* \"--CODEGEN--\":99:100   */\n      dup1\n        /* \"--CODEGEN--\":94:97   */\n      dup3\n        /* \"--CODEGEN--\":90:101   */\n      add\n        /* \"--CODEGEN--\":84:102   */\n      mload\n        /* \"--CODEGEN--\":80:81   */\n      dup2\n        /* \"--CODEGEN--\":75:78   */\n      dup5\n        /* \"--CODEGEN--\":71:82   */\n      add\n        /* \"--CODEGEN--\":64:103   */\n      mstore\n        /* \"--CODEGEN--\":52:54   */\n      0x20\n        /* \"--CODEGEN--\":49:50   */\n      dup2\n        /* \"--CODEGEN--\":45:55   */\n      add\n        /* \"--CODEGEN--\":40:55   */\n      swap1\n      pop\n        /* \"--CODEGEN--\":8:108   */\n      jump(tag_46)\n    tag_48:\n        /* \"--CODEGEN--\":12:26   */\n      pop\n        /* \".debug/11155111/0x31Ff0F4F1268e421b7B0D0216cC71A5CB2DC02F2/contracts/UniswapV2ERC20.sol\":241:281  string public constant symbol = 'UNI-V2' */\n      pop\n      pop\n      pop\n      swap1\n      pop\n      swap1\n      dup2\n      add\n      swap1\n      0x1f\n      and\n      dup1\n      iszero\n      tag_49\n      jumpi\n      dup1\n      dup3\n      sub\n      dup1\n      mload\n      0x01\n      dup4\n      0x20\n      sub\n      0x0100\n      exp\n      sub\n      not\n      and\n      dup2\n      mstore\n      0x20\n      add\n      swap2\n      pop\n    tag_49:\n      pop\n      swap3\n      pop\n      pop\n      pop\n      mload(0x40)\n      dup1\n      swap2\n      sub\n      swap1\n      return\n        /* \".debug/11155111/0x31Ff0F4F1268e421b7B0D0216cC71A5CB2DC02F2/contracts/UniswapV2ERC20.sol\":2394:2533  function transfer(address to, uint value) external returns (bool) {\r... */\n    tag_13:\n      tag_50\n      0x04\n      dup1\n      calldatasize\n      sub\n        /* \"--CODEGEN--\":13:15   */\n      0x40\n        /* \"--CODEGEN--\":8:11   */\n      dup2\n        /* \"--CODEGEN--\":5:16   */\n      lt\n        /* \"--CODEGEN--\":2:4   */\n      iszero\n      tag_51\n      jumpi\n        /* \"--CODEGEN--\":29:30   */\n      0x00\n        /* \"--CODEGEN--\":26:27   */\n      dup1\n        /* \"--CODEGEN--\":19:31   */\n      revert\n        /* \"--CODEGEN--\":2:4   */\n    tag_51:\n        /* \".debug/11155111/0x31Ff0F4F1268e421b7B0D0216cC71A5CB2DC02F2/contracts/UniswapV2ERC20.sol\":2394:2533  function transfer(address to, uint value) external returns (bool) {\r... */\n      dup2\n      add\n      swap1\n      dup1\n      dup1\n      calldataload\n      0xffffffffffffffffffffffffffffffffffffffff\n      and\n      swap1\n      0x20\n      add\n      swap1\n      swap3\n      swap2\n      swap1\n      dup1\n      calldataload\n      swap1\n      0x20\n      add\n      swap1\n      swap3\n      swap2\n      swap1\n      pop\n      pop\n      pop\n      tag_52\n      jump\t// in\n    tag_50:\n      mload(0x40)\n      dup1\n      dup3\n      iszero\n      iszero\n      iszero\n      iszero\n      dup2\n      mstore\n      0x20\n      add\n      swap2\n      pop\n      pop\n      mload(0x40)\n      dup1\n      swap2\n      sub\n      swap1\n      return\n        /* \".debug/11155111/0x31Ff0F4F1268e421b7B0D0216cC71A5CB2DC02F2/contracts/UniswapV2ERC20.sol\":2850:3524  function permit(address owner, address spender, uint value, uint deadline, uint8 v, bytes32 r, bytes32 s) external {\r... */\n    tag_14:\n      tag_53\n      0x04\n      dup1\n      calldatasize\n      sub\n        /* \"--CODEGEN--\":13:16   */\n      0xe0\n        /* \"--CODEGEN--\":8:11   */\n      dup2\n        /* \"--CODEGEN--\":5:17   */\n      lt\n        /* \"--CODEGEN--\":2:4   */\n      iszero\n      tag_54\n      jumpi\n        /* \"--CODEGEN--\":30:31   */\n      0x00\n        /* \"--CODEGEN--\":27:28   */\n      dup1\n        /* \"--CODEGEN--\":20:32   */\n      revert\n        /* \"--CODEGEN--\":2:4   */\n    tag_54:\n        /* \".debug/11155111/0x31Ff0F4F1268e421b7B0D0216cC71A5CB2DC02F2/contracts/UniswapV2ERC20.sol\":2850:3524  function permit(address owner, address spender, uint value, uint deadline, uint8 v, bytes32 r, bytes32 s) external {\r... */\n      dup2\n      add\n      swap1\n      dup1\n      dup1\n      calldataload\n      0xffffffffffffffffffffffffffffffffffffffff\n      and\n      swap1\n      0x20\n      add\n      swap1\n      swap3\n      swap2\n      swap1\n      dup1\n      calldataload\n      0xffffffffffffffffffffffffffffffffffffffff\n      and\n      swap1\n      0x20\n      add\n      swap1\n      swap3\n      swap2\n      swap1\n      dup1\n      calldataload\n      swap1\n      0x20\n      add\n      swap1\n      swap3\n      swap2\n      swap1\n      dup1\n      calldataload\n      swap1\n      0x20\n      add\n      swap1\n      swap3\n      swap2\n      swap1\n      dup1\n      calldataload\n      0xff\n      and\n      swap1\n      0x20\n      add\n      swap1\n      swap3\n      swap2\n      swap1\n      dup1\n      calldataload\n      swap1\n      0x20\n      add\n      swap1\n      swap3\n      swap2\n      swap1\n      dup1\n      calldataload\n      swap1\n      0x20\n      add\n      swap1\n      swap3\n      swap2\n      swap1\n      pop\n      pop\n      pop\n      tag_55\n      jump\t// in\n    tag_53:\n      stop\n        /* \".debug/11155111/0x31Ff0F4F1268e421b7B0D0216cC71A5CB2DC02F2/contracts/UniswapV2ERC20.sol\":409:470  mapping(address => mapping(address => uint)) public allowance */\n    tag_15:\n      tag_56\n      0x04\n      dup1\n      calldatasize\n      sub\n        /* \"--CODEGEN--\":13:15   */\n      0x40\n        /* \"--CODEGEN--\":8:11   */\n      dup2\n        /* \"--CODEGEN--\":5:16   */\n      lt\n        /* \"--CODEGEN--\":2:4   */\n      iszero\n      tag_57\n      jumpi\n        /* \"--CODEGEN--\":29:30   */\n      0x00\n        /* \"--CODEGEN--\":26:27   */\n      dup1\n        /* \"--CODEGEN--\":19:31   */\n      revert\n        /* \"--CODEGEN--\":2:4   */\n    tag_57:\n        /* \".debug/11155111/0x31Ff0F4F1268e421b7B0D0216cC71A5CB2DC02F2/contracts/UniswapV2ERC20.sol\":409:470  mapping(address => mapping(address => uint)) public allowance */\n      dup2\n      add\n      swap1\n      dup1\n      dup1\n      calldataload\n      0xffffffffffffffffffffffffffffffffffffffff\n      and\n      swap1\n      0x20\n      add\n      swap1\n      swap3\n      swap2\n      swap1\n      dup1\n      calldataload\n      0xffffffffffffffffffffffffffffffffffffffff\n      and\n      swap1\n      0x20\n      add\n      swap1\n      swap3\n      swap2\n      swap1\n      pop\n      pop\n      pop\n      tag_58\n      jump\t// in\n    tag_56:\n      mload(0x40)\n      dup1\n      dup3\n      dup2\n      mstore\n      0x20\n      add\n      swap2\n      pop\n      pop\n      mload(0x40)\n      dup1\n      swap2\n      sub\n      swap1\n      return\n        /* \".debug/11155111/0x31Ff0F4F1268e421b7B0D0216cC71A5CB2DC02F2/contracts/UniswapV2ERC20.sol\":192:234  string public constant name = 'Uniswap V2' */\n    tag_19:\n      mload(0x40)\n      dup1\n      0x40\n      add\n      0x40\n      mstore\n      dup1\n      0x0a\n      dup2\n      mstore\n      0x20\n      add\n      0x556e697377617020563200000000000000000000000000000000000000000000\n      dup2\n      mstore\n      pop\n      dup2\n      jump\t// out\n        /* \".debug/11155111/0x31Ff0F4F1268e421b7B0D0216cC71A5CB2DC02F2/contracts/UniswapV2ERC20.sol\":2239:2386  function approve(address spender, uint value) external returns (bool) {\r... */\n    tag_26:\n        /* \".debug/11155111/0x31Ff0F4F1268e421b7B0D0216cC71A5CB2DC02F2/contracts/UniswapV2ERC20.sol\":2303:2307  bool */\n      0x00\n        /* \".debug/11155111/0x31Ff0F4F1268e421b7B0D0216cC71A5CB2DC02F2/contracts/UniswapV2ERC20.sol\":2320:2356  _approve(msg.sender, spender, value) */\n      tag_60\n        /* \".debug/11155111/0x31Ff0F4F1268e421b7B0D0216cC71A5CB2DC02F2/contracts/UniswapV2ERC20.sol\":2329:2339  msg.sender */\n      caller\n        /* \".debug/11155111/0x31Ff0F4F1268e421b7B0D0216cC71A5CB2DC02F2/contracts/UniswapV2ERC20.sol\":2341:2348  spender */\n      dup5\n        /* \".debug/11155111/0x31Ff0F4F1268e421b7B0D0216cC71A5CB2DC02F2/contracts/UniswapV2ERC20.sol\":2350:2355  value */\n      dup5\n        /* \".debug/11155111/0x31Ff0F4F1268e421b7B0D0216cC71A5CB2DC02F2/contracts/UniswapV2ERC20.sol\":2320:2328  _approve */\n      tag_61\n        /* \".debug/11155111/0x31Ff0F4F1268e421b7B0D0216cC71A5CB2DC02F2/contracts/UniswapV2ERC20.sol\":2320:2356  _approve(msg.sender, spender, value) */\n      jump\t// in\n    tag_60:\n        /* \".debug/11155111/0x31Ff0F4F1268e421b7B0D0216cC71A5CB2DC02F2/contracts/UniswapV2ERC20.sol\":2374:2378  true */\n      0x01\n        /* \".debug/11155111/0x31Ff0F4F1268e421b7B0D0216cC71A5CB2DC02F2/contracts/UniswapV2ERC20.sol\":2367:2378  return true */\n      swap1\n      pop\n        /* \".debug/11155111/0x31Ff0F4F1268e421b7B0D0216cC71A5CB2DC02F2/contracts/UniswapV2ERC20.sol\":2239:2386  function approve(address spender, uint value) external returns (bool) {\r... */\n      swap3\n      swap2\n      pop\n      pop\n      jump\t// out\n        /* \".debug/11155111/0x31Ff0F4F1268e421b7B0D0216cC71A5CB2DC02F2/contracts/UniswapV2ERC20.sol\":330:354  uint  public totalSupply */\n    tag_28:\n      sload(0x00)\n      dup2\n      jump\t// out\n        /* \".debug/11155111/0x31Ff0F4F1268e421b7B0D0216cC71A5CB2DC02F2/contracts/UniswapV2ERC20.sol\":2541:2842  function transferFrom(address from, address to, uint value) external returns (bool) {\r... */\n    tag_31:\n        /* \".debug/11155111/0x31Ff0F4F1268e421b7B0D0216cC71A5CB2DC02F2/contracts/UniswapV2ERC20.sol\":2619:2623  bool */\n      0x00\n        /* \".debug/11155111/0x31Ff0F4F1268e421b7B0D0216cC71A5CB2DC02F2/contracts/UniswapV2ERC20.sol\":2676:2678  -1 */\n      0xffffffffffffffffffffffffffffffffffffffffffffffffffffffffffffffff\n        /* \".debug/11155111/0x31Ff0F4F1268e421b7B0D0216cC71A5CB2DC02F2/contracts/UniswapV2ERC20.sol\":2640:2649  allowance */\n      0x02\n        /* \".debug/11155111/0x31Ff0F4F1268e421b7B0D0216cC71A5CB2DC02F2/contracts/UniswapV2ERC20.sol\":2640:2655  allowance[from] */\n      0x00\n        /* \".debug/11155111/0x31Ff0F4F1268e421b7B0D0216cC71A5CB2DC02F2/contracts/UniswapV2ERC20.sol\":2650:2654  from */\n      dup7\n        /* \".debug/11155111/0x31Ff0F4F1268e421b7B0D0216cC71A5CB2DC02F2/contracts/UniswapV2ERC20.sol\":2640:2655  allowance[from] */\n      0xffffffffffffffffffffffffffffffffffffffff\n      and\n      0xffffffffffffffffffffffffffffffffffffffff\n      and\n      dup2\n      mstore\n      0x20\n      add\n      swap1\n      dup2\n      mstore\n      0x20\n      add\n      0x00\n      keccak256\n        /* \".debug/11155111/0x31Ff0F4F1268e421b7B0D0216cC71A5CB2DC02F2/contracts/UniswapV2ERC20.sol\":2640:2667  allowance[from][msg.sender] */\n      0x00\n        /* \".debug/11155111/0x31Ff0F4F1268e421b7B0D0216cC71A5CB2DC02F2/contracts/UniswapV2ERC20.sol\":2656:2666  msg.sender */\n      caller\n        /* \".debug/11155111/0x31Ff0F4F1268e421b7B0D0216cC71A5CB2DC02F2/contracts/UniswapV2ERC20.sol\":2640:2667  allowance[from][msg.sender] */\n      0xffffffffffffffffffffffffffffffffffffffff\n      and\n      0xffffffffffffffffffffffffffffffffffffffff\n      and\n      dup2\n      mstore\n      0x20\n      add\n      swap1\n      dup2\n      mstore\n      0x20\n      add\n      0x00\n      keccak256\n      sload\n        /* \".debug/11155111/0x31Ff0F4F1268e421b7B0D0216cC71A5CB2DC02F2/contracts/UniswapV2ERC20.sol\":2640:2679  allowance[from][msg.sender] != uint(-1) */\n      eq\n        /* \".debug/11155111/0x31Ff0F4F1268e421b7B0D0216cC71A5CB2DC02F2/contracts/UniswapV2ERC20.sol\":2636:2776  if (allowance[from][msg.sender] != uint(-1)) {\r... */\n      tag_63\n      jumpi\n        /* \".debug/11155111/0x31Ff0F4F1268e421b7B0D0216cC71A5CB2DC02F2/contracts/UniswapV2ERC20.sol\":2726:2764  allowance[from][msg.sender].sub(value) */\n      tag_64\n        /* \".debug/11155111/0x31Ff0F4F1268e421b7B0D0216cC71A5CB2DC02F2/contracts/UniswapV2ERC20.sol\":2758:2763  value */\n      dup3\n        /* \".debug/11155111/0x31Ff0F4F1268e421b7B0D0216cC71A5CB2DC02F2/contracts/UniswapV2ERC20.sol\":2726:2735  allowance */\n      0x02\n        /* \".debug/11155111/0x31Ff0F4F1268e421b7B0D0216cC71A5CB2DC02F2/contracts/UniswapV2ERC20.sol\":2726:2741  allowance[from] */\n      0x00\n        /* \".debug/11155111/0x31Ff0F4F1268e421b7B0D0216cC71A5CB2DC02F2/contracts/UniswapV2ERC20.sol\":2736:2740  from */\n      dup8\n        /* \".debug/11155111/0x31Ff0F4F1268e421b7B0D0216cC71A5CB2DC02F2/contracts/UniswapV2ERC20.sol\":2726:2741  allowance[from] */\n      0xffffffffffffffffffffffffffffffffffffffff\n      and\n      0xffffffffffffffffffffffffffffffffffffffff\n      and\n      dup2\n      mstore\n      0x20\n      add\n      swap1\n      dup2\n      mstore\n      0x20\n      add\n      0x00\n      keccak256\n        /* \".debug/11155111/0x31Ff0F4F1268e421b7B0D0216cC71A5CB2DC02F2/contracts/UniswapV2ERC20.sol\":2726:2753  allowance[from][msg.sender] */\n      0x00\n        /* \".debug/11155111/0x31Ff0F4F1268e421b7B0D0216cC71A5CB2DC02F2/contracts/UniswapV2ERC20.sol\":2742:2752  msg.sender */\n      caller\n        /* \".debug/11155111/0x31Ff0F4F1268e421b7B0D0216cC71A5CB2DC02F2/contracts/UniswapV2ERC20.sol\":2726:2753  allowance[from][msg.sender] */\n      0xffffffffffffffffffffffffffffffffffffffff\n      and\n      0xffffffffffffffffffffffffffffffffffffffff\n      and\n      dup2\n      mstore\n      0x20\n      add\n      swap1\n      dup2\n      mstore\n      0x20\n      add\n      0x00\n      keccak256\n      sload\n        /* \".debug/11155111/0x31Ff0F4F1268e421b7B0D0216cC71A5CB2DC02F2/contracts/UniswapV2ERC20.sol\":2726:2757  allowance[from][msg.sender].sub */\n      tag_65\n      swap1\n        /* \".debug/11155111/0x31Ff0F4F1268e421b7B0D0216cC71A5CB2DC02F2/contracts/UniswapV2ERC20.sol\":2726:2764  allowance[from][msg.sender].sub(value) */\n      swap2\n      swap1\n      0xffffffff\n      and\n      jump\t// in\n    tag_64:\n        /* \".debug/11155111/0x31Ff0F4F1268e421b7B0D0216cC71A5CB2DC02F2/contracts/UniswapV2ERC20.sol\":2696:2705  allowance */\n      0x02\n        /* \".debug/11155111/0x31Ff0F4F1268e421b7B0D0216cC71A5CB2DC02F2/contracts/UniswapV2ERC20.sol\":2696:2711  allowance[from] */\n      0x00\n        /* \".debug/11155111/0x31Ff0F4F1268e421b7B0D0216cC71A5CB2DC02F2/contracts/UniswapV2ERC20.sol\":2706:2710  from */\n      dup7\n        /* \".debug/11155111/0x31Ff0F4F1268e421b7B0D0216cC71A5CB2DC02F2/contracts/UniswapV2ERC20.sol\":2696:2711  allowance[from] */\n      0xffffffffffffffffffffffffffffffffffffffff\n      and\n      0xffffffffffffffffffffffffffffffffffffffff\n      and\n      dup2\n      mstore\n      0x20\n      add\n      swap1\n      dup2\n      mstore\n      0x20\n      add\n      0x00\n      keccak256\n        /* \".debug/11155111/0x31Ff0F4F1268e421b7B0D0216cC71A5CB2DC02F2/contracts/UniswapV2ERC20.sol\":2696:2723  allowance[from][msg.sender] */\n      0x00\n        /* \".debug/11155111/0x31Ff0F4F1268e421b7B0D0216cC71A5CB2DC02F2/contracts/UniswapV2ERC20.sol\":2712:2722  msg.sender */\n      caller\n        /* \".debug/11155111/0x31Ff0F4F1268e421b7B0D0216cC71A5CB2DC02F2/contracts/UniswapV2ERC20.sol\":2696:2723  allowance[from][msg.sender] */\n      0xffffffffffffffffffffffffffffffffffffffff\n      and\n      0xffffffffffffffffffffffffffffffffffffffff\n      and\n      dup2\n      mstore\n      0x20\n      add\n      swap1\n      dup2\n      mstore\n      0x20\n      add\n      0x00\n      keccak256\n        /* \".debug/11155111/0x31Ff0F4F1268e421b7B0D0216cC71A5CB2DC02F2/contracts/UniswapV2ERC20.sol\":2696:2764  allowance[from][msg.sender] = allowance[from][msg.sender].sub(value) */\n      dup2\n      swap1\n      sstore\n      pop\n        /* \".debug/11155111/0x31Ff0F4F1268e421b7B0D0216cC71A5CB2DC02F2/contracts/UniswapV2ERC20.sol\":2636:2776  if (allowance[from][msg.sender] != uint(-1)) {\r... */\n    tag_63:\n        /* \".debug/11155111/0x31Ff0F4F1268e421b7B0D0216cC71A5CB2DC02F2/contracts/UniswapV2ERC20.sol\":2786:2812  _transfer(from, to, value) */\n      tag_66\n        /* \".debug/11155111/0x31Ff0F4F1268e421b7B0D0216cC71A5CB2DC02F2/contracts/UniswapV2ERC20.sol\":2796:2800  from */\n      dup5\n        /* \".debug/11155111/0x31Ff0F4F1268e421b7B0D0216cC71A5CB2DC02F2/contracts/UniswapV2ERC20.sol\":2802:2804  to */\n      dup5\n        /* \".debug/11155111/0x31Ff0F4F1268e421b7B0D0216cC71A5CB2DC02F2/contracts/UniswapV2ERC20.sol\":2806:2811  value */\n      dup5\n        /* \".debug/11155111/0x31Ff0F4F1268e421b7B0D0216cC71A5CB2DC02F2/contracts/UniswapV2ERC20.sol\":2786:2795  _transfer */\n      tag_67\n        /* \".debug/11155111/0x31Ff0F4F1268e421b7B0D0216cC71A5CB2DC02F2/contracts/UniswapV2ERC20.sol\":2786:2812  _transfer(from, to, value) */\n      jump\t// in\n    tag_66:\n        /* \".debug/11155111/0x31Ff0F4F1268e421b7B0D0216cC71A5CB2DC02F2/contracts/UniswapV2ERC20.sol\":2830:2834  true */\n      0x01\n        /* \".debug/11155111/0x31Ff0F4F1268e421b7B0D0216cC71A5CB2DC02F2/contracts/UniswapV2ERC20.sol\":2823:2834  return true */\n      swap1\n      pop\n        /* \".debug/11155111/0x31Ff0F4F1268e421b7B0D0216cC71A5CB2DC02F2/contracts/UniswapV2ERC20.sol\":2541:2842  function transferFrom(address from, address to, uint value) external returns (bool) {\r... */\n      swap4\n      swap3\n      pop\n      pop\n      pop\n      jump\t// out\n        /* \".debug/11155111/0x31Ff0F4F1268e421b7B0D0216cC71A5CB2DC02F2/contracts/UniswapV2ERC20.sol\":622:730  bytes32 public constant PERMIT_TYPEHASH = 0x6e71edae12b1b97f4d1f60370fef10105fa2faae0126114a169c64845d6126c9 */\n    tag_33:\n        /* \".debug/11155111/0x31Ff0F4F1268e421b7B0D0216cC71A5CB2DC02F2/contracts/UniswapV2ERC20.sol\":664:730  0x6e71edae12b1b97f4d1f60370fef10105fa2faae0126114a169c64845d6126c9 */\n      0x6e71edae12b1b97f4d1f60370fef10105fa2faae0126114a169c64845d6126c9\n        /* \".debug/11155111/0x31Ff0F4F1268e421b7B0D0216cC71A5CB2DC02F2/contracts/UniswapV2ERC20.sol\":622:730  bytes32 public constant PERMIT_TYPEHASH = 0x6e71edae12b1b97f4d1f60370fef10105fa2faae0126114a169c64845d6126c9 */\n      0x00\n      shl\n      dup2\n      jump\t// out\n        /* \".debug/11155111/0x31Ff0F4F1268e421b7B0D0216cC71A5CB2DC02F2/contracts/UniswapV2ERC20.sol\":288:323  uint8 public constant decimals = 18 */\n    tag_35:\n        /* \".debug/11155111/0x31Ff0F4F1268e421b7B0D0216cC71A5CB2DC02F2/contracts/UniswapV2ERC20.sol\":321:323  18 */\n      0x12\n        /* \".debug/11155111/0x31Ff0F4F1268e421b7B0D0216cC71A5CB2DC02F2/contracts/UniswapV2ERC20.sol\":288:323  uint8 public constant decimals = 18 */\n      dup2\n      jump\t// out\n        /* \".debug/11155111/0x31Ff0F4F1268e421b7B0D0216cC71A5CB2DC02F2/contracts/UniswapV2ERC20.sol\":479:510  bytes32 public DOMAIN_SEPARATOR */\n    tag_37:\n      sload(0x03)\n      dup2\n      jump\t// out\n        /* \".debug/11155111/0x31Ff0F4F1268e421b7B0D0216cC71A5CB2DC02F2/contracts/UniswapV2ERC20.sol\":361:402  mapping(address => uint) public balanceOf */\n    tag_40:\n      mstore(0x20, 0x01)\n      dup1\n      0x00\n      mstore\n      keccak256(0x00, 0x40)\n      0x00\n      swap2\n      pop\n      swap1\n      pop\n      sload\n      dup2\n      jump\t// out\n        /* \".debug/11155111/0x31Ff0F4F1268e421b7B0D0216cC71A5CB2DC02F2/contracts/UniswapV2ERC20.sol\":737:775  mapping(address => uint) public nonces */\n    tag_43:\n      mstore(0x20, 0x04)\n      dup1\n      0x00\n      mstore\n      keccak256(0x00, 0x40)\n      0x00\n      swap2\n      pop\n      swap1\n      pop\n      sload\n      dup2\n      jump\t// out\n        /* \".debug/11155111/0x31Ff0F4F1268e421b7B0D0216cC71A5CB2DC02F2/contracts/UniswapV2ERC20.sol\":241:281  string public constant symbol = 'UNI-V2' */\n    tag_45:\n      mload(0x40)\n      dup1\n      0x40\n      add\n      0x40\n      mstore\n      dup1\n      0x06\n      dup2\n      mstore\n      0x20\n      add\n      0x554e492d56320000000000000000000000000000000000000000000000000000\n      dup2\n      mstore\n      pop\n      dup2\n      jump\t// out\n        /* \".debug/11155111/0x31Ff0F4F1268e421b7B0D0216cC71A5CB2DC02F2/contracts/UniswapV2ERC20.sol\":2394:2533  function transfer(address to, uint value) external returns (bool) {\r... */\n    tag_52:\n        /* \".debug/11155111/0x31Ff0F4F1268e421b7B0D0216cC71A5CB2DC02F2/contracts/UniswapV2ERC20.sol\":2454:2458  bool */\n      0x00\n        /* \".debug/11155111/0x31Ff0F4F1268e421b7B0D0216cC71A5CB2DC02F2/contracts/UniswapV2ERC20.sol\":2471:2503  _transfer(msg.sender, to, value) */\n      tag_69\n        /* \".debug/11155111/0x31Ff0F4F1268e421b7B0D0216cC71A5CB2DC02F2/contracts/UniswapV2ERC20.sol\":2481:2491  msg.sender */\n      caller\n        /* \".debug/11155111/0x31Ff0F4F1268e421b7B0D0216cC71A5CB2DC02F2/contracts/UniswapV2ERC20.sol\":2493:2495  to */\n      dup5\n        /* \".debug/11155111/0x31Ff0F4F1268e421b7B0D0216cC71A5CB2DC02F2/contracts/UniswapV2ERC20.sol\":2497:2502  value */\n      dup5\n        /* \".debug/11155111/0x31Ff0F4F1268e421b7B0D0216cC71A5CB2DC02F2/contracts/UniswapV2ERC20.sol\":2471:2480  _transfer */\n      tag_67\n        /* \".debug/11155111/0x31Ff0F4F1268e421b7B0D0216cC71A5CB2DC02F2/contracts/UniswapV2ERC20.sol\":2471:2503  _transfer(msg.sender, to, value) */\n      jump\t// in\n    tag_69:\n        /* \".debug/11155111/0x31Ff0F4F1268e421b7B0D0216cC71A5CB2DC02F2/contracts/UniswapV2ERC20.sol\":2521:2525  true */\n      0x01\n        /* \".debug/11155111/0x31Ff0F4F1268e421b7B0D0216cC71A5CB2DC02F2/contracts/UniswapV2ERC20.sol\":2514:2525  return true */\n      swap1\n      pop\n        /* \".debug/11155111/0x31Ff0F4F1268e421b7B0D0216cC71A5CB2DC02F2/contracts/UniswapV2ERC20.sol\":2394:2533  function transfer(address to, uint value) external returns (bool) {\r... */\n      swap3\n      swap2\n      pop\n      pop\n      jump\t// out\n        /* \".debug/11155111/0x31Ff0F4F1268e421b7B0D0216cC71A5CB2DC02F2/contracts/UniswapV2ERC20.sol\":2850:3524  function permit(address owner, address spender, uint value, uint deadline, uint8 v, bytes32 r, bytes32 s) external {\r... */\n    tag_55:\n        /* \".debug/11155111/0x31Ff0F4F1268e421b7B0D0216cC71A5CB2DC02F2/contracts/UniswapV2ERC20.sol\":2996:3011  block.timestamp */\n      timestamp\n        /* \".debug/11155111/0x31Ff0F4F1268e421b7B0D0216cC71A5CB2DC02F2/contracts/UniswapV2ERC20.sol\":2984:2992  deadline */\n      dup5\n        /* \".debug/11155111/0x31Ff0F4F1268e421b7B0D0216cC71A5CB2DC02F2/contracts/UniswapV2ERC20.sol\":2984:3011  deadline >= block.timestamp */\n      lt\n      iszero\n        /* \".debug/11155111/0x31Ff0F4F1268e421b7B0D0216cC71A5CB2DC02F2/contracts/UniswapV2ERC20.sol\":2976:3034  require(deadline >= block.timestamp, 'UniswapV2: EXPIRED') */\n      tag_71\n      jumpi\n      mload(0x40)\n      0x08c379a000000000000000000000000000000000000000000000000000000000\n      dup2\n      mstore\n      0x04\n      add\n      dup1\n      dup1\n      0x20\n      add\n      dup3\n      dup2\n      sub\n      dup3\n      mstore\n      0x12\n      dup2\n      mstore\n      0x20\n      add\n      dup1\n      0x556e697377617056323a20455850495245440000000000000000000000000000\n      dup2\n      mstore\n      pop\n      0x20\n      add\n      swap2\n      pop\n      pop\n      mload(0x40)\n      dup1\n      swap2\n      sub\n      swap1\n      revert\n    tag_71:\n        /* \".debug/11155111/0x31Ff0F4F1268e421b7B0D0216cC71A5CB2DC02F2/contracts/UniswapV2ERC20.sol\":3045:3059  bytes32 digest */\n      0x00\n        /* \".debug/11155111/0x31Ff0F4F1268e421b7B0D0216cC71A5CB2DC02F2/contracts/UniswapV2ERC20.sol\":3150:3166  DOMAIN_SEPARATOR */\n      sload(0x03)\n        /* \".debug/11155111/0x31Ff0F4F1268e421b7B0D0216cC71A5CB2DC02F2/contracts/UniswapV2ERC20.sol\":664:730  0x6e71edae12b1b97f4d1f60370fef10105fa2faae0126114a169c64845d6126c9 */\n      0x6e71edae12b1b97f4d1f60370fef10105fa2faae0126114a169c64845d6126c9\n        /* \".debug/11155111/0x31Ff0F4F1268e421b7B0D0216cC71A5CB2DC02F2/contracts/UniswapV2ERC20.sol\":3206:3221  PERMIT_TYPEHASH */\n      0x00\n      shl\n        /* \".debug/11155111/0x31Ff0F4F1268e421b7B0D0216cC71A5CB2DC02F2/contracts/UniswapV2ERC20.sol\":3223:3228  owner */\n      dup10\n        /* \".debug/11155111/0x31Ff0F4F1268e421b7B0D0216cC71A5CB2DC02F2/contracts/UniswapV2ERC20.sol\":3230:3237  spender */\n      dup10\n        /* \".debug/11155111/0x31Ff0F4F1268e421b7B0D0216cC71A5CB2DC02F2/contracts/UniswapV2ERC20.sol\":3239:3244  value */\n      dup10\n        /* \".debug/11155111/0x31Ff0F4F1268e421b7B0D0216cC71A5CB2DC02F2/contracts/UniswapV2ERC20.sol\":3246:3252  nonces */\n      0x04\n        /* \".debug/11155111/0x31Ff0F4F1268e421b7B0D0216cC71A5CB2DC02F2/contracts/UniswapV2ERC20.sol\":3246:3259  nonces[owner] */\n      0x00\n        /* \".debug/11155111/0x31Ff0F4F1268e421b7B0D0216cC71A5CB2DC02F2/contracts/UniswapV2ERC20.sol\":3253:3258  owner */\n      dup15\n        /* \".debug/11155111/0x31Ff0F4F1268e421b7B0D0216cC71A5CB2DC02F2/contracts/UniswapV2ERC20.sol\":3246:3259  nonces[owner] */\n      0xffffffffffffffffffffffffffffffffffffffff\n      and\n      0xffffffffffffffffffffffffffffffffffffffff\n      and\n      dup2\n      mstore\n      0x20\n      add\n      swap1\n      dup2\n      mstore\n      0x20\n      add\n      0x00\n      keccak256\n      0x00\n        /* \".debug/11155111/0x31Ff0F4F1268e421b7B0D0216cC71A5CB2DC02F2/contracts/UniswapV2ERC20.sol\":3246:3261  nonces[owner]++ */\n      dup2\n      sload\n      dup1\n      swap3\n      swap2\n      swap1\n      0x01\n      add\n      swap2\n      swap1\n      pop\n      sstore\n        /* \".debug/11155111/0x31Ff0F4F1268e421b7B0D0216cC71A5CB2DC02F2/contracts/UniswapV2ERC20.sol\":3263:3271  deadline */\n      dup11\n        /* \".debug/11155111/0x31Ff0F4F1268e421b7B0D0216cC71A5CB2DC02F2/contracts/UniswapV2ERC20.sol\":3195:3272  abi.encode(PERMIT_TYPEHASH, owner, spender, value, nonces[owner]++, deadline) */\n      add(0x20, mload(0x40))\n      dup1\n      dup8\n      dup2\n      mstore\n      0x20\n      add\n      dup7\n      0xffffffffffffffffffffffffffffffffffffffff\n      and\n      0xffffffffffffffffffffffffffffffffffffffff\n      and\n      dup2\n      mstore\n      0x20\n      add\n      dup6\n      0xffffffffffffffffffffffffffffffffffffffff\n      and\n      0xffffffffffffffffffffffffffffffffffffffff\n      and\n      dup2\n      mstore\n      0x20\n      add\n      dup5\n      dup2\n      mstore\n      0x20\n      add\n      dup4\n      dup2\n      mstore\n      0x20\n      add\n      dup3\n      dup2\n      mstore\n      0x20\n      add\n      swap7\n      pop\n      pop\n      pop\n      pop\n      pop\n      pop\n      pop\n      mload(0x40)\n        /* \"--CODEGEN--\":49:53   */\n      0x20\n        /* \"--CODEGEN--\":39:46   */\n      dup2\n        /* \"--CODEGEN--\":30:37   */\n      dup4\n        /* \"--CODEGEN--\":26:47   */\n      sub\n        /* \"--CODEGEN--\":22:54   */\n      sub\n        /* \"--CODEGEN--\":13:20   */\n      dup2\n        /* \"--CODEGEN--\":6:55   */\n      mstore\n        /* \".debug/11155111/0x31Ff0F4F1268e421b7B0D0216cC71A5CB2DC02F2/contracts/UniswapV2ERC20.sol\":3195:3272  abi.encode(PERMIT_TYPEHASH, owner, spender, value, nonces[owner]++, deadline) */\n      swap1\n      0x40\n      mstore\n        /* \".debug/11155111/0x31Ff0F4F1268e421b7B0D0216cC71A5CB2DC02F2/contracts/UniswapV2ERC20.sol\":3185:3273  keccak256(abi.encode(PERMIT_TYPEHASH, owner, spender, value, nonces[owner]++, deadline)) */\n      dup1\n      mload\n      swap1\n      0x20\n      add\n      keccak256\n        /* \".debug/11155111/0x31Ff0F4F1268e421b7B0D0216cC71A5CB2DC02F2/contracts/UniswapV2ERC20.sol\":3086:3288  abi.encodePacked(\r... */\n      add(0x20, mload(0x40))\n      dup1\n      dup1\n      0x1901000000000000000000000000000000000000000000000000000000000000\n      dup2\n      mstore\n      pop\n      0x02\n      add\n      dup4\n      dup2\n      mstore\n      0x20\n      add\n      dup3\n      dup2\n      mstore\n      0x20\n      add\n      swap3\n      pop\n      pop\n      pop\n      mload(0x40)\n        /* \"--CODEGEN--\":49:53   */\n      0x20\n        /* \"--CODEGEN--\":39:46   */\n      dup2\n        /* \"--CODEGEN--\":30:37   */\n      dup4\n        /* \"--CODEGEN--\":26:47   */\n      sub\n        /* \"--CODEGEN--\":22:54   */\n      sub\n        /* \"--CODEGEN--\":13:20   */\n      dup2\n        /* \"--CODEGEN--\":6:55   */\n      mstore\n        /* \".debug/11155111/0x31Ff0F4F1268e421b7B0D0216cC71A5CB2DC02F2/contracts/UniswapV2ERC20.sol\":3086:3288  abi.encodePacked(\r... */\n      swap1\n      0x40\n      mstore\n        /* \".debug/11155111/0x31Ff0F4F1268e421b7B0D0216cC71A5CB2DC02F2/contracts/UniswapV2ERC20.sol\":3062:3299  keccak256(\r... */\n      dup1\n      mload\n      swap1\n      0x20\n      add\n      keccak256\n        /* \".debug/11155111/0x31Ff0F4F1268e421b7B0D0216cC71A5CB2DC02F2/contracts/UniswapV2ERC20.sol\":3045:3299  bytes32 digest = keccak256(\r... */\n      swap1\n      pop\n        /* \".debug/11155111/0x31Ff0F4F1268e421b7B0D0216cC71A5CB2DC02F2/contracts/UniswapV2ERC20.sol\":3310:3334  address recoveredAddress */\n      0x00\n        /* \".debug/11155111/0x31Ff0F4F1268e421b7B0D0216cC71A5CB2DC02F2/contracts/UniswapV2ERC20.sol\":3337:3363  ecrecover(digest, v, r, s) */\n      0x01\n        /* \".debug/11155111/0x31Ff0F4F1268e421b7B0D0216cC71A5CB2DC02F2/contracts/UniswapV2ERC20.sol\":3347:3353  digest */\n      dup3\n        /* \".debug/11155111/0x31Ff0F4F1268e421b7B0D0216cC71A5CB2DC02F2/contracts/UniswapV2ERC20.sol\":3355:3356  v */\n      dup7\n        /* \".debug/11155111/0x31Ff0F4F1268e421b7B0D0216cC71A5CB2DC02F2/contracts/UniswapV2ERC20.sol\":3358:3359  r */\n      dup7\n        /* \".debug/11155111/0x31Ff0F4F1268e421b7B0D0216cC71A5CB2DC02F2/contracts/UniswapV2ERC20.sol\":3361:3362  s */\n      dup7\n        /* \".debug/11155111/0x31Ff0F4F1268e421b7B0D0216cC71A5CB2DC02F2/contracts/UniswapV2ERC20.sol\":3337:3363  ecrecover(digest, v, r, s) */\n      mload(0x40)\n      0x00\n      dup2\n      mstore\n      0x20\n      add\n      0x40\n      mstore\n      mload(0x40)\n      dup1\n      dup6\n      dup2\n      mstore\n      0x20\n      add\n      dup5\n      0xff\n      and\n      0xff\n      and\n      dup2\n      mstore\n      0x20\n      add\n      dup4\n      dup2\n      mstore\n      0x20\n      add\n      dup3\n      dup2\n      mstore\n      0x20\n      add\n      swap5\n      pop\n      pop\n      pop\n      pop\n      pop\n      0x20\n      mload(0x40)\n      0x20\n      dup2\n      sub\n      swap1\n      dup1\n      dup5\n      sub\n      swap1\n      dup6\n      gas\n      staticcall\n      iszero\n        /* \"--CODEGEN--\":8:17   */\n      dup1\n        /* \"--CODEGEN--\":5:7   */\n      iszero\n      tag_72\n      jumpi\n        /* \"--CODEGEN--\":45:61   */\n      returndatasize\n        /* \"--CODEGEN--\":42:43   */\n      0x00\n        /* \"--CODEGEN--\":39:40   */\n      dup1\n        /* \"--CODEGEN--\":24:62   */\n      returndatacopy\n        /* \"--CODEGEN--\":77:93   */\n      returndatasize\n        /* \"--CODEGEN--\":74:75   */\n      0x00\n        /* \"--CODEGEN--\":67:94   */\n      revert\n        /* \"--CODEGEN--\":5:7   */\n    tag_72:\n        /* \".debug/11155111/0x31Ff0F4F1268e421b7B0D0216cC71A5CB2DC02F2/contracts/UniswapV2ERC20.sol\":3337:3363  ecrecover(digest, v, r, s) */\n      pop\n      pop\n      pop\n      mload(sub(mload(0x40), 0x20))\n        /* \".debug/11155111/0x31Ff0F4F1268e421b7B0D0216cC71A5CB2DC02F2/contracts/UniswapV2ERC20.sol\":3310:3363  address recoveredAddress = ecrecover(digest, v, r, s) */\n      swap1\n      pop\n        /* \".debug/11155111/0x31Ff0F4F1268e421b7B0D0216cC71A5CB2DC02F2/contracts/UniswapV2ERC20.sol\":3410:3411  0 */\n      0x00\n        /* \".debug/11155111/0x31Ff0F4F1268e421b7B0D0216cC71A5CB2DC02F2/contracts/UniswapV2ERC20.sol\":3382:3412  recoveredAddress != address(0) */\n      0xffffffffffffffffffffffffffffffffffffffff\n      and\n        /* \".debug/11155111/0x31Ff0F4F1268e421b7B0D0216cC71A5CB2DC02F2/contracts/UniswapV2ERC20.sol\":3382:3398  recoveredAddress */\n      dup2\n        /* \".debug/11155111/0x31Ff0F4F1268e421b7B0D0216cC71A5CB2DC02F2/contracts/UniswapV2ERC20.sol\":3382:3412  recoveredAddress != address(0) */\n      0xffffffffffffffffffffffffffffffffffffffff\n      and\n      eq\n      iszero\n        /* \".debug/11155111/0x31Ff0F4F1268e421b7B0D0216cC71A5CB2DC02F2/contracts/UniswapV2ERC20.sol\":3382:3441  recoveredAddress != address(0) && recoveredAddress == owner */\n      dup1\n      iszero\n      tag_73\n      jumpi\n      pop\n        /* \".debug/11155111/0x31Ff0F4F1268e421b7B0D0216cC71A5CB2DC02F2/contracts/UniswapV2ERC20.sol\":3436:3441  owner */\n      dup9\n        /* \".debug/11155111/0x31Ff0F4F1268e421b7B0D0216cC71A5CB2DC02F2/contracts/UniswapV2ERC20.sol\":3416:3441  recoveredAddress == owner */\n      0xffffffffffffffffffffffffffffffffffffffff\n      and\n        /* \".debug/11155111/0x31Ff0F4F1268e421b7B0D0216cC71A5CB2DC02F2/contracts/UniswapV2ERC20.sol\":3416:3432  recoveredAddress */\n      dup2\n        /* \".debug/11155111/0x31Ff0F4F1268e421b7B0D0216cC71A5CB2DC02F2/contracts/UniswapV2ERC20.sol\":3416:3441  recoveredAddress == owner */\n      0xffffffffffffffffffffffffffffffffffffffff\n      and\n      eq\n        /* \".debug/11155111/0x31Ff0F4F1268e421b7B0D0216cC71A5CB2DC02F2/contracts/UniswapV2ERC20.sol\":3382:3441  recoveredAddress != address(0) && recoveredAddress == owner */\n    tag_73:\n        /* \".debug/11155111/0x31Ff0F4F1268e421b7B0D0216cC71A5CB2DC02F2/contracts/UniswapV2ERC20.sol\":3374:3474  require(recoveredAddress != address(0) && recoveredAddress == owner, 'UniswapV2: INVALID_SIGNATURE') */\n      tag_74\n      jumpi\n      mload(0x40)\n      0x08c379a000000000000000000000000000000000000000000000000000000000\n      dup2\n      mstore\n      0x04\n      add\n      dup1\n      dup1\n      0x20\n      add\n      dup3\n      dup2\n      sub\n      dup3\n      mstore\n      0x1c\n      dup2\n      mstore\n      0x20\n      add\n      dup1\n      0x556e697377617056323a20494e56414c49445f5349474e415455524500000000\n      dup2\n      mstore\n      pop\n      0x20\n      add\n      swap2\n      pop\n      pop\n      mload(0x40)\n      dup1\n      swap2\n      sub\n      swap1\n      revert\n    tag_74:\n        /* \".debug/11155111/0x31Ff0F4F1268e421b7B0D0216cC71A5CB2DC02F2/contracts/UniswapV2ERC20.sol\":3485:3516  _approve(owner, spender, value) */\n      tag_75\n        /* \".debug/11155111/0x31Ff0F4F1268e421b7B0D0216cC71A5CB2DC02F2/contracts/UniswapV2ERC20.sol\":3494:3499  owner */\n      dup10\n        /* \".debug/11155111/0x31Ff0F4F1268e421b7B0D0216cC71A5CB2DC02F2/contracts/UniswapV2ERC20.sol\":3501:3508  spender */\n      dup10\n        /* \".debug/11155111/0x31Ff0F4F1268e421b7B0D0216cC71A5CB2DC02F2/contracts/UniswapV2ERC20.sol\":3510:3515  value */\n      dup10\n        /* \".debug/11155111/0x31Ff0F4F1268e421b7B0D0216cC71A5CB2DC02F2/contracts/UniswapV2ERC20.sol\":3485:3493  _approve */\n      tag_61\n        /* \".debug/11155111/0x31Ff0F4F1268e421b7B0D0216cC71A5CB2DC02F2/contracts/UniswapV2ERC20.sol\":3485:3516  _approve(owner, spender, value) */\n      jump\t// in\n    tag_75:\n        /* \".debug/11155111/0x31Ff0F4F1268e421b7B0D0216cC71A5CB2DC02F2/contracts/UniswapV2ERC20.sol\":2850:3524  function permit(address owner, address spender, uint value, uint deadline, uint8 v, bytes32 r, bytes32 s) external {\r... */\n      pop\n      pop\n      pop\n      pop\n      pop\n      pop\n      pop\n      pop\n      pop\n      jump\t// out\n        /* \".debug/11155111/0x31Ff0F4F1268e421b7B0D0216cC71A5CB2DC02F2/contracts/UniswapV2ERC20.sol\":409:470  mapping(address => mapping(address => uint)) public allowance */\n    tag_58:\n      mstore(0x20, 0x02)\n      dup2\n      0x00\n      mstore\n      mstore(0x20, keccak256(0x00, 0x40))\n      dup1\n      0x00\n      mstore\n      keccak256(0x00, 0x40)\n      0x00\n      swap2\n      pop\n      swap2\n      pop\n      pop\n      sload\n      dup2\n      jump\t// out\n        /* \".debug/11155111/0x31Ff0F4F1268e421b7B0D0216cC71A5CB2DC02F2/contracts/UniswapV2ERC20.sol\":1834:2003  function _approve(address owner, address spender, uint value) private {\r... */\n    tag_61:\n        /* \".debug/11155111/0x31Ff0F4F1268e421b7B0D0216cC71A5CB2DC02F2/contracts/UniswapV2ERC20.sol\":1943:1948  value */\n      dup1\n        /* \".debug/11155111/0x31Ff0F4F1268e421b7B0D0216cC71A5CB2DC02F2/contracts/UniswapV2ERC20.sol\":1915:1924  allowance */\n      0x02\n        /* \".debug/11155111/0x31Ff0F4F1268e421b7B0D0216cC71A5CB2DC02F2/contracts/UniswapV2ERC20.sol\":1915:1931  allowance[owner] */\n      0x00\n        /* \".debug/11155111/0x31Ff0F4F1268e421b7B0D0216cC71A5CB2DC02F2/contracts/UniswapV2ERC20.sol\":1925:1930  owner */\n      dup6\n        /* \".debug/11155111/0x31Ff0F4F1268e421b7B0D0216cC71A5CB2DC02F2/contracts/UniswapV2ERC20.sol\":1915:1931  allowance[owner] */\n      0xffffffffffffffffffffffffffffffffffffffff\n      and\n      0xffffffffffffffffffffffffffffffffffffffff\n      and\n      dup2\n      mstore\n      0x20\n      add\n      swap1\n      dup2\n      mstore\n      0x20\n      add\n      0x00\n      keccak256\n        /* \".debug/11155111/0x31Ff0F4F1268e421b7B0D0216cC71A5CB2DC02F2/contracts/UniswapV2ERC20.sol\":1915:1940  allowance[owner][spender] */\n      0x00\n        /* \".debug/11155111/0x31Ff0F4F1268e421b7B0D0216cC71A5CB2DC02F2/contracts/UniswapV2ERC20.sol\":1932:1939  spender */\n      dup5\n        /* \".debug/11155111/0x31Ff0F4F1268e421b7B0D0216cC71A5CB2DC02F2/contracts/UniswapV2ERC20.sol\":1915:1940  allowance[owner][spender] */\n      0xffffffffffffffffffffffffffffffffffffffff\n      and\n      0xffffffffffffffffffffffffffffffffffffffff\n      and\n      dup2\n      mstore\n      0x20\n      add\n      swap1\n      dup2\n      mstore\n      0x20\n      add\n      0x00\n      keccak256\n        /* \".debug/11155111/0x31Ff0F4F1268e421b7B0D0216cC71A5CB2DC02F2/contracts/UniswapV2ERC20.sol\":1915:1948  allowance[owner][spender] = value */\n      dup2\n      swap1\n      sstore\n      pop\n        /* \".debug/11155111/0x31Ff0F4F1268e421b7B0D0216cC71A5CB2DC02F2/contracts/UniswapV2ERC20.sol\":1980:1987  spender */\n      dup2\n        /* \".debug/11155111/0x31Ff0F4F1268e421b7B0D0216cC71A5CB2DC02F2/contracts/UniswapV2ERC20.sol\":1964:1995  Approval(owner, spender, value) */\n      0xffffffffffffffffffffffffffffffffffffffff\n      and\n        /* \".debug/11155111/0x31Ff0F4F1268e421b7B0D0216cC71A5CB2DC02F2/contracts/UniswapV2ERC20.sol\":1973:1978  owner */\n      dup4\n        /* \".debug/11155111/0x31Ff0F4F1268e421b7B0D0216cC71A5CB2DC02F2/contracts/UniswapV2ERC20.sol\":1964:1995  Approval(owner, spender, value) */\n      0xffffffffffffffffffffffffffffffffffffffff\n      and\n      0x8c5be1e5ebec7d5bd14f71427d1e84f3dd0314c0f7b2291e5b200ac8c7c3b925\n        /* \".debug/11155111/0x31Ff0F4F1268e421b7B0D0216cC71A5CB2DC02F2/contracts/UniswapV2ERC20.sol\":1989:1994  value */\n      dup4\n        /* \".debug/11155111/0x31Ff0F4F1268e421b7B0D0216cC71A5CB2DC02F2/contracts/UniswapV2ERC20.sol\":1964:1995  Approval(owner, spender, value) */\n      mload(0x40)\n      dup1\n      dup3\n      dup2\n      mstore\n      0x20\n      add\n      swap2\n      pop\n      pop\n      mload(0x40)\n      dup1\n      swap2\n      sub\n      swap1\n      log3\n        /* \".debug/11155111/0x31Ff0F4F1268e421b7B0D0216cC71A5CB2DC02F2/contracts/UniswapV2ERC20.sol\":1834:2003  function _approve(address owner, address spender, uint value) private {\r... */\n      pop\n      pop\n      pop\n      jump\t// out\n        /* \".debug/11155111/0x31Ff0F4F1268e421b7B0D0216cC71A5CB2DC02F2/contracts/libraries/SafeMath.sol\":296:425  function sub(uint x, uint y) internal pure returns (uint z) {\r... */\n    tag_65:\n        /* \".debug/11155111/0x31Ff0F4F1268e421b7B0D0216cC71A5CB2DC02F2/contracts/libraries/SafeMath.sol\":348:354  uint z */\n      0x00\n        /* \".debug/11155111/0x31Ff0F4F1268e421b7B0D0216cC71A5CB2DC02F2/contracts/libraries/SafeMath.sol\":390:391  x */\n      dup3\n        /* \".debug/11155111/0x31Ff0F4F1268e421b7B0D0216cC71A5CB2DC02F2/contracts/libraries/SafeMath.sol\":384:385  y */\n      dup3\n        /* \".debug/11155111/0x31Ff0F4F1268e421b7B0D0216cC71A5CB2DC02F2/contracts/libraries/SafeMath.sol\":380:381  x */\n      dup5\n        /* \".debug/11155111/0x31Ff0F4F1268e421b7B0D0216cC71A5CB2DC02F2/contracts/libraries/SafeMath.sol\":380:385  x - y */\n      sub\n        /* \".debug/11155111/0x31Ff0F4F1268e421b7B0D0216cC71A5CB2DC02F2/contracts/libraries/SafeMath.sol\":376:385  z = x - y */\n      swap2\n      pop\n      dup2\n        /* \".debug/11155111/0x31Ff0F4F1268e421b7B0D0216cC71A5CB2DC02F2/contracts/libraries/SafeMath.sol\":375:391  (z = x - y) <= x */\n      gt\n      iszero\n        /* \".debug/11155111/0x31Ff0F4F1268e421b7B0D0216cC71A5CB2DC02F2/contracts/libraries/SafeMath.sol\":367:417  require((z = x - y) <= x, 'ds-math-sub-underflow') */\n      tag_78\n      jumpi\n      mload(0x40)\n      0x08c379a000000000000000000000000000000000000000000000000000000000\n      dup2\n      mstore\n      0x04\n      add\n      dup1\n      dup1\n      0x20\n      add\n      dup3\n      dup2\n      sub\n      dup3\n      mstore\n      0x15\n      dup2\n      mstore\n      0x20\n      add\n      dup1\n      0x64732d6d6174682d7375622d756e646572666c6f770000000000000000000000\n      dup2\n      mstore\n      pop\n      0x20\n      add\n      swap2\n      pop\n      pop\n      mload(0x40)\n      dup1\n      swap2\n      sub\n      swap1\n      revert\n    tag_78:\n        /* \".debug/11155111/0x31Ff0F4F1268e421b7B0D0216cC71A5CB2DC02F2/contracts/libraries/SafeMath.sol\":296:425  function sub(uint x, uint y) internal pure returns (uint z) {\r... */\n      swap3\n      swap2\n      pop\n      pop\n      jump\t// out\n        /* \".debug/11155111/0x31Ff0F4F1268e421b7B0D0216cC71A5CB2DC02F2/contracts/UniswapV2ERC20.sol\":2011:2231  function _transfer(address from, address to, uint value) private {\r... */\n    tag_67:\n        /* \".debug/11155111/0x31Ff0F4F1268e421b7B0D0216cC71A5CB2DC02F2/contracts/UniswapV2ERC20.sol\":2105:2131  balanceOf[from].sub(value) */\n      tag_80\n        /* \".debug/11155111/0x31Ff0F4F1268e421b7B0D0216cC71A5CB2DC02F2/contracts/UniswapV2ERC20.sol\":2125:2130  value */\n      dup2\n        /* \".debug/11155111/0x31Ff0F4F1268e421b7B0D0216cC71A5CB2DC02F2/contracts/UniswapV2ERC20.sol\":2105:2114  balanceOf */\n      0x01\n        /* \".debug/11155111/0x31Ff0F4F1268e421b7B0D0216cC71A5CB2DC02F2/contracts/UniswapV2ERC20.sol\":2105:2120  balanceOf[from] */\n      0x00\n        /* \".debug/11155111/0x31Ff0F4F1268e421b7B0D0216cC71A5CB2DC02F2/contracts/UniswapV2ERC20.sol\":2115:2119  from */\n      dup7\n        /* \".debug/11155111/0x31Ff0F4F1268e421b7B0D0216cC71A5CB2DC02F2/contracts/UniswapV2ERC20.sol\":2105:2120  balanceOf[from] */\n      0xffffffffffffffffffffffffffffffffffffffff\n      and\n      0xffffffffffffffffffffffffffffffffffffffff\n      and\n      dup2\n      mstore\n      0x20\n      add\n      swap1\n      dup2\n      mstore\n      0x20\n      add\n      0x00\n      keccak256\n      sload\n        /* \".debug/11155111/0x31Ff0F4F1268e421b7B0D0216cC71A5CB2DC02F2/contracts/UniswapV2ERC20.sol\":2105:2124  balanceOf[from].sub */\n      tag_65\n      swap1\n        /* \".debug/11155111/0x31Ff0F4F1268e421b7B0D0216cC71A5CB2DC02F2/contracts/UniswapV2ERC20.sol\":2105:2131  balanceOf[from].sub(value) */\n      swap2\n      swap1\n      0xffffffff\n      and\n      jump\t// in\n    tag_80:\n        /* \".debug/11155111/0x31Ff0F4F1268e421b7B0D0216cC71A5CB2DC02F2/contracts/UniswapV2ERC20.sol\":2087:2096  balanceOf */\n      0x01\n        /* \".debug/11155111/0x31Ff0F4F1268e421b7B0D0216cC71A5CB2DC02F2/contracts/UniswapV2ERC20.sol\":2087:2102  balanceOf[from] */\n      0x00\n        /* \".debug/11155111/0x31Ff0F4F1268e421b7B0D0216cC71A5CB2DC02F2/contracts/UniswapV2ERC20.sol\":2097:2101  from */\n      dup6\n        /* \".debug/11155111/0x31Ff0F4F1268e421b7B0D0216cC71A5CB2DC02F2/contracts/UniswapV2ERC20.sol\":2087:2102  balanceOf[from] */\n      0xffffffffffffffffffffffffffffffffffffffff\n      and\n      0xffffffffffffffffffffffffffffffffffffffff\n      and\n      dup2\n      mstore\n      0x20\n      add\n      swap1\n      dup2\n      mstore\n      0x20\n      add\n      0x00\n      keccak256\n        /* \".debug/11155111/0x31Ff0F4F1268e421b7B0D0216cC71A5CB2DC02F2/contracts/UniswapV2ERC20.sol\":2087:2131  balanceOf[from] = balanceOf[from].sub(value) */\n      dup2\n      swap1\n      sstore\n      pop\n        /* \".debug/11155111/0x31Ff0F4F1268e421b7B0D0216cC71A5CB2DC02F2/contracts/UniswapV2ERC20.sol\":2158:2182  balanceOf[to].add(value) */\n      tag_81\n        /* \".debug/11155111/0x31Ff0F4F1268e421b7B0D0216cC71A5CB2DC02F2/contracts/UniswapV2ERC20.sol\":2176:2181  value */\n      dup2\n        /* \".debug/11155111/0x31Ff0F4F1268e421b7B0D0216cC71A5CB2DC02F2/contracts/UniswapV2ERC20.sol\":2158:2167  balanceOf */\n      0x01\n        /* \".debug/11155111/0x31Ff0F4F1268e421b7B0D0216cC71A5CB2DC02F2/contracts/UniswapV2ERC20.sol\":2158:2171  balanceOf[to] */\n      0x00\n        /* \".debug/11155111/0x31Ff0F4F1268e421b7B0D0216cC71A5CB2DC02F2/contracts/UniswapV2ERC20.sol\":2168:2170  to */\n      dup6\n        /* \".debug/11155111/0x31Ff0F4F1268e421b7B0D0216cC71A5CB2DC02F2/contracts/UniswapV2ERC20.sol\":2158:2171  balanceOf[to] */\n      0xffffffffffffffffffffffffffffffffffffffff\n      and\n      0xffffffffffffffffffffffffffffffffffffffff\n      and\n      dup2\n      mstore\n      0x20\n      add\n      swap1\n      dup2\n      mstore\n      0x20\n      add\n      0x00\n      keccak256\n      sload\n        /* \".debug/11155111/0x31Ff0F4F1268e421b7B0D0216cC71A5CB2DC02F2/contracts/UniswapV2ERC20.sol\":2158:2175  balanceOf[to].add */\n      tag_82\n      swap1\n        /* \".debug/11155111/0x31Ff0F4F1268e421b7B0D0216cC71A5CB2DC02F2/contracts/UniswapV2ERC20.sol\":2158:2182  balanceOf[to].add(value) */\n      swap2\n      swap1\n      0xffffffff\n      and\n      jump\t// in\n    tag_81:\n        /* \".debug/11155111/0x31Ff0F4F1268e421b7B0D0216cC71A5CB2DC02F2/contracts/UniswapV2ERC20.sol\":2142:2151  balanceOf */\n      0x01\n        /* \".debug/11155111/0x31Ff0F4F1268e421b7B0D0216cC71A5CB2DC02F2/contracts/UniswapV2ERC20.sol\":2142:2155  balanceOf[to] */\n      0x00\n        /* \".debug/11155111/0x31Ff0F4F1268e421b7B0D0216cC71A5CB2DC02F2/contracts/UniswapV2ERC20.sol\":2152:2154  to */\n      dup5\n        /* \".debug/11155111/0x31Ff0F4F1268e421b7B0D0216cC71A5CB2DC02F2/contracts/UniswapV2ERC20.sol\":2142:2155  balanceOf[to] */\n      0xffffffffffffffffffffffffffffffffffffffff\n      and\n      0xffffffffffffffffffffffffffffffffffffffff\n      and\n      dup2\n      mstore\n      0x20\n      add\n      swap1\n      dup2\n      mstore\n      0x20\n      add\n      0x00\n      keccak256\n        /* \".debug/11155111/0x31Ff0F4F1268e421b7B0D0216cC71A5CB2DC02F2/contracts/UniswapV2ERC20.sol\":2142:2182  balanceOf[to] = balanceOf[to].add(value) */\n      dup2\n      swap1\n      sstore\n      pop\n        /* \".debug/11155111/0x31Ff0F4F1268e421b7B0D0216cC71A5CB2DC02F2/contracts/UniswapV2ERC20.sol\":2213:2215  to */\n      dup2\n        /* \".debug/11155111/0x31Ff0F4F1268e421b7B0D0216cC71A5CB2DC02F2/contracts/UniswapV2ERC20.sol\":2198:2223  Transfer(from, to, value) */\n      0xffffffffffffffffffffffffffffffffffffffff\n      and\n        /* \".debug/11155111/0x31Ff0F4F1268e421b7B0D0216cC71A5CB2DC02F2/contracts/UniswapV2ERC20.sol\":2207:2211  from */\n      dup4\n        /* \".debug/11155111/0x31Ff0F4F1268e421b7B0D0216cC71A5CB2DC02F2/contracts/UniswapV2ERC20.sol\":2198:2223  Transfer(from, to, value) */\n      0xffffffffffffffffffffffffffffffffffffffff\n      and\n      0xddf252ad1be2c89b69c2b068fc378daa952ba7f163c4a11628f55a4df523b3ef\n        /* \".debug/11155111/0x31Ff0F4F1268e421b7B0D0216cC71A5CB2DC02F2/contracts/UniswapV2ERC20.sol\":2217:2222  value */\n      dup4\n        /* \".debug/11155111/0x31Ff0F4F1268e421b7B0D0216cC71A5CB2DC02F2/contracts/UniswapV2ERC20.sol\":2198:2223  Transfer(from, to, value) */\n      mload(0x40)\n      dup1\n      dup3\n      dup2\n      mstore\n      0x20\n      add\n      swap2\n      pop\n      pop\n      mload(0x40)\n      dup1\n      swap2\n      sub\n      swap1\n      log3\n        /* \".debug/11155111/0x31Ff0F4F1268e421b7B0D0216cC71A5CB2DC02F2/contracts/UniswapV2ERC20.sol\":2011:2231  function _transfer(address from, address to, uint value) private {\r... */\n      pop\n      pop\n      pop\n      jump\t// out\n        /* \".debug/11155111/0x31Ff0F4F1268e421b7B0D0216cC71A5CB2DC02F2/contracts/libraries/SafeMath.sol\":160:288  function add(uint x, uint y) internal pure returns (uint z) {\r... */\n    tag_82:\n        /* \".debug/11155111/0x31Ff0F4F1268e421b7B0D0216cC71A5CB2DC02F2/contracts/libraries/SafeMath.sol\":212:218  uint z */\n      0x00\n        /* \".debug/11155111/0x31Ff0F4F1268e421b7B0D0216cC71A5CB2DC02F2/contracts/libraries/SafeMath.sol\":254:255  x */\n      dup3\n        /* \".debug/11155111/0x31Ff0F4F1268e421b7B0D0216cC71A5CB2DC02F2/contracts/libraries/SafeMath.sol\":248:249  y */\n      dup3\n        /* \".debug/11155111/0x31Ff0F4F1268e421b7B0D0216cC71A5CB2DC02F2/contracts/libraries/SafeMath.sol\":244:245  x */\n      dup5\n        /* \".debug/11155111/0x31Ff0F4F1268e421b7B0D0216cC71A5CB2DC02F2/contracts/libraries/SafeMath.sol\":244:249  x + y */\n      add\n        /* \".debug/11155111/0x31Ff0F4F1268e421b7B0D0216cC71A5CB2DC02F2/contracts/libraries/SafeMath.sol\":240:249  z = x + y */\n      swap2\n      pop\n      dup2\n        /* \".debug/11155111/0x31Ff0F4F1268e421b7B0D0216cC71A5CB2DC02F2/contracts/libraries/SafeMath.sol\":239:255  (z = x + y) >= x */\n      lt\n      iszero\n        /* \".debug/11155111/0x31Ff0F4F1268e421b7B0D0216cC71A5CB2DC02F2/contracts/libraries/SafeMath.sol\":231:280  require((z = x + y) >= x, 'ds-math-add-overflow') */\n      tag_84\n      jumpi\n      mload(0x40)\n      0x08c379a000000000000000000000000000000000000000000000000000000000\n      dup2\n      mstore\n      0x04\n      add\n      dup1\n      dup1\n      0x20\n      add\n      dup3\n      dup2\n      sub\n      dup3\n      mstore\n      0x14\n      dup2\n      mstore\n      0x20\n      add\n      dup1\n      0x64732d6d6174682d6164642d6f766572666c6f77000000000000000000000000\n      dup2\n      mstore\n      pop\n      0x20\n      add\n      swap2\n      pop\n      pop\n      mload(0x40)\n      dup1\n      swap2\n      sub\n      swap1\n      revert\n    tag_84:\n        /* \".debug/11155111/0x31Ff0F4F1268e421b7B0D0216cC71A5CB2DC02F2/contracts/libraries/SafeMath.sol\":160:288  function add(uint x, uint y) internal pure returns (uint z) {\r... */\n      swap3\n      swap2\n      pop\n      pop\n      jump\t// out\n\n    auxdata: 0xa265627a7a72315820757cde1b8d78c1d0549cafa6babb3c7c9fbd56e84edb34f61e039e2fdee3e01c64736f6c63430005100032\n}\n",
				"bytecode": {
					"linkReferences": {},
					"object": "608060405234801561001057600080fd5b506000469050604051808061109060529139605201905060405180910390206040518060400160405280600a81526020017f556e697377617020563200000000000000000000000000000000000000000000815250805190602001206040518060400160405280600181526020017f3100000000000000000000000000000000000000000000000000000000000000815250805190602001208330604051602001808681526020018581526020018481526020018381526020018273ffffffffffffffffffffffffffffffffffffffff1673ffffffffffffffffffffffffffffffffffffffff168152602001955050505050506040516020818303038152906040528051906020012060038190555050610f618061012f6000396000f3fe608060405234801561001057600080fd5b50600436106100cf5760003560e01c80633644e5151161008c57806395d89b411161006657806395d89b4114610371578063a9059cbb146103f4578063d505accf1461045a578063dd62ed3e146104f3576100cf565b80633644e515146102a357806370a08231146102c15780637ecebe0014610319576100cf565b806306fdde03146100d4578063095ea7b31461015757806318160ddd146101bd57806323b872dd146101db57806330adf81f14610261578063313ce5671461027f575b600080fd5b6100dc61056b565b6040518080602001828103825283818151815260200191508051906020019080838360005b8381101561011c578082015181840152602081019050610101565b50505050905090810190601f1680156101495780820380516001836020036101000a031916815260200191505b509250505060405180910390f35b6101a36004803603604081101561016d57600080fd5b81019080803573ffffffffffffffffffffffffffffffffffffffff169060200190929190803590602001909291905050506105a4565b604051808215151515815260200191505060405180910390f35b6101c56105bb565b6040518082815260200191505060405180910390f35b610247600480360360608110156101f157600080fd5b81019080803573ffffffffffffffffffffffffffffffffffffffff169060200190929190803573ffffffffffffffffffffffffffffffffffffffff169060200190929190803590602001909291905050506105c1565b604051808215151515815260200191505060405180910390f35b61026961078c565b6040518082815260200191505060405180910390f35b6102876107b3565b604051808260ff1660ff16815260200191505060405180910390f35b6102ab6107b8565b6040518082815260200191505060405180910390f35b610303600480360360208110156102d757600080fd5b81019080803573ffffffffffffffffffffffffffffffffffffffff1690602001909291905050506107be565b6040518082815260200191505060405180910390f35b61035b6004803603602081101561032f57600080fd5b81019080803573ffffffffffffffffffffffffffffffffffffffff1690602001909291905050506107d6565b6040518082815260200191505060405180910390f35b6103796107ee565b6040518080602001828103825283818151815260200191508051906020019080838360005b838110156103b957808201518184015260208101905061039e565b50505050905090810190601f1680156103e65780820380516001836020036101000a031916815260200191505b509250505060405180910390f35b6104406004803603604081101561040a57600080fd5b81019080803573ffffffffffffffffffffffffffffffffffffffff16906020019092919080359060200190929190505050610827565b604051808215151515815260200191505060405180910390f35b6104f1600480360360e081101561047057600080fd5b81019080803573ffffffffffffffffffffffffffffffffffffffff169060200190929190803573ffffffffffffffffffffffffffffffffffffffff1690602001909291908035906020019092919080359060200190929190803560ff169060200190929190803590602001909291908035906020019092919050505061083e565b005b6105556004803603604081101561050957600080fd5b81019080803573ffffffffffffffffffffffffffffffffffffffff169060200190929190803573ffffffffffffffffffffffffffffffffffffffff169060200190929190505050610b82565b6040518082815260200191505060405180910390f35b6040518060400160405280600a81526020017f556e69737761702056320000000000000000000000000000000000000000000081525081565b60006105b1338484610ba7565b6001905092915050565b60005481565b60007fffffffffffffffffffffffffffffffffffffffffffffffffffffffffffffffff600260008673ffffffffffffffffffffffffffffffffffffffff1673ffffffffffffffffffffffffffffffffffffffff16815260200190815260200160002060003373ffffffffffffffffffffffffffffffffffffffff1673ffffffffffffffffffffffffffffffffffffffff1681526020019081526020016000205414610776576106f582600260008773ffffffffffffffffffffffffffffffffffffffff1673ffffffffffffffffffffffffffffffffffffffff16815260200190815260200160002060003373ffffffffffffffffffffffffffffffffffffffff1673ffffffffffffffffffffffffffffffffffffffff16815260200190815260200160002054610c9290919063ffffffff16565b600260008673ffffffffffffffffffffffffffffffffffffffff1673ffffffffffffffffffffffffffffffffffffffff16815260200190815260200160002060003373ffffffffffffffffffffffffffffffffffffffff1673ffffffffffffffffffffffffffffffffffffffff168152602001908152602001600020819055505b610781848484610d15565b600190509392505050565b7f6e71edae12b1b97f4d1f60370fef10105fa2faae0126114a169c64845d6126c960001b81565b601281565b60035481565b60016020528060005260406000206000915090505481565b60046020528060005260406000206000915090505481565b6040518060400160405280600681526020017f554e492d5632000000000000000000000000000000000000000000000000000081525081565b6000610834338484610d15565b6001905092915050565b428410156108b4576040517f08c379a00000000000000000000000000000000000000000000000000000000081526004018080602001828103825260128152602001807f556e697377617056323a2045585049524544000000000000000000000000000081525060200191505060405180910390fd5b60006003547f6e71edae12b1b97f4d1f60370fef10105fa2faae0126114a169c64845d6126c960001b898989600460008e73ffffffffffffffffffffffffffffffffffffffff1673ffffffffffffffffffffffffffffffffffffffff1681526020019081526020016000206000815480929190600101919050558a604051602001808781526020018673ffffffffffffffffffffffffffffffffffffffff1673ffffffffffffffffffffffffffffffffffffffff1681526020018573ffffffffffffffffffffffffffffffffffffffff1673ffffffffffffffffffffffffffffffffffffffff16815260200184815260200183815260200182815260200196505050505050506040516020818303038152906040528051906020012060405160200180807f190100000000000000000000000000000000000000000000000000000000000081525060020183815260200182815260200192505050604051602081830303815290604052805190602001209050600060018286868660405160008152602001604052604051808581526020018460ff1660ff1681526020018381526020018281526020019450505050506020604051602081039080840390855afa158015610a86573d6000803e3d6000fd5b505050602060405103519050600073ffffffffffffffffffffffffffffffffffffffff168173ffffffffffffffffffffffffffffffffffffffff1614158015610afa57508873ffffffffffffffffffffffffffffffffffffffff168173ffffffffffffffffffffffffffffffffffffffff16145b610b6c576040517f08c379a000000000000000000000000000000000000000000000000000000000815260040180806020018281038252601c8152602001807f556e697377617056323a20494e56414c49445f5349474e41545552450000000081525060200191505060405180910390fd5b610b77898989610ba7565b505050505050505050565b6002602052816000526040600020602052806000526040600020600091509150505481565b80600260008573ffffffffffffffffffffffffffffffffffffffff1673ffffffffffffffffffffffffffffffffffffffff16815260200190815260200160002060008473ffffffffffffffffffffffffffffffffffffffff1673ffffffffffffffffffffffffffffffffffffffff168152602001908152602001600020819055508173ffffffffffffffffffffffffffffffffffffffff168373ffffffffffffffffffffffffffffffffffffffff167f8c5be1e5ebec7d5bd14f71427d1e84f3dd0314c0f7b2291e5b200ac8c7c3b925836040518082815260200191505060405180910390a3505050565b6000828284039150811115610d0f576040517f08c379a00000000000000000000000000000000000000000000000000000000081526004018080602001828103825260158152602001807f64732d6d6174682d7375622d756e646572666c6f77000000000000000000000081525060200191505060405180910390fd5b92915050565b610d6781600160008673ffffffffffffffffffffffffffffffffffffffff1673ffffffffffffffffffffffffffffffffffffffff16815260200190815260200160002054610c9290919063ffffffff16565b600160008573ffffffffffffffffffffffffffffffffffffffff1673ffffffffffffffffffffffffffffffffffffffff16815260200190815260200160002081905550610dfc81600160008573ffffffffffffffffffffffffffffffffffffffff1673ffffffffffffffffffffffffffffffffffffffff16815260200190815260200160002054610ea990919063ffffffff16565b600160008473ffffffffffffffffffffffffffffffffffffffff1673ffffffffffffffffffffffffffffffffffffffff168152602001908152602001600020819055508173ffffffffffffffffffffffffffffffffffffffff168373ffffffffffffffffffffffffffffffffffffffff167fddf252ad1be2c89b69c2b068fc378daa952ba7f163c4a11628f55a4df523b3ef836040518082815260200191505060405180910390a3505050565b6000828284019150811015610f26576040517f08c379a00000000000000000000000000000000000000000000000000000000081526004018080602001828103825260148152602001807f64732d6d6174682d6164642d6f766572666c6f7700000000000000000000000081525060200191505060405180910390fd5b9291505056fea265627a7a72315820757cde1b8d78c1d0549cafa6babb3c7c9fbd56e84edb34f61e039e2fdee3e01c64736f6c63430005100032454950373132446f6d61696e28737472696e67206e616d652c737472696e672076657273696f6e2c75696e7432353620636861696e49642c6164647265737320766572696679696e67436f6e747261637429",
					"opcodes": "PUSH1 0x80 PUSH1 0x40 MSTORE CALLVALUE DUP1 ISZERO PUSH2 0x10 JUMPI PUSH1 0x0 DUP1 REVERT JUMPDEST POP PUSH1 0x0 CHAINID SWAP1 POP PUSH1 0x40 MLOAD DUP1 DUP1 PUSH2 0x1090 PUSH1 0x52 SWAP2 CODECOPY PUSH1 0x52 ADD SWAP1 POP PUSH1 0x40 MLOAD DUP1 SWAP2 SUB SWAP1 KECCAK256 PUSH1 0x40 MLOAD DUP1 PUSH1 0x40 ADD PUSH1 0x40 MSTORE DUP1 PUSH1 0xA DUP2 MSTORE PUSH1 0x20 ADD PUSH32 0x556E697377617020563200000000000000000000000000000000000000000000 DUP2 MSTORE POP DUP1 MLOAD SWAP1 PUSH1 0x20 ADD KECCAK256 PUSH1 0x40 MLOAD DUP1 PUSH1 0x40 ADD PUSH1 0x40 MSTORE DUP1 PUSH1 0x1 DUP2 MSTORE PUSH1 0x20 ADD PUSH32 0x3100000000000000000000000000000000000000000000000000000000000000 DUP2 MSTORE POP DUP1 MLOAD SWAP1 PUSH1 0x20 ADD KECCAK256 DUP4 ADDRESS PUSH1 0x40 MLOAD PUSH1 0x20 ADD DUP1 DUP7 DUP2 MSTORE PUSH1 0x20 ADD DUP6 DUP2 MSTORE PUSH1 0x20 ADD DUP5 DUP2 MSTORE PUSH1 0x20 ADD DUP4 DUP2 MSTORE PUSH1 0x20 ADD DUP3 PUSH20 0xFFFFFFFFFFFFFFFFFFFFFFFFFFFFFFFFFFFFFFFF AND PUSH20 0xFFFFFFFFFFFFFFFFFFFFFFFFFFFFFFFFFFFFFFFF AND DUP2 MSTORE PUSH1 0x20 ADD SWAP6 POP POP POP POP POP POP PUSH1 0x40 MLOAD PUSH1 0x20 DUP2 DUP4 SUB SUB DUP2 MSTORE SWAP1 PUSH1 0x40 MSTORE DUP1 MLOAD SWAP1 PUSH1 0x20 ADD KECCAK256 PUSH1 0x3 DUP2 SWAP1 SSTORE POP POP PUSH2 0xF61 DUP1 PUSH2 0x12F PUSH1 0x0 CODECOPY PUSH1 0x0 RETURN INVALID PUSH1 0x80 PUSH1 0x40 MSTORE CALLVALUE DUP1 ISZERO PUSH2 0x10 JUMPI PUSH1 0x0 DUP1 REVERT JUMPDEST POP PUSH1 0x4 CALLDATASIZE LT PUSH2 0xCF JUMPI PUSH1 0x0 CALLDATALOAD PUSH1 0xE0 SHR DUP1 PUSH4 0x3644E515 GT PUSH2 0x8C JUMPI DUP1 PUSH4 0x95D89B41 GT PUSH2 0x66 JUMPI DUP1 PUSH4 0x95D89B41 EQ PUSH2 0x371 JUMPI DUP1 PUSH4 0xA9059CBB EQ PUSH2 0x3F4 JUMPI DUP1 PUSH4 0xD505ACCF EQ PUSH2 0x45A JUMPI DUP1 PUSH4 0xDD62ED3E EQ PUSH2 0x4F3 JUMPI PUSH2 0xCF JUMP JUMPDEST DUP1 PUSH4 0x3644E515 EQ PUSH2 0x2A3 JUMPI DUP1 PUSH4 0x70A08231 EQ PUSH2 0x2C1 JUMPI DUP1 PUSH4 0x7ECEBE00 EQ PUSH2 0x319 JUMPI PUSH2 0xCF JUMP JUMPDEST DUP1 PUSH4 0x6FDDE03 EQ PUSH2 0xD4 JUMPI DUP1 PUSH4 0x95EA7B3 EQ PUSH2 0x157 JUMPI DUP1 PUSH4 0x18160DDD EQ PUSH2 0x1BD JUMPI DUP1 PUSH4 0x23B872DD EQ PUSH2 0x1DB JUMPI DUP1 PUSH4 0x30ADF81F EQ PUSH2 0x261 JUMPI DUP1 PUSH4 0x313CE567 EQ PUSH2 0x27F JUMPI JUMPDEST PUSH1 0x0 DUP1 REVERT JUMPDEST PUSH2 0xDC PUSH2 0x56B JUMP JUMPDEST PUSH1 0x40 MLOAD DUP1 DUP1 PUSH1 0x20 ADD DUP3 DUP2 SUB DUP3 MSTORE DUP4 DUP2 DUP2 MLOAD DUP2 MSTORE PUSH1 0x20 ADD SWAP2 POP DUP1 MLOAD SWAP1 PUSH1 0x20 ADD SWAP1 DUP1 DUP4 DUP4 PUSH1 0x0 JUMPDEST DUP4 DUP2 LT ISZERO PUSH2 0x11C JUMPI DUP1 DUP3 ADD MLOAD DUP2 DUP5 ADD MSTORE PUSH1 0x20 DUP2 ADD SWAP1 POP PUSH2 0x101 JUMP JUMPDEST POP POP POP POP SWAP1 POP SWAP1 DUP2 ADD SWAP1 PUSH1 0x1F AND DUP1 ISZERO PUSH2 0x149 JUMPI DUP1 DUP3 SUB DUP1 MLOAD PUSH1 0x1 DUP4 PUSH1 0x20 SUB PUSH2 0x100 EXP SUB NOT AND DUP2 MSTORE PUSH1 0x20 ADD SWAP2 POP JUMPDEST POP SWAP3 POP POP POP PUSH1 0x40 MLOAD DUP1 SWAP2 SUB SWAP1 RETURN JUMPDEST PUSH2 0x1A3 PUSH1 0x4 DUP1 CALLDATASIZE SUB PUSH1 0x40 DUP2 LT ISZERO PUSH2 0x16D JUMPI PUSH1 0x0 DUP1 REVERT JUMPDEST DUP2 ADD SWAP1 DUP1 DUP1 CALLDATALOAD PUSH20 0xFFFFFFFFFFFFFFFFFFFFFFFFFFFFFFFFFFFFFFFF AND SWAP1 PUSH1 0x20 ADD SWAP1 SWAP3 SWAP2 SWAP1 DUP1 CALLDATALOAD SWAP1 PUSH1 0x20 ADD SWAP1 SWAP3 SWAP2 SWAP1 POP POP POP PUSH2 0x5A4 JUMP JUMPDEST PUSH1 0x40 MLOAD DUP1 DUP3 ISZERO ISZERO ISZERO ISZERO DUP2 MSTORE PUSH1 0x20 ADD SWAP2 POP POP PUSH1 0x40 MLOAD DUP1 SWAP2 SUB SWAP1 RETURN JUMPDEST PUSH2 0x1C5 PUSH2 0x5BB JUMP JUMPDEST PUSH1 0x40 MLOAD DUP1 DUP3 DUP2 MSTORE PUSH1 0x20 ADD SWAP2 POP POP PUSH1 0x40 MLOAD DUP1 SWAP2 SUB SWAP1 RETURN JUMPDEST PUSH2 0x247 PUSH1 0x4 DUP1 CALLDATASIZE SUB PUSH1 0x60 DUP2 LT ISZERO PUSH2 0x1F1 JUMPI PUSH1 0x0 DUP1 REVERT JUMPDEST DUP2 ADD SWAP1 DUP1 DUP1 CALLDATALOAD PUSH20 0xFFFFFFFFFFFFFFFFFFFFFFFFFFFFFFFFFFFFFFFF AND SWAP1 PUSH1 0x20 ADD SWAP1 SWAP3 SWAP2 SWAP1 DUP1 CALLDATALOAD PUSH20 0xFFFFFFFFFFFFFFFFFFFFFFFFFFFFFFFFFFFFFFFF AND SWAP1 PUSH1 0x20 ADD SWAP1 SWAP3 SWAP2 SWAP1 DUP1 CALLDATALOAD SWAP1 PUSH1 0x20 ADD SWAP1 SWAP3 SWAP2 SWAP1 POP POP POP PUSH2 0x5C1 JUMP JUMPDEST PUSH1 0x40 MLOAD DUP1 DUP3 ISZERO ISZERO ISZERO ISZERO DUP2 MSTORE PUSH1 0x20 ADD SWAP2 POP POP PUSH1 0x40 MLOAD DUP1 SWAP2 SUB SWAP1 RETURN JUMPDEST PUSH2 0x269 PUSH2 0x78C JUMP JUMPDEST PUSH1 0x40 MLOAD DUP1 DUP3 DUP2 MSTORE PUSH1 0x20 ADD SWAP2 POP POP PUSH1 0x40 MLOAD DUP1 SWAP2 SUB SWAP1 RETURN JUMPDEST PUSH2 0x287 PUSH2 0x7B3 JUMP JUMPDEST PUSH1 0x40 MLOAD DUP1 DUP3 PUSH1 0xFF AND PUSH1 0xFF AND DUP2 MSTORE PUSH1 0x20 ADD SWAP2 POP POP PUSH1 0x40 MLOAD DUP1 SWAP2 SUB SWAP1 RETURN JUMPDEST PUSH2 0x2AB PUSH2 0x7B8 JUMP JUMPDEST PUSH1 0x40 MLOAD DUP1 DUP3 DUP2 MSTORE PUSH1 0x20 ADD SWAP2 POP POP PUSH1 0x40 MLOAD DUP1 SWAP2 SUB SWAP1 RETURN JUMPDEST PUSH2 0x303 PUSH1 0x4 DUP1 CALLDATASIZE SUB PUSH1 0x20 DUP2 LT ISZERO PUSH2 0x2D7 JUMPI PUSH1 0x0 DUP1 REVERT JUMPDEST DUP2 ADD SWAP1 DUP1 DUP1 CALLDATALOAD PUSH20 0xFFFFFFFFFFFFFFFFFFFFFFFFFFFFFFFFFFFFFFFF AND SWAP1 PUSH1 0x20 ADD SWAP1 SWAP3 SWAP2 SWAP1 POP POP POP PUSH2 0x7BE JUMP JUMPDEST PUSH1 0x40 MLOAD DUP1 DUP3 DUP2 MSTORE PUSH1 0x20 ADD SWAP2 POP POP PUSH1 0x40 MLOAD DUP1 SWAP2 SUB SWAP1 RETURN JUMPDEST PUSH2 0x35B PUSH1 0x4 DUP1 CALLDATASIZE SUB PUSH1 0x20 DUP2 LT ISZERO PUSH2 0x32F JUMPI PUSH1 0x0 DUP1 REVERT JUMPDEST DUP2 ADD SWAP1 DUP1 DUP1 CALLDATALOAD PUSH20 0xFFFFFFFFFFFFFFFFFFFFFFFFFFFFFFFFFFFFFFFF AND SWAP1 PUSH1 0x20 ADD SWAP1 SWAP3 SWAP2 SWAP1 POP POP POP PUSH2 0x7D6 JUMP JUMPDEST PUSH1 0x40 MLOAD DUP1 DUP3 DUP2 MSTORE PUSH1 0x20 ADD SWAP2 POP POP PUSH1 0x40 MLOAD DUP1 SWAP2 SUB SWAP1 RETURN JUMPDEST PUSH2 0x379 PUSH2 0x7EE JUMP JUMPDEST PUSH1 0x40 MLOAD DUP1 DUP1 PUSH1 0x20 ADD DUP3 DUP2 SUB DUP3 MSTORE DUP4 DUP2 DUP2 MLOAD DUP2 MSTORE PUSH1 0x20 ADD SWAP2 POP DUP1 MLOAD SWAP1 PUSH1 0x20 ADD SWAP1 DUP1 DUP4 DUP4 PUSH1 0x0 JUMPDEST DUP4 DUP2 LT ISZERO PUSH2 0x3B9 JUMPI DUP1 DUP3 ADD MLOAD DUP2 DUP5 ADD MSTORE PUSH1 0x20 DUP2 ADD SWAP1 POP PUSH2 0x39E JUMP JUMPDEST POP POP POP POP SWAP1 POP SWAP1 DUP2 ADD SWAP1 PUSH1 0x1F AND DUP1 ISZERO PUSH2 0x3E6 JUMPI DUP1 DUP3 SUB DUP1 MLOAD PUSH1 0x1 DUP4 PUSH1 0x20 SUB PUSH2 0x100 EXP SUB NOT AND DUP2 MSTORE PUSH1 0x20 ADD SWAP2 POP JUMPDEST POP SWAP3 POP POP POP PUSH1 0x40 MLOAD DUP1 SWAP2 SUB SWAP1 RETURN JUMPDEST PUSH2 0x440 PUSH1 0x4 DUP1 CALLDATASIZE SUB PUSH1 0x40 DUP2 LT ISZERO PUSH2 0x40A JUMPI PUSH1 0x0 DUP1 REVERT JUMPDEST DUP2 ADD SWAP1 DUP1 DUP1 CALLDATALOAD PUSH20 0xFFFFFFFFFFFFFFFFFFFFFFFFFFFFFFFFFFFFFFFF AND SWAP1 PUSH1 0x20 ADD SWAP1 SWAP3 SWAP2 SWAP1 DUP1 CALLDATALOAD SWAP1 PUSH1 0x20 ADD SWAP1 SWAP3 SWAP2 SWAP1 POP POP POP PUSH2 0x827 JUMP JUMPDEST PUSH1 0x40 MLOAD DUP1 DUP3 ISZERO ISZERO ISZERO ISZERO DUP2 MSTORE PUSH1 0x20 ADD SWAP2 POP POP PUSH1 0x40 MLOAD DUP1 SWAP2 SUB SWAP1 RETURN JUMPDEST PUSH2 0x4F1 PUSH1 0x4 DUP1 CALLDATASIZE SUB PUSH1 0xE0 DUP2 LT ISZERO PUSH2 0x470 JUMPI PUSH1 0x0 DUP1 REVERT JUMPDEST DUP2 ADD SWAP1 DUP1 DUP1 CALLDATALOAD PUSH20 0xFFFFFFFFFFFFFFFFFFFFFFFFFFFFFFFFFFFFFFFF AND SWAP1 PUSH1 0x20 ADD SWAP1 SWAP3 SWAP2 SWAP1 DUP1 CALLDATALOAD PUSH20 0xFFFFFFFFFFFFFFFFFFFFFFFFFFFFFFFFFFFFFFFF AND SWAP1 PUSH1 0x20 ADD SWAP1 SWAP3 SWAP2 SWAP1 DUP1 CALLDATALOAD SWAP1 PUSH1 0x20 ADD SWAP1 SWAP3 SWAP2 SWAP1 DUP1 CALLDATALOAD SWAP1 PUSH1 0x20 ADD SWAP1 SWAP3 SWAP2 SWAP1 DUP1 CALLDATALOAD PUSH1 0xFF AND SWAP1 PUSH1 0x20 ADD SWAP1 SWAP3 SWAP2 SWAP1 DUP1 CALLDATALOAD SWAP1 PUSH1 0x20 ADD SWAP1 SWAP3 SWAP2 SWAP1 DUP1 CALLDATALOAD SWAP1 PUSH1 0x20 ADD SWAP1 SWAP3 SWAP2 SWAP1 POP POP POP PUSH2 0x83E JUMP JUMPDEST STOP JUMPDEST PUSH2 0x555 PUSH1 0x4 DUP1 CALLDATASIZE SUB PUSH1 0x40 DUP2 LT ISZERO PUSH2 0x509 JUMPI PUSH1 0x0 DUP1 REVERT JUMPDEST DUP2 ADD SWAP1 DUP1 DUP1 CALLDATALOAD PUSH20 0xFFFFFFFFFFFFFFFFFFFFFFFFFFFFFFFFFFFFFFFF AND SWAP1 PUSH1 0x20 ADD SWAP1 SWAP3 SWAP2 SWAP1 DUP1 CALLDATALOAD PUSH20 0xFFFFFFFFFFFFFFFFFFFFFFFFFFFFFFFFFFFFFFFF AND SWAP1 PUSH1 0x20 ADD SWAP1 SWAP3 SWAP2 SWAP1 POP POP POP PUSH2 0xB82 JUMP JUMPDEST PUSH1 0x40 MLOAD DUP1 DUP3 DUP2 MSTORE PUSH1 0x20 ADD SWAP2 POP POP PUSH1 0x40 MLOAD DUP1 SWAP2 SUB SWAP1 RETURN JUMPDEST PUSH1 0x40 MLOAD DUP1 PUSH1 0x40 ADD PUSH1 0x40 MSTORE DUP1 PUSH1 0xA DUP2 MSTORE PUSH1 0x20 ADD PUSH32 0x556E697377617020563200000000000000000000000000000000000000000000 DUP2 MSTORE POP DUP2 JUMP JUMPDEST PUSH1 0x0 PUSH2 0x5B1 CALLER DUP5 DUP5 PUSH2 0xBA7 JUMP JUMPDEST PUSH1 0x1 SWAP1 POP SWAP3 SWAP2 POP POP JUMP JUMPDEST PUSH1 0x0 SLOAD DUP2 JUMP JUMPDEST PUSH1 0x0 PUSH32 0xFFFFFFFFFFFFFFFFFFFFFFFFFFFFFFFFFFFFFFFFFFFFFFFFFFFFFFFFFFFFFFFF PUSH1 0x2 PUSH1 0x0 DUP7 PUSH20 0xFFFFFFFFFFFFFFFFFFFFFFFFFFFFFFFFFFFFFFFF AND PUSH20 0xFFFFFFFFFFFFFFFFFFFFFFFFFFFFFFFFFFFFFFFF AND DUP2 MSTORE PUSH1 0x20 ADD SWAP1 DUP2 MSTORE PUSH1 0x20 ADD PUSH1 0x0 KECCAK256 PUSH1 0x0 CALLER PUSH20 0xFFFFFFFFFFFFFFFFFFFFFFFFFFFFFFFFFFFFFFFF AND PUSH20 0xFFFFFFFFFFFFFFFFFFFFFFFFFFFFFFFFFFFFFFFF AND DUP2 MSTORE PUSH1 0x20 ADD SWAP1 DUP2 MSTORE PUSH1 0x20 ADD PUSH1 0x0 KECCAK256 SLOAD EQ PUSH2 0x776 JUMPI PUSH2 0x6F5 DUP3 PUSH1 0x2 PUSH1 0x0 DUP8 PUSH20 0xFFFFFFFFFFFFFFFFFFFFFFFFFFFFFFFFFFFFFFFF AND PUSH20 0xFFFFFFFFFFFFFFFFFFFFFFFFFFFFFFFFFFFFFFFF AND DUP2 MSTORE PUSH1 0x20 ADD SWAP1 DUP2 MSTORE PUSH1 0x20 ADD PUSH1 0x0 KECCAK256 PUSH1 0x0 CALLER PUSH20 0xFFFFFFFFFFFFFFFFFFFFFFFFFFFFFFFFFFFFFFFF AND PUSH20 0xFFFFFFFFFFFFFFFFFFFFFFFFFFFFFFFFFFFFFFFF AND DUP2 MSTORE PUSH1 0x20 ADD SWAP1 DUP2 MSTORE PUSH1 0x20 ADD PUSH1 0x0 KECCAK256 SLOAD PUSH2 0xC92 SWAP1 SWAP2 SWAP1 PUSH4 0xFFFFFFFF AND JUMP JUMPDEST PUSH1 0x2 PUSH1 0x0 DUP7 PUSH20 0xFFFFFFFFFFFFFFFFFFFFFFFFFFFFFFFFFFFFFFFF AND PUSH20 0xFFFFFFFFFFFFFFFFFFFFFFFFFFFFFFFFFFFFFFFF AND DUP2 MSTORE PUSH1 0x20 ADD SWAP1 DUP2 MSTORE PUSH1 0x20 ADD PUSH1 0x0 KECCAK256 PUSH1 0x0 CALLER PUSH20 0xFFFFFFFFFFFFFFFFFFFFFFFFFFFFFFFFFFFFFFFF AND PUSH20 0xFFFFFFFFFFFFFFFFFFFFFFFFFFFFFFFFFFFFFFFF AND DUP2 MSTORE PUSH1 0x20 ADD SWAP1 DUP2 MSTORE PUSH1 0x20 ADD PUSH1 0x0 KECCAK256 DUP2 SWAP1 SSTORE POP JUMPDEST PUSH2 0x781 DUP5 DUP5 DUP5 PUSH2 0xD15 JUMP JUMPDEST PUSH1 0x1 SWAP1 POP SWAP4 SWAP3 POP POP POP JUMP JUMPDEST PUSH32 0x6E71EDAE12B1B97F4D1F60370FEF10105FA2FAAE0126114A169C64845D6126C9 PUSH1 0x0 SHL DUP2 JUMP JUMPDEST PUSH1 0x12 DUP2 JUMP JUMPDEST PUSH1 0x3 SLOAD DUP2 JUMP JUMPDEST PUSH1 0x1 PUSH1 0x20 MSTORE DUP1 PUSH1 0x0 MSTORE PUSH1 0x40 PUSH1 0x0 KECCAK256 PUSH1 0x0 SWAP2 POP SWAP1 POP SLOAD DUP2 JUMP JUMPDEST PUSH1 0x4 PUSH1 0x20 MSTORE DUP1 PUSH1 0x0 MSTORE PUSH1 0x40 PUSH1 0x0 KECCAK256 PUSH1 0x0 SWAP2 POP SWAP1 POP SLOAD DUP2 JUMP JUMPDEST PUSH1 0x40 MLOAD DUP1 PUSH1 0x40 ADD PUSH1 0x40 MSTORE DUP1 PUSH1 0x6 DUP2 MSTORE PUSH1 0x20 ADD PUSH32 0x554E492D56320000000000000000000000000000000000000000000000000000 DUP2 MSTORE POP DUP2 JUMP JUMPDEST PUSH1 0x0 PUSH2 0x834 CALLER DUP5 DUP5 PUSH2 0xD15 JUMP JUMPDEST PUSH1 0x1 SWAP1 POP SWAP3 SWAP2 POP POP JUMP JUMPDEST TIMESTAMP DUP5 LT ISZERO PUSH2 0x8B4 JUMPI PUSH1 0x40 MLOAD PUSH32 0x8C379A000000000000000000000000000000000000000000000000000000000 DUP2 MSTORE PUSH1 0x4 ADD DUP1 DUP1 PUSH1 0x20 ADD DUP3 DUP2 SUB DUP3 MSTORE PUSH1 0x12 DUP2 MSTORE PUSH1 0x20 ADD DUP1 PUSH32 0x556E697377617056323A20455850495245440000000000000000000000000000 DUP2 MSTORE POP PUSH1 0x20 ADD SWAP2 POP POP PUSH1 0x40 MLOAD DUP1 SWAP2 SUB SWAP1 REVERT JUMPDEST PUSH1 0x0 PUSH1 0x3 SLOAD PUSH32 0x6E71EDAE12B1B97F4D1F60370FEF10105FA2FAAE0126114A169C64845D6126C9 PUSH1 0x0 SHL DUP10 DUP10 DUP10 PUSH1 0x4 PUSH1 0x0 DUP15 PUSH20 0xFFFFFFFFFFFFFFFFFFFFFFFFFFFFFFFFFFFFFFFF AND PUSH20 0xFFFFFFFFFFFFFFFFFFFFFFFFFFFFFFFFFFFFFFFF AND DUP2 MSTORE PUSH1 0x20 ADD SWAP1 DUP2 MSTORE PUSH1 0x20 ADD PUSH1 0x0 KECCAK256 PUSH1 0x0 DUP2 SLOAD DUP1 SWAP3 SWAP2 SWAP1 PUSH1 0x1 ADD SWAP2 SWAP1 POP SSTORE DUP11 PUSH1 0x40 MLOAD PUSH1 0x20 ADD DUP1 DUP8 DUP2 MSTORE PUSH1 0x20 ADD DUP7 PUSH20 0xFFFFFFFFFFFFFFFFFFFFFFFFFFFFFFFFFFFFFFFF AND PUSH20 0xFFFFFFFFFFFFFFFFFFFFFFFFFFFFFFFFFFFFFFFF AND DUP2 MSTORE PUSH1 0x20 ADD DUP6 PUSH20 0xFFFFFFFFFFFFFFFFFFFFFFFFFFFFFFFFFFFFFFFF AND PUSH20 0xFFFFFFFFFFFFFFFFFFFFFFFFFFFFFFFFFFFFFFFF AND DUP2 MSTORE PUSH1 0x20 ADD DUP5 DUP2 MSTORE PUSH1 0x20 ADD DUP4 DUP2 MSTORE PUSH1 0x20 ADD DUP3 DUP2 MSTORE PUSH1 0x20 ADD SWAP7 POP POP POP POP POP POP POP PUSH1 0x40 MLOAD PUSH1 0x20 DUP2 DUP4 SUB SUB DUP2 MSTORE SWAP1 PUSH1 0x40 MSTORE DUP1 MLOAD SWAP1 PUSH1 0x20 ADD KECCAK256 PUSH1 0x40 MLOAD PUSH1 0x20 ADD DUP1 DUP1 PUSH32 0x1901000000000000000000000000000000000000000000000000000000000000 DUP2 MSTORE POP PUSH1 0x2 ADD DUP4 DUP2 MSTORE PUSH1 0x20 ADD DUP3 DUP2 MSTORE PUSH1 0x20 ADD SWAP3 POP POP POP PUSH1 0x40 MLOAD PUSH1 0x20 DUP2 DUP4 SUB SUB DUP2 MSTORE SWAP1 PUSH1 0x40 MSTORE DUP1 MLOAD SWAP1 PUSH1 0x20 ADD KECCAK256 SWAP1 POP PUSH1 0x0 PUSH1 0x1 DUP3 DUP7 DUP7 DUP7 PUSH1 0x40 MLOAD PUSH1 0x0 DUP2 MSTORE PUSH1 0x20 ADD PUSH1 0x40 MSTORE PUSH1 0x40 MLOAD DUP1 DUP6 DUP2 MSTORE PUSH1 0x20 ADD DUP5 PUSH1 0xFF AND PUSH1 0xFF AND DUP2 MSTORE PUSH1 0x20 ADD DUP4 DUP2 MSTORE PUSH1 0x20 ADD DUP3 DUP2 MSTORE PUSH1 0x20 ADD SWAP5 POP POP POP POP POP PUSH1 0x20 PUSH1 0x40 MLOAD PUSH1 0x20 DUP2 SUB SWAP1 DUP1 DUP5 SUB SWAP1 DUP6 GAS STATICCALL ISZERO DUP1 ISZERO PUSH2 0xA86 JUMPI RETURNDATASIZE PUSH1 0x0 DUP1 RETURNDATACOPY RETURNDATASIZE PUSH1 0x0 REVERT JUMPDEST POP POP POP PUSH1 0x20 PUSH1 0x40 MLOAD SUB MLOAD SWAP1 POP PUSH1 0x0 PUSH20 0xFFFFFFFFFFFFFFFFFFFFFFFFFFFFFFFFFFFFFFFF AND DUP2 PUSH20 0xFFFFFFFFFFFFFFFFFFFFFFFFFFFFFFFFFFFFFFFF AND EQ ISZERO DUP1 ISZERO PUSH2 0xAFA JUMPI POP DUP9 PUSH20 0xFFFFFFFFFFFFFFFFFFFFFFFFFFFFFFFFFFFFFFFF AND DUP2 PUSH20 0xFFFFFFFFFFFFFFFFFFFFFFFFFFFFFFFFFFFFFFFF AND EQ JUMPDEST PUSH2 0xB6C JUMPI PUSH1 0x40 MLOAD PUSH32 0x8C379A000000000000000000000000000000000000000000000000000000000 DUP2 MSTORE PUSH1 0x4 ADD DUP1 DUP1 PUSH1 0x20 ADD DUP3 DUP2 SUB DUP3 MSTORE PUSH1 0x1C DUP2 MSTORE PUSH1 0x20 ADD DUP1 PUSH32 0x556E697377617056323A20494E56414C49445F5349474E415455524500000000 DUP2 MSTORE POP PUSH1 0x20 ADD SWAP2 POP POP PUSH1 0x40 MLOAD DUP1 SWAP2 SUB SWAP1 REVERT JUMPDEST PUSH2 0xB77 DUP10 DUP10 DUP10 PUSH2 0xBA7 JUMP JUMPDEST POP POP POP POP POP POP POP POP POP JUMP JUMPDEST PUSH1 0x2 PUSH1 0x20 MSTORE DUP2 PUSH1 0x0 MSTORE PUSH1 0x40 PUSH1 0x0 KECCAK256 PUSH1 0x20 MSTORE DUP1 PUSH1 0x0 MSTORE PUSH1 0x40 PUSH1 0x0 KECCAK256 PUSH1 0x0 SWAP2 POP SWAP2 POP POP SLOAD DUP2 JUMP JUMPDEST DUP1 PUSH1 0x2 PUSH1 0x0 DUP6 PUSH20 0xFFFFFFFFFFFFFFFFFFFFFFFFFFFFFFFFFFFFFFFF AND PUSH20 0xFFFFFFFFFFFFFFFFFFFFFFFFFFFFFFFFFFFFFFFF AND DUP2 MSTORE PUSH1 0x20 ADD SWAP1 DUP2 MSTORE PUSH1 0x20 ADD PUSH1 0x0 KECCAK256 PUSH1 0x0 DUP5 PUSH20 0xFFFFFFFFFFFFFFFFFFFFFFFFFFFFFFFFFFFFFFFF AND PUSH20 0xFFFFFFFFFFFFFFFFFFFFFFFFFFFFFFFFFFFFFFFF AND DUP2 MSTORE PUSH1 0x20 ADD SWAP1 DUP2 MSTORE PUSH1 0x20 ADD PUSH1 0x0 KECCAK256 DUP2 SWAP1 SSTORE POP DUP2 PUSH20 0xFFFFFFFFFFFFFFFFFFFFFFFFFFFFFFFFFFFFFFFF AND DUP4 PUSH20 0xFFFFFFFFFFFFFFFFFFFFFFFFFFFFFFFFFFFFFFFF AND PUSH32 0x8C5BE1E5EBEC7D5BD14F71427D1E84F3DD0314C0F7B2291E5B200AC8C7C3B925 DUP4 PUSH1 0x40 MLOAD DUP1 DUP3 DUP2 MSTORE PUSH1 0x20 ADD SWAP2 POP POP PUSH1 0x40 MLOAD DUP1 SWAP2 SUB SWAP1 LOG3 POP POP POP JUMP JUMPDEST PUSH1 0x0 DUP3 DUP3 DUP5 SUB SWAP2 POP DUP2 GT ISZERO PUSH2 0xD0F JUMPI PUSH1 0x40 MLOAD PUSH32 0x8C379A000000000000000000000000000000000000000000000000000000000 DUP2 MSTORE PUSH1 0x4 ADD DUP1 DUP1 PUSH1 0x20 ADD DUP3 DUP2 SUB DUP3 MSTORE PUSH1 0x15 DUP2 MSTORE PUSH1 0x20 ADD DUP1 PUSH32 0x64732D6D6174682D7375622D756E646572666C6F770000000000000000000000 DUP2 MSTORE POP PUSH1 0x20 ADD SWAP2 POP POP PUSH1 0x40 MLOAD DUP1 SWAP2 SUB SWAP1 REVERT JUMPDEST SWAP3 SWAP2 POP POP JUMP JUMPDEST PUSH2 0xD67 DUP2 PUSH1 0x1 PUSH1 0x0 DUP7 PUSH20 0xFFFFFFFFFFFFFFFFFFFFFFFFFFFFFFFFFFFFFFFF AND PUSH20 0xFFFFFFFFFFFFFFFFFFFFFFFFFFFFFFFFFFFFFFFF AND DUP2 MSTORE PUSH1 0x20 ADD SWAP1 DUP2 MSTORE PUSH1 0x20 ADD PUSH1 0x0 KECCAK256 SLOAD PUSH2 0xC92 SWAP1 SWAP2 SWAP1 PUSH4 0xFFFFFFFF AND JUMP JUMPDEST PUSH1 0x1 PUSH1 0x0 DUP6 PUSH20 0xFFFFFFFFFFFFFFFFFFFFFFFFFFFFFFFFFFFFFFFF AND PUSH20 0xFFFFFFFFFFFFFFFFFFFFFFFFFFFFFFFFFFFFFFFF AND DUP2 MSTORE PUSH1 0x20 ADD SWAP1 DUP2 MSTORE PUSH1 0x20 ADD PUSH1 0x0 KECCAK256 DUP2 SWAP1 SSTORE POP PUSH2 0xDFC DUP2 PUSH1 0x1 PUSH1 0x0 DUP6 PUSH20 0xFFFFFFFFFFFFFFFFFFFFFFFFFFFFFFFFFFFFFFFF AND PUSH20 0xFFFFFFFFFFFFFFFFFFFFFFFFFFFFFFFFFFFFFFFF AND DUP2 MSTORE PUSH1 0x20 ADD SWAP1 DUP2 MSTORE PUSH1 0x20 ADD PUSH1 0x0 KECCAK256 SLOAD PUSH2 0xEA9 SWAP1 SWAP2 SWAP1 PUSH4 0xFFFFFFFF AND JUMP JUMPDEST PUSH1 0x1 PUSH1 0x0 DUP5 PUSH20 0xFFFFFFFFFFFFFFFFFFFFFFFFFFFFFFFFFFFFFFFF AND PUSH20 0xFFFFFFFFFFFFFFFFFFFFFFFFFFFFFFFFFFFFFFFF AND DUP2 MSTORE PUSH1 0x20 ADD SWAP1 DUP2 MSTORE PUSH1 0x20 ADD PUSH1 0x0 KECCAK256 DUP2 SWAP1 SSTORE POP DUP2 PUSH20 0xFFFFFFFFFFFFFFFFFFFFFFFFFFFFFFFFFFFFFFFF AND DUP4 PUSH20 0xFFFFFFFFFFFFFFFFFFFFFFFFFFFFFFFFFFFFFFFF AND PUSH32 0xDDF252AD1BE2C89B69C2B068FC378DAA952BA7F163C4A11628F55A4DF523B3EF DUP4 PUSH1 0x40 MLOAD DUP1 DUP3 DUP2 MSTORE PUSH1 0x20 ADD SWAP2 POP POP PUSH1 0x40 MLOAD DUP1 SWAP2 SUB SWAP1 LOG3 POP POP POP JUMP JUMPDEST PUSH1 0x0 DUP3 DUP3 DUP5 ADD SWAP2 POP DUP2 LT ISZERO PUSH2 0xF26 JUMPI PUSH1 0x40 MLOAD PUSH32 0x8C379A000000000000000000000000000000000000000000000000000000000 DUP2 MSTORE PUSH1 0x4 ADD DUP1 DUP1 PUSH1 0x20 ADD DUP3 DUP2 SUB DUP3 MSTORE PUSH1 0x14 DUP2 MSTORE PUSH1 0x20 ADD DUP1 PUSH32 0x64732D6D6174682D6164642D6F766572666C6F77000000000000000000000000 DUP2 MSTORE POP PUSH1 0x20 ADD SWAP2 POP POP PUSH1 0x40 MLOAD DUP1 SWAP2 SUB SWAP1 REVERT JUMPDEST SWAP3 SWAP2 POP POP JUMP INVALID LOG2 PUSH6 0x627A7A723158 KECCAK256 PUSH22 0x7CDE1B8D78C1D0549CAFA6BABB3C7C9FBD56E84EDB34 0xF6 0x1E SUB SWAP15 0x2F 0xDE 0xE3 0xE0 SHR PUSH5 0x736F6C6343 STOP SDIV LT STOP ORIGIN GASLIMIT 0x49 POP CALLDATACOPY BALANCE ORIGIN DIFFICULTY PUSH16 0x6D61696E28737472696E67206E616D65 0x2C PUSH20 0x7472696E672076657273696F6E2C75696E743235 CALLDATASIZE KECCAK256 PUSH4 0x6861696E 0x49 PUSH5 0x2C61646472 PUSH6 0x737320766572 PUSH10 0x6679696E67436F6E7472 PUSH2 0x6374 0x29 "
				},
				"gasEstimates": {
					"creation": {
						"codeDepositCost": "787400",
						"executionCost": "infinite",
						"totalCost": "infinite"
					},
					"external": {
						"DOMAIN_SEPARATOR()": "1028",
						"PERMIT_TYPEHASH()": "300",
						"allowance(address,address)": "1355",
						"approve(address,uint256)": "22431",
						"balanceOf(address)": "1214",
						"decimals()": "328",
						"name()": "infinite",
						"nonces(address)": "1236",
						"permit(address,address,uint256,uint256,uint8,bytes32,bytes32)": "infinite",
						"symbol()": "infinite",
						"totalSupply()": "1050",
						"transfer(address,uint256)": "infinite",
						"transferFrom(address,address,uint256)": "infinite"
					},
					"internal": {
						"_approve(address,address,uint256)": "infinite",
						"_burn(address,uint256)": "infinite",
						"_mint(address,uint256)": "infinite",
						"_transfer(address,address,uint256)": "infinite"
					}
				},
				"methodIdentifiers": {
					"DOMAIN_SEPARATOR()": "3644e515",
					"PERMIT_TYPEHASH()": "30adf81f",
					"allowance(address,address)": "dd62ed3e",
					"approve(address,uint256)": "095ea7b3",
					"balanceOf(address)": "70a08231",
					"decimals()": "313ce567",
					"name()": "06fdde03",
					"nonces(address)": "7ecebe00",
					"permit(address,address,uint256,uint256,uint8,bytes32,bytes32)": "d505accf",
					"symbol()": "95d89b41",
					"totalSupply()": "18160ddd",
					"transfer(address,uint256)": "a9059cbb",
					"transferFrom(address,address,uint256)": "23b872dd"
				}
			},
			"storageLayout": {
				"storage": [
					{
						"astId": 19,
						"contract": ".debug/11155111/0x31Ff0F4F1268e421b7B0D0216cC71A5CB2DC02F2/contracts/UniswapV2ERC20.sol:UniswapV2ERC20",
						"label": "totalSupply",
						"offset": 0,
						"slot": "0",
						"type": "t_uint256"
					},
					{
						"astId": 23,
						"contract": ".debug/11155111/0x31Ff0F4F1268e421b7B0D0216cC71A5CB2DC02F2/contracts/UniswapV2ERC20.sol:UniswapV2ERC20",
						"label": "balanceOf",
						"offset": 0,
						"slot": "1",
						"type": "t_mapping(t_address,t_uint256)"
					},
					{
						"astId": 29,
						"contract": ".debug/11155111/0x31Ff0F4F1268e421b7B0D0216cC71A5CB2DC02F2/contracts/UniswapV2ERC20.sol:UniswapV2ERC20",
						"label": "allowance",
						"offset": 0,
						"slot": "2",
						"type": "t_mapping(t_address,t_mapping(t_address,t_uint256))"
					},
					{
						"astId": 31,
						"contract": ".debug/11155111/0x31Ff0F4F1268e421b7B0D0216cC71A5CB2DC02F2/contracts/UniswapV2ERC20.sol:UniswapV2ERC20",
						"label": "DOMAIN_SEPARATOR",
						"offset": 0,
						"slot": "3",
						"type": "t_bytes32"
					},
					{
						"astId": 38,
						"contract": ".debug/11155111/0x31Ff0F4F1268e421b7B0D0216cC71A5CB2DC02F2/contracts/UniswapV2ERC20.sol:UniswapV2ERC20",
						"label": "nonces",
						"offset": 0,
						"slot": "4",
						"type": "t_mapping(t_address,t_uint256)"
					}
				],
				"types": {
					"t_address": {
						"encoding": "inplace",
						"label": "address",
						"numberOfBytes": "20"
					},
					"t_bytes32": {
						"encoding": "inplace",
						"label": "bytes32",
						"numberOfBytes": "32"
					},
					"t_mapping(t_address,t_mapping(t_address,t_uint256))": {
						"encoding": "mapping",
						"key": "t_address",
						"label": "mapping(address => mapping(address => uint256))",
						"numberOfBytes": "32",
						"value": "t_mapping(t_address,t_uint256)"
					},
					"t_mapping(t_address,t_uint256)": {
						"encoding": "mapping",
						"key": "t_address",
						"label": "mapping(address => uint256)",
						"numberOfBytes": "32",
						"value": "t_uint256"
					},
					"t_uint256": {
						"encoding": "inplace",
						"label": "uint256",
						"numberOfBytes": "32"
					}
				}
			},
			"userdoc": {
				"methods": {}
			}
		}
	}
}