{
	"Bitxchange.sol": {
		"Bitxchange": {
			"abi": [
				{
					"inputs": [
						{
							"internalType": "address",
							"name": "_uniswapRouter",
							"type": "address"
						},
						{
							"internalType": "address",
							"name": "_rewardPot",
							"type": "address"
						}
					],
					"stateMutability": "nonpayable",
					"type": "constructor"
				},
				{
					"inputs": [
						{
							"internalType": "address",
							"name": "owner",
							"type": "address"
						}
					],
					"name": "OwnableInvalidOwner",
					"type": "error"
				},
				{
					"inputs": [
						{
							"internalType": "address",
							"name": "account",
							"type": "address"
						}
					],
					"name": "OwnableUnauthorizedAccount",
					"type": "error"
				},
				{
					"anonymous": false,
					"inputs": [
						{
							"indexed": false,
							"internalType": "uint256",
							"name": "newFee",
							"type": "uint256"
						}
					],
					"name": "FeeUpdated",
					"type": "event"
				},
				{
					"anonymous": false,
					"inputs": [
						{
							"indexed": true,
							"internalType": "address",
							"name": "previousOwner",
							"type": "address"
						},
						{
							"indexed": true,
							"internalType": "address",
							"name": "newOwner",
							"type": "address"
						}
					],
					"name": "OwnershipTransferred",
					"type": "event"
				},
				{
					"anonymous": false,
					"inputs": [
						{
							"indexed": false,
							"internalType": "address",
							"name": "newRewardPot",
							"type": "address"
						}
					],
					"name": "RewardPotUpdated",
					"type": "event"
				},
				{
					"anonymous": false,
					"inputs": [
						{
							"indexed": true,
							"internalType": "address",
							"name": "from",
							"type": "address"
						},
						{
							"indexed": false,
							"internalType": "uint256",
							"name": "amount",
							"type": "uint256"
						},
						{
							"indexed": false,
							"internalType": "uint256",
							"name": "receivedETH",
							"type": "uint256"
						}
					],
					"name": "SwapSuccessful",
					"type": "event"
				},
				{
					"inputs": [
						{
							"internalType": "address",
							"name": "token",
							"type": "address"
						},
						{
							"internalType": "uint256",
							"name": "amountIn",
							"type": "uint256"
						},
						{
							"internalType": "uint256",
							"name": "userGasPrice",
							"type": "uint256"
						}
					],
					"name": "canSwap",
					"outputs": [
						{
							"internalType": "bool",
							"name": "",
							"type": "bool"
						}
					],
					"stateMutability": "view",
					"type": "function"
				},
				{
					"inputs": [],
					"name": "depositETH",
					"outputs": [],
					"stateMutability": "payable",
					"type": "function"
				},
				{
					"inputs": [],
					"name": "feePercentage",
					"outputs": [
						{
							"internalType": "uint256",
							"name": "",
							"type": "uint256"
						}
					],
					"stateMutability": "view",
					"type": "function"
				},
				{
					"inputs": [
						{
							"internalType": "address",
							"name": "token",
							"type": "address"
						},
						{
							"internalType": "uint256",
							"name": "amount",
							"type": "uint256"
						},
						{
							"internalType": "uint256",
							"name": "slippage",
							"type": "uint256"
						},
						{
							"internalType": "uint256",
							"name": "userGasPrice",
							"type": "uint256"
						}
					],
					"name": "getSwapQuote",
					"outputs": [
						{
							"internalType": "uint256",
							"name": "minAmountOut",
							"type": "uint256"
						},
						{
							"internalType": "uint256",
							"name": "estimatedGasCost",
							"type": "uint256"
						},
						{
							"internalType": "bool",
							"name": "canDoSwap",
							"type": "bool"
						}
					],
					"stateMutability": "view",
					"type": "function"
				},
				{
					"inputs": [],
					"name": "owner",
					"outputs": [
						{
							"internalType": "address",
							"name": "",
							"type": "address"
						}
					],
					"stateMutability": "view",
					"type": "function"
				},
				{
					"inputs": [],
					"name": "renounceOwnership",
					"outputs": [],
					"stateMutability": "nonpayable",
					"type": "function"
				},
				{
					"inputs": [],
					"name": "rewardPot",
					"outputs": [
						{
							"internalType": "contract IRewardPot",
							"name": "",
							"type": "address"
						}
					],
					"stateMutability": "view",
					"type": "function"
				},
				{
					"inputs": [
						{
							"internalType": "uint256",
							"name": "_newFee",
							"type": "uint256"
						}
					],
					"name": "setFeePercentage",
					"outputs": [],
					"stateMutability": "nonpayable",
					"type": "function"
				},
				{
					"inputs": [
						{
							"internalType": "address",
							"name": "_newRewardPot",
							"type": "address"
						}
					],
					"name": "setRewardPot",
					"outputs": [],
					"stateMutability": "nonpayable",
					"type": "function"
				},
				{
					"inputs": [
						{
							"internalType": "address",
							"name": "token",
							"type": "address"
						},
						{
							"internalType": "uint256",
							"name": "amount",
							"type": "uint256"
						},
						{
							"internalType": "uint256",
							"name": "minAmountOut",
							"type": "uint256"
						}
					],
					"name": "swapTokensForETH",
					"outputs": [],
					"stateMutability": "nonpayable",
					"type": "function"
				},
				{
					"inputs": [
						{
							"internalType": "address",
							"name": "token",
							"type": "address"
						},
						{
							"internalType": "uint256",
							"name": "amount",
							"type": "uint256"
						},
						{
							"internalType": "uint256",
							"name": "minAmountOut",
							"type": "uint256"
						}
					],
					"name": "swapTokensForETH_UserPaysGas",
					"outputs": [],
					"stateMutability": "nonpayable",
					"type": "function"
				},
				{
					"inputs": [
						{
							"internalType": "address",
							"name": "newOwner",
							"type": "address"
						}
					],
					"name": "transferOwnership",
					"outputs": [],
					"stateMutability": "nonpayable",
					"type": "function"
				},
				{
					"inputs": [],
					"name": "uniswapRouter",
					"outputs": [
						{
							"internalType": "contract IUniswapV2Router02",
							"name": "",
							"type": "address"
						}
					],
					"stateMutability": "view",
					"type": "function"
				},
				{
					"inputs": [
						{
							"internalType": "uint256",
							"name": "amount",
							"type": "uint256"
						}
					],
					"name": "withdrawETH",
					"outputs": [],
					"stateMutability": "nonpayable",
					"type": "function"
				}
			],
			"devdoc": {
				"errors": {
					"OwnableInvalidOwner(address)": [
						{
							"details": "The owner is not a valid owner account. (eg. `address(0)`)"
						}
					],
					"OwnableUnauthorizedAccount(address)": [
						{
							"details": "The caller account is not authorized to perform an operation."
						}
					]
				},
				"kind": "dev",
				"methods": {
					"owner()": {
						"details": "Returns the address of the current owner."
					},
					"renounceOwnership()": {
						"details": "Leaves the contract without owner. It will not be possible to call `onlyOwner` functions. Can only be called by the current owner. NOTE: Renouncing ownership will leave the contract without an owner, thereby disabling any functionality that is only available to the owner."
					},
					"transferOwnership(address)": {
						"details": "Transfers ownership of the contract to a new account (`newOwner`). Can only be called by the current owner."
					}
				},
				"version": 1
			},
			"evm": {
				"assembly": "    /* \"Bitxchange.sol\":665:7050  contract Bitxchange is Ownable {... */\n  mstore(0x40, 0x80)\n    /* \"Bitxchange.sol\":814:817  750 */\n  0x02ee\n    /* \"Bitxchange.sol\":783:817  uint256 public feePercentage = 750 */\n  0x03\n  sstore\n    /* \"Bitxchange.sol\":1034:1224  constructor(address _uniswapRouter, address _rewardPot) Ownable(msg.sender) {... */\n  callvalue\n  dup1\n  iszero\n  tag_1\n  jumpi\n  0x00\n  dup1\n  revert\ntag_1:\n  pop\n  mload(0x40)\n  sub(codesize, bytecodeSize)\n  dup1\n  bytecodeSize\n  dup4\n  codecopy\n  dup2\n  dup2\n  add\n  0x40\n  mstore\n  dup2\n  add\n  swap1\n  tag_2\n  swap2\n  swap1\n  tag_3\n  jump\t// in\ntag_2:\n    /* \"Bitxchange.sol\":1098:1108  msg.sender */\n  caller\n    /* \"@openzeppelin/contracts/access/Ownable.sol\":1297:1298  0 */\n  0x00\n    /* \"@openzeppelin/contracts/access/Ownable.sol\":1273:1299  initialOwner == address(0) */\n  0xffffffffffffffffffffffffffffffffffffffff\n  and\n    /* \"@openzeppelin/contracts/access/Ownable.sol\":1273:1285  initialOwner */\n  dup2\n    /* \"@openzeppelin/contracts/access/Ownable.sol\":1273:1299  initialOwner == address(0) */\n  0xffffffffffffffffffffffffffffffffffffffff\n  and\n  sub\n    /* \"@openzeppelin/contracts/access/Ownable.sol\":1269:1364  if (initialOwner == address(0)) {... */\n  tag_7\n  jumpi\n    /* \"@openzeppelin/contracts/access/Ownable.sol\":1350:1351  0 */\n  0x00\n    /* \"@openzeppelin/contracts/access/Ownable.sol\":1322:1353  OwnableInvalidOwner(address(0)) */\n  mload(0x40)\n  0x1e4fbdf700000000000000000000000000000000000000000000000000000000\n  dup2\n  mstore\n  0x04\n  add\n  tag_8\n  swap2\n  swap1\n  tag_9\n  jump\t// in\ntag_8:\n  mload(0x40)\n  dup1\n  swap2\n  sub\n  swap1\n  revert\n    /* \"@openzeppelin/contracts/access/Ownable.sol\":1269:1364  if (initialOwner == address(0)) {... */\ntag_7:\n    /* \"@openzeppelin/contracts/access/Ownable.sol\":1373:1405  _transferOwnership(initialOwner) */\n  tag_10\n    /* \"@openzeppelin/contracts/access/Ownable.sol\":1392:1404  initialOwner */\n  dup2\n    /* \"@openzeppelin/contracts/access/Ownable.sol\":1373:1391  _transferOwnership */\n  shl(0x20, tag_11)\n    /* \"@openzeppelin/contracts/access/Ownable.sol\":1373:1405  _transferOwnership(initialOwner) */\n  0x20\n  shr\n  jump\t// in\ntag_10:\n    /* \"@openzeppelin/contracts/access/Ownable.sol\":1225:1412  constructor(address initialOwner) {... */\n  pop\n    /* \"Bitxchange.sol\":1156:1170  _uniswapRouter */\n  dup2\n    /* \"Bitxchange.sol\":1121:1134  uniswapRouter */\n  0x01\n  0x00\n    /* \"Bitxchange.sol\":1121:1171  uniswapRouter = IUniswapV2Router02(_uniswapRouter) */\n  0x0100\n  exp\n  dup2\n  sload\n  dup2\n  0xffffffffffffffffffffffffffffffffffffffff\n  mul\n  not\n  and\n  swap1\n  dup4\n  0xffffffffffffffffffffffffffffffffffffffff\n  and\n  mul\n  or\n  swap1\n  sstore\n  pop\n    /* \"Bitxchange.sol\":1205:1215  _rewardPot */\n  dup1\n    /* \"Bitxchange.sol\":1182:1191  rewardPot */\n  0x02\n  0x00\n    /* \"Bitxchange.sol\":1182:1216  rewardPot = IRewardPot(_rewardPot) */\n  0x0100\n  exp\n  dup2\n  sload\n  dup2\n  0xffffffffffffffffffffffffffffffffffffffff\n  mul\n  not\n  and\n  swap1\n  dup4\n  0xffffffffffffffffffffffffffffffffffffffff\n  and\n  mul\n  or\n  swap1\n  sstore\n  pop\n    /* \"Bitxchange.sol\":1034:1224  constructor(address _uniswapRouter, address _rewardPot) Ownable(msg.sender) {... */\n  pop\n  pop\n    /* \"Bitxchange.sol\":665:7050  contract Bitxchange is Ownable {... */\n  jump(tag_13)\n    /* \"@openzeppelin/contracts/access/Ownable.sol\":2912:3099  function _transferOwnership(address newOwner) internal virtual {... */\ntag_11:\n    /* \"@openzeppelin/contracts/access/Ownable.sol\":2985:3001  address oldOwner */\n  0x00\n    /* \"@openzeppelin/contracts/access/Ownable.sol\":3004:3010  _owner */\n  dup1\n  0x00\n  swap1\n  sload\n  swap1\n  0x0100\n  exp\n  swap1\n  div\n  0xffffffffffffffffffffffffffffffffffffffff\n  and\n    /* \"@openzeppelin/contracts/access/Ownable.sol\":2985:3010  address oldOwner = _owner */\n  swap1\n  pop\n    /* \"@openzeppelin/contracts/access/Ownable.sol\":3029:3037  newOwner */\n  dup2\n    /* \"@openzeppelin/contracts/access/Ownable.sol\":3020:3026  _owner */\n  0x00\n  dup1\n    /* \"@openzeppelin/contracts/access/Ownable.sol\":3020:3037  _owner = newOwner */\n  0x0100\n  exp\n  dup2\n  sload\n  dup2\n  0xffffffffffffffffffffffffffffffffffffffff\n  mul\n  not\n  and\n  swap1\n  dup4\n  0xffffffffffffffffffffffffffffffffffffffff\n  and\n  mul\n  or\n  swap1\n  sstore\n  pop\n    /* \"@openzeppelin/contracts/access/Ownable.sol\":3083:3091  newOwner */\n  dup2\n    /* \"@openzeppelin/contracts/access/Ownable.sol\":3052:3092  OwnershipTransferred(oldOwner, newOwner) */\n  0xffffffffffffffffffffffffffffffffffffffff\n  and\n    /* \"@openzeppelin/contracts/access/Ownable.sol\":3073:3081  oldOwner */\n  dup2\n    /* \"@openzeppelin/contracts/access/Ownable.sol\":3052:3092  OwnershipTransferred(oldOwner, newOwner) */\n  0xffffffffffffffffffffffffffffffffffffffff\n  and\n  0x8be0079c531659141344cd1fd0a4f28419497f9722a3daafe3b4186f6b6457e0\n  mload(0x40)\n  mload(0x40)\n  dup1\n  swap2\n  sub\n  swap1\n  log3\n    /* \"@openzeppelin/contracts/access/Ownable.sol\":2975:3099  {... */\n  pop\n    /* \"@openzeppelin/contracts/access/Ownable.sol\":2912:3099  function _transferOwnership(address newOwner) internal virtual {... */\n  pop\n  jump\t// out\n    /* \"#utility.yul\":88:205   */\ntag_16:\n    /* \"#utility.yul\":197:198   */\n  0x00\n    /* \"#utility.yul\":194:195   */\n  dup1\n    /* \"#utility.yul\":187:199   */\n  revert\n    /* \"#utility.yul\":334:460   */\ntag_18:\n    /* \"#utility.yul\":371:378   */\n  0x00\n    /* \"#utility.yul\":411:453   */\n  0xffffffffffffffffffffffffffffffffffffffff\n    /* \"#utility.yul\":404:409   */\n  dup3\n    /* \"#utility.yul\":400:454   */\n  and\n    /* \"#utility.yul\":389:454   */\n  swap1\n  pop\n    /* \"#utility.yul\":334:460   */\n  swap2\n  swap1\n  pop\n  jump\t// out\n    /* \"#utility.yul\":466:562   */\ntag_19:\n    /* \"#utility.yul\":503:510   */\n  0x00\n    /* \"#utility.yul\":532:556   */\n  tag_29\n    /* \"#utility.yul\":550:555   */\n  dup3\n    /* \"#utility.yul\":532:556   */\n  tag_18\n  jump\t// in\ntag_29:\n    /* \"#utility.yul\":521:556   */\n  swap1\n  pop\n    /* \"#utility.yul\":466:562   */\n  swap2\n  swap1\n  pop\n  jump\t// out\n    /* \"#utility.yul\":568:690   */\ntag_20:\n    /* \"#utility.yul\":641:665   */\n  tag_31\n    /* \"#utility.yul\":659:664   */\n  dup2\n    /* \"#utility.yul\":641:665   */\n  tag_19\n  jump\t// in\ntag_31:\n    /* \"#utility.yul\":634:639   */\n  dup2\n    /* \"#utility.yul\":631:666   */\n  eq\n    /* \"#utility.yul\":621:684   */\n  tag_32\n  jumpi\n    /* \"#utility.yul\":680:681   */\n  0x00\n    /* \"#utility.yul\":677:678   */\n  dup1\n    /* \"#utility.yul\":670:682   */\n  revert\n    /* \"#utility.yul\":621:684   */\ntag_32:\n    /* \"#utility.yul\":568:690   */\n  pop\n  jump\t// out\n    /* \"#utility.yul\":696:839   */\ntag_21:\n    /* \"#utility.yul\":753:758   */\n  0x00\n    /* \"#utility.yul\":784:790   */\n  dup2\n    /* \"#utility.yul\":778:791   */\n  mload\n    /* \"#utility.yul\":769:791   */\n  swap1\n  pop\n    /* \"#utility.yul\":800:833   */\n  tag_34\n    /* \"#utility.yul\":827:832   */\n  dup2\n    /* \"#utility.yul\":800:833   */\n  tag_20\n  jump\t// in\ntag_34:\n    /* \"#utility.yul\":696:839   */\n  swap3\n  swap2\n  pop\n  pop\n  jump\t// out\n    /* \"#utility.yul\":845:1352   */\ntag_3:\n    /* \"#utility.yul\":924:930   */\n  0x00\n    /* \"#utility.yul\":932:938   */\n  dup1\n    /* \"#utility.yul\":981:983   */\n  0x40\n    /* \"#utility.yul\":969:978   */\n  dup4\n    /* \"#utility.yul\":960:967   */\n  dup6\n    /* \"#utility.yul\":956:979   */\n  sub\n    /* \"#utility.yul\":952:984   */\n  slt\n    /* \"#utility.yul\":949:1068   */\n  iszero\n  tag_36\n  jumpi\n    /* \"#utility.yul\":987:1066   */\n  tag_37\n  tag_16\n  jump\t// in\ntag_37:\n    /* \"#utility.yul\":949:1068   */\ntag_36:\n    /* \"#utility.yul\":1107:1108   */\n  0x00\n    /* \"#utility.yul\":1132:1196   */\n  tag_38\n    /* \"#utility.yul\":1188:1195   */\n  dup6\n    /* \"#utility.yul\":1179:1185   */\n  dup3\n    /* \"#utility.yul\":1168:1177   */\n  dup7\n    /* \"#utility.yul\":1164:1186   */\n  add\n    /* \"#utility.yul\":1132:1196   */\n  tag_21\n  jump\t// in\ntag_38:\n    /* \"#utility.yul\":1122:1196   */\n  swap3\n  pop\n    /* \"#utility.yul\":1078:1206   */\n  pop\n    /* \"#utility.yul\":1245:1247   */\n  0x20\n    /* \"#utility.yul\":1271:1335   */\n  tag_39\n    /* \"#utility.yul\":1327:1334   */\n  dup6\n    /* \"#utility.yul\":1318:1324   */\n  dup3\n    /* \"#utility.yul\":1307:1316   */\n  dup7\n    /* \"#utility.yul\":1303:1325   */\n  add\n    /* \"#utility.yul\":1271:1335   */\n  tag_21\n  jump\t// in\ntag_39:\n    /* \"#utility.yul\":1261:1335   */\n  swap2\n  pop\n    /* \"#utility.yul\":1216:1345   */\n  pop\n    /* \"#utility.yul\":845:1352   */\n  swap3\n  pop\n  swap3\n  swap1\n  pop\n  jump\t// out\n    /* \"#utility.yul\":1358:1476   */\ntag_22:\n    /* \"#utility.yul\":1445:1469   */\n  tag_41\n    /* \"#utility.yul\":1463:1468   */\n  dup2\n    /* \"#utility.yul\":1445:1469   */\n  tag_19\n  jump\t// in\ntag_41:\n    /* \"#utility.yul\":1440:1443   */\n  dup3\n    /* \"#utility.yul\":1433:1470   */\n  mstore\n    /* \"#utility.yul\":1358:1476   */\n  pop\n  pop\n  jump\t// out\n    /* \"#utility.yul\":1482:1704   */\ntag_9:\n    /* \"#utility.yul\":1575:1579   */\n  0x00\n    /* \"#utility.yul\":1613:1615   */\n  0x20\n    /* \"#utility.yul\":1602:1611   */\n  dup3\n    /* \"#utility.yul\":1598:1616   */\n  add\n    /* \"#utility.yul\":1590:1616   */\n  swap1\n  pop\n    /* \"#utility.yul\":1626:1697   */\n  tag_43\n    /* \"#utility.yul\":1694:1695   */\n  0x00\n    /* \"#utility.yul\":1683:1692   */\n  dup4\n    /* \"#utility.yul\":1679:1696   */\n  add\n    /* \"#utility.yul\":1670:1676   */\n  dup5\n    /* \"#utility.yul\":1626:1697   */\n  tag_22\n  jump\t// in\ntag_43:\n    /* \"#utility.yul\":1482:1704   */\n  swap3\n  swap2\n  pop\n  pop\n  jump\t// out\n    /* \"Bitxchange.sol\":665:7050  contract Bitxchange is Ownable {... */\ntag_13:\n  dataSize(sub_0)\n  dup1\n  dataOffset(sub_0)\n  0x00\n  codecopy\n  0x00\n  return\nstop\n\nsub_0: assembly {\n        /* \"Bitxchange.sol\":665:7050  contract Bitxchange is Ownable {... */\n      mstore(0x40, 0x80)\n      jumpi(tag_1, lt(calldatasize, 0x04))\n      shr(0xe0, calldataload(0x00))\n      dup1\n      0xad9902a1\n      gt\n      tag_16\n      jumpi\n      dup1\n      0xe15cc8da\n      gt\n      tag_17\n      jumpi\n      dup1\n      0xe15cc8da\n      eq\n      tag_12\n      jumpi\n      dup1\n      0xf14210a6\n      eq\n      tag_13\n      jumpi\n      dup1\n      0xf2fde38b\n      eq\n      tag_14\n      jumpi\n      dup1\n      0xf6326fb3\n      eq\n      tag_15\n      jumpi\n      jump(tag_1)\n    tag_17:\n      dup1\n      0xad9902a1\n      eq\n      tag_9\n      jumpi\n      dup1\n      0xae06c1b7\n      eq\n      tag_10\n      jumpi\n      dup1\n      0xb4798209\n      eq\n      tag_11\n      jumpi\n      jump(tag_1)\n    tag_16:\n      dup1\n      0x735de9f7\n      gt\n      tag_18\n      jumpi\n      dup1\n      0x735de9f7\n      eq\n      tag_5\n      jumpi\n      dup1\n      0x8da5cb5b\n      eq\n      tag_6\n      jumpi\n      dup1\n      0x93ad7440\n      eq\n      tag_7\n      jumpi\n      dup1\n      0xa001ecdd\n      eq\n      tag_8\n      jumpi\n      jump(tag_1)\n    tag_18:\n      dup1\n      0x0fe6a787\n      eq\n      tag_2\n      jumpi\n      dup1\n      0x4e63c29e\n      eq\n      tag_3\n      jumpi\n      dup1\n      0x715018a6\n      eq\n      tag_4\n      jumpi\n    tag_1:\n      0x00\n      dup1\n      revert\n        /* \"Bitxchange.sol\":5932:7045  function swapTokensForETH_UserPaysGas(address token, uint256 amount, uint256 minAmountOut) external {... */\n    tag_2:\n      callvalue\n      dup1\n      iszero\n      tag_19\n      jumpi\n      0x00\n      dup1\n      revert\n    tag_19:\n      pop\n      tag_20\n      0x04\n      dup1\n      calldatasize\n      sub\n      dup2\n      add\n      swap1\n      tag_21\n      swap2\n      swap1\n      tag_22\n      jump\t// in\n    tag_21:\n      tag_23\n      jump\t// in\n    tag_20:\n      stop\n        /* \"Bitxchange.sol\":1620:1853  function setRewardPot(address _newRewardPot) external onlyOwner {... */\n    tag_3:\n      callvalue\n      dup1\n      iszero\n      tag_24\n      jumpi\n      0x00\n      dup1\n      revert\n    tag_24:\n      pop\n      tag_25\n      0x04\n      dup1\n      calldatasize\n      sub\n      dup2\n      add\n      swap1\n      tag_26\n      swap2\n      swap1\n      tag_27\n      jump\t// in\n    tag_26:\n      tag_28\n      jump\t// in\n    tag_25:\n      stop\n        /* \"@openzeppelin/contracts/access/Ownable.sol\":2293:2394  function renounceOwnership() public virtual onlyOwner {... */\n    tag_4:\n      callvalue\n      dup1\n      iszero\n      tag_29\n      jumpi\n      0x00\n      dup1\n      revert\n    tag_29:\n      pop\n      tag_30\n      tag_31\n      jump\t// in\n    tag_30:\n      stop\n        /* \"Bitxchange.sol\":703:742  IUniswapV2Router02 public uniswapRouter */\n    tag_5:\n      callvalue\n      dup1\n      iszero\n      tag_32\n      jumpi\n      0x00\n      dup1\n      revert\n    tag_32:\n      pop\n      tag_33\n      tag_34\n      jump\t// in\n    tag_33:\n      mload(0x40)\n      tag_35\n      swap2\n      swap1\n      tag_36\n      jump\t// in\n    tag_35:\n      mload(0x40)\n      dup1\n      swap2\n      sub\n      swap1\n      return\n        /* \"@openzeppelin/contracts/access/Ownable.sol\":1638:1723  function owner() public view virtual returns (address) {... */\n    tag_6:\n      callvalue\n      dup1\n      iszero\n      tag_37\n      jumpi\n      0x00\n      dup1\n      revert\n    tag_37:\n      pop\n      tag_38\n      tag_39\n      jump\t// in\n    tag_38:\n      mload(0x40)\n      tag_40\n      swap2\n      swap1\n      tag_41\n      jump\t// in\n    tag_40:\n      mload(0x40)\n      dup1\n      swap2\n      sub\n      swap1\n      return\n        /* \"Bitxchange.sol\":749:776  IRewardPot public rewardPot */\n    tag_7:\n      callvalue\n      dup1\n      iszero\n      tag_42\n      jumpi\n      0x00\n      dup1\n      revert\n    tag_42:\n      pop\n      tag_43\n      tag_44\n      jump\t// in\n    tag_43:\n      mload(0x40)\n      tag_45\n      swap2\n      swap1\n      tag_46\n      jump\t// in\n    tag_45:\n      mload(0x40)\n      dup1\n      swap2\n      sub\n      swap1\n      return\n        /* \"Bitxchange.sol\":783:817  uint256 public feePercentage = 750 */\n    tag_8:\n      callvalue\n      dup1\n      iszero\n      tag_47\n      jumpi\n      0x00\n      dup1\n      revert\n    tag_47:\n      pop\n      tag_48\n      tag_49\n      jump\t// in\n    tag_48:\n      mload(0x40)\n      tag_50\n      swap2\n      swap1\n      tag_51\n      jump\t// in\n    tag_50:\n      mload(0x40)\n      dup1\n      swap2\n      sub\n      swap1\n      return\n        /* \"Bitxchange.sol\":2692:3742  function getSwapQuote(address token, uint256 amount, uint256 slippage, uint256 userGasPrice) public view returns (uint256 minAmountOut, uint256 estimatedGasCost, bool canDoSwap) {... */\n    tag_9:\n      callvalue\n      dup1\n      iszero\n      tag_52\n      jumpi\n      0x00\n      dup1\n      revert\n    tag_52:\n      pop\n      tag_53\n      0x04\n      dup1\n      calldatasize\n      sub\n      dup2\n      add\n      swap1\n      tag_54\n      swap2\n      swap1\n      tag_55\n      jump\t// in\n    tag_54:\n      tag_56\n      jump\t// in\n    tag_53:\n      mload(0x40)\n      tag_57\n      swap4\n      swap3\n      swap2\n      swap1\n      tag_58\n      jump\t// in\n    tag_57:\n      mload(0x40)\n      dup1\n      swap2\n      sub\n      swap1\n      return\n        /* \"Bitxchange.sol\":1473:1612  function setFeePercentage(uint256 _newFee) external onlyOwner {... */\n    tag_10:\n      callvalue\n      dup1\n      iszero\n      tag_59\n      jumpi\n      0x00\n      dup1\n      revert\n    tag_59:\n      pop\n      tag_60\n      0x04\n      dup1\n      calldatasize\n      sub\n      dup2\n      add\n      swap1\n      tag_61\n      swap2\n      swap1\n      tag_62\n      jump\t// in\n    tag_61:\n      tag_63\n      jump\t// in\n    tag_60:\n      stop\n        /* \"Bitxchange.sol\":1909:2684  function canSwap(address token, uint256 amountIn, uint256 userGasPrice) public view returns (bool) {... */\n    tag_11:\n      callvalue\n      dup1\n      iszero\n      tag_64\n      jumpi\n      0x00\n      dup1\n      revert\n    tag_64:\n      pop\n      tag_65\n      0x04\n      dup1\n      calldatasize\n      sub\n      dup2\n      add\n      swap1\n      tag_66\n      swap2\n      swap1\n      tag_22\n      jump\t// in\n    tag_66:\n      tag_67\n      jump\t// in\n    tag_65:\n      mload(0x40)\n      tag_68\n      swap2\n      swap1\n      tag_69\n      jump\t// in\n    tag_68:\n      mload(0x40)\n      dup1\n      swap2\n      sub\n      swap1\n      return\n        /* \"Bitxchange.sol\":3754:5924  function swapTokensForETH(address token, uint256 amount, uint256 minAmountOut) external onlyOwner {... */\n    tag_12:\n      callvalue\n      dup1\n      iszero\n      tag_70\n      jumpi\n      0x00\n      dup1\n      revert\n    tag_70:\n      pop\n      tag_71\n      0x04\n      dup1\n      calldatasize\n      sub\n      dup2\n      add\n      swap1\n      tag_72\n      swap2\n      swap1\n      tag_22\n      jump\t// in\n    tag_72:\n      tag_73\n      jump\t// in\n    tag_71:\n      stop\n        /* \"Bitxchange.sol\":1357:1465  function withdrawETH(uint256 amount) external onlyOwner {... */\n    tag_13:\n      callvalue\n      dup1\n      iszero\n      tag_74\n      jumpi\n      0x00\n      dup1\n      revert\n    tag_74:\n      pop\n      tag_75\n      0x04\n      dup1\n      calldatasize\n      sub\n      dup2\n      add\n      swap1\n      tag_76\n      swap2\n      swap1\n      tag_62\n      jump\t// in\n    tag_76:\n      tag_77\n      jump\t// in\n    tag_75:\n      stop\n        /* \"@openzeppelin/contracts/access/Ownable.sol\":2543:2758  function transferOwnership(address newOwner) public virtual onlyOwner {... */\n    tag_14:\n      callvalue\n      dup1\n      iszero\n      tag_78\n      jumpi\n      0x00\n      dup1\n      revert\n    tag_78:\n      pop\n      tag_79\n      0x04\n      dup1\n      calldatasize\n      sub\n      dup2\n      add\n      swap1\n      tag_80\n      swap2\n      swap1\n      tag_27\n      jump\t// in\n    tag_80:\n      tag_81\n      jump\t// in\n    tag_79:\n      stop\n        /* \"Bitxchange.sol\":1277:1318  function depositETH() external payable {} */\n    tag_15:\n      tag_82\n      tag_83\n      jump\t// in\n    tag_82:\n      stop\n        /* \"Bitxchange.sol\":5932:7045  function swapTokensForETH_UserPaysGas(address token, uint256 amount, uint256 minAmountOut) external {... */\n    tag_23:\n        /* \"Bitxchange.sol\":6079:6084  token */\n      dup3\n        /* \"Bitxchange.sol\":6072:6098  IERC20(token).transferFrom */\n      0xffffffffffffffffffffffffffffffffffffffff\n      and\n      0x23b872dd\n        /* \"Bitxchange.sol\":6099:6109  msg.sender */\n      caller\n        /* \"Bitxchange.sol\":6119:6123  this */\n      address\n        /* \"Bitxchange.sol\":6126:6132  amount */\n      dup6\n        /* \"Bitxchange.sol\":6072:6133  IERC20(token).transferFrom(msg.sender, address(this), amount) */\n      mload(0x40)\n      dup5\n      0xffffffff\n      and\n      0xe0\n      shl\n      dup2\n      mstore\n      0x04\n      add\n      tag_85\n      swap4\n      swap3\n      swap2\n      swap1\n      tag_86\n      jump\t// in\n    tag_85:\n      0x20\n      mload(0x40)\n      dup1\n      dup4\n      sub\n      dup2\n      0x00\n      dup8\n      gas\n      call\n      iszero\n      dup1\n      iszero\n      tag_88\n      jumpi\n      returndatasize\n      0x00\n      dup1\n      returndatacopy\n      revert(0x00, returndatasize)\n    tag_88:\n      pop\n      pop\n      pop\n      pop\n      mload(0x40)\n      returndatasize\n      not(0x1f)\n      0x1f\n      dup3\n      add\n      and\n      dup3\n      add\n      dup1\n      0x40\n      mstore\n      pop\n      dup2\n      add\n      swap1\n      tag_89\n      swap2\n      swap1\n      tag_90\n      jump\t// in\n    tag_89:\n      pop\n        /* \"Bitxchange.sol\":6151:6156  token */\n      dup3\n        /* \"Bitxchange.sol\":6144:6165  IERC20(token).approve */\n      0xffffffffffffffffffffffffffffffffffffffff\n      and\n      0x095ea7b3\n        /* \"Bitxchange.sol\":6174:6187  uniswapRouter */\n      0x01\n      0x00\n      swap1\n      sload\n      swap1\n      0x0100\n      exp\n      swap1\n      div\n      0xffffffffffffffffffffffffffffffffffffffff\n      and\n        /* \"Bitxchange.sol\":6190:6196  amount */\n      dup5\n        /* \"Bitxchange.sol\":6144:6197  IERC20(token).approve(address(uniswapRouter), amount) */\n      mload(0x40)\n      dup4\n      0xffffffff\n      and\n      0xe0\n      shl\n      dup2\n      mstore\n      0x04\n      add\n      tag_91\n      swap3\n      swap2\n      swap1\n      tag_92\n      jump\t// in\n    tag_91:\n      0x20\n      mload(0x40)\n      dup1\n      dup4\n      sub\n      dup2\n      0x00\n      dup8\n      gas\n      call\n      iszero\n      dup1\n      iszero\n      tag_94\n      jumpi\n      returndatasize\n      0x00\n      dup1\n      returndatacopy\n      revert(0x00, returndatasize)\n    tag_94:\n      pop\n      pop\n      pop\n      pop\n      mload(0x40)\n      returndatasize\n      not(0x1f)\n      0x1f\n      dup3\n      add\n      and\n      dup3\n      add\n      dup1\n      0x40\n      mstore\n      pop\n      dup2\n      add\n      swap1\n      tag_95\n      swap2\n      swap1\n      tag_90\n      jump\t// in\n    tag_95:\n      pop\n        /* \"Bitxchange.sol\":6210:6231  address[] memory path */\n      0x00\n        /* \"Bitxchange.sol\":6248:6249  2 */\n      0x02\n        /* \"Bitxchange.sol\":6234:6250  new address[](2) */\n      0xffffffffffffffff\n      dup2\n      gt\n      iszero\n      tag_96\n      jumpi\n      tag_97\n      tag_98\n      jump\t// in\n    tag_97:\n    tag_96:\n      mload(0x40)\n      swap1\n      dup1\n      dup3\n      mstore\n      dup1\n      0x20\n      mul\n      0x20\n      add\n      dup3\n      add\n      0x40\n      mstore\n      dup1\n      iszero\n      tag_99\n      jumpi\n      dup2\n      0x20\n      add\n      0x20\n      dup3\n      mul\n      dup1\n      calldatasize\n      dup4\n      calldatacopy\n      dup1\n      dup3\n      add\n      swap2\n      pop\n      pop\n      swap1\n      pop\n    tag_99:\n      pop\n        /* \"Bitxchange.sol\":6210:6250  address[] memory path = new address[](2) */\n      swap1\n      pop\n        /* \"Bitxchange.sol\":6271:6276  token */\n      dup4\n        /* \"Bitxchange.sol\":6261:6265  path */\n      dup2\n        /* \"Bitxchange.sol\":6266:6267  0 */\n      0x00\n        /* \"Bitxchange.sol\":6261:6268  path[0] */\n      dup2\n      mload\n      dup2\n      lt\n      tag_100\n      jumpi\n      tag_101\n      tag_102\n      jump\t// in\n    tag_101:\n    tag_100:\n      0x20\n      mul\n      0x20\n      add\n      add\n        /* \"Bitxchange.sol\":6261:6276  path[0] = token */\n      swap1\n      0xffffffffffffffffffffffffffffffffffffffff\n      and\n      swap1\n      dup2\n      0xffffffffffffffffffffffffffffffffffffffff\n      and\n      dup2\n      mstore\n      pop\n      pop\n        /* \"Bitxchange.sol\":6297:6310  uniswapRouter */\n      0x01\n      0x00\n      swap1\n      sload\n      swap1\n      0x0100\n      exp\n      swap1\n      div\n      0xffffffffffffffffffffffffffffffffffffffff\n      and\n        /* \"Bitxchange.sol\":6297:6315  uniswapRouter.WETH */\n      0xffffffffffffffffffffffffffffffffffffffff\n      and\n      0xad5c4648\n        /* \"Bitxchange.sol\":6297:6317  uniswapRouter.WETH() */\n      mload(0x40)\n      dup2\n      0xffffffff\n      and\n      0xe0\n      shl\n      dup2\n      mstore\n      0x04\n      add\n      0x20\n      mload(0x40)\n      dup1\n      dup4\n      sub\n      dup2\n      dup7\n      gas\n      staticcall\n      iszero\n      dup1\n      iszero\n      tag_104\n      jumpi\n      returndatasize\n      0x00\n      dup1\n      returndatacopy\n      revert(0x00, returndatasize)\n    tag_104:\n      pop\n      pop\n      pop\n      pop\n      mload(0x40)\n      returndatasize\n      not(0x1f)\n      0x1f\n      dup3\n      add\n      and\n      dup3\n      add\n      dup1\n      0x40\n      mstore\n      pop\n      dup2\n      add\n      swap1\n      tag_105\n      swap2\n      swap1\n      tag_106\n      jump\t// in\n    tag_105:\n        /* \"Bitxchange.sol\":6287:6291  path */\n      dup2\n        /* \"Bitxchange.sol\":6292:6293  1 */\n      0x01\n        /* \"Bitxchange.sol\":6287:6294  path[1] */\n      dup2\n      mload\n      dup2\n      lt\n      tag_107\n      jumpi\n      tag_108\n      tag_102\n      jump\t// in\n    tag_108:\n    tag_107:\n      0x20\n      mul\n      0x20\n      add\n      add\n        /* \"Bitxchange.sol\":6287:6317  path[1] = uniswapRouter.WETH() */\n      swap1\n      0xffffffffffffffffffffffffffffffffffffffff\n      and\n      swap1\n      dup2\n      0xffffffffffffffffffffffffffffffffffffffff\n      and\n      dup2\n      mstore\n      pop\n      pop\n        /* \"Bitxchange.sol\":6330:6354  uint256[] memory amounts */\n      0x00\n        /* \"Bitxchange.sol\":6357:6370  uniswapRouter */\n      0x01\n      0x00\n      swap1\n      sload\n      swap1\n      0x0100\n      exp\n      swap1\n      div\n      0xffffffffffffffffffffffffffffffffffffffff\n      and\n        /* \"Bitxchange.sol\":6357:6392  uniswapRouter.swapExactTokensForETH */\n      0xffffffffffffffffffffffffffffffffffffffff\n      and\n      0x18cbafe5\n        /* \"Bitxchange.sol\":6393:6399  amount */\n      dup6\n        /* \"Bitxchange.sol\":6401:6413  minAmountOut */\n      dup6\n        /* \"Bitxchange.sol\":6415:6419  path */\n      dup6\n        /* \"Bitxchange.sol\":6429:6433  this */\n      address\n        /* \"Bitxchange.sol\":6436:6451  block.timestamp */\n      timestamp\n        /* \"Bitxchange.sol\":6357:6452  uniswapRouter.swapExactTokensForETH(amount, minAmountOut, path, address(this), block.timestamp) */\n      mload(0x40)\n      dup7\n      0xffffffff\n      and\n      0xe0\n      shl\n      dup2\n      mstore\n      0x04\n      add\n      tag_109\n      swap6\n      swap5\n      swap4\n      swap3\n      swap2\n      swap1\n      tag_110\n      jump\t// in\n    tag_109:\n      0x00\n      mload(0x40)\n      dup1\n      dup4\n      sub\n      dup2\n      0x00\n      dup8\n      gas\n      call\n      iszero\n      dup1\n      iszero\n      tag_112\n      jumpi\n      returndatasize\n      0x00\n      dup1\n      returndatacopy\n      revert(0x00, returndatasize)\n    tag_112:\n      pop\n      pop\n      pop\n      pop\n      mload(0x40)\n      returndatasize\n      0x00\n      dup3\n      returndatacopy\n      returndatasize\n      not(0x1f)\n      0x1f\n      dup3\n      add\n      and\n      dup3\n      add\n      dup1\n      0x40\n      mstore\n      pop\n      dup2\n      add\n      swap1\n      tag_113\n      swap2\n      swap1\n      tag_114\n      jump\t// in\n    tag_113:\n        /* \"Bitxchange.sol\":6330:6452  uint256[] memory amounts = uniswapRouter.swapExactTokensForETH(amount, minAmountOut, path, address(this), block.timestamp) */\n      swap1\n      pop\n        /* \"Bitxchange.sol\":6463:6482  uint256 receivedETH */\n      0x00\n        /* \"Bitxchange.sol\":6485:6492  amounts */\n      dup2\n        /* \"Bitxchange.sol\":6493:6494  1 */\n      0x01\n        /* \"Bitxchange.sol\":6485:6495  amounts[1] */\n      dup2\n      mload\n      dup2\n      lt\n      tag_115\n      jumpi\n      tag_116\n      tag_102\n      jump\t// in\n    tag_116:\n    tag_115:\n      0x20\n      mul\n      0x20\n      add\n      add\n      mload\n        /* \"Bitxchange.sol\":6463:6495  uint256 receivedETH = amounts[1] */\n      swap1\n      pop\n        /* \"Bitxchange.sol\":6547:6558  uint256 fee */\n      0x00\n        /* \"Bitxchange.sol\":6593:6598  10000 */\n      0x2710\n        /* \"Bitxchange.sol\":6576:6589  feePercentage */\n      sload(0x03)\n        /* \"Bitxchange.sol\":6562:6573  receivedETH */\n      dup4\n        /* \"Bitxchange.sol\":6562:6589  receivedETH * feePercentage */\n      tag_117\n      swap2\n      swap1\n      tag_118\n      jump\t// in\n    tag_117:\n        /* \"Bitxchange.sol\":6561:6598  (receivedETH * feePercentage) / 10000 */\n      tag_119\n      swap2\n      swap1\n      tag_120\n      jump\t// in\n    tag_119:\n        /* \"Bitxchange.sol\":6547:6598  uint256 fee = (receivedETH * feePercentage) / 10000 */\n      swap1\n      pop\n        /* \"Bitxchange.sol\":6609:6629  uint256 rewardPotFee */\n      0x00\n        /* \"Bitxchange.sol\":6645:6648  100 */\n      0x64\n        /* \"Bitxchange.sol\":6639:6641  90 */\n      0x5a\n        /* \"Bitxchange.sol\":6633:6636  fee */\n      dup4\n        /* \"Bitxchange.sol\":6633:6641  fee * 90 */\n      tag_121\n      swap2\n      swap1\n      tag_118\n      jump\t// in\n    tag_121:\n        /* \"Bitxchange.sol\":6632:6648  (fee * 90) / 100 */\n      tag_122\n      swap2\n      swap1\n      tag_120\n      jump\t// in\n    tag_122:\n        /* \"Bitxchange.sol\":6609:6648  uint256 rewardPotFee = (fee * 90) / 100 */\n      swap1\n      pop\n        /* \"Bitxchange.sol\":6711:6720  rewardPot */\n      0x02\n      0x00\n      swap1\n      sload\n      swap1\n      0x0100\n      exp\n      swap1\n      div\n      0xffffffffffffffffffffffffffffffffffffffff\n      and\n        /* \"Bitxchange.sol\":6711:6735  rewardPot.addToRewardPot */\n      0xffffffffffffffffffffffffffffffffffffffff\n      and\n      0x099da9e9\n        /* \"Bitxchange.sol\":6736:6748  rewardPotFee */\n      dup3\n        /* \"Bitxchange.sol\":6711:6749  rewardPot.addToRewardPot(rewardPotFee) */\n      mload(0x40)\n      dup3\n      0xffffffff\n      and\n      0xe0\n      shl\n      dup2\n      mstore\n      0x04\n      add\n      tag_123\n      swap2\n      swap1\n      tag_51\n      jump\t// in\n    tag_123:\n      0x00\n      mload(0x40)\n      dup1\n      dup4\n      sub\n      dup2\n      0x00\n      dup8\n      dup1\n      extcodesize\n      iszero\n      dup1\n      iszero\n      tag_124\n      jumpi\n      0x00\n      dup1\n      revert\n    tag_124:\n      pop\n      gas\n      call\n      iszero\n      dup1\n      iszero\n      tag_126\n      jumpi\n      returndatasize\n      0x00\n      dup1\n      returndatacopy\n      revert(0x00, returndatasize)\n    tag_126:\n      pop\n      pop\n      pop\n      pop\n        /* \"Bitxchange.sol\":6879:6899  uint256 remainingETH */\n      0x00\n        /* \"Bitxchange.sol\":6916:6919  fee */\n      dup3\n        /* \"Bitxchange.sol\":6902:6913  receivedETH */\n      dup5\n        /* \"Bitxchange.sol\":6902:6919  receivedETH - fee */\n      tag_127\n      swap2\n      swap1\n      tag_128\n      jump\t// in\n    tag_127:\n        /* \"Bitxchange.sol\":6879:6919  uint256 remainingETH = receivedETH - fee */\n      swap1\n      pop\n        /* \"Bitxchange.sol\":6938:6948  msg.sender */\n      caller\n        /* \"Bitxchange.sol\":6930:6958  payable(msg.sender).transfer */\n      0xffffffffffffffffffffffffffffffffffffffff\n      and\n        /* \"Bitxchange.sol\":6930:6972  payable(msg.sender).transfer(remainingETH) */\n      0x08fc\n        /* \"Bitxchange.sol\":6959:6971  remainingETH */\n      dup3\n        /* \"Bitxchange.sol\":6930:6972  payable(msg.sender).transfer(remainingETH) */\n      swap1\n      dup2\n      iszero\n      mul\n      swap1\n      mload(0x40)\n      0x00\n      mload(0x40)\n      dup1\n      dup4\n      sub\n      dup2\n      dup6\n      dup9\n      dup9\n      call\n      swap4\n      pop\n      pop\n      pop\n      pop\n      iszero\n      dup1\n      iszero\n      tag_130\n      jumpi\n      returndatasize\n      0x00\n      dup1\n      returndatacopy\n      revert(0x00, returndatasize)\n    tag_130:\n      pop\n        /* \"Bitxchange.sol\":7005:7015  msg.sender */\n      caller\n        /* \"Bitxchange.sol\":6990:7037  SwapSuccessful(msg.sender, amount, receivedETH) */\n      0xffffffffffffffffffffffffffffffffffffffff\n      and\n      0xd0dcb5d6ccbc65558941eda1d0add99921923cc1868a41bbf8d224258a21396d\n        /* \"Bitxchange.sol\":7017:7023  amount */\n      dup10\n        /* \"Bitxchange.sol\":7025:7036  receivedETH */\n      dup7\n        /* \"Bitxchange.sol\":6990:7037  SwapSuccessful(msg.sender, amount, receivedETH) */\n      mload(0x40)\n      tag_131\n      swap3\n      swap2\n      swap1\n      tag_132\n      jump\t// in\n    tag_131:\n      mload(0x40)\n      dup1\n      swap2\n      sub\n      swap1\n      log2\n        /* \"Bitxchange.sol\":6032:7045  {... */\n      pop\n      pop\n      pop\n      pop\n      pop\n      pop\n        /* \"Bitxchange.sol\":5932:7045  function swapTokensForETH_UserPaysGas(address token, uint256 amount, uint256 minAmountOut) external {... */\n      pop\n      pop\n      pop\n      jump\t// out\n        /* \"Bitxchange.sol\":1620:1853  function setRewardPot(address _newRewardPot) external onlyOwner {... */\n    tag_28:\n        /* \"@openzeppelin/contracts/access/Ownable.sol\":1531:1544  _checkOwner() */\n      tag_134\n        /* \"@openzeppelin/contracts/access/Ownable.sol\":1531:1542  _checkOwner */\n      tag_135\n        /* \"@openzeppelin/contracts/access/Ownable.sol\":1531:1544  _checkOwner() */\n      jump\t// in\n    tag_134:\n        /* \"Bitxchange.sol\":1728:1729  0 */\n      0x00\n        /* \"Bitxchange.sol\":1703:1730  _newRewardPot != address(0) */\n      0xffffffffffffffffffffffffffffffffffffffff\n      and\n        /* \"Bitxchange.sol\":1703:1716  _newRewardPot */\n      dup2\n        /* \"Bitxchange.sol\":1703:1730  _newRewardPot != address(0) */\n      0xffffffffffffffffffffffffffffffffffffffff\n      and\n      sub\n        /* \"Bitxchange.sol\":1695:1750  require(_newRewardPot != address(0), \"Invalid address\") */\n      tag_137\n      jumpi\n      mload(0x40)\n      0x08c379a000000000000000000000000000000000000000000000000000000000\n      dup2\n      mstore\n      0x04\n      add\n      tag_138\n      swap1\n      tag_139\n      jump\t// in\n    tag_138:\n      mload(0x40)\n      dup1\n      swap2\n      sub\n      swap1\n      revert\n    tag_137:\n        /* \"Bitxchange.sol\":1784:1797  _newRewardPot */\n      dup1\n        /* \"Bitxchange.sol\":1761:1770  rewardPot */\n      0x02\n      0x00\n        /* \"Bitxchange.sol\":1761:1798  rewardPot = IRewardPot(_newRewardPot) */\n      0x0100\n      exp\n      dup2\n      sload\n      dup2\n      0xffffffffffffffffffffffffffffffffffffffff\n      mul\n      not\n      and\n      swap1\n      dup4\n      0xffffffffffffffffffffffffffffffffffffffff\n      and\n      mul\n      or\n      swap1\n      sstore\n      pop\n        /* \"Bitxchange.sol\":1814:1845  RewardPotUpdated(_newRewardPot) */\n      0xecb9755730c832a50c16ea8001a277be77d816b09dc686fe072d4f2285e5cece\n        /* \"Bitxchange.sol\":1831:1844  _newRewardPot */\n      dup2\n        /* \"Bitxchange.sol\":1814:1845  RewardPotUpdated(_newRewardPot) */\n      mload(0x40)\n      tag_140\n      swap2\n      swap1\n      tag_41\n      jump\t// in\n    tag_140:\n      mload(0x40)\n      dup1\n      swap2\n      sub\n      swap1\n      log1\n        /* \"Bitxchange.sol\":1620:1853  function setRewardPot(address _newRewardPot) external onlyOwner {... */\n      pop\n      jump\t// out\n        /* \"@openzeppelin/contracts/access/Ownable.sol\":2293:2394  function renounceOwnership() public virtual onlyOwner {... */\n    tag_31:\n        /* \"@openzeppelin/contracts/access/Ownable.sol\":1531:1544  _checkOwner() */\n      tag_142\n        /* \"@openzeppelin/contracts/access/Ownable.sol\":1531:1542  _checkOwner */\n      tag_135\n        /* \"@openzeppelin/contracts/access/Ownable.sol\":1531:1544  _checkOwner() */\n      jump\t// in\n    tag_142:\n        /* \"@openzeppelin/contracts/access/Ownable.sol\":2357:2387  _transferOwnership(address(0)) */\n      tag_144\n        /* \"@openzeppelin/contracts/access/Ownable.sol\":2384:2385  0 */\n      0x00\n        /* \"@openzeppelin/contracts/access/Ownable.sol\":2357:2375  _transferOwnership */\n      tag_145\n        /* \"@openzeppelin/contracts/access/Ownable.sol\":2357:2387  _transferOwnership(address(0)) */\n      jump\t// in\n    tag_144:\n        /* \"@openzeppelin/contracts/access/Ownable.sol\":2293:2394  function renounceOwnership() public virtual onlyOwner {... */\n      jump\t// out\n        /* \"Bitxchange.sol\":703:742  IUniswapV2Router02 public uniswapRouter */\n    tag_34:\n      0x01\n      0x00\n      swap1\n      sload\n      swap1\n      0x0100\n      exp\n      swap1\n      div\n      0xffffffffffffffffffffffffffffffffffffffff\n      and\n      dup2\n      jump\t// out\n        /* \"@openzeppelin/contracts/access/Ownable.sol\":1638:1723  function owner() public view virtual returns (address) {... */\n    tag_39:\n        /* \"@openzeppelin/contracts/access/Ownable.sol\":1684:1691  address */\n      0x00\n        /* \"@openzeppelin/contracts/access/Ownable.sol\":1710:1716  _owner */\n      dup1\n      0x00\n      swap1\n      sload\n      swap1\n      0x0100\n      exp\n      swap1\n      div\n      0xffffffffffffffffffffffffffffffffffffffff\n      and\n        /* \"@openzeppelin/contracts/access/Ownable.sol\":1703:1716  return _owner */\n      swap1\n      pop\n        /* \"@openzeppelin/contracts/access/Ownable.sol\":1638:1723  function owner() public view virtual returns (address) {... */\n      swap1\n      jump\t// out\n        /* \"Bitxchange.sol\":749:776  IRewardPot public rewardPot */\n    tag_44:\n      0x02\n      0x00\n      swap1\n      sload\n      swap1\n      0x0100\n      exp\n      swap1\n      div\n      0xffffffffffffffffffffffffffffffffffffffff\n      and\n      dup2\n      jump\t// out\n        /* \"Bitxchange.sol\":783:817  uint256 public feePercentage = 750 */\n    tag_49:\n      sload(0x03)\n      dup2\n      jump\t// out\n        /* \"Bitxchange.sol\":2692:3742  function getSwapQuote(address token, uint256 amount, uint256 slippage, uint256 userGasPrice) public view returns (uint256 minAmountOut, uint256 estimatedGasCost, bool canDoSwap) {... */\n    tag_56:\n        /* \"Bitxchange.sol\":2806:2826  uint256 minAmountOut */\n      0x00\n        /* \"Bitxchange.sol\":2828:2852  uint256 estimatedGasCost */\n      dup1\n        /* \"Bitxchange.sol\":2854:2868  bool canDoSwap */\n      0x00\n        /* \"Bitxchange.sol\":2881:2902  address[] memory path */\n      dup1\n        /* \"Bitxchange.sol\":2919:2920  2 */\n      0x02\n        /* \"Bitxchange.sol\":2905:2921  new address[](2) */\n      0xffffffffffffffff\n      dup2\n      gt\n      iszero\n      tag_148\n      jumpi\n      tag_149\n      tag_98\n      jump\t// in\n    tag_149:\n    tag_148:\n      mload(0x40)\n      swap1\n      dup1\n      dup3\n      mstore\n      dup1\n      0x20\n      mul\n      0x20\n      add\n      dup3\n      add\n      0x40\n      mstore\n      dup1\n      iszero\n      tag_150\n      jumpi\n      dup2\n      0x20\n      add\n      0x20\n      dup3\n      mul\n      dup1\n      calldatasize\n      dup4\n      calldatacopy\n      dup1\n      dup3\n      add\n      swap2\n      pop\n      pop\n      swap1\n      pop\n    tag_150:\n      pop\n        /* \"Bitxchange.sol\":2881:2921  address[] memory path = new address[](2) */\n      swap1\n      pop\n        /* \"Bitxchange.sol\":2942:2947  token */\n      dup8\n        /* \"Bitxchange.sol\":2932:2936  path */\n      dup2\n        /* \"Bitxchange.sol\":2937:2938  0 */\n      0x00\n        /* \"Bitxchange.sol\":2932:2939  path[0] */\n      dup2\n      mload\n      dup2\n      lt\n      tag_151\n      jumpi\n      tag_152\n      tag_102\n      jump\t// in\n    tag_152:\n    tag_151:\n      0x20\n      mul\n      0x20\n      add\n      add\n        /* \"Bitxchange.sol\":2932:2947  path[0] = token */\n      swap1\n      0xffffffffffffffffffffffffffffffffffffffff\n      and\n      swap1\n      dup2\n      0xffffffffffffffffffffffffffffffffffffffff\n      and\n      dup2\n      mstore\n      pop\n      pop\n        /* \"Bitxchange.sol\":2968:2981  uniswapRouter */\n      0x01\n      0x00\n      swap1\n      sload\n      swap1\n      0x0100\n      exp\n      swap1\n      div\n      0xffffffffffffffffffffffffffffffffffffffff\n      and\n        /* \"Bitxchange.sol\":2968:2986  uniswapRouter.WETH */\n      0xffffffffffffffffffffffffffffffffffffffff\n      and\n      0xad5c4648\n        /* \"Bitxchange.sol\":2968:2988  uniswapRouter.WETH() */\n      mload(0x40)\n      dup2\n      0xffffffff\n      and\n      0xe0\n      shl\n      dup2\n      mstore\n      0x04\n      add\n      0x20\n      mload(0x40)\n      dup1\n      dup4\n      sub\n      dup2\n      dup7\n      gas\n      staticcall\n      iszero\n      dup1\n      iszero\n      tag_154\n      jumpi\n      returndatasize\n      0x00\n      dup1\n      returndatacopy\n      revert(0x00, returndatasize)\n    tag_154:\n      pop\n      pop\n      pop\n      pop\n      mload(0x40)\n      returndatasize\n      not(0x1f)\n      0x1f\n      dup3\n      add\n      and\n      dup3\n      add\n      dup1\n      0x40\n      mstore\n      pop\n      dup2\n      add\n      swap1\n      tag_155\n      swap2\n      swap1\n      tag_106\n      jump\t// in\n    tag_155:\n        /* \"Bitxchange.sol\":2958:2962  path */\n      dup2\n        /* \"Bitxchange.sol\":2963:2964  1 */\n      0x01\n        /* \"Bitxchange.sol\":2958:2965  path[1] */\n      dup2\n      mload\n      dup2\n      lt\n      tag_156\n      jumpi\n      tag_157\n      tag_102\n      jump\t// in\n    tag_157:\n    tag_156:\n      0x20\n      mul\n      0x20\n      add\n      add\n        /* \"Bitxchange.sol\":2958:2988  path[1] = uniswapRouter.WETH() */\n      swap1\n      0xffffffffffffffffffffffffffffffffffffffff\n      and\n      swap1\n      dup2\n      0xffffffffffffffffffffffffffffffffffffffff\n      and\n      dup2\n      mstore\n      pop\n      pop\n        /* \"Bitxchange.sol\":3079:3106  uint256[] memory amountsOut */\n      0x00\n        /* \"Bitxchange.sol\":3109:3122  uniswapRouter */\n      0x01\n      0x00\n      swap1\n      sload\n      swap1\n      0x0100\n      exp\n      swap1\n      div\n      0xffffffffffffffffffffffffffffffffffffffff\n      and\n        /* \"Bitxchange.sol\":3109:3136  uniswapRouter.getAmountsOut */\n      0xffffffffffffffffffffffffffffffffffffffff\n      and\n      0xd06ca61f\n        /* \"Bitxchange.sol\":3137:3143  amount */\n      dup10\n        /* \"Bitxchange.sol\":3145:3149  path */\n      dup5\n        /* \"Bitxchange.sol\":3109:3150  uniswapRouter.getAmountsOut(amount, path) */\n      mload(0x40)\n      dup4\n      0xffffffff\n      and\n      0xe0\n      shl\n      dup2\n      mstore\n      0x04\n      add\n      tag_158\n      swap3\n      swap2\n      swap1\n      tag_159\n      jump\t// in\n    tag_158:\n      0x00\n      mload(0x40)\n      dup1\n      dup4\n      sub\n      dup2\n      dup7\n      gas\n      staticcall\n      iszero\n      dup1\n      iszero\n      tag_161\n      jumpi\n      returndatasize\n      0x00\n      dup1\n      returndatacopy\n      revert(0x00, returndatasize)\n    tag_161:\n      pop\n      pop\n      pop\n      pop\n      mload(0x40)\n      returndatasize\n      0x00\n      dup3\n      returndatacopy\n      returndatasize\n      not(0x1f)\n      0x1f\n      dup3\n      add\n      and\n      dup3\n      add\n      dup1\n      0x40\n      mstore\n      pop\n      dup2\n      add\n      swap1\n      tag_162\n      swap2\n      swap1\n      tag_114\n      jump\t// in\n    tag_162:\n        /* \"Bitxchange.sol\":3079:3150  uint256[] memory amountsOut = uniswapRouter.getAmountsOut(amount, path) */\n      swap1\n      pop\n        /* \"Bitxchange.sol\":3161:3186  uint256 expectedAmountOut */\n      0x00\n        /* \"Bitxchange.sol\":3189:3199  amountsOut */\n      dup2\n        /* \"Bitxchange.sol\":3200:3201  1 */\n      0x01\n        /* \"Bitxchange.sol\":3189:3202  amountsOut[1] */\n      dup2\n      mload\n      dup2\n      lt\n      tag_163\n      jumpi\n      tag_164\n      tag_102\n      jump\t// in\n    tag_164:\n    tag_163:\n      0x20\n      mul\n      0x20\n      add\n      add\n      mload\n        /* \"Bitxchange.sol\":3161:3202  uint256 expectedAmountOut = amountsOut[1] */\n      swap1\n      pop\n        /* \"Bitxchange.sol\":3298:3303  10000 */\n      0x2710\n        /* \"Bitxchange.sol\":3286:3294  slippage */\n      dup9\n        /* \"Bitxchange.sol\":3278:3283  10000 */\n      0x2710\n        /* \"Bitxchange.sol\":3278:3294  10000 - slippage */\n      tag_165\n      swap2\n      swap1\n      tag_128\n      jump\t// in\n    tag_165:\n        /* \"Bitxchange.sol\":3257:3274  expectedAmountOut */\n      dup3\n        /* \"Bitxchange.sol\":3257:3295  expectedAmountOut * (10000 - slippage) */\n      tag_166\n      swap2\n      swap1\n      tag_118\n      jump\t// in\n    tag_166:\n        /* \"Bitxchange.sol\":3257:3303  expectedAmountOut * (10000 - slippage) / 10000 */\n      tag_167\n      swap2\n      swap1\n      tag_120\n      jump\t// in\n    tag_167:\n        /* \"Bitxchange.sol\":3242:3303  minAmountOut = expectedAmountOut * (10000 - slippage) / 10000 */\n      swap6\n      pop\n        /* \"Bitxchange.sol\":3468:3495  uint256 estimatedGasForSwap */\n      0x00\n        /* \"Bitxchange.sol\":3498:3504  221428 */\n      0x0360f4\n        /* \"Bitxchange.sol\":3468:3504  uint256 estimatedGasForSwap = 221428 */\n      swap1\n      pop\n        /* \"Bitxchange.sol\":3632:3644  userGasPrice */\n      dup8\n        /* \"Bitxchange.sol\":3610:3629  estimatedGasForSwap */\n      dup2\n        /* \"Bitxchange.sol\":3610:3644  estimatedGasForSwap * userGasPrice */\n      tag_168\n      swap2\n      swap1\n      tag_118\n      jump\t// in\n    tag_168:\n        /* \"Bitxchange.sol\":3591:3644  estimatedGasCost = estimatedGasForSwap * userGasPrice */\n      swap6\n      pop\n        /* \"Bitxchange.sol\":3665:3677  minAmountOut */\n      dup7\n        /* \"Bitxchange.sol\":3679:3695  estimatedGasCost */\n      dup7\n        /* \"Bitxchange.sol\":3697:3733  canSwap(token, amount, userGasPrice) */\n      tag_169\n        /* \"Bitxchange.sol\":3705:3710  token */\n      dup14\n        /* \"Bitxchange.sol\":3712:3718  amount */\n      dup14\n        /* \"Bitxchange.sol\":3720:3732  userGasPrice */\n      dup13\n        /* \"Bitxchange.sol\":3697:3704  canSwap */\n      tag_67\n        /* \"Bitxchange.sol\":3697:3733  canSwap(token, amount, userGasPrice) */\n      jump\t// in\n    tag_169:\n        /* \"Bitxchange.sol\":3657:3734  return (minAmountOut, estimatedGasCost, canSwap(token, amount, userGasPrice)) */\n      swap7\n      pop\n      swap7\n      pop\n      swap7\n      pop\n      pop\n      pop\n      pop\n      pop\n        /* \"Bitxchange.sol\":2692:3742  function getSwapQuote(address token, uint256 amount, uint256 slippage, uint256 userGasPrice) public view returns (uint256 minAmountOut, uint256 estimatedGasCost, bool canDoSwap) {... */\n      swap5\n      pop\n      swap5\n      pop\n      swap5\n      swap2\n      pop\n      pop\n      jump\t// out\n        /* \"Bitxchange.sol\":1473:1612  function setFeePercentage(uint256 _newFee) external onlyOwner {... */\n    tag_63:\n        /* \"@openzeppelin/contracts/access/Ownable.sol\":1531:1544  _checkOwner() */\n      tag_171\n        /* \"@openzeppelin/contracts/access/Ownable.sol\":1531:1542  _checkOwner */\n      tag_135\n        /* \"@openzeppelin/contracts/access/Ownable.sol\":1531:1544  _checkOwner() */\n      jump\t// in\n    tag_171:\n        /* \"Bitxchange.sol\":1562:1569  _newFee */\n      dup1\n        /* \"Bitxchange.sol\":1546:1559  feePercentage */\n      0x03\n        /* \"Bitxchange.sol\":1546:1569  feePercentage = _newFee */\n      dup2\n      swap1\n      sstore\n      pop\n        /* \"Bitxchange.sol\":1585:1604  FeeUpdated(_newFee) */\n      0x8c4d35e54a3f2ef1134138fd8ea3daee6a3c89e10d2665996babdf70261e2c76\n        /* \"Bitxchange.sol\":1596:1603  _newFee */\n      dup2\n        /* \"Bitxchange.sol\":1585:1604  FeeUpdated(_newFee) */\n      mload(0x40)\n      tag_173\n      swap2\n      swap1\n      tag_51\n      jump\t// in\n    tag_173:\n      mload(0x40)\n      dup1\n      swap2\n      sub\n      swap1\n      log1\n        /* \"Bitxchange.sol\":1473:1612  function setFeePercentage(uint256 _newFee) external onlyOwner {... */\n      pop\n      jump\t// out\n        /* \"Bitxchange.sol\":1909:2684  function canSwap(address token, uint256 amountIn, uint256 userGasPrice) public view returns (bool) {... */\n    tag_67:\n        /* \"Bitxchange.sol\":2002:2006  bool */\n      0x00\n        /* \"Bitxchange.sol\":2019:2040  address[] memory path */\n      dup1\n        /* \"Bitxchange.sol\":2057:2058  2 */\n      0x02\n        /* \"Bitxchange.sol\":2043:2059  new address[](2) */\n      0xffffffffffffffff\n      dup2\n      gt\n      iszero\n      tag_175\n      jumpi\n      tag_176\n      tag_98\n      jump\t// in\n    tag_176:\n    tag_175:\n      mload(0x40)\n      swap1\n      dup1\n      dup3\n      mstore\n      dup1\n      0x20\n      mul\n      0x20\n      add\n      dup3\n      add\n      0x40\n      mstore\n      dup1\n      iszero\n      tag_177\n      jumpi\n      dup2\n      0x20\n      add\n      0x20\n      dup3\n      mul\n      dup1\n      calldatasize\n      dup4\n      calldatacopy\n      dup1\n      dup3\n      add\n      swap2\n      pop\n      pop\n      swap1\n      pop\n    tag_177:\n      pop\n        /* \"Bitxchange.sol\":2019:2059  address[] memory path = new address[](2) */\n      swap1\n      pop\n        /* \"Bitxchange.sol\":2080:2085  token */\n      dup5\n        /* \"Bitxchange.sol\":2070:2074  path */\n      dup2\n        /* \"Bitxchange.sol\":2075:2076  0 */\n      0x00\n        /* \"Bitxchange.sol\":2070:2077  path[0] */\n      dup2\n      mload\n      dup2\n      lt\n      tag_178\n      jumpi\n      tag_179\n      tag_102\n      jump\t// in\n    tag_179:\n    tag_178:\n      0x20\n      mul\n      0x20\n      add\n      add\n        /* \"Bitxchange.sol\":2070:2085  path[0] = token */\n      swap1\n      0xffffffffffffffffffffffffffffffffffffffff\n      and\n      swap1\n      dup2\n      0xffffffffffffffffffffffffffffffffffffffff\n      and\n      dup2\n      mstore\n      pop\n      pop\n        /* \"Bitxchange.sol\":2106:2119  uniswapRouter */\n      0x01\n      0x00\n      swap1\n      sload\n      swap1\n      0x0100\n      exp\n      swap1\n      div\n      0xffffffffffffffffffffffffffffffffffffffff\n      and\n        /* \"Bitxchange.sol\":2106:2124  uniswapRouter.WETH */\n      0xffffffffffffffffffffffffffffffffffffffff\n      and\n      0xad5c4648\n        /* \"Bitxchange.sol\":2106:2126  uniswapRouter.WETH() */\n      mload(0x40)\n      dup2\n      0xffffffff\n      and\n      0xe0\n      shl\n      dup2\n      mstore\n      0x04\n      add\n      0x20\n      mload(0x40)\n      dup1\n      dup4\n      sub\n      dup2\n      dup7\n      gas\n      staticcall\n      iszero\n      dup1\n      iszero\n      tag_181\n      jumpi\n      returndatasize\n      0x00\n      dup1\n      returndatacopy\n      revert(0x00, returndatasize)\n    tag_181:\n      pop\n      pop\n      pop\n      pop\n      mload(0x40)\n      returndatasize\n      not(0x1f)\n      0x1f\n      dup3\n      add\n      and\n      dup3\n      add\n      dup1\n      0x40\n      mstore\n      pop\n      dup2\n      add\n      swap1\n      tag_182\n      swap2\n      swap1\n      tag_106\n      jump\t// in\n    tag_182:\n        /* \"Bitxchange.sol\":2096:2100  path */\n      dup2\n        /* \"Bitxchange.sol\":2101:2102  1 */\n      0x01\n        /* \"Bitxchange.sol\":2096:2103  path[1] */\n      dup2\n      mload\n      dup2\n      lt\n      tag_183\n      jumpi\n      tag_184\n      tag_102\n      jump\t// in\n    tag_184:\n    tag_183:\n      0x20\n      mul\n      0x20\n      add\n      add\n        /* \"Bitxchange.sol\":2096:2126  path[1] = uniswapRouter.WETH() */\n      swap1\n      0xffffffffffffffffffffffffffffffffffffffff\n      and\n      swap1\n      dup2\n      0xffffffffffffffffffffffffffffffffffffffff\n      and\n      dup2\n      mstore\n      pop\n      pop\n        /* \"Bitxchange.sol\":2198:2225  uint256[] memory amountsOut */\n      0x00\n        /* \"Bitxchange.sol\":2228:2241  uniswapRouter */\n      0x01\n      0x00\n      swap1\n      sload\n      swap1\n      0x0100\n      exp\n      swap1\n      div\n      0xffffffffffffffffffffffffffffffffffffffff\n      and\n        /* \"Bitxchange.sol\":2228:2255  uniswapRouter.getAmountsOut */\n      0xffffffffffffffffffffffffffffffffffffffff\n      and\n      0xd06ca61f\n        /* \"Bitxchange.sol\":2256:2264  amountIn */\n      dup7\n        /* \"Bitxchange.sol\":2266:2270  path */\n      dup5\n        /* \"Bitxchange.sol\":2228:2271  uniswapRouter.getAmountsOut(amountIn, path) */\n      mload(0x40)\n      dup4\n      0xffffffff\n      and\n      0xe0\n      shl\n      dup2\n      mstore\n      0x04\n      add\n      tag_185\n      swap3\n      swap2\n      swap1\n      tag_159\n      jump\t// in\n    tag_185:\n      0x00\n      mload(0x40)\n      dup1\n      dup4\n      sub\n      dup2\n      dup7\n      gas\n      staticcall\n      iszero\n      dup1\n      iszero\n      tag_187\n      jumpi\n      returndatasize\n      0x00\n      dup1\n      returndatacopy\n      revert(0x00, returndatasize)\n    tag_187:\n      pop\n      pop\n      pop\n      pop\n      mload(0x40)\n      returndatasize\n      0x00\n      dup3\n      returndatacopy\n      returndatasize\n      not(0x1f)\n      0x1f\n      dup3\n      add\n      and\n      dup3\n      add\n      dup1\n      0x40\n      mstore\n      pop\n      dup2\n      add\n      swap1\n      tag_188\n      swap2\n      swap1\n      tag_114\n      jump\t// in\n    tag_188:\n        /* \"Bitxchange.sol\":2198:2271  uint256[] memory amountsOut = uniswapRouter.getAmountsOut(amountIn, path) */\n      swap1\n      pop\n        /* \"Bitxchange.sol\":2303:2304  0 */\n      0x00\n        /* \"Bitxchange.sol\":2286:2296  amountsOut */\n      dup2\n        /* \"Bitxchange.sol\":2297:2298  1 */\n      0x01\n        /* \"Bitxchange.sol\":2286:2299  amountsOut[1] */\n      dup2\n      mload\n      dup2\n      lt\n      tag_189\n      jumpi\n      tag_190\n      tag_102\n      jump\t// in\n    tag_190:\n    tag_189:\n      0x20\n      mul\n      0x20\n      add\n      add\n      mload\n        /* \"Bitxchange.sol\":2286:2304  amountsOut[1] == 0 */\n      sub\n        /* \"Bitxchange.sol\":2282:2345  if (amountsOut[1] == 0) {... */\n      tag_191\n      jumpi\n        /* \"Bitxchange.sol\":2328:2333  false */\n      0x00\n        /* \"Bitxchange.sol\":2321:2333  return false */\n      swap3\n      pop\n      pop\n      pop\n      jump(tag_174)\n        /* \"Bitxchange.sol\":2282:2345  if (amountsOut[1] == 0) {... */\n    tag_191:\n        /* \"Bitxchange.sol\":2431:2458  uint256 estimatedGasForSwap */\n      0x00\n        /* \"Bitxchange.sol\":2461:2467  221428 */\n      0x0360f4\n        /* \"Bitxchange.sol\":2431:2467  uint256 estimatedGasForSwap = 221428 */\n      swap1\n      pop\n        /* \"Bitxchange.sol\":2503:2527  uint256 estimatedGasCost */\n      0x00\n        /* \"Bitxchange.sol\":2552:2564  userGasPrice */\n      dup6\n        /* \"Bitxchange.sol\":2530:2549  estimatedGasForSwap */\n      dup3\n        /* \"Bitxchange.sol\":2530:2564  estimatedGasForSwap * userGasPrice */\n      tag_192\n      swap2\n      swap1\n      tag_118\n      jump\t// in\n    tag_192:\n        /* \"Bitxchange.sol\":2503:2564  uint256 estimatedGasCost = estimatedGasForSwap * userGasPrice */\n      swap1\n      pop\n        /* \"Bitxchange.sol\":2599:2609  amountsOut */\n      dup3\n        /* \"Bitxchange.sol\":2610:2611  1 */\n      0x01\n        /* \"Bitxchange.sol\":2599:2612  amountsOut[1] */\n      dup2\n      mload\n      dup2\n      lt\n      tag_193\n      jumpi\n      tag_194\n      tag_102\n      jump\t// in\n    tag_194:\n    tag_193:\n      0x20\n      mul\n      0x20\n      add\n      add\n      mload\n        /* \"Bitxchange.sol\":2579:2595  estimatedGasCost */\n      dup2\n        /* \"Bitxchange.sol\":2579:2612  estimatedGasCost >= amountsOut[1] */\n      lt\n        /* \"Bitxchange.sol\":2575:2653  if (estimatedGasCost >= amountsOut[1]) {... */\n      tag_195\n      jumpi\n        /* \"Bitxchange.sol\":2636:2641  false */\n      0x00\n        /* \"Bitxchange.sol\":2629:2641  return false */\n      swap5\n      pop\n      pop\n      pop\n      pop\n      pop\n      jump(tag_174)\n        /* \"Bitxchange.sol\":2575:2653  if (estimatedGasCost >= amountsOut[1]) {... */\n    tag_195:\n        /* \"Bitxchange.sol\":2672:2676  true */\n      0x01\n        /* \"Bitxchange.sol\":2665:2676  return true */\n      swap5\n      pop\n      pop\n      pop\n      pop\n      pop\n        /* \"Bitxchange.sol\":1909:2684  function canSwap(address token, uint256 amountIn, uint256 userGasPrice) public view returns (bool) {... */\n    tag_174:\n      swap4\n      swap3\n      pop\n      pop\n      pop\n      jump\t// out\n        /* \"Bitxchange.sol\":3754:5924  function swapTokensForETH(address token, uint256 amount, uint256 minAmountOut) external onlyOwner {... */\n    tag_73:\n        /* \"@openzeppelin/contracts/access/Ownable.sol\":1531:1544  _checkOwner() */\n      tag_197\n        /* \"@openzeppelin/contracts/access/Ownable.sol\":1531:1542  _checkOwner */\n      tag_135\n        /* \"@openzeppelin/contracts/access/Ownable.sol\":1531:1544  _checkOwner() */\n      jump\t// in\n    tag_197:\n        /* \"Bitxchange.sol\":3924:3951  uint256 estimatedGasForSwap */\n      0x00\n        /* \"Bitxchange.sol\":3954:3960  221428 */\n      0x0360f4\n        /* \"Bitxchange.sol\":3924:3960  uint256 estimatedGasForSwap = 221428 */\n      swap1\n      pop\n        /* \"Bitxchange.sol\":3996:4020  uint256 estimatedGasCost */\n      0x00\n        /* \"Bitxchange.sol\":4045:4056  tx.gasprice */\n      gasprice\n        /* \"Bitxchange.sol\":4023:4042  estimatedGasForSwap */\n      dup3\n        /* \"Bitxchange.sol\":4023:4056  estimatedGasForSwap * tx.gasprice */\n      tag_199\n      swap2\n      swap1\n      tag_118\n      jump\t// in\n    tag_199:\n        /* \"Bitxchange.sol\":3996:4056  uint256 estimatedGasCost = estimatedGasForSwap * tx.gasprice */\n      swap1\n      pop\n        /* \"Bitxchange.sol\":4094:4106  minAmountOut */\n      dup3\n        /* \"Bitxchange.sol\":4075:4091  estimatedGasCost */\n      dup2\n        /* \"Bitxchange.sol\":4075:4106  estimatedGasCost < minAmountOut */\n      lt\n        /* \"Bitxchange.sol\":4067:4150  require(estimatedGasCost < minAmountOut, \"Estimated gas cost exceeds minAmountOut\") */\n      tag_200\n      jumpi\n      mload(0x40)\n      0x08c379a000000000000000000000000000000000000000000000000000000000\n      dup2\n      mstore\n      0x04\n      add\n      tag_201\n      swap1\n      tag_202\n      jump\t// in\n    tag_201:\n      mload(0x40)\n      dup1\n      swap2\n      sub\n      swap1\n      revert\n    tag_200:\n        /* \"Bitxchange.sol\":4169:4205  canSwap(token, amount,  tx.gasprice) */\n      tag_203\n        /* \"Bitxchange.sol\":4177:4182  token */\n      dup6\n        /* \"Bitxchange.sol\":4184:4190  amount */\n      dup6\n        /* \"Bitxchange.sol\":4193:4204  tx.gasprice */\n      gasprice\n        /* \"Bitxchange.sol\":4169:4176  canSwap */\n      tag_67\n        /* \"Bitxchange.sol\":4169:4205  canSwap(token, amount,  tx.gasprice) */\n      jump\t// in\n    tag_203:\n        /* \"Bitxchange.sol\":4161:4231  require(canSwap(token, amount,  tx.gasprice), \"Swap Expected to Fail\") */\n      tag_204\n      jumpi\n      mload(0x40)\n      0x08c379a000000000000000000000000000000000000000000000000000000000\n      dup2\n      mstore\n      0x04\n      add\n      tag_205\n      swap1\n      tag_206\n      jump\t// in\n    tag_205:\n      mload(0x40)\n      dup1\n      swap2\n      sub\n      swap1\n      revert\n    tag_204:\n        /* \"Bitxchange.sol\":4246:4267  address[] memory path */\n      0x00\n        /* \"Bitxchange.sol\":4284:4285  2 */\n      0x02\n        /* \"Bitxchange.sol\":4270:4286  new address[](2) */\n      0xffffffffffffffff\n      dup2\n      gt\n      iszero\n      tag_207\n      jumpi\n      tag_208\n      tag_98\n      jump\t// in\n    tag_208:\n    tag_207:\n      mload(0x40)\n      swap1\n      dup1\n      dup3\n      mstore\n      dup1\n      0x20\n      mul\n      0x20\n      add\n      dup3\n      add\n      0x40\n      mstore\n      dup1\n      iszero\n      tag_209\n      jumpi\n      dup2\n      0x20\n      add\n      0x20\n      dup3\n      mul\n      dup1\n      calldatasize\n      dup4\n      calldatacopy\n      dup1\n      dup3\n      add\n      swap2\n      pop\n      pop\n      swap1\n      pop\n    tag_209:\n      pop\n        /* \"Bitxchange.sol\":4246:4286  address[] memory path = new address[](2) */\n      swap1\n      pop\n        /* \"Bitxchange.sol\":4307:4312  token */\n      dup6\n        /* \"Bitxchange.sol\":4297:4301  path */\n      dup2\n        /* \"Bitxchange.sol\":4302:4303  0 */\n      0x00\n        /* \"Bitxchange.sol\":4297:4304  path[0] */\n      dup2\n      mload\n      dup2\n      lt\n      tag_210\n      jumpi\n      tag_211\n      tag_102\n      jump\t// in\n    tag_211:\n    tag_210:\n      0x20\n      mul\n      0x20\n      add\n      add\n        /* \"Bitxchange.sol\":4297:4312  path[0] = token */\n      swap1\n      0xffffffffffffffffffffffffffffffffffffffff\n      and\n      swap1\n      dup2\n      0xffffffffffffffffffffffffffffffffffffffff\n      and\n      dup2\n      mstore\n      pop\n      pop\n        /* \"Bitxchange.sol\":4333:4346  uniswapRouter */\n      0x01\n      0x00\n      swap1\n      sload\n      swap1\n      0x0100\n      exp\n      swap1\n      div\n      0xffffffffffffffffffffffffffffffffffffffff\n      and\n        /* \"Bitxchange.sol\":4333:4351  uniswapRouter.WETH */\n      0xffffffffffffffffffffffffffffffffffffffff\n      and\n      0xad5c4648\n        /* \"Bitxchange.sol\":4333:4353  uniswapRouter.WETH() */\n      mload(0x40)\n      dup2\n      0xffffffff\n      and\n      0xe0\n      shl\n      dup2\n      mstore\n      0x04\n      add\n      0x20\n      mload(0x40)\n      dup1\n      dup4\n      sub\n      dup2\n      dup7\n      gas\n      staticcall\n      iszero\n      dup1\n      iszero\n      tag_213\n      jumpi\n      returndatasize\n      0x00\n      dup1\n      returndatacopy\n      revert(0x00, returndatasize)\n    tag_213:\n      pop\n      pop\n      pop\n      pop\n      mload(0x40)\n      returndatasize\n      not(0x1f)\n      0x1f\n      dup3\n      add\n      and\n      dup3\n      add\n      dup1\n      0x40\n      mstore\n      pop\n      dup2\n      add\n      swap1\n      tag_214\n      swap2\n      swap1\n      tag_106\n      jump\t// in\n    tag_214:\n        /* \"Bitxchange.sol\":4323:4327  path */\n      dup2\n        /* \"Bitxchange.sol\":4328:4329  1 */\n      0x01\n        /* \"Bitxchange.sol\":4323:4330  path[1] */\n      dup2\n      mload\n      dup2\n      lt\n      tag_215\n      jumpi\n      tag_216\n      tag_102\n      jump\t// in\n    tag_216:\n    tag_215:\n      0x20\n      mul\n      0x20\n      add\n      add\n        /* \"Bitxchange.sol\":4323:4353  path[1] = uniswapRouter.WETH() */\n      swap1\n      0xffffffffffffffffffffffffffffffffffffffff\n      and\n      swap1\n      dup2\n      0xffffffffffffffffffffffffffffffffffffffff\n      and\n      dup2\n      mstore\n      pop\n      pop\n        /* \"Bitxchange.sol\":4444:4471  uint256[] memory amountsOut */\n      0x00\n        /* \"Bitxchange.sol\":4474:4487  uniswapRouter */\n      0x01\n      0x00\n      swap1\n      sload\n      swap1\n      0x0100\n      exp\n      swap1\n      div\n      0xffffffffffffffffffffffffffffffffffffffff\n      and\n        /* \"Bitxchange.sol\":4474:4501  uniswapRouter.getAmountsOut */\n      0xffffffffffffffffffffffffffffffffffffffff\n      and\n      0xd06ca61f\n        /* \"Bitxchange.sol\":4502:4508  amount */\n      dup8\n        /* \"Bitxchange.sol\":4510:4514  path */\n      dup5\n        /* \"Bitxchange.sol\":4474:4515  uniswapRouter.getAmountsOut(amount, path) */\n      mload(0x40)\n      dup4\n      0xffffffff\n      and\n      0xe0\n      shl\n      dup2\n      mstore\n      0x04\n      add\n      tag_217\n      swap3\n      swap2\n      swap1\n      tag_159\n      jump\t// in\n    tag_217:\n      0x00\n      mload(0x40)\n      dup1\n      dup4\n      sub\n      dup2\n      dup7\n      gas\n      staticcall\n      iszero\n      dup1\n      iszero\n      tag_219\n      jumpi\n      returndatasize\n      0x00\n      dup1\n      returndatacopy\n      revert(0x00, returndatasize)\n    tag_219:\n      pop\n      pop\n      pop\n      pop\n      mload(0x40)\n      returndatasize\n      0x00\n      dup3\n      returndatacopy\n      returndatasize\n      not(0x1f)\n      0x1f\n      dup3\n      add\n      and\n      dup3\n      add\n      dup1\n      0x40\n      mstore\n      pop\n      dup2\n      add\n      swap1\n      tag_220\n      swap2\n      swap1\n      tag_114\n      jump\t// in\n    tag_220:\n        /* \"Bitxchange.sol\":4444:4515  uint256[] memory amountsOut = uniswapRouter.getAmountsOut(amount, path) */\n      swap1\n      pop\n        /* \"Bitxchange.sol\":4526:4551  uint256 expectedAmountOut */\n      0x00\n        /* \"Bitxchange.sol\":4554:4564  amountsOut */\n      dup2\n        /* \"Bitxchange.sol\":4565:4566  1 */\n      0x01\n        /* \"Bitxchange.sol\":4554:4567  amountsOut[1] */\n      dup2\n      mload\n      dup2\n      lt\n      tag_221\n      jumpi\n      tag_222\n      tag_102\n      jump\t// in\n    tag_222:\n    tag_221:\n      0x20\n      mul\n      0x20\n      add\n      add\n      mload\n        /* \"Bitxchange.sol\":4526:4567  uint256 expectedAmountOut = amountsOut[1] */\n      swap1\n      pop\n        /* \"Bitxchange.sol\":4670:4682  minAmountOut */\n      dup6\n        /* \"Bitxchange.sol\":4649:4666  expectedAmountOut */\n      dup2\n        /* \"Bitxchange.sol\":4649:4682  expectedAmountOut >= minAmountOut */\n      lt\n      iszero\n        /* \"Bitxchange.sol\":4641:4729  require(expectedAmountOut >= minAmountOut, \"Expected amount less than minimum required\") */\n      tag_223\n      jumpi\n      mload(0x40)\n      0x08c379a000000000000000000000000000000000000000000000000000000000\n      dup2\n      mstore\n      0x04\n      add\n      tag_224\n      swap1\n      tag_225\n      jump\t// in\n    tag_224:\n      mload(0x40)\n      dup1\n      swap2\n      sub\n      swap1\n      revert\n    tag_223:\n        /* \"Bitxchange.sol\":4778:4783  token */\n      dup8\n        /* \"Bitxchange.sol\":4771:4797  IERC20(token).transferFrom */\n      0xffffffffffffffffffffffffffffffffffffffff\n      and\n      0x23b872dd\n        /* \"Bitxchange.sol\":4798:4808  msg.sender */\n      caller\n        /* \"Bitxchange.sol\":4818:4822  this */\n      address\n        /* \"Bitxchange.sol\":4825:4831  amount */\n      dup11\n        /* \"Bitxchange.sol\":4771:4832  IERC20(token).transferFrom(msg.sender, address(this), amount) */\n      mload(0x40)\n      dup5\n      0xffffffff\n      and\n      0xe0\n      shl\n      dup2\n      mstore\n      0x04\n      add\n      tag_226\n      swap4\n      swap3\n      swap2\n      swap1\n      tag_86\n      jump\t// in\n    tag_226:\n      0x20\n      mload(0x40)\n      dup1\n      dup4\n      sub\n      dup2\n      0x00\n      dup8\n      gas\n      call\n      iszero\n      dup1\n      iszero\n      tag_228\n      jumpi\n      returndatasize\n      0x00\n      dup1\n      returndatacopy\n      revert(0x00, returndatasize)\n    tag_228:\n      pop\n      pop\n      pop\n      pop\n      mload(0x40)\n      returndatasize\n      not(0x1f)\n      0x1f\n      dup3\n      add\n      and\n      dup3\n      add\n      dup1\n      0x40\n      mstore\n      pop\n      dup2\n      add\n      swap1\n      tag_229\n      swap2\n      swap1\n      tag_90\n      jump\t// in\n    tag_229:\n      pop\n        /* \"Bitxchange.sol\":4850:4855  token */\n      dup8\n        /* \"Bitxchange.sol\":4843:4864  IERC20(token).approve */\n      0xffffffffffffffffffffffffffffffffffffffff\n      and\n      0x095ea7b3\n        /* \"Bitxchange.sol\":4873:4886  uniswapRouter */\n      0x01\n      0x00\n      swap1\n      sload\n      swap1\n      0x0100\n      exp\n      swap1\n      div\n      0xffffffffffffffffffffffffffffffffffffffff\n      and\n        /* \"Bitxchange.sol\":4889:4895  amount */\n      dup10\n        /* \"Bitxchange.sol\":4843:4896  IERC20(token).approve(address(uniswapRouter), amount) */\n      mload(0x40)\n      dup4\n      0xffffffff\n      and\n      0xe0\n      shl\n      dup2\n      mstore\n      0x04\n      add\n      tag_230\n      swap3\n      swap2\n      swap1\n      tag_92\n      jump\t// in\n    tag_230:\n      0x20\n      mload(0x40)\n      dup1\n      dup4\n      sub\n      dup2\n      0x00\n      dup8\n      gas\n      call\n      iszero\n      dup1\n      iszero\n      tag_232\n      jumpi\n      returndatasize\n      0x00\n      dup1\n      returndatacopy\n      revert(0x00, returndatasize)\n    tag_232:\n      pop\n      pop\n      pop\n      pop\n      mload(0x40)\n      returndatasize\n      not(0x1f)\n      0x1f\n      dup3\n      add\n      and\n      dup3\n      add\n      dup1\n      0x40\n      mstore\n      pop\n      dup2\n      add\n      swap1\n      tag_233\n      swap2\n      swap1\n      tag_90\n      jump\t// in\n    tag_233:\n      pop\n        /* \"Bitxchange.sol\":4909:4933  uint256[] memory amounts */\n      0x00\n        /* \"Bitxchange.sol\":4936:4949  uniswapRouter */\n      0x01\n      0x00\n      swap1\n      sload\n      swap1\n      0x0100\n      exp\n      swap1\n      div\n      0xffffffffffffffffffffffffffffffffffffffff\n      and\n        /* \"Bitxchange.sol\":4936:4971  uniswapRouter.swapExactTokensForETH */\n      0xffffffffffffffffffffffffffffffffffffffff\n      and\n      0x18cbafe5\n        /* \"Bitxchange.sol\":4972:4978  amount */\n      dup10\n        /* \"Bitxchange.sol\":4980:4992  minAmountOut */\n      dup10\n        /* \"Bitxchange.sol\":4994:4998  path */\n      dup8\n        /* \"Bitxchange.sol\":5008:5012  this */\n      address\n        /* \"Bitxchange.sol\":5015:5030  block.timestamp */\n      timestamp\n        /* \"Bitxchange.sol\":4936:5031  uniswapRouter.swapExactTokensForETH(amount, minAmountOut, path, address(this), block.timestamp) */\n      mload(0x40)\n      dup7\n      0xffffffff\n      and\n      0xe0\n      shl\n      dup2\n      mstore\n      0x04\n      add\n      tag_234\n      swap6\n      swap5\n      swap4\n      swap3\n      swap2\n      swap1\n      tag_110\n      jump\t// in\n    tag_234:\n      0x00\n      mload(0x40)\n      dup1\n      dup4\n      sub\n      dup2\n      0x00\n      dup8\n      gas\n      call\n      iszero\n      dup1\n      iszero\n      tag_236\n      jumpi\n      returndatasize\n      0x00\n      dup1\n      returndatacopy\n      revert(0x00, returndatasize)\n    tag_236:\n      pop\n      pop\n      pop\n      pop\n      mload(0x40)\n      returndatasize\n      0x00\n      dup3\n      returndatacopy\n      returndatasize\n      not(0x1f)\n      0x1f\n      dup3\n      add\n      and\n      dup3\n      add\n      dup1\n      0x40\n      mstore\n      pop\n      dup2\n      add\n      swap1\n      tag_237\n      swap2\n      swap1\n      tag_114\n      jump\t// in\n    tag_237:\n        /* \"Bitxchange.sol\":4909:5031  uint256[] memory amounts = uniswapRouter.swapExactTokensForETH(amount, minAmountOut, path, address(this), block.timestamp) */\n      swap1\n      pop\n        /* \"Bitxchange.sol\":5042:5061  uint256 receivedETH */\n      0x00\n        /* \"Bitxchange.sol\":5064:5071  amounts */\n      dup2\n        /* \"Bitxchange.sol\":5072:5073  1 */\n      0x01\n        /* \"Bitxchange.sol\":5064:5074  amounts[1] */\n      dup2\n      mload\n      dup2\n      lt\n      tag_238\n      jumpi\n      tag_239\n      tag_102\n      jump\t// in\n    tag_239:\n    tag_238:\n      0x20\n      mul\n      0x20\n      add\n      add\n      mload\n        /* \"Bitxchange.sol\":5042:5074  uint256 receivedETH = amounts[1] */\n      swap1\n      pop\n        /* \"Bitxchange.sol\":5147:5166  uint256 feeFreeZone */\n      0x00\n        /* \"Bitxchange.sol\":5189:5201  minAmountOut */\n      dup9\n        /* \"Bitxchange.sol\":5169:5186  expectedAmountOut */\n      dup5\n        /* \"Bitxchange.sol\":5169:5201  expectedAmountOut > minAmountOut */\n      gt\n        /* \"Bitxchange.sol\":5169:5240  expectedAmountOut > minAmountOut ? expectedAmountOut - minAmountOut : 0 */\n      tag_240\n      jumpi\n        /* \"Bitxchange.sol\":5239:5240  0 */\n      0x00\n        /* \"Bitxchange.sol\":5169:5240  expectedAmountOut > minAmountOut ? expectedAmountOut - minAmountOut : 0 */\n      jump(tag_241)\n    tag_240:\n        /* \"Bitxchange.sol\":5224:5236  minAmountOut */\n      dup9\n        /* \"Bitxchange.sol\":5204:5221  expectedAmountOut */\n      dup5\n        /* \"Bitxchange.sol\":5204:5236  expectedAmountOut - minAmountOut */\n      tag_242\n      swap2\n      swap1\n      tag_128\n      jump\t// in\n    tag_242:\n        /* \"Bitxchange.sol\":5169:5240  expectedAmountOut > minAmountOut ? expectedAmountOut - minAmountOut : 0 */\n    tag_241:\n        /* \"Bitxchange.sol\":5147:5240  uint256 feeFreeZone = expectedAmountOut > minAmountOut ? expectedAmountOut - minAmountOut : 0 */\n      swap1\n      pop\n        /* \"Bitxchange.sol\":5251:5271  uint256 excessAmount */\n      0x00\n        /* \"Bitxchange.sol\":5288:5305  expectedAmountOut */\n      dup5\n        /* \"Bitxchange.sol\":5274:5285  receivedETH */\n      dup4\n        /* \"Bitxchange.sol\":5274:5305  receivedETH > expectedAmountOut */\n      gt\n        /* \"Bitxchange.sol\":5274:5343  receivedETH > expectedAmountOut ? receivedETH - expectedAmountOut : 0 */\n      tag_243\n      jumpi\n        /* \"Bitxchange.sol\":5342:5343  0 */\n      0x00\n        /* \"Bitxchange.sol\":5274:5343  receivedETH > expectedAmountOut ? receivedETH - expectedAmountOut : 0 */\n      jump(tag_244)\n    tag_243:\n        /* \"Bitxchange.sol\":5322:5339  expectedAmountOut */\n      dup5\n        /* \"Bitxchange.sol\":5308:5319  receivedETH */\n      dup4\n        /* \"Bitxchange.sol\":5308:5339  receivedETH - expectedAmountOut */\n      tag_245\n      swap2\n      swap1\n      tag_128\n      jump\t// in\n    tag_245:\n        /* \"Bitxchange.sol\":5274:5343  receivedETH > expectedAmountOut ? receivedETH - expectedAmountOut : 0 */\n    tag_244:\n        /* \"Bitxchange.sol\":5251:5343  uint256 excessAmount = receivedETH > expectedAmountOut ? receivedETH - expectedAmountOut : 0 */\n      swap1\n      pop\n        /* \"Bitxchange.sol\":5395:5411  uint256 totalFee */\n      0x00\n        /* \"Bitxchange.sol\":5511:5514  100 */\n      0x64\n        /* \"Bitxchange.sol\":5505:5507  40 */\n      0x28\n        /* \"Bitxchange.sol\":5490:5502  excessAmount */\n      dup4\n        /* \"Bitxchange.sol\":5490:5507  excessAmount * 40 */\n      tag_246\n      swap2\n      swap1\n      tag_118\n      jump\t// in\n    tag_246:\n        /* \"Bitxchange.sol\":5489:5514  (excessAmount * 40) / 100 */\n      tag_247\n      swap2\n      swap1\n      tag_120\n      jump\t// in\n    tag_247:\n        /* \"Bitxchange.sol\":5479:5484  10000 */\n      0x2710\n        /* \"Bitxchange.sol\":5462:5475  feePercentage */\n      sload(0x03)\n        /* \"Bitxchange.sol\":5446:5458  excessAmount */\n      dup5\n        /* \"Bitxchange.sol\":5432:5443  feeFreeZone */\n      dup7\n        /* \"Bitxchange.sol\":5418:5429  receivedETH */\n      dup9\n        /* \"Bitxchange.sol\":5418:5443  receivedETH - feeFreeZone */\n      tag_248\n      swap2\n      swap1\n      tag_128\n      jump\t// in\n    tag_248:\n        /* \"Bitxchange.sol\":5418:5458  receivedETH - feeFreeZone - excessAmount */\n      tag_249\n      swap2\n      swap1\n      tag_128\n      jump\t// in\n    tag_249:\n        /* \"Bitxchange.sol\":5417:5475  (receivedETH - feeFreeZone - excessAmount) * feePercentage */\n      tag_250\n      swap2\n      swap1\n      tag_118\n      jump\t// in\n    tag_250:\n        /* \"Bitxchange.sol\":5416:5484  ((receivedETH - feeFreeZone - excessAmount) * feePercentage) / 10000 */\n      tag_251\n      swap2\n      swap1\n      tag_120\n      jump\t// in\n    tag_251:\n        /* \"Bitxchange.sol\":5414:5514  ( ((receivedETH - feeFreeZone - excessAmount) * feePercentage) / 10000)  + (excessAmount * 40) / 100 */\n      tag_252\n      swap2\n      swap1\n      tag_253\n      jump\t// in\n    tag_252:\n        /* \"Bitxchange.sol\":5395:5514  uint256 totalFee = ( ((receivedETH - feeFreeZone - excessAmount) * feePercentage) / 10000)  + (excessAmount * 40) / 100 */\n      swap1\n      pop\n        /* \"Bitxchange.sol\":5612:5621  rewardPot */\n      0x02\n      0x00\n      swap1\n      sload\n      swap1\n      0x0100\n      exp\n      swap1\n      div\n      0xffffffffffffffffffffffffffffffffffffffff\n      and\n        /* \"Bitxchange.sol\":5612:5636  rewardPot.addToRewardPot */\n      0xffffffffffffffffffffffffffffffffffffffff\n      and\n      0x099da9e9\n        /* \"Bitxchange.sol\":5655:5658  100 */\n      0x64\n        /* \"Bitxchange.sol\":5649:5651  90 */\n      0x5a\n        /* \"Bitxchange.sol\":5638:5646  totalFee */\n      dup5\n        /* \"Bitxchange.sol\":5638:5651  totalFee * 90 */\n      tag_254\n      swap2\n      swap1\n      tag_118\n      jump\t// in\n    tag_254:\n        /* \"Bitxchange.sol\":5637:5658  (totalFee * 90) / 100 */\n      tag_255\n      swap2\n      swap1\n      tag_120\n      jump\t// in\n    tag_255:\n        /* \"Bitxchange.sol\":5612:5659  rewardPot.addToRewardPot((totalFee * 90) / 100) */\n      mload(0x40)\n      dup3\n      0xffffffff\n      and\n      0xe0\n      shl\n      dup2\n      mstore\n      0x04\n      add\n      tag_256\n      swap2\n      swap1\n      tag_51\n      jump\t// in\n    tag_256:\n      0x00\n      mload(0x40)\n      dup1\n      dup4\n      sub\n      dup2\n      0x00\n      dup8\n      dup1\n      extcodesize\n      iszero\n      dup1\n      iszero\n      tag_257\n      jumpi\n      0x00\n      dup1\n      revert\n    tag_257:\n      pop\n      gas\n      call\n      iszero\n      dup1\n      iszero\n      tag_259\n      jumpi\n      returndatasize\n      0x00\n      dup1\n      returndatacopy\n      revert(0x00, returndatasize)\n    tag_259:\n      pop\n      pop\n      pop\n      pop\n        /* \"Bitxchange.sol\":5797:5807  msg.sender */\n      caller\n        /* \"Bitxchange.sol\":5789:5817  payable(msg.sender).transfer */\n      0xffffffffffffffffffffffffffffffffffffffff\n      and\n        /* \"Bitxchange.sol\":5789:5841  payable(msg.sender).transfer(receivedETH - totalFee) */\n      0x08fc\n        /* \"Bitxchange.sol\":5832:5840  totalFee */\n      dup3\n        /* \"Bitxchange.sol\":5818:5829  receivedETH */\n      dup7\n        /* \"Bitxchange.sol\":5818:5840  receivedETH - totalFee */\n      tag_260\n      swap2\n      swap1\n      tag_128\n      jump\t// in\n    tag_260:\n        /* \"Bitxchange.sol\":5789:5841  payable(msg.sender).transfer(receivedETH - totalFee) */\n      swap1\n      dup2\n      iszero\n      mul\n      swap1\n      mload(0x40)\n      0x00\n      mload(0x40)\n      dup1\n      dup4\n      sub\n      dup2\n      dup6\n      dup9\n      dup9\n      call\n      swap4\n      pop\n      pop\n      pop\n      pop\n      iszero\n      dup1\n      iszero\n      tag_262\n      jumpi\n      returndatasize\n      0x00\n      dup1\n      returndatacopy\n      revert(0x00, returndatasize)\n    tag_262:\n      pop\n        /* \"Bitxchange.sol\":5874:5884  msg.sender */\n      caller\n        /* \"Bitxchange.sol\":5859:5906  SwapSuccessful(msg.sender, amount, receivedETH) */\n      0xffffffffffffffffffffffffffffffffffffffff\n      and\n      0xd0dcb5d6ccbc65558941eda1d0add99921923cc1868a41bbf8d224258a21396d\n        /* \"Bitxchange.sol\":5886:5892  amount */\n      dup14\n        /* \"Bitxchange.sol\":5894:5905  receivedETH */\n      dup7\n        /* \"Bitxchange.sol\":5859:5906  SwapSuccessful(msg.sender, amount, receivedETH) */\n      mload(0x40)\n      tag_263\n      swap3\n      swap2\n      swap1\n      tag_132\n      jump\t// in\n    tag_263:\n      mload(0x40)\n      dup1\n      swap2\n      sub\n      swap1\n      log2\n        /* \"Bitxchange.sol\":3852:5924  {... */\n      pop\n      pop\n      pop\n      pop\n      pop\n      pop\n      pop\n      pop\n      pop\n      pop\n        /* \"Bitxchange.sol\":3754:5924  function swapTokensForETH(address token, uint256 amount, uint256 minAmountOut) external onlyOwner {... */\n      pop\n      pop\n      pop\n      jump\t// out\n        /* \"Bitxchange.sol\":1357:1465  function withdrawETH(uint256 amount) external onlyOwner {... */\n    tag_77:\n        /* \"@openzeppelin/contracts/access/Ownable.sol\":1531:1544  _checkOwner() */\n      tag_265\n        /* \"@openzeppelin/contracts/access/Ownable.sol\":1531:1542  _checkOwner */\n      tag_135\n        /* \"@openzeppelin/contracts/access/Ownable.sol\":1531:1544  _checkOwner() */\n      jump\t// in\n    tag_265:\n        /* \"Bitxchange.sol\":1432:1439  owner() */\n      tag_267\n        /* \"Bitxchange.sol\":1432:1437  owner */\n      tag_39\n        /* \"Bitxchange.sol\":1432:1439  owner() */\n      jump\t// in\n    tag_267:\n        /* \"Bitxchange.sol\":1424:1449  payable(owner()).transfer */\n      0xffffffffffffffffffffffffffffffffffffffff\n      and\n        /* \"Bitxchange.sol\":1424:1457  payable(owner()).transfer(amount) */\n      0x08fc\n        /* \"Bitxchange.sol\":1450:1456  amount */\n      dup3\n        /* \"Bitxchange.sol\":1424:1457  payable(owner()).transfer(amount) */\n      swap1\n      dup2\n      iszero\n      mul\n      swap1\n      mload(0x40)\n      0x00\n      mload(0x40)\n      dup1\n      dup4\n      sub\n      dup2\n      dup6\n      dup9\n      dup9\n      call\n      swap4\n      pop\n      pop\n      pop\n      pop\n      iszero\n      dup1\n      iszero\n      tag_269\n      jumpi\n      returndatasize\n      0x00\n      dup1\n      returndatacopy\n      revert(0x00, returndatasize)\n    tag_269:\n      pop\n        /* \"Bitxchange.sol\":1357:1465  function withdrawETH(uint256 amount) external onlyOwner {... */\n      pop\n      jump\t// out\n        /* \"@openzeppelin/contracts/access/Ownable.sol\":2543:2758  function transferOwnership(address newOwner) public virtual onlyOwner {... */\n    tag_81:\n        /* \"@openzeppelin/contracts/access/Ownable.sol\":1531:1544  _checkOwner() */\n      tag_271\n        /* \"@openzeppelin/contracts/access/Ownable.sol\":1531:1542  _checkOwner */\n      tag_135\n        /* \"@openzeppelin/contracts/access/Ownable.sol\":1531:1544  _checkOwner() */\n      jump\t// in\n    tag_271:\n        /* \"@openzeppelin/contracts/access/Ownable.sol\":2647:2648  0 */\n      0x00\n        /* \"@openzeppelin/contracts/access/Ownable.sol\":2627:2649  newOwner == address(0) */\n      0xffffffffffffffffffffffffffffffffffffffff\n      and\n        /* \"@openzeppelin/contracts/access/Ownable.sol\":2627:2635  newOwner */\n      dup2\n        /* \"@openzeppelin/contracts/access/Ownable.sol\":2627:2649  newOwner == address(0) */\n      0xffffffffffffffffffffffffffffffffffffffff\n      and\n      sub\n        /* \"@openzeppelin/contracts/access/Ownable.sol\":2623:2714  if (newOwner == address(0)) {... */\n      tag_273\n      jumpi\n        /* \"@openzeppelin/contracts/access/Ownable.sol\":2700:2701  0 */\n      0x00\n        /* \"@openzeppelin/contracts/access/Ownable.sol\":2672:2703  OwnableInvalidOwner(address(0)) */\n      mload(0x40)\n      0x1e4fbdf700000000000000000000000000000000000000000000000000000000\n      dup2\n      mstore\n      0x04\n      add\n      tag_274\n      swap2\n      swap1\n      tag_41\n      jump\t// in\n    tag_274:\n      mload(0x40)\n      dup1\n      swap2\n      sub\n      swap1\n      revert\n        /* \"@openzeppelin/contracts/access/Ownable.sol\":2623:2714  if (newOwner == address(0)) {... */\n    tag_273:\n        /* \"@openzeppelin/contracts/access/Ownable.sol\":2723:2751  _transferOwnership(newOwner) */\n      tag_275\n        /* \"@openzeppelin/contracts/access/Ownable.sol\":2742:2750  newOwner */\n      dup2\n        /* \"@openzeppelin/contracts/access/Ownable.sol\":2723:2741  _transferOwnership */\n      tag_145\n        /* \"@openzeppelin/contracts/access/Ownable.sol\":2723:2751  _transferOwnership(newOwner) */\n      jump\t// in\n    tag_275:\n        /* \"@openzeppelin/contracts/access/Ownable.sol\":2543:2758  function transferOwnership(address newOwner) public virtual onlyOwner {... */\n      pop\n      jump\t// out\n        /* \"Bitxchange.sol\":1277:1318  function depositETH() external payable {} */\n    tag_83:\n      jump\t// out\n        /* \"@openzeppelin/contracts/access/Ownable.sol\":1796:1958  function _checkOwner() internal view virtual {... */\n    tag_135:\n        /* \"@openzeppelin/contracts/access/Ownable.sol\":1866:1878  _msgSender() */\n      tag_278\n        /* \"@openzeppelin/contracts/access/Ownable.sol\":1866:1876  _msgSender */\n      tag_279\n        /* \"@openzeppelin/contracts/access/Ownable.sol\":1866:1878  _msgSender() */\n      jump\t// in\n    tag_278:\n        /* \"@openzeppelin/contracts/access/Ownable.sol\":1855:1878  owner() != _msgSender() */\n      0xffffffffffffffffffffffffffffffffffffffff\n      and\n        /* \"@openzeppelin/contracts/access/Ownable.sol\":1855:1862  owner() */\n      tag_280\n        /* \"@openzeppelin/contracts/access/Ownable.sol\":1855:1860  owner */\n      tag_39\n        /* \"@openzeppelin/contracts/access/Ownable.sol\":1855:1862  owner() */\n      jump\t// in\n    tag_280:\n        /* \"@openzeppelin/contracts/access/Ownable.sol\":1855:1878  owner() != _msgSender() */\n      0xffffffffffffffffffffffffffffffffffffffff\n      and\n      eq\n        /* \"@openzeppelin/contracts/access/Ownable.sol\":1851:1952  if (owner() != _msgSender()) {... */\n      tag_281\n      jumpi\n        /* \"@openzeppelin/contracts/access/Ownable.sol\":1928:1940  _msgSender() */\n      tag_282\n        /* \"@openzeppelin/contracts/access/Ownable.sol\":1928:1938  _msgSender */\n      tag_279\n        /* \"@openzeppelin/contracts/access/Ownable.sol\":1928:1940  _msgSender() */\n      jump\t// in\n    tag_282:\n        /* \"@openzeppelin/contracts/access/Ownable.sol\":1901:1941  OwnableUnauthorizedAccount(_msgSender()) */\n      mload(0x40)\n      0x118cdaa700000000000000000000000000000000000000000000000000000000\n      dup2\n      mstore\n      0x04\n      add\n      tag_283\n      swap2\n      swap1\n      tag_41\n      jump\t// in\n    tag_283:\n      mload(0x40)\n      dup1\n      swap2\n      sub\n      swap1\n      revert\n        /* \"@openzeppelin/contracts/access/Ownable.sol\":1851:1952  if (owner() != _msgSender()) {... */\n    tag_281:\n        /* \"@openzeppelin/contracts/access/Ownable.sol\":1796:1958  function _checkOwner() internal view virtual {... */\n      jump\t// out\n        /* \"@openzeppelin/contracts/access/Ownable.sol\":2912:3099  function _transferOwnership(address newOwner) internal virtual {... */\n    tag_145:\n        /* \"@openzeppelin/contracts/access/Ownable.sol\":2985:3001  address oldOwner */\n      0x00\n        /* \"@openzeppelin/contracts/access/Ownable.sol\":3004:3010  _owner */\n      dup1\n      0x00\n      swap1\n      sload\n      swap1\n      0x0100\n      exp\n      swap1\n      div\n      0xffffffffffffffffffffffffffffffffffffffff\n      and\n        /* \"@openzeppelin/contracts/access/Ownable.sol\":2985:3010  address oldOwner = _owner */\n      swap1\n      pop\n        /* \"@openzeppelin/contracts/access/Ownable.sol\":3029:3037  newOwner */\n      dup2\n        /* \"@openzeppelin/contracts/access/Ownable.sol\":3020:3026  _owner */\n      0x00\n      dup1\n        /* \"@openzeppelin/contracts/access/Ownable.sol\":3020:3037  _owner = newOwner */\n      0x0100\n      exp\n      dup2\n      sload\n      dup2\n      0xffffffffffffffffffffffffffffffffffffffff\n      mul\n      not\n      and\n      swap1\n      dup4\n      0xffffffffffffffffffffffffffffffffffffffff\n      and\n      mul\n      or\n      swap1\n      sstore\n      pop\n        /* \"@openzeppelin/contracts/access/Ownable.sol\":3083:3091  newOwner */\n      dup2\n        /* \"@openzeppelin/contracts/access/Ownable.sol\":3052:3092  OwnershipTransferred(oldOwner, newOwner) */\n      0xffffffffffffffffffffffffffffffffffffffff\n      and\n        /* \"@openzeppelin/contracts/access/Ownable.sol\":3073:3081  oldOwner */\n      dup2\n        /* \"@openzeppelin/contracts/access/Ownable.sol\":3052:3092  OwnershipTransferred(oldOwner, newOwner) */\n      0xffffffffffffffffffffffffffffffffffffffff\n      and\n      0x8be0079c531659141344cd1fd0a4f28419497f9722a3daafe3b4186f6b6457e0\n      mload(0x40)\n      mload(0x40)\n      dup1\n      swap2\n      sub\n      swap1\n      log3\n        /* \"@openzeppelin/contracts/access/Ownable.sol\":2975:3099  {... */\n      pop\n        /* \"@openzeppelin/contracts/access/Ownable.sol\":2912:3099  function _transferOwnership(address newOwner) internal virtual {... */\n      pop\n      jump\t// out\n        /* \"@openzeppelin/contracts/utils/Context.sol\":656:752  function _msgSender() internal view virtual returns (address) {... */\n    tag_279:\n        /* \"@openzeppelin/contracts/utils/Context.sol\":709:716  address */\n      0x00\n        /* \"@openzeppelin/contracts/utils/Context.sol\":735:745  msg.sender */\n      caller\n        /* \"@openzeppelin/contracts/utils/Context.sol\":728:745  return msg.sender */\n      swap1\n      pop\n        /* \"@openzeppelin/contracts/utils/Context.sol\":656:752  function _msgSender() internal view virtual returns (address) {... */\n      swap1\n      jump\t// out\n        /* \"#utility.yul\":7:82   */\n    tag_286:\n        /* \"#utility.yul\":40:46   */\n      0x00\n        /* \"#utility.yul\":73:75   */\n      0x40\n        /* \"#utility.yul\":67:76   */\n      mload\n        /* \"#utility.yul\":57:76   */\n      swap1\n      pop\n        /* \"#utility.yul\":7:82   */\n      swap1\n      jump\t// out\n        /* \"#utility.yul\":88:205   */\n    tag_287:\n        /* \"#utility.yul\":197:198   */\n      0x00\n        /* \"#utility.yul\":194:195   */\n      dup1\n        /* \"#utility.yul\":187:199   */\n      revert\n        /* \"#utility.yul\":211:328   */\n    tag_288:\n        /* \"#utility.yul\":320:321   */\n      0x00\n        /* \"#utility.yul\":317:318   */\n      dup1\n        /* \"#utility.yul\":310:322   */\n      revert\n        /* \"#utility.yul\":334:460   */\n    tag_289:\n        /* \"#utility.yul\":371:378   */\n      0x00\n        /* \"#utility.yul\":411:453   */\n      0xffffffffffffffffffffffffffffffffffffffff\n        /* \"#utility.yul\":404:409   */\n      dup3\n        /* \"#utility.yul\":400:454   */\n      and\n        /* \"#utility.yul\":389:454   */\n      swap1\n      pop\n        /* \"#utility.yul\":334:460   */\n      swap2\n      swap1\n      pop\n      jump\t// out\n        /* \"#utility.yul\":466:562   */\n    tag_290:\n        /* \"#utility.yul\":503:510   */\n      0x00\n        /* \"#utility.yul\":532:556   */\n      tag_343\n        /* \"#utility.yul\":550:555   */\n      dup3\n        /* \"#utility.yul\":532:556   */\n      tag_289\n      jump\t// in\n    tag_343:\n        /* \"#utility.yul\":521:556   */\n      swap1\n      pop\n        /* \"#utility.yul\":466:562   */\n      swap2\n      swap1\n      pop\n      jump\t// out\n        /* \"#utility.yul\":568:690   */\n    tag_291:\n        /* \"#utility.yul\":641:665   */\n      tag_345\n        /* \"#utility.yul\":659:664   */\n      dup2\n        /* \"#utility.yul\":641:665   */\n      tag_290\n      jump\t// in\n    tag_345:\n        /* \"#utility.yul\":634:639   */\n      dup2\n        /* \"#utility.yul\":631:666   */\n      eq\n        /* \"#utility.yul\":621:684   */\n      tag_346\n      jumpi\n        /* \"#utility.yul\":680:681   */\n      0x00\n        /* \"#utility.yul\":677:678   */\n      dup1\n        /* \"#utility.yul\":670:682   */\n      revert\n        /* \"#utility.yul\":621:684   */\n    tag_346:\n        /* \"#utility.yul\":568:690   */\n      pop\n      jump\t// out\n        /* \"#utility.yul\":696:835   */\n    tag_292:\n        /* \"#utility.yul\":742:747   */\n      0x00\n        /* \"#utility.yul\":780:786   */\n      dup2\n        /* \"#utility.yul\":767:787   */\n      calldataload\n        /* \"#utility.yul\":758:787   */\n      swap1\n      pop\n        /* \"#utility.yul\":796:829   */\n      tag_348\n        /* \"#utility.yul\":823:828   */\n      dup2\n        /* \"#utility.yul\":796:829   */\n      tag_291\n      jump\t// in\n    tag_348:\n        /* \"#utility.yul\":696:835   */\n      swap3\n      swap2\n      pop\n      pop\n      jump\t// out\n        /* \"#utility.yul\":841:918   */\n    tag_293:\n        /* \"#utility.yul\":878:885   */\n      0x00\n        /* \"#utility.yul\":907:912   */\n      dup2\n        /* \"#utility.yul\":896:912   */\n      swap1\n      pop\n        /* \"#utility.yul\":841:918   */\n      swap2\n      swap1\n      pop\n      jump\t// out\n        /* \"#utility.yul\":924:1046   */\n    tag_294:\n        /* \"#utility.yul\":997:1021   */\n      tag_351\n        /* \"#utility.yul\":1015:1020   */\n      dup2\n        /* \"#utility.yul\":997:1021   */\n      tag_293\n      jump\t// in\n    tag_351:\n        /* \"#utility.yul\":990:995   */\n      dup2\n        /* \"#utility.yul\":987:1022   */\n      eq\n        /* \"#utility.yul\":977:1040   */\n      tag_352\n      jumpi\n        /* \"#utility.yul\":1036:1037   */\n      0x00\n        /* \"#utility.yul\":1033:1034   */\n      dup1\n        /* \"#utility.yul\":1026:1038   */\n      revert\n        /* \"#utility.yul\":977:1040   */\n    tag_352:\n        /* \"#utility.yul\":924:1046   */\n      pop\n      jump\t// out\n        /* \"#utility.yul\":1052:1191   */\n    tag_295:\n        /* \"#utility.yul\":1098:1103   */\n      0x00\n        /* \"#utility.yul\":1136:1142   */\n      dup2\n        /* \"#utility.yul\":1123:1143   */\n      calldataload\n        /* \"#utility.yul\":1114:1143   */\n      swap1\n      pop\n        /* \"#utility.yul\":1152:1185   */\n      tag_354\n        /* \"#utility.yul\":1179:1184   */\n      dup2\n        /* \"#utility.yul\":1152:1185   */\n      tag_294\n      jump\t// in\n    tag_354:\n        /* \"#utility.yul\":1052:1191   */\n      swap3\n      swap2\n      pop\n      pop\n      jump\t// out\n        /* \"#utility.yul\":1197:1816   */\n    tag_22:\n        /* \"#utility.yul\":1274:1280   */\n      0x00\n        /* \"#utility.yul\":1282:1288   */\n      dup1\n        /* \"#utility.yul\":1290:1296   */\n      0x00\n        /* \"#utility.yul\":1339:1341   */\n      0x60\n        /* \"#utility.yul\":1327:1336   */\n      dup5\n        /* \"#utility.yul\":1318:1325   */\n      dup7\n        /* \"#utility.yul\":1314:1337   */\n      sub\n        /* \"#utility.yul\":1310:1342   */\n      slt\n        /* \"#utility.yul\":1307:1426   */\n      iszero\n      tag_356\n      jumpi\n        /* \"#utility.yul\":1345:1424   */\n      tag_357\n      tag_287\n      jump\t// in\n    tag_357:\n        /* \"#utility.yul\":1307:1426   */\n    tag_356:\n        /* \"#utility.yul\":1465:1466   */\n      0x00\n        /* \"#utility.yul\":1490:1543   */\n      tag_358\n        /* \"#utility.yul\":1535:1542   */\n      dup7\n        /* \"#utility.yul\":1526:1532   */\n      dup3\n        /* \"#utility.yul\":1515:1524   */\n      dup8\n        /* \"#utility.yul\":1511:1533   */\n      add\n        /* \"#utility.yul\":1490:1543   */\n      tag_292\n      jump\t// in\n    tag_358:\n        /* \"#utility.yul\":1480:1543   */\n      swap4\n      pop\n        /* \"#utility.yul\":1436:1553   */\n      pop\n        /* \"#utility.yul\":1592:1594   */\n      0x20\n        /* \"#utility.yul\":1618:1671   */\n      tag_359\n        /* \"#utility.yul\":1663:1670   */\n      dup7\n        /* \"#utility.yul\":1654:1660   */\n      dup3\n        /* \"#utility.yul\":1643:1652   */\n      dup8\n        /* \"#utility.yul\":1639:1661   */\n      add\n        /* \"#utility.yul\":1618:1671   */\n      tag_295\n      jump\t// in\n    tag_359:\n        /* \"#utility.yul\":1608:1671   */\n      swap3\n      pop\n        /* \"#utility.yul\":1563:1681   */\n      pop\n        /* \"#utility.yul\":1720:1722   */\n      0x40\n        /* \"#utility.yul\":1746:1799   */\n      tag_360\n        /* \"#utility.yul\":1791:1798   */\n      dup7\n        /* \"#utility.yul\":1782:1788   */\n      dup3\n        /* \"#utility.yul\":1771:1780   */\n      dup8\n        /* \"#utility.yul\":1767:1789   */\n      add\n        /* \"#utility.yul\":1746:1799   */\n      tag_295\n      jump\t// in\n    tag_360:\n        /* \"#utility.yul\":1736:1799   */\n      swap2\n      pop\n        /* \"#utility.yul\":1691:1809   */\n      pop\n        /* \"#utility.yul\":1197:1816   */\n      swap3\n      pop\n      swap3\n      pop\n      swap3\n      jump\t// out\n        /* \"#utility.yul\":1822:2151   */\n    tag_27:\n        /* \"#utility.yul\":1881:1887   */\n      0x00\n        /* \"#utility.yul\":1930:1932   */\n      0x20\n        /* \"#utility.yul\":1918:1927   */\n      dup3\n        /* \"#utility.yul\":1909:1916   */\n      dup5\n        /* \"#utility.yul\":1905:1928   */\n      sub\n        /* \"#utility.yul\":1901:1933   */\n      slt\n        /* \"#utility.yul\":1898:2017   */\n      iszero\n      tag_362\n      jumpi\n        /* \"#utility.yul\":1936:2015   */\n      tag_363\n      tag_287\n      jump\t// in\n    tag_363:\n        /* \"#utility.yul\":1898:2017   */\n    tag_362:\n        /* \"#utility.yul\":2056:2057   */\n      0x00\n        /* \"#utility.yul\":2081:2134   */\n      tag_364\n        /* \"#utility.yul\":2126:2133   */\n      dup5\n        /* \"#utility.yul\":2117:2123   */\n      dup3\n        /* \"#utility.yul\":2106:2115   */\n      dup6\n        /* \"#utility.yul\":2102:2124   */\n      add\n        /* \"#utility.yul\":2081:2134   */\n      tag_292\n      jump\t// in\n    tag_364:\n        /* \"#utility.yul\":2071:2134   */\n      swap2\n      pop\n        /* \"#utility.yul\":2027:2144   */\n      pop\n        /* \"#utility.yul\":1822:2151   */\n      swap3\n      swap2\n      pop\n      pop\n      jump\t// out\n        /* \"#utility.yul\":2157:2217   */\n    tag_296:\n        /* \"#utility.yul\":2185:2188   */\n      0x00\n        /* \"#utility.yul\":2206:2211   */\n      dup2\n        /* \"#utility.yul\":2199:2211   */\n      swap1\n      pop\n        /* \"#utility.yul\":2157:2217   */\n      swap2\n      swap1\n      pop\n      jump\t// out\n        /* \"#utility.yul\":2223:2365   */\n    tag_297:\n        /* \"#utility.yul\":2273:2282   */\n      0x00\n        /* \"#utility.yul\":2306:2359   */\n      tag_367\n        /* \"#utility.yul\":2324:2358   */\n      tag_368\n        /* \"#utility.yul\":2333:2357   */\n      tag_369\n        /* \"#utility.yul\":2351:2356   */\n      dup5\n        /* \"#utility.yul\":2333:2357   */\n      tag_289\n      jump\t// in\n    tag_369:\n        /* \"#utility.yul\":2324:2358   */\n      tag_296\n      jump\t// in\n    tag_368:\n        /* \"#utility.yul\":2306:2359   */\n      tag_289\n      jump\t// in\n    tag_367:\n        /* \"#utility.yul\":2293:2359   */\n      swap1\n      pop\n        /* \"#utility.yul\":2223:2365   */\n      swap2\n      swap1\n      pop\n      jump\t// out\n        /* \"#utility.yul\":2371:2497   */\n    tag_298:\n        /* \"#utility.yul\":2421:2430   */\n      0x00\n        /* \"#utility.yul\":2454:2491   */\n      tag_371\n        /* \"#utility.yul\":2485:2490   */\n      dup3\n        /* \"#utility.yul\":2454:2491   */\n      tag_297\n      jump\t// in\n    tag_371:\n        /* \"#utility.yul\":2441:2491   */\n      swap1\n      pop\n        /* \"#utility.yul\":2371:2497   */\n      swap2\n      swap1\n      pop\n      jump\t// out\n        /* \"#utility.yul\":2503:2655   */\n    tag_299:\n        /* \"#utility.yul\":2579:2588   */\n      0x00\n        /* \"#utility.yul\":2612:2649   */\n      tag_373\n        /* \"#utility.yul\":2643:2648   */\n      dup3\n        /* \"#utility.yul\":2612:2649   */\n      tag_298\n      jump\t// in\n    tag_373:\n        /* \"#utility.yul\":2599:2649   */\n      swap1\n      pop\n        /* \"#utility.yul\":2503:2655   */\n      swap2\n      swap1\n      pop\n      jump\t// out\n        /* \"#utility.yul\":2661:2844   */\n    tag_300:\n        /* \"#utility.yul\":2774:2837   */\n      tag_375\n        /* \"#utility.yul\":2831:2836   */\n      dup2\n        /* \"#utility.yul\":2774:2837   */\n      tag_299\n      jump\t// in\n    tag_375:\n        /* \"#utility.yul\":2769:2772   */\n      dup3\n        /* \"#utility.yul\":2762:2838   */\n      mstore\n        /* \"#utility.yul\":2661:2844   */\n      pop\n      pop\n      jump\t// out\n        /* \"#utility.yul\":2850:3124   */\n    tag_36:\n        /* \"#utility.yul\":2969:2973   */\n      0x00\n        /* \"#utility.yul\":3007:3009   */\n      0x20\n        /* \"#utility.yul\":2996:3005   */\n      dup3\n        /* \"#utility.yul\":2992:3010   */\n      add\n        /* \"#utility.yul\":2984:3010   */\n      swap1\n      pop\n        /* \"#utility.yul\":3020:3117   */\n      tag_377\n        /* \"#utility.yul\":3114:3115   */\n      0x00\n        /* \"#utility.yul\":3103:3112   */\n      dup4\n        /* \"#utility.yul\":3099:3116   */\n      add\n        /* \"#utility.yul\":3090:3096   */\n      dup5\n        /* \"#utility.yul\":3020:3117   */\n      tag_300\n      jump\t// in\n    tag_377:\n        /* \"#utility.yul\":2850:3124   */\n      swap3\n      swap2\n      pop\n      pop\n      jump\t// out\n        /* \"#utility.yul\":3130:3248   */\n    tag_301:\n        /* \"#utility.yul\":3217:3241   */\n      tag_379\n        /* \"#utility.yul\":3235:3240   */\n      dup2\n        /* \"#utility.yul\":3217:3241   */\n      tag_290\n      jump\t// in\n    tag_379:\n        /* \"#utility.yul\":3212:3215   */\n      dup3\n        /* \"#utility.yul\":3205:3242   */\n      mstore\n        /* \"#utility.yul\":3130:3248   */\n      pop\n      pop\n      jump\t// out\n        /* \"#utility.yul\":3254:3476   */\n    tag_41:\n        /* \"#utility.yul\":3347:3351   */\n      0x00\n        /* \"#utility.yul\":3385:3387   */\n      0x20\n        /* \"#utility.yul\":3374:3383   */\n      dup3\n        /* \"#utility.yul\":3370:3388   */\n      add\n        /* \"#utility.yul\":3362:3388   */\n      swap1\n      pop\n        /* \"#utility.yul\":3398:3469   */\n      tag_381\n        /* \"#utility.yul\":3466:3467   */\n      0x00\n        /* \"#utility.yul\":3455:3464   */\n      dup4\n        /* \"#utility.yul\":3451:3468   */\n      add\n        /* \"#utility.yul\":3442:3448   */\n      dup5\n        /* \"#utility.yul\":3398:3469   */\n      tag_301\n      jump\t// in\n    tag_381:\n        /* \"#utility.yul\":3254:3476   */\n      swap3\n      swap2\n      pop\n      pop\n      jump\t// out\n        /* \"#utility.yul\":3482:3626   */\n    tag_302:\n        /* \"#utility.yul\":3550:3559   */\n      0x00\n        /* \"#utility.yul\":3583:3620   */\n      tag_383\n        /* \"#utility.yul\":3614:3619   */\n      dup3\n        /* \"#utility.yul\":3583:3620   */\n      tag_298\n      jump\t// in\n    tag_383:\n        /* \"#utility.yul\":3570:3620   */\n      swap1\n      pop\n        /* \"#utility.yul\":3482:3626   */\n      swap2\n      swap1\n      pop\n      jump\t// out\n        /* \"#utility.yul\":3632:3799   */\n    tag_303:\n        /* \"#utility.yul\":3737:3792   */\n      tag_385\n        /* \"#utility.yul\":3786:3791   */\n      dup2\n        /* \"#utility.yul\":3737:3792   */\n      tag_302\n      jump\t// in\n    tag_385:\n        /* \"#utility.yul\":3732:3735   */\n      dup3\n        /* \"#utility.yul\":3725:3793   */\n      mstore\n        /* \"#utility.yul\":3632:3799   */\n      pop\n      pop\n      jump\t// out\n        /* \"#utility.yul\":3805:4063   */\n    tag_46:\n        /* \"#utility.yul\":3916:3920   */\n      0x00\n        /* \"#utility.yul\":3954:3956   */\n      0x20\n        /* \"#utility.yul\":3943:3952   */\n      dup3\n        /* \"#utility.yul\":3939:3957   */\n      add\n        /* \"#utility.yul\":3931:3957   */\n      swap1\n      pop\n        /* \"#utility.yul\":3967:4056   */\n      tag_387\n        /* \"#utility.yul\":4053:4054   */\n      0x00\n        /* \"#utility.yul\":4042:4051   */\n      dup4\n        /* \"#utility.yul\":4038:4055   */\n      add\n        /* \"#utility.yul\":4029:4035   */\n      dup5\n        /* \"#utility.yul\":3967:4056   */\n      tag_303\n      jump\t// in\n    tag_387:\n        /* \"#utility.yul\":3805:4063   */\n      swap3\n      swap2\n      pop\n      pop\n      jump\t// out\n        /* \"#utility.yul\":4069:4187   */\n    tag_304:\n        /* \"#utility.yul\":4156:4180   */\n      tag_389\n        /* \"#utility.yul\":4174:4179   */\n      dup2\n        /* \"#utility.yul\":4156:4180   */\n      tag_293\n      jump\t// in\n    tag_389:\n        /* \"#utility.yul\":4151:4154   */\n      dup3\n        /* \"#utility.yul\":4144:4181   */\n      mstore\n        /* \"#utility.yul\":4069:4187   */\n      pop\n      pop\n      jump\t// out\n        /* \"#utility.yul\":4193:4415   */\n    tag_51:\n        /* \"#utility.yul\":4286:4290   */\n      0x00\n        /* \"#utility.yul\":4324:4326   */\n      0x20\n        /* \"#utility.yul\":4313:4322   */\n      dup3\n        /* \"#utility.yul\":4309:4327   */\n      add\n        /* \"#utility.yul\":4301:4327   */\n      swap1\n      pop\n        /* \"#utility.yul\":4337:4408   */\n      tag_391\n        /* \"#utility.yul\":4405:4406   */\n      0x00\n        /* \"#utility.yul\":4394:4403   */\n      dup4\n        /* \"#utility.yul\":4390:4407   */\n      add\n        /* \"#utility.yul\":4381:4387   */\n      dup5\n        /* \"#utility.yul\":4337:4408   */\n      tag_304\n      jump\t// in\n    tag_391:\n        /* \"#utility.yul\":4193:4415   */\n      swap3\n      swap2\n      pop\n      pop\n      jump\t// out\n        /* \"#utility.yul\":4421:5186   */\n    tag_55:\n        /* \"#utility.yul\":4507:4513   */\n      0x00\n        /* \"#utility.yul\":4515:4521   */\n      dup1\n        /* \"#utility.yul\":4523:4529   */\n      0x00\n        /* \"#utility.yul\":4531:4537   */\n      dup1\n        /* \"#utility.yul\":4580:4583   */\n      0x80\n        /* \"#utility.yul\":4568:4577   */\n      dup6\n        /* \"#utility.yul\":4559:4566   */\n      dup8\n        /* \"#utility.yul\":4555:4578   */\n      sub\n        /* \"#utility.yul\":4551:4584   */\n      slt\n        /* \"#utility.yul\":4548:4668   */\n      iszero\n      tag_393\n      jumpi\n        /* \"#utility.yul\":4587:4666   */\n      tag_394\n      tag_287\n      jump\t// in\n    tag_394:\n        /* \"#utility.yul\":4548:4668   */\n    tag_393:\n        /* \"#utility.yul\":4707:4708   */\n      0x00\n        /* \"#utility.yul\":4732:4785   */\n      tag_395\n        /* \"#utility.yul\":4777:4784   */\n      dup8\n        /* \"#utility.yul\":4768:4774   */\n      dup3\n        /* \"#utility.yul\":4757:4766   */\n      dup9\n        /* \"#utility.yul\":4753:4775   */\n      add\n        /* \"#utility.yul\":4732:4785   */\n      tag_292\n      jump\t// in\n    tag_395:\n        /* \"#utility.yul\":4722:4785   */\n      swap5\n      pop\n        /* \"#utility.yul\":4678:4795   */\n      pop\n        /* \"#utility.yul\":4834:4836   */\n      0x20\n        /* \"#utility.yul\":4860:4913   */\n      tag_396\n        /* \"#utility.yul\":4905:4912   */\n      dup8\n        /* \"#utility.yul\":4896:4902   */\n      dup3\n        /* \"#utility.yul\":4885:4894   */\n      dup9\n        /* \"#utility.yul\":4881:4903   */\n      add\n        /* \"#utility.yul\":4860:4913   */\n      tag_295\n      jump\t// in\n    tag_396:\n        /* \"#utility.yul\":4850:4913   */\n      swap4\n      pop\n        /* \"#utility.yul\":4805:4923   */\n      pop\n        /* \"#utility.yul\":4962:4964   */\n      0x40\n        /* \"#utility.yul\":4988:5041   */\n      tag_397\n        /* \"#utility.yul\":5033:5040   */\n      dup8\n        /* \"#utility.yul\":5024:5030   */\n      dup3\n        /* \"#utility.yul\":5013:5022   */\n      dup9\n        /* \"#utility.yul\":5009:5031   */\n      add\n        /* \"#utility.yul\":4988:5041   */\n      tag_295\n      jump\t// in\n    tag_397:\n        /* \"#utility.yul\":4978:5041   */\n      swap3\n      pop\n        /* \"#utility.yul\":4933:5051   */\n      pop\n        /* \"#utility.yul\":5090:5092   */\n      0x60\n        /* \"#utility.yul\":5116:5169   */\n      tag_398\n        /* \"#utility.yul\":5161:5168   */\n      dup8\n        /* \"#utility.yul\":5152:5158   */\n      dup3\n        /* \"#utility.yul\":5141:5150   */\n      dup9\n        /* \"#utility.yul\":5137:5159   */\n      add\n        /* \"#utility.yul\":5116:5169   */\n      tag_295\n      jump\t// in\n    tag_398:\n        /* \"#utility.yul\":5106:5169   */\n      swap2\n      pop\n        /* \"#utility.yul\":5061:5179   */\n      pop\n        /* \"#utility.yul\":4421:5186   */\n      swap3\n      swap6\n      swap2\n      swap5\n      pop\n      swap3\n      pop\n      jump\t// out\n        /* \"#utility.yul\":5192:5282   */\n    tag_305:\n        /* \"#utility.yul\":5226:5233   */\n      0x00\n        /* \"#utility.yul\":5269:5274   */\n      dup2\n        /* \"#utility.yul\":5262:5275   */\n      iszero\n        /* \"#utility.yul\":5255:5276   */\n      iszero\n        /* \"#utility.yul\":5244:5276   */\n      swap1\n      pop\n        /* \"#utility.yul\":5192:5282   */\n      swap2\n      swap1\n      pop\n      jump\t// out\n        /* \"#utility.yul\":5288:5397   */\n    tag_306:\n        /* \"#utility.yul\":5369:5390   */\n      tag_401\n        /* \"#utility.yul\":5384:5389   */\n      dup2\n        /* \"#utility.yul\":5369:5390   */\n      tag_305\n      jump\t// in\n    tag_401:\n        /* \"#utility.yul\":5364:5367   */\n      dup3\n        /* \"#utility.yul\":5357:5391   */\n      mstore\n        /* \"#utility.yul\":5288:5397   */\n      pop\n      pop\n      jump\t// out\n        /* \"#utility.yul\":5403:5833   */\n    tag_58:\n        /* \"#utility.yul\":5546:5550   */\n      0x00\n        /* \"#utility.yul\":5584:5586   */\n      0x60\n        /* \"#utility.yul\":5573:5582   */\n      dup3\n        /* \"#utility.yul\":5569:5587   */\n      add\n        /* \"#utility.yul\":5561:5587   */\n      swap1\n      pop\n        /* \"#utility.yul\":5597:5668   */\n      tag_403\n        /* \"#utility.yul\":5665:5666   */\n      0x00\n        /* \"#utility.yul\":5654:5663   */\n      dup4\n        /* \"#utility.yul\":5650:5667   */\n      add\n        /* \"#utility.yul\":5641:5647   */\n      dup7\n        /* \"#utility.yul\":5597:5668   */\n      tag_304\n      jump\t// in\n    tag_403:\n        /* \"#utility.yul\":5678:5750   */\n      tag_404\n        /* \"#utility.yul\":5746:5748   */\n      0x20\n        /* \"#utility.yul\":5735:5744   */\n      dup4\n        /* \"#utility.yul\":5731:5749   */\n      add\n        /* \"#utility.yul\":5722:5728   */\n      dup6\n        /* \"#utility.yul\":5678:5750   */\n      tag_304\n      jump\t// in\n    tag_404:\n        /* \"#utility.yul\":5760:5826   */\n      tag_405\n        /* \"#utility.yul\":5822:5824   */\n      0x40\n        /* \"#utility.yul\":5811:5820   */\n      dup4\n        /* \"#utility.yul\":5807:5825   */\n      add\n        /* \"#utility.yul\":5798:5804   */\n      dup5\n        /* \"#utility.yul\":5760:5826   */\n      tag_306\n      jump\t// in\n    tag_405:\n        /* \"#utility.yul\":5403:5833   */\n      swap5\n      swap4\n      pop\n      pop\n      pop\n      pop\n      jump\t// out\n        /* \"#utility.yul\":5839:6168   */\n    tag_62:\n        /* \"#utility.yul\":5898:5904   */\n      0x00\n        /* \"#utility.yul\":5947:5949   */\n      0x20\n        /* \"#utility.yul\":5935:5944   */\n      dup3\n        /* \"#utility.yul\":5926:5933   */\n      dup5\n        /* \"#utility.yul\":5922:5945   */\n      sub\n        /* \"#utility.yul\":5918:5950   */\n      slt\n        /* \"#utility.yul\":5915:6034   */\n      iszero\n      tag_407\n      jumpi\n        /* \"#utility.yul\":5953:6032   */\n      tag_408\n      tag_287\n      jump\t// in\n    tag_408:\n        /* \"#utility.yul\":5915:6034   */\n    tag_407:\n        /* \"#utility.yul\":6073:6074   */\n      0x00\n        /* \"#utility.yul\":6098:6151   */\n      tag_409\n        /* \"#utility.yul\":6143:6150   */\n      dup5\n        /* \"#utility.yul\":6134:6140   */\n      dup3\n        /* \"#utility.yul\":6123:6132   */\n      dup6\n        /* \"#utility.yul\":6119:6141   */\n      add\n        /* \"#utility.yul\":6098:6151   */\n      tag_295\n      jump\t// in\n    tag_409:\n        /* \"#utility.yul\":6088:6151   */\n      swap2\n      pop\n        /* \"#utility.yul\":6044:6161   */\n      pop\n        /* \"#utility.yul\":5839:6168   */\n      swap3\n      swap2\n      pop\n      pop\n      jump\t// out\n        /* \"#utility.yul\":6174:6384   */\n    tag_69:\n        /* \"#utility.yul\":6261:6265   */\n      0x00\n        /* \"#utility.yul\":6299:6301   */\n      0x20\n        /* \"#utility.yul\":6288:6297   */\n      dup3\n        /* \"#utility.yul\":6284:6302   */\n      add\n        /* \"#utility.yul\":6276:6302   */\n      swap1\n      pop\n        /* \"#utility.yul\":6312:6377   */\n      tag_411\n        /* \"#utility.yul\":6374:6375   */\n      0x00\n        /* \"#utility.yul\":6363:6372   */\n      dup4\n        /* \"#utility.yul\":6359:6376   */\n      add\n        /* \"#utility.yul\":6350:6356   */\n      dup5\n        /* \"#utility.yul\":6312:6377   */\n      tag_306\n      jump\t// in\n    tag_411:\n        /* \"#utility.yul\":6174:6384   */\n      swap3\n      swap2\n      pop\n      pop\n      jump\t// out\n        /* \"#utility.yul\":6390:6832   */\n    tag_86:\n        /* \"#utility.yul\":6539:6543   */\n      0x00\n        /* \"#utility.yul\":6577:6579   */\n      0x60\n        /* \"#utility.yul\":6566:6575   */\n      dup3\n        /* \"#utility.yul\":6562:6580   */\n      add\n        /* \"#utility.yul\":6554:6580   */\n      swap1\n      pop\n        /* \"#utility.yul\":6590:6661   */\n      tag_413\n        /* \"#utility.yul\":6658:6659   */\n      0x00\n        /* \"#utility.yul\":6647:6656   */\n      dup4\n        /* \"#utility.yul\":6643:6660   */\n      add\n        /* \"#utility.yul\":6634:6640   */\n      dup7\n        /* \"#utility.yul\":6590:6661   */\n      tag_301\n      jump\t// in\n    tag_413:\n        /* \"#utility.yul\":6671:6743   */\n      tag_414\n        /* \"#utility.yul\":6739:6741   */\n      0x20\n        /* \"#utility.yul\":6728:6737   */\n      dup4\n        /* \"#utility.yul\":6724:6742   */\n      add\n        /* \"#utility.yul\":6715:6721   */\n      dup6\n        /* \"#utility.yul\":6671:6743   */\n      tag_301\n      jump\t// in\n    tag_414:\n        /* \"#utility.yul\":6753:6825   */\n      tag_415\n        /* \"#utility.yul\":6821:6823   */\n      0x40\n        /* \"#utility.yul\":6810:6819   */\n      dup4\n        /* \"#utility.yul\":6806:6824   */\n      add\n        /* \"#utility.yul\":6797:6803   */\n      dup5\n        /* \"#utility.yul\":6753:6825   */\n      tag_304\n      jump\t// in\n    tag_415:\n        /* \"#utility.yul\":6390:6832   */\n      swap5\n      swap4\n      pop\n      pop\n      pop\n      pop\n      jump\t// out\n        /* \"#utility.yul\":6838:6954   */\n    tag_307:\n        /* \"#utility.yul\":6908:6929   */\n      tag_417\n        /* \"#utility.yul\":6923:6928   */\n      dup2\n        /* \"#utility.yul\":6908:6929   */\n      tag_305\n      jump\t// in\n    tag_417:\n        /* \"#utility.yul\":6901:6906   */\n      dup2\n        /* \"#utility.yul\":6898:6930   */\n      eq\n        /* \"#utility.yul\":6888:6948   */\n      tag_418\n      jumpi\n        /* \"#utility.yul\":6944:6945   */\n      0x00\n        /* \"#utility.yul\":6941:6942   */\n      dup1\n        /* \"#utility.yul\":6934:6946   */\n      revert\n        /* \"#utility.yul\":6888:6948   */\n    tag_418:\n        /* \"#utility.yul\":6838:6954   */\n      pop\n      jump\t// out\n        /* \"#utility.yul\":6960:7097   */\n    tag_308:\n        /* \"#utility.yul\":7014:7019   */\n      0x00\n        /* \"#utility.yul\":7045:7051   */\n      dup2\n        /* \"#utility.yul\":7039:7052   */\n      mload\n        /* \"#utility.yul\":7030:7052   */\n      swap1\n      pop\n        /* \"#utility.yul\":7061:7091   */\n      tag_420\n        /* \"#utility.yul\":7085:7090   */\n      dup2\n        /* \"#utility.yul\":7061:7091   */\n      tag_307\n      jump\t// in\n    tag_420:\n        /* \"#utility.yul\":6960:7097   */\n      swap3\n      swap2\n      pop\n      pop\n      jump\t// out\n        /* \"#utility.yul\":7103:7448   */\n    tag_90:\n        /* \"#utility.yul\":7170:7176   */\n      0x00\n        /* \"#utility.yul\":7219:7221   */\n      0x20\n        /* \"#utility.yul\":7207:7216   */\n      dup3\n        /* \"#utility.yul\":7198:7205   */\n      dup5\n        /* \"#utility.yul\":7194:7217   */\n      sub\n        /* \"#utility.yul\":7190:7222   */\n      slt\n        /* \"#utility.yul\":7187:7306   */\n      iszero\n      tag_422\n      jumpi\n        /* \"#utility.yul\":7225:7304   */\n      tag_423\n      tag_287\n      jump\t// in\n    tag_423:\n        /* \"#utility.yul\":7187:7306   */\n    tag_422:\n        /* \"#utility.yul\":7345:7346   */\n      0x00\n        /* \"#utility.yul\":7370:7431   */\n      tag_424\n        /* \"#utility.yul\":7423:7430   */\n      dup5\n        /* \"#utility.yul\":7414:7420   */\n      dup3\n        /* \"#utility.yul\":7403:7412   */\n      dup6\n        /* \"#utility.yul\":7399:7421   */\n      add\n        /* \"#utility.yul\":7370:7431   */\n      tag_308\n      jump\t// in\n    tag_424:\n        /* \"#utility.yul\":7360:7431   */\n      swap2\n      pop\n        /* \"#utility.yul\":7316:7441   */\n      pop\n        /* \"#utility.yul\":7103:7448   */\n      swap3\n      swap2\n      pop\n      pop\n      jump\t// out\n        /* \"#utility.yul\":7454:7786   */\n    tag_92:\n        /* \"#utility.yul\":7575:7579   */\n      0x00\n        /* \"#utility.yul\":7613:7615   */\n      0x40\n        /* \"#utility.yul\":7602:7611   */\n      dup3\n        /* \"#utility.yul\":7598:7616   */\n      add\n        /* \"#utility.yul\":7590:7616   */\n      swap1\n      pop\n        /* \"#utility.yul\":7626:7697   */\n      tag_426\n        /* \"#utility.yul\":7694:7695   */\n      0x00\n        /* \"#utility.yul\":7683:7692   */\n      dup4\n        /* \"#utility.yul\":7679:7696   */\n      add\n        /* \"#utility.yul\":7670:7676   */\n      dup6\n        /* \"#utility.yul\":7626:7697   */\n      tag_301\n      jump\t// in\n    tag_426:\n        /* \"#utility.yul\":7707:7779   */\n      tag_427\n        /* \"#utility.yul\":7775:7777   */\n      0x20\n        /* \"#utility.yul\":7764:7773   */\n      dup4\n        /* \"#utility.yul\":7760:7778   */\n      add\n        /* \"#utility.yul\":7751:7757   */\n      dup5\n        /* \"#utility.yul\":7707:7779   */\n      tag_304\n      jump\t// in\n    tag_427:\n        /* \"#utility.yul\":7454:7786   */\n      swap4\n      swap3\n      pop\n      pop\n      pop\n      jump\t// out\n        /* \"#utility.yul\":7792:7972   */\n    tag_98:\n        /* \"#utility.yul\":7840:7917   */\n      0x4e487b7100000000000000000000000000000000000000000000000000000000\n        /* \"#utility.yul\":7837:7838   */\n      0x00\n        /* \"#utility.yul\":7830:7918   */\n      mstore\n        /* \"#utility.yul\":7937:7941   */\n      0x41\n        /* \"#utility.yul\":7934:7935   */\n      0x04\n        /* \"#utility.yul\":7927:7942   */\n      mstore\n        /* \"#utility.yul\":7961:7965   */\n      0x24\n        /* \"#utility.yul\":7958:7959   */\n      0x00\n        /* \"#utility.yul\":7951:7966   */\n      revert\n        /* \"#utility.yul\":7978:8158   */\n    tag_102:\n        /* \"#utility.yul\":8026:8103   */\n      0x4e487b7100000000000000000000000000000000000000000000000000000000\n        /* \"#utility.yul\":8023:8024   */\n      0x00\n        /* \"#utility.yul\":8016:8104   */\n      mstore\n        /* \"#utility.yul\":8123:8127   */\n      0x32\n        /* \"#utility.yul\":8120:8121   */\n      0x04\n        /* \"#utility.yul\":8113:8128   */\n      mstore\n        /* \"#utility.yul\":8147:8151   */\n      0x24\n        /* \"#utility.yul\":8144:8145   */\n      0x00\n        /* \"#utility.yul\":8137:8152   */\n      revert\n        /* \"#utility.yul\":8164:8307   */\n    tag_309:\n        /* \"#utility.yul\":8221:8226   */\n      0x00\n        /* \"#utility.yul\":8252:8258   */\n      dup2\n        /* \"#utility.yul\":8246:8259   */\n      mload\n        /* \"#utility.yul\":8237:8259   */\n      swap1\n      pop\n        /* \"#utility.yul\":8268:8301   */\n      tag_431\n        /* \"#utility.yul\":8295:8300   */\n      dup2\n        /* \"#utility.yul\":8268:8301   */\n      tag_291\n      jump\t// in\n    tag_431:\n        /* \"#utility.yul\":8164:8307   */\n      swap3\n      swap2\n      pop\n      pop\n      jump\t// out\n        /* \"#utility.yul\":8313:8664   */\n    tag_106:\n        /* \"#utility.yul\":8383:8389   */\n      0x00\n        /* \"#utility.yul\":8432:8434   */\n      0x20\n        /* \"#utility.yul\":8420:8429   */\n      dup3\n        /* \"#utility.yul\":8411:8418   */\n      dup5\n        /* \"#utility.yul\":8407:8430   */\n      sub\n        /* \"#utility.yul\":8403:8435   */\n      slt\n        /* \"#utility.yul\":8400:8519   */\n      iszero\n      tag_433\n      jumpi\n        /* \"#utility.yul\":8438:8517   */\n      tag_434\n      tag_287\n      jump\t// in\n    tag_434:\n        /* \"#utility.yul\":8400:8519   */\n    tag_433:\n        /* \"#utility.yul\":8558:8559   */\n      0x00\n        /* \"#utility.yul\":8583:8647   */\n      tag_435\n        /* \"#utility.yul\":8639:8646   */\n      dup5\n        /* \"#utility.yul\":8630:8636   */\n      dup3\n        /* \"#utility.yul\":8619:8628   */\n      dup6\n        /* \"#utility.yul\":8615:8637   */\n      add\n        /* \"#utility.yul\":8583:8647   */\n      tag_309\n      jump\t// in\n    tag_435:\n        /* \"#utility.yul\":8573:8647   */\n      swap2\n      pop\n        /* \"#utility.yul\":8529:8657   */\n      pop\n        /* \"#utility.yul\":8313:8664   */\n      swap3\n      swap2\n      pop\n      pop\n      jump\t// out\n        /* \"#utility.yul\":8670:8784   */\n    tag_310:\n        /* \"#utility.yul\":8737:8743   */\n      0x00\n        /* \"#utility.yul\":8771:8776   */\n      dup2\n        /* \"#utility.yul\":8765:8777   */\n      mload\n        /* \"#utility.yul\":8755:8777   */\n      swap1\n      pop\n        /* \"#utility.yul\":8670:8784   */\n      swap2\n      swap1\n      pop\n      jump\t// out\n        /* \"#utility.yul\":8790:8974   */\n    tag_311:\n        /* \"#utility.yul\":8889:8900   */\n      0x00\n        /* \"#utility.yul\":8923:8929   */\n      dup3\n        /* \"#utility.yul\":8918:8921   */\n      dup3\n        /* \"#utility.yul\":8911:8930   */\n      mstore\n        /* \"#utility.yul\":8963:8967   */\n      0x20\n        /* \"#utility.yul\":8958:8961   */\n      dup3\n        /* \"#utility.yul\":8954:8968   */\n      add\n        /* \"#utility.yul\":8939:8968   */\n      swap1\n      pop\n        /* \"#utility.yul\":8790:8974   */\n      swap3\n      swap2\n      pop\n      pop\n      jump\t// out\n        /* \"#utility.yul\":8980:9112   */\n    tag_312:\n        /* \"#utility.yul\":9047:9051   */\n      0x00\n        /* \"#utility.yul\":9070:9073   */\n      dup2\n        /* \"#utility.yul\":9062:9073   */\n      swap1\n      pop\n        /* \"#utility.yul\":9100:9104   */\n      0x20\n        /* \"#utility.yul\":9095:9098   */\n      dup3\n        /* \"#utility.yul\":9091:9105   */\n      add\n        /* \"#utility.yul\":9083:9105   */\n      swap1\n      pop\n        /* \"#utility.yul\":8980:9112   */\n      swap2\n      swap1\n      pop\n      jump\t// out\n        /* \"#utility.yul\":9118:9226   */\n    tag_313:\n        /* \"#utility.yul\":9195:9219   */\n      tag_440\n        /* \"#utility.yul\":9213:9218   */\n      dup2\n        /* \"#utility.yul\":9195:9219   */\n      tag_290\n      jump\t// in\n    tag_440:\n        /* \"#utility.yul\":9190:9193   */\n      dup3\n        /* \"#utility.yul\":9183:9220   */\n      mstore\n        /* \"#utility.yul\":9118:9226   */\n      pop\n      pop\n      jump\t// out\n        /* \"#utility.yul\":9232:9411   */\n    tag_314:\n        /* \"#utility.yul\":9301:9311   */\n      0x00\n        /* \"#utility.yul\":9322:9368   */\n      tag_442\n        /* \"#utility.yul\":9364:9367   */\n      dup4\n        /* \"#utility.yul\":9356:9362   */\n      dup4\n        /* \"#utility.yul\":9322:9368   */\n      tag_313\n      jump\t// in\n    tag_442:\n        /* \"#utility.yul\":9400:9404   */\n      0x20\n        /* \"#utility.yul\":9395:9398   */\n      dup4\n        /* \"#utility.yul\":9391:9405   */\n      add\n        /* \"#utility.yul\":9377:9405   */\n      swap1\n      pop\n        /* \"#utility.yul\":9232:9411   */\n      swap3\n      swap2\n      pop\n      pop\n      jump\t// out\n        /* \"#utility.yul\":9417:9530   */\n    tag_315:\n        /* \"#utility.yul\":9487:9491   */\n      0x00\n        /* \"#utility.yul\":9519:9523   */\n      0x20\n        /* \"#utility.yul\":9514:9517   */\n      dup3\n        /* \"#utility.yul\":9510:9524   */\n      add\n        /* \"#utility.yul\":9502:9524   */\n      swap1\n      pop\n        /* \"#utility.yul\":9417:9530   */\n      swap2\n      swap1\n      pop\n      jump\t// out\n        /* \"#utility.yul\":9566:10298   */\n    tag_316:\n        /* \"#utility.yul\":9685:9688   */\n      0x00\n        /* \"#utility.yul\":9714:9768   */\n      tag_445\n        /* \"#utility.yul\":9762:9767   */\n      dup3\n        /* \"#utility.yul\":9714:9768   */\n      tag_310\n      jump\t// in\n    tag_445:\n        /* \"#utility.yul\":9784:9870   */\n      tag_446\n        /* \"#utility.yul\":9863:9869   */\n      dup2\n        /* \"#utility.yul\":9858:9861   */\n      dup6\n        /* \"#utility.yul\":9784:9870   */\n      tag_311\n      jump\t// in\n    tag_446:\n        /* \"#utility.yul\":9777:9870   */\n      swap4\n      pop\n        /* \"#utility.yul\":9894:9950   */\n      tag_447\n        /* \"#utility.yul\":9944:9949   */\n      dup4\n        /* \"#utility.yul\":9894:9950   */\n      tag_312\n      jump\t// in\n    tag_447:\n        /* \"#utility.yul\":9973:9980   */\n      dup1\n        /* \"#utility.yul\":10004:10005   */\n      0x00\n        /* \"#utility.yul\":9989:10273   */\n    tag_448:\n        /* \"#utility.yul\":10014:10020   */\n      dup4\n        /* \"#utility.yul\":10011:10012   */\n      dup2\n        /* \"#utility.yul\":10008:10021   */\n      lt\n        /* \"#utility.yul\":9989:10273   */\n      iszero\n      tag_450\n      jumpi\n        /* \"#utility.yul\":10090:10096   */\n      dup2\n        /* \"#utility.yul\":10084:10097   */\n      mload\n        /* \"#utility.yul\":10117:10180   */\n      tag_451\n        /* \"#utility.yul\":10176:10179   */\n      dup9\n        /* \"#utility.yul\":10161:10174   */\n      dup3\n        /* \"#utility.yul\":10117:10180   */\n      tag_314\n      jump\t// in\n    tag_451:\n        /* \"#utility.yul\":10110:10180   */\n      swap8\n      pop\n        /* \"#utility.yul\":10203:10263   */\n      tag_452\n        /* \"#utility.yul\":10256:10262   */\n      dup4\n        /* \"#utility.yul\":10203:10263   */\n      tag_315\n      jump\t// in\n    tag_452:\n        /* \"#utility.yul\":10193:10263   */\n      swap3\n      pop\n        /* \"#utility.yul\":10049:10273   */\n      pop\n        /* \"#utility.yul\":10036:10037   */\n      0x01\n        /* \"#utility.yul\":10033:10034   */\n      dup2\n        /* \"#utility.yul\":10029:10038   */\n      add\n        /* \"#utility.yul\":10024:10038   */\n      swap1\n      pop\n        /* \"#utility.yul\":9989:10273   */\n      jump(tag_448)\n    tag_450:\n        /* \"#utility.yul\":9993:10007   */\n      pop\n        /* \"#utility.yul\":10289:10292   */\n      dup6\n        /* \"#utility.yul\":10282:10292   */\n      swap4\n      pop\n        /* \"#utility.yul\":9690:10298   */\n      pop\n      pop\n      pop\n        /* \"#utility.yul\":9566:10298   */\n      swap3\n      swap2\n      pop\n      pop\n      jump\t// out\n        /* \"#utility.yul\":10304:11119   */\n    tag_110:\n        /* \"#utility.yul\":10559:10563   */\n      0x00\n        /* \"#utility.yul\":10597:10600   */\n      0xa0\n        /* \"#utility.yul\":10586:10595   */\n      dup3\n        /* \"#utility.yul\":10582:10601   */\n      add\n        /* \"#utility.yul\":10574:10601   */\n      swap1\n      pop\n        /* \"#utility.yul\":10611:10682   */\n      tag_454\n        /* \"#utility.yul\":10679:10680   */\n      0x00\n        /* \"#utility.yul\":10668:10677   */\n      dup4\n        /* \"#utility.yul\":10664:10681   */\n      add\n        /* \"#utility.yul\":10655:10661   */\n      dup9\n        /* \"#utility.yul\":10611:10682   */\n      tag_304\n      jump\t// in\n    tag_454:\n        /* \"#utility.yul\":10692:10764   */\n      tag_455\n        /* \"#utility.yul\":10760:10762   */\n      0x20\n        /* \"#utility.yul\":10749:10758   */\n      dup4\n        /* \"#utility.yul\":10745:10763   */\n      add\n        /* \"#utility.yul\":10736:10742   */\n      dup8\n        /* \"#utility.yul\":10692:10764   */\n      tag_304\n      jump\t// in\n    tag_455:\n        /* \"#utility.yul\":10811:10820   */\n      dup2\n        /* \"#utility.yul\":10805:10809   */\n      dup2\n        /* \"#utility.yul\":10801:10821   */\n      sub\n        /* \"#utility.yul\":10796:10798   */\n      0x40\n        /* \"#utility.yul\":10785:10794   */\n      dup4\n        /* \"#utility.yul\":10781:10799   */\n      add\n        /* \"#utility.yul\":10774:10822   */\n      mstore\n        /* \"#utility.yul\":10839:10947   */\n      tag_456\n        /* \"#utility.yul\":10942:10946   */\n      dup2\n        /* \"#utility.yul\":10933:10939   */\n      dup7\n        /* \"#utility.yul\":10839:10947   */\n      tag_316\n      jump\t// in\n    tag_456:\n        /* \"#utility.yul\":10831:10947   */\n      swap1\n      pop\n        /* \"#utility.yul\":10957:11029   */\n      tag_457\n        /* \"#utility.yul\":11025:11027   */\n      0x60\n        /* \"#utility.yul\":11014:11023   */\n      dup4\n        /* \"#utility.yul\":11010:11028   */\n      add\n        /* \"#utility.yul\":11001:11007   */\n      dup6\n        /* \"#utility.yul\":10957:11029   */\n      tag_301\n      jump\t// in\n    tag_457:\n        /* \"#utility.yul\":11039:11112   */\n      tag_458\n        /* \"#utility.yul\":11107:11110   */\n      0x80\n        /* \"#utility.yul\":11096:11105   */\n      dup4\n        /* \"#utility.yul\":11092:11111   */\n      add\n        /* \"#utility.yul\":11083:11089   */\n      dup5\n        /* \"#utility.yul\":11039:11112   */\n      tag_304\n      jump\t// in\n    tag_458:\n        /* \"#utility.yul\":10304:11119   */\n      swap7\n      swap6\n      pop\n      pop\n      pop\n      pop\n      pop\n      pop\n      jump\t// out\n        /* \"#utility.yul\":11125:11242   */\n    tag_317:\n        /* \"#utility.yul\":11234:11235   */\n      0x00\n        /* \"#utility.yul\":11231:11232   */\n      dup1\n        /* \"#utility.yul\":11224:11236   */\n      revert\n        /* \"#utility.yul\":11248:11350   */\n    tag_318:\n        /* \"#utility.yul\":11289:11295   */\n      0x00\n        /* \"#utility.yul\":11340:11342   */\n      0x1f\n        /* \"#utility.yul\":11336:11343   */\n      not\n        /* \"#utility.yul\":11331:11333   */\n      0x1f\n        /* \"#utility.yul\":11324:11329   */\n      dup4\n        /* \"#utility.yul\":11320:11334   */\n      add\n        /* \"#utility.yul\":11316:11344   */\n      and\n        /* \"#utility.yul\":11306:11344   */\n      swap1\n      pop\n        /* \"#utility.yul\":11248:11350   */\n      swap2\n      swap1\n      pop\n      jump\t// out\n        /* \"#utility.yul\":11356:11637   */\n    tag_319:\n        /* \"#utility.yul\":11439:11466   */\n      tag_462\n        /* \"#utility.yul\":11461:11465   */\n      dup3\n        /* \"#utility.yul\":11439:11466   */\n      tag_318\n      jump\t// in\n    tag_462:\n        /* \"#utility.yul\":11431:11437   */\n      dup2\n        /* \"#utility.yul\":11427:11467   */\n      add\n        /* \"#utility.yul\":11569:11575   */\n      dup2\n        /* \"#utility.yul\":11557:11567   */\n      dup2\n        /* \"#utility.yul\":11554:11576   */\n      lt\n        /* \"#utility.yul\":11533:11551   */\n      0xffffffffffffffff\n        /* \"#utility.yul\":11521:11531   */\n      dup3\n        /* \"#utility.yul\":11518:11552   */\n      gt\n        /* \"#utility.yul\":11515:11577   */\n      or\n        /* \"#utility.yul\":11512:11600   */\n      iszero\n      tag_463\n      jumpi\n        /* \"#utility.yul\":11580:11598   */\n      tag_464\n      tag_98\n      jump\t// in\n    tag_464:\n        /* \"#utility.yul\":11512:11600   */\n    tag_463:\n        /* \"#utility.yul\":11620:11630   */\n      dup1\n        /* \"#utility.yul\":11616:11618   */\n      0x40\n        /* \"#utility.yul\":11609:11631   */\n      mstore\n        /* \"#utility.yul\":11399:11637   */\n      pop\n        /* \"#utility.yul\":11356:11637   */\n      pop\n      pop\n      jump\t// out\n        /* \"#utility.yul\":11643:11772   */\n    tag_320:\n        /* \"#utility.yul\":11677:11683   */\n      0x00\n        /* \"#utility.yul\":11704:11724   */\n      tag_466\n      tag_286\n      jump\t// in\n    tag_466:\n        /* \"#utility.yul\":11694:11724   */\n      swap1\n      pop\n        /* \"#utility.yul\":11733:11766   */\n      tag_467\n        /* \"#utility.yul\":11761:11765   */\n      dup3\n        /* \"#utility.yul\":11753:11759   */\n      dup3\n        /* \"#utility.yul\":11733:11766   */\n      tag_319\n      jump\t// in\n    tag_467:\n        /* \"#utility.yul\":11643:11772   */\n      swap2\n      swap1\n      pop\n      jump\t// out\n        /* \"#utility.yul\":11778:12089   */\n    tag_321:\n        /* \"#utility.yul\":11855:11859   */\n      0x00\n        /* \"#utility.yul\":11945:11963   */\n      0xffffffffffffffff\n        /* \"#utility.yul\":11937:11943   */\n      dup3\n        /* \"#utility.yul\":11934:11964   */\n      gt\n        /* \"#utility.yul\":11931:11987   */\n      iszero\n      tag_469\n      jumpi\n        /* \"#utility.yul\":11967:11985   */\n      tag_470\n      tag_98\n      jump\t// in\n    tag_470:\n        /* \"#utility.yul\":11931:11987   */\n    tag_469:\n        /* \"#utility.yul\":12017:12021   */\n      0x20\n        /* \"#utility.yul\":12009:12015   */\n      dup3\n        /* \"#utility.yul\":12005:12022   */\n      mul\n        /* \"#utility.yul\":11997:12022   */\n      swap1\n      pop\n        /* \"#utility.yul\":12077:12081   */\n      0x20\n        /* \"#utility.yul\":12071:12075   */\n      dup2\n        /* \"#utility.yul\":12067:12082   */\n      add\n        /* \"#utility.yul\":12059:12082   */\n      swap1\n      pop\n        /* \"#utility.yul\":11778:12089   */\n      swap2\n      swap1\n      pop\n      jump\t// out\n        /* \"#utility.yul\":12095:12212   */\n    tag_322:\n        /* \"#utility.yul\":12204:12205   */\n      0x00\n        /* \"#utility.yul\":12201:12202   */\n      dup1\n        /* \"#utility.yul\":12194:12206   */\n      revert\n        /* \"#utility.yul\":12218:12361   */\n    tag_323:\n        /* \"#utility.yul\":12275:12280   */\n      0x00\n        /* \"#utility.yul\":12306:12312   */\n      dup2\n        /* \"#utility.yul\":12300:12313   */\n      mload\n        /* \"#utility.yul\":12291:12313   */\n      swap1\n      pop\n        /* \"#utility.yul\":12322:12355   */\n      tag_473\n        /* \"#utility.yul\":12349:12354   */\n      dup2\n        /* \"#utility.yul\":12322:12355   */\n      tag_294\n      jump\t// in\n    tag_473:\n        /* \"#utility.yul\":12218:12361   */\n      swap3\n      swap2\n      pop\n      pop\n      jump\t// out\n        /* \"#utility.yul\":12384:13116   */\n    tag_324:\n        /* \"#utility.yul\":12491:12496   */\n      0x00\n        /* \"#utility.yul\":12516:12597   */\n      tag_475\n        /* \"#utility.yul\":12532:12596   */\n      tag_476\n        /* \"#utility.yul\":12589:12595   */\n      dup5\n        /* \"#utility.yul\":12532:12596   */\n      tag_321\n      jump\t// in\n    tag_476:\n        /* \"#utility.yul\":12516:12597   */\n      tag_320\n      jump\t// in\n    tag_475:\n        /* \"#utility.yul\":12507:12597   */\n      swap1\n      pop\n        /* \"#utility.yul\":12617:12622   */\n      dup1\n        /* \"#utility.yul\":12646:12652   */\n      dup4\n        /* \"#utility.yul\":12639:12644   */\n      dup3\n        /* \"#utility.yul\":12632:12653   */\n      mstore\n        /* \"#utility.yul\":12680:12684   */\n      0x20\n        /* \"#utility.yul\":12673:12678   */\n      dup3\n        /* \"#utility.yul\":12669:12685   */\n      add\n        /* \"#utility.yul\":12662:12685   */\n      swap1\n      pop\n        /* \"#utility.yul\":12733:12737   */\n      0x20\n        /* \"#utility.yul\":12725:12731   */\n      dup5\n        /* \"#utility.yul\":12721:12738   */\n      mul\n        /* \"#utility.yul\":12713:12719   */\n      dup4\n        /* \"#utility.yul\":12709:12739   */\n      add\n        /* \"#utility.yul\":12762:12765   */\n      dup6\n        /* \"#utility.yul\":12754:12760   */\n      dup2\n        /* \"#utility.yul\":12751:12766   */\n      gt\n        /* \"#utility.yul\":12748:12870   */\n      iszero\n      tag_477\n      jumpi\n        /* \"#utility.yul\":12781:12860   */\n      tag_478\n      tag_322\n      jump\t// in\n    tag_478:\n        /* \"#utility.yul\":12748:12870   */\n    tag_477:\n        /* \"#utility.yul\":12896:12902   */\n      dup4\n        /* \"#utility.yul\":12879:13110   */\n    tag_479:\n        /* \"#utility.yul\":12913:12919   */\n      dup2\n        /* \"#utility.yul\":12908:12911   */\n      dup2\n        /* \"#utility.yul\":12905:12920   */\n      lt\n        /* \"#utility.yul\":12879:13110   */\n      iszero\n      tag_481\n      jumpi\n        /* \"#utility.yul\":12988:12991   */\n      dup1\n        /* \"#utility.yul\":13017:13065   */\n      tag_482\n        /* \"#utility.yul\":13061:13064   */\n      dup9\n        /* \"#utility.yul\":13049:13059   */\n      dup3\n        /* \"#utility.yul\":13017:13065   */\n      tag_323\n      jump\t// in\n    tag_482:\n        /* \"#utility.yul\":13012:13015   */\n      dup5\n        /* \"#utility.yul\":13005:13066   */\n      mstore\n        /* \"#utility.yul\":13095:13099   */\n      0x20\n        /* \"#utility.yul\":13090:13093   */\n      dup5\n        /* \"#utility.yul\":13086:13100   */\n      add\n        /* \"#utility.yul\":13079:13100   */\n      swap4\n      pop\n        /* \"#utility.yul\":12955:13110   */\n      pop\n        /* \"#utility.yul\":12939:12943   */\n      0x20\n        /* \"#utility.yul\":12934:12937   */\n      dup2\n        /* \"#utility.yul\":12930:12944   */\n      add\n        /* \"#utility.yul\":12923:12944   */\n      swap1\n      pop\n        /* \"#utility.yul\":12879:13110   */\n      jump(tag_479)\n    tag_481:\n        /* \"#utility.yul\":12883:12904   */\n      pop\n        /* \"#utility.yul\":12497:13116   */\n      pop\n      pop\n        /* \"#utility.yul\":12384:13116   */\n      swap4\n      swap3\n      pop\n      pop\n      pop\n      jump\t// out\n        /* \"#utility.yul\":13139:13524   */\n    tag_325:\n        /* \"#utility.yul\":13221:13226   */\n      0x00\n        /* \"#utility.yul\":13270:13273   */\n      dup3\n        /* \"#utility.yul\":13263:13267   */\n      0x1f\n        /* \"#utility.yul\":13255:13261   */\n      dup4\n        /* \"#utility.yul\":13251:13268   */\n      add\n        /* \"#utility.yul\":13247:13274   */\n      slt\n        /* \"#utility.yul\":13237:13359   */\n      tag_484\n      jumpi\n        /* \"#utility.yul\":13278:13357   */\n      tag_485\n      tag_317\n      jump\t// in\n    tag_485:\n        /* \"#utility.yul\":13237:13359   */\n    tag_484:\n        /* \"#utility.yul\":13388:13394   */\n      dup2\n        /* \"#utility.yul\":13382:13395   */\n      mload\n        /* \"#utility.yul\":13413:13518   */\n      tag_486\n        /* \"#utility.yul\":13514:13517   */\n      dup5\n        /* \"#utility.yul\":13506:13512   */\n      dup3\n        /* \"#utility.yul\":13499:13503   */\n      0x20\n        /* \"#utility.yul\":13491:13497   */\n      dup7\n        /* \"#utility.yul\":13487:13504   */\n      add\n        /* \"#utility.yul\":13413:13518   */\n      tag_324\n      jump\t// in\n    tag_486:\n        /* \"#utility.yul\":13404:13518   */\n      swap2\n      pop\n        /* \"#utility.yul\":13227:13524   */\n      pop\n        /* \"#utility.yul\":13139:13524   */\n      swap3\n      swap2\n      pop\n      pop\n      jump\t// out\n        /* \"#utility.yul\":13530:14084   */\n    tag_114:\n        /* \"#utility.yul\":13625:13631   */\n      0x00\n        /* \"#utility.yul\":13674:13676   */\n      0x20\n        /* \"#utility.yul\":13662:13671   */\n      dup3\n        /* \"#utility.yul\":13653:13660   */\n      dup5\n        /* \"#utility.yul\":13649:13672   */\n      sub\n        /* \"#utility.yul\":13645:13677   */\n      slt\n        /* \"#utility.yul\":13642:13761   */\n      iszero\n      tag_488\n      jumpi\n        /* \"#utility.yul\":13680:13759   */\n      tag_489\n      tag_287\n      jump\t// in\n    tag_489:\n        /* \"#utility.yul\":13642:13761   */\n    tag_488:\n        /* \"#utility.yul\":13821:13822   */\n      0x00\n        /* \"#utility.yul\":13810:13819   */\n      dup3\n        /* \"#utility.yul\":13806:13823   */\n      add\n        /* \"#utility.yul\":13800:13824   */\n      mload\n        /* \"#utility.yul\":13851:13869   */\n      0xffffffffffffffff\n        /* \"#utility.yul\":13843:13849   */\n      dup2\n        /* \"#utility.yul\":13840:13870   */\n      gt\n        /* \"#utility.yul\":13837:13954   */\n      iszero\n      tag_490\n      jumpi\n        /* \"#utility.yul\":13873:13952   */\n      tag_491\n      tag_288\n      jump\t// in\n    tag_491:\n        /* \"#utility.yul\":13837:13954   */\n    tag_490:\n        /* \"#utility.yul\":13978:14067   */\n      tag_492\n        /* \"#utility.yul\":14059:14066   */\n      dup5\n        /* \"#utility.yul\":14050:14056   */\n      dup3\n        /* \"#utility.yul\":14039:14048   */\n      dup6\n        /* \"#utility.yul\":14035:14057   */\n      add\n        /* \"#utility.yul\":13978:14067   */\n      tag_325\n      jump\t// in\n    tag_492:\n        /* \"#utility.yul\":13968:14067   */\n      swap2\n      pop\n        /* \"#utility.yul\":13771:14077   */\n      pop\n        /* \"#utility.yul\":13530:14084   */\n      swap3\n      swap2\n      pop\n      pop\n      jump\t// out\n        /* \"#utility.yul\":14090:14270   */\n    tag_326:\n        /* \"#utility.yul\":14138:14215   */\n      0x4e487b7100000000000000000000000000000000000000000000000000000000\n        /* \"#utility.yul\":14135:14136   */\n      0x00\n        /* \"#utility.yul\":14128:14216   */\n      mstore\n        /* \"#utility.yul\":14235:14239   */\n      0x11\n        /* \"#utility.yul\":14232:14233   */\n      0x04\n        /* \"#utility.yul\":14225:14240   */\n      mstore\n        /* \"#utility.yul\":14259:14263   */\n      0x24\n        /* \"#utility.yul\":14256:14257   */\n      0x00\n        /* \"#utility.yul\":14249:14264   */\n      revert\n        /* \"#utility.yul\":14276:14686   */\n    tag_118:\n        /* \"#utility.yul\":14316:14323   */\n      0x00\n        /* \"#utility.yul\":14339:14359   */\n      tag_495\n        /* \"#utility.yul\":14357:14358   */\n      dup3\n        /* \"#utility.yul\":14339:14359   */\n      tag_293\n      jump\t// in\n    tag_495:\n        /* \"#utility.yul\":14334:14359   */\n      swap2\n      pop\n        /* \"#utility.yul\":14373:14393   */\n      tag_496\n        /* \"#utility.yul\":14391:14392   */\n      dup4\n        /* \"#utility.yul\":14373:14393   */\n      tag_293\n      jump\t// in\n    tag_496:\n        /* \"#utility.yul\":14368:14393   */\n      swap3\n      pop\n        /* \"#utility.yul\":14428:14429   */\n      dup3\n        /* \"#utility.yul\":14425:14426   */\n      dup3\n        /* \"#utility.yul\":14421:14430   */\n      mul\n        /* \"#utility.yul\":14450:14480   */\n      tag_497\n        /* \"#utility.yul\":14468:14479   */\n      dup2\n        /* \"#utility.yul\":14450:14480   */\n      tag_293\n      jump\t// in\n    tag_497:\n        /* \"#utility.yul\":14439:14480   */\n      swap2\n      pop\n        /* \"#utility.yul\":14629:14630   */\n      dup3\n        /* \"#utility.yul\":14620:14627   */\n      dup3\n        /* \"#utility.yul\":14616:14631   */\n      div\n        /* \"#utility.yul\":14613:14614   */\n      dup5\n        /* \"#utility.yul\":14610:14632   */\n      eq\n        /* \"#utility.yul\":14590:14591   */\n      dup4\n        /* \"#utility.yul\":14583:14592   */\n      iszero\n        /* \"#utility.yul\":14563:14646   */\n      or\n        /* \"#utility.yul\":14540:14679   */\n      tag_498\n      jumpi\n        /* \"#utility.yul\":14659:14677   */\n      tag_499\n      tag_326\n      jump\t// in\n    tag_499:\n        /* \"#utility.yul\":14540:14679   */\n    tag_498:\n        /* \"#utility.yul\":14324:14686   */\n      pop\n        /* \"#utility.yul\":14276:14686   */\n      swap3\n      swap2\n      pop\n      pop\n      jump\t// out\n        /* \"#utility.yul\":14692:14872   */\n    tag_327:\n        /* \"#utility.yul\":14740:14817   */\n      0x4e487b7100000000000000000000000000000000000000000000000000000000\n        /* \"#utility.yul\":14737:14738   */\n      0x00\n        /* \"#utility.yul\":14730:14818   */\n      mstore\n        /* \"#utility.yul\":14837:14841   */\n      0x12\n        /* \"#utility.yul\":14834:14835   */\n      0x04\n        /* \"#utility.yul\":14827:14842   */\n      mstore\n        /* \"#utility.yul\":14861:14865   */\n      0x24\n        /* \"#utility.yul\":14858:14859   */\n      0x00\n        /* \"#utility.yul\":14851:14866   */\n      revert\n        /* \"#utility.yul\":14878:15063   */\n    tag_120:\n        /* \"#utility.yul\":14918:14919   */\n      0x00\n        /* \"#utility.yul\":14935:14955   */\n      tag_502\n        /* \"#utility.yul\":14953:14954   */\n      dup3\n        /* \"#utility.yul\":14935:14955   */\n      tag_293\n      jump\t// in\n    tag_502:\n        /* \"#utility.yul\":14930:14955   */\n      swap2\n      pop\n        /* \"#utility.yul\":14969:14989   */\n      tag_503\n        /* \"#utility.yul\":14987:14988   */\n      dup4\n        /* \"#utility.yul\":14969:14989   */\n      tag_293\n      jump\t// in\n    tag_503:\n        /* \"#utility.yul\":14964:14989   */\n      swap3\n      pop\n        /* \"#utility.yul\":15008:15009   */\n      dup3\n        /* \"#utility.yul\":14998:15033   */\n      tag_504\n      jumpi\n        /* \"#utility.yul\":15013:15031   */\n      tag_505\n      tag_327\n      jump\t// in\n    tag_505:\n        /* \"#utility.yul\":14998:15033   */\n    tag_504:\n        /* \"#utility.yul\":15055:15056   */\n      dup3\n        /* \"#utility.yul\":15052:15053   */\n      dup3\n        /* \"#utility.yul\":15048:15057   */\n      div\n        /* \"#utility.yul\":15043:15057   */\n      swap1\n      pop\n        /* \"#utility.yul\":14878:15063   */\n      swap3\n      swap2\n      pop\n      pop\n      jump\t// out\n        /* \"#utility.yul\":15069:15263   */\n    tag_128:\n        /* \"#utility.yul\":15109:15113   */\n      0x00\n        /* \"#utility.yul\":15129:15149   */\n      tag_507\n        /* \"#utility.yul\":15147:15148   */\n      dup3\n        /* \"#utility.yul\":15129:15149   */\n      tag_293\n      jump\t// in\n    tag_507:\n        /* \"#utility.yul\":15124:15149   */\n      swap2\n      pop\n        /* \"#utility.yul\":15163:15183   */\n      tag_508\n        /* \"#utility.yul\":15181:15182   */\n      dup4\n        /* \"#utility.yul\":15163:15183   */\n      tag_293\n      jump\t// in\n    tag_508:\n        /* \"#utility.yul\":15158:15183   */\n      swap3\n      pop\n        /* \"#utility.yul\":15207:15208   */\n      dup3\n        /* \"#utility.yul\":15204:15205   */\n      dup3\n        /* \"#utility.yul\":15200:15209   */\n      sub\n        /* \"#utility.yul\":15192:15209   */\n      swap1\n      pop\n        /* \"#utility.yul\":15231:15232   */\n      dup2\n        /* \"#utility.yul\":15225:15229   */\n      dup2\n        /* \"#utility.yul\":15222:15233   */\n      gt\n        /* \"#utility.yul\":15219:15256   */\n      iszero\n      tag_509\n      jumpi\n        /* \"#utility.yul\":15236:15254   */\n      tag_510\n      tag_326\n      jump\t// in\n    tag_510:\n        /* \"#utility.yul\":15219:15256   */\n    tag_509:\n        /* \"#utility.yul\":15069:15263   */\n      swap3\n      swap2\n      pop\n      pop\n      jump\t// out\n        /* \"#utility.yul\":15269:15601   */\n    tag_132:\n        /* \"#utility.yul\":15390:15394   */\n      0x00\n        /* \"#utility.yul\":15428:15430   */\n      0x40\n        /* \"#utility.yul\":15417:15426   */\n      dup3\n        /* \"#utility.yul\":15413:15431   */\n      add\n        /* \"#utility.yul\":15405:15431   */\n      swap1\n      pop\n        /* \"#utility.yul\":15441:15512   */\n      tag_512\n        /* \"#utility.yul\":15509:15510   */\n      0x00\n        /* \"#utility.yul\":15498:15507   */\n      dup4\n        /* \"#utility.yul\":15494:15511   */\n      add\n        /* \"#utility.yul\":15485:15491   */\n      dup6\n        /* \"#utility.yul\":15441:15512   */\n      tag_304\n      jump\t// in\n    tag_512:\n        /* \"#utility.yul\":15522:15594   */\n      tag_513\n        /* \"#utility.yul\":15590:15592   */\n      0x20\n        /* \"#utility.yul\":15579:15588   */\n      dup4\n        /* \"#utility.yul\":15575:15593   */\n      add\n        /* \"#utility.yul\":15566:15572   */\n      dup5\n        /* \"#utility.yul\":15522:15594   */\n      tag_304\n      jump\t// in\n    tag_513:\n        /* \"#utility.yul\":15269:15601   */\n      swap4\n      swap3\n      pop\n      pop\n      pop\n      jump\t// out\n        /* \"#utility.yul\":15607:15776   */\n    tag_328:\n        /* \"#utility.yul\":15691:15702   */\n      0x00\n        /* \"#utility.yul\":15725:15731   */\n      dup3\n        /* \"#utility.yul\":15720:15723   */\n      dup3\n        /* \"#utility.yul\":15713:15732   */\n      mstore\n        /* \"#utility.yul\":15765:15769   */\n      0x20\n        /* \"#utility.yul\":15760:15763   */\n      dup3\n        /* \"#utility.yul\":15756:15770   */\n      add\n        /* \"#utility.yul\":15741:15770   */\n      swap1\n      pop\n        /* \"#utility.yul\":15607:15776   */\n      swap3\n      swap2\n      pop\n      pop\n      jump\t// out\n        /* \"#utility.yul\":15782:15947   */\n    tag_329:\n        /* \"#utility.yul\":15922:15939   */\n      0x496e76616c696420616464726573730000000000000000000000000000000000\n        /* \"#utility.yul\":15918:15919   */\n      0x00\n        /* \"#utility.yul\":15910:15916   */\n      dup3\n        /* \"#utility.yul\":15906:15920   */\n      add\n        /* \"#utility.yul\":15899:15940   */\n      mstore\n        /* \"#utility.yul\":15782:15947   */\n      pop\n      jump\t// out\n        /* \"#utility.yul\":15953:16319   */\n    tag_330:\n        /* \"#utility.yul\":16095:16098   */\n      0x00\n        /* \"#utility.yul\":16116:16183   */\n      tag_517\n        /* \"#utility.yul\":16180:16182   */\n      0x0f\n        /* \"#utility.yul\":16175:16178   */\n      dup4\n        /* \"#utility.yul\":16116:16183   */\n      tag_328\n      jump\t// in\n    tag_517:\n        /* \"#utility.yul\":16109:16183   */\n      swap2\n      pop\n        /* \"#utility.yul\":16192:16285   */\n      tag_518\n        /* \"#utility.yul\":16281:16284   */\n      dup3\n        /* \"#utility.yul\":16192:16285   */\n      tag_329\n      jump\t// in\n    tag_518:\n        /* \"#utility.yul\":16310:16312   */\n      0x20\n        /* \"#utility.yul\":16305:16308   */\n      dup3\n        /* \"#utility.yul\":16301:16313   */\n      add\n        /* \"#utility.yul\":16294:16313   */\n      swap1\n      pop\n        /* \"#utility.yul\":15953:16319   */\n      swap2\n      swap1\n      pop\n      jump\t// out\n        /* \"#utility.yul\":16325:16744   */\n    tag_139:\n        /* \"#utility.yul\":16491:16495   */\n      0x00\n        /* \"#utility.yul\":16529:16531   */\n      0x20\n        /* \"#utility.yul\":16518:16527   */\n      dup3\n        /* \"#utility.yul\":16514:16532   */\n      add\n        /* \"#utility.yul\":16506:16532   */\n      swap1\n      pop\n        /* \"#utility.yul\":16578:16587   */\n      dup2\n        /* \"#utility.yul\":16572:16576   */\n      dup2\n        /* \"#utility.yul\":16568:16588   */\n      sub\n        /* \"#utility.yul\":16564:16565   */\n      0x00\n        /* \"#utility.yul\":16553:16562   */\n      dup4\n        /* \"#utility.yul\":16549:16566   */\n      add\n        /* \"#utility.yul\":16542:16589   */\n      mstore\n        /* \"#utility.yul\":16606:16737   */\n      tag_520\n        /* \"#utility.yul\":16732:16736   */\n      dup2\n        /* \"#utility.yul\":16606:16737   */\n      tag_330\n      jump\t// in\n    tag_520:\n        /* \"#utility.yul\":16598:16737   */\n      swap1\n      pop\n        /* \"#utility.yul\":16325:16744   */\n      swap2\n      swap1\n      pop\n      jump\t// out\n        /* \"#utility.yul\":16750:17233   */\n    tag_159:\n        /* \"#utility.yul\":16921:16925   */\n      0x00\n        /* \"#utility.yul\":16959:16961   */\n      0x40\n        /* \"#utility.yul\":16948:16957   */\n      dup3\n        /* \"#utility.yul\":16944:16962   */\n      add\n        /* \"#utility.yul\":16936:16962   */\n      swap1\n      pop\n        /* \"#utility.yul\":16972:17043   */\n      tag_522\n        /* \"#utility.yul\":17040:17041   */\n      0x00\n        /* \"#utility.yul\":17029:17038   */\n      dup4\n        /* \"#utility.yul\":17025:17042   */\n      add\n        /* \"#utility.yul\":17016:17022   */\n      dup6\n        /* \"#utility.yul\":16972:17043   */\n      tag_304\n      jump\t// in\n    tag_522:\n        /* \"#utility.yul\":17090:17099   */\n      dup2\n        /* \"#utility.yul\":17084:17088   */\n      dup2\n        /* \"#utility.yul\":17080:17100   */\n      sub\n        /* \"#utility.yul\":17075:17077   */\n      0x20\n        /* \"#utility.yul\":17064:17073   */\n      dup4\n        /* \"#utility.yul\":17060:17078   */\n      add\n        /* \"#utility.yul\":17053:17101   */\n      mstore\n        /* \"#utility.yul\":17118:17226   */\n      tag_523\n        /* \"#utility.yul\":17221:17225   */\n      dup2\n        /* \"#utility.yul\":17212:17218   */\n      dup5\n        /* \"#utility.yul\":17118:17226   */\n      tag_316\n      jump\t// in\n    tag_523:\n        /* \"#utility.yul\":17110:17226   */\n      swap1\n      pop\n        /* \"#utility.yul\":16750:17233   */\n      swap4\n      swap3\n      pop\n      pop\n      pop\n      jump\t// out\n        /* \"#utility.yul\":17239:17465   */\n    tag_331:\n        /* \"#utility.yul\":17379:17413   */\n      0x457374696d617465642067617320636f73742065786365656473206d696e416d\n        /* \"#utility.yul\":17375:17376   */\n      0x00\n        /* \"#utility.yul\":17367:17373   */\n      dup3\n        /* \"#utility.yul\":17363:17377   */\n      add\n        /* \"#utility.yul\":17356:17414   */\n      mstore\n        /* \"#utility.yul\":17448:17457   */\n      0x6f756e744f757400000000000000000000000000000000000000000000000000\n        /* \"#utility.yul\":17443:17445   */\n      0x20\n        /* \"#utility.yul\":17435:17441   */\n      dup3\n        /* \"#utility.yul\":17431:17446   */\n      add\n        /* \"#utility.yul\":17424:17458   */\n      mstore\n        /* \"#utility.yul\":17239:17465   */\n      pop\n      jump\t// out\n        /* \"#utility.yul\":17471:17837   */\n    tag_332:\n        /* \"#utility.yul\":17613:17616   */\n      0x00\n        /* \"#utility.yul\":17634:17701   */\n      tag_526\n        /* \"#utility.yul\":17698:17700   */\n      0x27\n        /* \"#utility.yul\":17693:17696   */\n      dup4\n        /* \"#utility.yul\":17634:17701   */\n      tag_328\n      jump\t// in\n    tag_526:\n        /* \"#utility.yul\":17627:17701   */\n      swap2\n      pop\n        /* \"#utility.yul\":17710:17803   */\n      tag_527\n        /* \"#utility.yul\":17799:17802   */\n      dup3\n        /* \"#utility.yul\":17710:17803   */\n      tag_331\n      jump\t// in\n    tag_527:\n        /* \"#utility.yul\":17828:17830   */\n      0x40\n        /* \"#utility.yul\":17823:17826   */\n      dup3\n        /* \"#utility.yul\":17819:17831   */\n      add\n        /* \"#utility.yul\":17812:17831   */\n      swap1\n      pop\n        /* \"#utility.yul\":17471:17837   */\n      swap2\n      swap1\n      pop\n      jump\t// out\n        /* \"#utility.yul\":17843:18262   */\n    tag_202:\n        /* \"#utility.yul\":18009:18013   */\n      0x00\n        /* \"#utility.yul\":18047:18049   */\n      0x20\n        /* \"#utility.yul\":18036:18045   */\n      dup3\n        /* \"#utility.yul\":18032:18050   */\n      add\n        /* \"#utility.yul\":18024:18050   */\n      swap1\n      pop\n        /* \"#utility.yul\":18096:18105   */\n      dup2\n        /* \"#utility.yul\":18090:18094   */\n      dup2\n        /* \"#utility.yul\":18086:18106   */\n      sub\n        /* \"#utility.yul\":18082:18083   */\n      0x00\n        /* \"#utility.yul\":18071:18080   */\n      dup4\n        /* \"#utility.yul\":18067:18084   */\n      add\n        /* \"#utility.yul\":18060:18107   */\n      mstore\n        /* \"#utility.yul\":18124:18255   */\n      tag_529\n        /* \"#utility.yul\":18250:18254   */\n      dup2\n        /* \"#utility.yul\":18124:18255   */\n      tag_332\n      jump\t// in\n    tag_529:\n        /* \"#utility.yul\":18116:18255   */\n      swap1\n      pop\n        /* \"#utility.yul\":17843:18262   */\n      swap2\n      swap1\n      pop\n      jump\t// out\n        /* \"#utility.yul\":18268:18439   */\n    tag_333:\n        /* \"#utility.yul\":18408:18431   */\n      0x5377617020457870656374656420746f204661696c0000000000000000000000\n        /* \"#utility.yul\":18404:18405   */\n      0x00\n        /* \"#utility.yul\":18396:18402   */\n      dup3\n        /* \"#utility.yul\":18392:18406   */\n      add\n        /* \"#utility.yul\":18385:18432   */\n      mstore\n        /* \"#utility.yul\":18268:18439   */\n      pop\n      jump\t// out\n        /* \"#utility.yul\":18445:18811   */\n    tag_334:\n        /* \"#utility.yul\":18587:18590   */\n      0x00\n        /* \"#utility.yul\":18608:18675   */\n      tag_532\n        /* \"#utility.yul\":18672:18674   */\n      0x15\n        /* \"#utility.yul\":18667:18670   */\n      dup4\n        /* \"#utility.yul\":18608:18675   */\n      tag_328\n      jump\t// in\n    tag_532:\n        /* \"#utility.yul\":18601:18675   */\n      swap2\n      pop\n        /* \"#utility.yul\":18684:18777   */\n      tag_533\n        /* \"#utility.yul\":18773:18776   */\n      dup3\n        /* \"#utility.yul\":18684:18777   */\n      tag_333\n      jump\t// in\n    tag_533:\n        /* \"#utility.yul\":18802:18804   */\n      0x20\n        /* \"#utility.yul\":18797:18800   */\n      dup3\n        /* \"#utility.yul\":18793:18805   */\n      add\n        /* \"#utility.yul\":18786:18805   */\n      swap1\n      pop\n        /* \"#utility.yul\":18445:18811   */\n      swap2\n      swap1\n      pop\n      jump\t// out\n        /* \"#utility.yul\":18817:19236   */\n    tag_206:\n        /* \"#utility.yul\":18983:18987   */\n      0x00\n        /* \"#utility.yul\":19021:19023   */\n      0x20\n        /* \"#utility.yul\":19010:19019   */\n      dup3\n        /* \"#utility.yul\":19006:19024   */\n      add\n        /* \"#utility.yul\":18998:19024   */\n      swap1\n      pop\n        /* \"#utility.yul\":19070:19079   */\n      dup2\n        /* \"#utility.yul\":19064:19068   */\n      dup2\n        /* \"#utility.yul\":19060:19080   */\n      sub\n        /* \"#utility.yul\":19056:19057   */\n      0x00\n        /* \"#utility.yul\":19045:19054   */\n      dup4\n        /* \"#utility.yul\":19041:19058   */\n      add\n        /* \"#utility.yul\":19034:19081   */\n      mstore\n        /* \"#utility.yul\":19098:19229   */\n      tag_535\n        /* \"#utility.yul\":19224:19228   */\n      dup2\n        /* \"#utility.yul\":19098:19229   */\n      tag_334\n      jump\t// in\n    tag_535:\n        /* \"#utility.yul\":19090:19229   */\n      swap1\n      pop\n        /* \"#utility.yul\":18817:19236   */\n      swap2\n      swap1\n      pop\n      jump\t// out\n        /* \"#utility.yul\":19242:19471   */\n    tag_335:\n        /* \"#utility.yul\":19382:19416   */\n      0x457870656374656420616d6f756e74206c657373207468616e206d696e696d75\n        /* \"#utility.yul\":19378:19379   */\n      0x00\n        /* \"#utility.yul\":19370:19376   */\n      dup3\n        /* \"#utility.yul\":19366:19380   */\n      add\n        /* \"#utility.yul\":19359:19417   */\n      mstore\n        /* \"#utility.yul\":19451:19463   */\n      0x6d20726571756972656400000000000000000000000000000000000000000000\n        /* \"#utility.yul\":19446:19448   */\n      0x20\n        /* \"#utility.yul\":19438:19444   */\n      dup3\n        /* \"#utility.yul\":19434:19449   */\n      add\n        /* \"#utility.yul\":19427:19464   */\n      mstore\n        /* \"#utility.yul\":19242:19471   */\n      pop\n      jump\t// out\n        /* \"#utility.yul\":19477:19843   */\n    tag_336:\n        /* \"#utility.yul\":19619:19622   */\n      0x00\n        /* \"#utility.yul\":19640:19707   */\n      tag_538\n        /* \"#utility.yul\":19704:19706   */\n      0x2a\n        /* \"#utility.yul\":19699:19702   */\n      dup4\n        /* \"#utility.yul\":19640:19707   */\n      tag_328\n      jump\t// in\n    tag_538:\n        /* \"#utility.yul\":19633:19707   */\n      swap2\n      pop\n        /* \"#utility.yul\":19716:19809   */\n      tag_539\n        /* \"#utility.yul\":19805:19808   */\n      dup3\n        /* \"#utility.yul\":19716:19809   */\n      tag_335\n      jump\t// in\n    tag_539:\n        /* \"#utility.yul\":19834:19836   */\n      0x40\n        /* \"#utility.yul\":19829:19832   */\n      dup3\n        /* \"#utility.yul\":19825:19837   */\n      add\n        /* \"#utility.yul\":19818:19837   */\n      swap1\n      pop\n        /* \"#utility.yul\":19477:19843   */\n      swap2\n      swap1\n      pop\n      jump\t// out\n        /* \"#utility.yul\":19849:20268   */\n    tag_225:\n        /* \"#utility.yul\":20015:20019   */\n      0x00\n        /* \"#utility.yul\":20053:20055   */\n      0x20\n        /* \"#utility.yul\":20042:20051   */\n      dup3\n        /* \"#utility.yul\":20038:20056   */\n      add\n        /* \"#utility.yul\":20030:20056   */\n      swap1\n      pop\n        /* \"#utility.yul\":20102:20111   */\n      dup2\n        /* \"#utility.yul\":20096:20100   */\n      dup2\n        /* \"#utility.yul\":20092:20112   */\n      sub\n        /* \"#utility.yul\":20088:20089   */\n      0x00\n        /* \"#utility.yul\":20077:20086   */\n      dup4\n        /* \"#utility.yul\":20073:20090   */\n      add\n        /* \"#utility.yul\":20066:20113   */\n      mstore\n        /* \"#utility.yul\":20130:20261   */\n      tag_541\n        /* \"#utility.yul\":20256:20260   */\n      dup2\n        /* \"#utility.yul\":20130:20261   */\n      tag_336\n      jump\t// in\n    tag_541:\n        /* \"#utility.yul\":20122:20261   */\n      swap1\n      pop\n        /* \"#utility.yul\":19849:20268   */\n      swap2\n      swap1\n      pop\n      jump\t// out\n        /* \"#utility.yul\":20274:20465   */\n    tag_253:\n        /* \"#utility.yul\":20314:20317   */\n      0x00\n        /* \"#utility.yul\":20333:20353   */\n      tag_543\n        /* \"#utility.yul\":20351:20352   */\n      dup3\n        /* \"#utility.yul\":20333:20353   */\n      tag_293\n      jump\t// in\n    tag_543:\n        /* \"#utility.yul\":20328:20353   */\n      swap2\n      pop\n        /* \"#utility.yul\":20367:20387   */\n      tag_544\n        /* \"#utility.yul\":20385:20386   */\n      dup4\n        /* \"#utility.yul\":20367:20387   */\n      tag_293\n      jump\t// in\n    tag_544:\n        /* \"#utility.yul\":20362:20387   */\n      swap3\n      pop\n        /* \"#utility.yul\":20410:20411   */\n      dup3\n        /* \"#utility.yul\":20407:20408   */\n      dup3\n        /* \"#utility.yul\":20403:20412   */\n      add\n        /* \"#utility.yul\":20396:20412   */\n      swap1\n      pop\n        /* \"#utility.yul\":20431:20434   */\n      dup1\n        /* \"#utility.yul\":20428:20429   */\n      dup3\n        /* \"#utility.yul\":20425:20435   */\n      gt\n        /* \"#utility.yul\":20422:20458   */\n      iszero\n      tag_545\n      jumpi\n        /* \"#utility.yul\":20438:20456   */\n      tag_546\n      tag_326\n      jump\t// in\n    tag_546:\n        /* \"#utility.yul\":20422:20458   */\n    tag_545:\n        /* \"#utility.yul\":20274:20465   */\n      swap3\n      swap2\n      pop\n      pop\n      jump\t// out\n\n    auxdata: 0xa264697066735822122022a4f3565dba5b293a1d21250af6fc942c2aa08937c271af3611688b22f2d70164736f6c63430008140033\n}\n",
				"bytecode": {
					"linkReferences": {},
					"object": "60806040526102ee60035534801562000016575f80fd5b50604051620025683803806200256883398181016040528101906200003c919062000270565b335f73ffffffffffffffffffffffffffffffffffffffff168173ffffffffffffffffffffffffffffffffffffffff1603620000b0575f6040517f1e4fbdf7000000000000000000000000000000000000000000000000000000008152600401620000a79190620002c6565b60405180910390fd5b620000c1816200014a60201b60201c565b508160015f6101000a81548173ffffffffffffffffffffffffffffffffffffffff021916908373ffffffffffffffffffffffffffffffffffffffff1602179055508060025f6101000a81548173ffffffffffffffffffffffffffffffffffffffff021916908373ffffffffffffffffffffffffffffffffffffffff1602179055505050620002e1565b5f805f9054906101000a900473ffffffffffffffffffffffffffffffffffffffff169050815f806101000a81548173ffffffffffffffffffffffffffffffffffffffff021916908373ffffffffffffffffffffffffffffffffffffffff1602179055508173ffffffffffffffffffffffffffffffffffffffff168173ffffffffffffffffffffffffffffffffffffffff167f8be0079c531659141344cd1fd0a4f28419497f9722a3daafe3b4186f6b6457e060405160405180910390a35050565b5f80fd5b5f73ffffffffffffffffffffffffffffffffffffffff82169050919050565b5f6200023a826200020f565b9050919050565b6200024c816200022e565b811462000257575f80fd5b50565b5f815190506200026a8162000241565b92915050565b5f80604083850312156200028957620002886200020b565b5b5f62000298858286016200025a565b9250506020620002ab858286016200025a565b9150509250929050565b620002c0816200022e565b82525050565b5f602082019050620002db5f830184620002b5565b92915050565b61227980620002ef5f395ff3fe6080604052600436106100dc575f3560e01c8063ad9902a11161007e578063e15cc8da11610058578063e15cc8da14610290578063f14210a6146102b8578063f2fde38b146102e0578063f6326fb314610308576100dc565b8063ad9902a1146101ee578063ae06c1b71461022c578063b479820914610254576100dc565b8063735de9f7116100ba578063735de9f7146101465780638da5cb5b1461017057806393ad74401461019a578063a001ecdd146101c4576100dc565b80630fe6a787146100e05780634e63c29e14610108578063715018a614610130575b5f80fd5b3480156100eb575f80fd5b506101066004803603810190610101919061187b565b610312565b005b348015610113575f80fd5b5061012e600480360381019061012991906118cb565b6107da565b005b34801561013b575f80fd5b506101446108ca565b005b348015610151575f80fd5b5061015a6108dd565b6040516101679190611951565b60405180910390f35b34801561017b575f80fd5b50610184610902565b6040516101919190611979565b60405180910390f35b3480156101a5575f80fd5b506101ae610929565b6040516101bb91906119b2565b60405180910390f35b3480156101cf575f80fd5b506101d861094e565b6040516101e591906119da565b60405180910390f35b3480156101f9575f80fd5b50610214600480360381019061020f91906119f3565b610954565b60405161022393929190611a71565b60405180910390f35b348015610237575f80fd5b50610252600480360381019061024d9190611aa6565b610bec565b005b34801561025f575f80fd5b5061027a6004803603810190610275919061187b565b610c35565b6040516102879190611ad1565b60405180910390f35b34801561029b575f80fd5b506102b660048036038101906102b1919061187b565b610ece565b005b3480156102c3575f80fd5b506102de60048036038101906102d99190611aa6565b6115b2565b005b3480156102eb575f80fd5b50610306600480360381019061030191906118cb565b611608565b005b61031061168c565b005b8273ffffffffffffffffffffffffffffffffffffffff166323b872dd3330856040518463ffffffff1660e01b815260040161034f93929190611aea565b6020604051808303815f875af115801561036b573d5f803e3d5ffd5b505050506040513d601f19601f8201168201806040525081019061038f9190611b49565b508273ffffffffffffffffffffffffffffffffffffffff1663095ea7b360015f9054906101000a900473ffffffffffffffffffffffffffffffffffffffff16846040518363ffffffff1660e01b81526004016103ec929190611b74565b6020604051808303815f875af1158015610408573d5f803e3d5ffd5b505050506040513d601f19601f8201168201806040525081019061042c9190611b49565b505f600267ffffffffffffffff81111561044957610448611b9b565b5b6040519080825280602002602001820160405280156104775781602001602082028036833780820191505090505b50905083815f8151811061048e5761048d611bc8565b5b602002602001019073ffffffffffffffffffffffffffffffffffffffff16908173ffffffffffffffffffffffffffffffffffffffff168152505060015f9054906101000a900473ffffffffffffffffffffffffffffffffffffffff1673ffffffffffffffffffffffffffffffffffffffff1663ad5c46486040518163ffffffff1660e01b8152600401602060405180830381865afa158015610532573d5f803e3d5ffd5b505050506040513d601f19601f820116820180604052508101906105569190611c09565b8160018151811061056a57610569611bc8565b5b602002602001019073ffffffffffffffffffffffffffffffffffffffff16908173ffffffffffffffffffffffffffffffffffffffff16815250505f60015f9054906101000a900473ffffffffffffffffffffffffffffffffffffffff1673ffffffffffffffffffffffffffffffffffffffff166318cbafe585858530426040518663ffffffff1660e01b8152600401610607959493929190611ceb565b5f604051808303815f875af1158015610622573d5f803e3d5ffd5b505050506040513d5f823e3d601f19601f8201168201806040525081019061064a9190611e7a565b90505f8160018151811061066157610660611bc8565b5b602002602001015190505f6127106003548361067d9190611eee565b6106879190611f5c565b90505f6064605a836106999190611eee565b6106a39190611f5c565b905060025f9054906101000a900473ffffffffffffffffffffffffffffffffffffffff1673ffffffffffffffffffffffffffffffffffffffff1663099da9e9826040518263ffffffff1660e01b81526004016106ff91906119da565b5f604051808303815f87803b158015610716575f80fd5b505af1158015610728573d5f803e3d5ffd5b505050505f82846107399190611f8c565b90503373ffffffffffffffffffffffffffffffffffffffff166108fc8290811502906040515f60405180830381858888f1935050505015801561077e573d5f803e3d5ffd5b503373ffffffffffffffffffffffffffffffffffffffff167fd0dcb5d6ccbc65558941eda1d0add99921923cc1868a41bbf8d224258a21396d89866040516107c7929190611fbf565b60405180910390a2505050505050505050565b6107e261168e565b5f73ffffffffffffffffffffffffffffffffffffffff168173ffffffffffffffffffffffffffffffffffffffff1603610850576040517f08c379a000000000000000000000000000000000000000000000000000000000815260040161084790612040565b60405180910390fd5b8060025f6101000a81548173ffffffffffffffffffffffffffffffffffffffff021916908373ffffffffffffffffffffffffffffffffffffffff1602179055507fecb9755730c832a50c16ea8001a277be77d816b09dc686fe072d4f2285e5cece816040516108bf9190611979565b60405180910390a150565b6108d261168e565b6108db5f611715565b565b60015f9054906101000a900473ffffffffffffffffffffffffffffffffffffffff1681565b5f805f9054906101000a900473ffffffffffffffffffffffffffffffffffffffff16905090565b60025f9054906101000a900473ffffffffffffffffffffffffffffffffffffffff1681565b60035481565b5f805f80600267ffffffffffffffff81111561097357610972611b9b565b5b6040519080825280602002602001820160405280156109a15781602001602082028036833780820191505090505b50905087815f815181106109b8576109b7611bc8565b5b602002602001019073ffffffffffffffffffffffffffffffffffffffff16908173ffffffffffffffffffffffffffffffffffffffff168152505060015f9054906101000a900473ffffffffffffffffffffffffffffffffffffffff1673ffffffffffffffffffffffffffffffffffffffff1663ad5c46486040518163ffffffff1660e01b8152600401602060405180830381865afa158015610a5c573d5f803e3d5ffd5b505050506040513d601f19601f82011682018060405250810190610a809190611c09565b81600181518110610a9457610a93611bc8565b5b602002602001019073ffffffffffffffffffffffffffffffffffffffff16908173ffffffffffffffffffffffffffffffffffffffff16815250505f60015f9054906101000a900473ffffffffffffffffffffffffffffffffffffffff1673ffffffffffffffffffffffffffffffffffffffff1663d06ca61f89846040518363ffffffff1660e01b8152600401610b2b92919061205e565b5f60405180830381865afa158015610b45573d5f803e3d5ffd5b505050506040513d5f823e3d601f19601f82011682018060405250810190610b6d9190611e7a565b90505f81600181518110610b8457610b83611bc8565b5b6020026020010151905061271088612710610b9f9190611f8c565b82610baa9190611eee565b610bb49190611f5c565b95505f620360f490508781610bc99190611eee565b95508686610bd88d8d8c610c35565b965096509650505050509450945094915050565b610bf461168e565b806003819055507f8c4d35e54a3f2ef1134138fd8ea3daee6a3c89e10d2665996babdf70261e2c7681604051610c2a91906119da565b60405180910390a150565b5f80600267ffffffffffffffff811115610c5257610c51611b9b565b5b604051908082528060200260200182016040528015610c805781602001602082028036833780820191505090505b50905084815f81518110610c9757610c96611bc8565b5b602002602001019073ffffffffffffffffffffffffffffffffffffffff16908173ffffffffffffffffffffffffffffffffffffffff168152505060015f9054906101000a900473ffffffffffffffffffffffffffffffffffffffff1673ffffffffffffffffffffffffffffffffffffffff1663ad5c46486040518163ffffffff1660e01b8152600401602060405180830381865afa158015610d3b573d5f803e3d5ffd5b505050506040513d601f19601f82011682018060405250810190610d5f9190611c09565b81600181518110610d7357610d72611bc8565b5b602002602001019073ffffffffffffffffffffffffffffffffffffffff16908173ffffffffffffffffffffffffffffffffffffffff16815250505f60015f9054906101000a900473ffffffffffffffffffffffffffffffffffffffff1673ffffffffffffffffffffffffffffffffffffffff1663d06ca61f86846040518363ffffffff1660e01b8152600401610e0a92919061205e565b5f60405180830381865afa158015610e24573d5f803e3d5ffd5b505050506040513d5f823e3d601f19601f82011682018060405250810190610e4c9190611e7a565b90505f81600181518110610e6357610e62611bc8565b5b602002602001015103610e7a575f92505050610ec7565b5f620360f490505f8582610e8e9190611eee565b905082600181518110610ea457610ea3611bc8565b5b60200260200101518110610ebe575f945050505050610ec7565b60019450505050505b9392505050565b610ed661168e565b5f620360f490505f3a82610eea9190611eee565b9050828110610f2e576040517f08c379a0000000000000000000000000000000000000000000000000000000008152600401610f25906120fc565b60405180910390fd5b610f3985853a610c35565b610f78576040517f08c379a0000000000000000000000000000000000000000000000000000000008152600401610f6f90612164565b60405180910390fd5b5f600267ffffffffffffffff811115610f9457610f93611b9b565b5b604051908082528060200260200182016040528015610fc25781602001602082028036833780820191505090505b50905085815f81518110610fd957610fd8611bc8565b5b602002602001019073ffffffffffffffffffffffffffffffffffffffff16908173ffffffffffffffffffffffffffffffffffffffff168152505060015f9054906101000a900473ffffffffffffffffffffffffffffffffffffffff1673ffffffffffffffffffffffffffffffffffffffff1663ad5c46486040518163ffffffff1660e01b8152600401602060405180830381865afa15801561107d573d5f803e3d5ffd5b505050506040513d601f19601f820116820180604052508101906110a19190611c09565b816001815181106110b5576110b4611bc8565b5b602002602001019073ffffffffffffffffffffffffffffffffffffffff16908173ffffffffffffffffffffffffffffffffffffffff16815250505f60015f9054906101000a900473ffffffffffffffffffffffffffffffffffffffff1673ffffffffffffffffffffffffffffffffffffffff1663d06ca61f87846040518363ffffffff1660e01b815260040161114c92919061205e565b5f60405180830381865afa158015611166573d5f803e3d5ffd5b505050506040513d5f823e3d601f19601f8201168201806040525081019061118e9190611e7a565b90505f816001815181106111a5576111a4611bc8565b5b60200260200101519050858110156111f2576040517f08c379a00000000000000000000000000000000000000000000000000000000081526004016111e9906121f2565b60405180910390fd5b8773ffffffffffffffffffffffffffffffffffffffff166323b872dd33308a6040518463ffffffff1660e01b815260040161122f93929190611aea565b6020604051808303815f875af115801561124b573d5f803e3d5ffd5b505050506040513d601f19601f8201168201806040525081019061126f9190611b49565b508773ffffffffffffffffffffffffffffffffffffffff1663095ea7b360015f9054906101000a900473ffffffffffffffffffffffffffffffffffffffff16896040518363ffffffff1660e01b81526004016112cc929190611b74565b6020604051808303815f875af11580156112e8573d5f803e3d5ffd5b505050506040513d601f19601f8201168201806040525081019061130c9190611b49565b505f60015f9054906101000a900473ffffffffffffffffffffffffffffffffffffffff1673ffffffffffffffffffffffffffffffffffffffff166318cbafe589898730426040518663ffffffff1660e01b8152600401611370959493929190611ceb565b5f604051808303815f875af115801561138b573d5f803e3d5ffd5b505050506040513d5f823e3d601f19601f820116820180604052508101906113b39190611e7a565b90505f816001815181106113ca576113c9611bc8565b5b602002602001015190505f8884116113e2575f6113ef565b88846113ee9190611f8c565b5b90505f8483116113ff575f61140c565b848361140b9190611f8c565b5b90505f606460288361141e9190611eee565b6114289190611f5c565b61271060035484868861143b9190611f8c565b6114459190611f8c565b61144f9190611eee565b6114599190611f5c565b6114639190612210565b905060025f9054906101000a900473ffffffffffffffffffffffffffffffffffffffff1673ffffffffffffffffffffffffffffffffffffffff1663099da9e96064605a846114b19190611eee565b6114bb9190611f5c565b6040518263ffffffff1660e01b81526004016114d791906119da565b5f604051808303815f87803b1580156114ee575f80fd5b505af1158015611500573d5f803e3d5ffd5b505050503373ffffffffffffffffffffffffffffffffffffffff166108fc828661152a9190611f8c565b90811502906040515f60405180830381858888f19350505050158015611552573d5f803e3d5ffd5b503373ffffffffffffffffffffffffffffffffffffffff167fd0dcb5d6ccbc65558941eda1d0add99921923cc1868a41bbf8d224258a21396d8d8660405161159b929190611fbf565b60405180910390a250505050505050505050505050565b6115ba61168e565b6115c2610902565b73ffffffffffffffffffffffffffffffffffffffff166108fc8290811502906040515f60405180830381858888f19350505050158015611604573d5f803e3d5ffd5b5050565b61161061168e565b5f73ffffffffffffffffffffffffffffffffffffffff168173ffffffffffffffffffffffffffffffffffffffff1603611680575f6040517f1e4fbdf70000000000000000000000000000000000000000000000000000000081526004016116779190611979565b60405180910390fd5b61168981611715565b50565b565b6116966117d6565b73ffffffffffffffffffffffffffffffffffffffff166116b4610902565b73ffffffffffffffffffffffffffffffffffffffff1614611713576116d76117d6565b6040517f118cdaa700000000000000000000000000000000000000000000000000000000815260040161170a9190611979565b60405180910390fd5b565b5f805f9054906101000a900473ffffffffffffffffffffffffffffffffffffffff169050815f806101000a81548173ffffffffffffffffffffffffffffffffffffffff021916908373ffffffffffffffffffffffffffffffffffffffff1602179055508173ffffffffffffffffffffffffffffffffffffffff168173ffffffffffffffffffffffffffffffffffffffff167f8be0079c531659141344cd1fd0a4f28419497f9722a3daafe3b4186f6b6457e060405160405180910390a35050565b5f33905090565b5f604051905090565b5f80fd5b5f80fd5b5f73ffffffffffffffffffffffffffffffffffffffff82169050919050565b5f611817826117ee565b9050919050565b6118278161180d565b8114611831575f80fd5b50565b5f813590506118428161181e565b92915050565b5f819050919050565b61185a81611848565b8114611864575f80fd5b50565b5f8135905061187581611851565b92915050565b5f805f60608486031215611892576118916117e6565b5b5f61189f86828701611834565b93505060206118b086828701611867565b92505060406118c186828701611867565b9150509250925092565b5f602082840312156118e0576118df6117e6565b5b5f6118ed84828501611834565b91505092915050565b5f819050919050565b5f61191961191461190f846117ee565b6118f6565b6117ee565b9050919050565b5f61192a826118ff565b9050919050565b5f61193b82611920565b9050919050565b61194b81611931565b82525050565b5f6020820190506119645f830184611942565b92915050565b6119738161180d565b82525050565b5f60208201905061198c5f83018461196a565b92915050565b5f61199c82611920565b9050919050565b6119ac81611992565b82525050565b5f6020820190506119c55f8301846119a3565b92915050565b6119d481611848565b82525050565b5f6020820190506119ed5f8301846119cb565b92915050565b5f805f8060808587031215611a0b57611a0a6117e6565b5b5f611a1887828801611834565b9450506020611a2987828801611867565b9350506040611a3a87828801611867565b9250506060611a4b87828801611867565b91505092959194509250565b5f8115159050919050565b611a6b81611a57565b82525050565b5f606082019050611a845f8301866119cb565b611a9160208301856119cb565b611a9e6040830184611a62565b949350505050565b5f60208284031215611abb57611aba6117e6565b5b5f611ac884828501611867565b91505092915050565b5f602082019050611ae45f830184611a62565b92915050565b5f606082019050611afd5f83018661196a565b611b0a602083018561196a565b611b1760408301846119cb565b949350505050565b611b2881611a57565b8114611b32575f80fd5b50565b5f81519050611b4381611b1f565b92915050565b5f60208284031215611b5e57611b5d6117e6565b5b5f611b6b84828501611b35565b91505092915050565b5f604082019050611b875f83018561196a565b611b9460208301846119cb565b9392505050565b7f4e487b71000000000000000000000000000000000000000000000000000000005f52604160045260245ffd5b7f4e487b71000000000000000000000000000000000000000000000000000000005f52603260045260245ffd5b5f81519050611c038161181e565b92915050565b5f60208284031215611c1e57611c1d6117e6565b5b5f611c2b84828501611bf5565b91505092915050565b5f81519050919050565b5f82825260208201905092915050565b5f819050602082019050919050565b611c668161180d565b82525050565b5f611c778383611c5d565b60208301905092915050565b5f602082019050919050565b5f611c9982611c34565b611ca38185611c3e565b9350611cae83611c4e565b805f5b83811015611cde578151611cc58882611c6c565b9750611cd083611c83565b925050600181019050611cb1565b5085935050505092915050565b5f60a082019050611cfe5f8301886119cb565b611d0b60208301876119cb565b8181036040830152611d1d8186611c8f565b9050611d2c606083018561196a565b611d3960808301846119cb565b9695505050505050565b5f80fd5b5f601f19601f8301169050919050565b611d6082611d47565b810181811067ffffffffffffffff82111715611d7f57611d7e611b9b565b5b80604052505050565b5f611d916117dd565b9050611d9d8282611d57565b919050565b5f67ffffffffffffffff821115611dbc57611dbb611b9b565b5b602082029050602081019050919050565b5f80fd5b5f81519050611ddf81611851565b92915050565b5f611df7611df284611da2565b611d88565b90508083825260208201905060208402830185811115611e1a57611e19611dcd565b5b835b81811015611e435780611e2f8882611dd1565b845260208401935050602081019050611e1c565b5050509392505050565b5f82601f830112611e6157611e60611d43565b5b8151611e71848260208601611de5565b91505092915050565b5f60208284031215611e8f57611e8e6117e6565b5b5f82015167ffffffffffffffff811115611eac57611eab6117ea565b5b611eb884828501611e4d565b91505092915050565b7f4e487b71000000000000000000000000000000000000000000000000000000005f52601160045260245ffd5b5f611ef882611848565b9150611f0383611848565b9250828202611f1181611848565b91508282048414831517611f2857611f27611ec1565b5b5092915050565b7f4e487b71000000000000000000000000000000000000000000000000000000005f52601260045260245ffd5b5f611f6682611848565b9150611f7183611848565b925082611f8157611f80611f2f565b5b828204905092915050565b5f611f9682611848565b9150611fa183611848565b9250828203905081811115611fb957611fb8611ec1565b5b92915050565b5f604082019050611fd25f8301856119cb565b611fdf60208301846119cb565b9392505050565b5f82825260208201905092915050565b7f496e76616c6964206164647265737300000000000000000000000000000000005f82015250565b5f61202a600f83611fe6565b915061203582611ff6565b602082019050919050565b5f6020820190508181035f8301526120578161201e565b9050919050565b5f6040820190506120715f8301856119cb565b81810360208301526120838184611c8f565b90509392505050565b7f457374696d617465642067617320636f73742065786365656473206d696e416d5f8201527f6f756e744f757400000000000000000000000000000000000000000000000000602082015250565b5f6120e6602783611fe6565b91506120f18261208c565b604082019050919050565b5f6020820190508181035f830152612113816120da565b9050919050565b7f5377617020457870656374656420746f204661696c00000000000000000000005f82015250565b5f61214e601583611fe6565b91506121598261211a565b602082019050919050565b5f6020820190508181035f83015261217b81612142565b9050919050565b7f457870656374656420616d6f756e74206c657373207468616e206d696e696d755f8201527f6d20726571756972656400000000000000000000000000000000000000000000602082015250565b5f6121dc602a83611fe6565b91506121e782612182565b604082019050919050565b5f6020820190508181035f830152612209816121d0565b9050919050565b5f61221a82611848565b915061222583611848565b925082820190508082111561223d5761223c611ec1565b5b9291505056fea264697066735822122022a4f3565dba5b293a1d21250af6fc942c2aa08937c271af3611688b22f2d70164736f6c63430008140033",
					"opcodes": "PUSH1 0x80 PUSH1 0x40 MSTORE PUSH2 0x2EE PUSH1 0x3 SSTORE CALLVALUE DUP1 ISZERO PUSH3 0x16 JUMPI PUSH0 DUP1 REVERT JUMPDEST POP PUSH1 0x40 MLOAD PUSH3 0x2568 CODESIZE SUB DUP1 PUSH3 0x2568 DUP4 CODECOPY DUP2 DUP2 ADD PUSH1 0x40 MSTORE DUP2 ADD SWAP1 PUSH3 0x3C SWAP2 SWAP1 PUSH3 0x270 JUMP JUMPDEST CALLER PUSH0 PUSH20 0xFFFFFFFFFFFFFFFFFFFFFFFFFFFFFFFFFFFFFFFF AND DUP2 PUSH20 0xFFFFFFFFFFFFFFFFFFFFFFFFFFFFFFFFFFFFFFFF AND SUB PUSH3 0xB0 JUMPI PUSH0 PUSH1 0x40 MLOAD PUSH32 0x1E4FBDF700000000000000000000000000000000000000000000000000000000 DUP2 MSTORE PUSH1 0x4 ADD PUSH3 0xA7 SWAP2 SWAP1 PUSH3 0x2C6 JUMP JUMPDEST PUSH1 0x40 MLOAD DUP1 SWAP2 SUB SWAP1 REVERT JUMPDEST PUSH3 0xC1 DUP2 PUSH3 0x14A PUSH1 0x20 SHL PUSH1 0x20 SHR JUMP JUMPDEST POP DUP2 PUSH1 0x1 PUSH0 PUSH2 0x100 EXP DUP2 SLOAD DUP2 PUSH20 0xFFFFFFFFFFFFFFFFFFFFFFFFFFFFFFFFFFFFFFFF MUL NOT AND SWAP1 DUP4 PUSH20 0xFFFFFFFFFFFFFFFFFFFFFFFFFFFFFFFFFFFFFFFF AND MUL OR SWAP1 SSTORE POP DUP1 PUSH1 0x2 PUSH0 PUSH2 0x100 EXP DUP2 SLOAD DUP2 PUSH20 0xFFFFFFFFFFFFFFFFFFFFFFFFFFFFFFFFFFFFFFFF MUL NOT AND SWAP1 DUP4 PUSH20 0xFFFFFFFFFFFFFFFFFFFFFFFFFFFFFFFFFFFFFFFF AND MUL OR SWAP1 SSTORE POP POP POP PUSH3 0x2E1 JUMP JUMPDEST PUSH0 DUP1 PUSH0 SWAP1 SLOAD SWAP1 PUSH2 0x100 EXP SWAP1 DIV PUSH20 0xFFFFFFFFFFFFFFFFFFFFFFFFFFFFFFFFFFFFFFFF AND SWAP1 POP DUP2 PUSH0 DUP1 PUSH2 0x100 EXP DUP2 SLOAD DUP2 PUSH20 0xFFFFFFFFFFFFFFFFFFFFFFFFFFFFFFFFFFFFFFFF MUL NOT AND SWAP1 DUP4 PUSH20 0xFFFFFFFFFFFFFFFFFFFFFFFFFFFFFFFFFFFFFFFF AND MUL OR SWAP1 SSTORE POP DUP2 PUSH20 0xFFFFFFFFFFFFFFFFFFFFFFFFFFFFFFFFFFFFFFFF AND DUP2 PUSH20 0xFFFFFFFFFFFFFFFFFFFFFFFFFFFFFFFFFFFFFFFF AND PUSH32 0x8BE0079C531659141344CD1FD0A4F28419497F9722A3DAAFE3B4186F6B6457E0 PUSH1 0x40 MLOAD PUSH1 0x40 MLOAD DUP1 SWAP2 SUB SWAP1 LOG3 POP POP JUMP JUMPDEST PUSH0 DUP1 REVERT JUMPDEST PUSH0 PUSH20 0xFFFFFFFFFFFFFFFFFFFFFFFFFFFFFFFFFFFFFFFF DUP3 AND SWAP1 POP SWAP2 SWAP1 POP JUMP JUMPDEST PUSH0 PUSH3 0x23A DUP3 PUSH3 0x20F JUMP JUMPDEST SWAP1 POP SWAP2 SWAP1 POP JUMP JUMPDEST PUSH3 0x24C DUP2 PUSH3 0x22E JUMP JUMPDEST DUP2 EQ PUSH3 0x257 JUMPI PUSH0 DUP1 REVERT JUMPDEST POP JUMP JUMPDEST PUSH0 DUP2 MLOAD SWAP1 POP PUSH3 0x26A DUP2 PUSH3 0x241 JUMP JUMPDEST SWAP3 SWAP2 POP POP JUMP JUMPDEST PUSH0 DUP1 PUSH1 0x40 DUP4 DUP6 SUB SLT ISZERO PUSH3 0x289 JUMPI PUSH3 0x288 PUSH3 0x20B JUMP JUMPDEST JUMPDEST PUSH0 PUSH3 0x298 DUP6 DUP3 DUP7 ADD PUSH3 0x25A JUMP JUMPDEST SWAP3 POP POP PUSH1 0x20 PUSH3 0x2AB DUP6 DUP3 DUP7 ADD PUSH3 0x25A JUMP JUMPDEST SWAP2 POP POP SWAP3 POP SWAP3 SWAP1 POP JUMP JUMPDEST PUSH3 0x2C0 DUP2 PUSH3 0x22E JUMP JUMPDEST DUP3 MSTORE POP POP JUMP JUMPDEST PUSH0 PUSH1 0x20 DUP3 ADD SWAP1 POP PUSH3 0x2DB PUSH0 DUP4 ADD DUP5 PUSH3 0x2B5 JUMP JUMPDEST SWAP3 SWAP2 POP POP JUMP JUMPDEST PUSH2 0x2279 DUP1 PUSH3 0x2EF PUSH0 CODECOPY PUSH0 RETURN INVALID PUSH1 0x80 PUSH1 0x40 MSTORE PUSH1 0x4 CALLDATASIZE LT PUSH2 0xDC JUMPI PUSH0 CALLDATALOAD PUSH1 0xE0 SHR DUP1 PUSH4 0xAD9902A1 GT PUSH2 0x7E JUMPI DUP1 PUSH4 0xE15CC8DA GT PUSH2 0x58 JUMPI DUP1 PUSH4 0xE15CC8DA EQ PUSH2 0x290 JUMPI DUP1 PUSH4 0xF14210A6 EQ PUSH2 0x2B8 JUMPI DUP1 PUSH4 0xF2FDE38B EQ PUSH2 0x2E0 JUMPI DUP1 PUSH4 0xF6326FB3 EQ PUSH2 0x308 JUMPI PUSH2 0xDC JUMP JUMPDEST DUP1 PUSH4 0xAD9902A1 EQ PUSH2 0x1EE JUMPI DUP1 PUSH4 0xAE06C1B7 EQ PUSH2 0x22C JUMPI DUP1 PUSH4 0xB4798209 EQ PUSH2 0x254 JUMPI PUSH2 0xDC JUMP JUMPDEST DUP1 PUSH4 0x735DE9F7 GT PUSH2 0xBA JUMPI DUP1 PUSH4 0x735DE9F7 EQ PUSH2 0x146 JUMPI DUP1 PUSH4 0x8DA5CB5B EQ PUSH2 0x170 JUMPI DUP1 PUSH4 0x93AD7440 EQ PUSH2 0x19A JUMPI DUP1 PUSH4 0xA001ECDD EQ PUSH2 0x1C4 JUMPI PUSH2 0xDC JUMP JUMPDEST DUP1 PUSH4 0xFE6A787 EQ PUSH2 0xE0 JUMPI DUP1 PUSH4 0x4E63C29E EQ PUSH2 0x108 JUMPI DUP1 PUSH4 0x715018A6 EQ PUSH2 0x130 JUMPI JUMPDEST PUSH0 DUP1 REVERT JUMPDEST CALLVALUE DUP1 ISZERO PUSH2 0xEB JUMPI PUSH0 DUP1 REVERT JUMPDEST POP PUSH2 0x106 PUSH1 0x4 DUP1 CALLDATASIZE SUB DUP2 ADD SWAP1 PUSH2 0x101 SWAP2 SWAP1 PUSH2 0x187B JUMP JUMPDEST PUSH2 0x312 JUMP JUMPDEST STOP JUMPDEST CALLVALUE DUP1 ISZERO PUSH2 0x113 JUMPI PUSH0 DUP1 REVERT JUMPDEST POP PUSH2 0x12E PUSH1 0x4 DUP1 CALLDATASIZE SUB DUP2 ADD SWAP1 PUSH2 0x129 SWAP2 SWAP1 PUSH2 0x18CB JUMP JUMPDEST PUSH2 0x7DA JUMP JUMPDEST STOP JUMPDEST CALLVALUE DUP1 ISZERO PUSH2 0x13B JUMPI PUSH0 DUP1 REVERT JUMPDEST POP PUSH2 0x144 PUSH2 0x8CA JUMP JUMPDEST STOP JUMPDEST CALLVALUE DUP1 ISZERO PUSH2 0x151 JUMPI PUSH0 DUP1 REVERT JUMPDEST POP PUSH2 0x15A PUSH2 0x8DD JUMP JUMPDEST PUSH1 0x40 MLOAD PUSH2 0x167 SWAP2 SWAP1 PUSH2 0x1951 JUMP JUMPDEST PUSH1 0x40 MLOAD DUP1 SWAP2 SUB SWAP1 RETURN JUMPDEST CALLVALUE DUP1 ISZERO PUSH2 0x17B JUMPI PUSH0 DUP1 REVERT JUMPDEST POP PUSH2 0x184 PUSH2 0x902 JUMP JUMPDEST PUSH1 0x40 MLOAD PUSH2 0x191 SWAP2 SWAP1 PUSH2 0x1979 JUMP JUMPDEST PUSH1 0x40 MLOAD DUP1 SWAP2 SUB SWAP1 RETURN JUMPDEST CALLVALUE DUP1 ISZERO PUSH2 0x1A5 JUMPI PUSH0 DUP1 REVERT JUMPDEST POP PUSH2 0x1AE PUSH2 0x929 JUMP JUMPDEST PUSH1 0x40 MLOAD PUSH2 0x1BB SWAP2 SWAP1 PUSH2 0x19B2 JUMP JUMPDEST PUSH1 0x40 MLOAD DUP1 SWAP2 SUB SWAP1 RETURN JUMPDEST CALLVALUE DUP1 ISZERO PUSH2 0x1CF JUMPI PUSH0 DUP1 REVERT JUMPDEST POP PUSH2 0x1D8 PUSH2 0x94E JUMP JUMPDEST PUSH1 0x40 MLOAD PUSH2 0x1E5 SWAP2 SWAP1 PUSH2 0x19DA JUMP JUMPDEST PUSH1 0x40 MLOAD DUP1 SWAP2 SUB SWAP1 RETURN JUMPDEST CALLVALUE DUP1 ISZERO PUSH2 0x1F9 JUMPI PUSH0 DUP1 REVERT JUMPDEST POP PUSH2 0x214 PUSH1 0x4 DUP1 CALLDATASIZE SUB DUP2 ADD SWAP1 PUSH2 0x20F SWAP2 SWAP1 PUSH2 0x19F3 JUMP JUMPDEST PUSH2 0x954 JUMP JUMPDEST PUSH1 0x40 MLOAD PUSH2 0x223 SWAP4 SWAP3 SWAP2 SWAP1 PUSH2 0x1A71 JUMP JUMPDEST PUSH1 0x40 MLOAD DUP1 SWAP2 SUB SWAP1 RETURN JUMPDEST CALLVALUE DUP1 ISZERO PUSH2 0x237 JUMPI PUSH0 DUP1 REVERT JUMPDEST POP PUSH2 0x252 PUSH1 0x4 DUP1 CALLDATASIZE SUB DUP2 ADD SWAP1 PUSH2 0x24D SWAP2 SWAP1 PUSH2 0x1AA6 JUMP JUMPDEST PUSH2 0xBEC JUMP JUMPDEST STOP JUMPDEST CALLVALUE DUP1 ISZERO PUSH2 0x25F JUMPI PUSH0 DUP1 REVERT JUMPDEST POP PUSH2 0x27A PUSH1 0x4 DUP1 CALLDATASIZE SUB DUP2 ADD SWAP1 PUSH2 0x275 SWAP2 SWAP1 PUSH2 0x187B JUMP JUMPDEST PUSH2 0xC35 JUMP JUMPDEST PUSH1 0x40 MLOAD PUSH2 0x287 SWAP2 SWAP1 PUSH2 0x1AD1 JUMP JUMPDEST PUSH1 0x40 MLOAD DUP1 SWAP2 SUB SWAP1 RETURN JUMPDEST CALLVALUE DUP1 ISZERO PUSH2 0x29B JUMPI PUSH0 DUP1 REVERT JUMPDEST POP PUSH2 0x2B6 PUSH1 0x4 DUP1 CALLDATASIZE SUB DUP2 ADD SWAP1 PUSH2 0x2B1 SWAP2 SWAP1 PUSH2 0x187B JUMP JUMPDEST PUSH2 0xECE JUMP JUMPDEST STOP JUMPDEST CALLVALUE DUP1 ISZERO PUSH2 0x2C3 JUMPI PUSH0 DUP1 REVERT JUMPDEST POP PUSH2 0x2DE PUSH1 0x4 DUP1 CALLDATASIZE SUB DUP2 ADD SWAP1 PUSH2 0x2D9 SWAP2 SWAP1 PUSH2 0x1AA6 JUMP JUMPDEST PUSH2 0x15B2 JUMP JUMPDEST STOP JUMPDEST CALLVALUE DUP1 ISZERO PUSH2 0x2EB JUMPI PUSH0 DUP1 REVERT JUMPDEST POP PUSH2 0x306 PUSH1 0x4 DUP1 CALLDATASIZE SUB DUP2 ADD SWAP1 PUSH2 0x301 SWAP2 SWAP1 PUSH2 0x18CB JUMP JUMPDEST PUSH2 0x1608 JUMP JUMPDEST STOP JUMPDEST PUSH2 0x310 PUSH2 0x168C JUMP JUMPDEST STOP JUMPDEST DUP3 PUSH20 0xFFFFFFFFFFFFFFFFFFFFFFFFFFFFFFFFFFFFFFFF AND PUSH4 0x23B872DD CALLER ADDRESS DUP6 PUSH1 0x40 MLOAD DUP5 PUSH4 0xFFFFFFFF AND PUSH1 0xE0 SHL DUP2 MSTORE PUSH1 0x4 ADD PUSH2 0x34F SWAP4 SWAP3 SWAP2 SWAP1 PUSH2 0x1AEA JUMP JUMPDEST PUSH1 0x20 PUSH1 0x40 MLOAD DUP1 DUP4 SUB DUP2 PUSH0 DUP8 GAS CALL ISZERO DUP1 ISZERO PUSH2 0x36B JUMPI RETURNDATASIZE PUSH0 DUP1 RETURNDATACOPY RETURNDATASIZE PUSH0 REVERT JUMPDEST POP POP POP POP PUSH1 0x40 MLOAD RETURNDATASIZE PUSH1 0x1F NOT PUSH1 0x1F DUP3 ADD AND DUP3 ADD DUP1 PUSH1 0x40 MSTORE POP DUP2 ADD SWAP1 PUSH2 0x38F SWAP2 SWAP1 PUSH2 0x1B49 JUMP JUMPDEST POP DUP3 PUSH20 0xFFFFFFFFFFFFFFFFFFFFFFFFFFFFFFFFFFFFFFFF AND PUSH4 0x95EA7B3 PUSH1 0x1 PUSH0 SWAP1 SLOAD SWAP1 PUSH2 0x100 EXP SWAP1 DIV PUSH20 0xFFFFFFFFFFFFFFFFFFFFFFFFFFFFFFFFFFFFFFFF AND DUP5 PUSH1 0x40 MLOAD DUP4 PUSH4 0xFFFFFFFF AND PUSH1 0xE0 SHL DUP2 MSTORE PUSH1 0x4 ADD PUSH2 0x3EC SWAP3 SWAP2 SWAP1 PUSH2 0x1B74 JUMP JUMPDEST PUSH1 0x20 PUSH1 0x40 MLOAD DUP1 DUP4 SUB DUP2 PUSH0 DUP8 GAS CALL ISZERO DUP1 ISZERO PUSH2 0x408 JUMPI RETURNDATASIZE PUSH0 DUP1 RETURNDATACOPY RETURNDATASIZE PUSH0 REVERT JUMPDEST POP POP POP POP PUSH1 0x40 MLOAD RETURNDATASIZE PUSH1 0x1F NOT PUSH1 0x1F DUP3 ADD AND DUP3 ADD DUP1 PUSH1 0x40 MSTORE POP DUP2 ADD SWAP1 PUSH2 0x42C SWAP2 SWAP1 PUSH2 0x1B49 JUMP JUMPDEST POP PUSH0 PUSH1 0x2 PUSH8 0xFFFFFFFFFFFFFFFF DUP2 GT ISZERO PUSH2 0x449 JUMPI PUSH2 0x448 PUSH2 0x1B9B JUMP JUMPDEST JUMPDEST PUSH1 0x40 MLOAD SWAP1 DUP1 DUP3 MSTORE DUP1 PUSH1 0x20 MUL PUSH1 0x20 ADD DUP3 ADD PUSH1 0x40 MSTORE DUP1 ISZERO PUSH2 0x477 JUMPI DUP2 PUSH1 0x20 ADD PUSH1 0x20 DUP3 MUL DUP1 CALLDATASIZE DUP4 CALLDATACOPY DUP1 DUP3 ADD SWAP2 POP POP SWAP1 POP JUMPDEST POP SWAP1 POP DUP4 DUP2 PUSH0 DUP2 MLOAD DUP2 LT PUSH2 0x48E JUMPI PUSH2 0x48D PUSH2 0x1BC8 JUMP JUMPDEST JUMPDEST PUSH1 0x20 MUL PUSH1 0x20 ADD ADD SWAP1 PUSH20 0xFFFFFFFFFFFFFFFFFFFFFFFFFFFFFFFFFFFFFFFF AND SWAP1 DUP2 PUSH20 0xFFFFFFFFFFFFFFFFFFFFFFFFFFFFFFFFFFFFFFFF AND DUP2 MSTORE POP POP PUSH1 0x1 PUSH0 SWAP1 SLOAD SWAP1 PUSH2 0x100 EXP SWAP1 DIV PUSH20 0xFFFFFFFFFFFFFFFFFFFFFFFFFFFFFFFFFFFFFFFF AND PUSH20 0xFFFFFFFFFFFFFFFFFFFFFFFFFFFFFFFFFFFFFFFF AND PUSH4 0xAD5C4648 PUSH1 0x40 MLOAD DUP2 PUSH4 0xFFFFFFFF AND PUSH1 0xE0 SHL DUP2 MSTORE PUSH1 0x4 ADD PUSH1 0x20 PUSH1 0x40 MLOAD DUP1 DUP4 SUB DUP2 DUP7 GAS STATICCALL ISZERO DUP1 ISZERO PUSH2 0x532 JUMPI RETURNDATASIZE PUSH0 DUP1 RETURNDATACOPY RETURNDATASIZE PUSH0 REVERT JUMPDEST POP POP POP POP PUSH1 0x40 MLOAD RETURNDATASIZE PUSH1 0x1F NOT PUSH1 0x1F DUP3 ADD AND DUP3 ADD DUP1 PUSH1 0x40 MSTORE POP DUP2 ADD SWAP1 PUSH2 0x556 SWAP2 SWAP1 PUSH2 0x1C09 JUMP JUMPDEST DUP2 PUSH1 0x1 DUP2 MLOAD DUP2 LT PUSH2 0x56A JUMPI PUSH2 0x569 PUSH2 0x1BC8 JUMP JUMPDEST JUMPDEST PUSH1 0x20 MUL PUSH1 0x20 ADD ADD SWAP1 PUSH20 0xFFFFFFFFFFFFFFFFFFFFFFFFFFFFFFFFFFFFFFFF AND SWAP1 DUP2 PUSH20 0xFFFFFFFFFFFFFFFFFFFFFFFFFFFFFFFFFFFFFFFF AND DUP2 MSTORE POP POP PUSH0 PUSH1 0x1 PUSH0 SWAP1 SLOAD SWAP1 PUSH2 0x100 EXP SWAP1 DIV PUSH20 0xFFFFFFFFFFFFFFFFFFFFFFFFFFFFFFFFFFFFFFFF AND PUSH20 0xFFFFFFFFFFFFFFFFFFFFFFFFFFFFFFFFFFFFFFFF AND PUSH4 0x18CBAFE5 DUP6 DUP6 DUP6 ADDRESS TIMESTAMP PUSH1 0x40 MLOAD DUP7 PUSH4 0xFFFFFFFF AND PUSH1 0xE0 SHL DUP2 MSTORE PUSH1 0x4 ADD PUSH2 0x607 SWAP6 SWAP5 SWAP4 SWAP3 SWAP2 SWAP1 PUSH2 0x1CEB JUMP JUMPDEST PUSH0 PUSH1 0x40 MLOAD DUP1 DUP4 SUB DUP2 PUSH0 DUP8 GAS CALL ISZERO DUP1 ISZERO PUSH2 0x622 JUMPI RETURNDATASIZE PUSH0 DUP1 RETURNDATACOPY RETURNDATASIZE PUSH0 REVERT JUMPDEST POP POP POP POP PUSH1 0x40 MLOAD RETURNDATASIZE PUSH0 DUP3 RETURNDATACOPY RETURNDATASIZE PUSH1 0x1F NOT PUSH1 0x1F DUP3 ADD AND DUP3 ADD DUP1 PUSH1 0x40 MSTORE POP DUP2 ADD SWAP1 PUSH2 0x64A SWAP2 SWAP1 PUSH2 0x1E7A JUMP JUMPDEST SWAP1 POP PUSH0 DUP2 PUSH1 0x1 DUP2 MLOAD DUP2 LT PUSH2 0x661 JUMPI PUSH2 0x660 PUSH2 0x1BC8 JUMP JUMPDEST JUMPDEST PUSH1 0x20 MUL PUSH1 0x20 ADD ADD MLOAD SWAP1 POP PUSH0 PUSH2 0x2710 PUSH1 0x3 SLOAD DUP4 PUSH2 0x67D SWAP2 SWAP1 PUSH2 0x1EEE JUMP JUMPDEST PUSH2 0x687 SWAP2 SWAP1 PUSH2 0x1F5C JUMP JUMPDEST SWAP1 POP PUSH0 PUSH1 0x64 PUSH1 0x5A DUP4 PUSH2 0x699 SWAP2 SWAP1 PUSH2 0x1EEE JUMP JUMPDEST PUSH2 0x6A3 SWAP2 SWAP1 PUSH2 0x1F5C JUMP JUMPDEST SWAP1 POP PUSH1 0x2 PUSH0 SWAP1 SLOAD SWAP1 PUSH2 0x100 EXP SWAP1 DIV PUSH20 0xFFFFFFFFFFFFFFFFFFFFFFFFFFFFFFFFFFFFFFFF AND PUSH20 0xFFFFFFFFFFFFFFFFFFFFFFFFFFFFFFFFFFFFFFFF AND PUSH4 0x99DA9E9 DUP3 PUSH1 0x40 MLOAD DUP3 PUSH4 0xFFFFFFFF AND PUSH1 0xE0 SHL DUP2 MSTORE PUSH1 0x4 ADD PUSH2 0x6FF SWAP2 SWAP1 PUSH2 0x19DA JUMP JUMPDEST PUSH0 PUSH1 0x40 MLOAD DUP1 DUP4 SUB DUP2 PUSH0 DUP8 DUP1 EXTCODESIZE ISZERO DUP1 ISZERO PUSH2 0x716 JUMPI PUSH0 DUP1 REVERT JUMPDEST POP GAS CALL ISZERO DUP1 ISZERO PUSH2 0x728 JUMPI RETURNDATASIZE PUSH0 DUP1 RETURNDATACOPY RETURNDATASIZE PUSH0 REVERT JUMPDEST POP POP POP POP PUSH0 DUP3 DUP5 PUSH2 0x739 SWAP2 SWAP1 PUSH2 0x1F8C JUMP JUMPDEST SWAP1 POP CALLER PUSH20 0xFFFFFFFFFFFFFFFFFFFFFFFFFFFFFFFFFFFFFFFF AND PUSH2 0x8FC DUP3 SWAP1 DUP2 ISZERO MUL SWAP1 PUSH1 0x40 MLOAD PUSH0 PUSH1 0x40 MLOAD DUP1 DUP4 SUB DUP2 DUP6 DUP9 DUP9 CALL SWAP4 POP POP POP POP ISZERO DUP1 ISZERO PUSH2 0x77E JUMPI RETURNDATASIZE PUSH0 DUP1 RETURNDATACOPY RETURNDATASIZE PUSH0 REVERT JUMPDEST POP CALLER PUSH20 0xFFFFFFFFFFFFFFFFFFFFFFFFFFFFFFFFFFFFFFFF AND PUSH32 0xD0DCB5D6CCBC65558941EDA1D0ADD99921923CC1868A41BBF8D224258A21396D DUP10 DUP7 PUSH1 0x40 MLOAD PUSH2 0x7C7 SWAP3 SWAP2 SWAP1 PUSH2 0x1FBF JUMP JUMPDEST PUSH1 0x40 MLOAD DUP1 SWAP2 SUB SWAP1 LOG2 POP POP POP POP POP POP POP POP POP JUMP JUMPDEST PUSH2 0x7E2 PUSH2 0x168E JUMP JUMPDEST PUSH0 PUSH20 0xFFFFFFFFFFFFFFFFFFFFFFFFFFFFFFFFFFFFFFFF AND DUP2 PUSH20 0xFFFFFFFFFFFFFFFFFFFFFFFFFFFFFFFFFFFFFFFF AND SUB PUSH2 0x850 JUMPI PUSH1 0x40 MLOAD PUSH32 0x8C379A000000000000000000000000000000000000000000000000000000000 DUP2 MSTORE PUSH1 0x4 ADD PUSH2 0x847 SWAP1 PUSH2 0x2040 JUMP JUMPDEST PUSH1 0x40 MLOAD DUP1 SWAP2 SUB SWAP1 REVERT JUMPDEST DUP1 PUSH1 0x2 PUSH0 PUSH2 0x100 EXP DUP2 SLOAD DUP2 PUSH20 0xFFFFFFFFFFFFFFFFFFFFFFFFFFFFFFFFFFFFFFFF MUL NOT AND SWAP1 DUP4 PUSH20 0xFFFFFFFFFFFFFFFFFFFFFFFFFFFFFFFFFFFFFFFF AND MUL OR SWAP1 SSTORE POP PUSH32 0xECB9755730C832A50C16EA8001A277BE77D816B09DC686FE072D4F2285E5CECE DUP2 PUSH1 0x40 MLOAD PUSH2 0x8BF SWAP2 SWAP1 PUSH2 0x1979 JUMP JUMPDEST PUSH1 0x40 MLOAD DUP1 SWAP2 SUB SWAP1 LOG1 POP JUMP JUMPDEST PUSH2 0x8D2 PUSH2 0x168E JUMP JUMPDEST PUSH2 0x8DB PUSH0 PUSH2 0x1715 JUMP JUMPDEST JUMP JUMPDEST PUSH1 0x1 PUSH0 SWAP1 SLOAD SWAP1 PUSH2 0x100 EXP SWAP1 DIV PUSH20 0xFFFFFFFFFFFFFFFFFFFFFFFFFFFFFFFFFFFFFFFF AND DUP2 JUMP JUMPDEST PUSH0 DUP1 PUSH0 SWAP1 SLOAD SWAP1 PUSH2 0x100 EXP SWAP1 DIV PUSH20 0xFFFFFFFFFFFFFFFFFFFFFFFFFFFFFFFFFFFFFFFF AND SWAP1 POP SWAP1 JUMP JUMPDEST PUSH1 0x2 PUSH0 SWAP1 SLOAD SWAP1 PUSH2 0x100 EXP SWAP1 DIV PUSH20 0xFFFFFFFFFFFFFFFFFFFFFFFFFFFFFFFFFFFFFFFF AND DUP2 JUMP JUMPDEST PUSH1 0x3 SLOAD DUP2 JUMP JUMPDEST PUSH0 DUP1 PUSH0 DUP1 PUSH1 0x2 PUSH8 0xFFFFFFFFFFFFFFFF DUP2 GT ISZERO PUSH2 0x973 JUMPI PUSH2 0x972 PUSH2 0x1B9B JUMP JUMPDEST JUMPDEST PUSH1 0x40 MLOAD SWAP1 DUP1 DUP3 MSTORE DUP1 PUSH1 0x20 MUL PUSH1 0x20 ADD DUP3 ADD PUSH1 0x40 MSTORE DUP1 ISZERO PUSH2 0x9A1 JUMPI DUP2 PUSH1 0x20 ADD PUSH1 0x20 DUP3 MUL DUP1 CALLDATASIZE DUP4 CALLDATACOPY DUP1 DUP3 ADD SWAP2 POP POP SWAP1 POP JUMPDEST POP SWAP1 POP DUP8 DUP2 PUSH0 DUP2 MLOAD DUP2 LT PUSH2 0x9B8 JUMPI PUSH2 0x9B7 PUSH2 0x1BC8 JUMP JUMPDEST JUMPDEST PUSH1 0x20 MUL PUSH1 0x20 ADD ADD SWAP1 PUSH20 0xFFFFFFFFFFFFFFFFFFFFFFFFFFFFFFFFFFFFFFFF AND SWAP1 DUP2 PUSH20 0xFFFFFFFFFFFFFFFFFFFFFFFFFFFFFFFFFFFFFFFF AND DUP2 MSTORE POP POP PUSH1 0x1 PUSH0 SWAP1 SLOAD SWAP1 PUSH2 0x100 EXP SWAP1 DIV PUSH20 0xFFFFFFFFFFFFFFFFFFFFFFFFFFFFFFFFFFFFFFFF AND PUSH20 0xFFFFFFFFFFFFFFFFFFFFFFFFFFFFFFFFFFFFFFFF AND PUSH4 0xAD5C4648 PUSH1 0x40 MLOAD DUP2 PUSH4 0xFFFFFFFF AND PUSH1 0xE0 SHL DUP2 MSTORE PUSH1 0x4 ADD PUSH1 0x20 PUSH1 0x40 MLOAD DUP1 DUP4 SUB DUP2 DUP7 GAS STATICCALL ISZERO DUP1 ISZERO PUSH2 0xA5C JUMPI RETURNDATASIZE PUSH0 DUP1 RETURNDATACOPY RETURNDATASIZE PUSH0 REVERT JUMPDEST POP POP POP POP PUSH1 0x40 MLOAD RETURNDATASIZE PUSH1 0x1F NOT PUSH1 0x1F DUP3 ADD AND DUP3 ADD DUP1 PUSH1 0x40 MSTORE POP DUP2 ADD SWAP1 PUSH2 0xA80 SWAP2 SWAP1 PUSH2 0x1C09 JUMP JUMPDEST DUP2 PUSH1 0x1 DUP2 MLOAD DUP2 LT PUSH2 0xA94 JUMPI PUSH2 0xA93 PUSH2 0x1BC8 JUMP JUMPDEST JUMPDEST PUSH1 0x20 MUL PUSH1 0x20 ADD ADD SWAP1 PUSH20 0xFFFFFFFFFFFFFFFFFFFFFFFFFFFFFFFFFFFFFFFF AND SWAP1 DUP2 PUSH20 0xFFFFFFFFFFFFFFFFFFFFFFFFFFFFFFFFFFFFFFFF AND DUP2 MSTORE POP POP PUSH0 PUSH1 0x1 PUSH0 SWAP1 SLOAD SWAP1 PUSH2 0x100 EXP SWAP1 DIV PUSH20 0xFFFFFFFFFFFFFFFFFFFFFFFFFFFFFFFFFFFFFFFF AND PUSH20 0xFFFFFFFFFFFFFFFFFFFFFFFFFFFFFFFFFFFFFFFF AND PUSH4 0xD06CA61F DUP10 DUP5 PUSH1 0x40 MLOAD DUP4 PUSH4 0xFFFFFFFF AND PUSH1 0xE0 SHL DUP2 MSTORE PUSH1 0x4 ADD PUSH2 0xB2B SWAP3 SWAP2 SWAP1 PUSH2 0x205E JUMP JUMPDEST PUSH0 PUSH1 0x40 MLOAD DUP1 DUP4 SUB DUP2 DUP7 GAS STATICCALL ISZERO DUP1 ISZERO PUSH2 0xB45 JUMPI RETURNDATASIZE PUSH0 DUP1 RETURNDATACOPY RETURNDATASIZE PUSH0 REVERT JUMPDEST POP POP POP POP PUSH1 0x40 MLOAD RETURNDATASIZE PUSH0 DUP3 RETURNDATACOPY RETURNDATASIZE PUSH1 0x1F NOT PUSH1 0x1F DUP3 ADD AND DUP3 ADD DUP1 PUSH1 0x40 MSTORE POP DUP2 ADD SWAP1 PUSH2 0xB6D SWAP2 SWAP1 PUSH2 0x1E7A JUMP JUMPDEST SWAP1 POP PUSH0 DUP2 PUSH1 0x1 DUP2 MLOAD DUP2 LT PUSH2 0xB84 JUMPI PUSH2 0xB83 PUSH2 0x1BC8 JUMP JUMPDEST JUMPDEST PUSH1 0x20 MUL PUSH1 0x20 ADD ADD MLOAD SWAP1 POP PUSH2 0x2710 DUP9 PUSH2 0x2710 PUSH2 0xB9F SWAP2 SWAP1 PUSH2 0x1F8C JUMP JUMPDEST DUP3 PUSH2 0xBAA SWAP2 SWAP1 PUSH2 0x1EEE JUMP JUMPDEST PUSH2 0xBB4 SWAP2 SWAP1 PUSH2 0x1F5C JUMP JUMPDEST SWAP6 POP PUSH0 PUSH3 0x360F4 SWAP1 POP DUP8 DUP2 PUSH2 0xBC9 SWAP2 SWAP1 PUSH2 0x1EEE JUMP JUMPDEST SWAP6 POP DUP7 DUP7 PUSH2 0xBD8 DUP14 DUP14 DUP13 PUSH2 0xC35 JUMP JUMPDEST SWAP7 POP SWAP7 POP SWAP7 POP POP POP POP POP SWAP5 POP SWAP5 POP SWAP5 SWAP2 POP POP JUMP JUMPDEST PUSH2 0xBF4 PUSH2 0x168E JUMP JUMPDEST DUP1 PUSH1 0x3 DUP2 SWAP1 SSTORE POP PUSH32 0x8C4D35E54A3F2EF1134138FD8EA3DAEE6A3C89E10D2665996BABDF70261E2C76 DUP2 PUSH1 0x40 MLOAD PUSH2 0xC2A SWAP2 SWAP1 PUSH2 0x19DA JUMP JUMPDEST PUSH1 0x40 MLOAD DUP1 SWAP2 SUB SWAP1 LOG1 POP JUMP JUMPDEST PUSH0 DUP1 PUSH1 0x2 PUSH8 0xFFFFFFFFFFFFFFFF DUP2 GT ISZERO PUSH2 0xC52 JUMPI PUSH2 0xC51 PUSH2 0x1B9B JUMP JUMPDEST JUMPDEST PUSH1 0x40 MLOAD SWAP1 DUP1 DUP3 MSTORE DUP1 PUSH1 0x20 MUL PUSH1 0x20 ADD DUP3 ADD PUSH1 0x40 MSTORE DUP1 ISZERO PUSH2 0xC80 JUMPI DUP2 PUSH1 0x20 ADD PUSH1 0x20 DUP3 MUL DUP1 CALLDATASIZE DUP4 CALLDATACOPY DUP1 DUP3 ADD SWAP2 POP POP SWAP1 POP JUMPDEST POP SWAP1 POP DUP5 DUP2 PUSH0 DUP2 MLOAD DUP2 LT PUSH2 0xC97 JUMPI PUSH2 0xC96 PUSH2 0x1BC8 JUMP JUMPDEST JUMPDEST PUSH1 0x20 MUL PUSH1 0x20 ADD ADD SWAP1 PUSH20 0xFFFFFFFFFFFFFFFFFFFFFFFFFFFFFFFFFFFFFFFF AND SWAP1 DUP2 PUSH20 0xFFFFFFFFFFFFFFFFFFFFFFFFFFFFFFFFFFFFFFFF AND DUP2 MSTORE POP POP PUSH1 0x1 PUSH0 SWAP1 SLOAD SWAP1 PUSH2 0x100 EXP SWAP1 DIV PUSH20 0xFFFFFFFFFFFFFFFFFFFFFFFFFFFFFFFFFFFFFFFF AND PUSH20 0xFFFFFFFFFFFFFFFFFFFFFFFFFFFFFFFFFFFFFFFF AND PUSH4 0xAD5C4648 PUSH1 0x40 MLOAD DUP2 PUSH4 0xFFFFFFFF AND PUSH1 0xE0 SHL DUP2 MSTORE PUSH1 0x4 ADD PUSH1 0x20 PUSH1 0x40 MLOAD DUP1 DUP4 SUB DUP2 DUP7 GAS STATICCALL ISZERO DUP1 ISZERO PUSH2 0xD3B JUMPI RETURNDATASIZE PUSH0 DUP1 RETURNDATACOPY RETURNDATASIZE PUSH0 REVERT JUMPDEST POP POP POP POP PUSH1 0x40 MLOAD RETURNDATASIZE PUSH1 0x1F NOT PUSH1 0x1F DUP3 ADD AND DUP3 ADD DUP1 PUSH1 0x40 MSTORE POP DUP2 ADD SWAP1 PUSH2 0xD5F SWAP2 SWAP1 PUSH2 0x1C09 JUMP JUMPDEST DUP2 PUSH1 0x1 DUP2 MLOAD DUP2 LT PUSH2 0xD73 JUMPI PUSH2 0xD72 PUSH2 0x1BC8 JUMP JUMPDEST JUMPDEST PUSH1 0x20 MUL PUSH1 0x20 ADD ADD SWAP1 PUSH20 0xFFFFFFFFFFFFFFFFFFFFFFFFFFFFFFFFFFFFFFFF AND SWAP1 DUP2 PUSH20 0xFFFFFFFFFFFFFFFFFFFFFFFFFFFFFFFFFFFFFFFF AND DUP2 MSTORE POP POP PUSH0 PUSH1 0x1 PUSH0 SWAP1 SLOAD SWAP1 PUSH2 0x100 EXP SWAP1 DIV PUSH20 0xFFFFFFFFFFFFFFFFFFFFFFFFFFFFFFFFFFFFFFFF AND PUSH20 0xFFFFFFFFFFFFFFFFFFFFFFFFFFFFFFFFFFFFFFFF AND PUSH4 0xD06CA61F DUP7 DUP5 PUSH1 0x40 MLOAD DUP4 PUSH4 0xFFFFFFFF AND PUSH1 0xE0 SHL DUP2 MSTORE PUSH1 0x4 ADD PUSH2 0xE0A SWAP3 SWAP2 SWAP1 PUSH2 0x205E JUMP JUMPDEST PUSH0 PUSH1 0x40 MLOAD DUP1 DUP4 SUB DUP2 DUP7 GAS STATICCALL ISZERO DUP1 ISZERO PUSH2 0xE24 JUMPI RETURNDATASIZE PUSH0 DUP1 RETURNDATACOPY RETURNDATASIZE PUSH0 REVERT JUMPDEST POP POP POP POP PUSH1 0x40 MLOAD RETURNDATASIZE PUSH0 DUP3 RETURNDATACOPY RETURNDATASIZE PUSH1 0x1F NOT PUSH1 0x1F DUP3 ADD AND DUP3 ADD DUP1 PUSH1 0x40 MSTORE POP DUP2 ADD SWAP1 PUSH2 0xE4C SWAP2 SWAP1 PUSH2 0x1E7A JUMP JUMPDEST SWAP1 POP PUSH0 DUP2 PUSH1 0x1 DUP2 MLOAD DUP2 LT PUSH2 0xE63 JUMPI PUSH2 0xE62 PUSH2 0x1BC8 JUMP JUMPDEST JUMPDEST PUSH1 0x20 MUL PUSH1 0x20 ADD ADD MLOAD SUB PUSH2 0xE7A JUMPI PUSH0 SWAP3 POP POP POP PUSH2 0xEC7 JUMP JUMPDEST PUSH0 PUSH3 0x360F4 SWAP1 POP PUSH0 DUP6 DUP3 PUSH2 0xE8E SWAP2 SWAP1 PUSH2 0x1EEE JUMP JUMPDEST SWAP1 POP DUP3 PUSH1 0x1 DUP2 MLOAD DUP2 LT PUSH2 0xEA4 JUMPI PUSH2 0xEA3 PUSH2 0x1BC8 JUMP JUMPDEST JUMPDEST PUSH1 0x20 MUL PUSH1 0x20 ADD ADD MLOAD DUP2 LT PUSH2 0xEBE JUMPI PUSH0 SWAP5 POP POP POP POP POP PUSH2 0xEC7 JUMP JUMPDEST PUSH1 0x1 SWAP5 POP POP POP POP POP JUMPDEST SWAP4 SWAP3 POP POP POP JUMP JUMPDEST PUSH2 0xED6 PUSH2 0x168E JUMP JUMPDEST PUSH0 PUSH3 0x360F4 SWAP1 POP PUSH0 GASPRICE DUP3 PUSH2 0xEEA SWAP2 SWAP1 PUSH2 0x1EEE JUMP JUMPDEST SWAP1 POP DUP3 DUP2 LT PUSH2 0xF2E JUMPI PUSH1 0x40 MLOAD PUSH32 0x8C379A000000000000000000000000000000000000000000000000000000000 DUP2 MSTORE PUSH1 0x4 ADD PUSH2 0xF25 SWAP1 PUSH2 0x20FC JUMP JUMPDEST PUSH1 0x40 MLOAD DUP1 SWAP2 SUB SWAP1 REVERT JUMPDEST PUSH2 0xF39 DUP6 DUP6 GASPRICE PUSH2 0xC35 JUMP JUMPDEST PUSH2 0xF78 JUMPI PUSH1 0x40 MLOAD PUSH32 0x8C379A000000000000000000000000000000000000000000000000000000000 DUP2 MSTORE PUSH1 0x4 ADD PUSH2 0xF6F SWAP1 PUSH2 0x2164 JUMP JUMPDEST PUSH1 0x40 MLOAD DUP1 SWAP2 SUB SWAP1 REVERT JUMPDEST PUSH0 PUSH1 0x2 PUSH8 0xFFFFFFFFFFFFFFFF DUP2 GT ISZERO PUSH2 0xF94 JUMPI PUSH2 0xF93 PUSH2 0x1B9B JUMP JUMPDEST JUMPDEST PUSH1 0x40 MLOAD SWAP1 DUP1 DUP3 MSTORE DUP1 PUSH1 0x20 MUL PUSH1 0x20 ADD DUP3 ADD PUSH1 0x40 MSTORE DUP1 ISZERO PUSH2 0xFC2 JUMPI DUP2 PUSH1 0x20 ADD PUSH1 0x20 DUP3 MUL DUP1 CALLDATASIZE DUP4 CALLDATACOPY DUP1 DUP3 ADD SWAP2 POP POP SWAP1 POP JUMPDEST POP SWAP1 POP DUP6 DUP2 PUSH0 DUP2 MLOAD DUP2 LT PUSH2 0xFD9 JUMPI PUSH2 0xFD8 PUSH2 0x1BC8 JUMP JUMPDEST JUMPDEST PUSH1 0x20 MUL PUSH1 0x20 ADD ADD SWAP1 PUSH20 0xFFFFFFFFFFFFFFFFFFFFFFFFFFFFFFFFFFFFFFFF AND SWAP1 DUP2 PUSH20 0xFFFFFFFFFFFFFFFFFFFFFFFFFFFFFFFFFFFFFFFF AND DUP2 MSTORE POP POP PUSH1 0x1 PUSH0 SWAP1 SLOAD SWAP1 PUSH2 0x100 EXP SWAP1 DIV PUSH20 0xFFFFFFFFFFFFFFFFFFFFFFFFFFFFFFFFFFFFFFFF AND PUSH20 0xFFFFFFFFFFFFFFFFFFFFFFFFFFFFFFFFFFFFFFFF AND PUSH4 0xAD5C4648 PUSH1 0x40 MLOAD DUP2 PUSH4 0xFFFFFFFF AND PUSH1 0xE0 SHL DUP2 MSTORE PUSH1 0x4 ADD PUSH1 0x20 PUSH1 0x40 MLOAD DUP1 DUP4 SUB DUP2 DUP7 GAS STATICCALL ISZERO DUP1 ISZERO PUSH2 0x107D JUMPI RETURNDATASIZE PUSH0 DUP1 RETURNDATACOPY RETURNDATASIZE PUSH0 REVERT JUMPDEST POP POP POP POP PUSH1 0x40 MLOAD RETURNDATASIZE PUSH1 0x1F NOT PUSH1 0x1F DUP3 ADD AND DUP3 ADD DUP1 PUSH1 0x40 MSTORE POP DUP2 ADD SWAP1 PUSH2 0x10A1 SWAP2 SWAP1 PUSH2 0x1C09 JUMP JUMPDEST DUP2 PUSH1 0x1 DUP2 MLOAD DUP2 LT PUSH2 0x10B5 JUMPI PUSH2 0x10B4 PUSH2 0x1BC8 JUMP JUMPDEST JUMPDEST PUSH1 0x20 MUL PUSH1 0x20 ADD ADD SWAP1 PUSH20 0xFFFFFFFFFFFFFFFFFFFFFFFFFFFFFFFFFFFFFFFF AND SWAP1 DUP2 PUSH20 0xFFFFFFFFFFFFFFFFFFFFFFFFFFFFFFFFFFFFFFFF AND DUP2 MSTORE POP POP PUSH0 PUSH1 0x1 PUSH0 SWAP1 SLOAD SWAP1 PUSH2 0x100 EXP SWAP1 DIV PUSH20 0xFFFFFFFFFFFFFFFFFFFFFFFFFFFFFFFFFFFFFFFF AND PUSH20 0xFFFFFFFFFFFFFFFFFFFFFFFFFFFFFFFFFFFFFFFF AND PUSH4 0xD06CA61F DUP8 DUP5 PUSH1 0x40 MLOAD DUP4 PUSH4 0xFFFFFFFF AND PUSH1 0xE0 SHL DUP2 MSTORE PUSH1 0x4 ADD PUSH2 0x114C SWAP3 SWAP2 SWAP1 PUSH2 0x205E JUMP JUMPDEST PUSH0 PUSH1 0x40 MLOAD DUP1 DUP4 SUB DUP2 DUP7 GAS STATICCALL ISZERO DUP1 ISZERO PUSH2 0x1166 JUMPI RETURNDATASIZE PUSH0 DUP1 RETURNDATACOPY RETURNDATASIZE PUSH0 REVERT JUMPDEST POP POP POP POP PUSH1 0x40 MLOAD RETURNDATASIZE PUSH0 DUP3 RETURNDATACOPY RETURNDATASIZE PUSH1 0x1F NOT PUSH1 0x1F DUP3 ADD AND DUP3 ADD DUP1 PUSH1 0x40 MSTORE POP DUP2 ADD SWAP1 PUSH2 0x118E SWAP2 SWAP1 PUSH2 0x1E7A JUMP JUMPDEST SWAP1 POP PUSH0 DUP2 PUSH1 0x1 DUP2 MLOAD DUP2 LT PUSH2 0x11A5 JUMPI PUSH2 0x11A4 PUSH2 0x1BC8 JUMP JUMPDEST JUMPDEST PUSH1 0x20 MUL PUSH1 0x20 ADD ADD MLOAD SWAP1 POP DUP6 DUP2 LT ISZERO PUSH2 0x11F2 JUMPI PUSH1 0x40 MLOAD PUSH32 0x8C379A000000000000000000000000000000000000000000000000000000000 DUP2 MSTORE PUSH1 0x4 ADD PUSH2 0x11E9 SWAP1 PUSH2 0x21F2 JUMP JUMPDEST PUSH1 0x40 MLOAD DUP1 SWAP2 SUB SWAP1 REVERT JUMPDEST DUP8 PUSH20 0xFFFFFFFFFFFFFFFFFFFFFFFFFFFFFFFFFFFFFFFF AND PUSH4 0x23B872DD CALLER ADDRESS DUP11 PUSH1 0x40 MLOAD DUP5 PUSH4 0xFFFFFFFF AND PUSH1 0xE0 SHL DUP2 MSTORE PUSH1 0x4 ADD PUSH2 0x122F SWAP4 SWAP3 SWAP2 SWAP1 PUSH2 0x1AEA JUMP JUMPDEST PUSH1 0x20 PUSH1 0x40 MLOAD DUP1 DUP4 SUB DUP2 PUSH0 DUP8 GAS CALL ISZERO DUP1 ISZERO PUSH2 0x124B JUMPI RETURNDATASIZE PUSH0 DUP1 RETURNDATACOPY RETURNDATASIZE PUSH0 REVERT JUMPDEST POP POP POP POP PUSH1 0x40 MLOAD RETURNDATASIZE PUSH1 0x1F NOT PUSH1 0x1F DUP3 ADD AND DUP3 ADD DUP1 PUSH1 0x40 MSTORE POP DUP2 ADD SWAP1 PUSH2 0x126F SWAP2 SWAP1 PUSH2 0x1B49 JUMP JUMPDEST POP DUP8 PUSH20 0xFFFFFFFFFFFFFFFFFFFFFFFFFFFFFFFFFFFFFFFF AND PUSH4 0x95EA7B3 PUSH1 0x1 PUSH0 SWAP1 SLOAD SWAP1 PUSH2 0x100 EXP SWAP1 DIV PUSH20 0xFFFFFFFFFFFFFFFFFFFFFFFFFFFFFFFFFFFFFFFF AND DUP10 PUSH1 0x40 MLOAD DUP4 PUSH4 0xFFFFFFFF AND PUSH1 0xE0 SHL DUP2 MSTORE PUSH1 0x4 ADD PUSH2 0x12CC SWAP3 SWAP2 SWAP1 PUSH2 0x1B74 JUMP JUMPDEST PUSH1 0x20 PUSH1 0x40 MLOAD DUP1 DUP4 SUB DUP2 PUSH0 DUP8 GAS CALL ISZERO DUP1 ISZERO PUSH2 0x12E8 JUMPI RETURNDATASIZE PUSH0 DUP1 RETURNDATACOPY RETURNDATASIZE PUSH0 REVERT JUMPDEST POP POP POP POP PUSH1 0x40 MLOAD RETURNDATASIZE PUSH1 0x1F NOT PUSH1 0x1F DUP3 ADD AND DUP3 ADD DUP1 PUSH1 0x40 MSTORE POP DUP2 ADD SWAP1 PUSH2 0x130C SWAP2 SWAP1 PUSH2 0x1B49 JUMP JUMPDEST POP PUSH0 PUSH1 0x1 PUSH0 SWAP1 SLOAD SWAP1 PUSH2 0x100 EXP SWAP1 DIV PUSH20 0xFFFFFFFFFFFFFFFFFFFFFFFFFFFFFFFFFFFFFFFF AND PUSH20 0xFFFFFFFFFFFFFFFFFFFFFFFFFFFFFFFFFFFFFFFF AND PUSH4 0x18CBAFE5 DUP10 DUP10 DUP8 ADDRESS TIMESTAMP PUSH1 0x40 MLOAD DUP7 PUSH4 0xFFFFFFFF AND PUSH1 0xE0 SHL DUP2 MSTORE PUSH1 0x4 ADD PUSH2 0x1370 SWAP6 SWAP5 SWAP4 SWAP3 SWAP2 SWAP1 PUSH2 0x1CEB JUMP JUMPDEST PUSH0 PUSH1 0x40 MLOAD DUP1 DUP4 SUB DUP2 PUSH0 DUP8 GAS CALL ISZERO DUP1 ISZERO PUSH2 0x138B JUMPI RETURNDATASIZE PUSH0 DUP1 RETURNDATACOPY RETURNDATASIZE PUSH0 REVERT JUMPDEST POP POP POP POP PUSH1 0x40 MLOAD RETURNDATASIZE PUSH0 DUP3 RETURNDATACOPY RETURNDATASIZE PUSH1 0x1F NOT PUSH1 0x1F DUP3 ADD AND DUP3 ADD DUP1 PUSH1 0x40 MSTORE POP DUP2 ADD SWAP1 PUSH2 0x13B3 SWAP2 SWAP1 PUSH2 0x1E7A JUMP JUMPDEST SWAP1 POP PUSH0 DUP2 PUSH1 0x1 DUP2 MLOAD DUP2 LT PUSH2 0x13CA JUMPI PUSH2 0x13C9 PUSH2 0x1BC8 JUMP JUMPDEST JUMPDEST PUSH1 0x20 MUL PUSH1 0x20 ADD ADD MLOAD SWAP1 POP PUSH0 DUP9 DUP5 GT PUSH2 0x13E2 JUMPI PUSH0 PUSH2 0x13EF JUMP JUMPDEST DUP9 DUP5 PUSH2 0x13EE SWAP2 SWAP1 PUSH2 0x1F8C JUMP JUMPDEST JUMPDEST SWAP1 POP PUSH0 DUP5 DUP4 GT PUSH2 0x13FF JUMPI PUSH0 PUSH2 0x140C JUMP JUMPDEST DUP5 DUP4 PUSH2 0x140B SWAP2 SWAP1 PUSH2 0x1F8C JUMP JUMPDEST JUMPDEST SWAP1 POP PUSH0 PUSH1 0x64 PUSH1 0x28 DUP4 PUSH2 0x141E SWAP2 SWAP1 PUSH2 0x1EEE JUMP JUMPDEST PUSH2 0x1428 SWAP2 SWAP1 PUSH2 0x1F5C JUMP JUMPDEST PUSH2 0x2710 PUSH1 0x3 SLOAD DUP5 DUP7 DUP9 PUSH2 0x143B SWAP2 SWAP1 PUSH2 0x1F8C JUMP JUMPDEST PUSH2 0x1445 SWAP2 SWAP1 PUSH2 0x1F8C JUMP JUMPDEST PUSH2 0x144F SWAP2 SWAP1 PUSH2 0x1EEE JUMP JUMPDEST PUSH2 0x1459 SWAP2 SWAP1 PUSH2 0x1F5C JUMP JUMPDEST PUSH2 0x1463 SWAP2 SWAP1 PUSH2 0x2210 JUMP JUMPDEST SWAP1 POP PUSH1 0x2 PUSH0 SWAP1 SLOAD SWAP1 PUSH2 0x100 EXP SWAP1 DIV PUSH20 0xFFFFFFFFFFFFFFFFFFFFFFFFFFFFFFFFFFFFFFFF AND PUSH20 0xFFFFFFFFFFFFFFFFFFFFFFFFFFFFFFFFFFFFFFFF AND PUSH4 0x99DA9E9 PUSH1 0x64 PUSH1 0x5A DUP5 PUSH2 0x14B1 SWAP2 SWAP1 PUSH2 0x1EEE JUMP JUMPDEST PUSH2 0x14BB SWAP2 SWAP1 PUSH2 0x1F5C JUMP JUMPDEST PUSH1 0x40 MLOAD DUP3 PUSH4 0xFFFFFFFF AND PUSH1 0xE0 SHL DUP2 MSTORE PUSH1 0x4 ADD PUSH2 0x14D7 SWAP2 SWAP1 PUSH2 0x19DA JUMP JUMPDEST PUSH0 PUSH1 0x40 MLOAD DUP1 DUP4 SUB DUP2 PUSH0 DUP8 DUP1 EXTCODESIZE ISZERO DUP1 ISZERO PUSH2 0x14EE JUMPI PUSH0 DUP1 REVERT JUMPDEST POP GAS CALL ISZERO DUP1 ISZERO PUSH2 0x1500 JUMPI RETURNDATASIZE PUSH0 DUP1 RETURNDATACOPY RETURNDATASIZE PUSH0 REVERT JUMPDEST POP POP POP POP CALLER PUSH20 0xFFFFFFFFFFFFFFFFFFFFFFFFFFFFFFFFFFFFFFFF AND PUSH2 0x8FC DUP3 DUP7 PUSH2 0x152A SWAP2 SWAP1 PUSH2 0x1F8C JUMP JUMPDEST SWAP1 DUP2 ISZERO MUL SWAP1 PUSH1 0x40 MLOAD PUSH0 PUSH1 0x40 MLOAD DUP1 DUP4 SUB DUP2 DUP6 DUP9 DUP9 CALL SWAP4 POP POP POP POP ISZERO DUP1 ISZERO PUSH2 0x1552 JUMPI RETURNDATASIZE PUSH0 DUP1 RETURNDATACOPY RETURNDATASIZE PUSH0 REVERT JUMPDEST POP CALLER PUSH20 0xFFFFFFFFFFFFFFFFFFFFFFFFFFFFFFFFFFFFFFFF AND PUSH32 0xD0DCB5D6CCBC65558941EDA1D0ADD99921923CC1868A41BBF8D224258A21396D DUP14 DUP7 PUSH1 0x40 MLOAD PUSH2 0x159B SWAP3 SWAP2 SWAP1 PUSH2 0x1FBF JUMP JUMPDEST PUSH1 0x40 MLOAD DUP1 SWAP2 SUB SWAP1 LOG2 POP POP POP POP POP POP POP POP POP POP POP POP POP JUMP JUMPDEST PUSH2 0x15BA PUSH2 0x168E JUMP JUMPDEST PUSH2 0x15C2 PUSH2 0x902 JUMP JUMPDEST PUSH20 0xFFFFFFFFFFFFFFFFFFFFFFFFFFFFFFFFFFFFFFFF AND PUSH2 0x8FC DUP3 SWAP1 DUP2 ISZERO MUL SWAP1 PUSH1 0x40 MLOAD PUSH0 PUSH1 0x40 MLOAD DUP1 DUP4 SUB DUP2 DUP6 DUP9 DUP9 CALL SWAP4 POP POP POP POP ISZERO DUP1 ISZERO PUSH2 0x1604 JUMPI RETURNDATASIZE PUSH0 DUP1 RETURNDATACOPY RETURNDATASIZE PUSH0 REVERT JUMPDEST POP POP JUMP JUMPDEST PUSH2 0x1610 PUSH2 0x168E JUMP JUMPDEST PUSH0 PUSH20 0xFFFFFFFFFFFFFFFFFFFFFFFFFFFFFFFFFFFFFFFF AND DUP2 PUSH20 0xFFFFFFFFFFFFFFFFFFFFFFFFFFFFFFFFFFFFFFFF AND SUB PUSH2 0x1680 JUMPI PUSH0 PUSH1 0x40 MLOAD PUSH32 0x1E4FBDF700000000000000000000000000000000000000000000000000000000 DUP2 MSTORE PUSH1 0x4 ADD PUSH2 0x1677 SWAP2 SWAP1 PUSH2 0x1979 JUMP JUMPDEST PUSH1 0x40 MLOAD DUP1 SWAP2 SUB SWAP1 REVERT JUMPDEST PUSH2 0x1689 DUP2 PUSH2 0x1715 JUMP JUMPDEST POP JUMP JUMPDEST JUMP JUMPDEST PUSH2 0x1696 PUSH2 0x17D6 JUMP JUMPDEST PUSH20 0xFFFFFFFFFFFFFFFFFFFFFFFFFFFFFFFFFFFFFFFF AND PUSH2 0x16B4 PUSH2 0x902 JUMP JUMPDEST PUSH20 0xFFFFFFFFFFFFFFFFFFFFFFFFFFFFFFFFFFFFFFFF AND EQ PUSH2 0x1713 JUMPI PUSH2 0x16D7 PUSH2 0x17D6 JUMP JUMPDEST PUSH1 0x40 MLOAD PUSH32 0x118CDAA700000000000000000000000000000000000000000000000000000000 DUP2 MSTORE PUSH1 0x4 ADD PUSH2 0x170A SWAP2 SWAP1 PUSH2 0x1979 JUMP JUMPDEST PUSH1 0x40 MLOAD DUP1 SWAP2 SUB SWAP1 REVERT JUMPDEST JUMP JUMPDEST PUSH0 DUP1 PUSH0 SWAP1 SLOAD SWAP1 PUSH2 0x100 EXP SWAP1 DIV PUSH20 0xFFFFFFFFFFFFFFFFFFFFFFFFFFFFFFFFFFFFFFFF AND SWAP1 POP DUP2 PUSH0 DUP1 PUSH2 0x100 EXP DUP2 SLOAD DUP2 PUSH20 0xFFFFFFFFFFFFFFFFFFFFFFFFFFFFFFFFFFFFFFFF MUL NOT AND SWAP1 DUP4 PUSH20 0xFFFFFFFFFFFFFFFFFFFFFFFFFFFFFFFFFFFFFFFF AND MUL OR SWAP1 SSTORE POP DUP2 PUSH20 0xFFFFFFFFFFFFFFFFFFFFFFFFFFFFFFFFFFFFFFFF AND DUP2 PUSH20 0xFFFFFFFFFFFFFFFFFFFFFFFFFFFFFFFFFFFFFFFF AND PUSH32 0x8BE0079C531659141344CD1FD0A4F28419497F9722A3DAAFE3B4186F6B6457E0 PUSH1 0x40 MLOAD PUSH1 0x40 MLOAD DUP1 SWAP2 SUB SWAP1 LOG3 POP POP JUMP JUMPDEST PUSH0 CALLER SWAP1 POP SWAP1 JUMP JUMPDEST PUSH0 PUSH1 0x40 MLOAD SWAP1 POP SWAP1 JUMP JUMPDEST PUSH0 DUP1 REVERT JUMPDEST PUSH0 DUP1 REVERT JUMPDEST PUSH0 PUSH20 0xFFFFFFFFFFFFFFFFFFFFFFFFFFFFFFFFFFFFFFFF DUP3 AND SWAP1 POP SWAP2 SWAP1 POP JUMP JUMPDEST PUSH0 PUSH2 0x1817 DUP3 PUSH2 0x17EE JUMP JUMPDEST SWAP1 POP SWAP2 SWAP1 POP JUMP JUMPDEST PUSH2 0x1827 DUP2 PUSH2 0x180D JUMP JUMPDEST DUP2 EQ PUSH2 0x1831 JUMPI PUSH0 DUP1 REVERT JUMPDEST POP JUMP JUMPDEST PUSH0 DUP2 CALLDATALOAD SWAP1 POP PUSH2 0x1842 DUP2 PUSH2 0x181E JUMP JUMPDEST SWAP3 SWAP2 POP POP JUMP JUMPDEST PUSH0 DUP2 SWAP1 POP SWAP2 SWAP1 POP JUMP JUMPDEST PUSH2 0x185A DUP2 PUSH2 0x1848 JUMP JUMPDEST DUP2 EQ PUSH2 0x1864 JUMPI PUSH0 DUP1 REVERT JUMPDEST POP JUMP JUMPDEST PUSH0 DUP2 CALLDATALOAD SWAP1 POP PUSH2 0x1875 DUP2 PUSH2 0x1851 JUMP JUMPDEST SWAP3 SWAP2 POP POP JUMP JUMPDEST PUSH0 DUP1 PUSH0 PUSH1 0x60 DUP5 DUP7 SUB SLT ISZERO PUSH2 0x1892 JUMPI PUSH2 0x1891 PUSH2 0x17E6 JUMP JUMPDEST JUMPDEST PUSH0 PUSH2 0x189F DUP7 DUP3 DUP8 ADD PUSH2 0x1834 JUMP JUMPDEST SWAP4 POP POP PUSH1 0x20 PUSH2 0x18B0 DUP7 DUP3 DUP8 ADD PUSH2 0x1867 JUMP JUMPDEST SWAP3 POP POP PUSH1 0x40 PUSH2 0x18C1 DUP7 DUP3 DUP8 ADD PUSH2 0x1867 JUMP JUMPDEST SWAP2 POP POP SWAP3 POP SWAP3 POP SWAP3 JUMP JUMPDEST PUSH0 PUSH1 0x20 DUP3 DUP5 SUB SLT ISZERO PUSH2 0x18E0 JUMPI PUSH2 0x18DF PUSH2 0x17E6 JUMP JUMPDEST JUMPDEST PUSH0 PUSH2 0x18ED DUP5 DUP3 DUP6 ADD PUSH2 0x1834 JUMP JUMPDEST SWAP2 POP POP SWAP3 SWAP2 POP POP JUMP JUMPDEST PUSH0 DUP2 SWAP1 POP SWAP2 SWAP1 POP JUMP JUMPDEST PUSH0 PUSH2 0x1919 PUSH2 0x1914 PUSH2 0x190F DUP5 PUSH2 0x17EE JUMP JUMPDEST PUSH2 0x18F6 JUMP JUMPDEST PUSH2 0x17EE JUMP JUMPDEST SWAP1 POP SWAP2 SWAP1 POP JUMP JUMPDEST PUSH0 PUSH2 0x192A DUP3 PUSH2 0x18FF JUMP JUMPDEST SWAP1 POP SWAP2 SWAP1 POP JUMP JUMPDEST PUSH0 PUSH2 0x193B DUP3 PUSH2 0x1920 JUMP JUMPDEST SWAP1 POP SWAP2 SWAP1 POP JUMP JUMPDEST PUSH2 0x194B DUP2 PUSH2 0x1931 JUMP JUMPDEST DUP3 MSTORE POP POP JUMP JUMPDEST PUSH0 PUSH1 0x20 DUP3 ADD SWAP1 POP PUSH2 0x1964 PUSH0 DUP4 ADD DUP5 PUSH2 0x1942 JUMP JUMPDEST SWAP3 SWAP2 POP POP JUMP JUMPDEST PUSH2 0x1973 DUP2 PUSH2 0x180D JUMP JUMPDEST DUP3 MSTORE POP POP JUMP JUMPDEST PUSH0 PUSH1 0x20 DUP3 ADD SWAP1 POP PUSH2 0x198C PUSH0 DUP4 ADD DUP5 PUSH2 0x196A JUMP JUMPDEST SWAP3 SWAP2 POP POP JUMP JUMPDEST PUSH0 PUSH2 0x199C DUP3 PUSH2 0x1920 JUMP JUMPDEST SWAP1 POP SWAP2 SWAP1 POP JUMP JUMPDEST PUSH2 0x19AC DUP2 PUSH2 0x1992 JUMP JUMPDEST DUP3 MSTORE POP POP JUMP JUMPDEST PUSH0 PUSH1 0x20 DUP3 ADD SWAP1 POP PUSH2 0x19C5 PUSH0 DUP4 ADD DUP5 PUSH2 0x19A3 JUMP JUMPDEST SWAP3 SWAP2 POP POP JUMP JUMPDEST PUSH2 0x19D4 DUP2 PUSH2 0x1848 JUMP JUMPDEST DUP3 MSTORE POP POP JUMP JUMPDEST PUSH0 PUSH1 0x20 DUP3 ADD SWAP1 POP PUSH2 0x19ED PUSH0 DUP4 ADD DUP5 PUSH2 0x19CB JUMP JUMPDEST SWAP3 SWAP2 POP POP JUMP JUMPDEST PUSH0 DUP1 PUSH0 DUP1 PUSH1 0x80 DUP6 DUP8 SUB SLT ISZERO PUSH2 0x1A0B JUMPI PUSH2 0x1A0A PUSH2 0x17E6 JUMP JUMPDEST JUMPDEST PUSH0 PUSH2 0x1A18 DUP8 DUP3 DUP9 ADD PUSH2 0x1834 JUMP JUMPDEST SWAP5 POP POP PUSH1 0x20 PUSH2 0x1A29 DUP8 DUP3 DUP9 ADD PUSH2 0x1867 JUMP JUMPDEST SWAP4 POP POP PUSH1 0x40 PUSH2 0x1A3A DUP8 DUP3 DUP9 ADD PUSH2 0x1867 JUMP JUMPDEST SWAP3 POP POP PUSH1 0x60 PUSH2 0x1A4B DUP8 DUP3 DUP9 ADD PUSH2 0x1867 JUMP JUMPDEST SWAP2 POP POP SWAP3 SWAP6 SWAP2 SWAP5 POP SWAP3 POP JUMP JUMPDEST PUSH0 DUP2 ISZERO ISZERO SWAP1 POP SWAP2 SWAP1 POP JUMP JUMPDEST PUSH2 0x1A6B DUP2 PUSH2 0x1A57 JUMP JUMPDEST DUP3 MSTORE POP POP JUMP JUMPDEST PUSH0 PUSH1 0x60 DUP3 ADD SWAP1 POP PUSH2 0x1A84 PUSH0 DUP4 ADD DUP7 PUSH2 0x19CB JUMP JUMPDEST PUSH2 0x1A91 PUSH1 0x20 DUP4 ADD DUP6 PUSH2 0x19CB JUMP JUMPDEST PUSH2 0x1A9E PUSH1 0x40 DUP4 ADD DUP5 PUSH2 0x1A62 JUMP JUMPDEST SWAP5 SWAP4 POP POP POP POP JUMP JUMPDEST PUSH0 PUSH1 0x20 DUP3 DUP5 SUB SLT ISZERO PUSH2 0x1ABB JUMPI PUSH2 0x1ABA PUSH2 0x17E6 JUMP JUMPDEST JUMPDEST PUSH0 PUSH2 0x1AC8 DUP5 DUP3 DUP6 ADD PUSH2 0x1867 JUMP JUMPDEST SWAP2 POP POP SWAP3 SWAP2 POP POP JUMP JUMPDEST PUSH0 PUSH1 0x20 DUP3 ADD SWAP1 POP PUSH2 0x1AE4 PUSH0 DUP4 ADD DUP5 PUSH2 0x1A62 JUMP JUMPDEST SWAP3 SWAP2 POP POP JUMP JUMPDEST PUSH0 PUSH1 0x60 DUP3 ADD SWAP1 POP PUSH2 0x1AFD PUSH0 DUP4 ADD DUP7 PUSH2 0x196A JUMP JUMPDEST PUSH2 0x1B0A PUSH1 0x20 DUP4 ADD DUP6 PUSH2 0x196A JUMP JUMPDEST PUSH2 0x1B17 PUSH1 0x40 DUP4 ADD DUP5 PUSH2 0x19CB JUMP JUMPDEST SWAP5 SWAP4 POP POP POP POP JUMP JUMPDEST PUSH2 0x1B28 DUP2 PUSH2 0x1A57 JUMP JUMPDEST DUP2 EQ PUSH2 0x1B32 JUMPI PUSH0 DUP1 REVERT JUMPDEST POP JUMP JUMPDEST PUSH0 DUP2 MLOAD SWAP1 POP PUSH2 0x1B43 DUP2 PUSH2 0x1B1F JUMP JUMPDEST SWAP3 SWAP2 POP POP JUMP JUMPDEST PUSH0 PUSH1 0x20 DUP3 DUP5 SUB SLT ISZERO PUSH2 0x1B5E JUMPI PUSH2 0x1B5D PUSH2 0x17E6 JUMP JUMPDEST JUMPDEST PUSH0 PUSH2 0x1B6B DUP5 DUP3 DUP6 ADD PUSH2 0x1B35 JUMP JUMPDEST SWAP2 POP POP SWAP3 SWAP2 POP POP JUMP JUMPDEST PUSH0 PUSH1 0x40 DUP3 ADD SWAP1 POP PUSH2 0x1B87 PUSH0 DUP4 ADD DUP6 PUSH2 0x196A JUMP JUMPDEST PUSH2 0x1B94 PUSH1 0x20 DUP4 ADD DUP5 PUSH2 0x19CB JUMP JUMPDEST SWAP4 SWAP3 POP POP POP JUMP JUMPDEST PUSH32 0x4E487B7100000000000000000000000000000000000000000000000000000000 PUSH0 MSTORE PUSH1 0x41 PUSH1 0x4 MSTORE PUSH1 0x24 PUSH0 REVERT JUMPDEST PUSH32 0x4E487B7100000000000000000000000000000000000000000000000000000000 PUSH0 MSTORE PUSH1 0x32 PUSH1 0x4 MSTORE PUSH1 0x24 PUSH0 REVERT JUMPDEST PUSH0 DUP2 MLOAD SWAP1 POP PUSH2 0x1C03 DUP2 PUSH2 0x181E JUMP JUMPDEST SWAP3 SWAP2 POP POP JUMP JUMPDEST PUSH0 PUSH1 0x20 DUP3 DUP5 SUB SLT ISZERO PUSH2 0x1C1E JUMPI PUSH2 0x1C1D PUSH2 0x17E6 JUMP JUMPDEST JUMPDEST PUSH0 PUSH2 0x1C2B DUP5 DUP3 DUP6 ADD PUSH2 0x1BF5 JUMP JUMPDEST SWAP2 POP POP SWAP3 SWAP2 POP POP JUMP JUMPDEST PUSH0 DUP2 MLOAD SWAP1 POP SWAP2 SWAP1 POP JUMP JUMPDEST PUSH0 DUP3 DUP3 MSTORE PUSH1 0x20 DUP3 ADD SWAP1 POP SWAP3 SWAP2 POP POP JUMP JUMPDEST PUSH0 DUP2 SWAP1 POP PUSH1 0x20 DUP3 ADD SWAP1 POP SWAP2 SWAP1 POP JUMP JUMPDEST PUSH2 0x1C66 DUP2 PUSH2 0x180D JUMP JUMPDEST DUP3 MSTORE POP POP JUMP JUMPDEST PUSH0 PUSH2 0x1C77 DUP4 DUP4 PUSH2 0x1C5D JUMP JUMPDEST PUSH1 0x20 DUP4 ADD SWAP1 POP SWAP3 SWAP2 POP POP JUMP JUMPDEST PUSH0 PUSH1 0x20 DUP3 ADD SWAP1 POP SWAP2 SWAP1 POP JUMP JUMPDEST PUSH0 PUSH2 0x1C99 DUP3 PUSH2 0x1C34 JUMP JUMPDEST PUSH2 0x1CA3 DUP2 DUP6 PUSH2 0x1C3E JUMP JUMPDEST SWAP4 POP PUSH2 0x1CAE DUP4 PUSH2 0x1C4E JUMP JUMPDEST DUP1 PUSH0 JUMPDEST DUP4 DUP2 LT ISZERO PUSH2 0x1CDE JUMPI DUP2 MLOAD PUSH2 0x1CC5 DUP9 DUP3 PUSH2 0x1C6C JUMP JUMPDEST SWAP8 POP PUSH2 0x1CD0 DUP4 PUSH2 0x1C83 JUMP JUMPDEST SWAP3 POP POP PUSH1 0x1 DUP2 ADD SWAP1 POP PUSH2 0x1CB1 JUMP JUMPDEST POP DUP6 SWAP4 POP POP POP POP SWAP3 SWAP2 POP POP JUMP JUMPDEST PUSH0 PUSH1 0xA0 DUP3 ADD SWAP1 POP PUSH2 0x1CFE PUSH0 DUP4 ADD DUP9 PUSH2 0x19CB JUMP JUMPDEST PUSH2 0x1D0B PUSH1 0x20 DUP4 ADD DUP8 PUSH2 0x19CB JUMP JUMPDEST DUP2 DUP2 SUB PUSH1 0x40 DUP4 ADD MSTORE PUSH2 0x1D1D DUP2 DUP7 PUSH2 0x1C8F JUMP JUMPDEST SWAP1 POP PUSH2 0x1D2C PUSH1 0x60 DUP4 ADD DUP6 PUSH2 0x196A JUMP JUMPDEST PUSH2 0x1D39 PUSH1 0x80 DUP4 ADD DUP5 PUSH2 0x19CB JUMP JUMPDEST SWAP7 SWAP6 POP POP POP POP POP POP JUMP JUMPDEST PUSH0 DUP1 REVERT JUMPDEST PUSH0 PUSH1 0x1F NOT PUSH1 0x1F DUP4 ADD AND SWAP1 POP SWAP2 SWAP1 POP JUMP JUMPDEST PUSH2 0x1D60 DUP3 PUSH2 0x1D47 JUMP JUMPDEST DUP2 ADD DUP2 DUP2 LT PUSH8 0xFFFFFFFFFFFFFFFF DUP3 GT OR ISZERO PUSH2 0x1D7F JUMPI PUSH2 0x1D7E PUSH2 0x1B9B JUMP JUMPDEST JUMPDEST DUP1 PUSH1 0x40 MSTORE POP POP POP JUMP JUMPDEST PUSH0 PUSH2 0x1D91 PUSH2 0x17DD JUMP JUMPDEST SWAP1 POP PUSH2 0x1D9D DUP3 DUP3 PUSH2 0x1D57 JUMP JUMPDEST SWAP2 SWAP1 POP JUMP JUMPDEST PUSH0 PUSH8 0xFFFFFFFFFFFFFFFF DUP3 GT ISZERO PUSH2 0x1DBC JUMPI PUSH2 0x1DBB PUSH2 0x1B9B JUMP JUMPDEST JUMPDEST PUSH1 0x20 DUP3 MUL SWAP1 POP PUSH1 0x20 DUP2 ADD SWAP1 POP SWAP2 SWAP1 POP JUMP JUMPDEST PUSH0 DUP1 REVERT JUMPDEST PUSH0 DUP2 MLOAD SWAP1 POP PUSH2 0x1DDF DUP2 PUSH2 0x1851 JUMP JUMPDEST SWAP3 SWAP2 POP POP JUMP JUMPDEST PUSH0 PUSH2 0x1DF7 PUSH2 0x1DF2 DUP5 PUSH2 0x1DA2 JUMP JUMPDEST PUSH2 0x1D88 JUMP JUMPDEST SWAP1 POP DUP1 DUP4 DUP3 MSTORE PUSH1 0x20 DUP3 ADD SWAP1 POP PUSH1 0x20 DUP5 MUL DUP4 ADD DUP6 DUP2 GT ISZERO PUSH2 0x1E1A JUMPI PUSH2 0x1E19 PUSH2 0x1DCD JUMP JUMPDEST JUMPDEST DUP4 JUMPDEST DUP2 DUP2 LT ISZERO PUSH2 0x1E43 JUMPI DUP1 PUSH2 0x1E2F DUP9 DUP3 PUSH2 0x1DD1 JUMP JUMPDEST DUP5 MSTORE PUSH1 0x20 DUP5 ADD SWAP4 POP POP PUSH1 0x20 DUP2 ADD SWAP1 POP PUSH2 0x1E1C JUMP JUMPDEST POP POP POP SWAP4 SWAP3 POP POP POP JUMP JUMPDEST PUSH0 DUP3 PUSH1 0x1F DUP4 ADD SLT PUSH2 0x1E61 JUMPI PUSH2 0x1E60 PUSH2 0x1D43 JUMP JUMPDEST JUMPDEST DUP2 MLOAD PUSH2 0x1E71 DUP5 DUP3 PUSH1 0x20 DUP7 ADD PUSH2 0x1DE5 JUMP JUMPDEST SWAP2 POP POP SWAP3 SWAP2 POP POP JUMP JUMPDEST PUSH0 PUSH1 0x20 DUP3 DUP5 SUB SLT ISZERO PUSH2 0x1E8F JUMPI PUSH2 0x1E8E PUSH2 0x17E6 JUMP JUMPDEST JUMPDEST PUSH0 DUP3 ADD MLOAD PUSH8 0xFFFFFFFFFFFFFFFF DUP2 GT ISZERO PUSH2 0x1EAC JUMPI PUSH2 0x1EAB PUSH2 0x17EA JUMP JUMPDEST JUMPDEST PUSH2 0x1EB8 DUP5 DUP3 DUP6 ADD PUSH2 0x1E4D JUMP JUMPDEST SWAP2 POP POP SWAP3 SWAP2 POP POP JUMP JUMPDEST PUSH32 0x4E487B7100000000000000000000000000000000000000000000000000000000 PUSH0 MSTORE PUSH1 0x11 PUSH1 0x4 MSTORE PUSH1 0x24 PUSH0 REVERT JUMPDEST PUSH0 PUSH2 0x1EF8 DUP3 PUSH2 0x1848 JUMP JUMPDEST SWAP2 POP PUSH2 0x1F03 DUP4 PUSH2 0x1848 JUMP JUMPDEST SWAP3 POP DUP3 DUP3 MUL PUSH2 0x1F11 DUP2 PUSH2 0x1848 JUMP JUMPDEST SWAP2 POP DUP3 DUP3 DIV DUP5 EQ DUP4 ISZERO OR PUSH2 0x1F28 JUMPI PUSH2 0x1F27 PUSH2 0x1EC1 JUMP JUMPDEST JUMPDEST POP SWAP3 SWAP2 POP POP JUMP JUMPDEST PUSH32 0x4E487B7100000000000000000000000000000000000000000000000000000000 PUSH0 MSTORE PUSH1 0x12 PUSH1 0x4 MSTORE PUSH1 0x24 PUSH0 REVERT JUMPDEST PUSH0 PUSH2 0x1F66 DUP3 PUSH2 0x1848 JUMP JUMPDEST SWAP2 POP PUSH2 0x1F71 DUP4 PUSH2 0x1848 JUMP JUMPDEST SWAP3 POP DUP3 PUSH2 0x1F81 JUMPI PUSH2 0x1F80 PUSH2 0x1F2F JUMP JUMPDEST JUMPDEST DUP3 DUP3 DIV SWAP1 POP SWAP3 SWAP2 POP POP JUMP JUMPDEST PUSH0 PUSH2 0x1F96 DUP3 PUSH2 0x1848 JUMP JUMPDEST SWAP2 POP PUSH2 0x1FA1 DUP4 PUSH2 0x1848 JUMP JUMPDEST SWAP3 POP DUP3 DUP3 SUB SWAP1 POP DUP2 DUP2 GT ISZERO PUSH2 0x1FB9 JUMPI PUSH2 0x1FB8 PUSH2 0x1EC1 JUMP JUMPDEST JUMPDEST SWAP3 SWAP2 POP POP JUMP JUMPDEST PUSH0 PUSH1 0x40 DUP3 ADD SWAP1 POP PUSH2 0x1FD2 PUSH0 DUP4 ADD DUP6 PUSH2 0x19CB JUMP JUMPDEST PUSH2 0x1FDF PUSH1 0x20 DUP4 ADD DUP5 PUSH2 0x19CB JUMP JUMPDEST SWAP4 SWAP3 POP POP POP JUMP JUMPDEST PUSH0 DUP3 DUP3 MSTORE PUSH1 0x20 DUP3 ADD SWAP1 POP SWAP3 SWAP2 POP POP JUMP JUMPDEST PUSH32 0x496E76616C696420616464726573730000000000000000000000000000000000 PUSH0 DUP3 ADD MSTORE POP JUMP JUMPDEST PUSH0 PUSH2 0x202A PUSH1 0xF DUP4 PUSH2 0x1FE6 JUMP JUMPDEST SWAP2 POP PUSH2 0x2035 DUP3 PUSH2 0x1FF6 JUMP JUMPDEST PUSH1 0x20 DUP3 ADD SWAP1 POP SWAP2 SWAP1 POP JUMP JUMPDEST PUSH0 PUSH1 0x20 DUP3 ADD SWAP1 POP DUP2 DUP2 SUB PUSH0 DUP4 ADD MSTORE PUSH2 0x2057 DUP2 PUSH2 0x201E JUMP JUMPDEST SWAP1 POP SWAP2 SWAP1 POP JUMP JUMPDEST PUSH0 PUSH1 0x40 DUP3 ADD SWAP1 POP PUSH2 0x2071 PUSH0 DUP4 ADD DUP6 PUSH2 0x19CB JUMP JUMPDEST DUP2 DUP2 SUB PUSH1 0x20 DUP4 ADD MSTORE PUSH2 0x2083 DUP2 DUP5 PUSH2 0x1C8F JUMP JUMPDEST SWAP1 POP SWAP4 SWAP3 POP POP POP JUMP JUMPDEST PUSH32 0x457374696D617465642067617320636F73742065786365656473206D696E416D PUSH0 DUP3 ADD MSTORE PUSH32 0x6F756E744F757400000000000000000000000000000000000000000000000000 PUSH1 0x20 DUP3 ADD MSTORE POP JUMP JUMPDEST PUSH0 PUSH2 0x20E6 PUSH1 0x27 DUP4 PUSH2 0x1FE6 JUMP JUMPDEST SWAP2 POP PUSH2 0x20F1 DUP3 PUSH2 0x208C JUMP JUMPDEST PUSH1 0x40 DUP3 ADD SWAP1 POP SWAP2 SWAP1 POP JUMP JUMPDEST PUSH0 PUSH1 0x20 DUP3 ADD SWAP1 POP DUP2 DUP2 SUB PUSH0 DUP4 ADD MSTORE PUSH2 0x2113 DUP2 PUSH2 0x20DA JUMP JUMPDEST SWAP1 POP SWAP2 SWAP1 POP JUMP JUMPDEST PUSH32 0x5377617020457870656374656420746F204661696C0000000000000000000000 PUSH0 DUP3 ADD MSTORE POP JUMP JUMPDEST PUSH0 PUSH2 0x214E PUSH1 0x15 DUP4 PUSH2 0x1FE6 JUMP JUMPDEST SWAP2 POP PUSH2 0x2159 DUP3 PUSH2 0x211A JUMP JUMPDEST PUSH1 0x20 DUP3 ADD SWAP1 POP SWAP2 SWAP1 POP JUMP JUMPDEST PUSH0 PUSH1 0x20 DUP3 ADD SWAP1 POP DUP2 DUP2 SUB PUSH0 DUP4 ADD MSTORE PUSH2 0x217B DUP2 PUSH2 0x2142 JUMP JUMPDEST SWAP1 POP SWAP2 SWAP1 POP JUMP JUMPDEST PUSH32 0x457870656374656420616D6F756E74206C657373207468616E206D696E696D75 PUSH0 DUP3 ADD MSTORE PUSH32 0x6D20726571756972656400000000000000000000000000000000000000000000 PUSH1 0x20 DUP3 ADD MSTORE POP JUMP JUMPDEST PUSH0 PUSH2 0x21DC PUSH1 0x2A DUP4 PUSH2 0x1FE6 JUMP JUMPDEST SWAP2 POP PUSH2 0x21E7 DUP3 PUSH2 0x2182 JUMP JUMPDEST PUSH1 0x40 DUP3 ADD SWAP1 POP SWAP2 SWAP1 POP JUMP JUMPDEST PUSH0 PUSH1 0x20 DUP3 ADD SWAP1 POP DUP2 DUP2 SUB PUSH0 DUP4 ADD MSTORE PUSH2 0x2209 DUP2 PUSH2 0x21D0 JUMP JUMPDEST SWAP1 POP SWAP2 SWAP1 POP JUMP JUMPDEST PUSH0 PUSH2 0x221A DUP3 PUSH2 0x1848 JUMP JUMPDEST SWAP2 POP PUSH2 0x2225 DUP4 PUSH2 0x1848 JUMP JUMPDEST SWAP3 POP DUP3 DUP3 ADD SWAP1 POP DUP1 DUP3 GT ISZERO PUSH2 0x223D JUMPI PUSH2 0x223C PUSH2 0x1EC1 JUMP JUMPDEST JUMPDEST SWAP3 SWAP2 POP POP JUMP INVALID LOG2 PUSH5 0x6970667358 0x22 SLT KECCAK256 0x22 LOG4 RETURN JUMP 0x5D 0xBA JUMPDEST 0x29 GASPRICE SAR 0x21 0x25 EXP 0xF6 0xFC SWAP5 0x2C 0x2A LOG0 DUP10 CALLDATACOPY 0xC2 PUSH18 0xAF3611688B22F2D70164736F6C6343000814 STOP CALLER "
				},
				"gasEstimates": {
					"creation": {
						"codeDepositCost": "1765000",
						"executionCost": "infinite",
						"totalCost": "infinite"
					},
					"external": {
						"canSwap(address,uint256,uint256)": "infinite",
						"depositETH()": "207",
						"feePercentage()": "2514",
						"getSwapQuote(address,uint256,uint256,uint256)": "infinite",
						"owner()": "2560",
						"renounceOwnership()": "infinite",
						"rewardPot()": "infinite",
						"setFeePercentage(uint256)": "infinite",
						"setRewardPot(address)": "infinite",
						"swapTokensForETH(address,uint256,uint256)": "infinite",
						"swapTokensForETH_UserPaysGas(address,uint256,uint256)": "infinite",
						"transferOwnership(address)": "infinite",
						"uniswapRouter()": "infinite",
						"withdrawETH(uint256)": "infinite"
					}
				},
				"methodIdentifiers": {
					"canSwap(address,uint256,uint256)": "b4798209",
					"depositETH()": "f6326fb3",
					"feePercentage()": "a001ecdd",
					"getSwapQuote(address,uint256,uint256,uint256)": "ad9902a1",
					"owner()": "8da5cb5b",
					"renounceOwnership()": "715018a6",
					"rewardPot()": "93ad7440",
					"setFeePercentage(uint256)": "ae06c1b7",
					"setRewardPot(address)": "4e63c29e",
					"swapTokensForETH(address,uint256,uint256)": "e15cc8da",
					"swapTokensForETH_UserPaysGas(address,uint256,uint256)": "0fe6a787",
					"transferOwnership(address)": "f2fde38b",
					"uniswapRouter()": "735de9f7",
					"withdrawETH(uint256)": "f14210a6"
				}
			},
			"storageLayout": {
				"storage": [
					{
						"astId": 8,
						"contract": "Bitxchange.sol:Bitxchange",
						"label": "_owner",
						"offset": 0,
						"slot": "0",
						"type": "t_address"
					},
					{
						"astId": 659,
						"contract": "Bitxchange.sol:Bitxchange",
						"label": "uniswapRouter",
						"offset": 0,
						"slot": "1",
						"type": "t_contract(IUniswapV2Router02)643"
					},
					{
						"astId": 662,
						"contract": "Bitxchange.sol:Bitxchange",
						"label": "rewardPot",
						"offset": 0,
						"slot": "2",
						"type": "t_contract(IRewardPot)654"
					},
					{
						"astId": 665,
						"contract": "Bitxchange.sol:Bitxchange",
						"label": "feePercentage",
						"offset": 0,
						"slot": "3",
						"type": "t_uint256"
					}
				],
				"types": {
					"t_address": {
						"encoding": "inplace",
						"label": "address",
						"numberOfBytes": "20"
					},
					"t_contract(IRewardPot)654": {
						"encoding": "inplace",
						"label": "contract IRewardPot",
						"numberOfBytes": "20"
					},
					"t_contract(IUniswapV2Router02)643": {
						"encoding": "inplace",
						"label": "contract IUniswapV2Router02",
						"numberOfBytes": "20"
					},
					"t_uint256": {
						"encoding": "inplace",
						"label": "uint256",
						"numberOfBytes": "32"
					}
				}
			},
			"userdoc": {
				"kind": "user",
				"methods": {},
				"version": 1
			}
		}
	}
}