{
	"Bitxchange.sol": {
		"Bitxchange": {
			"abi": [
				{
					"inputs": [
						{
							"internalType": "address",
							"name": "_uniswapRouter",
							"type": "address"
						},
						{
							"internalType": "address",
							"name": "_rewardPot",
							"type": "address"
						}
					],
					"stateMutability": "nonpayable",
					"type": "constructor"
				},
				{
					"inputs": [
						{
							"internalType": "address",
							"name": "owner",
							"type": "address"
						}
					],
					"name": "OwnableInvalidOwner",
					"type": "error"
				},
				{
					"inputs": [
						{
							"internalType": "address",
							"name": "account",
							"type": "address"
						}
					],
					"name": "OwnableUnauthorizedAccount",
					"type": "error"
				},
				{
					"anonymous": false,
					"inputs": [
						{
							"indexed": false,
							"internalType": "uint256",
							"name": "newFee",
							"type": "uint256"
						}
					],
					"name": "FeeUpdated",
					"type": "event"
				},
				{
					"anonymous": false,
					"inputs": [
						{
							"indexed": true,
							"internalType": "address",
							"name": "previousOwner",
							"type": "address"
						},
						{
							"indexed": true,
							"internalType": "address",
							"name": "newOwner",
							"type": "address"
						}
					],
					"name": "OwnershipTransferred",
					"type": "event"
				},
				{
					"anonymous": false,
					"inputs": [
						{
							"indexed": false,
							"internalType": "address",
							"name": "newRewardPot",
							"type": "address"
						}
					],
					"name": "RewardPotUpdated",
					"type": "event"
				},
				{
					"anonymous": false,
					"inputs": [
						{
							"indexed": true,
							"internalType": "address",
							"name": "from",
							"type": "address"
						},
						{
							"indexed": false,
							"internalType": "uint256",
							"name": "amount",
							"type": "uint256"
						},
						{
							"indexed": false,
							"internalType": "uint256",
							"name": "receivedETH",
							"type": "uint256"
						}
					],
					"name": "SwapSuccessful",
					"type": "event"
				},
				{
					"inputs": [
						{
							"internalType": "address",
							"name": "token",
							"type": "address"
						},
						{
							"internalType": "uint256",
							"name": "amountIn",
							"type": "uint256"
						},
						{
							"internalType": "uint256",
							"name": "userGasPrice",
							"type": "uint256"
						}
					],
					"name": "canSwap",
					"outputs": [
						{
							"internalType": "bool",
							"name": "",
							"type": "bool"
						}
					],
					"stateMutability": "view",
					"type": "function"
				},
				{
					"inputs": [],
					"name": "depositETH",
					"outputs": [],
					"stateMutability": "payable",
					"type": "function"
				},
				{
					"inputs": [],
					"name": "estimatedGasForSwap",
					"outputs": [
						{
							"internalType": "uint256",
							"name": "",
							"type": "uint256"
						}
					],
					"stateMutability": "view",
					"type": "function"
				},
				{
					"inputs": [],
					"name": "feePercentage",
					"outputs": [
						{
							"internalType": "uint256",
							"name": "",
							"type": "uint256"
						}
					],
					"stateMutability": "view",
					"type": "function"
				},
				{
					"inputs": [
						{
							"internalType": "address",
							"name": "token",
							"type": "address"
						},
						{
							"internalType": "uint256",
							"name": "amount",
							"type": "uint256"
						},
						{
							"internalType": "uint256",
							"name": "slippage",
							"type": "uint256"
						},
						{
							"internalType": "uint256",
							"name": "userGasPrice",
							"type": "uint256"
						}
					],
					"name": "getSwapQuote",
					"outputs": [
						{
							"internalType": "uint256",
							"name": "minAmountOut",
							"type": "uint256"
						},
						{
							"internalType": "uint256",
							"name": "estimatedGasCost",
							"type": "uint256"
						},
						{
							"internalType": "bool",
							"name": "canDoSwap",
							"type": "bool"
						}
					],
					"stateMutability": "view",
					"type": "function"
				},
				{
					"inputs": [],
					"name": "owner",
					"outputs": [
						{
							"internalType": "address",
							"name": "",
							"type": "address"
						}
					],
					"stateMutability": "view",
					"type": "function"
				},
				{
					"inputs": [],
					"name": "renounceOwnership",
					"outputs": [],
					"stateMutability": "nonpayable",
					"type": "function"
				},
				{
					"inputs": [],
					"name": "rewardPot",
					"outputs": [
						{
							"internalType": "contract IRewardPot",
							"name": "",
							"type": "address"
						}
					],
					"stateMutability": "view",
					"type": "function"
				},
				{
					"inputs": [
						{
							"internalType": "uint256",
							"name": "_newEstimatedGasForSwap",
							"type": "uint256"
						}
					],
					"name": "setEstimatedGasForSwap",
					"outputs": [],
					"stateMutability": "nonpayable",
					"type": "function"
				},
				{
					"inputs": [
						{
							"internalType": "uint256",
							"name": "_newFee",
							"type": "uint256"
						}
					],
					"name": "setFeePercentage",
					"outputs": [],
					"stateMutability": "nonpayable",
					"type": "function"
				},
				{
					"inputs": [
						{
							"internalType": "address",
							"name": "_newRewardPot",
							"type": "address"
						}
					],
					"name": "setRewardPot",
					"outputs": [],
					"stateMutability": "nonpayable",
					"type": "function"
				},
				{
					"inputs": [
						{
							"internalType": "address",
							"name": "_newRouter",
							"type": "address"
						}
					],
					"name": "setUniswapRouter",
					"outputs": [],
					"stateMutability": "nonpayable",
					"type": "function"
				},
				{
					"inputs": [
						{
							"internalType": "address",
							"name": "token",
							"type": "address"
						},
						{
							"internalType": "uint256",
							"name": "amount",
							"type": "uint256"
						},
						{
							"internalType": "uint256",
							"name": "minAmountOut",
							"type": "uint256"
						}
					],
					"name": "swapTokensForETH",
					"outputs": [],
					"stateMutability": "nonpayable",
					"type": "function"
				},
				{
					"inputs": [
						{
							"internalType": "address",
							"name": "token",
							"type": "address"
						},
						{
							"internalType": "uint256",
							"name": "amount",
							"type": "uint256"
						},
						{
							"internalType": "uint256",
							"name": "minAmountOut",
							"type": "uint256"
						}
					],
					"name": "swapTokensForETH_UserPaysGas",
					"outputs": [],
					"stateMutability": "nonpayable",
					"type": "function"
				},
				{
					"inputs": [
						{
							"internalType": "address",
							"name": "newOwner",
							"type": "address"
						}
					],
					"name": "transferOwnership",
					"outputs": [],
					"stateMutability": "nonpayable",
					"type": "function"
				},
				{
					"inputs": [],
					"name": "uniswapRouter",
					"outputs": [
						{
							"internalType": "contract IUniswapV2Router02",
							"name": "",
							"type": "address"
						}
					],
					"stateMutability": "view",
					"type": "function"
				},
				{
					"inputs": [
						{
							"internalType": "uint256",
							"name": "amount",
							"type": "uint256"
						}
					],
					"name": "withdrawETH",
					"outputs": [],
					"stateMutability": "nonpayable",
					"type": "function"
				}
			],
			"devdoc": {
				"errors": {
					"OwnableInvalidOwner(address)": [
						{
							"details": "The owner is not a valid owner account. (eg. `address(0)`)"
						}
					],
					"OwnableUnauthorizedAccount(address)": [
						{
							"details": "The caller account is not authorized to perform an operation."
						}
					]
				},
				"kind": "dev",
				"methods": {
					"owner()": {
						"details": "Returns the address of the current owner."
					},
					"renounceOwnership()": {
						"details": "Leaves the contract without owner. It will not be possible to call `onlyOwner` functions. Can only be called by the current owner. NOTE: Renouncing ownership will leave the contract without an owner, thereby disabling any functionality that is only available to the owner."
					},
					"transferOwnership(address)": {
						"details": "Transfers ownership of the contract to a new account (`newOwner`). Can only be called by the current owner."
					}
				},
				"version": 1
			},
			"evm": {
				"assembly": "    /* \"Bitxchange.sol\":665:7660  contract Bitxchange is Ownable {... */\n  mstore(0x40, 0x80)\n    /* \"Bitxchange.sol\":814:817  750 */\n  0x02ee\n    /* \"Bitxchange.sol\":783:817  uint256 public feePercentage = 750 */\n  0x03\n  sstore\n    /* \"Bitxchange.sol\":891:897  221428 */\n  0x0360f4\n    /* \"Bitxchange.sol\":854:897  uint256 public estimatedGasForSwap = 221428 */\n  0x04\n  sstore\n    /* \"Bitxchange.sol\":1084:1274  constructor(address _uniswapRouter, address _rewardPot) Ownable(msg.sender) {... */\n  callvalue\n  dup1\n  iszero\n  tag_1\n  jumpi\n  0x00\n  dup1\n  revert\ntag_1:\n  pop\n  mload(0x40)\n  sub(codesize, bytecodeSize)\n  dup1\n  bytecodeSize\n  dup4\n  codecopy\n  dup2\n  dup2\n  add\n  0x40\n  mstore\n  dup2\n  add\n  swap1\n  tag_2\n  swap2\n  swap1\n  tag_3\n  jump\t// in\ntag_2:\n    /* \"Bitxchange.sol\":1148:1158  msg.sender */\n  caller\n    /* \"@openzeppelin/contracts/access/Ownable.sol\":1297:1298  0 */\n  0x00\n    /* \"@openzeppelin/contracts/access/Ownable.sol\":1273:1299  initialOwner == address(0) */\n  0xffffffffffffffffffffffffffffffffffffffff\n  and\n    /* \"@openzeppelin/contracts/access/Ownable.sol\":1273:1285  initialOwner */\n  dup2\n    /* \"@openzeppelin/contracts/access/Ownable.sol\":1273:1299  initialOwner == address(0) */\n  0xffffffffffffffffffffffffffffffffffffffff\n  and\n  sub\n    /* \"@openzeppelin/contracts/access/Ownable.sol\":1269:1364  if (initialOwner == address(0)) {... */\n  tag_7\n  jumpi\n    /* \"@openzeppelin/contracts/access/Ownable.sol\":1350:1351  0 */\n  0x00\n    /* \"@openzeppelin/contracts/access/Ownable.sol\":1322:1353  OwnableInvalidOwner(address(0)) */\n  mload(0x40)\n  0x1e4fbdf700000000000000000000000000000000000000000000000000000000\n  dup2\n  mstore\n  0x04\n  add\n  tag_8\n  swap2\n  swap1\n  tag_9\n  jump\t// in\ntag_8:\n  mload(0x40)\n  dup1\n  swap2\n  sub\n  swap1\n  revert\n    /* \"@openzeppelin/contracts/access/Ownable.sol\":1269:1364  if (initialOwner == address(0)) {... */\ntag_7:\n    /* \"@openzeppelin/contracts/access/Ownable.sol\":1373:1405  _transferOwnership(initialOwner) */\n  tag_10\n    /* \"@openzeppelin/contracts/access/Ownable.sol\":1392:1404  initialOwner */\n  dup2\n    /* \"@openzeppelin/contracts/access/Ownable.sol\":1373:1391  _transferOwnership */\n  shl(0x20, tag_11)\n    /* \"@openzeppelin/contracts/access/Ownable.sol\":1373:1405  _transferOwnership(initialOwner) */\n  0x20\n  shr\n  jump\t// in\ntag_10:\n    /* \"@openzeppelin/contracts/access/Ownable.sol\":1225:1412  constructor(address initialOwner) {... */\n  pop\n    /* \"Bitxchange.sol\":1206:1220  _uniswapRouter */\n  dup2\n    /* \"Bitxchange.sol\":1171:1184  uniswapRouter */\n  0x01\n  0x00\n    /* \"Bitxchange.sol\":1171:1221  uniswapRouter = IUniswapV2Router02(_uniswapRouter) */\n  0x0100\n  exp\n  dup2\n  sload\n  dup2\n  0xffffffffffffffffffffffffffffffffffffffff\n  mul\n  not\n  and\n  swap1\n  dup4\n  0xffffffffffffffffffffffffffffffffffffffff\n  and\n  mul\n  or\n  swap1\n  sstore\n  pop\n    /* \"Bitxchange.sol\":1255:1265  _rewardPot */\n  dup1\n    /* \"Bitxchange.sol\":1232:1241  rewardPot */\n  0x02\n  0x00\n    /* \"Bitxchange.sol\":1232:1266  rewardPot = IRewardPot(_rewardPot) */\n  0x0100\n  exp\n  dup2\n  sload\n  dup2\n  0xffffffffffffffffffffffffffffffffffffffff\n  mul\n  not\n  and\n  swap1\n  dup4\n  0xffffffffffffffffffffffffffffffffffffffff\n  and\n  mul\n  or\n  swap1\n  sstore\n  pop\n    /* \"Bitxchange.sol\":1084:1274  constructor(address _uniswapRouter, address _rewardPot) Ownable(msg.sender) {... */\n  pop\n  pop\n    /* \"Bitxchange.sol\":665:7660  contract Bitxchange is Ownable {... */\n  jump(tag_13)\n    /* \"@openzeppelin/contracts/access/Ownable.sol\":2912:3099  function _transferOwnership(address newOwner) internal virtual {... */\ntag_11:\n    /* \"@openzeppelin/contracts/access/Ownable.sol\":2985:3001  address oldOwner */\n  0x00\n    /* \"@openzeppelin/contracts/access/Ownable.sol\":3004:3010  _owner */\n  dup1\n  0x00\n  swap1\n  sload\n  swap1\n  0x0100\n  exp\n  swap1\n  div\n  0xffffffffffffffffffffffffffffffffffffffff\n  and\n    /* \"@openzeppelin/contracts/access/Ownable.sol\":2985:3010  address oldOwner = _owner */\n  swap1\n  pop\n    /* \"@openzeppelin/contracts/access/Ownable.sol\":3029:3037  newOwner */\n  dup2\n    /* \"@openzeppelin/contracts/access/Ownable.sol\":3020:3026  _owner */\n  0x00\n  dup1\n    /* \"@openzeppelin/contracts/access/Ownable.sol\":3020:3037  _owner = newOwner */\n  0x0100\n  exp\n  dup2\n  sload\n  dup2\n  0xffffffffffffffffffffffffffffffffffffffff\n  mul\n  not\n  and\n  swap1\n  dup4\n  0xffffffffffffffffffffffffffffffffffffffff\n  and\n  mul\n  or\n  swap1\n  sstore\n  pop\n    /* \"@openzeppelin/contracts/access/Ownable.sol\":3083:3091  newOwner */\n  dup2\n    /* \"@openzeppelin/contracts/access/Ownable.sol\":3052:3092  OwnershipTransferred(oldOwner, newOwner) */\n  0xffffffffffffffffffffffffffffffffffffffff\n  and\n    /* \"@openzeppelin/contracts/access/Ownable.sol\":3073:3081  oldOwner */\n  dup2\n    /* \"@openzeppelin/contracts/access/Ownable.sol\":3052:3092  OwnershipTransferred(oldOwner, newOwner) */\n  0xffffffffffffffffffffffffffffffffffffffff\n  and\n  0x8be0079c531659141344cd1fd0a4f28419497f9722a3daafe3b4186f6b6457e0\n  mload(0x40)\n  mload(0x40)\n  dup1\n  swap2\n  sub\n  swap1\n  log3\n    /* \"@openzeppelin/contracts/access/Ownable.sol\":2975:3099  {... */\n  pop\n    /* \"@openzeppelin/contracts/access/Ownable.sol\":2912:3099  function _transferOwnership(address newOwner) internal virtual {... */\n  pop\n  jump\t// out\n    /* \"#utility.yul\":88:205   */\ntag_16:\n    /* \"#utility.yul\":197:198   */\n  0x00\n    /* \"#utility.yul\":194:195   */\n  dup1\n    /* \"#utility.yul\":187:199   */\n  revert\n    /* \"#utility.yul\":334:460   */\ntag_18:\n    /* \"#utility.yul\":371:378   */\n  0x00\n    /* \"#utility.yul\":411:453   */\n  0xffffffffffffffffffffffffffffffffffffffff\n    /* \"#utility.yul\":404:409   */\n  dup3\n    /* \"#utility.yul\":400:454   */\n  and\n    /* \"#utility.yul\":389:454   */\n  swap1\n  pop\n    /* \"#utility.yul\":334:460   */\n  swap2\n  swap1\n  pop\n  jump\t// out\n    /* \"#utility.yul\":466:562   */\ntag_19:\n    /* \"#utility.yul\":503:510   */\n  0x00\n    /* \"#utility.yul\":532:556   */\n  tag_29\n    /* \"#utility.yul\":550:555   */\n  dup3\n    /* \"#utility.yul\":532:556   */\n  tag_18\n  jump\t// in\ntag_29:\n    /* \"#utility.yul\":521:556   */\n  swap1\n  pop\n    /* \"#utility.yul\":466:562   */\n  swap2\n  swap1\n  pop\n  jump\t// out\n    /* \"#utility.yul\":568:690   */\ntag_20:\n    /* \"#utility.yul\":641:665   */\n  tag_31\n    /* \"#utility.yul\":659:664   */\n  dup2\n    /* \"#utility.yul\":641:665   */\n  tag_19\n  jump\t// in\ntag_31:\n    /* \"#utility.yul\":634:639   */\n  dup2\n    /* \"#utility.yul\":631:666   */\n  eq\n    /* \"#utility.yul\":621:684   */\n  tag_32\n  jumpi\n    /* \"#utility.yul\":680:681   */\n  0x00\n    /* \"#utility.yul\":677:678   */\n  dup1\n    /* \"#utility.yul\":670:682   */\n  revert\n    /* \"#utility.yul\":621:684   */\ntag_32:\n    /* \"#utility.yul\":568:690   */\n  pop\n  jump\t// out\n    /* \"#utility.yul\":696:839   */\ntag_21:\n    /* \"#utility.yul\":753:758   */\n  0x00\n    /* \"#utility.yul\":784:790   */\n  dup2\n    /* \"#utility.yul\":778:791   */\n  mload\n    /* \"#utility.yul\":769:791   */\n  swap1\n  pop\n    /* \"#utility.yul\":800:833   */\n  tag_34\n    /* \"#utility.yul\":827:832   */\n  dup2\n    /* \"#utility.yul\":800:833   */\n  tag_20\n  jump\t// in\ntag_34:\n    /* \"#utility.yul\":696:839   */\n  swap3\n  swap2\n  pop\n  pop\n  jump\t// out\n    /* \"#utility.yul\":845:1352   */\ntag_3:\n    /* \"#utility.yul\":924:930   */\n  0x00\n    /* \"#utility.yul\":932:938   */\n  dup1\n    /* \"#utility.yul\":981:983   */\n  0x40\n    /* \"#utility.yul\":969:978   */\n  dup4\n    /* \"#utility.yul\":960:967   */\n  dup6\n    /* \"#utility.yul\":956:979   */\n  sub\n    /* \"#utility.yul\":952:984   */\n  slt\n    /* \"#utility.yul\":949:1068   */\n  iszero\n  tag_36\n  jumpi\n    /* \"#utility.yul\":987:1066   */\n  tag_37\n  tag_16\n  jump\t// in\ntag_37:\n    /* \"#utility.yul\":949:1068   */\ntag_36:\n    /* \"#utility.yul\":1107:1108   */\n  0x00\n    /* \"#utility.yul\":1132:1196   */\n  tag_38\n    /* \"#utility.yul\":1188:1195   */\n  dup6\n    /* \"#utility.yul\":1179:1185   */\n  dup3\n    /* \"#utility.yul\":1168:1177   */\n  dup7\n    /* \"#utility.yul\":1164:1186   */\n  add\n    /* \"#utility.yul\":1132:1196   */\n  tag_21\n  jump\t// in\ntag_38:\n    /* \"#utility.yul\":1122:1196   */\n  swap3\n  pop\n    /* \"#utility.yul\":1078:1206   */\n  pop\n    /* \"#utility.yul\":1245:1247   */\n  0x20\n    /* \"#utility.yul\":1271:1335   */\n  tag_39\n    /* \"#utility.yul\":1327:1334   */\n  dup6\n    /* \"#utility.yul\":1318:1324   */\n  dup3\n    /* \"#utility.yul\":1307:1316   */\n  dup7\n    /* \"#utility.yul\":1303:1325   */\n  add\n    /* \"#utility.yul\":1271:1335   */\n  tag_21\n  jump\t// in\ntag_39:\n    /* \"#utility.yul\":1261:1335   */\n  swap2\n  pop\n    /* \"#utility.yul\":1216:1345   */\n  pop\n    /* \"#utility.yul\":845:1352   */\n  swap3\n  pop\n  swap3\n  swap1\n  pop\n  jump\t// out\n    /* \"#utility.yul\":1358:1476   */\ntag_22:\n    /* \"#utility.yul\":1445:1469   */\n  tag_41\n    /* \"#utility.yul\":1463:1468   */\n  dup2\n    /* \"#utility.yul\":1445:1469   */\n  tag_19\n  jump\t// in\ntag_41:\n    /* \"#utility.yul\":1440:1443   */\n  dup3\n    /* \"#utility.yul\":1433:1470   */\n  mstore\n    /* \"#utility.yul\":1358:1476   */\n  pop\n  pop\n  jump\t// out\n    /* \"#utility.yul\":1482:1704   */\ntag_9:\n    /* \"#utility.yul\":1575:1579   */\n  0x00\n    /* \"#utility.yul\":1613:1615   */\n  0x20\n    /* \"#utility.yul\":1602:1611   */\n  dup3\n    /* \"#utility.yul\":1598:1616   */\n  add\n    /* \"#utility.yul\":1590:1616   */\n  swap1\n  pop\n    /* \"#utility.yul\":1626:1697   */\n  tag_43\n    /* \"#utility.yul\":1694:1695   */\n  0x00\n    /* \"#utility.yul\":1683:1692   */\n  dup4\n    /* \"#utility.yul\":1679:1696   */\n  add\n    /* \"#utility.yul\":1670:1676   */\n  dup5\n    /* \"#utility.yul\":1626:1697   */\n  tag_22\n  jump\t// in\ntag_43:\n    /* \"#utility.yul\":1482:1704   */\n  swap3\n  swap2\n  pop\n  pop\n  jump\t// out\n    /* \"Bitxchange.sol\":665:7660  contract Bitxchange is Ownable {... */\ntag_13:\n  dataSize(sub_0)\n  dup1\n  dataOffset(sub_0)\n  0x00\n  codecopy\n  0x00\n  return\nstop\n\nsub_0: assembly {\n        /* \"Bitxchange.sol\":665:7660  contract Bitxchange is Ownable {... */\n      mstore(0x40, 0x80)\n      jumpi(tag_1, lt(calldatasize, 0x04))\n      shr(0xe0, calldataload(0x00))\n      dup1\n      0xa001ecdd\n      gt\n      tag_19\n      jumpi\n      dup1\n      0xbea9849e\n      gt\n      tag_20\n      jumpi\n      dup1\n      0xbea9849e\n      eq\n      tag_14\n      jumpi\n      dup1\n      0xe15cc8da\n      eq\n      tag_15\n      jumpi\n      dup1\n      0xf14210a6\n      eq\n      tag_16\n      jumpi\n      dup1\n      0xf2fde38b\n      eq\n      tag_17\n      jumpi\n      dup1\n      0xf6326fb3\n      eq\n      tag_18\n      jumpi\n      jump(tag_1)\n    tag_20:\n      dup1\n      0xa001ecdd\n      eq\n      tag_10\n      jumpi\n      dup1\n      0xad9902a1\n      eq\n      tag_11\n      jumpi\n      dup1\n      0xae06c1b7\n      eq\n      tag_12\n      jumpi\n      dup1\n      0xb4798209\n      eq\n      tag_13\n      jumpi\n      jump(tag_1)\n    tag_19:\n      dup1\n      0x735de9f7\n      gt\n      tag_21\n      jumpi\n      dup1\n      0x735de9f7\n      eq\n      tag_6\n      jumpi\n      dup1\n      0x8da5cb5b\n      eq\n      tag_7\n      jumpi\n      dup1\n      0x93ad7440\n      eq\n      tag_8\n      jumpi\n      dup1\n      0x98281c75\n      eq\n      tag_9\n      jumpi\n      jump(tag_1)\n    tag_21:\n      dup1\n      0x0fe6a787\n      eq\n      tag_2\n      jumpi\n      dup1\n      0x344954af\n      eq\n      tag_3\n      jumpi\n      dup1\n      0x4e63c29e\n      eq\n      tag_4\n      jumpi\n      dup1\n      0x715018a6\n      eq\n      tag_5\n      jumpi\n    tag_1:\n      0x00\n      dup1\n      revert\n        /* \"Bitxchange.sol\":6542:7655  function swapTokensForETH_UserPaysGas(address token, uint256 amount, uint256 minAmountOut) external {... */\n    tag_2:\n      callvalue\n      dup1\n      iszero\n      tag_22\n      jumpi\n      0x00\n      dup1\n      revert\n    tag_22:\n      pop\n      tag_23\n      0x04\n      dup1\n      calldatasize\n      sub\n      dup2\n      add\n      swap1\n      tag_24\n      swap2\n      swap1\n      tag_25\n      jump\t// in\n    tag_24:\n      tag_26\n      jump\t// in\n    tag_23:\n      stop\n        /* \"Bitxchange.sol\":854:897  uint256 public estimatedGasForSwap = 221428 */\n    tag_3:\n      callvalue\n      dup1\n      iszero\n      tag_27\n      jumpi\n      0x00\n      dup1\n      revert\n    tag_27:\n      pop\n      tag_28\n      tag_29\n      jump\t// in\n    tag_28:\n      mload(0x40)\n      tag_30\n      swap2\n      swap1\n      tag_31\n      jump\t// in\n    tag_30:\n      mload(0x40)\n      dup1\n      swap2\n      sub\n      swap1\n      return\n        /* \"Bitxchange.sol\":2027:2260  function setRewardPot(address _newRewardPot) external onlyOwner {... */\n    tag_4:\n      callvalue\n      dup1\n      iszero\n      tag_32\n      jumpi\n      0x00\n      dup1\n      revert\n    tag_32:\n      pop\n      tag_33\n      0x04\n      dup1\n      calldatasize\n      sub\n      dup2\n      add\n      swap1\n      tag_34\n      swap2\n      swap1\n      tag_35\n      jump\t// in\n    tag_34:\n      tag_36\n      jump\t// in\n    tag_33:\n      stop\n        /* \"@openzeppelin/contracts/access/Ownable.sol\":2293:2394  function renounceOwnership() public virtual onlyOwner {... */\n    tag_5:\n      callvalue\n      dup1\n      iszero\n      tag_37\n      jumpi\n      0x00\n      dup1\n      revert\n    tag_37:\n      pop\n      tag_38\n      tag_39\n      jump\t// in\n    tag_38:\n      stop\n        /* \"Bitxchange.sol\":703:742  IUniswapV2Router02 public uniswapRouter */\n    tag_6:\n      callvalue\n      dup1\n      iszero\n      tag_40\n      jumpi\n      0x00\n      dup1\n      revert\n    tag_40:\n      pop\n      tag_41\n      tag_42\n      jump\t// in\n    tag_41:\n      mload(0x40)\n      tag_43\n      swap2\n      swap1\n      tag_44\n      jump\t// in\n    tag_43:\n      mload(0x40)\n      dup1\n      swap2\n      sub\n      swap1\n      return\n        /* \"@openzeppelin/contracts/access/Ownable.sol\":1638:1723  function owner() public view virtual returns (address) {... */\n    tag_7:\n      callvalue\n      dup1\n      iszero\n      tag_45\n      jumpi\n      0x00\n      dup1\n      revert\n    tag_45:\n      pop\n      tag_46\n      tag_47\n      jump\t// in\n    tag_46:\n      mload(0x40)\n      tag_48\n      swap2\n      swap1\n      tag_49\n      jump\t// in\n    tag_48:\n      mload(0x40)\n      dup1\n      swap2\n      sub\n      swap1\n      return\n        /* \"Bitxchange.sol\":749:776  IRewardPot public rewardPot */\n    tag_8:\n      callvalue\n      dup1\n      iszero\n      tag_50\n      jumpi\n      0x00\n      dup1\n      revert\n    tag_50:\n      pop\n      tag_51\n      tag_52\n      jump\t// in\n    tag_51:\n      mload(0x40)\n      tag_53\n      swap2\n      swap1\n      tag_54\n      jump\t// in\n    tag_53:\n      mload(0x40)\n      dup1\n      swap2\n      sub\n      swap1\n      return\n        /* \"Bitxchange.sol\":1670:1818  function setEstimatedGasForSwap(uint256 _newEstimatedGasForSwap) external onlyOwner {... */\n    tag_9:\n      callvalue\n      dup1\n      iszero\n      tag_55\n      jumpi\n      0x00\n      dup1\n      revert\n    tag_55:\n      pop\n      tag_56\n      0x04\n      dup1\n      calldatasize\n      sub\n      dup2\n      add\n      swap1\n      tag_57\n      swap2\n      swap1\n      tag_58\n      jump\t// in\n    tag_57:\n      tag_59\n      jump\t// in\n    tag_56:\n      stop\n        /* \"Bitxchange.sol\":783:817  uint256 public feePercentage = 750 */\n    tag_10:\n      callvalue\n      dup1\n      iszero\n      tag_60\n      jumpi\n      0x00\n      dup1\n      revert\n    tag_60:\n      pop\n      tag_61\n      tag_62\n      jump\t// in\n    tag_61:\n      mload(0x40)\n      tag_63\n      swap2\n      swap1\n      tag_31\n      jump\t// in\n    tag_63:\n      mload(0x40)\n      dup1\n      swap2\n      sub\n      swap1\n      return\n        /* \"Bitxchange.sol\":3360:4421  function getSwapQuote(address token, uint256 amount, uint256 slippage, uint256 userGasPrice) public view returns (uint256 minAmountOut, uint256 estimatedGasCost, bool canDoSwap) {... */\n    tag_11:\n      callvalue\n      dup1\n      iszero\n      tag_64\n      jumpi\n      0x00\n      dup1\n      revert\n    tag_64:\n      pop\n      tag_65\n      0x04\n      dup1\n      calldatasize\n      sub\n      dup2\n      add\n      swap1\n      tag_66\n      swap2\n      swap1\n      tag_67\n      jump\t// in\n    tag_66:\n      tag_68\n      jump\t// in\n    tag_65:\n      mload(0x40)\n      tag_69\n      swap4\n      swap3\n      swap2\n      swap1\n      tag_70\n      jump\t// in\n    tag_69:\n      mload(0x40)\n      dup1\n      swap2\n      sub\n      swap1\n      return\n        /* \"Bitxchange.sol\":1523:1662  function setFeePercentage(uint256 _newFee) external onlyOwner {... */\n    tag_12:\n      callvalue\n      dup1\n      iszero\n      tag_71\n      jumpi\n      0x00\n      dup1\n      revert\n    tag_71:\n      pop\n      tag_72\n      0x04\n      dup1\n      calldatasize\n      sub\n      dup2\n      add\n      swap1\n      tag_73\n      swap2\n      swap1\n      tag_58\n      jump\t// in\n    tag_73:\n      tag_74\n      jump\t// in\n    tag_72:\n      stop\n        /* \"Bitxchange.sol\":2650:3352  function canSwap(address token, uint256 amountIn, uint256 userGasPrice) public view returns (bool) {... */\n    tag_13:\n      callvalue\n      dup1\n      iszero\n      tag_75\n      jumpi\n      0x00\n      dup1\n      revert\n    tag_75:\n      pop\n      tag_76\n      0x04\n      dup1\n      calldatasize\n      sub\n      dup2\n      add\n      swap1\n      tag_77\n      swap2\n      swap1\n      tag_25\n      jump\t// in\n    tag_77:\n      tag_78\n      jump\t// in\n    tag_76:\n      mload(0x40)\n      tag_79\n      swap2\n      swap1\n      tag_80\n      jump\t// in\n    tag_79:\n      mload(0x40)\n      dup1\n      swap2\n      sub\n      swap1\n      return\n        /* \"Bitxchange.sol\":1826:2019  function setUniswapRouter(address _newRouter) external onlyOwner {... */\n    tag_14:\n      callvalue\n      dup1\n      iszero\n      tag_81\n      jumpi\n      0x00\n      dup1\n      revert\n    tag_81:\n      pop\n      tag_82\n      0x04\n      dup1\n      calldatasize\n      sub\n      dup2\n      add\n      swap1\n      tag_83\n      swap2\n      swap1\n      tag_35\n      jump\t// in\n    tag_83:\n      tag_84\n      jump\t// in\n    tag_82:\n      stop\n        /* \"Bitxchange.sol\":4433:6534  function swapTokensForETH(address token, uint256 amount, uint256 minAmountOut) external {... */\n    tag_15:\n      callvalue\n      dup1\n      iszero\n      tag_85\n      jumpi\n      0x00\n      dup1\n      revert\n    tag_85:\n      pop\n      tag_86\n      0x04\n      dup1\n      calldatasize\n      sub\n      dup2\n      add\n      swap1\n      tag_87\n      swap2\n      swap1\n      tag_25\n      jump\t// in\n    tag_87:\n      tag_88\n      jump\t// in\n    tag_86:\n      stop\n        /* \"Bitxchange.sol\":1407:1515  function withdrawETH(uint256 amount) external onlyOwner {... */\n    tag_16:\n      callvalue\n      dup1\n      iszero\n      tag_89\n      jumpi\n      0x00\n      dup1\n      revert\n    tag_89:\n      pop\n      tag_90\n      0x04\n      dup1\n      calldatasize\n      sub\n      dup2\n      add\n      swap1\n      tag_91\n      swap2\n      swap1\n      tag_58\n      jump\t// in\n    tag_91:\n      tag_92\n      jump\t// in\n    tag_90:\n      stop\n        /* \"@openzeppelin/contracts/access/Ownable.sol\":2543:2758  function transferOwnership(address newOwner) public virtual onlyOwner {... */\n    tag_17:\n      callvalue\n      dup1\n      iszero\n      tag_93\n      jumpi\n      0x00\n      dup1\n      revert\n    tag_93:\n      pop\n      tag_94\n      0x04\n      dup1\n      calldatasize\n      sub\n      dup2\n      add\n      swap1\n      tag_95\n      swap2\n      swap1\n      tag_35\n      jump\t// in\n    tag_95:\n      tag_96\n      jump\t// in\n    tag_94:\n      stop\n        /* \"Bitxchange.sol\":1327:1368  function depositETH() external payable {} */\n    tag_18:\n      tag_97\n      tag_98\n      jump\t// in\n    tag_97:\n      stop\n        /* \"Bitxchange.sol\":6542:7655  function swapTokensForETH_UserPaysGas(address token, uint256 amount, uint256 minAmountOut) external {... */\n    tag_26:\n        /* \"Bitxchange.sol\":6689:6694  token */\n      dup3\n        /* \"Bitxchange.sol\":6682:6708  IERC20(token).transferFrom */\n      0xffffffffffffffffffffffffffffffffffffffff\n      and\n      0x23b872dd\n        /* \"Bitxchange.sol\":6709:6719  msg.sender */\n      caller\n        /* \"Bitxchange.sol\":6729:6733  this */\n      address\n        /* \"Bitxchange.sol\":6736:6742  amount */\n      dup6\n        /* \"Bitxchange.sol\":6682:6743  IERC20(token).transferFrom(msg.sender, address(this), amount) */\n      mload(0x40)\n      dup5\n      0xffffffff\n      and\n      0xe0\n      shl\n      dup2\n      mstore\n      0x04\n      add\n      tag_100\n      swap4\n      swap3\n      swap2\n      swap1\n      tag_101\n      jump\t// in\n    tag_100:\n      0x20\n      mload(0x40)\n      dup1\n      dup4\n      sub\n      dup2\n      0x00\n      dup8\n      gas\n      call\n      iszero\n      dup1\n      iszero\n      tag_103\n      jumpi\n      returndatasize\n      0x00\n      dup1\n      returndatacopy\n      revert(0x00, returndatasize)\n    tag_103:\n      pop\n      pop\n      pop\n      pop\n      mload(0x40)\n      returndatasize\n      not(0x1f)\n      0x1f\n      dup3\n      add\n      and\n      dup3\n      add\n      dup1\n      0x40\n      mstore\n      pop\n      dup2\n      add\n      swap1\n      tag_104\n      swap2\n      swap1\n      tag_105\n      jump\t// in\n    tag_104:\n      pop\n        /* \"Bitxchange.sol\":6761:6766  token */\n      dup3\n        /* \"Bitxchange.sol\":6754:6775  IERC20(token).approve */\n      0xffffffffffffffffffffffffffffffffffffffff\n      and\n      0x095ea7b3\n        /* \"Bitxchange.sol\":6784:6797  uniswapRouter */\n      0x01\n      0x00\n      swap1\n      sload\n      swap1\n      0x0100\n      exp\n      swap1\n      div\n      0xffffffffffffffffffffffffffffffffffffffff\n      and\n        /* \"Bitxchange.sol\":6800:6806  amount */\n      dup5\n        /* \"Bitxchange.sol\":6754:6807  IERC20(token).approve(address(uniswapRouter), amount) */\n      mload(0x40)\n      dup4\n      0xffffffff\n      and\n      0xe0\n      shl\n      dup2\n      mstore\n      0x04\n      add\n      tag_106\n      swap3\n      swap2\n      swap1\n      tag_107\n      jump\t// in\n    tag_106:\n      0x20\n      mload(0x40)\n      dup1\n      dup4\n      sub\n      dup2\n      0x00\n      dup8\n      gas\n      call\n      iszero\n      dup1\n      iszero\n      tag_109\n      jumpi\n      returndatasize\n      0x00\n      dup1\n      returndatacopy\n      revert(0x00, returndatasize)\n    tag_109:\n      pop\n      pop\n      pop\n      pop\n      mload(0x40)\n      returndatasize\n      not(0x1f)\n      0x1f\n      dup3\n      add\n      and\n      dup3\n      add\n      dup1\n      0x40\n      mstore\n      pop\n      dup2\n      add\n      swap1\n      tag_110\n      swap2\n      swap1\n      tag_105\n      jump\t// in\n    tag_110:\n      pop\n        /* \"Bitxchange.sol\":6820:6841  address[] memory path */\n      0x00\n        /* \"Bitxchange.sol\":6858:6859  2 */\n      0x02\n        /* \"Bitxchange.sol\":6844:6860  new address[](2) */\n      0xffffffffffffffff\n      dup2\n      gt\n      iszero\n      tag_111\n      jumpi\n      tag_112\n      tag_113\n      jump\t// in\n    tag_112:\n    tag_111:\n      mload(0x40)\n      swap1\n      dup1\n      dup3\n      mstore\n      dup1\n      0x20\n      mul\n      0x20\n      add\n      dup3\n      add\n      0x40\n      mstore\n      dup1\n      iszero\n      tag_114\n      jumpi\n      dup2\n      0x20\n      add\n      0x20\n      dup3\n      mul\n      dup1\n      calldatasize\n      dup4\n      calldatacopy\n      dup1\n      dup3\n      add\n      swap2\n      pop\n      pop\n      swap1\n      pop\n    tag_114:\n      pop\n        /* \"Bitxchange.sol\":6820:6860  address[] memory path = new address[](2) */\n      swap1\n      pop\n        /* \"Bitxchange.sol\":6881:6886  token */\n      dup4\n        /* \"Bitxchange.sol\":6871:6875  path */\n      dup2\n        /* \"Bitxchange.sol\":6876:6877  0 */\n      0x00\n        /* \"Bitxchange.sol\":6871:6878  path[0] */\n      dup2\n      mload\n      dup2\n      lt\n      tag_115\n      jumpi\n      tag_116\n      tag_117\n      jump\t// in\n    tag_116:\n    tag_115:\n      0x20\n      mul\n      0x20\n      add\n      add\n        /* \"Bitxchange.sol\":6871:6886  path[0] = token */\n      swap1\n      0xffffffffffffffffffffffffffffffffffffffff\n      and\n      swap1\n      dup2\n      0xffffffffffffffffffffffffffffffffffffffff\n      and\n      dup2\n      mstore\n      pop\n      pop\n        /* \"Bitxchange.sol\":6907:6920  uniswapRouter */\n      0x01\n      0x00\n      swap1\n      sload\n      swap1\n      0x0100\n      exp\n      swap1\n      div\n      0xffffffffffffffffffffffffffffffffffffffff\n      and\n        /* \"Bitxchange.sol\":6907:6925  uniswapRouter.WETH */\n      0xffffffffffffffffffffffffffffffffffffffff\n      and\n      0xad5c4648\n        /* \"Bitxchange.sol\":6907:6927  uniswapRouter.WETH() */\n      mload(0x40)\n      dup2\n      0xffffffff\n      and\n      0xe0\n      shl\n      dup2\n      mstore\n      0x04\n      add\n      0x20\n      mload(0x40)\n      dup1\n      dup4\n      sub\n      dup2\n      dup7\n      gas\n      staticcall\n      iszero\n      dup1\n      iszero\n      tag_119\n      jumpi\n      returndatasize\n      0x00\n      dup1\n      returndatacopy\n      revert(0x00, returndatasize)\n    tag_119:\n      pop\n      pop\n      pop\n      pop\n      mload(0x40)\n      returndatasize\n      not(0x1f)\n      0x1f\n      dup3\n      add\n      and\n      dup3\n      add\n      dup1\n      0x40\n      mstore\n      pop\n      dup2\n      add\n      swap1\n      tag_120\n      swap2\n      swap1\n      tag_121\n      jump\t// in\n    tag_120:\n        /* \"Bitxchange.sol\":6897:6901  path */\n      dup2\n        /* \"Bitxchange.sol\":6902:6903  1 */\n      0x01\n        /* \"Bitxchange.sol\":6897:6904  path[1] */\n      dup2\n      mload\n      dup2\n      lt\n      tag_122\n      jumpi\n      tag_123\n      tag_117\n      jump\t// in\n    tag_123:\n    tag_122:\n      0x20\n      mul\n      0x20\n      add\n      add\n        /* \"Bitxchange.sol\":6897:6927  path[1] = uniswapRouter.WETH() */\n      swap1\n      0xffffffffffffffffffffffffffffffffffffffff\n      and\n      swap1\n      dup2\n      0xffffffffffffffffffffffffffffffffffffffff\n      and\n      dup2\n      mstore\n      pop\n      pop\n        /* \"Bitxchange.sol\":6940:6964  uint256[] memory amounts */\n      0x00\n        /* \"Bitxchange.sol\":6967:6980  uniswapRouter */\n      0x01\n      0x00\n      swap1\n      sload\n      swap1\n      0x0100\n      exp\n      swap1\n      div\n      0xffffffffffffffffffffffffffffffffffffffff\n      and\n        /* \"Bitxchange.sol\":6967:7002  uniswapRouter.swapExactTokensForETH */\n      0xffffffffffffffffffffffffffffffffffffffff\n      and\n      0x18cbafe5\n        /* \"Bitxchange.sol\":7003:7009  amount */\n      dup6\n        /* \"Bitxchange.sol\":7011:7023  minAmountOut */\n      dup6\n        /* \"Bitxchange.sol\":7025:7029  path */\n      dup6\n        /* \"Bitxchange.sol\":7039:7043  this */\n      address\n        /* \"Bitxchange.sol\":7046:7061  block.timestamp */\n      timestamp\n        /* \"Bitxchange.sol\":6967:7062  uniswapRouter.swapExactTokensForETH(amount, minAmountOut, path, address(this), block.timestamp) */\n      mload(0x40)\n      dup7\n      0xffffffff\n      and\n      0xe0\n      shl\n      dup2\n      mstore\n      0x04\n      add\n      tag_124\n      swap6\n      swap5\n      swap4\n      swap3\n      swap2\n      swap1\n      tag_125\n      jump\t// in\n    tag_124:\n      0x00\n      mload(0x40)\n      dup1\n      dup4\n      sub\n      dup2\n      0x00\n      dup8\n      gas\n      call\n      iszero\n      dup1\n      iszero\n      tag_127\n      jumpi\n      returndatasize\n      0x00\n      dup1\n      returndatacopy\n      revert(0x00, returndatasize)\n    tag_127:\n      pop\n      pop\n      pop\n      pop\n      mload(0x40)\n      returndatasize\n      0x00\n      dup3\n      returndatacopy\n      returndatasize\n      not(0x1f)\n      0x1f\n      dup3\n      add\n      and\n      dup3\n      add\n      dup1\n      0x40\n      mstore\n      pop\n      dup2\n      add\n      swap1\n      tag_128\n      swap2\n      swap1\n      tag_129\n      jump\t// in\n    tag_128:\n        /* \"Bitxchange.sol\":6940:7062  uint256[] memory amounts = uniswapRouter.swapExactTokensForETH(amount, minAmountOut, path, address(this), block.timestamp) */\n      swap1\n      pop\n        /* \"Bitxchange.sol\":7073:7092  uint256 receivedETH */\n      0x00\n        /* \"Bitxchange.sol\":7095:7102  amounts */\n      dup2\n        /* \"Bitxchange.sol\":7103:7104  1 */\n      0x01\n        /* \"Bitxchange.sol\":7095:7105  amounts[1] */\n      dup2\n      mload\n      dup2\n      lt\n      tag_130\n      jumpi\n      tag_131\n      tag_117\n      jump\t// in\n    tag_131:\n    tag_130:\n      0x20\n      mul\n      0x20\n      add\n      add\n      mload\n        /* \"Bitxchange.sol\":7073:7105  uint256 receivedETH = amounts[1] */\n      swap1\n      pop\n        /* \"Bitxchange.sol\":7157:7168  uint256 fee */\n      0x00\n        /* \"Bitxchange.sol\":7203:7208  10000 */\n      0x2710\n        /* \"Bitxchange.sol\":7186:7199  feePercentage */\n      sload(0x03)\n        /* \"Bitxchange.sol\":7172:7183  receivedETH */\n      dup4\n        /* \"Bitxchange.sol\":7172:7199  receivedETH * feePercentage */\n      tag_132\n      swap2\n      swap1\n      tag_133\n      jump\t// in\n    tag_132:\n        /* \"Bitxchange.sol\":7171:7208  (receivedETH * feePercentage) / 10000 */\n      tag_134\n      swap2\n      swap1\n      tag_135\n      jump\t// in\n    tag_134:\n        /* \"Bitxchange.sol\":7157:7208  uint256 fee = (receivedETH * feePercentage) / 10000 */\n      swap1\n      pop\n        /* \"Bitxchange.sol\":7219:7239  uint256 rewardPotFee */\n      0x00\n        /* \"Bitxchange.sol\":7255:7258  100 */\n      0x64\n        /* \"Bitxchange.sol\":7249:7251  90 */\n      0x5a\n        /* \"Bitxchange.sol\":7243:7246  fee */\n      dup4\n        /* \"Bitxchange.sol\":7243:7251  fee * 90 */\n      tag_136\n      swap2\n      swap1\n      tag_133\n      jump\t// in\n    tag_136:\n        /* \"Bitxchange.sol\":7242:7258  (fee * 90) / 100 */\n      tag_137\n      swap2\n      swap1\n      tag_135\n      jump\t// in\n    tag_137:\n        /* \"Bitxchange.sol\":7219:7258  uint256 rewardPotFee = (fee * 90) / 100 */\n      swap1\n      pop\n        /* \"Bitxchange.sol\":7321:7330  rewardPot */\n      0x02\n      0x00\n      swap1\n      sload\n      swap1\n      0x0100\n      exp\n      swap1\n      div\n      0xffffffffffffffffffffffffffffffffffffffff\n      and\n        /* \"Bitxchange.sol\":7321:7345  rewardPot.addToRewardPot */\n      0xffffffffffffffffffffffffffffffffffffffff\n      and\n      0x099da9e9\n        /* \"Bitxchange.sol\":7346:7358  rewardPotFee */\n      dup3\n        /* \"Bitxchange.sol\":7321:7359  rewardPot.addToRewardPot(rewardPotFee) */\n      mload(0x40)\n      dup3\n      0xffffffff\n      and\n      0xe0\n      shl\n      dup2\n      mstore\n      0x04\n      add\n      tag_138\n      swap2\n      swap1\n      tag_31\n      jump\t// in\n    tag_138:\n      0x00\n      mload(0x40)\n      dup1\n      dup4\n      sub\n      dup2\n      0x00\n      dup8\n      dup1\n      extcodesize\n      iszero\n      dup1\n      iszero\n      tag_139\n      jumpi\n      0x00\n      dup1\n      revert\n    tag_139:\n      pop\n      gas\n      call\n      iszero\n      dup1\n      iszero\n      tag_141\n      jumpi\n      returndatasize\n      0x00\n      dup1\n      returndatacopy\n      revert(0x00, returndatasize)\n    tag_141:\n      pop\n      pop\n      pop\n      pop\n        /* \"Bitxchange.sol\":7489:7509  uint256 remainingETH */\n      0x00\n        /* \"Bitxchange.sol\":7526:7529  fee */\n      dup3\n        /* \"Bitxchange.sol\":7512:7523  receivedETH */\n      dup5\n        /* \"Bitxchange.sol\":7512:7529  receivedETH - fee */\n      tag_142\n      swap2\n      swap1\n      tag_143\n      jump\t// in\n    tag_142:\n        /* \"Bitxchange.sol\":7489:7529  uint256 remainingETH = receivedETH - fee */\n      swap1\n      pop\n        /* \"Bitxchange.sol\":7548:7558  msg.sender */\n      caller\n        /* \"Bitxchange.sol\":7540:7568  payable(msg.sender).transfer */\n      0xffffffffffffffffffffffffffffffffffffffff\n      and\n        /* \"Bitxchange.sol\":7540:7582  payable(msg.sender).transfer(remainingETH) */\n      0x08fc\n        /* \"Bitxchange.sol\":7569:7581  remainingETH */\n      dup3\n        /* \"Bitxchange.sol\":7540:7582  payable(msg.sender).transfer(remainingETH) */\n      swap1\n      dup2\n      iszero\n      mul\n      swap1\n      mload(0x40)\n      0x00\n      mload(0x40)\n      dup1\n      dup4\n      sub\n      dup2\n      dup6\n      dup9\n      dup9\n      call\n      swap4\n      pop\n      pop\n      pop\n      pop\n      iszero\n      dup1\n      iszero\n      tag_145\n      jumpi\n      returndatasize\n      0x00\n      dup1\n      returndatacopy\n      revert(0x00, returndatasize)\n    tag_145:\n      pop\n        /* \"Bitxchange.sol\":7615:7625  msg.sender */\n      caller\n        /* \"Bitxchange.sol\":7600:7647  SwapSuccessful(msg.sender, amount, receivedETH) */\n      0xffffffffffffffffffffffffffffffffffffffff\n      and\n      0xd0dcb5d6ccbc65558941eda1d0add99921923cc1868a41bbf8d224258a21396d\n        /* \"Bitxchange.sol\":7627:7633  amount */\n      dup10\n        /* \"Bitxchange.sol\":7635:7646  receivedETH */\n      dup7\n        /* \"Bitxchange.sol\":7600:7647  SwapSuccessful(msg.sender, amount, receivedETH) */\n      mload(0x40)\n      tag_146\n      swap3\n      swap2\n      swap1\n      tag_147\n      jump\t// in\n    tag_146:\n      mload(0x40)\n      dup1\n      swap2\n      sub\n      swap1\n      log2\n        /* \"Bitxchange.sol\":6642:7655  {... */\n      pop\n      pop\n      pop\n      pop\n      pop\n      pop\n        /* \"Bitxchange.sol\":6542:7655  function swapTokensForETH_UserPaysGas(address token, uint256 amount, uint256 minAmountOut) external {... */\n      pop\n      pop\n      pop\n      jump\t// out\n        /* \"Bitxchange.sol\":854:897  uint256 public estimatedGasForSwap = 221428 */\n    tag_29:\n      sload(0x04)\n      dup2\n      jump\t// out\n        /* \"Bitxchange.sol\":2027:2260  function setRewardPot(address _newRewardPot) external onlyOwner {... */\n    tag_36:\n        /* \"@openzeppelin/contracts/access/Ownable.sol\":1531:1544  _checkOwner() */\n      tag_149\n        /* \"@openzeppelin/contracts/access/Ownable.sol\":1531:1542  _checkOwner */\n      tag_150\n        /* \"@openzeppelin/contracts/access/Ownable.sol\":1531:1544  _checkOwner() */\n      jump\t// in\n    tag_149:\n        /* \"Bitxchange.sol\":2135:2136  0 */\n      0x00\n        /* \"Bitxchange.sol\":2110:2137  _newRewardPot != address(0) */\n      0xffffffffffffffffffffffffffffffffffffffff\n      and\n        /* \"Bitxchange.sol\":2110:2123  _newRewardPot */\n      dup2\n        /* \"Bitxchange.sol\":2110:2137  _newRewardPot != address(0) */\n      0xffffffffffffffffffffffffffffffffffffffff\n      and\n      sub\n        /* \"Bitxchange.sol\":2102:2157  require(_newRewardPot != address(0), \"Invalid address\") */\n      tag_152\n      jumpi\n      mload(0x40)\n      0x08c379a000000000000000000000000000000000000000000000000000000000\n      dup2\n      mstore\n      0x04\n      add\n      tag_153\n      swap1\n      tag_154\n      jump\t// in\n    tag_153:\n      mload(0x40)\n      dup1\n      swap2\n      sub\n      swap1\n      revert\n    tag_152:\n        /* \"Bitxchange.sol\":2191:2204  _newRewardPot */\n      dup1\n        /* \"Bitxchange.sol\":2168:2177  rewardPot */\n      0x02\n      0x00\n        /* \"Bitxchange.sol\":2168:2205  rewardPot = IRewardPot(_newRewardPot) */\n      0x0100\n      exp\n      dup2\n      sload\n      dup2\n      0xffffffffffffffffffffffffffffffffffffffff\n      mul\n      not\n      and\n      swap1\n      dup4\n      0xffffffffffffffffffffffffffffffffffffffff\n      and\n      mul\n      or\n      swap1\n      sstore\n      pop\n        /* \"Bitxchange.sol\":2221:2252  RewardPotUpdated(_newRewardPot) */\n      0xecb9755730c832a50c16ea8001a277be77d816b09dc686fe072d4f2285e5cece\n        /* \"Bitxchange.sol\":2238:2251  _newRewardPot */\n      dup2\n        /* \"Bitxchange.sol\":2221:2252  RewardPotUpdated(_newRewardPot) */\n      mload(0x40)\n      tag_155\n      swap2\n      swap1\n      tag_49\n      jump\t// in\n    tag_155:\n      mload(0x40)\n      dup1\n      swap2\n      sub\n      swap1\n      log1\n        /* \"Bitxchange.sol\":2027:2260  function setRewardPot(address _newRewardPot) external onlyOwner {... */\n      pop\n      jump\t// out\n        /* \"@openzeppelin/contracts/access/Ownable.sol\":2293:2394  function renounceOwnership() public virtual onlyOwner {... */\n    tag_39:\n        /* \"@openzeppelin/contracts/access/Ownable.sol\":1531:1544  _checkOwner() */\n      tag_157\n        /* \"@openzeppelin/contracts/access/Ownable.sol\":1531:1542  _checkOwner */\n      tag_150\n        /* \"@openzeppelin/contracts/access/Ownable.sol\":1531:1544  _checkOwner() */\n      jump\t// in\n    tag_157:\n        /* \"@openzeppelin/contracts/access/Ownable.sol\":2357:2387  _transferOwnership(address(0)) */\n      tag_159\n        /* \"@openzeppelin/contracts/access/Ownable.sol\":2384:2385  0 */\n      0x00\n        /* \"@openzeppelin/contracts/access/Ownable.sol\":2357:2375  _transferOwnership */\n      tag_160\n        /* \"@openzeppelin/contracts/access/Ownable.sol\":2357:2387  _transferOwnership(address(0)) */\n      jump\t// in\n    tag_159:\n        /* \"@openzeppelin/contracts/access/Ownable.sol\":2293:2394  function renounceOwnership() public virtual onlyOwner {... */\n      jump\t// out\n        /* \"Bitxchange.sol\":703:742  IUniswapV2Router02 public uniswapRouter */\n    tag_42:\n      0x01\n      0x00\n      swap1\n      sload\n      swap1\n      0x0100\n      exp\n      swap1\n      div\n      0xffffffffffffffffffffffffffffffffffffffff\n      and\n      dup2\n      jump\t// out\n        /* \"@openzeppelin/contracts/access/Ownable.sol\":1638:1723  function owner() public view virtual returns (address) {... */\n    tag_47:\n        /* \"@openzeppelin/contracts/access/Ownable.sol\":1684:1691  address */\n      0x00\n        /* \"@openzeppelin/contracts/access/Ownable.sol\":1710:1716  _owner */\n      dup1\n      0x00\n      swap1\n      sload\n      swap1\n      0x0100\n      exp\n      swap1\n      div\n      0xffffffffffffffffffffffffffffffffffffffff\n      and\n        /* \"@openzeppelin/contracts/access/Ownable.sol\":1703:1716  return _owner */\n      swap1\n      pop\n        /* \"@openzeppelin/contracts/access/Ownable.sol\":1638:1723  function owner() public view virtual returns (address) {... */\n      swap1\n      jump\t// out\n        /* \"Bitxchange.sol\":749:776  IRewardPot public rewardPot */\n    tag_52:\n      0x02\n      0x00\n      swap1\n      sload\n      swap1\n      0x0100\n      exp\n      swap1\n      div\n      0xffffffffffffffffffffffffffffffffffffffff\n      and\n      dup2\n      jump\t// out\n        /* \"Bitxchange.sol\":1670:1818  function setEstimatedGasForSwap(uint256 _newEstimatedGasForSwap) external onlyOwner {... */\n    tag_59:\n        /* \"@openzeppelin/contracts/access/Ownable.sol\":1531:1544  _checkOwner() */\n      tag_163\n        /* \"@openzeppelin/contracts/access/Ownable.sol\":1531:1542  _checkOwner */\n      tag_150\n        /* \"@openzeppelin/contracts/access/Ownable.sol\":1531:1544  _checkOwner() */\n      jump\t// in\n    tag_163:\n        /* \"Bitxchange.sol\":1787:1810  _newEstimatedGasForSwap */\n      dup1\n        /* \"Bitxchange.sol\":1765:1784  estimatedGasForSwap */\n      0x04\n        /* \"Bitxchange.sol\":1765:1810  estimatedGasForSwap = _newEstimatedGasForSwap */\n      dup2\n      swap1\n      sstore\n      pop\n        /* \"Bitxchange.sol\":1670:1818  function setEstimatedGasForSwap(uint256 _newEstimatedGasForSwap) external onlyOwner {... */\n      pop\n      jump\t// out\n        /* \"Bitxchange.sol\":783:817  uint256 public feePercentage = 750 */\n    tag_62:\n      sload(0x03)\n      dup2\n      jump\t// out\n        /* \"Bitxchange.sol\":3360:4421  function getSwapQuote(address token, uint256 amount, uint256 slippage, uint256 userGasPrice) public view returns (uint256 minAmountOut, uint256 estimatedGasCost, bool canDoSwap) {... */\n    tag_68:\n        /* \"Bitxchange.sol\":3474:3494  uint256 minAmountOut */\n      0x00\n        /* \"Bitxchange.sol\":3496:3520  uint256 estimatedGasCost */\n      dup1\n        /* \"Bitxchange.sol\":3522:3536  bool canDoSwap */\n      0x00\n        /* \"Bitxchange.sol\":3549:3570  address[] memory path */\n      dup1\n        /* \"Bitxchange.sol\":3587:3588  2 */\n      0x02\n        /* \"Bitxchange.sol\":3573:3589  new address[](2) */\n      0xffffffffffffffff\n      dup2\n      gt\n      iszero\n      tag_166\n      jumpi\n      tag_167\n      tag_113\n      jump\t// in\n    tag_167:\n    tag_166:\n      mload(0x40)\n      swap1\n      dup1\n      dup3\n      mstore\n      dup1\n      0x20\n      mul\n      0x20\n      add\n      dup3\n      add\n      0x40\n      mstore\n      dup1\n      iszero\n      tag_168\n      jumpi\n      dup2\n      0x20\n      add\n      0x20\n      dup3\n      mul\n      dup1\n      calldatasize\n      dup4\n      calldatacopy\n      dup1\n      dup3\n      add\n      swap2\n      pop\n      pop\n      swap1\n      pop\n    tag_168:\n      pop\n        /* \"Bitxchange.sol\":3549:3589  address[] memory path = new address[](2) */\n      swap1\n      pop\n        /* \"Bitxchange.sol\":3610:3615  token */\n      dup8\n        /* \"Bitxchange.sol\":3600:3604  path */\n      dup2\n        /* \"Bitxchange.sol\":3605:3606  0 */\n      0x00\n        /* \"Bitxchange.sol\":3600:3607  path[0] */\n      dup2\n      mload\n      dup2\n      lt\n      tag_169\n      jumpi\n      tag_170\n      tag_117\n      jump\t// in\n    tag_170:\n    tag_169:\n      0x20\n      mul\n      0x20\n      add\n      add\n        /* \"Bitxchange.sol\":3600:3615  path[0] = token */\n      swap1\n      0xffffffffffffffffffffffffffffffffffffffff\n      and\n      swap1\n      dup2\n      0xffffffffffffffffffffffffffffffffffffffff\n      and\n      dup2\n      mstore\n      pop\n      pop\n        /* \"Bitxchange.sol\":3636:3649  uniswapRouter */\n      0x01\n      0x00\n      swap1\n      sload\n      swap1\n      0x0100\n      exp\n      swap1\n      div\n      0xffffffffffffffffffffffffffffffffffffffff\n      and\n        /* \"Bitxchange.sol\":3636:3654  uniswapRouter.WETH */\n      0xffffffffffffffffffffffffffffffffffffffff\n      and\n      0xad5c4648\n        /* \"Bitxchange.sol\":3636:3656  uniswapRouter.WETH() */\n      mload(0x40)\n      dup2\n      0xffffffff\n      and\n      0xe0\n      shl\n      dup2\n      mstore\n      0x04\n      add\n      0x20\n      mload(0x40)\n      dup1\n      dup4\n      sub\n      dup2\n      dup7\n      gas\n      staticcall\n      iszero\n      dup1\n      iszero\n      tag_172\n      jumpi\n      returndatasize\n      0x00\n      dup1\n      returndatacopy\n      revert(0x00, returndatasize)\n    tag_172:\n      pop\n      pop\n      pop\n      pop\n      mload(0x40)\n      returndatasize\n      not(0x1f)\n      0x1f\n      dup3\n      add\n      and\n      dup3\n      add\n      dup1\n      0x40\n      mstore\n      pop\n      dup2\n      add\n      swap1\n      tag_173\n      swap2\n      swap1\n      tag_121\n      jump\t// in\n    tag_173:\n        /* \"Bitxchange.sol\":3626:3630  path */\n      dup2\n        /* \"Bitxchange.sol\":3631:3632  1 */\n      0x01\n        /* \"Bitxchange.sol\":3626:3633  path[1] */\n      dup2\n      mload\n      dup2\n      lt\n      tag_174\n      jumpi\n      tag_175\n      tag_117\n      jump\t// in\n    tag_175:\n    tag_174:\n      0x20\n      mul\n      0x20\n      add\n      add\n        /* \"Bitxchange.sol\":3626:3656  path[1] = uniswapRouter.WETH() */\n      swap1\n      0xffffffffffffffffffffffffffffffffffffffff\n      and\n      swap1\n      dup2\n      0xffffffffffffffffffffffffffffffffffffffff\n      and\n      dup2\n      mstore\n      pop\n      pop\n        /* \"Bitxchange.sol\":3748:3760  bool success */\n      0x00\n        /* \"Bitxchange.sol\":3762:3787  uint256 expectedAmountOut */\n      dup1\n        /* \"Bitxchange.sol\":3791:3821  tryGetAmountsOut(amount, path) */\n      tag_176\n        /* \"Bitxchange.sol\":3808:3814  amount */\n      dup10\n        /* \"Bitxchange.sol\":3816:3820  path */\n      dup5\n        /* \"Bitxchange.sol\":3791:3807  tryGetAmountsOut */\n      tag_177\n        /* \"Bitxchange.sol\":3791:3821  tryGetAmountsOut(amount, path) */\n      jump\t// in\n    tag_176:\n        /* \"Bitxchange.sol\":3747:3821  (bool success, uint256 expectedAmountOut) = tryGetAmountsOut(amount, path) */\n      swap2\n      pop\n      swap2\n      pop\n        /* \"Bitxchange.sol\":3840:3847  success */\n      dup2\n        /* \"Bitxchange.sol\":3832:3879  require(success, \"No liquidity for this token\") */\n      tag_178\n      jumpi\n      mload(0x40)\n      0x08c379a000000000000000000000000000000000000000000000000000000000\n      dup2\n      mstore\n      0x04\n      add\n      tag_179\n      swap1\n      tag_180\n      jump\t// in\n    tag_179:\n      mload(0x40)\n      dup1\n      swap2\n      sub\n      swap1\n      revert\n    tag_178:\n        /* \"Bitxchange.sol\":3975:3980  10000 */\n      0x2710\n        /* \"Bitxchange.sol\":3963:3971  slippage */\n      dup9\n        /* \"Bitxchange.sol\":3955:3960  10000 */\n      0x2710\n        /* \"Bitxchange.sol\":3955:3971  10000 - slippage */\n      tag_181\n      swap2\n      swap1\n      tag_143\n      jump\t// in\n    tag_181:\n        /* \"Bitxchange.sol\":3934:3951  expectedAmountOut */\n      dup3\n        /* \"Bitxchange.sol\":3934:3972  expectedAmountOut * (10000 - slippage) */\n      tag_182\n      swap2\n      swap1\n      tag_133\n      jump\t// in\n    tag_182:\n        /* \"Bitxchange.sol\":3934:3980  expectedAmountOut * (10000 - slippage) / 10000 */\n      tag_183\n      swap2\n      swap1\n      tag_135\n      jump\t// in\n    tag_183:\n        /* \"Bitxchange.sol\":3919:3980  minAmountOut = expectedAmountOut * (10000 - slippage) / 10000 */\n      swap6\n      pop\n        /* \"Bitxchange.sol\":4311:4323  userGasPrice */\n      dup7\n        /* \"Bitxchange.sol\":4289:4308  estimatedGasForSwap */\n      sload(0x04)\n        /* \"Bitxchange.sol\":4289:4323  estimatedGasForSwap * userGasPrice */\n      tag_184\n      swap2\n      swap1\n      tag_133\n      jump\t// in\n    tag_184:\n        /* \"Bitxchange.sol\":4270:4323  estimatedGasCost = estimatedGasForSwap * userGasPrice */\n      swap5\n      pop\n        /* \"Bitxchange.sol\":4344:4356  minAmountOut */\n      dup6\n        /* \"Bitxchange.sol\":4358:4374  estimatedGasCost */\n      dup6\n        /* \"Bitxchange.sol\":4376:4412  canSwap(token, amount, userGasPrice) */\n      tag_185\n        /* \"Bitxchange.sol\":4384:4389  token */\n      dup13\n        /* \"Bitxchange.sol\":4391:4397  amount */\n      dup13\n        /* \"Bitxchange.sol\":4399:4411  userGasPrice */\n      dup12\n        /* \"Bitxchange.sol\":4376:4383  canSwap */\n      tag_78\n        /* \"Bitxchange.sol\":4376:4412  canSwap(token, amount, userGasPrice) */\n      jump\t// in\n    tag_185:\n        /* \"Bitxchange.sol\":4336:4413  return (minAmountOut, estimatedGasCost, canSwap(token, amount, userGasPrice)) */\n      swap6\n      pop\n      swap6\n      pop\n      swap6\n      pop\n      pop\n      pop\n      pop\n        /* \"Bitxchange.sol\":3360:4421  function getSwapQuote(address token, uint256 amount, uint256 slippage, uint256 userGasPrice) public view returns (uint256 minAmountOut, uint256 estimatedGasCost, bool canDoSwap) {... */\n      swap5\n      pop\n      swap5\n      pop\n      swap5\n      swap2\n      pop\n      pop\n      jump\t// out\n        /* \"Bitxchange.sol\":1523:1662  function setFeePercentage(uint256 _newFee) external onlyOwner {... */\n    tag_74:\n        /* \"@openzeppelin/contracts/access/Ownable.sol\":1531:1544  _checkOwner() */\n      tag_187\n        /* \"@openzeppelin/contracts/access/Ownable.sol\":1531:1542  _checkOwner */\n      tag_150\n        /* \"@openzeppelin/contracts/access/Ownable.sol\":1531:1544  _checkOwner() */\n      jump\t// in\n    tag_187:\n        /* \"Bitxchange.sol\":1612:1619  _newFee */\n      dup1\n        /* \"Bitxchange.sol\":1596:1609  feePercentage */\n      0x03\n        /* \"Bitxchange.sol\":1596:1619  feePercentage = _newFee */\n      dup2\n      swap1\n      sstore\n      pop\n        /* \"Bitxchange.sol\":1635:1654  FeeUpdated(_newFee) */\n      0x8c4d35e54a3f2ef1134138fd8ea3daee6a3c89e10d2665996babdf70261e2c76\n        /* \"Bitxchange.sol\":1646:1653  _newFee */\n      dup2\n        /* \"Bitxchange.sol\":1635:1654  FeeUpdated(_newFee) */\n      mload(0x40)\n      tag_189\n      swap2\n      swap1\n      tag_31\n      jump\t// in\n    tag_189:\n      mload(0x40)\n      dup1\n      swap2\n      sub\n      swap1\n      log1\n        /* \"Bitxchange.sol\":1523:1662  function setFeePercentage(uint256 _newFee) external onlyOwner {... */\n      pop\n      jump\t// out\n        /* \"Bitxchange.sol\":2650:3352  function canSwap(address token, uint256 amountIn, uint256 userGasPrice) public view returns (bool) {... */\n    tag_78:\n        /* \"Bitxchange.sol\":2743:2747  bool */\n      0x00\n        /* \"Bitxchange.sol\":2760:2781  address[] memory path */\n      dup1\n        /* \"Bitxchange.sol\":2798:2799  2 */\n      0x02\n        /* \"Bitxchange.sol\":2784:2800  new address[](2) */\n      0xffffffffffffffff\n      dup2\n      gt\n      iszero\n      tag_191\n      jumpi\n      tag_192\n      tag_113\n      jump\t// in\n    tag_192:\n    tag_191:\n      mload(0x40)\n      swap1\n      dup1\n      dup3\n      mstore\n      dup1\n      0x20\n      mul\n      0x20\n      add\n      dup3\n      add\n      0x40\n      mstore\n      dup1\n      iszero\n      tag_193\n      jumpi\n      dup2\n      0x20\n      add\n      0x20\n      dup3\n      mul\n      dup1\n      calldatasize\n      dup4\n      calldatacopy\n      dup1\n      dup3\n      add\n      swap2\n      pop\n      pop\n      swap1\n      pop\n    tag_193:\n      pop\n        /* \"Bitxchange.sol\":2760:2800  address[] memory path = new address[](2) */\n      swap1\n      pop\n        /* \"Bitxchange.sol\":2821:2826  token */\n      dup5\n        /* \"Bitxchange.sol\":2811:2815  path */\n      dup2\n        /* \"Bitxchange.sol\":2816:2817  0 */\n      0x00\n        /* \"Bitxchange.sol\":2811:2818  path[0] */\n      dup2\n      mload\n      dup2\n      lt\n      tag_194\n      jumpi\n      tag_195\n      tag_117\n      jump\t// in\n    tag_195:\n    tag_194:\n      0x20\n      mul\n      0x20\n      add\n      add\n        /* \"Bitxchange.sol\":2811:2826  path[0] = token */\n      swap1\n      0xffffffffffffffffffffffffffffffffffffffff\n      and\n      swap1\n      dup2\n      0xffffffffffffffffffffffffffffffffffffffff\n      and\n      dup2\n      mstore\n      pop\n      pop\n        /* \"Bitxchange.sol\":2847:2860  uniswapRouter */\n      0x01\n      0x00\n      swap1\n      sload\n      swap1\n      0x0100\n      exp\n      swap1\n      div\n      0xffffffffffffffffffffffffffffffffffffffff\n      and\n        /* \"Bitxchange.sol\":2847:2865  uniswapRouter.WETH */\n      0xffffffffffffffffffffffffffffffffffffffff\n      and\n      0xad5c4648\n        /* \"Bitxchange.sol\":2847:2867  uniswapRouter.WETH() */\n      mload(0x40)\n      dup2\n      0xffffffff\n      and\n      0xe0\n      shl\n      dup2\n      mstore\n      0x04\n      add\n      0x20\n      mload(0x40)\n      dup1\n      dup4\n      sub\n      dup2\n      dup7\n      gas\n      staticcall\n      iszero\n      dup1\n      iszero\n      tag_197\n      jumpi\n      returndatasize\n      0x00\n      dup1\n      returndatacopy\n      revert(0x00, returndatasize)\n    tag_197:\n      pop\n      pop\n      pop\n      pop\n      mload(0x40)\n      returndatasize\n      not(0x1f)\n      0x1f\n      dup3\n      add\n      and\n      dup3\n      add\n      dup1\n      0x40\n      mstore\n      pop\n      dup2\n      add\n      swap1\n      tag_198\n      swap2\n      swap1\n      tag_121\n      jump\t// in\n    tag_198:\n        /* \"Bitxchange.sol\":2837:2841  path */\n      dup2\n        /* \"Bitxchange.sol\":2842:2843  1 */\n      0x01\n        /* \"Bitxchange.sol\":2837:2844  path[1] */\n      dup2\n      mload\n      dup2\n      lt\n      tag_199\n      jumpi\n      tag_200\n      tag_117\n      jump\t// in\n    tag_200:\n    tag_199:\n      0x20\n      mul\n      0x20\n      add\n      add\n        /* \"Bitxchange.sol\":2837:2867  path[1] = uniswapRouter.WETH() */\n      swap1\n      0xffffffffffffffffffffffffffffffffffffffff\n      and\n      swap1\n      dup2\n      0xffffffffffffffffffffffffffffffffffffffff\n      and\n      dup2\n      mstore\n      pop\n      pop\n        /* \"Bitxchange.sol\":2940:2952  bool success */\n      0x00\n        /* \"Bitxchange.sol\":2954:2971  uint256 amountOut */\n      dup1\n        /* \"Bitxchange.sol\":2975:3007  tryGetAmountsOut(amountIn, path) */\n      tag_201\n        /* \"Bitxchange.sol\":2992:3000  amountIn */\n      dup7\n        /* \"Bitxchange.sol\":3002:3006  path */\n      dup5\n        /* \"Bitxchange.sol\":2975:2991  tryGetAmountsOut */\n      tag_177\n        /* \"Bitxchange.sol\":2975:3007  tryGetAmountsOut(amountIn, path) */\n      jump\t// in\n    tag_201:\n        /* \"Bitxchange.sol\":2939:3007  (bool success, uint256 amountOut) = tryGetAmountsOut(amountIn, path) */\n      swap2\n      pop\n      swap2\n      pop\n        /* \"Bitxchange.sol\":3023:3030  success */\n      dup2\n        /* \"Bitxchange.sol\":3022:3030  !success */\n      iszero\n        /* \"Bitxchange.sol\":3022:3048  !success || amountOut == 0 */\n      dup1\n      tag_202\n      jumpi\n      pop\n        /* \"Bitxchange.sol\":3047:3048  0 */\n      0x00\n        /* \"Bitxchange.sol\":3034:3043  amountOut */\n      dup2\n        /* \"Bitxchange.sol\":3034:3048  amountOut == 0 */\n      eq\n        /* \"Bitxchange.sol\":3022:3048  !success || amountOut == 0 */\n    tag_202:\n        /* \"Bitxchange.sol\":3018:3089  if (!success || amountOut == 0) {... */\n      iszero\n      tag_203\n      jumpi\n        /* \"Bitxchange.sol\":3072:3077  false */\n      0x00\n        /* \"Bitxchange.sol\":3065:3077  return false */\n      swap4\n      pop\n      pop\n      pop\n      pop\n      jump(tag_190)\n        /* \"Bitxchange.sol\":3018:3089  if (!success || amountOut == 0) {... */\n    tag_203:\n        /* \"Bitxchange.sol\":3175:3199  uint256 estimatedGasCost */\n      0x00\n        /* \"Bitxchange.sol\":3224:3236  userGasPrice */\n      dup6\n        /* \"Bitxchange.sol\":3202:3221  estimatedGasForSwap */\n      sload(0x04)\n        /* \"Bitxchange.sol\":3202:3236  estimatedGasForSwap * userGasPrice */\n      tag_204\n      swap2\n      swap1\n      tag_133\n      jump\t// in\n    tag_204:\n        /* \"Bitxchange.sol\":3175:3236  uint256 estimatedGasCost = estimatedGasForSwap * userGasPrice */\n      swap1\n      pop\n        /* \"Bitxchange.sol\":3271:3280  amountOut */\n      dup2\n        /* \"Bitxchange.sol\":3251:3267  estimatedGasCost */\n      dup2\n        /* \"Bitxchange.sol\":3251:3280  estimatedGasCost >= amountOut */\n      lt\n        /* \"Bitxchange.sol\":3247:3321  if (estimatedGasCost >= amountOut) {... */\n      tag_205\n      jumpi\n        /* \"Bitxchange.sol\":3304:3309  false */\n      0x00\n        /* \"Bitxchange.sol\":3297:3309  return false */\n      swap5\n      pop\n      pop\n      pop\n      pop\n      pop\n      jump(tag_190)\n        /* \"Bitxchange.sol\":3247:3321  if (estimatedGasCost >= amountOut) {... */\n    tag_205:\n        /* \"Bitxchange.sol\":3340:3344  true */\n      0x01\n        /* \"Bitxchange.sol\":3333:3344  return true */\n      swap5\n      pop\n      pop\n      pop\n      pop\n      pop\n        /* \"Bitxchange.sol\":2650:3352  function canSwap(address token, uint256 amountIn, uint256 userGasPrice) public view returns (bool) {... */\n    tag_190:\n      swap4\n      swap3\n      pop\n      pop\n      pop\n      jump\t// out\n        /* \"Bitxchange.sol\":1826:2019  function setUniswapRouter(address _newRouter) external onlyOwner {... */\n    tag_84:\n        /* \"@openzeppelin/contracts/access/Ownable.sol\":1531:1544  _checkOwner() */\n      tag_207\n        /* \"@openzeppelin/contracts/access/Ownable.sol\":1531:1542  _checkOwner */\n      tag_150\n        /* \"@openzeppelin/contracts/access/Ownable.sol\":1531:1544  _checkOwner() */\n      jump\t// in\n    tag_207:\n        /* \"Bitxchange.sol\":1932:1933  0 */\n      0x00\n        /* \"Bitxchange.sol\":1910:1934  _newRouter != address(0) */\n      0xffffffffffffffffffffffffffffffffffffffff\n      and\n        /* \"Bitxchange.sol\":1910:1920  _newRouter */\n      dup2\n        /* \"Bitxchange.sol\":1910:1934  _newRouter != address(0) */\n      0xffffffffffffffffffffffffffffffffffffffff\n      and\n      sub\n        /* \"Bitxchange.sol\":1902:1954  require(_newRouter != address(0), \"Invalid address\") */\n      tag_209\n      jumpi\n      mload(0x40)\n      0x08c379a000000000000000000000000000000000000000000000000000000000\n      dup2\n      mstore\n      0x04\n      add\n      tag_210\n      swap1\n      tag_154\n      jump\t// in\n    tag_210:\n      mload(0x40)\n      dup1\n      swap2\n      sub\n      swap1\n      revert\n    tag_209:\n        /* \"Bitxchange.sol\":2000:2010  _newRouter */\n      dup1\n        /* \"Bitxchange.sol\":1965:1978  uniswapRouter */\n      0x01\n      0x00\n        /* \"Bitxchange.sol\":1965:2011  uniswapRouter = IUniswapV2Router02(_newRouter) */\n      0x0100\n      exp\n      dup2\n      sload\n      dup2\n      0xffffffffffffffffffffffffffffffffffffffff\n      mul\n      not\n      and\n      swap1\n      dup4\n      0xffffffffffffffffffffffffffffffffffffffff\n      and\n      mul\n      or\n      swap1\n      sstore\n      pop\n        /* \"Bitxchange.sol\":1826:2019  function setUniswapRouter(address _newRouter) external onlyOwner {... */\n      pop\n      jump\t// out\n        /* \"Bitxchange.sol\":4433:6534  function swapTokensForETH(address token, uint256 amount, uint256 minAmountOut) external {... */\n    tag_88:\n        /* \"Bitxchange.sol\":4593:4617  uint256 estimatedGasCost */\n      0x00\n        /* \"Bitxchange.sol\":4642:4653  tx.gasprice */\n      gasprice\n        /* \"Bitxchange.sol\":4620:4639  estimatedGasForSwap */\n      sload(0x04)\n        /* \"Bitxchange.sol\":4620:4653  estimatedGasForSwap * tx.gasprice */\n      tag_212\n      swap2\n      swap1\n      tag_133\n      jump\t// in\n    tag_212:\n        /* \"Bitxchange.sol\":4593:4653  uint256 estimatedGasCost = estimatedGasForSwap * tx.gasprice */\n      swap1\n      pop\n        /* \"Bitxchange.sol\":4691:4703  minAmountOut */\n      dup2\n        /* \"Bitxchange.sol\":4672:4688  estimatedGasCost */\n      dup2\n        /* \"Bitxchange.sol\":4672:4703  estimatedGasCost < minAmountOut */\n      lt\n        /* \"Bitxchange.sol\":4664:4747  require(estimatedGasCost < minAmountOut, \"Estimated gas cost exceeds minAmountOut\") */\n      tag_213\n      jumpi\n      mload(0x40)\n      0x08c379a000000000000000000000000000000000000000000000000000000000\n      dup2\n      mstore\n      0x04\n      add\n      tag_214\n      swap1\n      tag_215\n      jump\t// in\n    tag_214:\n      mload(0x40)\n      dup1\n      swap2\n      sub\n      swap1\n      revert\n    tag_213:\n        /* \"Bitxchange.sol\":4766:4802  canSwap(token, amount,  tx.gasprice) */\n      tag_216\n        /* \"Bitxchange.sol\":4774:4779  token */\n      dup5\n        /* \"Bitxchange.sol\":4781:4787  amount */\n      dup5\n        /* \"Bitxchange.sol\":4790:4801  tx.gasprice */\n      gasprice\n        /* \"Bitxchange.sol\":4766:4773  canSwap */\n      tag_78\n        /* \"Bitxchange.sol\":4766:4802  canSwap(token, amount,  tx.gasprice) */\n      jump\t// in\n    tag_216:\n        /* \"Bitxchange.sol\":4758:4841  require(canSwap(token, amount,  tx.gasprice), \"Swap Expected to Fail or too Gassy\") */\n      tag_217\n      jumpi\n      mload(0x40)\n      0x08c379a000000000000000000000000000000000000000000000000000000000\n      dup2\n      mstore\n      0x04\n      add\n      tag_218\n      swap1\n      tag_219\n      jump\t// in\n    tag_218:\n      mload(0x40)\n      dup1\n      swap2\n      sub\n      swap1\n      revert\n    tag_217:\n        /* \"Bitxchange.sol\":4856:4877  address[] memory path */\n      0x00\n        /* \"Bitxchange.sol\":4894:4895  2 */\n      0x02\n        /* \"Bitxchange.sol\":4880:4896  new address[](2) */\n      0xffffffffffffffff\n      dup2\n      gt\n      iszero\n      tag_220\n      jumpi\n      tag_221\n      tag_113\n      jump\t// in\n    tag_221:\n    tag_220:\n      mload(0x40)\n      swap1\n      dup1\n      dup3\n      mstore\n      dup1\n      0x20\n      mul\n      0x20\n      add\n      dup3\n      add\n      0x40\n      mstore\n      dup1\n      iszero\n      tag_222\n      jumpi\n      dup2\n      0x20\n      add\n      0x20\n      dup3\n      mul\n      dup1\n      calldatasize\n      dup4\n      calldatacopy\n      dup1\n      dup3\n      add\n      swap2\n      pop\n      pop\n      swap1\n      pop\n    tag_222:\n      pop\n        /* \"Bitxchange.sol\":4856:4896  address[] memory path = new address[](2) */\n      swap1\n      pop\n        /* \"Bitxchange.sol\":4917:4922  token */\n      dup5\n        /* \"Bitxchange.sol\":4907:4911  path */\n      dup2\n        /* \"Bitxchange.sol\":4912:4913  0 */\n      0x00\n        /* \"Bitxchange.sol\":4907:4914  path[0] */\n      dup2\n      mload\n      dup2\n      lt\n      tag_223\n      jumpi\n      tag_224\n      tag_117\n      jump\t// in\n    tag_224:\n    tag_223:\n      0x20\n      mul\n      0x20\n      add\n      add\n        /* \"Bitxchange.sol\":4907:4922  path[0] = token */\n      swap1\n      0xffffffffffffffffffffffffffffffffffffffff\n      and\n      swap1\n      dup2\n      0xffffffffffffffffffffffffffffffffffffffff\n      and\n      dup2\n      mstore\n      pop\n      pop\n        /* \"Bitxchange.sol\":4943:4956  uniswapRouter */\n      0x01\n      0x00\n      swap1\n      sload\n      swap1\n      0x0100\n      exp\n      swap1\n      div\n      0xffffffffffffffffffffffffffffffffffffffff\n      and\n        /* \"Bitxchange.sol\":4943:4961  uniswapRouter.WETH */\n      0xffffffffffffffffffffffffffffffffffffffff\n      and\n      0xad5c4648\n        /* \"Bitxchange.sol\":4943:4963  uniswapRouter.WETH() */\n      mload(0x40)\n      dup2\n      0xffffffff\n      and\n      0xe0\n      shl\n      dup2\n      mstore\n      0x04\n      add\n      0x20\n      mload(0x40)\n      dup1\n      dup4\n      sub\n      dup2\n      dup7\n      gas\n      staticcall\n      iszero\n      dup1\n      iszero\n      tag_226\n      jumpi\n      returndatasize\n      0x00\n      dup1\n      returndatacopy\n      revert(0x00, returndatasize)\n    tag_226:\n      pop\n      pop\n      pop\n      pop\n      mload(0x40)\n      returndatasize\n      not(0x1f)\n      0x1f\n      dup3\n      add\n      and\n      dup3\n      add\n      dup1\n      0x40\n      mstore\n      pop\n      dup2\n      add\n      swap1\n      tag_227\n      swap2\n      swap1\n      tag_121\n      jump\t// in\n    tag_227:\n        /* \"Bitxchange.sol\":4933:4937  path */\n      dup2\n        /* \"Bitxchange.sol\":4938:4939  1 */\n      0x01\n        /* \"Bitxchange.sol\":4933:4940  path[1] */\n      dup2\n      mload\n      dup2\n      lt\n      tag_228\n      jumpi\n      tag_229\n      tag_117\n      jump\t// in\n    tag_229:\n    tag_228:\n      0x20\n      mul\n      0x20\n      add\n      add\n        /* \"Bitxchange.sol\":4933:4963  path[1] = uniswapRouter.WETH() */\n      swap1\n      0xffffffffffffffffffffffffffffffffffffffff\n      and\n      swap1\n      dup2\n      0xffffffffffffffffffffffffffffffffffffffff\n      and\n      dup2\n      mstore\n      pop\n      pop\n        /* \"Bitxchange.sol\":5054:5081  uint256[] memory amountsOut */\n      0x00\n        /* \"Bitxchange.sol\":5084:5097  uniswapRouter */\n      0x01\n      0x00\n      swap1\n      sload\n      swap1\n      0x0100\n      exp\n      swap1\n      div\n      0xffffffffffffffffffffffffffffffffffffffff\n      and\n        /* \"Bitxchange.sol\":5084:5111  uniswapRouter.getAmountsOut */\n      0xffffffffffffffffffffffffffffffffffffffff\n      and\n      0xd06ca61f\n        /* \"Bitxchange.sol\":5112:5118  amount */\n      dup7\n        /* \"Bitxchange.sol\":5120:5124  path */\n      dup5\n        /* \"Bitxchange.sol\":5084:5125  uniswapRouter.getAmountsOut(amount, path) */\n      mload(0x40)\n      dup4\n      0xffffffff\n      and\n      0xe0\n      shl\n      dup2\n      mstore\n      0x04\n      add\n      tag_230\n      swap3\n      swap2\n      swap1\n      tag_231\n      jump\t// in\n    tag_230:\n      0x00\n      mload(0x40)\n      dup1\n      dup4\n      sub\n      dup2\n      dup7\n      gas\n      staticcall\n      iszero\n      dup1\n      iszero\n      tag_233\n      jumpi\n      returndatasize\n      0x00\n      dup1\n      returndatacopy\n      revert(0x00, returndatasize)\n    tag_233:\n      pop\n      pop\n      pop\n      pop\n      mload(0x40)\n      returndatasize\n      0x00\n      dup3\n      returndatacopy\n      returndatasize\n      not(0x1f)\n      0x1f\n      dup3\n      add\n      and\n      dup3\n      add\n      dup1\n      0x40\n      mstore\n      pop\n      dup2\n      add\n      swap1\n      tag_234\n      swap2\n      swap1\n      tag_129\n      jump\t// in\n    tag_234:\n        /* \"Bitxchange.sol\":5054:5125  uint256[] memory amountsOut = uniswapRouter.getAmountsOut(amount, path) */\n      swap1\n      pop\n        /* \"Bitxchange.sol\":5136:5161  uint256 expectedAmountOut */\n      0x00\n        /* \"Bitxchange.sol\":5164:5174  amountsOut */\n      dup2\n        /* \"Bitxchange.sol\":5175:5176  1 */\n      0x01\n        /* \"Bitxchange.sol\":5164:5177  amountsOut[1] */\n      dup2\n      mload\n      dup2\n      lt\n      tag_235\n      jumpi\n      tag_236\n      tag_117\n      jump\t// in\n    tag_236:\n    tag_235:\n      0x20\n      mul\n      0x20\n      add\n      add\n      mload\n        /* \"Bitxchange.sol\":5136:5177  uint256 expectedAmountOut = amountsOut[1] */\n      swap1\n      pop\n        /* \"Bitxchange.sol\":5280:5292  minAmountOut */\n      dup5\n        /* \"Bitxchange.sol\":5259:5276  expectedAmountOut */\n      dup2\n        /* \"Bitxchange.sol\":5259:5292  expectedAmountOut >= minAmountOut */\n      lt\n      iszero\n        /* \"Bitxchange.sol\":5251:5339  require(expectedAmountOut >= minAmountOut, \"Expected amount less than minimum required\") */\n      tag_237\n      jumpi\n      mload(0x40)\n      0x08c379a000000000000000000000000000000000000000000000000000000000\n      dup2\n      mstore\n      0x04\n      add\n      tag_238\n      swap1\n      tag_239\n      jump\t// in\n    tag_238:\n      mload(0x40)\n      dup1\n      swap2\n      sub\n      swap1\n      revert\n    tag_237:\n        /* \"Bitxchange.sol\":5388:5393  token */\n      dup7\n        /* \"Bitxchange.sol\":5381:5407  IERC20(token).transferFrom */\n      0xffffffffffffffffffffffffffffffffffffffff\n      and\n      0x23b872dd\n        /* \"Bitxchange.sol\":5408:5418  msg.sender */\n      caller\n        /* \"Bitxchange.sol\":5428:5432  this */\n      address\n        /* \"Bitxchange.sol\":5435:5441  amount */\n      dup10\n        /* \"Bitxchange.sol\":5381:5442  IERC20(token).transferFrom(msg.sender, address(this), amount) */\n      mload(0x40)\n      dup5\n      0xffffffff\n      and\n      0xe0\n      shl\n      dup2\n      mstore\n      0x04\n      add\n      tag_240\n      swap4\n      swap3\n      swap2\n      swap1\n      tag_101\n      jump\t// in\n    tag_240:\n      0x20\n      mload(0x40)\n      dup1\n      dup4\n      sub\n      dup2\n      0x00\n      dup8\n      gas\n      call\n      iszero\n      dup1\n      iszero\n      tag_242\n      jumpi\n      returndatasize\n      0x00\n      dup1\n      returndatacopy\n      revert(0x00, returndatasize)\n    tag_242:\n      pop\n      pop\n      pop\n      pop\n      mload(0x40)\n      returndatasize\n      not(0x1f)\n      0x1f\n      dup3\n      add\n      and\n      dup3\n      add\n      dup1\n      0x40\n      mstore\n      pop\n      dup2\n      add\n      swap1\n      tag_243\n      swap2\n      swap1\n      tag_105\n      jump\t// in\n    tag_243:\n      pop\n        /* \"Bitxchange.sol\":5460:5465  token */\n      dup7\n        /* \"Bitxchange.sol\":5453:5474  IERC20(token).approve */\n      0xffffffffffffffffffffffffffffffffffffffff\n      and\n      0x095ea7b3\n        /* \"Bitxchange.sol\":5483:5496  uniswapRouter */\n      0x01\n      0x00\n      swap1\n      sload\n      swap1\n      0x0100\n      exp\n      swap1\n      div\n      0xffffffffffffffffffffffffffffffffffffffff\n      and\n        /* \"Bitxchange.sol\":5499:5505  amount */\n      dup9\n        /* \"Bitxchange.sol\":5453:5506  IERC20(token).approve(address(uniswapRouter), amount) */\n      mload(0x40)\n      dup4\n      0xffffffff\n      and\n      0xe0\n      shl\n      dup2\n      mstore\n      0x04\n      add\n      tag_244\n      swap3\n      swap2\n      swap1\n      tag_107\n      jump\t// in\n    tag_244:\n      0x20\n      mload(0x40)\n      dup1\n      dup4\n      sub\n      dup2\n      0x00\n      dup8\n      gas\n      call\n      iszero\n      dup1\n      iszero\n      tag_246\n      jumpi\n      returndatasize\n      0x00\n      dup1\n      returndatacopy\n      revert(0x00, returndatasize)\n    tag_246:\n      pop\n      pop\n      pop\n      pop\n      mload(0x40)\n      returndatasize\n      not(0x1f)\n      0x1f\n      dup3\n      add\n      and\n      dup3\n      add\n      dup1\n      0x40\n      mstore\n      pop\n      dup2\n      add\n      swap1\n      tag_247\n      swap2\n      swap1\n      tag_105\n      jump\t// in\n    tag_247:\n      pop\n        /* \"Bitxchange.sol\":5519:5543  uint256[] memory amounts */\n      0x00\n        /* \"Bitxchange.sol\":5546:5559  uniswapRouter */\n      0x01\n      0x00\n      swap1\n      sload\n      swap1\n      0x0100\n      exp\n      swap1\n      div\n      0xffffffffffffffffffffffffffffffffffffffff\n      and\n        /* \"Bitxchange.sol\":5546:5581  uniswapRouter.swapExactTokensForETH */\n      0xffffffffffffffffffffffffffffffffffffffff\n      and\n      0x18cbafe5\n        /* \"Bitxchange.sol\":5582:5588  amount */\n      dup9\n        /* \"Bitxchange.sol\":5590:5602  minAmountOut */\n      dup9\n        /* \"Bitxchange.sol\":5604:5608  path */\n      dup8\n        /* \"Bitxchange.sol\":5618:5622  this */\n      address\n        /* \"Bitxchange.sol\":5625:5640  block.timestamp */\n      timestamp\n        /* \"Bitxchange.sol\":5546:5641  uniswapRouter.swapExactTokensForETH(amount, minAmountOut, path, address(this), block.timestamp) */\n      mload(0x40)\n      dup7\n      0xffffffff\n      and\n      0xe0\n      shl\n      dup2\n      mstore\n      0x04\n      add\n      tag_248\n      swap6\n      swap5\n      swap4\n      swap3\n      swap2\n      swap1\n      tag_125\n      jump\t// in\n    tag_248:\n      0x00\n      mload(0x40)\n      dup1\n      dup4\n      sub\n      dup2\n      0x00\n      dup8\n      gas\n      call\n      iszero\n      dup1\n      iszero\n      tag_250\n      jumpi\n      returndatasize\n      0x00\n      dup1\n      returndatacopy\n      revert(0x00, returndatasize)\n    tag_250:\n      pop\n      pop\n      pop\n      pop\n      mload(0x40)\n      returndatasize\n      0x00\n      dup3\n      returndatacopy\n      returndatasize\n      not(0x1f)\n      0x1f\n      dup3\n      add\n      and\n      dup3\n      add\n      dup1\n      0x40\n      mstore\n      pop\n      dup2\n      add\n      swap1\n      tag_251\n      swap2\n      swap1\n      tag_129\n      jump\t// in\n    tag_251:\n        /* \"Bitxchange.sol\":5519:5641  uint256[] memory amounts = uniswapRouter.swapExactTokensForETH(amount, minAmountOut, path, address(this), block.timestamp) */\n      swap1\n      pop\n        /* \"Bitxchange.sol\":5652:5671  uint256 receivedETH */\n      0x00\n        /* \"Bitxchange.sol\":5674:5681  amounts */\n      dup2\n        /* \"Bitxchange.sol\":5682:5683  1 */\n      0x01\n        /* \"Bitxchange.sol\":5674:5684  amounts[1] */\n      dup2\n      mload\n      dup2\n      lt\n      tag_252\n      jumpi\n      tag_253\n      tag_117\n      jump\t// in\n    tag_253:\n    tag_252:\n      0x20\n      mul\n      0x20\n      add\n      add\n      mload\n        /* \"Bitxchange.sol\":5652:5684  uint256 receivedETH = amounts[1] */\n      swap1\n      pop\n        /* \"Bitxchange.sol\":5757:5776  uint256 feeFreeZone */\n      0x00\n        /* \"Bitxchange.sol\":5799:5811  minAmountOut */\n      dup8\n        /* \"Bitxchange.sol\":5779:5796  expectedAmountOut */\n      dup5\n        /* \"Bitxchange.sol\":5779:5811  expectedAmountOut > minAmountOut */\n      gt\n        /* \"Bitxchange.sol\":5779:5850  expectedAmountOut > minAmountOut ? expectedAmountOut - minAmountOut : 0 */\n      tag_254\n      jumpi\n        /* \"Bitxchange.sol\":5849:5850  0 */\n      0x00\n        /* \"Bitxchange.sol\":5779:5850  expectedAmountOut > minAmountOut ? expectedAmountOut - minAmountOut : 0 */\n      jump(tag_255)\n    tag_254:\n        /* \"Bitxchange.sol\":5834:5846  minAmountOut */\n      dup8\n        /* \"Bitxchange.sol\":5814:5831  expectedAmountOut */\n      dup5\n        /* \"Bitxchange.sol\":5814:5846  expectedAmountOut - minAmountOut */\n      tag_256\n      swap2\n      swap1\n      tag_143\n      jump\t// in\n    tag_256:\n        /* \"Bitxchange.sol\":5779:5850  expectedAmountOut > minAmountOut ? expectedAmountOut - minAmountOut : 0 */\n    tag_255:\n        /* \"Bitxchange.sol\":5757:5850  uint256 feeFreeZone = expectedAmountOut > minAmountOut ? expectedAmountOut - minAmountOut : 0 */\n      swap1\n      pop\n        /* \"Bitxchange.sol\":5861:5881  uint256 excessAmount */\n      0x00\n        /* \"Bitxchange.sol\":5898:5915  expectedAmountOut */\n      dup5\n        /* \"Bitxchange.sol\":5884:5895  receivedETH */\n      dup4\n        /* \"Bitxchange.sol\":5884:5915  receivedETH > expectedAmountOut */\n      gt\n        /* \"Bitxchange.sol\":5884:5953  receivedETH > expectedAmountOut ? receivedETH - expectedAmountOut : 0 */\n      tag_257\n      jumpi\n        /* \"Bitxchange.sol\":5952:5953  0 */\n      0x00\n        /* \"Bitxchange.sol\":5884:5953  receivedETH > expectedAmountOut ? receivedETH - expectedAmountOut : 0 */\n      jump(tag_258)\n    tag_257:\n        /* \"Bitxchange.sol\":5932:5949  expectedAmountOut */\n      dup5\n        /* \"Bitxchange.sol\":5918:5929  receivedETH */\n      dup4\n        /* \"Bitxchange.sol\":5918:5949  receivedETH - expectedAmountOut */\n      tag_259\n      swap2\n      swap1\n      tag_143\n      jump\t// in\n    tag_259:\n        /* \"Bitxchange.sol\":5884:5953  receivedETH > expectedAmountOut ? receivedETH - expectedAmountOut : 0 */\n    tag_258:\n        /* \"Bitxchange.sol\":5861:5953  uint256 excessAmount = receivedETH > expectedAmountOut ? receivedETH - expectedAmountOut : 0 */\n      swap1\n      pop\n        /* \"Bitxchange.sol\":6005:6021  uint256 totalFee */\n      0x00\n        /* \"Bitxchange.sol\":6121:6124  100 */\n      0x64\n        /* \"Bitxchange.sol\":6115:6117  40 */\n      0x28\n        /* \"Bitxchange.sol\":6100:6112  excessAmount */\n      dup4\n        /* \"Bitxchange.sol\":6100:6117  excessAmount * 40 */\n      tag_260\n      swap2\n      swap1\n      tag_133\n      jump\t// in\n    tag_260:\n        /* \"Bitxchange.sol\":6099:6124  (excessAmount * 40) / 100 */\n      tag_261\n      swap2\n      swap1\n      tag_135\n      jump\t// in\n    tag_261:\n        /* \"Bitxchange.sol\":6089:6094  10000 */\n      0x2710\n        /* \"Bitxchange.sol\":6072:6085  feePercentage */\n      sload(0x03)\n        /* \"Bitxchange.sol\":6056:6068  excessAmount */\n      dup5\n        /* \"Bitxchange.sol\":6042:6053  feeFreeZone */\n      dup7\n        /* \"Bitxchange.sol\":6028:6039  receivedETH */\n      dup9\n        /* \"Bitxchange.sol\":6028:6053  receivedETH - feeFreeZone */\n      tag_262\n      swap2\n      swap1\n      tag_143\n      jump\t// in\n    tag_262:\n        /* \"Bitxchange.sol\":6028:6068  receivedETH - feeFreeZone - excessAmount */\n      tag_263\n      swap2\n      swap1\n      tag_143\n      jump\t// in\n    tag_263:\n        /* \"Bitxchange.sol\":6027:6085  (receivedETH - feeFreeZone - excessAmount) * feePercentage */\n      tag_264\n      swap2\n      swap1\n      tag_133\n      jump\t// in\n    tag_264:\n        /* \"Bitxchange.sol\":6026:6094  ((receivedETH - feeFreeZone - excessAmount) * feePercentage) / 10000 */\n      tag_265\n      swap2\n      swap1\n      tag_135\n      jump\t// in\n    tag_265:\n        /* \"Bitxchange.sol\":6024:6124  ( ((receivedETH - feeFreeZone - excessAmount) * feePercentage) / 10000)  + (excessAmount * 40) / 100 */\n      tag_266\n      swap2\n      swap1\n      tag_267\n      jump\t// in\n    tag_266:\n        /* \"Bitxchange.sol\":6005:6124  uint256 totalFee = ( ((receivedETH - feeFreeZone - excessAmount) * feePercentage) / 10000)  + (excessAmount * 40) / 100 */\n      swap1\n      pop\n        /* \"Bitxchange.sol\":6222:6231  rewardPot */\n      0x02\n      0x00\n      swap1\n      sload\n      swap1\n      0x0100\n      exp\n      swap1\n      div\n      0xffffffffffffffffffffffffffffffffffffffff\n      and\n        /* \"Bitxchange.sol\":6222:6246  rewardPot.addToRewardPot */\n      0xffffffffffffffffffffffffffffffffffffffff\n      and\n      0x099da9e9\n        /* \"Bitxchange.sol\":6265:6268  100 */\n      0x64\n        /* \"Bitxchange.sol\":6259:6261  90 */\n      0x5a\n        /* \"Bitxchange.sol\":6248:6256  totalFee */\n      dup5\n        /* \"Bitxchange.sol\":6248:6261  totalFee * 90 */\n      tag_268\n      swap2\n      swap1\n      tag_133\n      jump\t// in\n    tag_268:\n        /* \"Bitxchange.sol\":6247:6268  (totalFee * 90) / 100 */\n      tag_269\n      swap2\n      swap1\n      tag_135\n      jump\t// in\n    tag_269:\n        /* \"Bitxchange.sol\":6222:6269  rewardPot.addToRewardPot((totalFee * 90) / 100) */\n      mload(0x40)\n      dup3\n      0xffffffff\n      and\n      0xe0\n      shl\n      dup2\n      mstore\n      0x04\n      add\n      tag_270\n      swap2\n      swap1\n      tag_31\n      jump\t// in\n    tag_270:\n      0x00\n      mload(0x40)\n      dup1\n      dup4\n      sub\n      dup2\n      0x00\n      dup8\n      dup1\n      extcodesize\n      iszero\n      dup1\n      iszero\n      tag_271\n      jumpi\n      0x00\n      dup1\n      revert\n    tag_271:\n      pop\n      gas\n      call\n      iszero\n      dup1\n      iszero\n      tag_273\n      jumpi\n      returndatasize\n      0x00\n      dup1\n      returndatacopy\n      revert(0x00, returndatasize)\n    tag_273:\n      pop\n      pop\n      pop\n      pop\n        /* \"Bitxchange.sol\":6407:6417  msg.sender */\n      caller\n        /* \"Bitxchange.sol\":6399:6427  payable(msg.sender).transfer */\n      0xffffffffffffffffffffffffffffffffffffffff\n      and\n        /* \"Bitxchange.sol\":6399:6451  payable(msg.sender).transfer(receivedETH - totalFee) */\n      0x08fc\n        /* \"Bitxchange.sol\":6442:6450  totalFee */\n      dup3\n        /* \"Bitxchange.sol\":6428:6439  receivedETH */\n      dup7\n        /* \"Bitxchange.sol\":6428:6450  receivedETH - totalFee */\n      tag_274\n      swap2\n      swap1\n      tag_143\n      jump\t// in\n    tag_274:\n        /* \"Bitxchange.sol\":6399:6451  payable(msg.sender).transfer(receivedETH - totalFee) */\n      swap1\n      dup2\n      iszero\n      mul\n      swap1\n      mload(0x40)\n      0x00\n      mload(0x40)\n      dup1\n      dup4\n      sub\n      dup2\n      dup6\n      dup9\n      dup9\n      call\n      swap4\n      pop\n      pop\n      pop\n      pop\n      iszero\n      dup1\n      iszero\n      tag_276\n      jumpi\n      returndatasize\n      0x00\n      dup1\n      returndatacopy\n      revert(0x00, returndatasize)\n    tag_276:\n      pop\n        /* \"Bitxchange.sol\":6484:6494  msg.sender */\n      caller\n        /* \"Bitxchange.sol\":6469:6516  SwapSuccessful(msg.sender, amount, receivedETH) */\n      0xffffffffffffffffffffffffffffffffffffffff\n      and\n      0xd0dcb5d6ccbc65558941eda1d0add99921923cc1868a41bbf8d224258a21396d\n        /* \"Bitxchange.sol\":6496:6502  amount */\n      dup13\n        /* \"Bitxchange.sol\":6504:6515  receivedETH */\n      dup7\n        /* \"Bitxchange.sol\":6469:6516  SwapSuccessful(msg.sender, amount, receivedETH) */\n      mload(0x40)\n      tag_277\n      swap3\n      swap2\n      swap1\n      tag_147\n      jump\t// in\n    tag_277:\n      mload(0x40)\n      dup1\n      swap2\n      sub\n      swap1\n      log2\n        /* \"Bitxchange.sol\":4521:6534  {... */\n      pop\n      pop\n      pop\n      pop\n      pop\n      pop\n      pop\n      pop\n      pop\n        /* \"Bitxchange.sol\":4433:6534  function swapTokensForETH(address token, uint256 amount, uint256 minAmountOut) external {... */\n      pop\n      pop\n      pop\n      jump\t// out\n        /* \"Bitxchange.sol\":1407:1515  function withdrawETH(uint256 amount) external onlyOwner {... */\n    tag_92:\n        /* \"@openzeppelin/contracts/access/Ownable.sol\":1531:1544  _checkOwner() */\n      tag_279\n        /* \"@openzeppelin/contracts/access/Ownable.sol\":1531:1542  _checkOwner */\n      tag_150\n        /* \"@openzeppelin/contracts/access/Ownable.sol\":1531:1544  _checkOwner() */\n      jump\t// in\n    tag_279:\n        /* \"Bitxchange.sol\":1482:1489  owner() */\n      tag_281\n        /* \"Bitxchange.sol\":1482:1487  owner */\n      tag_47\n        /* \"Bitxchange.sol\":1482:1489  owner() */\n      jump\t// in\n    tag_281:\n        /* \"Bitxchange.sol\":1474:1499  payable(owner()).transfer */\n      0xffffffffffffffffffffffffffffffffffffffff\n      and\n        /* \"Bitxchange.sol\":1474:1507  payable(owner()).transfer(amount) */\n      0x08fc\n        /* \"Bitxchange.sol\":1500:1506  amount */\n      dup3\n        /* \"Bitxchange.sol\":1474:1507  payable(owner()).transfer(amount) */\n      swap1\n      dup2\n      iszero\n      mul\n      swap1\n      mload(0x40)\n      0x00\n      mload(0x40)\n      dup1\n      dup4\n      sub\n      dup2\n      dup6\n      dup9\n      dup9\n      call\n      swap4\n      pop\n      pop\n      pop\n      pop\n      iszero\n      dup1\n      iszero\n      tag_283\n      jumpi\n      returndatasize\n      0x00\n      dup1\n      returndatacopy\n      revert(0x00, returndatasize)\n    tag_283:\n      pop\n        /* \"Bitxchange.sol\":1407:1515  function withdrawETH(uint256 amount) external onlyOwner {... */\n      pop\n      jump\t// out\n        /* \"@openzeppelin/contracts/access/Ownable.sol\":2543:2758  function transferOwnership(address newOwner) public virtual onlyOwner {... */\n    tag_96:\n        /* \"@openzeppelin/contracts/access/Ownable.sol\":1531:1544  _checkOwner() */\n      tag_285\n        /* \"@openzeppelin/contracts/access/Ownable.sol\":1531:1542  _checkOwner */\n      tag_150\n        /* \"@openzeppelin/contracts/access/Ownable.sol\":1531:1544  _checkOwner() */\n      jump\t// in\n    tag_285:\n        /* \"@openzeppelin/contracts/access/Ownable.sol\":2647:2648  0 */\n      0x00\n        /* \"@openzeppelin/contracts/access/Ownable.sol\":2627:2649  newOwner == address(0) */\n      0xffffffffffffffffffffffffffffffffffffffff\n      and\n        /* \"@openzeppelin/contracts/access/Ownable.sol\":2627:2635  newOwner */\n      dup2\n        /* \"@openzeppelin/contracts/access/Ownable.sol\":2627:2649  newOwner == address(0) */\n      0xffffffffffffffffffffffffffffffffffffffff\n      and\n      sub\n        /* \"@openzeppelin/contracts/access/Ownable.sol\":2623:2714  if (newOwner == address(0)) {... */\n      tag_287\n      jumpi\n        /* \"@openzeppelin/contracts/access/Ownable.sol\":2700:2701  0 */\n      0x00\n        /* \"@openzeppelin/contracts/access/Ownable.sol\":2672:2703  OwnableInvalidOwner(address(0)) */\n      mload(0x40)\n      0x1e4fbdf700000000000000000000000000000000000000000000000000000000\n      dup2\n      mstore\n      0x04\n      add\n      tag_288\n      swap2\n      swap1\n      tag_49\n      jump\t// in\n    tag_288:\n      mload(0x40)\n      dup1\n      swap2\n      sub\n      swap1\n      revert\n        /* \"@openzeppelin/contracts/access/Ownable.sol\":2623:2714  if (newOwner == address(0)) {... */\n    tag_287:\n        /* \"@openzeppelin/contracts/access/Ownable.sol\":2723:2751  _transferOwnership(newOwner) */\n      tag_289\n        /* \"@openzeppelin/contracts/access/Ownable.sol\":2742:2750  newOwner */\n      dup2\n        /* \"@openzeppelin/contracts/access/Ownable.sol\":2723:2741  _transferOwnership */\n      tag_160\n        /* \"@openzeppelin/contracts/access/Ownable.sol\":2723:2751  _transferOwnership(newOwner) */\n      jump\t// in\n    tag_289:\n        /* \"@openzeppelin/contracts/access/Ownable.sol\":2543:2758  function transferOwnership(address newOwner) public virtual onlyOwner {... */\n      pop\n      jump\t// out\n        /* \"Bitxchange.sol\":1327:1368  function depositETH() external payable {} */\n    tag_98:\n      jump\t// out\n        /* \"@openzeppelin/contracts/access/Ownable.sol\":1796:1958  function _checkOwner() internal view virtual {... */\n    tag_150:\n        /* \"@openzeppelin/contracts/access/Ownable.sol\":1866:1878  _msgSender() */\n      tag_292\n        /* \"@openzeppelin/contracts/access/Ownable.sol\":1866:1876  _msgSender */\n      tag_293\n        /* \"@openzeppelin/contracts/access/Ownable.sol\":1866:1878  _msgSender() */\n      jump\t// in\n    tag_292:\n        /* \"@openzeppelin/contracts/access/Ownable.sol\":1855:1878  owner() != _msgSender() */\n      0xffffffffffffffffffffffffffffffffffffffff\n      and\n        /* \"@openzeppelin/contracts/access/Ownable.sol\":1855:1862  owner() */\n      tag_294\n        /* \"@openzeppelin/contracts/access/Ownable.sol\":1855:1860  owner */\n      tag_47\n        /* \"@openzeppelin/contracts/access/Ownable.sol\":1855:1862  owner() */\n      jump\t// in\n    tag_294:\n        /* \"@openzeppelin/contracts/access/Ownable.sol\":1855:1878  owner() != _msgSender() */\n      0xffffffffffffffffffffffffffffffffffffffff\n      and\n      eq\n        /* \"@openzeppelin/contracts/access/Ownable.sol\":1851:1952  if (owner() != _msgSender()) {... */\n      tag_295\n      jumpi\n        /* \"@openzeppelin/contracts/access/Ownable.sol\":1928:1940  _msgSender() */\n      tag_296\n        /* \"@openzeppelin/contracts/access/Ownable.sol\":1928:1938  _msgSender */\n      tag_293\n        /* \"@openzeppelin/contracts/access/Ownable.sol\":1928:1940  _msgSender() */\n      jump\t// in\n    tag_296:\n        /* \"@openzeppelin/contracts/access/Ownable.sol\":1901:1941  OwnableUnauthorizedAccount(_msgSender()) */\n      mload(0x40)\n      0x118cdaa700000000000000000000000000000000000000000000000000000000\n      dup2\n      mstore\n      0x04\n      add\n      tag_297\n      swap2\n      swap1\n      tag_49\n      jump\t// in\n    tag_297:\n      mload(0x40)\n      dup1\n      swap2\n      sub\n      swap1\n      revert\n        /* \"@openzeppelin/contracts/access/Ownable.sol\":1851:1952  if (owner() != _msgSender()) {... */\n    tag_295:\n        /* \"@openzeppelin/contracts/access/Ownable.sol\":1796:1958  function _checkOwner() internal view virtual {... */\n      jump\t// out\n        /* \"@openzeppelin/contracts/access/Ownable.sol\":2912:3099  function _transferOwnership(address newOwner) internal virtual {... */\n    tag_160:\n        /* \"@openzeppelin/contracts/access/Ownable.sol\":2985:3001  address oldOwner */\n      0x00\n        /* \"@openzeppelin/contracts/access/Ownable.sol\":3004:3010  _owner */\n      dup1\n      0x00\n      swap1\n      sload\n      swap1\n      0x0100\n      exp\n      swap1\n      div\n      0xffffffffffffffffffffffffffffffffffffffff\n      and\n        /* \"@openzeppelin/contracts/access/Ownable.sol\":2985:3010  address oldOwner = _owner */\n      swap1\n      pop\n        /* \"@openzeppelin/contracts/access/Ownable.sol\":3029:3037  newOwner */\n      dup2\n        /* \"@openzeppelin/contracts/access/Ownable.sol\":3020:3026  _owner */\n      0x00\n      dup1\n        /* \"@openzeppelin/contracts/access/Ownable.sol\":3020:3037  _owner = newOwner */\n      0x0100\n      exp\n      dup2\n      sload\n      dup2\n      0xffffffffffffffffffffffffffffffffffffffff\n      mul\n      not\n      and\n      swap1\n      dup4\n      0xffffffffffffffffffffffffffffffffffffffff\n      and\n      mul\n      or\n      swap1\n      sstore\n      pop\n        /* \"@openzeppelin/contracts/access/Ownable.sol\":3083:3091  newOwner */\n      dup2\n        /* \"@openzeppelin/contracts/access/Ownable.sol\":3052:3092  OwnershipTransferred(oldOwner, newOwner) */\n      0xffffffffffffffffffffffffffffffffffffffff\n      and\n        /* \"@openzeppelin/contracts/access/Ownable.sol\":3073:3081  oldOwner */\n      dup2\n        /* \"@openzeppelin/contracts/access/Ownable.sol\":3052:3092  OwnershipTransferred(oldOwner, newOwner) */\n      0xffffffffffffffffffffffffffffffffffffffff\n      and\n      0x8be0079c531659141344cd1fd0a4f28419497f9722a3daafe3b4186f6b6457e0\n      mload(0x40)\n      mload(0x40)\n      dup1\n      swap2\n      sub\n      swap1\n      log3\n        /* \"@openzeppelin/contracts/access/Ownable.sol\":2975:3099  {... */\n      pop\n        /* \"@openzeppelin/contracts/access/Ownable.sol\":2912:3099  function _transferOwnership(address newOwner) internal virtual {... */\n      pop\n      jump\t// out\n        /* \"Bitxchange.sol\":2268:2592  function tryGetAmountsOut(uint amountIn, address[] memory path) internal view returns (bool success, uint256 amountOut) {... */\n    tag_177:\n        /* \"Bitxchange.sol\":2355:2367  bool success */\n      0x00\n        /* \"Bitxchange.sol\":2369:2386  uint256 amountOut */\n      dup1\n        /* \"Bitxchange.sol\":2403:2416  uniswapRouter */\n      0x01\n      0x00\n      swap1\n      sload\n      swap1\n      0x0100\n      exp\n      swap1\n      div\n      0xffffffffffffffffffffffffffffffffffffffff\n      and\n        /* \"Bitxchange.sol\":2403:2430  uniswapRouter.getAmountsOut */\n      0xffffffffffffffffffffffffffffffffffffffff\n      and\n      0xd06ca61f\n        /* \"Bitxchange.sol\":2431:2439  amountIn */\n      dup6\n        /* \"Bitxchange.sol\":2441:2445  path */\n      dup6\n        /* \"Bitxchange.sol\":2403:2446  uniswapRouter.getAmountsOut(amountIn, path) */\n      mload(0x40)\n      dup4\n      0xffffffff\n      and\n      0xe0\n      shl\n      dup2\n      mstore\n      0x04\n      add\n      tag_300\n      swap3\n      swap2\n      swap1\n      tag_231\n      jump\t// in\n    tag_300:\n      0x00\n      mload(0x40)\n      dup1\n      dup4\n      sub\n      dup2\n      dup7\n      gas\n      staticcall\n      swap3\n      pop\n      pop\n      pop\n      dup1\n      iszero\n      tag_301\n      jumpi\n      pop\n      mload(0x40)\n      returndatasize\n      0x00\n      dup3\n      returndatacopy\n      returndatasize\n      not(0x1f)\n      0x1f\n      dup3\n      add\n      and\n      dup3\n      add\n      dup1\n      0x40\n      mstore\n      pop\n      dup2\n      add\n      swap1\n      tag_302\n      swap2\n      swap1\n      tag_129\n      jump\t// in\n    tag_302:\n      0x01\n    tag_301:\n        /* \"Bitxchange.sol\":2399:2585  try uniswapRouter.getAmountsOut(amountIn, path) returns (uint256[] memory amounts) {... */\n      tag_303\n      jumpi\n        /* \"Bitxchange.sol\":2564:2569  false */\n      0x00\n        /* \"Bitxchange.sol\":2571:2572  0 */\n      dup1\n        /* \"Bitxchange.sol\":2556:2573  return (false, 0) */\n      swap2\n      pop\n      swap2\n      pop\n      jump(tag_299)\n        /* \"Bitxchange.sol\":2399:2585  try uniswapRouter.getAmountsOut(amountIn, path) returns (uint256[] memory amounts) {... */\n    tag_303:\n        /* \"Bitxchange.sol\":2505:2509  true */\n      0x01\n        /* \"Bitxchange.sol\":2511:2518  amounts */\n      dup2\n        /* \"Bitxchange.sol\":2519:2520  1 */\n      0x01\n        /* \"Bitxchange.sol\":2511:2521  amounts[1] */\n      dup2\n      mload\n      dup2\n      lt\n      tag_308\n      jumpi\n      tag_309\n      tag_117\n      jump\t// in\n    tag_309:\n    tag_308:\n      0x20\n      mul\n      0x20\n      add\n      add\n      mload\n        /* \"Bitxchange.sol\":2497:2522  return (true, amounts[1]) */\n      swap3\n      pop\n      swap3\n      pop\n      pop\n        /* \"Bitxchange.sol\":2268:2592  function tryGetAmountsOut(uint amountIn, address[] memory path) internal view returns (bool success, uint256 amountOut) {... */\n    tag_299:\n      swap3\n      pop\n      swap3\n      swap1\n      pop\n      jump\t// out\n        /* \"@openzeppelin/contracts/utils/Context.sol\":656:752  function _msgSender() internal view virtual returns (address) {... */\n    tag_293:\n        /* \"@openzeppelin/contracts/utils/Context.sol\":709:716  address */\n      0x00\n        /* \"@openzeppelin/contracts/utils/Context.sol\":735:745  msg.sender */\n      caller\n        /* \"@openzeppelin/contracts/utils/Context.sol\":728:745  return msg.sender */\n      swap1\n      pop\n        /* \"@openzeppelin/contracts/utils/Context.sol\":656:752  function _msgSender() internal view virtual returns (address) {... */\n      swap1\n      jump\t// out\n        /* \"#utility.yul\":7:82   */\n    tag_311:\n        /* \"#utility.yul\":40:46   */\n      0x00\n        /* \"#utility.yul\":73:75   */\n      0x40\n        /* \"#utility.yul\":67:76   */\n      mload\n        /* \"#utility.yul\":57:76   */\n      swap1\n      pop\n        /* \"#utility.yul\":7:82   */\n      swap1\n      jump\t// out\n        /* \"#utility.yul\":88:205   */\n    tag_312:\n        /* \"#utility.yul\":197:198   */\n      0x00\n        /* \"#utility.yul\":194:195   */\n      dup1\n        /* \"#utility.yul\":187:199   */\n      revert\n        /* \"#utility.yul\":211:328   */\n    tag_313:\n        /* \"#utility.yul\":320:321   */\n      0x00\n        /* \"#utility.yul\":317:318   */\n      dup1\n        /* \"#utility.yul\":310:322   */\n      revert\n        /* \"#utility.yul\":334:460   */\n    tag_314:\n        /* \"#utility.yul\":371:378   */\n      0x00\n        /* \"#utility.yul\":411:453   */\n      0xffffffffffffffffffffffffffffffffffffffff\n        /* \"#utility.yul\":404:409   */\n      dup3\n        /* \"#utility.yul\":400:454   */\n      and\n        /* \"#utility.yul\":389:454   */\n      swap1\n      pop\n        /* \"#utility.yul\":334:460   */\n      swap2\n      swap1\n      pop\n      jump\t// out\n        /* \"#utility.yul\":466:562   */\n    tag_315:\n        /* \"#utility.yul\":503:510   */\n      0x00\n        /* \"#utility.yul\":532:556   */\n      tag_370\n        /* \"#utility.yul\":550:555   */\n      dup3\n        /* \"#utility.yul\":532:556   */\n      tag_314\n      jump\t// in\n    tag_370:\n        /* \"#utility.yul\":521:556   */\n      swap1\n      pop\n        /* \"#utility.yul\":466:562   */\n      swap2\n      swap1\n      pop\n      jump\t// out\n        /* \"#utility.yul\":568:690   */\n    tag_316:\n        /* \"#utility.yul\":641:665   */\n      tag_372\n        /* \"#utility.yul\":659:664   */\n      dup2\n        /* \"#utility.yul\":641:665   */\n      tag_315\n      jump\t// in\n    tag_372:\n        /* \"#utility.yul\":634:639   */\n      dup2\n        /* \"#utility.yul\":631:666   */\n      eq\n        /* \"#utility.yul\":621:684   */\n      tag_373\n      jumpi\n        /* \"#utility.yul\":680:681   */\n      0x00\n        /* \"#utility.yul\":677:678   */\n      dup1\n        /* \"#utility.yul\":670:682   */\n      revert\n        /* \"#utility.yul\":621:684   */\n    tag_373:\n        /* \"#utility.yul\":568:690   */\n      pop\n      jump\t// out\n        /* \"#utility.yul\":696:835   */\n    tag_317:\n        /* \"#utility.yul\":742:747   */\n      0x00\n        /* \"#utility.yul\":780:786   */\n      dup2\n        /* \"#utility.yul\":767:787   */\n      calldataload\n        /* \"#utility.yul\":758:787   */\n      swap1\n      pop\n        /* \"#utility.yul\":796:829   */\n      tag_375\n        /* \"#utility.yul\":823:828   */\n      dup2\n        /* \"#utility.yul\":796:829   */\n      tag_316\n      jump\t// in\n    tag_375:\n        /* \"#utility.yul\":696:835   */\n      swap3\n      swap2\n      pop\n      pop\n      jump\t// out\n        /* \"#utility.yul\":841:918   */\n    tag_318:\n        /* \"#utility.yul\":878:885   */\n      0x00\n        /* \"#utility.yul\":907:912   */\n      dup2\n        /* \"#utility.yul\":896:912   */\n      swap1\n      pop\n        /* \"#utility.yul\":841:918   */\n      swap2\n      swap1\n      pop\n      jump\t// out\n        /* \"#utility.yul\":924:1046   */\n    tag_319:\n        /* \"#utility.yul\":997:1021   */\n      tag_378\n        /* \"#utility.yul\":1015:1020   */\n      dup2\n        /* \"#utility.yul\":997:1021   */\n      tag_318\n      jump\t// in\n    tag_378:\n        /* \"#utility.yul\":990:995   */\n      dup2\n        /* \"#utility.yul\":987:1022   */\n      eq\n        /* \"#utility.yul\":977:1040   */\n      tag_379\n      jumpi\n        /* \"#utility.yul\":1036:1037   */\n      0x00\n        /* \"#utility.yul\":1033:1034   */\n      dup1\n        /* \"#utility.yul\":1026:1038   */\n      revert\n        /* \"#utility.yul\":977:1040   */\n    tag_379:\n        /* \"#utility.yul\":924:1046   */\n      pop\n      jump\t// out\n        /* \"#utility.yul\":1052:1191   */\n    tag_320:\n        /* \"#utility.yul\":1098:1103   */\n      0x00\n        /* \"#utility.yul\":1136:1142   */\n      dup2\n        /* \"#utility.yul\":1123:1143   */\n      calldataload\n        /* \"#utility.yul\":1114:1143   */\n      swap1\n      pop\n        /* \"#utility.yul\":1152:1185   */\n      tag_381\n        /* \"#utility.yul\":1179:1184   */\n      dup2\n        /* \"#utility.yul\":1152:1185   */\n      tag_319\n      jump\t// in\n    tag_381:\n        /* \"#utility.yul\":1052:1191   */\n      swap3\n      swap2\n      pop\n      pop\n      jump\t// out\n        /* \"#utility.yul\":1197:1816   */\n    tag_25:\n        /* \"#utility.yul\":1274:1280   */\n      0x00\n        /* \"#utility.yul\":1282:1288   */\n      dup1\n        /* \"#utility.yul\":1290:1296   */\n      0x00\n        /* \"#utility.yul\":1339:1341   */\n      0x60\n        /* \"#utility.yul\":1327:1336   */\n      dup5\n        /* \"#utility.yul\":1318:1325   */\n      dup7\n        /* \"#utility.yul\":1314:1337   */\n      sub\n        /* \"#utility.yul\":1310:1342   */\n      slt\n        /* \"#utility.yul\":1307:1426   */\n      iszero\n      tag_383\n      jumpi\n        /* \"#utility.yul\":1345:1424   */\n      tag_384\n      tag_312\n      jump\t// in\n    tag_384:\n        /* \"#utility.yul\":1307:1426   */\n    tag_383:\n        /* \"#utility.yul\":1465:1466   */\n      0x00\n        /* \"#utility.yul\":1490:1543   */\n      tag_385\n        /* \"#utility.yul\":1535:1542   */\n      dup7\n        /* \"#utility.yul\":1526:1532   */\n      dup3\n        /* \"#utility.yul\":1515:1524   */\n      dup8\n        /* \"#utility.yul\":1511:1533   */\n      add\n        /* \"#utility.yul\":1490:1543   */\n      tag_317\n      jump\t// in\n    tag_385:\n        /* \"#utility.yul\":1480:1543   */\n      swap4\n      pop\n        /* \"#utility.yul\":1436:1553   */\n      pop\n        /* \"#utility.yul\":1592:1594   */\n      0x20\n        /* \"#utility.yul\":1618:1671   */\n      tag_386\n        /* \"#utility.yul\":1663:1670   */\n      dup7\n        /* \"#utility.yul\":1654:1660   */\n      dup3\n        /* \"#utility.yul\":1643:1652   */\n      dup8\n        /* \"#utility.yul\":1639:1661   */\n      add\n        /* \"#utility.yul\":1618:1671   */\n      tag_320\n      jump\t// in\n    tag_386:\n        /* \"#utility.yul\":1608:1671   */\n      swap3\n      pop\n        /* \"#utility.yul\":1563:1681   */\n      pop\n        /* \"#utility.yul\":1720:1722   */\n      0x40\n        /* \"#utility.yul\":1746:1799   */\n      tag_387\n        /* \"#utility.yul\":1791:1798   */\n      dup7\n        /* \"#utility.yul\":1782:1788   */\n      dup3\n        /* \"#utility.yul\":1771:1780   */\n      dup8\n        /* \"#utility.yul\":1767:1789   */\n      add\n        /* \"#utility.yul\":1746:1799   */\n      tag_320\n      jump\t// in\n    tag_387:\n        /* \"#utility.yul\":1736:1799   */\n      swap2\n      pop\n        /* \"#utility.yul\":1691:1809   */\n      pop\n        /* \"#utility.yul\":1197:1816   */\n      swap3\n      pop\n      swap3\n      pop\n      swap3\n      jump\t// out\n        /* \"#utility.yul\":1822:1940   */\n    tag_321:\n        /* \"#utility.yul\":1909:1933   */\n      tag_389\n        /* \"#utility.yul\":1927:1932   */\n      dup2\n        /* \"#utility.yul\":1909:1933   */\n      tag_318\n      jump\t// in\n    tag_389:\n        /* \"#utility.yul\":1904:1907   */\n      dup3\n        /* \"#utility.yul\":1897:1934   */\n      mstore\n        /* \"#utility.yul\":1822:1940   */\n      pop\n      pop\n      jump\t// out\n        /* \"#utility.yul\":1946:2168   */\n    tag_31:\n        /* \"#utility.yul\":2039:2043   */\n      0x00\n        /* \"#utility.yul\":2077:2079   */\n      0x20\n        /* \"#utility.yul\":2066:2075   */\n      dup3\n        /* \"#utility.yul\":2062:2080   */\n      add\n        /* \"#utility.yul\":2054:2080   */\n      swap1\n      pop\n        /* \"#utility.yul\":2090:2161   */\n      tag_391\n        /* \"#utility.yul\":2158:2159   */\n      0x00\n        /* \"#utility.yul\":2147:2156   */\n      dup4\n        /* \"#utility.yul\":2143:2160   */\n      add\n        /* \"#utility.yul\":2134:2140   */\n      dup5\n        /* \"#utility.yul\":2090:2161   */\n      tag_321\n      jump\t// in\n    tag_391:\n        /* \"#utility.yul\":1946:2168   */\n      swap3\n      swap2\n      pop\n      pop\n      jump\t// out\n        /* \"#utility.yul\":2174:2503   */\n    tag_35:\n        /* \"#utility.yul\":2233:2239   */\n      0x00\n        /* \"#utility.yul\":2282:2284   */\n      0x20\n        /* \"#utility.yul\":2270:2279   */\n      dup3\n        /* \"#utility.yul\":2261:2268   */\n      dup5\n        /* \"#utility.yul\":2257:2280   */\n      sub\n        /* \"#utility.yul\":2253:2285   */\n      slt\n        /* \"#utility.yul\":2250:2369   */\n      iszero\n      tag_393\n      jumpi\n        /* \"#utility.yul\":2288:2367   */\n      tag_394\n      tag_312\n      jump\t// in\n    tag_394:\n        /* \"#utility.yul\":2250:2369   */\n    tag_393:\n        /* \"#utility.yul\":2408:2409   */\n      0x00\n        /* \"#utility.yul\":2433:2486   */\n      tag_395\n        /* \"#utility.yul\":2478:2485   */\n      dup5\n        /* \"#utility.yul\":2469:2475   */\n      dup3\n        /* \"#utility.yul\":2458:2467   */\n      dup6\n        /* \"#utility.yul\":2454:2476   */\n      add\n        /* \"#utility.yul\":2433:2486   */\n      tag_317\n      jump\t// in\n    tag_395:\n        /* \"#utility.yul\":2423:2486   */\n      swap2\n      pop\n        /* \"#utility.yul\":2379:2496   */\n      pop\n        /* \"#utility.yul\":2174:2503   */\n      swap3\n      swap2\n      pop\n      pop\n      jump\t// out\n        /* \"#utility.yul\":2509:2569   */\n    tag_322:\n        /* \"#utility.yul\":2537:2540   */\n      0x00\n        /* \"#utility.yul\":2558:2563   */\n      dup2\n        /* \"#utility.yul\":2551:2563   */\n      swap1\n      pop\n        /* \"#utility.yul\":2509:2569   */\n      swap2\n      swap1\n      pop\n      jump\t// out\n        /* \"#utility.yul\":2575:2717   */\n    tag_323:\n        /* \"#utility.yul\":2625:2634   */\n      0x00\n        /* \"#utility.yul\":2658:2711   */\n      tag_398\n        /* \"#utility.yul\":2676:2710   */\n      tag_399\n        /* \"#utility.yul\":2685:2709   */\n      tag_400\n        /* \"#utility.yul\":2703:2708   */\n      dup5\n        /* \"#utility.yul\":2685:2709   */\n      tag_314\n      jump\t// in\n    tag_400:\n        /* \"#utility.yul\":2676:2710   */\n      tag_322\n      jump\t// in\n    tag_399:\n        /* \"#utility.yul\":2658:2711   */\n      tag_314\n      jump\t// in\n    tag_398:\n        /* \"#utility.yul\":2645:2711   */\n      swap1\n      pop\n        /* \"#utility.yul\":2575:2717   */\n      swap2\n      swap1\n      pop\n      jump\t// out\n        /* \"#utility.yul\":2723:2849   */\n    tag_324:\n        /* \"#utility.yul\":2773:2782   */\n      0x00\n        /* \"#utility.yul\":2806:2843   */\n      tag_402\n        /* \"#utility.yul\":2837:2842   */\n      dup3\n        /* \"#utility.yul\":2806:2843   */\n      tag_323\n      jump\t// in\n    tag_402:\n        /* \"#utility.yul\":2793:2843   */\n      swap1\n      pop\n        /* \"#utility.yul\":2723:2849   */\n      swap2\n      swap1\n      pop\n      jump\t// out\n        /* \"#utility.yul\":2855:3007   */\n    tag_325:\n        /* \"#utility.yul\":2931:2940   */\n      0x00\n        /* \"#utility.yul\":2964:3001   */\n      tag_404\n        /* \"#utility.yul\":2995:3000   */\n      dup3\n        /* \"#utility.yul\":2964:3001   */\n      tag_324\n      jump\t// in\n    tag_404:\n        /* \"#utility.yul\":2951:3001   */\n      swap1\n      pop\n        /* \"#utility.yul\":2855:3007   */\n      swap2\n      swap1\n      pop\n      jump\t// out\n        /* \"#utility.yul\":3013:3196   */\n    tag_326:\n        /* \"#utility.yul\":3126:3189   */\n      tag_406\n        /* \"#utility.yul\":3183:3188   */\n      dup2\n        /* \"#utility.yul\":3126:3189   */\n      tag_325\n      jump\t// in\n    tag_406:\n        /* \"#utility.yul\":3121:3124   */\n      dup3\n        /* \"#utility.yul\":3114:3190   */\n      mstore\n        /* \"#utility.yul\":3013:3196   */\n      pop\n      pop\n      jump\t// out\n        /* \"#utility.yul\":3202:3476   */\n    tag_44:\n        /* \"#utility.yul\":3321:3325   */\n      0x00\n        /* \"#utility.yul\":3359:3361   */\n      0x20\n        /* \"#utility.yul\":3348:3357   */\n      dup3\n        /* \"#utility.yul\":3344:3362   */\n      add\n        /* \"#utility.yul\":3336:3362   */\n      swap1\n      pop\n        /* \"#utility.yul\":3372:3469   */\n      tag_408\n        /* \"#utility.yul\":3466:3467   */\n      0x00\n        /* \"#utility.yul\":3455:3464   */\n      dup4\n        /* \"#utility.yul\":3451:3468   */\n      add\n        /* \"#utility.yul\":3442:3448   */\n      dup5\n        /* \"#utility.yul\":3372:3469   */\n      tag_326\n      jump\t// in\n    tag_408:\n        /* \"#utility.yul\":3202:3476   */\n      swap3\n      swap2\n      pop\n      pop\n      jump\t// out\n        /* \"#utility.yul\":3482:3600   */\n    tag_327:\n        /* \"#utility.yul\":3569:3593   */\n      tag_410\n        /* \"#utility.yul\":3587:3592   */\n      dup2\n        /* \"#utility.yul\":3569:3593   */\n      tag_315\n      jump\t// in\n    tag_410:\n        /* \"#utility.yul\":3564:3567   */\n      dup3\n        /* \"#utility.yul\":3557:3594   */\n      mstore\n        /* \"#utility.yul\":3482:3600   */\n      pop\n      pop\n      jump\t// out\n        /* \"#utility.yul\":3606:3828   */\n    tag_49:\n        /* \"#utility.yul\":3699:3703   */\n      0x00\n        /* \"#utility.yul\":3737:3739   */\n      0x20\n        /* \"#utility.yul\":3726:3735   */\n      dup3\n        /* \"#utility.yul\":3722:3740   */\n      add\n        /* \"#utility.yul\":3714:3740   */\n      swap1\n      pop\n        /* \"#utility.yul\":3750:3821   */\n      tag_412\n        /* \"#utility.yul\":3818:3819   */\n      0x00\n        /* \"#utility.yul\":3807:3816   */\n      dup4\n        /* \"#utility.yul\":3803:3820   */\n      add\n        /* \"#utility.yul\":3794:3800   */\n      dup5\n        /* \"#utility.yul\":3750:3821   */\n      tag_327\n      jump\t// in\n    tag_412:\n        /* \"#utility.yul\":3606:3828   */\n      swap3\n      swap2\n      pop\n      pop\n      jump\t// out\n        /* \"#utility.yul\":3834:3978   */\n    tag_328:\n        /* \"#utility.yul\":3902:3911   */\n      0x00\n        /* \"#utility.yul\":3935:3972   */\n      tag_414\n        /* \"#utility.yul\":3966:3971   */\n      dup3\n        /* \"#utility.yul\":3935:3972   */\n      tag_324\n      jump\t// in\n    tag_414:\n        /* \"#utility.yul\":3922:3972   */\n      swap1\n      pop\n        /* \"#utility.yul\":3834:3978   */\n      swap2\n      swap1\n      pop\n      jump\t// out\n        /* \"#utility.yul\":3984:4151   */\n    tag_329:\n        /* \"#utility.yul\":4089:4144   */\n      tag_416\n        /* \"#utility.yul\":4138:4143   */\n      dup2\n        /* \"#utility.yul\":4089:4144   */\n      tag_328\n      jump\t// in\n    tag_416:\n        /* \"#utility.yul\":4084:4087   */\n      dup3\n        /* \"#utility.yul\":4077:4145   */\n      mstore\n        /* \"#utility.yul\":3984:4151   */\n      pop\n      pop\n      jump\t// out\n        /* \"#utility.yul\":4157:4415   */\n    tag_54:\n        /* \"#utility.yul\":4268:4272   */\n      0x00\n        /* \"#utility.yul\":4306:4308   */\n      0x20\n        /* \"#utility.yul\":4295:4304   */\n      dup3\n        /* \"#utility.yul\":4291:4309   */\n      add\n        /* \"#utility.yul\":4283:4309   */\n      swap1\n      pop\n        /* \"#utility.yul\":4319:4408   */\n      tag_418\n        /* \"#utility.yul\":4405:4406   */\n      0x00\n        /* \"#utility.yul\":4394:4403   */\n      dup4\n        /* \"#utility.yul\":4390:4407   */\n      add\n        /* \"#utility.yul\":4381:4387   */\n      dup5\n        /* \"#utility.yul\":4319:4408   */\n      tag_329\n      jump\t// in\n    tag_418:\n        /* \"#utility.yul\":4157:4415   */\n      swap3\n      swap2\n      pop\n      pop\n      jump\t// out\n        /* \"#utility.yul\":4421:4750   */\n    tag_58:\n        /* \"#utility.yul\":4480:4486   */\n      0x00\n        /* \"#utility.yul\":4529:4531   */\n      0x20\n        /* \"#utility.yul\":4517:4526   */\n      dup3\n        /* \"#utility.yul\":4508:4515   */\n      dup5\n        /* \"#utility.yul\":4504:4527   */\n      sub\n        /* \"#utility.yul\":4500:4532   */\n      slt\n        /* \"#utility.yul\":4497:4616   */\n      iszero\n      tag_420\n      jumpi\n        /* \"#utility.yul\":4535:4614   */\n      tag_421\n      tag_312\n      jump\t// in\n    tag_421:\n        /* \"#utility.yul\":4497:4616   */\n    tag_420:\n        /* \"#utility.yul\":4655:4656   */\n      0x00\n        /* \"#utility.yul\":4680:4733   */\n      tag_422\n        /* \"#utility.yul\":4725:4732   */\n      dup5\n        /* \"#utility.yul\":4716:4722   */\n      dup3\n        /* \"#utility.yul\":4705:4714   */\n      dup6\n        /* \"#utility.yul\":4701:4723   */\n      add\n        /* \"#utility.yul\":4680:4733   */\n      tag_320\n      jump\t// in\n    tag_422:\n        /* \"#utility.yul\":4670:4733   */\n      swap2\n      pop\n        /* \"#utility.yul\":4626:4743   */\n      pop\n        /* \"#utility.yul\":4421:4750   */\n      swap3\n      swap2\n      pop\n      pop\n      jump\t// out\n        /* \"#utility.yul\":4756:5521   */\n    tag_67:\n        /* \"#utility.yul\":4842:4848   */\n      0x00\n        /* \"#utility.yul\":4850:4856   */\n      dup1\n        /* \"#utility.yul\":4858:4864   */\n      0x00\n        /* \"#utility.yul\":4866:4872   */\n      dup1\n        /* \"#utility.yul\":4915:4918   */\n      0x80\n        /* \"#utility.yul\":4903:4912   */\n      dup6\n        /* \"#utility.yul\":4894:4901   */\n      dup8\n        /* \"#utility.yul\":4890:4913   */\n      sub\n        /* \"#utility.yul\":4886:4919   */\n      slt\n        /* \"#utility.yul\":4883:5003   */\n      iszero\n      tag_424\n      jumpi\n        /* \"#utility.yul\":4922:5001   */\n      tag_425\n      tag_312\n      jump\t// in\n    tag_425:\n        /* \"#utility.yul\":4883:5003   */\n    tag_424:\n        /* \"#utility.yul\":5042:5043   */\n      0x00\n        /* \"#utility.yul\":5067:5120   */\n      tag_426\n        /* \"#utility.yul\":5112:5119   */\n      dup8\n        /* \"#utility.yul\":5103:5109   */\n      dup3\n        /* \"#utility.yul\":5092:5101   */\n      dup9\n        /* \"#utility.yul\":5088:5110   */\n      add\n        /* \"#utility.yul\":5067:5120   */\n      tag_317\n      jump\t// in\n    tag_426:\n        /* \"#utility.yul\":5057:5120   */\n      swap5\n      pop\n        /* \"#utility.yul\":5013:5130   */\n      pop\n        /* \"#utility.yul\":5169:5171   */\n      0x20\n        /* \"#utility.yul\":5195:5248   */\n      tag_427\n        /* \"#utility.yul\":5240:5247   */\n      dup8\n        /* \"#utility.yul\":5231:5237   */\n      dup3\n        /* \"#utility.yul\":5220:5229   */\n      dup9\n        /* \"#utility.yul\":5216:5238   */\n      add\n        /* \"#utility.yul\":5195:5248   */\n      tag_320\n      jump\t// in\n    tag_427:\n        /* \"#utility.yul\":5185:5248   */\n      swap4\n      pop\n        /* \"#utility.yul\":5140:5258   */\n      pop\n        /* \"#utility.yul\":5297:5299   */\n      0x40\n        /* \"#utility.yul\":5323:5376   */\n      tag_428\n        /* \"#utility.yul\":5368:5375   */\n      dup8\n        /* \"#utility.yul\":5359:5365   */\n      dup3\n        /* \"#utility.yul\":5348:5357   */\n      dup9\n        /* \"#utility.yul\":5344:5366   */\n      add\n        /* \"#utility.yul\":5323:5376   */\n      tag_320\n      jump\t// in\n    tag_428:\n        /* \"#utility.yul\":5313:5376   */\n      swap3\n      pop\n        /* \"#utility.yul\":5268:5386   */\n      pop\n        /* \"#utility.yul\":5425:5427   */\n      0x60\n        /* \"#utility.yul\":5451:5504   */\n      tag_429\n        /* \"#utility.yul\":5496:5503   */\n      dup8\n        /* \"#utility.yul\":5487:5493   */\n      dup3\n        /* \"#utility.yul\":5476:5485   */\n      dup9\n        /* \"#utility.yul\":5472:5494   */\n      add\n        /* \"#utility.yul\":5451:5504   */\n      tag_320\n      jump\t// in\n    tag_429:\n        /* \"#utility.yul\":5441:5504   */\n      swap2\n      pop\n        /* \"#utility.yul\":5396:5514   */\n      pop\n        /* \"#utility.yul\":4756:5521   */\n      swap3\n      swap6\n      swap2\n      swap5\n      pop\n      swap3\n      pop\n      jump\t// out\n        /* \"#utility.yul\":5527:5617   */\n    tag_330:\n        /* \"#utility.yul\":5561:5568   */\n      0x00\n        /* \"#utility.yul\":5604:5609   */\n      dup2\n        /* \"#utility.yul\":5597:5610   */\n      iszero\n        /* \"#utility.yul\":5590:5611   */\n      iszero\n        /* \"#utility.yul\":5579:5611   */\n      swap1\n      pop\n        /* \"#utility.yul\":5527:5617   */\n      swap2\n      swap1\n      pop\n      jump\t// out\n        /* \"#utility.yul\":5623:5732   */\n    tag_331:\n        /* \"#utility.yul\":5704:5725   */\n      tag_432\n        /* \"#utility.yul\":5719:5724   */\n      dup2\n        /* \"#utility.yul\":5704:5725   */\n      tag_330\n      jump\t// in\n    tag_432:\n        /* \"#utility.yul\":5699:5702   */\n      dup3\n        /* \"#utility.yul\":5692:5726   */\n      mstore\n        /* \"#utility.yul\":5623:5732   */\n      pop\n      pop\n      jump\t// out\n        /* \"#utility.yul\":5738:6168   */\n    tag_70:\n        /* \"#utility.yul\":5881:5885   */\n      0x00\n        /* \"#utility.yul\":5919:5921   */\n      0x60\n        /* \"#utility.yul\":5908:5917   */\n      dup3\n        /* \"#utility.yul\":5904:5922   */\n      add\n        /* \"#utility.yul\":5896:5922   */\n      swap1\n      pop\n        /* \"#utility.yul\":5932:6003   */\n      tag_434\n        /* \"#utility.yul\":6000:6001   */\n      0x00\n        /* \"#utility.yul\":5989:5998   */\n      dup4\n        /* \"#utility.yul\":5985:6002   */\n      add\n        /* \"#utility.yul\":5976:5982   */\n      dup7\n        /* \"#utility.yul\":5932:6003   */\n      tag_321\n      jump\t// in\n    tag_434:\n        /* \"#utility.yul\":6013:6085   */\n      tag_435\n        /* \"#utility.yul\":6081:6083   */\n      0x20\n        /* \"#utility.yul\":6070:6079   */\n      dup4\n        /* \"#utility.yul\":6066:6084   */\n      add\n        /* \"#utility.yul\":6057:6063   */\n      dup6\n        /* \"#utility.yul\":6013:6085   */\n      tag_321\n      jump\t// in\n    tag_435:\n        /* \"#utility.yul\":6095:6161   */\n      tag_436\n        /* \"#utility.yul\":6157:6159   */\n      0x40\n        /* \"#utility.yul\":6146:6155   */\n      dup4\n        /* \"#utility.yul\":6142:6160   */\n      add\n        /* \"#utility.yul\":6133:6139   */\n      dup5\n        /* \"#utility.yul\":6095:6161   */\n      tag_331\n      jump\t// in\n    tag_436:\n        /* \"#utility.yul\":5738:6168   */\n      swap5\n      swap4\n      pop\n      pop\n      pop\n      pop\n      jump\t// out\n        /* \"#utility.yul\":6174:6384   */\n    tag_80:\n        /* \"#utility.yul\":6261:6265   */\n      0x00\n        /* \"#utility.yul\":6299:6301   */\n      0x20\n        /* \"#utility.yul\":6288:6297   */\n      dup3\n        /* \"#utility.yul\":6284:6302   */\n      add\n        /* \"#utility.yul\":6276:6302   */\n      swap1\n      pop\n        /* \"#utility.yul\":6312:6377   */\n      tag_438\n        /* \"#utility.yul\":6374:6375   */\n      0x00\n        /* \"#utility.yul\":6363:6372   */\n      dup4\n        /* \"#utility.yul\":6359:6376   */\n      add\n        /* \"#utility.yul\":6350:6356   */\n      dup5\n        /* \"#utility.yul\":6312:6377   */\n      tag_331\n      jump\t// in\n    tag_438:\n        /* \"#utility.yul\":6174:6384   */\n      swap3\n      swap2\n      pop\n      pop\n      jump\t// out\n        /* \"#utility.yul\":6390:6832   */\n    tag_101:\n        /* \"#utility.yul\":6539:6543   */\n      0x00\n        /* \"#utility.yul\":6577:6579   */\n      0x60\n        /* \"#utility.yul\":6566:6575   */\n      dup3\n        /* \"#utility.yul\":6562:6580   */\n      add\n        /* \"#utility.yul\":6554:6580   */\n      swap1\n      pop\n        /* \"#utility.yul\":6590:6661   */\n      tag_440\n        /* \"#utility.yul\":6658:6659   */\n      0x00\n        /* \"#utility.yul\":6647:6656   */\n      dup4\n        /* \"#utility.yul\":6643:6660   */\n      add\n        /* \"#utility.yul\":6634:6640   */\n      dup7\n        /* \"#utility.yul\":6590:6661   */\n      tag_327\n      jump\t// in\n    tag_440:\n        /* \"#utility.yul\":6671:6743   */\n      tag_441\n        /* \"#utility.yul\":6739:6741   */\n      0x20\n        /* \"#utility.yul\":6728:6737   */\n      dup4\n        /* \"#utility.yul\":6724:6742   */\n      add\n        /* \"#utility.yul\":6715:6721   */\n      dup6\n        /* \"#utility.yul\":6671:6743   */\n      tag_327\n      jump\t// in\n    tag_441:\n        /* \"#utility.yul\":6753:6825   */\n      tag_442\n        /* \"#utility.yul\":6821:6823   */\n      0x40\n        /* \"#utility.yul\":6810:6819   */\n      dup4\n        /* \"#utility.yul\":6806:6824   */\n      add\n        /* \"#utility.yul\":6797:6803   */\n      dup5\n        /* \"#utility.yul\":6753:6825   */\n      tag_321\n      jump\t// in\n    tag_442:\n        /* \"#utility.yul\":6390:6832   */\n      swap5\n      swap4\n      pop\n      pop\n      pop\n      pop\n      jump\t// out\n        /* \"#utility.yul\":6838:6954   */\n    tag_332:\n        /* \"#utility.yul\":6908:6929   */\n      tag_444\n        /* \"#utility.yul\":6923:6928   */\n      dup2\n        /* \"#utility.yul\":6908:6929   */\n      tag_330\n      jump\t// in\n    tag_444:\n        /* \"#utility.yul\":6901:6906   */\n      dup2\n        /* \"#utility.yul\":6898:6930   */\n      eq\n        /* \"#utility.yul\":6888:6948   */\n      tag_445\n      jumpi\n        /* \"#utility.yul\":6944:6945   */\n      0x00\n        /* \"#utility.yul\":6941:6942   */\n      dup1\n        /* \"#utility.yul\":6934:6946   */\n      revert\n        /* \"#utility.yul\":6888:6948   */\n    tag_445:\n        /* \"#utility.yul\":6838:6954   */\n      pop\n      jump\t// out\n        /* \"#utility.yul\":6960:7097   */\n    tag_333:\n        /* \"#utility.yul\":7014:7019   */\n      0x00\n        /* \"#utility.yul\":7045:7051   */\n      dup2\n        /* \"#utility.yul\":7039:7052   */\n      mload\n        /* \"#utility.yul\":7030:7052   */\n      swap1\n      pop\n        /* \"#utility.yul\":7061:7091   */\n      tag_447\n        /* \"#utility.yul\":7085:7090   */\n      dup2\n        /* \"#utility.yul\":7061:7091   */\n      tag_332\n      jump\t// in\n    tag_447:\n        /* \"#utility.yul\":6960:7097   */\n      swap3\n      swap2\n      pop\n      pop\n      jump\t// out\n        /* \"#utility.yul\":7103:7448   */\n    tag_105:\n        /* \"#utility.yul\":7170:7176   */\n      0x00\n        /* \"#utility.yul\":7219:7221   */\n      0x20\n        /* \"#utility.yul\":7207:7216   */\n      dup3\n        /* \"#utility.yul\":7198:7205   */\n      dup5\n        /* \"#utility.yul\":7194:7217   */\n      sub\n        /* \"#utility.yul\":7190:7222   */\n      slt\n        /* \"#utility.yul\":7187:7306   */\n      iszero\n      tag_449\n      jumpi\n        /* \"#utility.yul\":7225:7304   */\n      tag_450\n      tag_312\n      jump\t// in\n    tag_450:\n        /* \"#utility.yul\":7187:7306   */\n    tag_449:\n        /* \"#utility.yul\":7345:7346   */\n      0x00\n        /* \"#utility.yul\":7370:7431   */\n      tag_451\n        /* \"#utility.yul\":7423:7430   */\n      dup5\n        /* \"#utility.yul\":7414:7420   */\n      dup3\n        /* \"#utility.yul\":7403:7412   */\n      dup6\n        /* \"#utility.yul\":7399:7421   */\n      add\n        /* \"#utility.yul\":7370:7431   */\n      tag_333\n      jump\t// in\n    tag_451:\n        /* \"#utility.yul\":7360:7431   */\n      swap2\n      pop\n        /* \"#utility.yul\":7316:7441   */\n      pop\n        /* \"#utility.yul\":7103:7448   */\n      swap3\n      swap2\n      pop\n      pop\n      jump\t// out\n        /* \"#utility.yul\":7454:7786   */\n    tag_107:\n        /* \"#utility.yul\":7575:7579   */\n      0x00\n        /* \"#utility.yul\":7613:7615   */\n      0x40\n        /* \"#utility.yul\":7602:7611   */\n      dup3\n        /* \"#utility.yul\":7598:7616   */\n      add\n        /* \"#utility.yul\":7590:7616   */\n      swap1\n      pop\n        /* \"#utility.yul\":7626:7697   */\n      tag_453\n        /* \"#utility.yul\":7694:7695   */\n      0x00\n        /* \"#utility.yul\":7683:7692   */\n      dup4\n        /* \"#utility.yul\":7679:7696   */\n      add\n        /* \"#utility.yul\":7670:7676   */\n      dup6\n        /* \"#utility.yul\":7626:7697   */\n      tag_327\n      jump\t// in\n    tag_453:\n        /* \"#utility.yul\":7707:7779   */\n      tag_454\n        /* \"#utility.yul\":7775:7777   */\n      0x20\n        /* \"#utility.yul\":7764:7773   */\n      dup4\n        /* \"#utility.yul\":7760:7778   */\n      add\n        /* \"#utility.yul\":7751:7757   */\n      dup5\n        /* \"#utility.yul\":7707:7779   */\n      tag_321\n      jump\t// in\n    tag_454:\n        /* \"#utility.yul\":7454:7786   */\n      swap4\n      swap3\n      pop\n      pop\n      pop\n      jump\t// out\n        /* \"#utility.yul\":7792:7972   */\n    tag_113:\n        /* \"#utility.yul\":7840:7917   */\n      0x4e487b7100000000000000000000000000000000000000000000000000000000\n        /* \"#utility.yul\":7837:7838   */\n      0x00\n        /* \"#utility.yul\":7830:7918   */\n      mstore\n        /* \"#utility.yul\":7937:7941   */\n      0x41\n        /* \"#utility.yul\":7934:7935   */\n      0x04\n        /* \"#utility.yul\":7927:7942   */\n      mstore\n        /* \"#utility.yul\":7961:7965   */\n      0x24\n        /* \"#utility.yul\":7958:7959   */\n      0x00\n        /* \"#utility.yul\":7951:7966   */\n      revert\n        /* \"#utility.yul\":7978:8158   */\n    tag_117:\n        /* \"#utility.yul\":8026:8103   */\n      0x4e487b7100000000000000000000000000000000000000000000000000000000\n        /* \"#utility.yul\":8023:8024   */\n      0x00\n        /* \"#utility.yul\":8016:8104   */\n      mstore\n        /* \"#utility.yul\":8123:8127   */\n      0x32\n        /* \"#utility.yul\":8120:8121   */\n      0x04\n        /* \"#utility.yul\":8113:8128   */\n      mstore\n        /* \"#utility.yul\":8147:8151   */\n      0x24\n        /* \"#utility.yul\":8144:8145   */\n      0x00\n        /* \"#utility.yul\":8137:8152   */\n      revert\n        /* \"#utility.yul\":8164:8307   */\n    tag_334:\n        /* \"#utility.yul\":8221:8226   */\n      0x00\n        /* \"#utility.yul\":8252:8258   */\n      dup2\n        /* \"#utility.yul\":8246:8259   */\n      mload\n        /* \"#utility.yul\":8237:8259   */\n      swap1\n      pop\n        /* \"#utility.yul\":8268:8301   */\n      tag_458\n        /* \"#utility.yul\":8295:8300   */\n      dup2\n        /* \"#utility.yul\":8268:8301   */\n      tag_316\n      jump\t// in\n    tag_458:\n        /* \"#utility.yul\":8164:8307   */\n      swap3\n      swap2\n      pop\n      pop\n      jump\t// out\n        /* \"#utility.yul\":8313:8664   */\n    tag_121:\n        /* \"#utility.yul\":8383:8389   */\n      0x00\n        /* \"#utility.yul\":8432:8434   */\n      0x20\n        /* \"#utility.yul\":8420:8429   */\n      dup3\n        /* \"#utility.yul\":8411:8418   */\n      dup5\n        /* \"#utility.yul\":8407:8430   */\n      sub\n        /* \"#utility.yul\":8403:8435   */\n      slt\n        /* \"#utility.yul\":8400:8519   */\n      iszero\n      tag_460\n      jumpi\n        /* \"#utility.yul\":8438:8517   */\n      tag_461\n      tag_312\n      jump\t// in\n    tag_461:\n        /* \"#utility.yul\":8400:8519   */\n    tag_460:\n        /* \"#utility.yul\":8558:8559   */\n      0x00\n        /* \"#utility.yul\":8583:8647   */\n      tag_462\n        /* \"#utility.yul\":8639:8646   */\n      dup5\n        /* \"#utility.yul\":8630:8636   */\n      dup3\n        /* \"#utility.yul\":8619:8628   */\n      dup6\n        /* \"#utility.yul\":8615:8637   */\n      add\n        /* \"#utility.yul\":8583:8647   */\n      tag_334\n      jump\t// in\n    tag_462:\n        /* \"#utility.yul\":8573:8647   */\n      swap2\n      pop\n        /* \"#utility.yul\":8529:8657   */\n      pop\n        /* \"#utility.yul\":8313:8664   */\n      swap3\n      swap2\n      pop\n      pop\n      jump\t// out\n        /* \"#utility.yul\":8670:8784   */\n    tag_335:\n        /* \"#utility.yul\":8737:8743   */\n      0x00\n        /* \"#utility.yul\":8771:8776   */\n      dup2\n        /* \"#utility.yul\":8765:8777   */\n      mload\n        /* \"#utility.yul\":8755:8777   */\n      swap1\n      pop\n        /* \"#utility.yul\":8670:8784   */\n      swap2\n      swap1\n      pop\n      jump\t// out\n        /* \"#utility.yul\":8790:8974   */\n    tag_336:\n        /* \"#utility.yul\":8889:8900   */\n      0x00\n        /* \"#utility.yul\":8923:8929   */\n      dup3\n        /* \"#utility.yul\":8918:8921   */\n      dup3\n        /* \"#utility.yul\":8911:8930   */\n      mstore\n        /* \"#utility.yul\":8963:8967   */\n      0x20\n        /* \"#utility.yul\":8958:8961   */\n      dup3\n        /* \"#utility.yul\":8954:8968   */\n      add\n        /* \"#utility.yul\":8939:8968   */\n      swap1\n      pop\n        /* \"#utility.yul\":8790:8974   */\n      swap3\n      swap2\n      pop\n      pop\n      jump\t// out\n        /* \"#utility.yul\":8980:9112   */\n    tag_337:\n        /* \"#utility.yul\":9047:9051   */\n      0x00\n        /* \"#utility.yul\":9070:9073   */\n      dup2\n        /* \"#utility.yul\":9062:9073   */\n      swap1\n      pop\n        /* \"#utility.yul\":9100:9104   */\n      0x20\n        /* \"#utility.yul\":9095:9098   */\n      dup3\n        /* \"#utility.yul\":9091:9105   */\n      add\n        /* \"#utility.yul\":9083:9105   */\n      swap1\n      pop\n        /* \"#utility.yul\":8980:9112   */\n      swap2\n      swap1\n      pop\n      jump\t// out\n        /* \"#utility.yul\":9118:9226   */\n    tag_338:\n        /* \"#utility.yul\":9195:9219   */\n      tag_467\n        /* \"#utility.yul\":9213:9218   */\n      dup2\n        /* \"#utility.yul\":9195:9219   */\n      tag_315\n      jump\t// in\n    tag_467:\n        /* \"#utility.yul\":9190:9193   */\n      dup3\n        /* \"#utility.yul\":9183:9220   */\n      mstore\n        /* \"#utility.yul\":9118:9226   */\n      pop\n      pop\n      jump\t// out\n        /* \"#utility.yul\":9232:9411   */\n    tag_339:\n        /* \"#utility.yul\":9301:9311   */\n      0x00\n        /* \"#utility.yul\":9322:9368   */\n      tag_469\n        /* \"#utility.yul\":9364:9367   */\n      dup4\n        /* \"#utility.yul\":9356:9362   */\n      dup4\n        /* \"#utility.yul\":9322:9368   */\n      tag_338\n      jump\t// in\n    tag_469:\n        /* \"#utility.yul\":9400:9404   */\n      0x20\n        /* \"#utility.yul\":9395:9398   */\n      dup4\n        /* \"#utility.yul\":9391:9405   */\n      add\n        /* \"#utility.yul\":9377:9405   */\n      swap1\n      pop\n        /* \"#utility.yul\":9232:9411   */\n      swap3\n      swap2\n      pop\n      pop\n      jump\t// out\n        /* \"#utility.yul\":9417:9530   */\n    tag_340:\n        /* \"#utility.yul\":9487:9491   */\n      0x00\n        /* \"#utility.yul\":9519:9523   */\n      0x20\n        /* \"#utility.yul\":9514:9517   */\n      dup3\n        /* \"#utility.yul\":9510:9524   */\n      add\n        /* \"#utility.yul\":9502:9524   */\n      swap1\n      pop\n        /* \"#utility.yul\":9417:9530   */\n      swap2\n      swap1\n      pop\n      jump\t// out\n        /* \"#utility.yul\":9566:10298   */\n    tag_341:\n        /* \"#utility.yul\":9685:9688   */\n      0x00\n        /* \"#utility.yul\":9714:9768   */\n      tag_472\n        /* \"#utility.yul\":9762:9767   */\n      dup3\n        /* \"#utility.yul\":9714:9768   */\n      tag_335\n      jump\t// in\n    tag_472:\n        /* \"#utility.yul\":9784:9870   */\n      tag_473\n        /* \"#utility.yul\":9863:9869   */\n      dup2\n        /* \"#utility.yul\":9858:9861   */\n      dup6\n        /* \"#utility.yul\":9784:9870   */\n      tag_336\n      jump\t// in\n    tag_473:\n        /* \"#utility.yul\":9777:9870   */\n      swap4\n      pop\n        /* \"#utility.yul\":9894:9950   */\n      tag_474\n        /* \"#utility.yul\":9944:9949   */\n      dup4\n        /* \"#utility.yul\":9894:9950   */\n      tag_337\n      jump\t// in\n    tag_474:\n        /* \"#utility.yul\":9973:9980   */\n      dup1\n        /* \"#utility.yul\":10004:10005   */\n      0x00\n        /* \"#utility.yul\":9989:10273   */\n    tag_475:\n        /* \"#utility.yul\":10014:10020   */\n      dup4\n        /* \"#utility.yul\":10011:10012   */\n      dup2\n        /* \"#utility.yul\":10008:10021   */\n      lt\n        /* \"#utility.yul\":9989:10273   */\n      iszero\n      tag_477\n      jumpi\n        /* \"#utility.yul\":10090:10096   */\n      dup2\n        /* \"#utility.yul\":10084:10097   */\n      mload\n        /* \"#utility.yul\":10117:10180   */\n      tag_478\n        /* \"#utility.yul\":10176:10179   */\n      dup9\n        /* \"#utility.yul\":10161:10174   */\n      dup3\n        /* \"#utility.yul\":10117:10180   */\n      tag_339\n      jump\t// in\n    tag_478:\n        /* \"#utility.yul\":10110:10180   */\n      swap8\n      pop\n        /* \"#utility.yul\":10203:10263   */\n      tag_479\n        /* \"#utility.yul\":10256:10262   */\n      dup4\n        /* \"#utility.yul\":10203:10263   */\n      tag_340\n      jump\t// in\n    tag_479:\n        /* \"#utility.yul\":10193:10263   */\n      swap3\n      pop\n        /* \"#utility.yul\":10049:10273   */\n      pop\n        /* \"#utility.yul\":10036:10037   */\n      0x01\n        /* \"#utility.yul\":10033:10034   */\n      dup2\n        /* \"#utility.yul\":10029:10038   */\n      add\n        /* \"#utility.yul\":10024:10038   */\n      swap1\n      pop\n        /* \"#utility.yul\":9989:10273   */\n      jump(tag_475)\n    tag_477:\n        /* \"#utility.yul\":9993:10007   */\n      pop\n        /* \"#utility.yul\":10289:10292   */\n      dup6\n        /* \"#utility.yul\":10282:10292   */\n      swap4\n      pop\n        /* \"#utility.yul\":9690:10298   */\n      pop\n      pop\n      pop\n        /* \"#utility.yul\":9566:10298   */\n      swap3\n      swap2\n      pop\n      pop\n      jump\t// out\n        /* \"#utility.yul\":10304:11119   */\n    tag_125:\n        /* \"#utility.yul\":10559:10563   */\n      0x00\n        /* \"#utility.yul\":10597:10600   */\n      0xa0\n        /* \"#utility.yul\":10586:10595   */\n      dup3\n        /* \"#utility.yul\":10582:10601   */\n      add\n        /* \"#utility.yul\":10574:10601   */\n      swap1\n      pop\n        /* \"#utility.yul\":10611:10682   */\n      tag_481\n        /* \"#utility.yul\":10679:10680   */\n      0x00\n        /* \"#utility.yul\":10668:10677   */\n      dup4\n        /* \"#utility.yul\":10664:10681   */\n      add\n        /* \"#utility.yul\":10655:10661   */\n      dup9\n        /* \"#utility.yul\":10611:10682   */\n      tag_321\n      jump\t// in\n    tag_481:\n        /* \"#utility.yul\":10692:10764   */\n      tag_482\n        /* \"#utility.yul\":10760:10762   */\n      0x20\n        /* \"#utility.yul\":10749:10758   */\n      dup4\n        /* \"#utility.yul\":10745:10763   */\n      add\n        /* \"#utility.yul\":10736:10742   */\n      dup8\n        /* \"#utility.yul\":10692:10764   */\n      tag_321\n      jump\t// in\n    tag_482:\n        /* \"#utility.yul\":10811:10820   */\n      dup2\n        /* \"#utility.yul\":10805:10809   */\n      dup2\n        /* \"#utility.yul\":10801:10821   */\n      sub\n        /* \"#utility.yul\":10796:10798   */\n      0x40\n        /* \"#utility.yul\":10785:10794   */\n      dup4\n        /* \"#utility.yul\":10781:10799   */\n      add\n        /* \"#utility.yul\":10774:10822   */\n      mstore\n        /* \"#utility.yul\":10839:10947   */\n      tag_483\n        /* \"#utility.yul\":10942:10946   */\n      dup2\n        /* \"#utility.yul\":10933:10939   */\n      dup7\n        /* \"#utility.yul\":10839:10947   */\n      tag_341\n      jump\t// in\n    tag_483:\n        /* \"#utility.yul\":10831:10947   */\n      swap1\n      pop\n        /* \"#utility.yul\":10957:11029   */\n      tag_484\n        /* \"#utility.yul\":11025:11027   */\n      0x60\n        /* \"#utility.yul\":11014:11023   */\n      dup4\n        /* \"#utility.yul\":11010:11028   */\n      add\n        /* \"#utility.yul\":11001:11007   */\n      dup6\n        /* \"#utility.yul\":10957:11029   */\n      tag_327\n      jump\t// in\n    tag_484:\n        /* \"#utility.yul\":11039:11112   */\n      tag_485\n        /* \"#utility.yul\":11107:11110   */\n      0x80\n        /* \"#utility.yul\":11096:11105   */\n      dup4\n        /* \"#utility.yul\":11092:11111   */\n      add\n        /* \"#utility.yul\":11083:11089   */\n      dup5\n        /* \"#utility.yul\":11039:11112   */\n      tag_321\n      jump\t// in\n    tag_485:\n        /* \"#utility.yul\":10304:11119   */\n      swap7\n      swap6\n      pop\n      pop\n      pop\n      pop\n      pop\n      pop\n      jump\t// out\n        /* \"#utility.yul\":11125:11242   */\n    tag_342:\n        /* \"#utility.yul\":11234:11235   */\n      0x00\n        /* \"#utility.yul\":11231:11232   */\n      dup1\n        /* \"#utility.yul\":11224:11236   */\n      revert\n        /* \"#utility.yul\":11248:11350   */\n    tag_343:\n        /* \"#utility.yul\":11289:11295   */\n      0x00\n        /* \"#utility.yul\":11340:11342   */\n      0x1f\n        /* \"#utility.yul\":11336:11343   */\n      not\n        /* \"#utility.yul\":11331:11333   */\n      0x1f\n        /* \"#utility.yul\":11324:11329   */\n      dup4\n        /* \"#utility.yul\":11320:11334   */\n      add\n        /* \"#utility.yul\":11316:11344   */\n      and\n        /* \"#utility.yul\":11306:11344   */\n      swap1\n      pop\n        /* \"#utility.yul\":11248:11350   */\n      swap2\n      swap1\n      pop\n      jump\t// out\n        /* \"#utility.yul\":11356:11637   */\n    tag_344:\n        /* \"#utility.yul\":11439:11466   */\n      tag_489\n        /* \"#utility.yul\":11461:11465   */\n      dup3\n        /* \"#utility.yul\":11439:11466   */\n      tag_343\n      jump\t// in\n    tag_489:\n        /* \"#utility.yul\":11431:11437   */\n      dup2\n        /* \"#utility.yul\":11427:11467   */\n      add\n        /* \"#utility.yul\":11569:11575   */\n      dup2\n        /* \"#utility.yul\":11557:11567   */\n      dup2\n        /* \"#utility.yul\":11554:11576   */\n      lt\n        /* \"#utility.yul\":11533:11551   */\n      0xffffffffffffffff\n        /* \"#utility.yul\":11521:11531   */\n      dup3\n        /* \"#utility.yul\":11518:11552   */\n      gt\n        /* \"#utility.yul\":11515:11577   */\n      or\n        /* \"#utility.yul\":11512:11600   */\n      iszero\n      tag_490\n      jumpi\n        /* \"#utility.yul\":11580:11598   */\n      tag_491\n      tag_113\n      jump\t// in\n    tag_491:\n        /* \"#utility.yul\":11512:11600   */\n    tag_490:\n        /* \"#utility.yul\":11620:11630   */\n      dup1\n        /* \"#utility.yul\":11616:11618   */\n      0x40\n        /* \"#utility.yul\":11609:11631   */\n      mstore\n        /* \"#utility.yul\":11399:11637   */\n      pop\n        /* \"#utility.yul\":11356:11637   */\n      pop\n      pop\n      jump\t// out\n        /* \"#utility.yul\":11643:11772   */\n    tag_345:\n        /* \"#utility.yul\":11677:11683   */\n      0x00\n        /* \"#utility.yul\":11704:11724   */\n      tag_493\n      tag_311\n      jump\t// in\n    tag_493:\n        /* \"#utility.yul\":11694:11724   */\n      swap1\n      pop\n        /* \"#utility.yul\":11733:11766   */\n      tag_494\n        /* \"#utility.yul\":11761:11765   */\n      dup3\n        /* \"#utility.yul\":11753:11759   */\n      dup3\n        /* \"#utility.yul\":11733:11766   */\n      tag_344\n      jump\t// in\n    tag_494:\n        /* \"#utility.yul\":11643:11772   */\n      swap2\n      swap1\n      pop\n      jump\t// out\n        /* \"#utility.yul\":11778:12089   */\n    tag_346:\n        /* \"#utility.yul\":11855:11859   */\n      0x00\n        /* \"#utility.yul\":11945:11963   */\n      0xffffffffffffffff\n        /* \"#utility.yul\":11937:11943   */\n      dup3\n        /* \"#utility.yul\":11934:11964   */\n      gt\n        /* \"#utility.yul\":11931:11987   */\n      iszero\n      tag_496\n      jumpi\n        /* \"#utility.yul\":11967:11985   */\n      tag_497\n      tag_113\n      jump\t// in\n    tag_497:\n        /* \"#utility.yul\":11931:11987   */\n    tag_496:\n        /* \"#utility.yul\":12017:12021   */\n      0x20\n        /* \"#utility.yul\":12009:12015   */\n      dup3\n        /* \"#utility.yul\":12005:12022   */\n      mul\n        /* \"#utility.yul\":11997:12022   */\n      swap1\n      pop\n        /* \"#utility.yul\":12077:12081   */\n      0x20\n        /* \"#utility.yul\":12071:12075   */\n      dup2\n        /* \"#utility.yul\":12067:12082   */\n      add\n        /* \"#utility.yul\":12059:12082   */\n      swap1\n      pop\n        /* \"#utility.yul\":11778:12089   */\n      swap2\n      swap1\n      pop\n      jump\t// out\n        /* \"#utility.yul\":12095:12212   */\n    tag_347:\n        /* \"#utility.yul\":12204:12205   */\n      0x00\n        /* \"#utility.yul\":12201:12202   */\n      dup1\n        /* \"#utility.yul\":12194:12206   */\n      revert\n        /* \"#utility.yul\":12218:12361   */\n    tag_348:\n        /* \"#utility.yul\":12275:12280   */\n      0x00\n        /* \"#utility.yul\":12306:12312   */\n      dup2\n        /* \"#utility.yul\":12300:12313   */\n      mload\n        /* \"#utility.yul\":12291:12313   */\n      swap1\n      pop\n        /* \"#utility.yul\":12322:12355   */\n      tag_500\n        /* \"#utility.yul\":12349:12354   */\n      dup2\n        /* \"#utility.yul\":12322:12355   */\n      tag_319\n      jump\t// in\n    tag_500:\n        /* \"#utility.yul\":12218:12361   */\n      swap3\n      swap2\n      pop\n      pop\n      jump\t// out\n        /* \"#utility.yul\":12384:13116   */\n    tag_349:\n        /* \"#utility.yul\":12491:12496   */\n      0x00\n        /* \"#utility.yul\":12516:12597   */\n      tag_502\n        /* \"#utility.yul\":12532:12596   */\n      tag_503\n        /* \"#utility.yul\":12589:12595   */\n      dup5\n        /* \"#utility.yul\":12532:12596   */\n      tag_346\n      jump\t// in\n    tag_503:\n        /* \"#utility.yul\":12516:12597   */\n      tag_345\n      jump\t// in\n    tag_502:\n        /* \"#utility.yul\":12507:12597   */\n      swap1\n      pop\n        /* \"#utility.yul\":12617:12622   */\n      dup1\n        /* \"#utility.yul\":12646:12652   */\n      dup4\n        /* \"#utility.yul\":12639:12644   */\n      dup3\n        /* \"#utility.yul\":12632:12653   */\n      mstore\n        /* \"#utility.yul\":12680:12684   */\n      0x20\n        /* \"#utility.yul\":12673:12678   */\n      dup3\n        /* \"#utility.yul\":12669:12685   */\n      add\n        /* \"#utility.yul\":12662:12685   */\n      swap1\n      pop\n        /* \"#utility.yul\":12733:12737   */\n      0x20\n        /* \"#utility.yul\":12725:12731   */\n      dup5\n        /* \"#utility.yul\":12721:12738   */\n      mul\n        /* \"#utility.yul\":12713:12719   */\n      dup4\n        /* \"#utility.yul\":12709:12739   */\n      add\n        /* \"#utility.yul\":12762:12765   */\n      dup6\n        /* \"#utility.yul\":12754:12760   */\n      dup2\n        /* \"#utility.yul\":12751:12766   */\n      gt\n        /* \"#utility.yul\":12748:12870   */\n      iszero\n      tag_504\n      jumpi\n        /* \"#utility.yul\":12781:12860   */\n      tag_505\n      tag_347\n      jump\t// in\n    tag_505:\n        /* \"#utility.yul\":12748:12870   */\n    tag_504:\n        /* \"#utility.yul\":12896:12902   */\n      dup4\n        /* \"#utility.yul\":12879:13110   */\n    tag_506:\n        /* \"#utility.yul\":12913:12919   */\n      dup2\n        /* \"#utility.yul\":12908:12911   */\n      dup2\n        /* \"#utility.yul\":12905:12920   */\n      lt\n        /* \"#utility.yul\":12879:13110   */\n      iszero\n      tag_508\n      jumpi\n        /* \"#utility.yul\":12988:12991   */\n      dup1\n        /* \"#utility.yul\":13017:13065   */\n      tag_509\n        /* \"#utility.yul\":13061:13064   */\n      dup9\n        /* \"#utility.yul\":13049:13059   */\n      dup3\n        /* \"#utility.yul\":13017:13065   */\n      tag_348\n      jump\t// in\n    tag_509:\n        /* \"#utility.yul\":13012:13015   */\n      dup5\n        /* \"#utility.yul\":13005:13066   */\n      mstore\n        /* \"#utility.yul\":13095:13099   */\n      0x20\n        /* \"#utility.yul\":13090:13093   */\n      dup5\n        /* \"#utility.yul\":13086:13100   */\n      add\n        /* \"#utility.yul\":13079:13100   */\n      swap4\n      pop\n        /* \"#utility.yul\":12955:13110   */\n      pop\n        /* \"#utility.yul\":12939:12943   */\n      0x20\n        /* \"#utility.yul\":12934:12937   */\n      dup2\n        /* \"#utility.yul\":12930:12944   */\n      add\n        /* \"#utility.yul\":12923:12944   */\n      swap1\n      pop\n        /* \"#utility.yul\":12879:13110   */\n      jump(tag_506)\n    tag_508:\n        /* \"#utility.yul\":12883:12904   */\n      pop\n        /* \"#utility.yul\":12497:13116   */\n      pop\n      pop\n        /* \"#utility.yul\":12384:13116   */\n      swap4\n      swap3\n      pop\n      pop\n      pop\n      jump\t// out\n        /* \"#utility.yul\":13139:13524   */\n    tag_350:\n        /* \"#utility.yul\":13221:13226   */\n      0x00\n        /* \"#utility.yul\":13270:13273   */\n      dup3\n        /* \"#utility.yul\":13263:13267   */\n      0x1f\n        /* \"#utility.yul\":13255:13261   */\n      dup4\n        /* \"#utility.yul\":13251:13268   */\n      add\n        /* \"#utility.yul\":13247:13274   */\n      slt\n        /* \"#utility.yul\":13237:13359   */\n      tag_511\n      jumpi\n        /* \"#utility.yul\":13278:13357   */\n      tag_512\n      tag_342\n      jump\t// in\n    tag_512:\n        /* \"#utility.yul\":13237:13359   */\n    tag_511:\n        /* \"#utility.yul\":13388:13394   */\n      dup2\n        /* \"#utility.yul\":13382:13395   */\n      mload\n        /* \"#utility.yul\":13413:13518   */\n      tag_513\n        /* \"#utility.yul\":13514:13517   */\n      dup5\n        /* \"#utility.yul\":13506:13512   */\n      dup3\n        /* \"#utility.yul\":13499:13503   */\n      0x20\n        /* \"#utility.yul\":13491:13497   */\n      dup7\n        /* \"#utility.yul\":13487:13504   */\n      add\n        /* \"#utility.yul\":13413:13518   */\n      tag_349\n      jump\t// in\n    tag_513:\n        /* \"#utility.yul\":13404:13518   */\n      swap2\n      pop\n        /* \"#utility.yul\":13227:13524   */\n      pop\n        /* \"#utility.yul\":13139:13524   */\n      swap3\n      swap2\n      pop\n      pop\n      jump\t// out\n        /* \"#utility.yul\":13530:14084   */\n    tag_129:\n        /* \"#utility.yul\":13625:13631   */\n      0x00\n        /* \"#utility.yul\":13674:13676   */\n      0x20\n        /* \"#utility.yul\":13662:13671   */\n      dup3\n        /* \"#utility.yul\":13653:13660   */\n      dup5\n        /* \"#utility.yul\":13649:13672   */\n      sub\n        /* \"#utility.yul\":13645:13677   */\n      slt\n        /* \"#utility.yul\":13642:13761   */\n      iszero\n      tag_515\n      jumpi\n        /* \"#utility.yul\":13680:13759   */\n      tag_516\n      tag_312\n      jump\t// in\n    tag_516:\n        /* \"#utility.yul\":13642:13761   */\n    tag_515:\n        /* \"#utility.yul\":13821:13822   */\n      0x00\n        /* \"#utility.yul\":13810:13819   */\n      dup3\n        /* \"#utility.yul\":13806:13823   */\n      add\n        /* \"#utility.yul\":13800:13824   */\n      mload\n        /* \"#utility.yul\":13851:13869   */\n      0xffffffffffffffff\n        /* \"#utility.yul\":13843:13849   */\n      dup2\n        /* \"#utility.yul\":13840:13870   */\n      gt\n        /* \"#utility.yul\":13837:13954   */\n      iszero\n      tag_517\n      jumpi\n        /* \"#utility.yul\":13873:13952   */\n      tag_518\n      tag_313\n      jump\t// in\n    tag_518:\n        /* \"#utility.yul\":13837:13954   */\n    tag_517:\n        /* \"#utility.yul\":13978:14067   */\n      tag_519\n        /* \"#utility.yul\":14059:14066   */\n      dup5\n        /* \"#utility.yul\":14050:14056   */\n      dup3\n        /* \"#utility.yul\":14039:14048   */\n      dup6\n        /* \"#utility.yul\":14035:14057   */\n      add\n        /* \"#utility.yul\":13978:14067   */\n      tag_350\n      jump\t// in\n    tag_519:\n        /* \"#utility.yul\":13968:14067   */\n      swap2\n      pop\n        /* \"#utility.yul\":13771:14077   */\n      pop\n        /* \"#utility.yul\":13530:14084   */\n      swap3\n      swap2\n      pop\n      pop\n      jump\t// out\n        /* \"#utility.yul\":14090:14270   */\n    tag_351:\n        /* \"#utility.yul\":14138:14215   */\n      0x4e487b7100000000000000000000000000000000000000000000000000000000\n        /* \"#utility.yul\":14135:14136   */\n      0x00\n        /* \"#utility.yul\":14128:14216   */\n      mstore\n        /* \"#utility.yul\":14235:14239   */\n      0x11\n        /* \"#utility.yul\":14232:14233   */\n      0x04\n        /* \"#utility.yul\":14225:14240   */\n      mstore\n        /* \"#utility.yul\":14259:14263   */\n      0x24\n        /* \"#utility.yul\":14256:14257   */\n      0x00\n        /* \"#utility.yul\":14249:14264   */\n      revert\n        /* \"#utility.yul\":14276:14686   */\n    tag_133:\n        /* \"#utility.yul\":14316:14323   */\n      0x00\n        /* \"#utility.yul\":14339:14359   */\n      tag_522\n        /* \"#utility.yul\":14357:14358   */\n      dup3\n        /* \"#utility.yul\":14339:14359   */\n      tag_318\n      jump\t// in\n    tag_522:\n        /* \"#utility.yul\":14334:14359   */\n      swap2\n      pop\n        /* \"#utility.yul\":14373:14393   */\n      tag_523\n        /* \"#utility.yul\":14391:14392   */\n      dup4\n        /* \"#utility.yul\":14373:14393   */\n      tag_318\n      jump\t// in\n    tag_523:\n        /* \"#utility.yul\":14368:14393   */\n      swap3\n      pop\n        /* \"#utility.yul\":14428:14429   */\n      dup3\n        /* \"#utility.yul\":14425:14426   */\n      dup3\n        /* \"#utility.yul\":14421:14430   */\n      mul\n        /* \"#utility.yul\":14450:14480   */\n      tag_524\n        /* \"#utility.yul\":14468:14479   */\n      dup2\n        /* \"#utility.yul\":14450:14480   */\n      tag_318\n      jump\t// in\n    tag_524:\n        /* \"#utility.yul\":14439:14480   */\n      swap2\n      pop\n        /* \"#utility.yul\":14629:14630   */\n      dup3\n        /* \"#utility.yul\":14620:14627   */\n      dup3\n        /* \"#utility.yul\":14616:14631   */\n      div\n        /* \"#utility.yul\":14613:14614   */\n      dup5\n        /* \"#utility.yul\":14610:14632   */\n      eq\n        /* \"#utility.yul\":14590:14591   */\n      dup4\n        /* \"#utility.yul\":14583:14592   */\n      iszero\n        /* \"#utility.yul\":14563:14646   */\n      or\n        /* \"#utility.yul\":14540:14679   */\n      tag_525\n      jumpi\n        /* \"#utility.yul\":14659:14677   */\n      tag_526\n      tag_351\n      jump\t// in\n    tag_526:\n        /* \"#utility.yul\":14540:14679   */\n    tag_525:\n        /* \"#utility.yul\":14324:14686   */\n      pop\n        /* \"#utility.yul\":14276:14686   */\n      swap3\n      swap2\n      pop\n      pop\n      jump\t// out\n        /* \"#utility.yul\":14692:14872   */\n    tag_352:\n        /* \"#utility.yul\":14740:14817   */\n      0x4e487b7100000000000000000000000000000000000000000000000000000000\n        /* \"#utility.yul\":14737:14738   */\n      0x00\n        /* \"#utility.yul\":14730:14818   */\n      mstore\n        /* \"#utility.yul\":14837:14841   */\n      0x12\n        /* \"#utility.yul\":14834:14835   */\n      0x04\n        /* \"#utility.yul\":14827:14842   */\n      mstore\n        /* \"#utility.yul\":14861:14865   */\n      0x24\n        /* \"#utility.yul\":14858:14859   */\n      0x00\n        /* \"#utility.yul\":14851:14866   */\n      revert\n        /* \"#utility.yul\":14878:15063   */\n    tag_135:\n        /* \"#utility.yul\":14918:14919   */\n      0x00\n        /* \"#utility.yul\":14935:14955   */\n      tag_529\n        /* \"#utility.yul\":14953:14954   */\n      dup3\n        /* \"#utility.yul\":14935:14955   */\n      tag_318\n      jump\t// in\n    tag_529:\n        /* \"#utility.yul\":14930:14955   */\n      swap2\n      pop\n        /* \"#utility.yul\":14969:14989   */\n      tag_530\n        /* \"#utility.yul\":14987:14988   */\n      dup4\n        /* \"#utility.yul\":14969:14989   */\n      tag_318\n      jump\t// in\n    tag_530:\n        /* \"#utility.yul\":14964:14989   */\n      swap3\n      pop\n        /* \"#utility.yul\":15008:15009   */\n      dup3\n        /* \"#utility.yul\":14998:15033   */\n      tag_531\n      jumpi\n        /* \"#utility.yul\":15013:15031   */\n      tag_532\n      tag_352\n      jump\t// in\n    tag_532:\n        /* \"#utility.yul\":14998:15033   */\n    tag_531:\n        /* \"#utility.yul\":15055:15056   */\n      dup3\n        /* \"#utility.yul\":15052:15053   */\n      dup3\n        /* \"#utility.yul\":15048:15057   */\n      div\n        /* \"#utility.yul\":15043:15057   */\n      swap1\n      pop\n        /* \"#utility.yul\":14878:15063   */\n      swap3\n      swap2\n      pop\n      pop\n      jump\t// out\n        /* \"#utility.yul\":15069:15263   */\n    tag_143:\n        /* \"#utility.yul\":15109:15113   */\n      0x00\n        /* \"#utility.yul\":15129:15149   */\n      tag_534\n        /* \"#utility.yul\":15147:15148   */\n      dup3\n        /* \"#utility.yul\":15129:15149   */\n      tag_318\n      jump\t// in\n    tag_534:\n        /* \"#utility.yul\":15124:15149   */\n      swap2\n      pop\n        /* \"#utility.yul\":15163:15183   */\n      tag_535\n        /* \"#utility.yul\":15181:15182   */\n      dup4\n        /* \"#utility.yul\":15163:15183   */\n      tag_318\n      jump\t// in\n    tag_535:\n        /* \"#utility.yul\":15158:15183   */\n      swap3\n      pop\n        /* \"#utility.yul\":15207:15208   */\n      dup3\n        /* \"#utility.yul\":15204:15205   */\n      dup3\n        /* \"#utility.yul\":15200:15209   */\n      sub\n        /* \"#utility.yul\":15192:15209   */\n      swap1\n      pop\n        /* \"#utility.yul\":15231:15232   */\n      dup2\n        /* \"#utility.yul\":15225:15229   */\n      dup2\n        /* \"#utility.yul\":15222:15233   */\n      gt\n        /* \"#utility.yul\":15219:15256   */\n      iszero\n      tag_536\n      jumpi\n        /* \"#utility.yul\":15236:15254   */\n      tag_537\n      tag_351\n      jump\t// in\n    tag_537:\n        /* \"#utility.yul\":15219:15256   */\n    tag_536:\n        /* \"#utility.yul\":15069:15263   */\n      swap3\n      swap2\n      pop\n      pop\n      jump\t// out\n        /* \"#utility.yul\":15269:15601   */\n    tag_147:\n        /* \"#utility.yul\":15390:15394   */\n      0x00\n        /* \"#utility.yul\":15428:15430   */\n      0x40\n        /* \"#utility.yul\":15417:15426   */\n      dup3\n        /* \"#utility.yul\":15413:15431   */\n      add\n        /* \"#utility.yul\":15405:15431   */\n      swap1\n      pop\n        /* \"#utility.yul\":15441:15512   */\n      tag_539\n        /* \"#utility.yul\":15509:15510   */\n      0x00\n        /* \"#utility.yul\":15498:15507   */\n      dup4\n        /* \"#utility.yul\":15494:15511   */\n      add\n        /* \"#utility.yul\":15485:15491   */\n      dup6\n        /* \"#utility.yul\":15441:15512   */\n      tag_321\n      jump\t// in\n    tag_539:\n        /* \"#utility.yul\":15522:15594   */\n      tag_540\n        /* \"#utility.yul\":15590:15592   */\n      0x20\n        /* \"#utility.yul\":15579:15588   */\n      dup4\n        /* \"#utility.yul\":15575:15593   */\n      add\n        /* \"#utility.yul\":15566:15572   */\n      dup5\n        /* \"#utility.yul\":15522:15594   */\n      tag_321\n      jump\t// in\n    tag_540:\n        /* \"#utility.yul\":15269:15601   */\n      swap4\n      swap3\n      pop\n      pop\n      pop\n      jump\t// out\n        /* \"#utility.yul\":15607:15776   */\n    tag_353:\n        /* \"#utility.yul\":15691:15702   */\n      0x00\n        /* \"#utility.yul\":15725:15731   */\n      dup3\n        /* \"#utility.yul\":15720:15723   */\n      dup3\n        /* \"#utility.yul\":15713:15732   */\n      mstore\n        /* \"#utility.yul\":15765:15769   */\n      0x20\n        /* \"#utility.yul\":15760:15763   */\n      dup3\n        /* \"#utility.yul\":15756:15770   */\n      add\n        /* \"#utility.yul\":15741:15770   */\n      swap1\n      pop\n        /* \"#utility.yul\":15607:15776   */\n      swap3\n      swap2\n      pop\n      pop\n      jump\t// out\n        /* \"#utility.yul\":15782:15947   */\n    tag_354:\n        /* \"#utility.yul\":15922:15939   */\n      0x496e76616c696420616464726573730000000000000000000000000000000000\n        /* \"#utility.yul\":15918:15919   */\n      0x00\n        /* \"#utility.yul\":15910:15916   */\n      dup3\n        /* \"#utility.yul\":15906:15920   */\n      add\n        /* \"#utility.yul\":15899:15940   */\n      mstore\n        /* \"#utility.yul\":15782:15947   */\n      pop\n      jump\t// out\n        /* \"#utility.yul\":15953:16319   */\n    tag_355:\n        /* \"#utility.yul\":16095:16098   */\n      0x00\n        /* \"#utility.yul\":16116:16183   */\n      tag_544\n        /* \"#utility.yul\":16180:16182   */\n      0x0f\n        /* \"#utility.yul\":16175:16178   */\n      dup4\n        /* \"#utility.yul\":16116:16183   */\n      tag_353\n      jump\t// in\n    tag_544:\n        /* \"#utility.yul\":16109:16183   */\n      swap2\n      pop\n        /* \"#utility.yul\":16192:16285   */\n      tag_545\n        /* \"#utility.yul\":16281:16284   */\n      dup3\n        /* \"#utility.yul\":16192:16285   */\n      tag_354\n      jump\t// in\n    tag_545:\n        /* \"#utility.yul\":16310:16312   */\n      0x20\n        /* \"#utility.yul\":16305:16308   */\n      dup3\n        /* \"#utility.yul\":16301:16313   */\n      add\n        /* \"#utility.yul\":16294:16313   */\n      swap1\n      pop\n        /* \"#utility.yul\":15953:16319   */\n      swap2\n      swap1\n      pop\n      jump\t// out\n        /* \"#utility.yul\":16325:16744   */\n    tag_154:\n        /* \"#utility.yul\":16491:16495   */\n      0x00\n        /* \"#utility.yul\":16529:16531   */\n      0x20\n        /* \"#utility.yul\":16518:16527   */\n      dup3\n        /* \"#utility.yul\":16514:16532   */\n      add\n        /* \"#utility.yul\":16506:16532   */\n      swap1\n      pop\n        /* \"#utility.yul\":16578:16587   */\n      dup2\n        /* \"#utility.yul\":16572:16576   */\n      dup2\n        /* \"#utility.yul\":16568:16588   */\n      sub\n        /* \"#utility.yul\":16564:16565   */\n      0x00\n        /* \"#utility.yul\":16553:16562   */\n      dup4\n        /* \"#utility.yul\":16549:16566   */\n      add\n        /* \"#utility.yul\":16542:16589   */\n      mstore\n        /* \"#utility.yul\":16606:16737   */\n      tag_547\n        /* \"#utility.yul\":16732:16736   */\n      dup2\n        /* \"#utility.yul\":16606:16737   */\n      tag_355\n      jump\t// in\n    tag_547:\n        /* \"#utility.yul\":16598:16737   */\n      swap1\n      pop\n        /* \"#utility.yul\":16325:16744   */\n      swap2\n      swap1\n      pop\n      jump\t// out\n        /* \"#utility.yul\":16750:16927   */\n    tag_356:\n        /* \"#utility.yul\":16890:16919   */\n      0x4e6f206c697175696469747920666f72207468697320746f6b656e0000000000\n        /* \"#utility.yul\":16886:16887   */\n      0x00\n        /* \"#utility.yul\":16878:16884   */\n      dup3\n        /* \"#utility.yul\":16874:16888   */\n      add\n        /* \"#utility.yul\":16867:16920   */\n      mstore\n        /* \"#utility.yul\":16750:16927   */\n      pop\n      jump\t// out\n        /* \"#utility.yul\":16933:17299   */\n    tag_357:\n        /* \"#utility.yul\":17075:17078   */\n      0x00\n        /* \"#utility.yul\":17096:17163   */\n      tag_550\n        /* \"#utility.yul\":17160:17162   */\n      0x1b\n        /* \"#utility.yul\":17155:17158   */\n      dup4\n        /* \"#utility.yul\":17096:17163   */\n      tag_353\n      jump\t// in\n    tag_550:\n        /* \"#utility.yul\":17089:17163   */\n      swap2\n      pop\n        /* \"#utility.yul\":17172:17265   */\n      tag_551\n        /* \"#utility.yul\":17261:17264   */\n      dup3\n        /* \"#utility.yul\":17172:17265   */\n      tag_356\n      jump\t// in\n    tag_551:\n        /* \"#utility.yul\":17290:17292   */\n      0x20\n        /* \"#utility.yul\":17285:17288   */\n      dup3\n        /* \"#utility.yul\":17281:17293   */\n      add\n        /* \"#utility.yul\":17274:17293   */\n      swap1\n      pop\n        /* \"#utility.yul\":16933:17299   */\n      swap2\n      swap1\n      pop\n      jump\t// out\n        /* \"#utility.yul\":17305:17724   */\n    tag_180:\n        /* \"#utility.yul\":17471:17475   */\n      0x00\n        /* \"#utility.yul\":17509:17511   */\n      0x20\n        /* \"#utility.yul\":17498:17507   */\n      dup3\n        /* \"#utility.yul\":17494:17512   */\n      add\n        /* \"#utility.yul\":17486:17512   */\n      swap1\n      pop\n        /* \"#utility.yul\":17558:17567   */\n      dup2\n        /* \"#utility.yul\":17552:17556   */\n      dup2\n        /* \"#utility.yul\":17548:17568   */\n      sub\n        /* \"#utility.yul\":17544:17545   */\n      0x00\n        /* \"#utility.yul\":17533:17542   */\n      dup4\n        /* \"#utility.yul\":17529:17546   */\n      add\n        /* \"#utility.yul\":17522:17569   */\n      mstore\n        /* \"#utility.yul\":17586:17717   */\n      tag_553\n        /* \"#utility.yul\":17712:17716   */\n      dup2\n        /* \"#utility.yul\":17586:17717   */\n      tag_357\n      jump\t// in\n    tag_553:\n        /* \"#utility.yul\":17578:17717   */\n      swap1\n      pop\n        /* \"#utility.yul\":17305:17724   */\n      swap2\n      swap1\n      pop\n      jump\t// out\n        /* \"#utility.yul\":17730:17956   */\n    tag_358:\n        /* \"#utility.yul\":17870:17904   */\n      0x457374696d617465642067617320636f73742065786365656473206d696e416d\n        /* \"#utility.yul\":17866:17867   */\n      0x00\n        /* \"#utility.yul\":17858:17864   */\n      dup3\n        /* \"#utility.yul\":17854:17868   */\n      add\n        /* \"#utility.yul\":17847:17905   */\n      mstore\n        /* \"#utility.yul\":17939:17948   */\n      0x6f756e744f757400000000000000000000000000000000000000000000000000\n        /* \"#utility.yul\":17934:17936   */\n      0x20\n        /* \"#utility.yul\":17926:17932   */\n      dup3\n        /* \"#utility.yul\":17922:17937   */\n      add\n        /* \"#utility.yul\":17915:17949   */\n      mstore\n        /* \"#utility.yul\":17730:17956   */\n      pop\n      jump\t// out\n        /* \"#utility.yul\":17962:18328   */\n    tag_359:\n        /* \"#utility.yul\":18104:18107   */\n      0x00\n        /* \"#utility.yul\":18125:18192   */\n      tag_556\n        /* \"#utility.yul\":18189:18191   */\n      0x27\n        /* \"#utility.yul\":18184:18187   */\n      dup4\n        /* \"#utility.yul\":18125:18192   */\n      tag_353\n      jump\t// in\n    tag_556:\n        /* \"#utility.yul\":18118:18192   */\n      swap2\n      pop\n        /* \"#utility.yul\":18201:18294   */\n      tag_557\n        /* \"#utility.yul\":18290:18293   */\n      dup3\n        /* \"#utility.yul\":18201:18294   */\n      tag_358\n      jump\t// in\n    tag_557:\n        /* \"#utility.yul\":18319:18321   */\n      0x40\n        /* \"#utility.yul\":18314:18317   */\n      dup3\n        /* \"#utility.yul\":18310:18322   */\n      add\n        /* \"#utility.yul\":18303:18322   */\n      swap1\n      pop\n        /* \"#utility.yul\":17962:18328   */\n      swap2\n      swap1\n      pop\n      jump\t// out\n        /* \"#utility.yul\":18334:18753   */\n    tag_215:\n        /* \"#utility.yul\":18500:18504   */\n      0x00\n        /* \"#utility.yul\":18538:18540   */\n      0x20\n        /* \"#utility.yul\":18527:18536   */\n      dup3\n        /* \"#utility.yul\":18523:18541   */\n      add\n        /* \"#utility.yul\":18515:18541   */\n      swap1\n      pop\n        /* \"#utility.yul\":18587:18596   */\n      dup2\n        /* \"#utility.yul\":18581:18585   */\n      dup2\n        /* \"#utility.yul\":18577:18597   */\n      sub\n        /* \"#utility.yul\":18573:18574   */\n      0x00\n        /* \"#utility.yul\":18562:18571   */\n      dup4\n        /* \"#utility.yul\":18558:18575   */\n      add\n        /* \"#utility.yul\":18551:18598   */\n      mstore\n        /* \"#utility.yul\":18615:18746   */\n      tag_559\n        /* \"#utility.yul\":18741:18745   */\n      dup2\n        /* \"#utility.yul\":18615:18746   */\n      tag_359\n      jump\t// in\n    tag_559:\n        /* \"#utility.yul\":18607:18746   */\n      swap1\n      pop\n        /* \"#utility.yul\":18334:18753   */\n      swap2\n      swap1\n      pop\n      jump\t// out\n        /* \"#utility.yul\":18759:18980   */\n    tag_360:\n        /* \"#utility.yul\":18899:18933   */\n      0x5377617020457870656374656420746f204661696c206f7220746f6f20476173\n        /* \"#utility.yul\":18895:18896   */\n      0x00\n        /* \"#utility.yul\":18887:18893   */\n      dup3\n        /* \"#utility.yul\":18883:18897   */\n      add\n        /* \"#utility.yul\":18876:18934   */\n      mstore\n        /* \"#utility.yul\":18968:18972   */\n      0x7379000000000000000000000000000000000000000000000000000000000000\n        /* \"#utility.yul\":18963:18965   */\n      0x20\n        /* \"#utility.yul\":18955:18961   */\n      dup3\n        /* \"#utility.yul\":18951:18966   */\n      add\n        /* \"#utility.yul\":18944:18973   */\n      mstore\n        /* \"#utility.yul\":18759:18980   */\n      pop\n      jump\t// out\n        /* \"#utility.yul\":18986:19352   */\n    tag_361:\n        /* \"#utility.yul\":19128:19131   */\n      0x00\n        /* \"#utility.yul\":19149:19216   */\n      tag_562\n        /* \"#utility.yul\":19213:19215   */\n      0x22\n        /* \"#utility.yul\":19208:19211   */\n      dup4\n        /* \"#utility.yul\":19149:19216   */\n      tag_353\n      jump\t// in\n    tag_562:\n        /* \"#utility.yul\":19142:19216   */\n      swap2\n      pop\n        /* \"#utility.yul\":19225:19318   */\n      tag_563\n        /* \"#utility.yul\":19314:19317   */\n      dup3\n        /* \"#utility.yul\":19225:19318   */\n      tag_360\n      jump\t// in\n    tag_563:\n        /* \"#utility.yul\":19343:19345   */\n      0x40\n        /* \"#utility.yul\":19338:19341   */\n      dup3\n        /* \"#utility.yul\":19334:19346   */\n      add\n        /* \"#utility.yul\":19327:19346   */\n      swap1\n      pop\n        /* \"#utility.yul\":18986:19352   */\n      swap2\n      swap1\n      pop\n      jump\t// out\n        /* \"#utility.yul\":19358:19777   */\n    tag_219:\n        /* \"#utility.yul\":19524:19528   */\n      0x00\n        /* \"#utility.yul\":19562:19564   */\n      0x20\n        /* \"#utility.yul\":19551:19560   */\n      dup3\n        /* \"#utility.yul\":19547:19565   */\n      add\n        /* \"#utility.yul\":19539:19565   */\n      swap1\n      pop\n        /* \"#utility.yul\":19611:19620   */\n      dup2\n        /* \"#utility.yul\":19605:19609   */\n      dup2\n        /* \"#utility.yul\":19601:19621   */\n      sub\n        /* \"#utility.yul\":19597:19598   */\n      0x00\n        /* \"#utility.yul\":19586:19595   */\n      dup4\n        /* \"#utility.yul\":19582:19599   */\n      add\n        /* \"#utility.yul\":19575:19622   */\n      mstore\n        /* \"#utility.yul\":19639:19770   */\n      tag_565\n        /* \"#utility.yul\":19765:19769   */\n      dup2\n        /* \"#utility.yul\":19639:19770   */\n      tag_361\n      jump\t// in\n    tag_565:\n        /* \"#utility.yul\":19631:19770   */\n      swap1\n      pop\n        /* \"#utility.yul\":19358:19777   */\n      swap2\n      swap1\n      pop\n      jump\t// out\n        /* \"#utility.yul\":19783:20266   */\n    tag_231:\n        /* \"#utility.yul\":19954:19958   */\n      0x00\n        /* \"#utility.yul\":19992:19994   */\n      0x40\n        /* \"#utility.yul\":19981:19990   */\n      dup3\n        /* \"#utility.yul\":19977:19995   */\n      add\n        /* \"#utility.yul\":19969:19995   */\n      swap1\n      pop\n        /* \"#utility.yul\":20005:20076   */\n      tag_567\n        /* \"#utility.yul\":20073:20074   */\n      0x00\n        /* \"#utility.yul\":20062:20071   */\n      dup4\n        /* \"#utility.yul\":20058:20075   */\n      add\n        /* \"#utility.yul\":20049:20055   */\n      dup6\n        /* \"#utility.yul\":20005:20076   */\n      tag_321\n      jump\t// in\n    tag_567:\n        /* \"#utility.yul\":20123:20132   */\n      dup2\n        /* \"#utility.yul\":20117:20121   */\n      dup2\n        /* \"#utility.yul\":20113:20133   */\n      sub\n        /* \"#utility.yul\":20108:20110   */\n      0x20\n        /* \"#utility.yul\":20097:20106   */\n      dup4\n        /* \"#utility.yul\":20093:20111   */\n      add\n        /* \"#utility.yul\":20086:20134   */\n      mstore\n        /* \"#utility.yul\":20151:20259   */\n      tag_568\n        /* \"#utility.yul\":20254:20258   */\n      dup2\n        /* \"#utility.yul\":20245:20251   */\n      dup5\n        /* \"#utility.yul\":20151:20259   */\n      tag_341\n      jump\t// in\n    tag_568:\n        /* \"#utility.yul\":20143:20259   */\n      swap1\n      pop\n        /* \"#utility.yul\":19783:20266   */\n      swap4\n      swap3\n      pop\n      pop\n      pop\n      jump\t// out\n        /* \"#utility.yul\":20272:20501   */\n    tag_362:\n        /* \"#utility.yul\":20412:20446   */\n      0x457870656374656420616d6f756e74206c657373207468616e206d696e696d75\n        /* \"#utility.yul\":20408:20409   */\n      0x00\n        /* \"#utility.yul\":20400:20406   */\n      dup3\n        /* \"#utility.yul\":20396:20410   */\n      add\n        /* \"#utility.yul\":20389:20447   */\n      mstore\n        /* \"#utility.yul\":20481:20493   */\n      0x6d20726571756972656400000000000000000000000000000000000000000000\n        /* \"#utility.yul\":20476:20478   */\n      0x20\n        /* \"#utility.yul\":20468:20474   */\n      dup3\n        /* \"#utility.yul\":20464:20479   */\n      add\n        /* \"#utility.yul\":20457:20494   */\n      mstore\n        /* \"#utility.yul\":20272:20501   */\n      pop\n      jump\t// out\n        /* \"#utility.yul\":20507:20873   */\n    tag_363:\n        /* \"#utility.yul\":20649:20652   */\n      0x00\n        /* \"#utility.yul\":20670:20737   */\n      tag_571\n        /* \"#utility.yul\":20734:20736   */\n      0x2a\n        /* \"#utility.yul\":20729:20732   */\n      dup4\n        /* \"#utility.yul\":20670:20737   */\n      tag_353\n      jump\t// in\n    tag_571:\n        /* \"#utility.yul\":20663:20737   */\n      swap2\n      pop\n        /* \"#utility.yul\":20746:20839   */\n      tag_572\n        /* \"#utility.yul\":20835:20838   */\n      dup3\n        /* \"#utility.yul\":20746:20839   */\n      tag_362\n      jump\t// in\n    tag_572:\n        /* \"#utility.yul\":20864:20866   */\n      0x40\n        /* \"#utility.yul\":20859:20862   */\n      dup3\n        /* \"#utility.yul\":20855:20867   */\n      add\n        /* \"#utility.yul\":20848:20867   */\n      swap1\n      pop\n        /* \"#utility.yul\":20507:20873   */\n      swap2\n      swap1\n      pop\n      jump\t// out\n        /* \"#utility.yul\":20879:21298   */\n    tag_239:\n        /* \"#utility.yul\":21045:21049   */\n      0x00\n        /* \"#utility.yul\":21083:21085   */\n      0x20\n        /* \"#utility.yul\":21072:21081   */\n      dup3\n        /* \"#utility.yul\":21068:21086   */\n      add\n        /* \"#utility.yul\":21060:21086   */\n      swap1\n      pop\n        /* \"#utility.yul\":21132:21141   */\n      dup2\n        /* \"#utility.yul\":21126:21130   */\n      dup2\n        /* \"#utility.yul\":21122:21142   */\n      sub\n        /* \"#utility.yul\":21118:21119   */\n      0x00\n        /* \"#utility.yul\":21107:21116   */\n      dup4\n        /* \"#utility.yul\":21103:21120   */\n      add\n        /* \"#utility.yul\":21096:21143   */\n      mstore\n        /* \"#utility.yul\":21160:21291   */\n      tag_574\n        /* \"#utility.yul\":21286:21290   */\n      dup2\n        /* \"#utility.yul\":21160:21291   */\n      tag_363\n      jump\t// in\n    tag_574:\n        /* \"#utility.yul\":21152:21291   */\n      swap1\n      pop\n        /* \"#utility.yul\":20879:21298   */\n      swap2\n      swap1\n      pop\n      jump\t// out\n        /* \"#utility.yul\":21304:21495   */\n    tag_267:\n        /* \"#utility.yul\":21344:21347   */\n      0x00\n        /* \"#utility.yul\":21363:21383   */\n      tag_576\n        /* \"#utility.yul\":21381:21382   */\n      dup3\n        /* \"#utility.yul\":21363:21383   */\n      tag_318\n      jump\t// in\n    tag_576:\n        /* \"#utility.yul\":21358:21383   */\n      swap2\n      pop\n        /* \"#utility.yul\":21397:21417   */\n      tag_577\n        /* \"#utility.yul\":21415:21416   */\n      dup4\n        /* \"#utility.yul\":21397:21417   */\n      tag_318\n      jump\t// in\n    tag_577:\n        /* \"#utility.yul\":21392:21417   */\n      swap3\n      pop\n        /* \"#utility.yul\":21440:21441   */\n      dup3\n        /* \"#utility.yul\":21437:21438   */\n      dup3\n        /* \"#utility.yul\":21433:21442   */\n      add\n        /* \"#utility.yul\":21426:21442   */\n      swap1\n      pop\n        /* \"#utility.yul\":21461:21464   */\n      dup1\n        /* \"#utility.yul\":21458:21459   */\n      dup3\n        /* \"#utility.yul\":21455:21465   */\n      gt\n        /* \"#utility.yul\":21452:21488   */\n      iszero\n      tag_578\n      jumpi\n        /* \"#utility.yul\":21468:21486   */\n      tag_579\n      tag_351\n      jump\t// in\n    tag_579:\n        /* \"#utility.yul\":21452:21488   */\n    tag_578:\n        /* \"#utility.yul\":21304:21495   */\n      swap3\n      swap2\n      pop\n      pop\n      jump\t// out\n\n    auxdata: 0xa26469706673582212205fbdda5d0f166f61080ef330d280ca796556e84e2352613a5638b892cc10f0e964736f6c63430008140033\n}\n",
				"bytecode": {
					"linkReferences": {},
					"object": "60806040526102ee600355620360f46004553480156200001d575f80fd5b50604051620026f9380380620026f9833981810160405281019062000043919062000277565b335f73ffffffffffffffffffffffffffffffffffffffff168173ffffffffffffffffffffffffffffffffffffffff1603620000b7575f6040517f1e4fbdf7000000000000000000000000000000000000000000000000000000008152600401620000ae9190620002cd565b60405180910390fd5b620000c8816200015160201b60201c565b508160015f6101000a81548173ffffffffffffffffffffffffffffffffffffffff021916908373ffffffffffffffffffffffffffffffffffffffff1602179055508060025f6101000a81548173ffffffffffffffffffffffffffffffffffffffff021916908373ffffffffffffffffffffffffffffffffffffffff1602179055505050620002e8565b5f805f9054906101000a900473ffffffffffffffffffffffffffffffffffffffff169050815f806101000a81548173ffffffffffffffffffffffffffffffffffffffff021916908373ffffffffffffffffffffffffffffffffffffffff1602179055508173ffffffffffffffffffffffffffffffffffffffff168173ffffffffffffffffffffffffffffffffffffffff167f8be0079c531659141344cd1fd0a4f28419497f9722a3daafe3b4186f6b6457e060405160405180910390a35050565b5f80fd5b5f73ffffffffffffffffffffffffffffffffffffffff82169050919050565b5f620002418262000216565b9050919050565b620002538162000235565b81146200025e575f80fd5b50565b5f81519050620002718162000248565b92915050565b5f806040838503121562000290576200028f62000212565b5b5f6200029f8582860162000261565b9250506020620002b28582860162000261565b9150509250929050565b620002c78162000235565b82525050565b5f602082019050620002e25f830184620002bc565b92915050565b61240380620002f65f395ff3fe6080604052600436106100fd575f3560e01c8063a001ecdd11610094578063bea9849e11610063578063bea9849e14610303578063e15cc8da1461032b578063f14210a614610353578063f2fde38b1461037b578063f6326fb3146103a3576100fd565b8063a001ecdd14610237578063ad9902a114610261578063ae06c1b71461029f578063b4798209146102c7576100fd565b8063735de9f7116100d0578063735de9f7146101915780638da5cb5b146101bb57806393ad7440146101e557806398281c751461020f576100fd565b80630fe6a78714610101578063344954af146101295780634e63c29e14610153578063715018a61461017b575b5f80fd5b34801561010c575f80fd5b5061012760048036038101906101229190611977565b6103ad565b005b348015610134575f80fd5b5061013d610875565b60405161014a91906119d6565b60405180910390f35b34801561015e575f80fd5b50610179600480360381019061017491906119ef565b61087b565b005b348015610186575f80fd5b5061018f61096b565b005b34801561019c575f80fd5b506101a561097e565b6040516101b29190611a75565b60405180910390f35b3480156101c6575f80fd5b506101cf6109a3565b6040516101dc9190611a9d565b60405180910390f35b3480156101f0575f80fd5b506101f96109ca565b6040516102069190611ad6565b60405180910390f35b34801561021a575f80fd5b5061023560048036038101906102309190611aef565b6109ef565b005b348015610242575f80fd5b5061024b610a01565b60405161025891906119d6565b60405180910390f35b34801561026c575f80fd5b5061028760048036038101906102829190611b1a565b610a07565b60405161029693929190611b98565b60405180910390f35b3480156102aa575f80fd5b506102c560048036038101906102c09190611aef565b610c29565b005b3480156102d2575f80fd5b506102ed60048036038101906102e89190611977565b610c72565b6040516102fa9190611bcd565b60405180910390f35b34801561030e575f80fd5b50610329600480360381019061032491906119ef565b610e4a565b005b348015610336575f80fd5b50610351600480360381019061034c9190611977565b610f03565b005b34801561035e575f80fd5b5061037960048036038101906103749190611aef565b6115d9565b005b348015610386575f80fd5b506103a1600480360381019061039c91906119ef565b61162f565b005b6103ab6116b3565b005b8273ffffffffffffffffffffffffffffffffffffffff166323b872dd3330856040518463ffffffff1660e01b81526004016103ea93929190611be6565b6020604051808303815f875af1158015610406573d5f803e3d5ffd5b505050506040513d601f19601f8201168201806040525081019061042a9190611c45565b508273ffffffffffffffffffffffffffffffffffffffff1663095ea7b360015f9054906101000a900473ffffffffffffffffffffffffffffffffffffffff16846040518363ffffffff1660e01b8152600401610487929190611c70565b6020604051808303815f875af11580156104a3573d5f803e3d5ffd5b505050506040513d601f19601f820116820180604052508101906104c79190611c45565b505f600267ffffffffffffffff8111156104e4576104e3611c97565b5b6040519080825280602002602001820160405280156105125781602001602082028036833780820191505090505b50905083815f8151811061052957610528611cc4565b5b602002602001019073ffffffffffffffffffffffffffffffffffffffff16908173ffffffffffffffffffffffffffffffffffffffff168152505060015f9054906101000a900473ffffffffffffffffffffffffffffffffffffffff1673ffffffffffffffffffffffffffffffffffffffff1663ad5c46486040518163ffffffff1660e01b8152600401602060405180830381865afa1580156105cd573d5f803e3d5ffd5b505050506040513d601f19601f820116820180604052508101906105f19190611d05565b8160018151811061060557610604611cc4565b5b602002602001019073ffffffffffffffffffffffffffffffffffffffff16908173ffffffffffffffffffffffffffffffffffffffff16815250505f60015f9054906101000a900473ffffffffffffffffffffffffffffffffffffffff1673ffffffffffffffffffffffffffffffffffffffff166318cbafe585858530426040518663ffffffff1660e01b81526004016106a2959493929190611de7565b5f604051808303815f875af11580156106bd573d5f803e3d5ffd5b505050506040513d5f823e3d601f19601f820116820180604052508101906106e59190611f76565b90505f816001815181106106fc576106fb611cc4565b5b602002602001015190505f612710600354836107189190611fea565b6107229190612058565b90505f6064605a836107349190611fea565b61073e9190612058565b905060025f9054906101000a900473ffffffffffffffffffffffffffffffffffffffff1673ffffffffffffffffffffffffffffffffffffffff1663099da9e9826040518263ffffffff1660e01b815260040161079a91906119d6565b5f604051808303815f87803b1580156107b1575f80fd5b505af11580156107c3573d5f803e3d5ffd5b505050505f82846107d49190612088565b90503373ffffffffffffffffffffffffffffffffffffffff166108fc8290811502906040515f60405180830381858888f19350505050158015610819573d5f803e3d5ffd5b503373ffffffffffffffffffffffffffffffffffffffff167fd0dcb5d6ccbc65558941eda1d0add99921923cc1868a41bbf8d224258a21396d89866040516108629291906120bb565b60405180910390a2505050505050505050565b60045481565b6108836116b5565b5f73ffffffffffffffffffffffffffffffffffffffff168173ffffffffffffffffffffffffffffffffffffffff16036108f1576040517f08c379a00000000000000000000000000000000000000000000000000000000081526004016108e89061213c565b60405180910390fd5b8060025f6101000a81548173ffffffffffffffffffffffffffffffffffffffff021916908373ffffffffffffffffffffffffffffffffffffffff1602179055507fecb9755730c832a50c16ea8001a277be77d816b09dc686fe072d4f2285e5cece816040516109609190611a9d565b60405180910390a150565b6109736116b5565b61097c5f61173c565b565b60015f9054906101000a900473ffffffffffffffffffffffffffffffffffffffff1681565b5f805f9054906101000a900473ffffffffffffffffffffffffffffffffffffffff16905090565b60025f9054906101000a900473ffffffffffffffffffffffffffffffffffffffff1681565b6109f76116b5565b8060048190555050565b60035481565b5f805f80600267ffffffffffffffff811115610a2657610a25611c97565b5b604051908082528060200260200182016040528015610a545781602001602082028036833780820191505090505b50905087815f81518110610a6b57610a6a611cc4565b5b602002602001019073ffffffffffffffffffffffffffffffffffffffff16908173ffffffffffffffffffffffffffffffffffffffff168152505060015f9054906101000a900473ffffffffffffffffffffffffffffffffffffffff1673ffffffffffffffffffffffffffffffffffffffff1663ad5c46486040518163ffffffff1660e01b8152600401602060405180830381865afa158015610b0f573d5f803e3d5ffd5b505050506040513d601f19601f82011682018060405250810190610b339190611d05565b81600181518110610b4757610b46611cc4565b5b602002602001019073ffffffffffffffffffffffffffffffffffffffff16908173ffffffffffffffffffffffffffffffffffffffff16815250505f80610b8d89846117fd565b9150915081610bd1576040517f08c379a0000000000000000000000000000000000000000000000000000000008152600401610bc8906121a4565b60405180910390fd5b61271088612710610be29190612088565b82610bed9190611fea565b610bf79190612058565b955086600454610c079190611fea565b94508585610c168c8c8b610c72565b9550955095505050509450945094915050565b610c316116b5565b806003819055507f8c4d35e54a3f2ef1134138fd8ea3daee6a3c89e10d2665996babdf70261e2c7681604051610c6791906119d6565b60405180910390a150565b5f80600267ffffffffffffffff811115610c8f57610c8e611c97565b5b604051908082528060200260200182016040528015610cbd5781602001602082028036833780820191505090505b50905084815f81518110610cd457610cd3611cc4565b5b602002602001019073ffffffffffffffffffffffffffffffffffffffff16908173ffffffffffffffffffffffffffffffffffffffff168152505060015f9054906101000a900473ffffffffffffffffffffffffffffffffffffffff1673ffffffffffffffffffffffffffffffffffffffff1663ad5c46486040518163ffffffff1660e01b8152600401602060405180830381865afa158015610d78573d5f803e3d5ffd5b505050506040513d601f19601f82011682018060405250810190610d9c9190611d05565b81600181518110610db057610daf611cc4565b5b602002602001019073ffffffffffffffffffffffffffffffffffffffff16908173ffffffffffffffffffffffffffffffffffffffff16815250505f80610df686846117fd565b91509150811580610e0657505f81145b15610e16575f9350505050610e43565b5f85600454610e259190611fea565b9050818110610e3a575f945050505050610e43565b60019450505050505b9392505050565b610e526116b5565b5f73ffffffffffffffffffffffffffffffffffffffff168173ffffffffffffffffffffffffffffffffffffffff1603610ec0576040517f08c379a0000000000000000000000000000000000000000000000000000000008152600401610eb79061213c565b60405180910390fd5b8060015f6101000a81548173ffffffffffffffffffffffffffffffffffffffff021916908373ffffffffffffffffffffffffffffffffffffffff16021790555050565b5f3a600454610f129190611fea565b9050818110610f56576040517f08c379a0000000000000000000000000000000000000000000000000000000008152600401610f4d90612232565b60405180910390fd5b610f6184843a610c72565b610fa0576040517f08c379a0000000000000000000000000000000000000000000000000000000008152600401610f97906122c0565b60405180910390fd5b5f600267ffffffffffffffff811115610fbc57610fbb611c97565b5b604051908082528060200260200182016040528015610fea5781602001602082028036833780820191505090505b50905084815f8151811061100157611000611cc4565b5b602002602001019073ffffffffffffffffffffffffffffffffffffffff16908173ffffffffffffffffffffffffffffffffffffffff168152505060015f9054906101000a900473ffffffffffffffffffffffffffffffffffffffff1673ffffffffffffffffffffffffffffffffffffffff1663ad5c46486040518163ffffffff1660e01b8152600401602060405180830381865afa1580156110a5573d5f803e3d5ffd5b505050506040513d601f19601f820116820180604052508101906110c99190611d05565b816001815181106110dd576110dc611cc4565b5b602002602001019073ffffffffffffffffffffffffffffffffffffffff16908173ffffffffffffffffffffffffffffffffffffffff16815250505f60015f9054906101000a900473ffffffffffffffffffffffffffffffffffffffff1673ffffffffffffffffffffffffffffffffffffffff1663d06ca61f86846040518363ffffffff1660e01b81526004016111749291906122de565b5f60405180830381865afa15801561118e573d5f803e3d5ffd5b505050506040513d5f823e3d601f19601f820116820180604052508101906111b69190611f76565b90505f816001815181106111cd576111cc611cc4565b5b602002602001015190508481101561121a576040517f08c379a00000000000000000000000000000000000000000000000000000000081526004016112119061237c565b60405180910390fd5b8673ffffffffffffffffffffffffffffffffffffffff166323b872dd3330896040518463ffffffff1660e01b815260040161125793929190611be6565b6020604051808303815f875af1158015611273573d5f803e3d5ffd5b505050506040513d601f19601f820116820180604052508101906112979190611c45565b508673ffffffffffffffffffffffffffffffffffffffff1663095ea7b360015f9054906101000a900473ffffffffffffffffffffffffffffffffffffffff16886040518363ffffffff1660e01b81526004016112f4929190611c70565b6020604051808303815f875af1158015611310573d5f803e3d5ffd5b505050506040513d601f19601f820116820180604052508101906113349190611c45565b505f60015f9054906101000a900473ffffffffffffffffffffffffffffffffffffffff1673ffffffffffffffffffffffffffffffffffffffff166318cbafe588888730426040518663ffffffff1660e01b8152600401611398959493929190611de7565b5f604051808303815f875af11580156113b3573d5f803e3d5ffd5b505050506040513d5f823e3d601f19601f820116820180604052508101906113db9190611f76565b90505f816001815181106113f2576113f1611cc4565b5b602002602001015190505f87841161140a575f611417565b87846114169190612088565b5b90505f848311611427575f611434565b84836114339190612088565b5b90505f60646028836114469190611fea565b6114509190612058565b6127106003548486886114639190612088565b61146d9190612088565b6114779190611fea565b6114819190612058565b61148b919061239a565b905060025f9054906101000a900473ffffffffffffffffffffffffffffffffffffffff1673ffffffffffffffffffffffffffffffffffffffff1663099da9e96064605a846114d99190611fea565b6114e39190612058565b6040518263ffffffff1660e01b81526004016114ff91906119d6565b5f604051808303815f87803b158015611516575f80fd5b505af1158015611528573d5f803e3d5ffd5b505050503373ffffffffffffffffffffffffffffffffffffffff166108fc82866115529190612088565b90811502906040515f60405180830381858888f1935050505015801561157a573d5f803e3d5ffd5b503373ffffffffffffffffffffffffffffffffffffffff167fd0dcb5d6ccbc65558941eda1d0add99921923cc1868a41bbf8d224258a21396d8c866040516115c39291906120bb565b60405180910390a2505050505050505050505050565b6115e16116b5565b6115e96109a3565b73ffffffffffffffffffffffffffffffffffffffff166108fc8290811502906040515f60405180830381858888f1935050505015801561162b573d5f803e3d5ffd5b5050565b6116376116b5565b5f73ffffffffffffffffffffffffffffffffffffffff168173ffffffffffffffffffffffffffffffffffffffff16036116a7575f6040517f1e4fbdf700000000000000000000000000000000000000000000000000000000815260040161169e9190611a9d565b60405180910390fd5b6116b08161173c565b50565b565b6116bd6118d2565b73ffffffffffffffffffffffffffffffffffffffff166116db6109a3565b73ffffffffffffffffffffffffffffffffffffffff161461173a576116fe6118d2565b6040517f118cdaa70000000000000000000000000000000000000000000000000000000081526004016117319190611a9d565b60405180910390fd5b565b5f805f9054906101000a900473ffffffffffffffffffffffffffffffffffffffff169050815f806101000a81548173ffffffffffffffffffffffffffffffffffffffff021916908373ffffffffffffffffffffffffffffffffffffffff1602179055508173ffffffffffffffffffffffffffffffffffffffff168173ffffffffffffffffffffffffffffffffffffffff167f8be0079c531659141344cd1fd0a4f28419497f9722a3daafe3b4186f6b6457e060405160405180910390a35050565b5f8060015f9054906101000a900473ffffffffffffffffffffffffffffffffffffffff1673ffffffffffffffffffffffffffffffffffffffff1663d06ca61f85856040518363ffffffff1660e01b815260040161185b9291906122de565b5f60405180830381865afa92505050801561189857506040513d5f823e3d601f19601f820116820180604052508101906118959190611f76565b60015b6118a7575f80915091506118cb565b6001816001815181106118bd576118bc611cc4565b5b602002602001015192509250505b9250929050565b5f33905090565b5f604051905090565b5f80fd5b5f80fd5b5f73ffffffffffffffffffffffffffffffffffffffff82169050919050565b5f611913826118ea565b9050919050565b61192381611909565b811461192d575f80fd5b50565b5f8135905061193e8161191a565b92915050565b5f819050919050565b61195681611944565b8114611960575f80fd5b50565b5f813590506119718161194d565b92915050565b5f805f6060848603121561198e5761198d6118e2565b5b5f61199b86828701611930565b93505060206119ac86828701611963565b92505060406119bd86828701611963565b9150509250925092565b6119d081611944565b82525050565b5f6020820190506119e95f8301846119c7565b92915050565b5f60208284031215611a0457611a036118e2565b5b5f611a1184828501611930565b91505092915050565b5f819050919050565b5f611a3d611a38611a33846118ea565b611a1a565b6118ea565b9050919050565b5f611a4e82611a23565b9050919050565b5f611a5f82611a44565b9050919050565b611a6f81611a55565b82525050565b5f602082019050611a885f830184611a66565b92915050565b611a9781611909565b82525050565b5f602082019050611ab05f830184611a8e565b92915050565b5f611ac082611a44565b9050919050565b611ad081611ab6565b82525050565b5f602082019050611ae95f830184611ac7565b92915050565b5f60208284031215611b0457611b036118e2565b5b5f611b1184828501611963565b91505092915050565b5f805f8060808587031215611b3257611b316118e2565b5b5f611b3f87828801611930565b9450506020611b5087828801611963565b9350506040611b6187828801611963565b9250506060611b7287828801611963565b91505092959194509250565b5f8115159050919050565b611b9281611b7e565b82525050565b5f606082019050611bab5f8301866119c7565b611bb860208301856119c7565b611bc56040830184611b89565b949350505050565b5f602082019050611be05f830184611b89565b92915050565b5f606082019050611bf95f830186611a8e565b611c066020830185611a8e565b611c1360408301846119c7565b949350505050565b611c2481611b7e565b8114611c2e575f80fd5b50565b5f81519050611c3f81611c1b565b92915050565b5f60208284031215611c5a57611c596118e2565b5b5f611c6784828501611c31565b91505092915050565b5f604082019050611c835f830185611a8e565b611c9060208301846119c7565b9392505050565b7f4e487b71000000000000000000000000000000000000000000000000000000005f52604160045260245ffd5b7f4e487b71000000000000000000000000000000000000000000000000000000005f52603260045260245ffd5b5f81519050611cff8161191a565b92915050565b5f60208284031215611d1a57611d196118e2565b5b5f611d2784828501611cf1565b91505092915050565b5f81519050919050565b5f82825260208201905092915050565b5f819050602082019050919050565b611d6281611909565b82525050565b5f611d738383611d59565b60208301905092915050565b5f602082019050919050565b5f611d9582611d30565b611d9f8185611d3a565b9350611daa83611d4a565b805f5b83811015611dda578151611dc18882611d68565b9750611dcc83611d7f565b925050600181019050611dad565b5085935050505092915050565b5f60a082019050611dfa5f8301886119c7565b611e0760208301876119c7565b8181036040830152611e198186611d8b565b9050611e286060830185611a8e565b611e3560808301846119c7565b9695505050505050565b5f80fd5b5f601f19601f8301169050919050565b611e5c82611e43565b810181811067ffffffffffffffff82111715611e7b57611e7a611c97565b5b80604052505050565b5f611e8d6118d9565b9050611e998282611e53565b919050565b5f67ffffffffffffffff821115611eb857611eb7611c97565b5b602082029050602081019050919050565b5f80fd5b5f81519050611edb8161194d565b92915050565b5f611ef3611eee84611e9e565b611e84565b90508083825260208201905060208402830185811115611f1657611f15611ec9565b5b835b81811015611f3f5780611f2b8882611ecd565b845260208401935050602081019050611f18565b5050509392505050565b5f82601f830112611f5d57611f5c611e3f565b5b8151611f6d848260208601611ee1565b91505092915050565b5f60208284031215611f8b57611f8a6118e2565b5b5f82015167ffffffffffffffff811115611fa857611fa76118e6565b5b611fb484828501611f49565b91505092915050565b7f4e487b71000000000000000000000000000000000000000000000000000000005f52601160045260245ffd5b5f611ff482611944565b9150611fff83611944565b925082820261200d81611944565b9150828204841483151761202457612023611fbd565b5b5092915050565b7f4e487b71000000000000000000000000000000000000000000000000000000005f52601260045260245ffd5b5f61206282611944565b915061206d83611944565b92508261207d5761207c61202b565b5b828204905092915050565b5f61209282611944565b915061209d83611944565b92508282039050818111156120b5576120b4611fbd565b5b92915050565b5f6040820190506120ce5f8301856119c7565b6120db60208301846119c7565b9392505050565b5f82825260208201905092915050565b7f496e76616c6964206164647265737300000000000000000000000000000000005f82015250565b5f612126600f836120e2565b9150612131826120f2565b602082019050919050565b5f6020820190508181035f8301526121538161211a565b9050919050565b7f4e6f206c697175696469747920666f72207468697320746f6b656e00000000005f82015250565b5f61218e601b836120e2565b91506121998261215a565b602082019050919050565b5f6020820190508181035f8301526121bb81612182565b9050919050565b7f457374696d617465642067617320636f73742065786365656473206d696e416d5f8201527f6f756e744f757400000000000000000000000000000000000000000000000000602082015250565b5f61221c6027836120e2565b9150612227826121c2565b604082019050919050565b5f6020820190508181035f83015261224981612210565b9050919050565b7f5377617020457870656374656420746f204661696c206f7220746f6f204761735f8201527f7379000000000000000000000000000000000000000000000000000000000000602082015250565b5f6122aa6022836120e2565b91506122b582612250565b604082019050919050565b5f6020820190508181035f8301526122d78161229e565b9050919050565b5f6040820190506122f15f8301856119c7565b81810360208301526123038184611d8b565b90509392505050565b7f457870656374656420616d6f756e74206c657373207468616e206d696e696d755f8201527f6d20726571756972656400000000000000000000000000000000000000000000602082015250565b5f612366602a836120e2565b91506123718261230c565b604082019050919050565b5f6020820190508181035f8301526123938161235a565b9050919050565b5f6123a482611944565b91506123af83611944565b92508282019050808211156123c7576123c6611fbd565b5b9291505056fea26469706673582212205fbdda5d0f166f61080ef330d280ca796556e84e2352613a5638b892cc10f0e964736f6c63430008140033",
					"opcodes": "PUSH1 0x80 PUSH1 0x40 MSTORE PUSH2 0x2EE PUSH1 0x3 SSTORE PUSH3 0x360F4 PUSH1 0x4 SSTORE CALLVALUE DUP1 ISZERO PUSH3 0x1D JUMPI PUSH0 DUP1 REVERT JUMPDEST POP PUSH1 0x40 MLOAD PUSH3 0x26F9 CODESIZE SUB DUP1 PUSH3 0x26F9 DUP4 CODECOPY DUP2 DUP2 ADD PUSH1 0x40 MSTORE DUP2 ADD SWAP1 PUSH3 0x43 SWAP2 SWAP1 PUSH3 0x277 JUMP JUMPDEST CALLER PUSH0 PUSH20 0xFFFFFFFFFFFFFFFFFFFFFFFFFFFFFFFFFFFFFFFF AND DUP2 PUSH20 0xFFFFFFFFFFFFFFFFFFFFFFFFFFFFFFFFFFFFFFFF AND SUB PUSH3 0xB7 JUMPI PUSH0 PUSH1 0x40 MLOAD PUSH32 0x1E4FBDF700000000000000000000000000000000000000000000000000000000 DUP2 MSTORE PUSH1 0x4 ADD PUSH3 0xAE SWAP2 SWAP1 PUSH3 0x2CD JUMP JUMPDEST PUSH1 0x40 MLOAD DUP1 SWAP2 SUB SWAP1 REVERT JUMPDEST PUSH3 0xC8 DUP2 PUSH3 0x151 PUSH1 0x20 SHL PUSH1 0x20 SHR JUMP JUMPDEST POP DUP2 PUSH1 0x1 PUSH0 PUSH2 0x100 EXP DUP2 SLOAD DUP2 PUSH20 0xFFFFFFFFFFFFFFFFFFFFFFFFFFFFFFFFFFFFFFFF MUL NOT AND SWAP1 DUP4 PUSH20 0xFFFFFFFFFFFFFFFFFFFFFFFFFFFFFFFFFFFFFFFF AND MUL OR SWAP1 SSTORE POP DUP1 PUSH1 0x2 PUSH0 PUSH2 0x100 EXP DUP2 SLOAD DUP2 PUSH20 0xFFFFFFFFFFFFFFFFFFFFFFFFFFFFFFFFFFFFFFFF MUL NOT AND SWAP1 DUP4 PUSH20 0xFFFFFFFFFFFFFFFFFFFFFFFFFFFFFFFFFFFFFFFF AND MUL OR SWAP1 SSTORE POP POP POP PUSH3 0x2E8 JUMP JUMPDEST PUSH0 DUP1 PUSH0 SWAP1 SLOAD SWAP1 PUSH2 0x100 EXP SWAP1 DIV PUSH20 0xFFFFFFFFFFFFFFFFFFFFFFFFFFFFFFFFFFFFFFFF AND SWAP1 POP DUP2 PUSH0 DUP1 PUSH2 0x100 EXP DUP2 SLOAD DUP2 PUSH20 0xFFFFFFFFFFFFFFFFFFFFFFFFFFFFFFFFFFFFFFFF MUL NOT AND SWAP1 DUP4 PUSH20 0xFFFFFFFFFFFFFFFFFFFFFFFFFFFFFFFFFFFFFFFF AND MUL OR SWAP1 SSTORE POP DUP2 PUSH20 0xFFFFFFFFFFFFFFFFFFFFFFFFFFFFFFFFFFFFFFFF AND DUP2 PUSH20 0xFFFFFFFFFFFFFFFFFFFFFFFFFFFFFFFFFFFFFFFF AND PUSH32 0x8BE0079C531659141344CD1FD0A4F28419497F9722A3DAAFE3B4186F6B6457E0 PUSH1 0x40 MLOAD PUSH1 0x40 MLOAD DUP1 SWAP2 SUB SWAP1 LOG3 POP POP JUMP JUMPDEST PUSH0 DUP1 REVERT JUMPDEST PUSH0 PUSH20 0xFFFFFFFFFFFFFFFFFFFFFFFFFFFFFFFFFFFFFFFF DUP3 AND SWAP1 POP SWAP2 SWAP1 POP JUMP JUMPDEST PUSH0 PUSH3 0x241 DUP3 PUSH3 0x216 JUMP JUMPDEST SWAP1 POP SWAP2 SWAP1 POP JUMP JUMPDEST PUSH3 0x253 DUP2 PUSH3 0x235 JUMP JUMPDEST DUP2 EQ PUSH3 0x25E JUMPI PUSH0 DUP1 REVERT JUMPDEST POP JUMP JUMPDEST PUSH0 DUP2 MLOAD SWAP1 POP PUSH3 0x271 DUP2 PUSH3 0x248 JUMP JUMPDEST SWAP3 SWAP2 POP POP JUMP JUMPDEST PUSH0 DUP1 PUSH1 0x40 DUP4 DUP6 SUB SLT ISZERO PUSH3 0x290 JUMPI PUSH3 0x28F PUSH3 0x212 JUMP JUMPDEST JUMPDEST PUSH0 PUSH3 0x29F DUP6 DUP3 DUP7 ADD PUSH3 0x261 JUMP JUMPDEST SWAP3 POP POP PUSH1 0x20 PUSH3 0x2B2 DUP6 DUP3 DUP7 ADD PUSH3 0x261 JUMP JUMPDEST SWAP2 POP POP SWAP3 POP SWAP3 SWAP1 POP JUMP JUMPDEST PUSH3 0x2C7 DUP2 PUSH3 0x235 JUMP JUMPDEST DUP3 MSTORE POP POP JUMP JUMPDEST PUSH0 PUSH1 0x20 DUP3 ADD SWAP1 POP PUSH3 0x2E2 PUSH0 DUP4 ADD DUP5 PUSH3 0x2BC JUMP JUMPDEST SWAP3 SWAP2 POP POP JUMP JUMPDEST PUSH2 0x2403 DUP1 PUSH3 0x2F6 PUSH0 CODECOPY PUSH0 RETURN INVALID PUSH1 0x80 PUSH1 0x40 MSTORE PUSH1 0x4 CALLDATASIZE LT PUSH2 0xFD JUMPI PUSH0 CALLDATALOAD PUSH1 0xE0 SHR DUP1 PUSH4 0xA001ECDD GT PUSH2 0x94 JUMPI DUP1 PUSH4 0xBEA9849E GT PUSH2 0x63 JUMPI DUP1 PUSH4 0xBEA9849E EQ PUSH2 0x303 JUMPI DUP1 PUSH4 0xE15CC8DA EQ PUSH2 0x32B JUMPI DUP1 PUSH4 0xF14210A6 EQ PUSH2 0x353 JUMPI DUP1 PUSH4 0xF2FDE38B EQ PUSH2 0x37B JUMPI DUP1 PUSH4 0xF6326FB3 EQ PUSH2 0x3A3 JUMPI PUSH2 0xFD JUMP JUMPDEST DUP1 PUSH4 0xA001ECDD EQ PUSH2 0x237 JUMPI DUP1 PUSH4 0xAD9902A1 EQ PUSH2 0x261 JUMPI DUP1 PUSH4 0xAE06C1B7 EQ PUSH2 0x29F JUMPI DUP1 PUSH4 0xB4798209 EQ PUSH2 0x2C7 JUMPI PUSH2 0xFD JUMP JUMPDEST DUP1 PUSH4 0x735DE9F7 GT PUSH2 0xD0 JUMPI DUP1 PUSH4 0x735DE9F7 EQ PUSH2 0x191 JUMPI DUP1 PUSH4 0x8DA5CB5B EQ PUSH2 0x1BB JUMPI DUP1 PUSH4 0x93AD7440 EQ PUSH2 0x1E5 JUMPI DUP1 PUSH4 0x98281C75 EQ PUSH2 0x20F JUMPI PUSH2 0xFD JUMP JUMPDEST DUP1 PUSH4 0xFE6A787 EQ PUSH2 0x101 JUMPI DUP1 PUSH4 0x344954AF EQ PUSH2 0x129 JUMPI DUP1 PUSH4 0x4E63C29E EQ PUSH2 0x153 JUMPI DUP1 PUSH4 0x715018A6 EQ PUSH2 0x17B JUMPI JUMPDEST PUSH0 DUP1 REVERT JUMPDEST CALLVALUE DUP1 ISZERO PUSH2 0x10C JUMPI PUSH0 DUP1 REVERT JUMPDEST POP PUSH2 0x127 PUSH1 0x4 DUP1 CALLDATASIZE SUB DUP2 ADD SWAP1 PUSH2 0x122 SWAP2 SWAP1 PUSH2 0x1977 JUMP JUMPDEST PUSH2 0x3AD JUMP JUMPDEST STOP JUMPDEST CALLVALUE DUP1 ISZERO PUSH2 0x134 JUMPI PUSH0 DUP1 REVERT JUMPDEST POP PUSH2 0x13D PUSH2 0x875 JUMP JUMPDEST PUSH1 0x40 MLOAD PUSH2 0x14A SWAP2 SWAP1 PUSH2 0x19D6 JUMP JUMPDEST PUSH1 0x40 MLOAD DUP1 SWAP2 SUB SWAP1 RETURN JUMPDEST CALLVALUE DUP1 ISZERO PUSH2 0x15E JUMPI PUSH0 DUP1 REVERT JUMPDEST POP PUSH2 0x179 PUSH1 0x4 DUP1 CALLDATASIZE SUB DUP2 ADD SWAP1 PUSH2 0x174 SWAP2 SWAP1 PUSH2 0x19EF JUMP JUMPDEST PUSH2 0x87B JUMP JUMPDEST STOP JUMPDEST CALLVALUE DUP1 ISZERO PUSH2 0x186 JUMPI PUSH0 DUP1 REVERT JUMPDEST POP PUSH2 0x18F PUSH2 0x96B JUMP JUMPDEST STOP JUMPDEST CALLVALUE DUP1 ISZERO PUSH2 0x19C JUMPI PUSH0 DUP1 REVERT JUMPDEST POP PUSH2 0x1A5 PUSH2 0x97E JUMP JUMPDEST PUSH1 0x40 MLOAD PUSH2 0x1B2 SWAP2 SWAP1 PUSH2 0x1A75 JUMP JUMPDEST PUSH1 0x40 MLOAD DUP1 SWAP2 SUB SWAP1 RETURN JUMPDEST CALLVALUE DUP1 ISZERO PUSH2 0x1C6 JUMPI PUSH0 DUP1 REVERT JUMPDEST POP PUSH2 0x1CF PUSH2 0x9A3 JUMP JUMPDEST PUSH1 0x40 MLOAD PUSH2 0x1DC SWAP2 SWAP1 PUSH2 0x1A9D JUMP JUMPDEST PUSH1 0x40 MLOAD DUP1 SWAP2 SUB SWAP1 RETURN JUMPDEST CALLVALUE DUP1 ISZERO PUSH2 0x1F0 JUMPI PUSH0 DUP1 REVERT JUMPDEST POP PUSH2 0x1F9 PUSH2 0x9CA JUMP JUMPDEST PUSH1 0x40 MLOAD PUSH2 0x206 SWAP2 SWAP1 PUSH2 0x1AD6 JUMP JUMPDEST PUSH1 0x40 MLOAD DUP1 SWAP2 SUB SWAP1 RETURN JUMPDEST CALLVALUE DUP1 ISZERO PUSH2 0x21A JUMPI PUSH0 DUP1 REVERT JUMPDEST POP PUSH2 0x235 PUSH1 0x4 DUP1 CALLDATASIZE SUB DUP2 ADD SWAP1 PUSH2 0x230 SWAP2 SWAP1 PUSH2 0x1AEF JUMP JUMPDEST PUSH2 0x9EF JUMP JUMPDEST STOP JUMPDEST CALLVALUE DUP1 ISZERO PUSH2 0x242 JUMPI PUSH0 DUP1 REVERT JUMPDEST POP PUSH2 0x24B PUSH2 0xA01 JUMP JUMPDEST PUSH1 0x40 MLOAD PUSH2 0x258 SWAP2 SWAP1 PUSH2 0x19D6 JUMP JUMPDEST PUSH1 0x40 MLOAD DUP1 SWAP2 SUB SWAP1 RETURN JUMPDEST CALLVALUE DUP1 ISZERO PUSH2 0x26C JUMPI PUSH0 DUP1 REVERT JUMPDEST POP PUSH2 0x287 PUSH1 0x4 DUP1 CALLDATASIZE SUB DUP2 ADD SWAP1 PUSH2 0x282 SWAP2 SWAP1 PUSH2 0x1B1A JUMP JUMPDEST PUSH2 0xA07 JUMP JUMPDEST PUSH1 0x40 MLOAD PUSH2 0x296 SWAP4 SWAP3 SWAP2 SWAP1 PUSH2 0x1B98 JUMP JUMPDEST PUSH1 0x40 MLOAD DUP1 SWAP2 SUB SWAP1 RETURN JUMPDEST CALLVALUE DUP1 ISZERO PUSH2 0x2AA JUMPI PUSH0 DUP1 REVERT JUMPDEST POP PUSH2 0x2C5 PUSH1 0x4 DUP1 CALLDATASIZE SUB DUP2 ADD SWAP1 PUSH2 0x2C0 SWAP2 SWAP1 PUSH2 0x1AEF JUMP JUMPDEST PUSH2 0xC29 JUMP JUMPDEST STOP JUMPDEST CALLVALUE DUP1 ISZERO PUSH2 0x2D2 JUMPI PUSH0 DUP1 REVERT JUMPDEST POP PUSH2 0x2ED PUSH1 0x4 DUP1 CALLDATASIZE SUB DUP2 ADD SWAP1 PUSH2 0x2E8 SWAP2 SWAP1 PUSH2 0x1977 JUMP JUMPDEST PUSH2 0xC72 JUMP JUMPDEST PUSH1 0x40 MLOAD PUSH2 0x2FA SWAP2 SWAP1 PUSH2 0x1BCD JUMP JUMPDEST PUSH1 0x40 MLOAD DUP1 SWAP2 SUB SWAP1 RETURN JUMPDEST CALLVALUE DUP1 ISZERO PUSH2 0x30E JUMPI PUSH0 DUP1 REVERT JUMPDEST POP PUSH2 0x329 PUSH1 0x4 DUP1 CALLDATASIZE SUB DUP2 ADD SWAP1 PUSH2 0x324 SWAP2 SWAP1 PUSH2 0x19EF JUMP JUMPDEST PUSH2 0xE4A JUMP JUMPDEST STOP JUMPDEST CALLVALUE DUP1 ISZERO PUSH2 0x336 JUMPI PUSH0 DUP1 REVERT JUMPDEST POP PUSH2 0x351 PUSH1 0x4 DUP1 CALLDATASIZE SUB DUP2 ADD SWAP1 PUSH2 0x34C SWAP2 SWAP1 PUSH2 0x1977 JUMP JUMPDEST PUSH2 0xF03 JUMP JUMPDEST STOP JUMPDEST CALLVALUE DUP1 ISZERO PUSH2 0x35E JUMPI PUSH0 DUP1 REVERT JUMPDEST POP PUSH2 0x379 PUSH1 0x4 DUP1 CALLDATASIZE SUB DUP2 ADD SWAP1 PUSH2 0x374 SWAP2 SWAP1 PUSH2 0x1AEF JUMP JUMPDEST PUSH2 0x15D9 JUMP JUMPDEST STOP JUMPDEST CALLVALUE DUP1 ISZERO PUSH2 0x386 JUMPI PUSH0 DUP1 REVERT JUMPDEST POP PUSH2 0x3A1 PUSH1 0x4 DUP1 CALLDATASIZE SUB DUP2 ADD SWAP1 PUSH2 0x39C SWAP2 SWAP1 PUSH2 0x19EF JUMP JUMPDEST PUSH2 0x162F JUMP JUMPDEST STOP JUMPDEST PUSH2 0x3AB PUSH2 0x16B3 JUMP JUMPDEST STOP JUMPDEST DUP3 PUSH20 0xFFFFFFFFFFFFFFFFFFFFFFFFFFFFFFFFFFFFFFFF AND PUSH4 0x23B872DD CALLER ADDRESS DUP6 PUSH1 0x40 MLOAD DUP5 PUSH4 0xFFFFFFFF AND PUSH1 0xE0 SHL DUP2 MSTORE PUSH1 0x4 ADD PUSH2 0x3EA SWAP4 SWAP3 SWAP2 SWAP1 PUSH2 0x1BE6 JUMP JUMPDEST PUSH1 0x20 PUSH1 0x40 MLOAD DUP1 DUP4 SUB DUP2 PUSH0 DUP8 GAS CALL ISZERO DUP1 ISZERO PUSH2 0x406 JUMPI RETURNDATASIZE PUSH0 DUP1 RETURNDATACOPY RETURNDATASIZE PUSH0 REVERT JUMPDEST POP POP POP POP PUSH1 0x40 MLOAD RETURNDATASIZE PUSH1 0x1F NOT PUSH1 0x1F DUP3 ADD AND DUP3 ADD DUP1 PUSH1 0x40 MSTORE POP DUP2 ADD SWAP1 PUSH2 0x42A SWAP2 SWAP1 PUSH2 0x1C45 JUMP JUMPDEST POP DUP3 PUSH20 0xFFFFFFFFFFFFFFFFFFFFFFFFFFFFFFFFFFFFFFFF AND PUSH4 0x95EA7B3 PUSH1 0x1 PUSH0 SWAP1 SLOAD SWAP1 PUSH2 0x100 EXP SWAP1 DIV PUSH20 0xFFFFFFFFFFFFFFFFFFFFFFFFFFFFFFFFFFFFFFFF AND DUP5 PUSH1 0x40 MLOAD DUP4 PUSH4 0xFFFFFFFF AND PUSH1 0xE0 SHL DUP2 MSTORE PUSH1 0x4 ADD PUSH2 0x487 SWAP3 SWAP2 SWAP1 PUSH2 0x1C70 JUMP JUMPDEST PUSH1 0x20 PUSH1 0x40 MLOAD DUP1 DUP4 SUB DUP2 PUSH0 DUP8 GAS CALL ISZERO DUP1 ISZERO PUSH2 0x4A3 JUMPI RETURNDATASIZE PUSH0 DUP1 RETURNDATACOPY RETURNDATASIZE PUSH0 REVERT JUMPDEST POP POP POP POP PUSH1 0x40 MLOAD RETURNDATASIZE PUSH1 0x1F NOT PUSH1 0x1F DUP3 ADD AND DUP3 ADD DUP1 PUSH1 0x40 MSTORE POP DUP2 ADD SWAP1 PUSH2 0x4C7 SWAP2 SWAP1 PUSH2 0x1C45 JUMP JUMPDEST POP PUSH0 PUSH1 0x2 PUSH8 0xFFFFFFFFFFFFFFFF DUP2 GT ISZERO PUSH2 0x4E4 JUMPI PUSH2 0x4E3 PUSH2 0x1C97 JUMP JUMPDEST JUMPDEST PUSH1 0x40 MLOAD SWAP1 DUP1 DUP3 MSTORE DUP1 PUSH1 0x20 MUL PUSH1 0x20 ADD DUP3 ADD PUSH1 0x40 MSTORE DUP1 ISZERO PUSH2 0x512 JUMPI DUP2 PUSH1 0x20 ADD PUSH1 0x20 DUP3 MUL DUP1 CALLDATASIZE DUP4 CALLDATACOPY DUP1 DUP3 ADD SWAP2 POP POP SWAP1 POP JUMPDEST POP SWAP1 POP DUP4 DUP2 PUSH0 DUP2 MLOAD DUP2 LT PUSH2 0x529 JUMPI PUSH2 0x528 PUSH2 0x1CC4 JUMP JUMPDEST JUMPDEST PUSH1 0x20 MUL PUSH1 0x20 ADD ADD SWAP1 PUSH20 0xFFFFFFFFFFFFFFFFFFFFFFFFFFFFFFFFFFFFFFFF AND SWAP1 DUP2 PUSH20 0xFFFFFFFFFFFFFFFFFFFFFFFFFFFFFFFFFFFFFFFF AND DUP2 MSTORE POP POP PUSH1 0x1 PUSH0 SWAP1 SLOAD SWAP1 PUSH2 0x100 EXP SWAP1 DIV PUSH20 0xFFFFFFFFFFFFFFFFFFFFFFFFFFFFFFFFFFFFFFFF AND PUSH20 0xFFFFFFFFFFFFFFFFFFFFFFFFFFFFFFFFFFFFFFFF AND PUSH4 0xAD5C4648 PUSH1 0x40 MLOAD DUP2 PUSH4 0xFFFFFFFF AND PUSH1 0xE0 SHL DUP2 MSTORE PUSH1 0x4 ADD PUSH1 0x20 PUSH1 0x40 MLOAD DUP1 DUP4 SUB DUP2 DUP7 GAS STATICCALL ISZERO DUP1 ISZERO PUSH2 0x5CD JUMPI RETURNDATASIZE PUSH0 DUP1 RETURNDATACOPY RETURNDATASIZE PUSH0 REVERT JUMPDEST POP POP POP POP PUSH1 0x40 MLOAD RETURNDATASIZE PUSH1 0x1F NOT PUSH1 0x1F DUP3 ADD AND DUP3 ADD DUP1 PUSH1 0x40 MSTORE POP DUP2 ADD SWAP1 PUSH2 0x5F1 SWAP2 SWAP1 PUSH2 0x1D05 JUMP JUMPDEST DUP2 PUSH1 0x1 DUP2 MLOAD DUP2 LT PUSH2 0x605 JUMPI PUSH2 0x604 PUSH2 0x1CC4 JUMP JUMPDEST JUMPDEST PUSH1 0x20 MUL PUSH1 0x20 ADD ADD SWAP1 PUSH20 0xFFFFFFFFFFFFFFFFFFFFFFFFFFFFFFFFFFFFFFFF AND SWAP1 DUP2 PUSH20 0xFFFFFFFFFFFFFFFFFFFFFFFFFFFFFFFFFFFFFFFF AND DUP2 MSTORE POP POP PUSH0 PUSH1 0x1 PUSH0 SWAP1 SLOAD SWAP1 PUSH2 0x100 EXP SWAP1 DIV PUSH20 0xFFFFFFFFFFFFFFFFFFFFFFFFFFFFFFFFFFFFFFFF AND PUSH20 0xFFFFFFFFFFFFFFFFFFFFFFFFFFFFFFFFFFFFFFFF AND PUSH4 0x18CBAFE5 DUP6 DUP6 DUP6 ADDRESS TIMESTAMP PUSH1 0x40 MLOAD DUP7 PUSH4 0xFFFFFFFF AND PUSH1 0xE0 SHL DUP2 MSTORE PUSH1 0x4 ADD PUSH2 0x6A2 SWAP6 SWAP5 SWAP4 SWAP3 SWAP2 SWAP1 PUSH2 0x1DE7 JUMP JUMPDEST PUSH0 PUSH1 0x40 MLOAD DUP1 DUP4 SUB DUP2 PUSH0 DUP8 GAS CALL ISZERO DUP1 ISZERO PUSH2 0x6BD JUMPI RETURNDATASIZE PUSH0 DUP1 RETURNDATACOPY RETURNDATASIZE PUSH0 REVERT JUMPDEST POP POP POP POP PUSH1 0x40 MLOAD RETURNDATASIZE PUSH0 DUP3 RETURNDATACOPY RETURNDATASIZE PUSH1 0x1F NOT PUSH1 0x1F DUP3 ADD AND DUP3 ADD DUP1 PUSH1 0x40 MSTORE POP DUP2 ADD SWAP1 PUSH2 0x6E5 SWAP2 SWAP1 PUSH2 0x1F76 JUMP JUMPDEST SWAP1 POP PUSH0 DUP2 PUSH1 0x1 DUP2 MLOAD DUP2 LT PUSH2 0x6FC JUMPI PUSH2 0x6FB PUSH2 0x1CC4 JUMP JUMPDEST JUMPDEST PUSH1 0x20 MUL PUSH1 0x20 ADD ADD MLOAD SWAP1 POP PUSH0 PUSH2 0x2710 PUSH1 0x3 SLOAD DUP4 PUSH2 0x718 SWAP2 SWAP1 PUSH2 0x1FEA JUMP JUMPDEST PUSH2 0x722 SWAP2 SWAP1 PUSH2 0x2058 JUMP JUMPDEST SWAP1 POP PUSH0 PUSH1 0x64 PUSH1 0x5A DUP4 PUSH2 0x734 SWAP2 SWAP1 PUSH2 0x1FEA JUMP JUMPDEST PUSH2 0x73E SWAP2 SWAP1 PUSH2 0x2058 JUMP JUMPDEST SWAP1 POP PUSH1 0x2 PUSH0 SWAP1 SLOAD SWAP1 PUSH2 0x100 EXP SWAP1 DIV PUSH20 0xFFFFFFFFFFFFFFFFFFFFFFFFFFFFFFFFFFFFFFFF AND PUSH20 0xFFFFFFFFFFFFFFFFFFFFFFFFFFFFFFFFFFFFFFFF AND PUSH4 0x99DA9E9 DUP3 PUSH1 0x40 MLOAD DUP3 PUSH4 0xFFFFFFFF AND PUSH1 0xE0 SHL DUP2 MSTORE PUSH1 0x4 ADD PUSH2 0x79A SWAP2 SWAP1 PUSH2 0x19D6 JUMP JUMPDEST PUSH0 PUSH1 0x40 MLOAD DUP1 DUP4 SUB DUP2 PUSH0 DUP8 DUP1 EXTCODESIZE ISZERO DUP1 ISZERO PUSH2 0x7B1 JUMPI PUSH0 DUP1 REVERT JUMPDEST POP GAS CALL ISZERO DUP1 ISZERO PUSH2 0x7C3 JUMPI RETURNDATASIZE PUSH0 DUP1 RETURNDATACOPY RETURNDATASIZE PUSH0 REVERT JUMPDEST POP POP POP POP PUSH0 DUP3 DUP5 PUSH2 0x7D4 SWAP2 SWAP1 PUSH2 0x2088 JUMP JUMPDEST SWAP1 POP CALLER PUSH20 0xFFFFFFFFFFFFFFFFFFFFFFFFFFFFFFFFFFFFFFFF AND PUSH2 0x8FC DUP3 SWAP1 DUP2 ISZERO MUL SWAP1 PUSH1 0x40 MLOAD PUSH0 PUSH1 0x40 MLOAD DUP1 DUP4 SUB DUP2 DUP6 DUP9 DUP9 CALL SWAP4 POP POP POP POP ISZERO DUP1 ISZERO PUSH2 0x819 JUMPI RETURNDATASIZE PUSH0 DUP1 RETURNDATACOPY RETURNDATASIZE PUSH0 REVERT JUMPDEST POP CALLER PUSH20 0xFFFFFFFFFFFFFFFFFFFFFFFFFFFFFFFFFFFFFFFF AND PUSH32 0xD0DCB5D6CCBC65558941EDA1D0ADD99921923CC1868A41BBF8D224258A21396D DUP10 DUP7 PUSH1 0x40 MLOAD PUSH2 0x862 SWAP3 SWAP2 SWAP1 PUSH2 0x20BB JUMP JUMPDEST PUSH1 0x40 MLOAD DUP1 SWAP2 SUB SWAP1 LOG2 POP POP POP POP POP POP POP POP POP JUMP JUMPDEST PUSH1 0x4 SLOAD DUP2 JUMP JUMPDEST PUSH2 0x883 PUSH2 0x16B5 JUMP JUMPDEST PUSH0 PUSH20 0xFFFFFFFFFFFFFFFFFFFFFFFFFFFFFFFFFFFFFFFF AND DUP2 PUSH20 0xFFFFFFFFFFFFFFFFFFFFFFFFFFFFFFFFFFFFFFFF AND SUB PUSH2 0x8F1 JUMPI PUSH1 0x40 MLOAD PUSH32 0x8C379A000000000000000000000000000000000000000000000000000000000 DUP2 MSTORE PUSH1 0x4 ADD PUSH2 0x8E8 SWAP1 PUSH2 0x213C JUMP JUMPDEST PUSH1 0x40 MLOAD DUP1 SWAP2 SUB SWAP1 REVERT JUMPDEST DUP1 PUSH1 0x2 PUSH0 PUSH2 0x100 EXP DUP2 SLOAD DUP2 PUSH20 0xFFFFFFFFFFFFFFFFFFFFFFFFFFFFFFFFFFFFFFFF MUL NOT AND SWAP1 DUP4 PUSH20 0xFFFFFFFFFFFFFFFFFFFFFFFFFFFFFFFFFFFFFFFF AND MUL OR SWAP1 SSTORE POP PUSH32 0xECB9755730C832A50C16EA8001A277BE77D816B09DC686FE072D4F2285E5CECE DUP2 PUSH1 0x40 MLOAD PUSH2 0x960 SWAP2 SWAP1 PUSH2 0x1A9D JUMP JUMPDEST PUSH1 0x40 MLOAD DUP1 SWAP2 SUB SWAP1 LOG1 POP JUMP JUMPDEST PUSH2 0x973 PUSH2 0x16B5 JUMP JUMPDEST PUSH2 0x97C PUSH0 PUSH2 0x173C JUMP JUMPDEST JUMP JUMPDEST PUSH1 0x1 PUSH0 SWAP1 SLOAD SWAP1 PUSH2 0x100 EXP SWAP1 DIV PUSH20 0xFFFFFFFFFFFFFFFFFFFFFFFFFFFFFFFFFFFFFFFF AND DUP2 JUMP JUMPDEST PUSH0 DUP1 PUSH0 SWAP1 SLOAD SWAP1 PUSH2 0x100 EXP SWAP1 DIV PUSH20 0xFFFFFFFFFFFFFFFFFFFFFFFFFFFFFFFFFFFFFFFF AND SWAP1 POP SWAP1 JUMP JUMPDEST PUSH1 0x2 PUSH0 SWAP1 SLOAD SWAP1 PUSH2 0x100 EXP SWAP1 DIV PUSH20 0xFFFFFFFFFFFFFFFFFFFFFFFFFFFFFFFFFFFFFFFF AND DUP2 JUMP JUMPDEST PUSH2 0x9F7 PUSH2 0x16B5 JUMP JUMPDEST DUP1 PUSH1 0x4 DUP2 SWAP1 SSTORE POP POP JUMP JUMPDEST PUSH1 0x3 SLOAD DUP2 JUMP JUMPDEST PUSH0 DUP1 PUSH0 DUP1 PUSH1 0x2 PUSH8 0xFFFFFFFFFFFFFFFF DUP2 GT ISZERO PUSH2 0xA26 JUMPI PUSH2 0xA25 PUSH2 0x1C97 JUMP JUMPDEST JUMPDEST PUSH1 0x40 MLOAD SWAP1 DUP1 DUP3 MSTORE DUP1 PUSH1 0x20 MUL PUSH1 0x20 ADD DUP3 ADD PUSH1 0x40 MSTORE DUP1 ISZERO PUSH2 0xA54 JUMPI DUP2 PUSH1 0x20 ADD PUSH1 0x20 DUP3 MUL DUP1 CALLDATASIZE DUP4 CALLDATACOPY DUP1 DUP3 ADD SWAP2 POP POP SWAP1 POP JUMPDEST POP SWAP1 POP DUP8 DUP2 PUSH0 DUP2 MLOAD DUP2 LT PUSH2 0xA6B JUMPI PUSH2 0xA6A PUSH2 0x1CC4 JUMP JUMPDEST JUMPDEST PUSH1 0x20 MUL PUSH1 0x20 ADD ADD SWAP1 PUSH20 0xFFFFFFFFFFFFFFFFFFFFFFFFFFFFFFFFFFFFFFFF AND SWAP1 DUP2 PUSH20 0xFFFFFFFFFFFFFFFFFFFFFFFFFFFFFFFFFFFFFFFF AND DUP2 MSTORE POP POP PUSH1 0x1 PUSH0 SWAP1 SLOAD SWAP1 PUSH2 0x100 EXP SWAP1 DIV PUSH20 0xFFFFFFFFFFFFFFFFFFFFFFFFFFFFFFFFFFFFFFFF AND PUSH20 0xFFFFFFFFFFFFFFFFFFFFFFFFFFFFFFFFFFFFFFFF AND PUSH4 0xAD5C4648 PUSH1 0x40 MLOAD DUP2 PUSH4 0xFFFFFFFF AND PUSH1 0xE0 SHL DUP2 MSTORE PUSH1 0x4 ADD PUSH1 0x20 PUSH1 0x40 MLOAD DUP1 DUP4 SUB DUP2 DUP7 GAS STATICCALL ISZERO DUP1 ISZERO PUSH2 0xB0F JUMPI RETURNDATASIZE PUSH0 DUP1 RETURNDATACOPY RETURNDATASIZE PUSH0 REVERT JUMPDEST POP POP POP POP PUSH1 0x40 MLOAD RETURNDATASIZE PUSH1 0x1F NOT PUSH1 0x1F DUP3 ADD AND DUP3 ADD DUP1 PUSH1 0x40 MSTORE POP DUP2 ADD SWAP1 PUSH2 0xB33 SWAP2 SWAP1 PUSH2 0x1D05 JUMP JUMPDEST DUP2 PUSH1 0x1 DUP2 MLOAD DUP2 LT PUSH2 0xB47 JUMPI PUSH2 0xB46 PUSH2 0x1CC4 JUMP JUMPDEST JUMPDEST PUSH1 0x20 MUL PUSH1 0x20 ADD ADD SWAP1 PUSH20 0xFFFFFFFFFFFFFFFFFFFFFFFFFFFFFFFFFFFFFFFF AND SWAP1 DUP2 PUSH20 0xFFFFFFFFFFFFFFFFFFFFFFFFFFFFFFFFFFFFFFFF AND DUP2 MSTORE POP POP PUSH0 DUP1 PUSH2 0xB8D DUP10 DUP5 PUSH2 0x17FD JUMP JUMPDEST SWAP2 POP SWAP2 POP DUP2 PUSH2 0xBD1 JUMPI PUSH1 0x40 MLOAD PUSH32 0x8C379A000000000000000000000000000000000000000000000000000000000 DUP2 MSTORE PUSH1 0x4 ADD PUSH2 0xBC8 SWAP1 PUSH2 0x21A4 JUMP JUMPDEST PUSH1 0x40 MLOAD DUP1 SWAP2 SUB SWAP1 REVERT JUMPDEST PUSH2 0x2710 DUP9 PUSH2 0x2710 PUSH2 0xBE2 SWAP2 SWAP1 PUSH2 0x2088 JUMP JUMPDEST DUP3 PUSH2 0xBED SWAP2 SWAP1 PUSH2 0x1FEA JUMP JUMPDEST PUSH2 0xBF7 SWAP2 SWAP1 PUSH2 0x2058 JUMP JUMPDEST SWAP6 POP DUP7 PUSH1 0x4 SLOAD PUSH2 0xC07 SWAP2 SWAP1 PUSH2 0x1FEA JUMP JUMPDEST SWAP5 POP DUP6 DUP6 PUSH2 0xC16 DUP13 DUP13 DUP12 PUSH2 0xC72 JUMP JUMPDEST SWAP6 POP SWAP6 POP SWAP6 POP POP POP POP SWAP5 POP SWAP5 POP SWAP5 SWAP2 POP POP JUMP JUMPDEST PUSH2 0xC31 PUSH2 0x16B5 JUMP JUMPDEST DUP1 PUSH1 0x3 DUP2 SWAP1 SSTORE POP PUSH32 0x8C4D35E54A3F2EF1134138FD8EA3DAEE6A3C89E10D2665996BABDF70261E2C76 DUP2 PUSH1 0x40 MLOAD PUSH2 0xC67 SWAP2 SWAP1 PUSH2 0x19D6 JUMP JUMPDEST PUSH1 0x40 MLOAD DUP1 SWAP2 SUB SWAP1 LOG1 POP JUMP JUMPDEST PUSH0 DUP1 PUSH1 0x2 PUSH8 0xFFFFFFFFFFFFFFFF DUP2 GT ISZERO PUSH2 0xC8F JUMPI PUSH2 0xC8E PUSH2 0x1C97 JUMP JUMPDEST JUMPDEST PUSH1 0x40 MLOAD SWAP1 DUP1 DUP3 MSTORE DUP1 PUSH1 0x20 MUL PUSH1 0x20 ADD DUP3 ADD PUSH1 0x40 MSTORE DUP1 ISZERO PUSH2 0xCBD JUMPI DUP2 PUSH1 0x20 ADD PUSH1 0x20 DUP3 MUL DUP1 CALLDATASIZE DUP4 CALLDATACOPY DUP1 DUP3 ADD SWAP2 POP POP SWAP1 POP JUMPDEST POP SWAP1 POP DUP5 DUP2 PUSH0 DUP2 MLOAD DUP2 LT PUSH2 0xCD4 JUMPI PUSH2 0xCD3 PUSH2 0x1CC4 JUMP JUMPDEST JUMPDEST PUSH1 0x20 MUL PUSH1 0x20 ADD ADD SWAP1 PUSH20 0xFFFFFFFFFFFFFFFFFFFFFFFFFFFFFFFFFFFFFFFF AND SWAP1 DUP2 PUSH20 0xFFFFFFFFFFFFFFFFFFFFFFFFFFFFFFFFFFFFFFFF AND DUP2 MSTORE POP POP PUSH1 0x1 PUSH0 SWAP1 SLOAD SWAP1 PUSH2 0x100 EXP SWAP1 DIV PUSH20 0xFFFFFFFFFFFFFFFFFFFFFFFFFFFFFFFFFFFFFFFF AND PUSH20 0xFFFFFFFFFFFFFFFFFFFFFFFFFFFFFFFFFFFFFFFF AND PUSH4 0xAD5C4648 PUSH1 0x40 MLOAD DUP2 PUSH4 0xFFFFFFFF AND PUSH1 0xE0 SHL DUP2 MSTORE PUSH1 0x4 ADD PUSH1 0x20 PUSH1 0x40 MLOAD DUP1 DUP4 SUB DUP2 DUP7 GAS STATICCALL ISZERO DUP1 ISZERO PUSH2 0xD78 JUMPI RETURNDATASIZE PUSH0 DUP1 RETURNDATACOPY RETURNDATASIZE PUSH0 REVERT JUMPDEST POP POP POP POP PUSH1 0x40 MLOAD RETURNDATASIZE PUSH1 0x1F NOT PUSH1 0x1F DUP3 ADD AND DUP3 ADD DUP1 PUSH1 0x40 MSTORE POP DUP2 ADD SWAP1 PUSH2 0xD9C SWAP2 SWAP1 PUSH2 0x1D05 JUMP JUMPDEST DUP2 PUSH1 0x1 DUP2 MLOAD DUP2 LT PUSH2 0xDB0 JUMPI PUSH2 0xDAF PUSH2 0x1CC4 JUMP JUMPDEST JUMPDEST PUSH1 0x20 MUL PUSH1 0x20 ADD ADD SWAP1 PUSH20 0xFFFFFFFFFFFFFFFFFFFFFFFFFFFFFFFFFFFFFFFF AND SWAP1 DUP2 PUSH20 0xFFFFFFFFFFFFFFFFFFFFFFFFFFFFFFFFFFFFFFFF AND DUP2 MSTORE POP POP PUSH0 DUP1 PUSH2 0xDF6 DUP7 DUP5 PUSH2 0x17FD JUMP JUMPDEST SWAP2 POP SWAP2 POP DUP2 ISZERO DUP1 PUSH2 0xE06 JUMPI POP PUSH0 DUP2 EQ JUMPDEST ISZERO PUSH2 0xE16 JUMPI PUSH0 SWAP4 POP POP POP POP PUSH2 0xE43 JUMP JUMPDEST PUSH0 DUP6 PUSH1 0x4 SLOAD PUSH2 0xE25 SWAP2 SWAP1 PUSH2 0x1FEA JUMP JUMPDEST SWAP1 POP DUP2 DUP2 LT PUSH2 0xE3A JUMPI PUSH0 SWAP5 POP POP POP POP POP PUSH2 0xE43 JUMP JUMPDEST PUSH1 0x1 SWAP5 POP POP POP POP POP JUMPDEST SWAP4 SWAP3 POP POP POP JUMP JUMPDEST PUSH2 0xE52 PUSH2 0x16B5 JUMP JUMPDEST PUSH0 PUSH20 0xFFFFFFFFFFFFFFFFFFFFFFFFFFFFFFFFFFFFFFFF AND DUP2 PUSH20 0xFFFFFFFFFFFFFFFFFFFFFFFFFFFFFFFFFFFFFFFF AND SUB PUSH2 0xEC0 JUMPI PUSH1 0x40 MLOAD PUSH32 0x8C379A000000000000000000000000000000000000000000000000000000000 DUP2 MSTORE PUSH1 0x4 ADD PUSH2 0xEB7 SWAP1 PUSH2 0x213C JUMP JUMPDEST PUSH1 0x40 MLOAD DUP1 SWAP2 SUB SWAP1 REVERT JUMPDEST DUP1 PUSH1 0x1 PUSH0 PUSH2 0x100 EXP DUP2 SLOAD DUP2 PUSH20 0xFFFFFFFFFFFFFFFFFFFFFFFFFFFFFFFFFFFFFFFF MUL NOT AND SWAP1 DUP4 PUSH20 0xFFFFFFFFFFFFFFFFFFFFFFFFFFFFFFFFFFFFFFFF AND MUL OR SWAP1 SSTORE POP POP JUMP JUMPDEST PUSH0 GASPRICE PUSH1 0x4 SLOAD PUSH2 0xF12 SWAP2 SWAP1 PUSH2 0x1FEA JUMP JUMPDEST SWAP1 POP DUP2 DUP2 LT PUSH2 0xF56 JUMPI PUSH1 0x40 MLOAD PUSH32 0x8C379A000000000000000000000000000000000000000000000000000000000 DUP2 MSTORE PUSH1 0x4 ADD PUSH2 0xF4D SWAP1 PUSH2 0x2232 JUMP JUMPDEST PUSH1 0x40 MLOAD DUP1 SWAP2 SUB SWAP1 REVERT JUMPDEST PUSH2 0xF61 DUP5 DUP5 GASPRICE PUSH2 0xC72 JUMP JUMPDEST PUSH2 0xFA0 JUMPI PUSH1 0x40 MLOAD PUSH32 0x8C379A000000000000000000000000000000000000000000000000000000000 DUP2 MSTORE PUSH1 0x4 ADD PUSH2 0xF97 SWAP1 PUSH2 0x22C0 JUMP JUMPDEST PUSH1 0x40 MLOAD DUP1 SWAP2 SUB SWAP1 REVERT JUMPDEST PUSH0 PUSH1 0x2 PUSH8 0xFFFFFFFFFFFFFFFF DUP2 GT ISZERO PUSH2 0xFBC JUMPI PUSH2 0xFBB PUSH2 0x1C97 JUMP JUMPDEST JUMPDEST PUSH1 0x40 MLOAD SWAP1 DUP1 DUP3 MSTORE DUP1 PUSH1 0x20 MUL PUSH1 0x20 ADD DUP3 ADD PUSH1 0x40 MSTORE DUP1 ISZERO PUSH2 0xFEA JUMPI DUP2 PUSH1 0x20 ADD PUSH1 0x20 DUP3 MUL DUP1 CALLDATASIZE DUP4 CALLDATACOPY DUP1 DUP3 ADD SWAP2 POP POP SWAP1 POP JUMPDEST POP SWAP1 POP DUP5 DUP2 PUSH0 DUP2 MLOAD DUP2 LT PUSH2 0x1001 JUMPI PUSH2 0x1000 PUSH2 0x1CC4 JUMP JUMPDEST JUMPDEST PUSH1 0x20 MUL PUSH1 0x20 ADD ADD SWAP1 PUSH20 0xFFFFFFFFFFFFFFFFFFFFFFFFFFFFFFFFFFFFFFFF AND SWAP1 DUP2 PUSH20 0xFFFFFFFFFFFFFFFFFFFFFFFFFFFFFFFFFFFFFFFF AND DUP2 MSTORE POP POP PUSH1 0x1 PUSH0 SWAP1 SLOAD SWAP1 PUSH2 0x100 EXP SWAP1 DIV PUSH20 0xFFFFFFFFFFFFFFFFFFFFFFFFFFFFFFFFFFFFFFFF AND PUSH20 0xFFFFFFFFFFFFFFFFFFFFFFFFFFFFFFFFFFFFFFFF AND PUSH4 0xAD5C4648 PUSH1 0x40 MLOAD DUP2 PUSH4 0xFFFFFFFF AND PUSH1 0xE0 SHL DUP2 MSTORE PUSH1 0x4 ADD PUSH1 0x20 PUSH1 0x40 MLOAD DUP1 DUP4 SUB DUP2 DUP7 GAS STATICCALL ISZERO DUP1 ISZERO PUSH2 0x10A5 JUMPI RETURNDATASIZE PUSH0 DUP1 RETURNDATACOPY RETURNDATASIZE PUSH0 REVERT JUMPDEST POP POP POP POP PUSH1 0x40 MLOAD RETURNDATASIZE PUSH1 0x1F NOT PUSH1 0x1F DUP3 ADD AND DUP3 ADD DUP1 PUSH1 0x40 MSTORE POP DUP2 ADD SWAP1 PUSH2 0x10C9 SWAP2 SWAP1 PUSH2 0x1D05 JUMP JUMPDEST DUP2 PUSH1 0x1 DUP2 MLOAD DUP2 LT PUSH2 0x10DD JUMPI PUSH2 0x10DC PUSH2 0x1CC4 JUMP JUMPDEST JUMPDEST PUSH1 0x20 MUL PUSH1 0x20 ADD ADD SWAP1 PUSH20 0xFFFFFFFFFFFFFFFFFFFFFFFFFFFFFFFFFFFFFFFF AND SWAP1 DUP2 PUSH20 0xFFFFFFFFFFFFFFFFFFFFFFFFFFFFFFFFFFFFFFFF AND DUP2 MSTORE POP POP PUSH0 PUSH1 0x1 PUSH0 SWAP1 SLOAD SWAP1 PUSH2 0x100 EXP SWAP1 DIV PUSH20 0xFFFFFFFFFFFFFFFFFFFFFFFFFFFFFFFFFFFFFFFF AND PUSH20 0xFFFFFFFFFFFFFFFFFFFFFFFFFFFFFFFFFFFFFFFF AND PUSH4 0xD06CA61F DUP7 DUP5 PUSH1 0x40 MLOAD DUP4 PUSH4 0xFFFFFFFF AND PUSH1 0xE0 SHL DUP2 MSTORE PUSH1 0x4 ADD PUSH2 0x1174 SWAP3 SWAP2 SWAP1 PUSH2 0x22DE JUMP JUMPDEST PUSH0 PUSH1 0x40 MLOAD DUP1 DUP4 SUB DUP2 DUP7 GAS STATICCALL ISZERO DUP1 ISZERO PUSH2 0x118E JUMPI RETURNDATASIZE PUSH0 DUP1 RETURNDATACOPY RETURNDATASIZE PUSH0 REVERT JUMPDEST POP POP POP POP PUSH1 0x40 MLOAD RETURNDATASIZE PUSH0 DUP3 RETURNDATACOPY RETURNDATASIZE PUSH1 0x1F NOT PUSH1 0x1F DUP3 ADD AND DUP3 ADD DUP1 PUSH1 0x40 MSTORE POP DUP2 ADD SWAP1 PUSH2 0x11B6 SWAP2 SWAP1 PUSH2 0x1F76 JUMP JUMPDEST SWAP1 POP PUSH0 DUP2 PUSH1 0x1 DUP2 MLOAD DUP2 LT PUSH2 0x11CD JUMPI PUSH2 0x11CC PUSH2 0x1CC4 JUMP JUMPDEST JUMPDEST PUSH1 0x20 MUL PUSH1 0x20 ADD ADD MLOAD SWAP1 POP DUP5 DUP2 LT ISZERO PUSH2 0x121A JUMPI PUSH1 0x40 MLOAD PUSH32 0x8C379A000000000000000000000000000000000000000000000000000000000 DUP2 MSTORE PUSH1 0x4 ADD PUSH2 0x1211 SWAP1 PUSH2 0x237C JUMP JUMPDEST PUSH1 0x40 MLOAD DUP1 SWAP2 SUB SWAP1 REVERT JUMPDEST DUP7 PUSH20 0xFFFFFFFFFFFFFFFFFFFFFFFFFFFFFFFFFFFFFFFF AND PUSH4 0x23B872DD CALLER ADDRESS DUP10 PUSH1 0x40 MLOAD DUP5 PUSH4 0xFFFFFFFF AND PUSH1 0xE0 SHL DUP2 MSTORE PUSH1 0x4 ADD PUSH2 0x1257 SWAP4 SWAP3 SWAP2 SWAP1 PUSH2 0x1BE6 JUMP JUMPDEST PUSH1 0x20 PUSH1 0x40 MLOAD DUP1 DUP4 SUB DUP2 PUSH0 DUP8 GAS CALL ISZERO DUP1 ISZERO PUSH2 0x1273 JUMPI RETURNDATASIZE PUSH0 DUP1 RETURNDATACOPY RETURNDATASIZE PUSH0 REVERT JUMPDEST POP POP POP POP PUSH1 0x40 MLOAD RETURNDATASIZE PUSH1 0x1F NOT PUSH1 0x1F DUP3 ADD AND DUP3 ADD DUP1 PUSH1 0x40 MSTORE POP DUP2 ADD SWAP1 PUSH2 0x1297 SWAP2 SWAP1 PUSH2 0x1C45 JUMP JUMPDEST POP DUP7 PUSH20 0xFFFFFFFFFFFFFFFFFFFFFFFFFFFFFFFFFFFFFFFF AND PUSH4 0x95EA7B3 PUSH1 0x1 PUSH0 SWAP1 SLOAD SWAP1 PUSH2 0x100 EXP SWAP1 DIV PUSH20 0xFFFFFFFFFFFFFFFFFFFFFFFFFFFFFFFFFFFFFFFF AND DUP9 PUSH1 0x40 MLOAD DUP4 PUSH4 0xFFFFFFFF AND PUSH1 0xE0 SHL DUP2 MSTORE PUSH1 0x4 ADD PUSH2 0x12F4 SWAP3 SWAP2 SWAP1 PUSH2 0x1C70 JUMP JUMPDEST PUSH1 0x20 PUSH1 0x40 MLOAD DUP1 DUP4 SUB DUP2 PUSH0 DUP8 GAS CALL ISZERO DUP1 ISZERO PUSH2 0x1310 JUMPI RETURNDATASIZE PUSH0 DUP1 RETURNDATACOPY RETURNDATASIZE PUSH0 REVERT JUMPDEST POP POP POP POP PUSH1 0x40 MLOAD RETURNDATASIZE PUSH1 0x1F NOT PUSH1 0x1F DUP3 ADD AND DUP3 ADD DUP1 PUSH1 0x40 MSTORE POP DUP2 ADD SWAP1 PUSH2 0x1334 SWAP2 SWAP1 PUSH2 0x1C45 JUMP JUMPDEST POP PUSH0 PUSH1 0x1 PUSH0 SWAP1 SLOAD SWAP1 PUSH2 0x100 EXP SWAP1 DIV PUSH20 0xFFFFFFFFFFFFFFFFFFFFFFFFFFFFFFFFFFFFFFFF AND PUSH20 0xFFFFFFFFFFFFFFFFFFFFFFFFFFFFFFFFFFFFFFFF AND PUSH4 0x18CBAFE5 DUP9 DUP9 DUP8 ADDRESS TIMESTAMP PUSH1 0x40 MLOAD DUP7 PUSH4 0xFFFFFFFF AND PUSH1 0xE0 SHL DUP2 MSTORE PUSH1 0x4 ADD PUSH2 0x1398 SWAP6 SWAP5 SWAP4 SWAP3 SWAP2 SWAP1 PUSH2 0x1DE7 JUMP JUMPDEST PUSH0 PUSH1 0x40 MLOAD DUP1 DUP4 SUB DUP2 PUSH0 DUP8 GAS CALL ISZERO DUP1 ISZERO PUSH2 0x13B3 JUMPI RETURNDATASIZE PUSH0 DUP1 RETURNDATACOPY RETURNDATASIZE PUSH0 REVERT JUMPDEST POP POP POP POP PUSH1 0x40 MLOAD RETURNDATASIZE PUSH0 DUP3 RETURNDATACOPY RETURNDATASIZE PUSH1 0x1F NOT PUSH1 0x1F DUP3 ADD AND DUP3 ADD DUP1 PUSH1 0x40 MSTORE POP DUP2 ADD SWAP1 PUSH2 0x13DB SWAP2 SWAP1 PUSH2 0x1F76 JUMP JUMPDEST SWAP1 POP PUSH0 DUP2 PUSH1 0x1 DUP2 MLOAD DUP2 LT PUSH2 0x13F2 JUMPI PUSH2 0x13F1 PUSH2 0x1CC4 JUMP JUMPDEST JUMPDEST PUSH1 0x20 MUL PUSH1 0x20 ADD ADD MLOAD SWAP1 POP PUSH0 DUP8 DUP5 GT PUSH2 0x140A JUMPI PUSH0 PUSH2 0x1417 JUMP JUMPDEST DUP8 DUP5 PUSH2 0x1416 SWAP2 SWAP1 PUSH2 0x2088 JUMP JUMPDEST JUMPDEST SWAP1 POP PUSH0 DUP5 DUP4 GT PUSH2 0x1427 JUMPI PUSH0 PUSH2 0x1434 JUMP JUMPDEST DUP5 DUP4 PUSH2 0x1433 SWAP2 SWAP1 PUSH2 0x2088 JUMP JUMPDEST JUMPDEST SWAP1 POP PUSH0 PUSH1 0x64 PUSH1 0x28 DUP4 PUSH2 0x1446 SWAP2 SWAP1 PUSH2 0x1FEA JUMP JUMPDEST PUSH2 0x1450 SWAP2 SWAP1 PUSH2 0x2058 JUMP JUMPDEST PUSH2 0x2710 PUSH1 0x3 SLOAD DUP5 DUP7 DUP9 PUSH2 0x1463 SWAP2 SWAP1 PUSH2 0x2088 JUMP JUMPDEST PUSH2 0x146D SWAP2 SWAP1 PUSH2 0x2088 JUMP JUMPDEST PUSH2 0x1477 SWAP2 SWAP1 PUSH2 0x1FEA JUMP JUMPDEST PUSH2 0x1481 SWAP2 SWAP1 PUSH2 0x2058 JUMP JUMPDEST PUSH2 0x148B SWAP2 SWAP1 PUSH2 0x239A JUMP JUMPDEST SWAP1 POP PUSH1 0x2 PUSH0 SWAP1 SLOAD SWAP1 PUSH2 0x100 EXP SWAP1 DIV PUSH20 0xFFFFFFFFFFFFFFFFFFFFFFFFFFFFFFFFFFFFFFFF AND PUSH20 0xFFFFFFFFFFFFFFFFFFFFFFFFFFFFFFFFFFFFFFFF AND PUSH4 0x99DA9E9 PUSH1 0x64 PUSH1 0x5A DUP5 PUSH2 0x14D9 SWAP2 SWAP1 PUSH2 0x1FEA JUMP JUMPDEST PUSH2 0x14E3 SWAP2 SWAP1 PUSH2 0x2058 JUMP JUMPDEST PUSH1 0x40 MLOAD DUP3 PUSH4 0xFFFFFFFF AND PUSH1 0xE0 SHL DUP2 MSTORE PUSH1 0x4 ADD PUSH2 0x14FF SWAP2 SWAP1 PUSH2 0x19D6 JUMP JUMPDEST PUSH0 PUSH1 0x40 MLOAD DUP1 DUP4 SUB DUP2 PUSH0 DUP8 DUP1 EXTCODESIZE ISZERO DUP1 ISZERO PUSH2 0x1516 JUMPI PUSH0 DUP1 REVERT JUMPDEST POP GAS CALL ISZERO DUP1 ISZERO PUSH2 0x1528 JUMPI RETURNDATASIZE PUSH0 DUP1 RETURNDATACOPY RETURNDATASIZE PUSH0 REVERT JUMPDEST POP POP POP POP CALLER PUSH20 0xFFFFFFFFFFFFFFFFFFFFFFFFFFFFFFFFFFFFFFFF AND PUSH2 0x8FC DUP3 DUP7 PUSH2 0x1552 SWAP2 SWAP1 PUSH2 0x2088 JUMP JUMPDEST SWAP1 DUP2 ISZERO MUL SWAP1 PUSH1 0x40 MLOAD PUSH0 PUSH1 0x40 MLOAD DUP1 DUP4 SUB DUP2 DUP6 DUP9 DUP9 CALL SWAP4 POP POP POP POP ISZERO DUP1 ISZERO PUSH2 0x157A JUMPI RETURNDATASIZE PUSH0 DUP1 RETURNDATACOPY RETURNDATASIZE PUSH0 REVERT JUMPDEST POP CALLER PUSH20 0xFFFFFFFFFFFFFFFFFFFFFFFFFFFFFFFFFFFFFFFF AND PUSH32 0xD0DCB5D6CCBC65558941EDA1D0ADD99921923CC1868A41BBF8D224258A21396D DUP13 DUP7 PUSH1 0x40 MLOAD PUSH2 0x15C3 SWAP3 SWAP2 SWAP1 PUSH2 0x20BB JUMP JUMPDEST PUSH1 0x40 MLOAD DUP1 SWAP2 SUB SWAP1 LOG2 POP POP POP POP POP POP POP POP POP POP POP POP JUMP JUMPDEST PUSH2 0x15E1 PUSH2 0x16B5 JUMP JUMPDEST PUSH2 0x15E9 PUSH2 0x9A3 JUMP JUMPDEST PUSH20 0xFFFFFFFFFFFFFFFFFFFFFFFFFFFFFFFFFFFFFFFF AND PUSH2 0x8FC DUP3 SWAP1 DUP2 ISZERO MUL SWAP1 PUSH1 0x40 MLOAD PUSH0 PUSH1 0x40 MLOAD DUP1 DUP4 SUB DUP2 DUP6 DUP9 DUP9 CALL SWAP4 POP POP POP POP ISZERO DUP1 ISZERO PUSH2 0x162B JUMPI RETURNDATASIZE PUSH0 DUP1 RETURNDATACOPY RETURNDATASIZE PUSH0 REVERT JUMPDEST POP POP JUMP JUMPDEST PUSH2 0x1637 PUSH2 0x16B5 JUMP JUMPDEST PUSH0 PUSH20 0xFFFFFFFFFFFFFFFFFFFFFFFFFFFFFFFFFFFFFFFF AND DUP2 PUSH20 0xFFFFFFFFFFFFFFFFFFFFFFFFFFFFFFFFFFFFFFFF AND SUB PUSH2 0x16A7 JUMPI PUSH0 PUSH1 0x40 MLOAD PUSH32 0x1E4FBDF700000000000000000000000000000000000000000000000000000000 DUP2 MSTORE PUSH1 0x4 ADD PUSH2 0x169E SWAP2 SWAP1 PUSH2 0x1A9D JUMP JUMPDEST PUSH1 0x40 MLOAD DUP1 SWAP2 SUB SWAP1 REVERT JUMPDEST PUSH2 0x16B0 DUP2 PUSH2 0x173C JUMP JUMPDEST POP JUMP JUMPDEST JUMP JUMPDEST PUSH2 0x16BD PUSH2 0x18D2 JUMP JUMPDEST PUSH20 0xFFFFFFFFFFFFFFFFFFFFFFFFFFFFFFFFFFFFFFFF AND PUSH2 0x16DB PUSH2 0x9A3 JUMP JUMPDEST PUSH20 0xFFFFFFFFFFFFFFFFFFFFFFFFFFFFFFFFFFFFFFFF AND EQ PUSH2 0x173A JUMPI PUSH2 0x16FE PUSH2 0x18D2 JUMP JUMPDEST PUSH1 0x40 MLOAD PUSH32 0x118CDAA700000000000000000000000000000000000000000000000000000000 DUP2 MSTORE PUSH1 0x4 ADD PUSH2 0x1731 SWAP2 SWAP1 PUSH2 0x1A9D JUMP JUMPDEST PUSH1 0x40 MLOAD DUP1 SWAP2 SUB SWAP1 REVERT JUMPDEST JUMP JUMPDEST PUSH0 DUP1 PUSH0 SWAP1 SLOAD SWAP1 PUSH2 0x100 EXP SWAP1 DIV PUSH20 0xFFFFFFFFFFFFFFFFFFFFFFFFFFFFFFFFFFFFFFFF AND SWAP1 POP DUP2 PUSH0 DUP1 PUSH2 0x100 EXP DUP2 SLOAD DUP2 PUSH20 0xFFFFFFFFFFFFFFFFFFFFFFFFFFFFFFFFFFFFFFFF MUL NOT AND SWAP1 DUP4 PUSH20 0xFFFFFFFFFFFFFFFFFFFFFFFFFFFFFFFFFFFFFFFF AND MUL OR SWAP1 SSTORE POP DUP2 PUSH20 0xFFFFFFFFFFFFFFFFFFFFFFFFFFFFFFFFFFFFFFFF AND DUP2 PUSH20 0xFFFFFFFFFFFFFFFFFFFFFFFFFFFFFFFFFFFFFFFF AND PUSH32 0x8BE0079C531659141344CD1FD0A4F28419497F9722A3DAAFE3B4186F6B6457E0 PUSH1 0x40 MLOAD PUSH1 0x40 MLOAD DUP1 SWAP2 SUB SWAP1 LOG3 POP POP JUMP JUMPDEST PUSH0 DUP1 PUSH1 0x1 PUSH0 SWAP1 SLOAD SWAP1 PUSH2 0x100 EXP SWAP1 DIV PUSH20 0xFFFFFFFFFFFFFFFFFFFFFFFFFFFFFFFFFFFFFFFF AND PUSH20 0xFFFFFFFFFFFFFFFFFFFFFFFFFFFFFFFFFFFFFFFF AND PUSH4 0xD06CA61F DUP6 DUP6 PUSH1 0x40 MLOAD DUP4 PUSH4 0xFFFFFFFF AND PUSH1 0xE0 SHL DUP2 MSTORE PUSH1 0x4 ADD PUSH2 0x185B SWAP3 SWAP2 SWAP1 PUSH2 0x22DE JUMP JUMPDEST PUSH0 PUSH1 0x40 MLOAD DUP1 DUP4 SUB DUP2 DUP7 GAS STATICCALL SWAP3 POP POP POP DUP1 ISZERO PUSH2 0x1898 JUMPI POP PUSH1 0x40 MLOAD RETURNDATASIZE PUSH0 DUP3 RETURNDATACOPY RETURNDATASIZE PUSH1 0x1F NOT PUSH1 0x1F DUP3 ADD AND DUP3 ADD DUP1 PUSH1 0x40 MSTORE POP DUP2 ADD SWAP1 PUSH2 0x1895 SWAP2 SWAP1 PUSH2 0x1F76 JUMP JUMPDEST PUSH1 0x1 JUMPDEST PUSH2 0x18A7 JUMPI PUSH0 DUP1 SWAP2 POP SWAP2 POP PUSH2 0x18CB JUMP JUMPDEST PUSH1 0x1 DUP2 PUSH1 0x1 DUP2 MLOAD DUP2 LT PUSH2 0x18BD JUMPI PUSH2 0x18BC PUSH2 0x1CC4 JUMP JUMPDEST JUMPDEST PUSH1 0x20 MUL PUSH1 0x20 ADD ADD MLOAD SWAP3 POP SWAP3 POP POP JUMPDEST SWAP3 POP SWAP3 SWAP1 POP JUMP JUMPDEST PUSH0 CALLER SWAP1 POP SWAP1 JUMP JUMPDEST PUSH0 PUSH1 0x40 MLOAD SWAP1 POP SWAP1 JUMP JUMPDEST PUSH0 DUP1 REVERT JUMPDEST PUSH0 DUP1 REVERT JUMPDEST PUSH0 PUSH20 0xFFFFFFFFFFFFFFFFFFFFFFFFFFFFFFFFFFFFFFFF DUP3 AND SWAP1 POP SWAP2 SWAP1 POP JUMP JUMPDEST PUSH0 PUSH2 0x1913 DUP3 PUSH2 0x18EA JUMP JUMPDEST SWAP1 POP SWAP2 SWAP1 POP JUMP JUMPDEST PUSH2 0x1923 DUP2 PUSH2 0x1909 JUMP JUMPDEST DUP2 EQ PUSH2 0x192D JUMPI PUSH0 DUP1 REVERT JUMPDEST POP JUMP JUMPDEST PUSH0 DUP2 CALLDATALOAD SWAP1 POP PUSH2 0x193E DUP2 PUSH2 0x191A JUMP JUMPDEST SWAP3 SWAP2 POP POP JUMP JUMPDEST PUSH0 DUP2 SWAP1 POP SWAP2 SWAP1 POP JUMP JUMPDEST PUSH2 0x1956 DUP2 PUSH2 0x1944 JUMP JUMPDEST DUP2 EQ PUSH2 0x1960 JUMPI PUSH0 DUP1 REVERT JUMPDEST POP JUMP JUMPDEST PUSH0 DUP2 CALLDATALOAD SWAP1 POP PUSH2 0x1971 DUP2 PUSH2 0x194D JUMP JUMPDEST SWAP3 SWAP2 POP POP JUMP JUMPDEST PUSH0 DUP1 PUSH0 PUSH1 0x60 DUP5 DUP7 SUB SLT ISZERO PUSH2 0x198E JUMPI PUSH2 0x198D PUSH2 0x18E2 JUMP JUMPDEST JUMPDEST PUSH0 PUSH2 0x199B DUP7 DUP3 DUP8 ADD PUSH2 0x1930 JUMP JUMPDEST SWAP4 POP POP PUSH1 0x20 PUSH2 0x19AC DUP7 DUP3 DUP8 ADD PUSH2 0x1963 JUMP JUMPDEST SWAP3 POP POP PUSH1 0x40 PUSH2 0x19BD DUP7 DUP3 DUP8 ADD PUSH2 0x1963 JUMP JUMPDEST SWAP2 POP POP SWAP3 POP SWAP3 POP SWAP3 JUMP JUMPDEST PUSH2 0x19D0 DUP2 PUSH2 0x1944 JUMP JUMPDEST DUP3 MSTORE POP POP JUMP JUMPDEST PUSH0 PUSH1 0x20 DUP3 ADD SWAP1 POP PUSH2 0x19E9 PUSH0 DUP4 ADD DUP5 PUSH2 0x19C7 JUMP JUMPDEST SWAP3 SWAP2 POP POP JUMP JUMPDEST PUSH0 PUSH1 0x20 DUP3 DUP5 SUB SLT ISZERO PUSH2 0x1A04 JUMPI PUSH2 0x1A03 PUSH2 0x18E2 JUMP JUMPDEST JUMPDEST PUSH0 PUSH2 0x1A11 DUP5 DUP3 DUP6 ADD PUSH2 0x1930 JUMP JUMPDEST SWAP2 POP POP SWAP3 SWAP2 POP POP JUMP JUMPDEST PUSH0 DUP2 SWAP1 POP SWAP2 SWAP1 POP JUMP JUMPDEST PUSH0 PUSH2 0x1A3D PUSH2 0x1A38 PUSH2 0x1A33 DUP5 PUSH2 0x18EA JUMP JUMPDEST PUSH2 0x1A1A JUMP JUMPDEST PUSH2 0x18EA JUMP JUMPDEST SWAP1 POP SWAP2 SWAP1 POP JUMP JUMPDEST PUSH0 PUSH2 0x1A4E DUP3 PUSH2 0x1A23 JUMP JUMPDEST SWAP1 POP SWAP2 SWAP1 POP JUMP JUMPDEST PUSH0 PUSH2 0x1A5F DUP3 PUSH2 0x1A44 JUMP JUMPDEST SWAP1 POP SWAP2 SWAP1 POP JUMP JUMPDEST PUSH2 0x1A6F DUP2 PUSH2 0x1A55 JUMP JUMPDEST DUP3 MSTORE POP POP JUMP JUMPDEST PUSH0 PUSH1 0x20 DUP3 ADD SWAP1 POP PUSH2 0x1A88 PUSH0 DUP4 ADD DUP5 PUSH2 0x1A66 JUMP JUMPDEST SWAP3 SWAP2 POP POP JUMP JUMPDEST PUSH2 0x1A97 DUP2 PUSH2 0x1909 JUMP JUMPDEST DUP3 MSTORE POP POP JUMP JUMPDEST PUSH0 PUSH1 0x20 DUP3 ADD SWAP1 POP PUSH2 0x1AB0 PUSH0 DUP4 ADD DUP5 PUSH2 0x1A8E JUMP JUMPDEST SWAP3 SWAP2 POP POP JUMP JUMPDEST PUSH0 PUSH2 0x1AC0 DUP3 PUSH2 0x1A44 JUMP JUMPDEST SWAP1 POP SWAP2 SWAP1 POP JUMP JUMPDEST PUSH2 0x1AD0 DUP2 PUSH2 0x1AB6 JUMP JUMPDEST DUP3 MSTORE POP POP JUMP JUMPDEST PUSH0 PUSH1 0x20 DUP3 ADD SWAP1 POP PUSH2 0x1AE9 PUSH0 DUP4 ADD DUP5 PUSH2 0x1AC7 JUMP JUMPDEST SWAP3 SWAP2 POP POP JUMP JUMPDEST PUSH0 PUSH1 0x20 DUP3 DUP5 SUB SLT ISZERO PUSH2 0x1B04 JUMPI PUSH2 0x1B03 PUSH2 0x18E2 JUMP JUMPDEST JUMPDEST PUSH0 PUSH2 0x1B11 DUP5 DUP3 DUP6 ADD PUSH2 0x1963 JUMP JUMPDEST SWAP2 POP POP SWAP3 SWAP2 POP POP JUMP JUMPDEST PUSH0 DUP1 PUSH0 DUP1 PUSH1 0x80 DUP6 DUP8 SUB SLT ISZERO PUSH2 0x1B32 JUMPI PUSH2 0x1B31 PUSH2 0x18E2 JUMP JUMPDEST JUMPDEST PUSH0 PUSH2 0x1B3F DUP8 DUP3 DUP9 ADD PUSH2 0x1930 JUMP JUMPDEST SWAP5 POP POP PUSH1 0x20 PUSH2 0x1B50 DUP8 DUP3 DUP9 ADD PUSH2 0x1963 JUMP JUMPDEST SWAP4 POP POP PUSH1 0x40 PUSH2 0x1B61 DUP8 DUP3 DUP9 ADD PUSH2 0x1963 JUMP JUMPDEST SWAP3 POP POP PUSH1 0x60 PUSH2 0x1B72 DUP8 DUP3 DUP9 ADD PUSH2 0x1963 JUMP JUMPDEST SWAP2 POP POP SWAP3 SWAP6 SWAP2 SWAP5 POP SWAP3 POP JUMP JUMPDEST PUSH0 DUP2 ISZERO ISZERO SWAP1 POP SWAP2 SWAP1 POP JUMP JUMPDEST PUSH2 0x1B92 DUP2 PUSH2 0x1B7E JUMP JUMPDEST DUP3 MSTORE POP POP JUMP JUMPDEST PUSH0 PUSH1 0x60 DUP3 ADD SWAP1 POP PUSH2 0x1BAB PUSH0 DUP4 ADD DUP7 PUSH2 0x19C7 JUMP JUMPDEST PUSH2 0x1BB8 PUSH1 0x20 DUP4 ADD DUP6 PUSH2 0x19C7 JUMP JUMPDEST PUSH2 0x1BC5 PUSH1 0x40 DUP4 ADD DUP5 PUSH2 0x1B89 JUMP JUMPDEST SWAP5 SWAP4 POP POP POP POP JUMP JUMPDEST PUSH0 PUSH1 0x20 DUP3 ADD SWAP1 POP PUSH2 0x1BE0 PUSH0 DUP4 ADD DUP5 PUSH2 0x1B89 JUMP JUMPDEST SWAP3 SWAP2 POP POP JUMP JUMPDEST PUSH0 PUSH1 0x60 DUP3 ADD SWAP1 POP PUSH2 0x1BF9 PUSH0 DUP4 ADD DUP7 PUSH2 0x1A8E JUMP JUMPDEST PUSH2 0x1C06 PUSH1 0x20 DUP4 ADD DUP6 PUSH2 0x1A8E JUMP JUMPDEST PUSH2 0x1C13 PUSH1 0x40 DUP4 ADD DUP5 PUSH2 0x19C7 JUMP JUMPDEST SWAP5 SWAP4 POP POP POP POP JUMP JUMPDEST PUSH2 0x1C24 DUP2 PUSH2 0x1B7E JUMP JUMPDEST DUP2 EQ PUSH2 0x1C2E JUMPI PUSH0 DUP1 REVERT JUMPDEST POP JUMP JUMPDEST PUSH0 DUP2 MLOAD SWAP1 POP PUSH2 0x1C3F DUP2 PUSH2 0x1C1B JUMP JUMPDEST SWAP3 SWAP2 POP POP JUMP JUMPDEST PUSH0 PUSH1 0x20 DUP3 DUP5 SUB SLT ISZERO PUSH2 0x1C5A JUMPI PUSH2 0x1C59 PUSH2 0x18E2 JUMP JUMPDEST JUMPDEST PUSH0 PUSH2 0x1C67 DUP5 DUP3 DUP6 ADD PUSH2 0x1C31 JUMP JUMPDEST SWAP2 POP POP SWAP3 SWAP2 POP POP JUMP JUMPDEST PUSH0 PUSH1 0x40 DUP3 ADD SWAP1 POP PUSH2 0x1C83 PUSH0 DUP4 ADD DUP6 PUSH2 0x1A8E JUMP JUMPDEST PUSH2 0x1C90 PUSH1 0x20 DUP4 ADD DUP5 PUSH2 0x19C7 JUMP JUMPDEST SWAP4 SWAP3 POP POP POP JUMP JUMPDEST PUSH32 0x4E487B7100000000000000000000000000000000000000000000000000000000 PUSH0 MSTORE PUSH1 0x41 PUSH1 0x4 MSTORE PUSH1 0x24 PUSH0 REVERT JUMPDEST PUSH32 0x4E487B7100000000000000000000000000000000000000000000000000000000 PUSH0 MSTORE PUSH1 0x32 PUSH1 0x4 MSTORE PUSH1 0x24 PUSH0 REVERT JUMPDEST PUSH0 DUP2 MLOAD SWAP1 POP PUSH2 0x1CFF DUP2 PUSH2 0x191A JUMP JUMPDEST SWAP3 SWAP2 POP POP JUMP JUMPDEST PUSH0 PUSH1 0x20 DUP3 DUP5 SUB SLT ISZERO PUSH2 0x1D1A JUMPI PUSH2 0x1D19 PUSH2 0x18E2 JUMP JUMPDEST JUMPDEST PUSH0 PUSH2 0x1D27 DUP5 DUP3 DUP6 ADD PUSH2 0x1CF1 JUMP JUMPDEST SWAP2 POP POP SWAP3 SWAP2 POP POP JUMP JUMPDEST PUSH0 DUP2 MLOAD SWAP1 POP SWAP2 SWAP1 POP JUMP JUMPDEST PUSH0 DUP3 DUP3 MSTORE PUSH1 0x20 DUP3 ADD SWAP1 POP SWAP3 SWAP2 POP POP JUMP JUMPDEST PUSH0 DUP2 SWAP1 POP PUSH1 0x20 DUP3 ADD SWAP1 POP SWAP2 SWAP1 POP JUMP JUMPDEST PUSH2 0x1D62 DUP2 PUSH2 0x1909 JUMP JUMPDEST DUP3 MSTORE POP POP JUMP JUMPDEST PUSH0 PUSH2 0x1D73 DUP4 DUP4 PUSH2 0x1D59 JUMP JUMPDEST PUSH1 0x20 DUP4 ADD SWAP1 POP SWAP3 SWAP2 POP POP JUMP JUMPDEST PUSH0 PUSH1 0x20 DUP3 ADD SWAP1 POP SWAP2 SWAP1 POP JUMP JUMPDEST PUSH0 PUSH2 0x1D95 DUP3 PUSH2 0x1D30 JUMP JUMPDEST PUSH2 0x1D9F DUP2 DUP6 PUSH2 0x1D3A JUMP JUMPDEST SWAP4 POP PUSH2 0x1DAA DUP4 PUSH2 0x1D4A JUMP JUMPDEST DUP1 PUSH0 JUMPDEST DUP4 DUP2 LT ISZERO PUSH2 0x1DDA JUMPI DUP2 MLOAD PUSH2 0x1DC1 DUP9 DUP3 PUSH2 0x1D68 JUMP JUMPDEST SWAP8 POP PUSH2 0x1DCC DUP4 PUSH2 0x1D7F JUMP JUMPDEST SWAP3 POP POP PUSH1 0x1 DUP2 ADD SWAP1 POP PUSH2 0x1DAD JUMP JUMPDEST POP DUP6 SWAP4 POP POP POP POP SWAP3 SWAP2 POP POP JUMP JUMPDEST PUSH0 PUSH1 0xA0 DUP3 ADD SWAP1 POP PUSH2 0x1DFA PUSH0 DUP4 ADD DUP9 PUSH2 0x19C7 JUMP JUMPDEST PUSH2 0x1E07 PUSH1 0x20 DUP4 ADD DUP8 PUSH2 0x19C7 JUMP JUMPDEST DUP2 DUP2 SUB PUSH1 0x40 DUP4 ADD MSTORE PUSH2 0x1E19 DUP2 DUP7 PUSH2 0x1D8B JUMP JUMPDEST SWAP1 POP PUSH2 0x1E28 PUSH1 0x60 DUP4 ADD DUP6 PUSH2 0x1A8E JUMP JUMPDEST PUSH2 0x1E35 PUSH1 0x80 DUP4 ADD DUP5 PUSH2 0x19C7 JUMP JUMPDEST SWAP7 SWAP6 POP POP POP POP POP POP JUMP JUMPDEST PUSH0 DUP1 REVERT JUMPDEST PUSH0 PUSH1 0x1F NOT PUSH1 0x1F DUP4 ADD AND SWAP1 POP SWAP2 SWAP1 POP JUMP JUMPDEST PUSH2 0x1E5C DUP3 PUSH2 0x1E43 JUMP JUMPDEST DUP2 ADD DUP2 DUP2 LT PUSH8 0xFFFFFFFFFFFFFFFF DUP3 GT OR ISZERO PUSH2 0x1E7B JUMPI PUSH2 0x1E7A PUSH2 0x1C97 JUMP JUMPDEST JUMPDEST DUP1 PUSH1 0x40 MSTORE POP POP POP JUMP JUMPDEST PUSH0 PUSH2 0x1E8D PUSH2 0x18D9 JUMP JUMPDEST SWAP1 POP PUSH2 0x1E99 DUP3 DUP3 PUSH2 0x1E53 JUMP JUMPDEST SWAP2 SWAP1 POP JUMP JUMPDEST PUSH0 PUSH8 0xFFFFFFFFFFFFFFFF DUP3 GT ISZERO PUSH2 0x1EB8 JUMPI PUSH2 0x1EB7 PUSH2 0x1C97 JUMP JUMPDEST JUMPDEST PUSH1 0x20 DUP3 MUL SWAP1 POP PUSH1 0x20 DUP2 ADD SWAP1 POP SWAP2 SWAP1 POP JUMP JUMPDEST PUSH0 DUP1 REVERT JUMPDEST PUSH0 DUP2 MLOAD SWAP1 POP PUSH2 0x1EDB DUP2 PUSH2 0x194D JUMP JUMPDEST SWAP3 SWAP2 POP POP JUMP JUMPDEST PUSH0 PUSH2 0x1EF3 PUSH2 0x1EEE DUP5 PUSH2 0x1E9E JUMP JUMPDEST PUSH2 0x1E84 JUMP JUMPDEST SWAP1 POP DUP1 DUP4 DUP3 MSTORE PUSH1 0x20 DUP3 ADD SWAP1 POP PUSH1 0x20 DUP5 MUL DUP4 ADD DUP6 DUP2 GT ISZERO PUSH2 0x1F16 JUMPI PUSH2 0x1F15 PUSH2 0x1EC9 JUMP JUMPDEST JUMPDEST DUP4 JUMPDEST DUP2 DUP2 LT ISZERO PUSH2 0x1F3F JUMPI DUP1 PUSH2 0x1F2B DUP9 DUP3 PUSH2 0x1ECD JUMP JUMPDEST DUP5 MSTORE PUSH1 0x20 DUP5 ADD SWAP4 POP POP PUSH1 0x20 DUP2 ADD SWAP1 POP PUSH2 0x1F18 JUMP JUMPDEST POP POP POP SWAP4 SWAP3 POP POP POP JUMP JUMPDEST PUSH0 DUP3 PUSH1 0x1F DUP4 ADD SLT PUSH2 0x1F5D JUMPI PUSH2 0x1F5C PUSH2 0x1E3F JUMP JUMPDEST JUMPDEST DUP2 MLOAD PUSH2 0x1F6D DUP5 DUP3 PUSH1 0x20 DUP7 ADD PUSH2 0x1EE1 JUMP JUMPDEST SWAP2 POP POP SWAP3 SWAP2 POP POP JUMP JUMPDEST PUSH0 PUSH1 0x20 DUP3 DUP5 SUB SLT ISZERO PUSH2 0x1F8B JUMPI PUSH2 0x1F8A PUSH2 0x18E2 JUMP JUMPDEST JUMPDEST PUSH0 DUP3 ADD MLOAD PUSH8 0xFFFFFFFFFFFFFFFF DUP2 GT ISZERO PUSH2 0x1FA8 JUMPI PUSH2 0x1FA7 PUSH2 0x18E6 JUMP JUMPDEST JUMPDEST PUSH2 0x1FB4 DUP5 DUP3 DUP6 ADD PUSH2 0x1F49 JUMP JUMPDEST SWAP2 POP POP SWAP3 SWAP2 POP POP JUMP JUMPDEST PUSH32 0x4E487B7100000000000000000000000000000000000000000000000000000000 PUSH0 MSTORE PUSH1 0x11 PUSH1 0x4 MSTORE PUSH1 0x24 PUSH0 REVERT JUMPDEST PUSH0 PUSH2 0x1FF4 DUP3 PUSH2 0x1944 JUMP JUMPDEST SWAP2 POP PUSH2 0x1FFF DUP4 PUSH2 0x1944 JUMP JUMPDEST SWAP3 POP DUP3 DUP3 MUL PUSH2 0x200D DUP2 PUSH2 0x1944 JUMP JUMPDEST SWAP2 POP DUP3 DUP3 DIV DUP5 EQ DUP4 ISZERO OR PUSH2 0x2024 JUMPI PUSH2 0x2023 PUSH2 0x1FBD JUMP JUMPDEST JUMPDEST POP SWAP3 SWAP2 POP POP JUMP JUMPDEST PUSH32 0x4E487B7100000000000000000000000000000000000000000000000000000000 PUSH0 MSTORE PUSH1 0x12 PUSH1 0x4 MSTORE PUSH1 0x24 PUSH0 REVERT JUMPDEST PUSH0 PUSH2 0x2062 DUP3 PUSH2 0x1944 JUMP JUMPDEST SWAP2 POP PUSH2 0x206D DUP4 PUSH2 0x1944 JUMP JUMPDEST SWAP3 POP DUP3 PUSH2 0x207D JUMPI PUSH2 0x207C PUSH2 0x202B JUMP JUMPDEST JUMPDEST DUP3 DUP3 DIV SWAP1 POP SWAP3 SWAP2 POP POP JUMP JUMPDEST PUSH0 PUSH2 0x2092 DUP3 PUSH2 0x1944 JUMP JUMPDEST SWAP2 POP PUSH2 0x209D DUP4 PUSH2 0x1944 JUMP JUMPDEST SWAP3 POP DUP3 DUP3 SUB SWAP1 POP DUP2 DUP2 GT ISZERO PUSH2 0x20B5 JUMPI PUSH2 0x20B4 PUSH2 0x1FBD JUMP JUMPDEST JUMPDEST SWAP3 SWAP2 POP POP JUMP JUMPDEST PUSH0 PUSH1 0x40 DUP3 ADD SWAP1 POP PUSH2 0x20CE PUSH0 DUP4 ADD DUP6 PUSH2 0x19C7 JUMP JUMPDEST PUSH2 0x20DB PUSH1 0x20 DUP4 ADD DUP5 PUSH2 0x19C7 JUMP JUMPDEST SWAP4 SWAP3 POP POP POP JUMP JUMPDEST PUSH0 DUP3 DUP3 MSTORE PUSH1 0x20 DUP3 ADD SWAP1 POP SWAP3 SWAP2 POP POP JUMP JUMPDEST PUSH32 0x496E76616C696420616464726573730000000000000000000000000000000000 PUSH0 DUP3 ADD MSTORE POP JUMP JUMPDEST PUSH0 PUSH2 0x2126 PUSH1 0xF DUP4 PUSH2 0x20E2 JUMP JUMPDEST SWAP2 POP PUSH2 0x2131 DUP3 PUSH2 0x20F2 JUMP JUMPDEST PUSH1 0x20 DUP3 ADD SWAP1 POP SWAP2 SWAP1 POP JUMP JUMPDEST PUSH0 PUSH1 0x20 DUP3 ADD SWAP1 POP DUP2 DUP2 SUB PUSH0 DUP4 ADD MSTORE PUSH2 0x2153 DUP2 PUSH2 0x211A JUMP JUMPDEST SWAP1 POP SWAP2 SWAP1 POP JUMP JUMPDEST PUSH32 0x4E6F206C697175696469747920666F72207468697320746F6B656E0000000000 PUSH0 DUP3 ADD MSTORE POP JUMP JUMPDEST PUSH0 PUSH2 0x218E PUSH1 0x1B DUP4 PUSH2 0x20E2 JUMP JUMPDEST SWAP2 POP PUSH2 0x2199 DUP3 PUSH2 0x215A JUMP JUMPDEST PUSH1 0x20 DUP3 ADD SWAP1 POP SWAP2 SWAP1 POP JUMP JUMPDEST PUSH0 PUSH1 0x20 DUP3 ADD SWAP1 POP DUP2 DUP2 SUB PUSH0 DUP4 ADD MSTORE PUSH2 0x21BB DUP2 PUSH2 0x2182 JUMP JUMPDEST SWAP1 POP SWAP2 SWAP1 POP JUMP JUMPDEST PUSH32 0x457374696D617465642067617320636F73742065786365656473206D696E416D PUSH0 DUP3 ADD MSTORE PUSH32 0x6F756E744F757400000000000000000000000000000000000000000000000000 PUSH1 0x20 DUP3 ADD MSTORE POP JUMP JUMPDEST PUSH0 PUSH2 0x221C PUSH1 0x27 DUP4 PUSH2 0x20E2 JUMP JUMPDEST SWAP2 POP PUSH2 0x2227 DUP3 PUSH2 0x21C2 JUMP JUMPDEST PUSH1 0x40 DUP3 ADD SWAP1 POP SWAP2 SWAP1 POP JUMP JUMPDEST PUSH0 PUSH1 0x20 DUP3 ADD SWAP1 POP DUP2 DUP2 SUB PUSH0 DUP4 ADD MSTORE PUSH2 0x2249 DUP2 PUSH2 0x2210 JUMP JUMPDEST SWAP1 POP SWAP2 SWAP1 POP JUMP JUMPDEST PUSH32 0x5377617020457870656374656420746F204661696C206F7220746F6F20476173 PUSH0 DUP3 ADD MSTORE PUSH32 0x7379000000000000000000000000000000000000000000000000000000000000 PUSH1 0x20 DUP3 ADD MSTORE POP JUMP JUMPDEST PUSH0 PUSH2 0x22AA PUSH1 0x22 DUP4 PUSH2 0x20E2 JUMP JUMPDEST SWAP2 POP PUSH2 0x22B5 DUP3 PUSH2 0x2250 JUMP JUMPDEST PUSH1 0x40 DUP3 ADD SWAP1 POP SWAP2 SWAP1 POP JUMP JUMPDEST PUSH0 PUSH1 0x20 DUP3 ADD SWAP1 POP DUP2 DUP2 SUB PUSH0 DUP4 ADD MSTORE PUSH2 0x22D7 DUP2 PUSH2 0x229E JUMP JUMPDEST SWAP1 POP SWAP2 SWAP1 POP JUMP JUMPDEST PUSH0 PUSH1 0x40 DUP3 ADD SWAP1 POP PUSH2 0x22F1 PUSH0 DUP4 ADD DUP6 PUSH2 0x19C7 JUMP JUMPDEST DUP2 DUP2 SUB PUSH1 0x20 DUP4 ADD MSTORE PUSH2 0x2303 DUP2 DUP5 PUSH2 0x1D8B JUMP JUMPDEST SWAP1 POP SWAP4 SWAP3 POP POP POP JUMP JUMPDEST PUSH32 0x457870656374656420616D6F756E74206C657373207468616E206D696E696D75 PUSH0 DUP3 ADD MSTORE PUSH32 0x6D20726571756972656400000000000000000000000000000000000000000000 PUSH1 0x20 DUP3 ADD MSTORE POP JUMP JUMPDEST PUSH0 PUSH2 0x2366 PUSH1 0x2A DUP4 PUSH2 0x20E2 JUMP JUMPDEST SWAP2 POP PUSH2 0x2371 DUP3 PUSH2 0x230C JUMP JUMPDEST PUSH1 0x40 DUP3 ADD SWAP1 POP SWAP2 SWAP1 POP JUMP JUMPDEST PUSH0 PUSH1 0x20 DUP3 ADD SWAP1 POP DUP2 DUP2 SUB PUSH0 DUP4 ADD MSTORE PUSH2 0x2393 DUP2 PUSH2 0x235A JUMP JUMPDEST SWAP1 POP SWAP2 SWAP1 POP JUMP JUMPDEST PUSH0 PUSH2 0x23A4 DUP3 PUSH2 0x1944 JUMP JUMPDEST SWAP2 POP PUSH2 0x23AF DUP4 PUSH2 0x1944 JUMP JUMPDEST SWAP3 POP DUP3 DUP3 ADD SWAP1 POP DUP1 DUP3 GT ISZERO PUSH2 0x23C7 JUMPI PUSH2 0x23C6 PUSH2 0x1FBD JUMP JUMPDEST JUMPDEST SWAP3 SWAP2 POP POP JUMP INVALID LOG2 PUSH5 0x6970667358 0x22 SLT KECCAK256 PUSH0 0xBD 0xDA 0x5D 0xF AND PUSH16 0x61080EF330D280CA796556E84E235261 GASPRICE JUMP CODESIZE 0xB8 SWAP3 0xCC LT CREATE 0xE9 PUSH5 0x736F6C6343 STOP ADDMOD EQ STOP CALLER "
				},
				"gasEstimates": {
					"creation": {
						"codeDepositCost": "1843800",
						"executionCost": "infinite",
						"totalCost": "infinite"
					},
					"external": {
						"canSwap(address,uint256,uint256)": "infinite",
						"depositETH()": "229",
						"estimatedGasForSwap()": "2471",
						"feePercentage()": "2448",
						"getSwapQuote(address,uint256,uint256,uint256)": "infinite",
						"owner()": "2560",
						"renounceOwnership()": "infinite",
						"rewardPot()": "infinite",
						"setEstimatedGasForSwap(uint256)": "infinite",
						"setFeePercentage(uint256)": "infinite",
						"setRewardPot(address)": "infinite",
						"setUniswapRouter(address)": "infinite",
						"swapTokensForETH(address,uint256,uint256)": "infinite",
						"swapTokensForETH_UserPaysGas(address,uint256,uint256)": "infinite",
						"transferOwnership(address)": "infinite",
						"uniswapRouter()": "infinite",
						"withdrawETH(uint256)": "infinite"
					},
					"internal": {
						"tryGetAmountsOut(uint256,address[] memory)": "infinite"
					}
				},
				"methodIdentifiers": {
					"canSwap(address,uint256,uint256)": "b4798209",
					"depositETH()": "f6326fb3",
					"estimatedGasForSwap()": "344954af",
					"feePercentage()": "a001ecdd",
					"getSwapQuote(address,uint256,uint256,uint256)": "ad9902a1",
					"owner()": "8da5cb5b",
					"renounceOwnership()": "715018a6",
					"rewardPot()": "93ad7440",
					"setEstimatedGasForSwap(uint256)": "98281c75",
					"setFeePercentage(uint256)": "ae06c1b7",
					"setRewardPot(address)": "4e63c29e",
					"setUniswapRouter(address)": "bea9849e",
					"swapTokensForETH(address,uint256,uint256)": "e15cc8da",
					"swapTokensForETH_UserPaysGas(address,uint256,uint256)": "0fe6a787",
					"transferOwnership(address)": "f2fde38b",
					"uniswapRouter()": "735de9f7",
					"withdrawETH(uint256)": "f14210a6"
				}
			},
			"storageLayout": {
				"storage": [
					{
						"astId": 8,
						"contract": "Bitxchange.sol:Bitxchange",
						"label": "_owner",
						"offset": 0,
						"slot": "0",
						"type": "t_address"
					},
					{
						"astId": 659,
						"contract": "Bitxchange.sol:Bitxchange",
						"label": "uniswapRouter",
						"offset": 0,
						"slot": "1",
						"type": "t_contract(IUniswapV2Router02)643"
					},
					{
						"astId": 662,
						"contract": "Bitxchange.sol:Bitxchange",
						"label": "rewardPot",
						"offset": 0,
						"slot": "2",
						"type": "t_contract(IRewardPot)654"
					},
					{
						"astId": 665,
						"contract": "Bitxchange.sol:Bitxchange",
						"label": "feePercentage",
						"offset": 0,
						"slot": "3",
						"type": "t_uint256"
					},
					{
						"astId": 668,
						"contract": "Bitxchange.sol:Bitxchange",
						"label": "estimatedGasForSwap",
						"offset": 0,
						"slot": "4",
						"type": "t_uint256"
					}
				],
				"types": {
					"t_address": {
						"encoding": "inplace",
						"label": "address",
						"numberOfBytes": "20"
					},
					"t_contract(IRewardPot)654": {
						"encoding": "inplace",
						"label": "contract IRewardPot",
						"numberOfBytes": "20"
					},
					"t_contract(IUniswapV2Router02)643": {
						"encoding": "inplace",
						"label": "contract IUniswapV2Router02",
						"numberOfBytes": "20"
					},
					"t_uint256": {
						"encoding": "inplace",
						"label": "uint256",
						"numberOfBytes": "32"
					}
				}
			},
			"userdoc": {
				"kind": "user",
				"methods": {},
				"version": 1
			}
		}
	}
}