{
	"Bitxchange.sol": {
		"Bitxchange": {
			"abi": [
				{
					"inputs": [
						{
							"internalType": "address",
							"name": "_uniswapRouter",
							"type": "address"
						},
						{
							"internalType": "address",
							"name": "_rewardPot",
							"type": "address"
						}
					],
					"stateMutability": "nonpayable",
					"type": "constructor"
				},
				{
					"inputs": [
						{
							"internalType": "address",
							"name": "owner",
							"type": "address"
						}
					],
					"name": "OwnableInvalidOwner",
					"type": "error"
				},
				{
					"inputs": [
						{
							"internalType": "address",
							"name": "account",
							"type": "address"
						}
					],
					"name": "OwnableUnauthorizedAccount",
					"type": "error"
				},
				{
					"anonymous": false,
					"inputs": [
						{
							"indexed": false,
							"internalType": "uint256",
							"name": "newFee",
							"type": "uint256"
						}
					],
					"name": "FeeUpdated",
					"type": "event"
				},
				{
					"anonymous": false,
					"inputs": [
						{
							"indexed": true,
							"internalType": "address",
							"name": "previousOwner",
							"type": "address"
						},
						{
							"indexed": true,
							"internalType": "address",
							"name": "newOwner",
							"type": "address"
						}
					],
					"name": "OwnershipTransferred",
					"type": "event"
				},
				{
					"anonymous": false,
					"inputs": [
						{
							"indexed": false,
							"internalType": "address",
							"name": "newRewardPot",
							"type": "address"
						}
					],
					"name": "RewardPotUpdated",
					"type": "event"
				},
				{
					"anonymous": false,
					"inputs": [
						{
							"indexed": true,
							"internalType": "address",
							"name": "from",
							"type": "address"
						},
						{
							"indexed": false,
							"internalType": "uint256",
							"name": "receivedETH",
							"type": "uint256"
						}
					],
					"name": "SwapSuccessful",
					"type": "event"
				},
				{
					"stateMutability": "payable",
					"type": "fallback"
				},
				{
					"inputs": [
						{
							"internalType": "address",
							"name": "token",
							"type": "address"
						},
						{
							"internalType": "uint256",
							"name": "amountIn",
							"type": "uint256"
						},
						{
							"internalType": "uint256",
							"name": "userGasPrice",
							"type": "uint256"
						}
					],
					"name": "canSwap",
					"outputs": [
						{
							"internalType": "bool",
							"name": "",
							"type": "bool"
						}
					],
					"stateMutability": "view",
					"type": "function"
				},
				{
					"inputs": [],
					"name": "depositETH",
					"outputs": [],
					"stateMutability": "payable",
					"type": "function"
				},
				{
					"inputs": [],
					"name": "estimatedGasForSwap",
					"outputs": [
						{
							"internalType": "uint256",
							"name": "",
							"type": "uint256"
						}
					],
					"stateMutability": "view",
					"type": "function"
				},
				{
					"inputs": [],
					"name": "feePercentage",
					"outputs": [
						{
							"internalType": "uint256",
							"name": "",
							"type": "uint256"
						}
					],
					"stateMutability": "view",
					"type": "function"
				},
				{
					"inputs": [
						{
							"internalType": "bytes32",
							"name": "messageHash",
							"type": "bytes32"
						},
						{
							"internalType": "bytes",
							"name": "signature",
							"type": "bytes"
						}
					],
					"name": "getSignerAddress",
					"outputs": [
						{
							"internalType": "address",
							"name": "",
							"type": "address"
						}
					],
					"stateMutability": "pure",
					"type": "function"
				},
				{
					"inputs": [
						{
							"internalType": "address",
							"name": "token",
							"type": "address"
						},
						{
							"internalType": "uint256",
							"name": "amount",
							"type": "uint256"
						},
						{
							"internalType": "uint256",
							"name": "slippage",
							"type": "uint256"
						},
						{
							"internalType": "uint256",
							"name": "userGasPrice",
							"type": "uint256"
						}
					],
					"name": "getSwapQuote",
					"outputs": [
						{
							"internalType": "uint256",
							"name": "minAmountOut",
							"type": "uint256"
						},
						{
							"internalType": "uint256",
							"name": "estimatedGasCost",
							"type": "uint256"
						},
						{
							"internalType": "bool",
							"name": "canDoSwap",
							"type": "bool"
						}
					],
					"stateMutability": "view",
					"type": "function"
				},
				{
					"inputs": [],
					"name": "owner",
					"outputs": [
						{
							"internalType": "address",
							"name": "",
							"type": "address"
						}
					],
					"stateMutability": "view",
					"type": "function"
				},
				{
					"inputs": [],
					"name": "receiveFunds",
					"outputs": [],
					"stateMutability": "payable",
					"type": "function"
				},
				{
					"inputs": [],
					"name": "renounceOwnership",
					"outputs": [],
					"stateMutability": "nonpayable",
					"type": "function"
				},
				{
					"inputs": [],
					"name": "rewardPot",
					"outputs": [
						{
							"internalType": "contract IRewardPot",
							"name": "",
							"type": "address"
						}
					],
					"stateMutability": "view",
					"type": "function"
				},
				{
					"inputs": [
						{
							"internalType": "uint256",
							"name": "_newEstimatedGasForSwap",
							"type": "uint256"
						}
					],
					"name": "setEstimatedGasForSwap",
					"outputs": [],
					"stateMutability": "nonpayable",
					"type": "function"
				},
				{
					"inputs": [
						{
							"internalType": "uint256",
							"name": "_newFee",
							"type": "uint256"
						}
					],
					"name": "setFeePercentage",
					"outputs": [],
					"stateMutability": "nonpayable",
					"type": "function"
				},
				{
					"inputs": [
						{
							"internalType": "address",
							"name": "_newRewardPot",
							"type": "address"
						}
					],
					"name": "setRewardPot",
					"outputs": [],
					"stateMutability": "nonpayable",
					"type": "function"
				},
				{
					"inputs": [
						{
							"internalType": "address",
							"name": "_newRouter",
							"type": "address"
						}
					],
					"name": "setUniswapRouter",
					"outputs": [],
					"stateMutability": "nonpayable",
					"type": "function"
				},
				{
					"inputs": [
						{
							"internalType": "address",
							"name": "token",
							"type": "address"
						},
						{
							"internalType": "uint256",
							"name": "amount",
							"type": "uint256"
						},
						{
							"internalType": "uint256",
							"name": "minAmountOut",
							"type": "uint256"
						},
						{
							"internalType": "bytes",
							"name": "signature",
							"type": "bytes"
						},
						{
							"internalType": "uint256",
							"name": "nonce",
							"type": "uint256"
						}
					],
					"name": "swapTokensForETH",
					"outputs": [],
					"stateMutability": "payable",
					"type": "function"
				},
				{
					"inputs": [
						{
							"internalType": "address",
							"name": "token",
							"type": "address"
						},
						{
							"internalType": "uint256",
							"name": "amount",
							"type": "uint256"
						},
						{
							"internalType": "uint256",
							"name": "minAmountOut",
							"type": "uint256"
						}
					],
					"name": "swapTokensForETH_UserPaysGas",
					"outputs": [],
					"stateMutability": "payable",
					"type": "function"
				},
				{
					"inputs": [
						{
							"internalType": "address",
							"name": "newOwner",
							"type": "address"
						}
					],
					"name": "transferOwnership",
					"outputs": [],
					"stateMutability": "nonpayable",
					"type": "function"
				},
				{
					"inputs": [],
					"name": "uniswapRouter",
					"outputs": [
						{
							"internalType": "contract IUniswapV2Router02",
							"name": "",
							"type": "address"
						}
					],
					"stateMutability": "view",
					"type": "function"
				},
				{
					"inputs": [
						{
							"internalType": "uint256",
							"name": "amount",
							"type": "uint256"
						}
					],
					"name": "withdrawETH",
					"outputs": [],
					"stateMutability": "nonpayable",
					"type": "function"
				},
				{
					"stateMutability": "payable",
					"type": "receive"
				}
			],
			"devdoc": {
				"errors": {
					"OwnableInvalidOwner(address)": [
						{
							"details": "The owner is not a valid owner account. (eg. `address(0)`)"
						}
					],
					"OwnableUnauthorizedAccount(address)": [
						{
							"details": "The caller account is not authorized to perform an operation."
						}
					]
				},
				"kind": "dev",
				"methods": {
					"owner()": {
						"details": "Returns the address of the current owner."
					},
					"renounceOwnership()": {
						"details": "Leaves the contract without owner. It will not be possible to call `onlyOwner` functions. Can only be called by the current owner. NOTE: Renouncing ownership will leave the contract without an owner, thereby disabling any functionality that is only available to the owner."
					},
					"transferOwnership(address)": {
						"details": "Transfers ownership of the contract to a new account (`newOwner`). Can only be called by the current owner."
					}
				},
				"version": 1
			},
			"evm": {
				"assembly": "    /* \"Bitxchange.sol\":665:9748  contract Bitxchange is Ownable {... */\n  mstore(0x40, 0x80)\n    /* \"Bitxchange.sol\":814:817  750 */\n  0x02ee\n    /* \"Bitxchange.sol\":783:817  uint256 public feePercentage = 750 */\n  0x03\n  sstore\n    /* \"Bitxchange.sol\":891:897  321428 */\n  0x04e794\n    /* \"Bitxchange.sol\":854:897  uint256 public estimatedGasForSwap = 321428 */\n  0x04\n  sstore\n    /* \"Bitxchange.sol\":1068:1258  constructor(address _uniswapRouter, address _rewardPot) Ownable(msg.sender) {... */\n  callvalue\n  dup1\n  iszero\n  tag_1\n  jumpi\n  0x00\n  dup1\n  revert\ntag_1:\n  pop\n  mload(0x40)\n  sub(codesize, bytecodeSize)\n  dup1\n  bytecodeSize\n  dup4\n  codecopy\n  dup2\n  dup2\n  add\n  0x40\n  mstore\n  dup2\n  add\n  swap1\n  tag_2\n  swap2\n  swap1\n  tag_3\n  jump\t// in\ntag_2:\n    /* \"Bitxchange.sol\":1132:1142  msg.sender */\n  caller\n    /* \"@openzeppelin/contracts/access/Ownable.sol\":1297:1298  0 */\n  0x00\n    /* \"@openzeppelin/contracts/access/Ownable.sol\":1273:1299  initialOwner == address(0) */\n  0xffffffffffffffffffffffffffffffffffffffff\n  and\n    /* \"@openzeppelin/contracts/access/Ownable.sol\":1273:1285  initialOwner */\n  dup2\n    /* \"@openzeppelin/contracts/access/Ownable.sol\":1273:1299  initialOwner == address(0) */\n  0xffffffffffffffffffffffffffffffffffffffff\n  and\n  sub\n    /* \"@openzeppelin/contracts/access/Ownable.sol\":1269:1364  if (initialOwner == address(0)) {... */\n  tag_7\n  jumpi\n    /* \"@openzeppelin/contracts/access/Ownable.sol\":1350:1351  0 */\n  0x00\n    /* \"@openzeppelin/contracts/access/Ownable.sol\":1322:1353  OwnableInvalidOwner(address(0)) */\n  mload(0x40)\n  0x1e4fbdf700000000000000000000000000000000000000000000000000000000\n  dup2\n  mstore\n  0x04\n  add\n  tag_8\n  swap2\n  swap1\n  tag_9\n  jump\t// in\ntag_8:\n  mload(0x40)\n  dup1\n  swap2\n  sub\n  swap1\n  revert\n    /* \"@openzeppelin/contracts/access/Ownable.sol\":1269:1364  if (initialOwner == address(0)) {... */\ntag_7:\n    /* \"@openzeppelin/contracts/access/Ownable.sol\":1373:1405  _transferOwnership(initialOwner) */\n  tag_10\n    /* \"@openzeppelin/contracts/access/Ownable.sol\":1392:1404  initialOwner */\n  dup2\n    /* \"@openzeppelin/contracts/access/Ownable.sol\":1373:1391  _transferOwnership */\n  shl(0x20, tag_11)\n    /* \"@openzeppelin/contracts/access/Ownable.sol\":1373:1405  _transferOwnership(initialOwner) */\n  0x20\n  shr\n  jump\t// in\ntag_10:\n    /* \"@openzeppelin/contracts/access/Ownable.sol\":1225:1412  constructor(address initialOwner) {... */\n  pop\n    /* \"Bitxchange.sol\":1190:1204  _uniswapRouter */\n  dup2\n    /* \"Bitxchange.sol\":1155:1168  uniswapRouter */\n  0x01\n  0x00\n    /* \"Bitxchange.sol\":1155:1205  uniswapRouter = IUniswapV2Router02(_uniswapRouter) */\n  0x0100\n  exp\n  dup2\n  sload\n  dup2\n  0xffffffffffffffffffffffffffffffffffffffff\n  mul\n  not\n  and\n  swap1\n  dup4\n  0xffffffffffffffffffffffffffffffffffffffff\n  and\n  mul\n  or\n  swap1\n  sstore\n  pop\n    /* \"Bitxchange.sol\":1239:1249  _rewardPot */\n  dup1\n    /* \"Bitxchange.sol\":1216:1225  rewardPot */\n  0x02\n  0x00\n    /* \"Bitxchange.sol\":1216:1250  rewardPot = IRewardPot(_rewardPot) */\n  0x0100\n  exp\n  dup2\n  sload\n  dup2\n  0xffffffffffffffffffffffffffffffffffffffff\n  mul\n  not\n  and\n  swap1\n  dup4\n  0xffffffffffffffffffffffffffffffffffffffff\n  and\n  mul\n  or\n  swap1\n  sstore\n  pop\n    /* \"Bitxchange.sol\":1068:1258  constructor(address _uniswapRouter, address _rewardPot) Ownable(msg.sender) {... */\n  pop\n  pop\n    /* \"Bitxchange.sol\":665:9748  contract Bitxchange is Ownable {... */\n  jump(tag_13)\n    /* \"@openzeppelin/contracts/access/Ownable.sol\":2912:3099  function _transferOwnership(address newOwner) internal virtual {... */\ntag_11:\n    /* \"@openzeppelin/contracts/access/Ownable.sol\":2985:3001  address oldOwner */\n  0x00\n    /* \"@openzeppelin/contracts/access/Ownable.sol\":3004:3010  _owner */\n  dup1\n  0x00\n  swap1\n  sload\n  swap1\n  0x0100\n  exp\n  swap1\n  div\n  0xffffffffffffffffffffffffffffffffffffffff\n  and\n    /* \"@openzeppelin/contracts/access/Ownable.sol\":2985:3010  address oldOwner = _owner */\n  swap1\n  pop\n    /* \"@openzeppelin/contracts/access/Ownable.sol\":3029:3037  newOwner */\n  dup2\n    /* \"@openzeppelin/contracts/access/Ownable.sol\":3020:3026  _owner */\n  0x00\n  dup1\n    /* \"@openzeppelin/contracts/access/Ownable.sol\":3020:3037  _owner = newOwner */\n  0x0100\n  exp\n  dup2\n  sload\n  dup2\n  0xffffffffffffffffffffffffffffffffffffffff\n  mul\n  not\n  and\n  swap1\n  dup4\n  0xffffffffffffffffffffffffffffffffffffffff\n  and\n  mul\n  or\n  swap1\n  sstore\n  pop\n    /* \"@openzeppelin/contracts/access/Ownable.sol\":3083:3091  newOwner */\n  dup2\n    /* \"@openzeppelin/contracts/access/Ownable.sol\":3052:3092  OwnershipTransferred(oldOwner, newOwner) */\n  0xffffffffffffffffffffffffffffffffffffffff\n  and\n    /* \"@openzeppelin/contracts/access/Ownable.sol\":3073:3081  oldOwner */\n  dup2\n    /* \"@openzeppelin/contracts/access/Ownable.sol\":3052:3092  OwnershipTransferred(oldOwner, newOwner) */\n  0xffffffffffffffffffffffffffffffffffffffff\n  and\n  0x8be0079c531659141344cd1fd0a4f28419497f9722a3daafe3b4186f6b6457e0\n  mload(0x40)\n  mload(0x40)\n  dup1\n  swap2\n  sub\n  swap1\n  log3\n    /* \"@openzeppelin/contracts/access/Ownable.sol\":2975:3099  {... */\n  pop\n    /* \"@openzeppelin/contracts/access/Ownable.sol\":2912:3099  function _transferOwnership(address newOwner) internal virtual {... */\n  pop\n  jump\t// out\n    /* \"#utility.yul\":88:205   */\ntag_16:\n    /* \"#utility.yul\":197:198   */\n  0x00\n    /* \"#utility.yul\":194:195   */\n  dup1\n    /* \"#utility.yul\":187:199   */\n  revert\n    /* \"#utility.yul\":334:460   */\ntag_18:\n    /* \"#utility.yul\":371:378   */\n  0x00\n    /* \"#utility.yul\":411:453   */\n  0xffffffffffffffffffffffffffffffffffffffff\n    /* \"#utility.yul\":404:409   */\n  dup3\n    /* \"#utility.yul\":400:454   */\n  and\n    /* \"#utility.yul\":389:454   */\n  swap1\n  pop\n    /* \"#utility.yul\":334:460   */\n  swap2\n  swap1\n  pop\n  jump\t// out\n    /* \"#utility.yul\":466:562   */\ntag_19:\n    /* \"#utility.yul\":503:510   */\n  0x00\n    /* \"#utility.yul\":532:556   */\n  tag_29\n    /* \"#utility.yul\":550:555   */\n  dup3\n    /* \"#utility.yul\":532:556   */\n  tag_18\n  jump\t// in\ntag_29:\n    /* \"#utility.yul\":521:556   */\n  swap1\n  pop\n    /* \"#utility.yul\":466:562   */\n  swap2\n  swap1\n  pop\n  jump\t// out\n    /* \"#utility.yul\":568:690   */\ntag_20:\n    /* \"#utility.yul\":641:665   */\n  tag_31\n    /* \"#utility.yul\":659:664   */\n  dup2\n    /* \"#utility.yul\":641:665   */\n  tag_19\n  jump\t// in\ntag_31:\n    /* \"#utility.yul\":634:639   */\n  dup2\n    /* \"#utility.yul\":631:666   */\n  eq\n    /* \"#utility.yul\":621:684   */\n  tag_32\n  jumpi\n    /* \"#utility.yul\":680:681   */\n  0x00\n    /* \"#utility.yul\":677:678   */\n  dup1\n    /* \"#utility.yul\":670:682   */\n  revert\n    /* \"#utility.yul\":621:684   */\ntag_32:\n    /* \"#utility.yul\":568:690   */\n  pop\n  jump\t// out\n    /* \"#utility.yul\":696:839   */\ntag_21:\n    /* \"#utility.yul\":753:758   */\n  0x00\n    /* \"#utility.yul\":784:790   */\n  dup2\n    /* \"#utility.yul\":778:791   */\n  mload\n    /* \"#utility.yul\":769:791   */\n  swap1\n  pop\n    /* \"#utility.yul\":800:833   */\n  tag_34\n    /* \"#utility.yul\":827:832   */\n  dup2\n    /* \"#utility.yul\":800:833   */\n  tag_20\n  jump\t// in\ntag_34:\n    /* \"#utility.yul\":696:839   */\n  swap3\n  swap2\n  pop\n  pop\n  jump\t// out\n    /* \"#utility.yul\":845:1352   */\ntag_3:\n    /* \"#utility.yul\":924:930   */\n  0x00\n    /* \"#utility.yul\":932:938   */\n  dup1\n    /* \"#utility.yul\":981:983   */\n  0x40\n    /* \"#utility.yul\":969:978   */\n  dup4\n    /* \"#utility.yul\":960:967   */\n  dup6\n    /* \"#utility.yul\":956:979   */\n  sub\n    /* \"#utility.yul\":952:984   */\n  slt\n    /* \"#utility.yul\":949:1068   */\n  iszero\n  tag_36\n  jumpi\n    /* \"#utility.yul\":987:1066   */\n  tag_37\n  tag_16\n  jump\t// in\ntag_37:\n    /* \"#utility.yul\":949:1068   */\ntag_36:\n    /* \"#utility.yul\":1107:1108   */\n  0x00\n    /* \"#utility.yul\":1132:1196   */\n  tag_38\n    /* \"#utility.yul\":1188:1195   */\n  dup6\n    /* \"#utility.yul\":1179:1185   */\n  dup3\n    /* \"#utility.yul\":1168:1177   */\n  dup7\n    /* \"#utility.yul\":1164:1186   */\n  add\n    /* \"#utility.yul\":1132:1196   */\n  tag_21\n  jump\t// in\ntag_38:\n    /* \"#utility.yul\":1122:1196   */\n  swap3\n  pop\n    /* \"#utility.yul\":1078:1206   */\n  pop\n    /* \"#utility.yul\":1245:1247   */\n  0x20\n    /* \"#utility.yul\":1271:1335   */\n  tag_39\n    /* \"#utility.yul\":1327:1334   */\n  dup6\n    /* \"#utility.yul\":1318:1324   */\n  dup3\n    /* \"#utility.yul\":1307:1316   */\n  dup7\n    /* \"#utility.yul\":1303:1325   */\n  add\n    /* \"#utility.yul\":1271:1335   */\n  tag_21\n  jump\t// in\ntag_39:\n    /* \"#utility.yul\":1261:1335   */\n  swap2\n  pop\n    /* \"#utility.yul\":1216:1345   */\n  pop\n    /* \"#utility.yul\":845:1352   */\n  swap3\n  pop\n  swap3\n  swap1\n  pop\n  jump\t// out\n    /* \"#utility.yul\":1358:1476   */\ntag_22:\n    /* \"#utility.yul\":1445:1469   */\n  tag_41\n    /* \"#utility.yul\":1463:1468   */\n  dup2\n    /* \"#utility.yul\":1445:1469   */\n  tag_19\n  jump\t// in\ntag_41:\n    /* \"#utility.yul\":1440:1443   */\n  dup3\n    /* \"#utility.yul\":1433:1470   */\n  mstore\n    /* \"#utility.yul\":1358:1476   */\n  pop\n  pop\n  jump\t// out\n    /* \"#utility.yul\":1482:1704   */\ntag_9:\n    /* \"#utility.yul\":1575:1579   */\n  0x00\n    /* \"#utility.yul\":1613:1615   */\n  0x20\n    /* \"#utility.yul\":1602:1611   */\n  dup3\n    /* \"#utility.yul\":1598:1616   */\n  add\n    /* \"#utility.yul\":1590:1616   */\n  swap1\n  pop\n    /* \"#utility.yul\":1626:1697   */\n  tag_43\n    /* \"#utility.yul\":1694:1695   */\n  0x00\n    /* \"#utility.yul\":1683:1692   */\n  dup4\n    /* \"#utility.yul\":1679:1696   */\n  add\n    /* \"#utility.yul\":1670:1676   */\n  dup5\n    /* \"#utility.yul\":1626:1697   */\n  tag_22\n  jump\t// in\ntag_43:\n    /* \"#utility.yul\":1482:1704   */\n  swap3\n  swap2\n  pop\n  pop\n  jump\t// out\n    /* \"Bitxchange.sol\":665:9748  contract Bitxchange is Ownable {... */\ntag_13:\n  dataSize(sub_0)\n  dup1\n  dataOffset(sub_0)\n  0x00\n  codecopy\n  0x00\n  return\nstop\n\nsub_0: assembly {\n        /* \"Bitxchange.sol\":665:9748  contract Bitxchange is Ownable {... */\n      mstore(0x40, 0x80)\n      jumpi(tag_1, lt(calldatasize, 0x04))\n      shr(0xe0, calldataload(0x00))\n      dup1\n      0x93ad7440\n      gt\n      tag_22\n      jumpi\n      dup1\n      0xb4798209\n      gt\n      tag_23\n      jumpi\n      dup1\n      0xb4798209\n      eq\n      tag_17\n      jumpi\n      dup1\n      0xbea9849e\n      eq\n      tag_18\n      jumpi\n      dup1\n      0xf14210a6\n      eq\n      tag_19\n      jumpi\n      dup1\n      0xf2fde38b\n      eq\n      tag_20\n      jumpi\n      dup1\n      0xf6326fb3\n      eq\n      tag_21\n      jumpi\n      jump(tag_2)\n    tag_23:\n      dup1\n      0x93ad7440\n      eq\n      tag_12\n      jumpi\n      dup1\n      0x98281c75\n      eq\n      tag_13\n      jumpi\n      dup1\n      0xa001ecdd\n      eq\n      tag_14\n      jumpi\n      dup1\n      0xad9902a1\n      eq\n      tag_15\n      jumpi\n      dup1\n      0xae06c1b7\n      eq\n      tag_16\n      jumpi\n      jump(tag_2)\n    tag_22:\n      dup1\n      0x344954af\n      gt\n      tag_24\n      jumpi\n      dup1\n      0x344954af\n      eq\n      tag_7\n      jumpi\n      dup1\n      0x4e63c29e\n      eq\n      tag_8\n      jumpi\n      dup1\n      0x715018a6\n      eq\n      tag_9\n      jumpi\n      dup1\n      0x735de9f7\n      eq\n      tag_10\n      jumpi\n      dup1\n      0x8da5cb5b\n      eq\n      tag_11\n      jumpi\n      jump(tag_2)\n    tag_24:\n      dup1\n      0x5c33e1\n      eq\n      tag_3\n      jumpi\n      dup1\n      0x0f7d8e39\n      eq\n      tag_4\n      jumpi\n      dup1\n      0x0fe6a787\n      eq\n      tag_5\n      jumpi\n      dup1\n      0x238cb67d\n      eq\n      tag_6\n      jumpi\n      jump(tag_2)\n    tag_1:\n      jumpi(tag_2, calldatasize)\n      stop\n    tag_2:\n      stop\n        /* \"Bitxchange.sol\":1291:1338  function receiveFunds() public payable {... */\n    tag_3:\n      tag_29\n      tag_30\n      jump\t// in\n    tag_29:\n      stop\n        /* \"Bitxchange.sol\":2482:3787  function getSignerAddress(bytes32 messageHash, bytes memory signature) public pure returns (address) {... */\n    tag_4:\n      callvalue\n      dup1\n      iszero\n      tag_31\n      jumpi\n      0x00\n      dup1\n      revert\n    tag_31:\n      pop\n      tag_32\n      0x04\n      dup1\n      calldatasize\n      sub\n      dup2\n      add\n      swap1\n      tag_33\n      swap2\n      swap1\n      tag_34\n      jump\t// in\n    tag_33:\n      tag_35\n      jump\t// in\n    tag_32:\n      mload(0x40)\n      tag_36\n      swap2\n      swap1\n      tag_37\n      jump\t// in\n    tag_36:\n      mload(0x40)\n      dup1\n      swap2\n      sub\n      swap1\n      return\n        /* \"Bitxchange.sol\":8630:9743  function swapTokensForETH_UserPaysGas(address token, uint256 amount, uint256 minAmountOut) external payable {... */\n    tag_5:\n      tag_38\n      0x04\n      dup1\n      calldatasize\n      sub\n      dup2\n      add\n      swap1\n      tag_39\n      swap2\n      swap1\n      tag_40\n      jump\t// in\n    tag_39:\n      tag_41\n      jump\t// in\n    tag_38:\n      stop\n        /* \"Bitxchange.sol\":5964:8622  function swapTokensForETH(address token, uint256 amount, uint256 minAmountOut, bytes memory signature,uint256 nonce) external payable {... */\n    tag_6:\n      tag_42\n      0x04\n      dup1\n      calldatasize\n      sub\n      dup2\n      add\n      swap1\n      tag_43\n      swap2\n      swap1\n      tag_44\n      jump\t// in\n    tag_43:\n      tag_45\n      jump\t// in\n    tag_42:\n      stop\n        /* \"Bitxchange.sol\":854:897  uint256 public estimatedGasForSwap = 321428 */\n    tag_7:\n      callvalue\n      dup1\n      iszero\n      tag_46\n      jumpi\n      0x00\n      dup1\n      revert\n    tag_46:\n      pop\n      tag_47\n      tag_48\n      jump\t// in\n    tag_47:\n      mload(0x40)\n      tag_49\n      swap2\n      swap1\n      tag_50\n      jump\t// in\n    tag_49:\n      mload(0x40)\n      dup1\n      swap2\n      sub\n      swap1\n      return\n        /* \"Bitxchange.sol\":2239:2472  function setRewardPot(address _newRewardPot) external onlyOwner {... */\n    tag_8:\n      callvalue\n      dup1\n      iszero\n      tag_51\n      jumpi\n      0x00\n      dup1\n      revert\n    tag_51:\n      pop\n      tag_52\n      0x04\n      dup1\n      calldatasize\n      sub\n      dup2\n      add\n      swap1\n      tag_53\n      swap2\n      swap1\n      tag_54\n      jump\t// in\n    tag_53:\n      tag_55\n      jump\t// in\n    tag_52:\n      stop\n        /* \"@openzeppelin/contracts/access/Ownable.sol\":2293:2394  function renounceOwnership() public virtual onlyOwner {... */\n    tag_9:\n      callvalue\n      dup1\n      iszero\n      tag_56\n      jumpi\n      0x00\n      dup1\n      revert\n    tag_56:\n      pop\n      tag_57\n      tag_58\n      jump\t// in\n    tag_57:\n      stop\n        /* \"Bitxchange.sol\":703:742  IUniswapV2Router02 public uniswapRouter */\n    tag_10:\n      callvalue\n      dup1\n      iszero\n      tag_59\n      jumpi\n      0x00\n      dup1\n      revert\n    tag_59:\n      pop\n      tag_60\n      tag_61\n      jump\t// in\n    tag_60:\n      mload(0x40)\n      tag_62\n      swap2\n      swap1\n      tag_63\n      jump\t// in\n    tag_62:\n      mload(0x40)\n      dup1\n      swap2\n      sub\n      swap1\n      return\n        /* \"@openzeppelin/contracts/access/Ownable.sol\":1638:1723  function owner() public view virtual returns (address) {... */\n    tag_11:\n      callvalue\n      dup1\n      iszero\n      tag_64\n      jumpi\n      0x00\n      dup1\n      revert\n    tag_64:\n      pop\n      tag_65\n      tag_66\n      jump\t// in\n    tag_65:\n      mload(0x40)\n      tag_67\n      swap2\n      swap1\n      tag_37\n      jump\t// in\n    tag_67:\n      mload(0x40)\n      dup1\n      swap2\n      sub\n      swap1\n      return\n        /* \"Bitxchange.sol\":749:776  IRewardPot public rewardPot */\n    tag_12:\n      callvalue\n      dup1\n      iszero\n      tag_68\n      jumpi\n      0x00\n      dup1\n      revert\n    tag_68:\n      pop\n      tag_69\n      tag_70\n      jump\t// in\n    tag_69:\n      mload(0x40)\n      tag_71\n      swap2\n      swap1\n      tag_72\n      jump\t// in\n    tag_71:\n      mload(0x40)\n      dup1\n      swap2\n      sub\n      swap1\n      return\n        /* \"Bitxchange.sol\":1882:2030  function setEstimatedGasForSwap(uint256 _newEstimatedGasForSwap) external onlyOwner {... */\n    tag_13:\n      callvalue\n      dup1\n      iszero\n      tag_73\n      jumpi\n      0x00\n      dup1\n      revert\n    tag_73:\n      pop\n      tag_74\n      0x04\n      dup1\n      calldatasize\n      sub\n      dup2\n      add\n      swap1\n      tag_75\n      swap2\n      swap1\n      tag_76\n      jump\t// in\n    tag_75:\n      tag_77\n      jump\t// in\n    tag_74:\n      stop\n        /* \"Bitxchange.sol\":783:817  uint256 public feePercentage = 750 */\n    tag_14:\n      callvalue\n      dup1\n      iszero\n      tag_78\n      jumpi\n      0x00\n      dup1\n      revert\n    tag_78:\n      pop\n      tag_79\n      tag_80\n      jump\t// in\n    tag_79:\n      mload(0x40)\n      tag_81\n      swap2\n      swap1\n      tag_50\n      jump\t// in\n    tag_81:\n      mload(0x40)\n      dup1\n      swap2\n      sub\n      swap1\n      return\n        /* \"Bitxchange.sol\":4889:5950  function getSwapQuote(address token, uint256 amount, uint256 slippage, uint256 userGasPrice) public view returns (uint256 minAmountOut, uint256 estimatedGasCost, bool canDoSwap) {... */\n    tag_15:\n      callvalue\n      dup1\n      iszero\n      tag_82\n      jumpi\n      0x00\n      dup1\n      revert\n    tag_82:\n      pop\n      tag_83\n      0x04\n      dup1\n      calldatasize\n      sub\n      dup2\n      add\n      swap1\n      tag_84\n      swap2\n      swap1\n      tag_85\n      jump\t// in\n    tag_84:\n      tag_86\n      jump\t// in\n    tag_83:\n      mload(0x40)\n      tag_87\n      swap4\n      swap3\n      swap2\n      swap1\n      tag_88\n      jump\t// in\n    tag_87:\n      mload(0x40)\n      dup1\n      swap2\n      sub\n      swap1\n      return\n        /* \"Bitxchange.sol\":1735:1874  function setFeePercentage(uint256 _newFee) external onlyOwner {... */\n    tag_16:\n      callvalue\n      dup1\n      iszero\n      tag_89\n      jumpi\n      0x00\n      dup1\n      revert\n    tag_89:\n      pop\n      tag_90\n      0x04\n      dup1\n      calldatasize\n      sub\n      dup2\n      add\n      swap1\n      tag_91\n      swap2\n      swap1\n      tag_76\n      jump\t// in\n    tag_91:\n      tag_92\n      jump\t// in\n    tag_90:\n      stop\n        /* \"Bitxchange.sol\":4179:4881  function canSwap(address token, uint256 amountIn, uint256 userGasPrice) public view returns (bool) {... */\n    tag_17:\n      callvalue\n      dup1\n      iszero\n      tag_93\n      jumpi\n      0x00\n      dup1\n      revert\n    tag_93:\n      pop\n      tag_94\n      0x04\n      dup1\n      calldatasize\n      sub\n      dup2\n      add\n      swap1\n      tag_95\n      swap2\n      swap1\n      tag_40\n      jump\t// in\n    tag_95:\n      tag_96\n      jump\t// in\n    tag_94:\n      mload(0x40)\n      tag_97\n      swap2\n      swap1\n      tag_98\n      jump\t// in\n    tag_97:\n      mload(0x40)\n      dup1\n      swap2\n      sub\n      swap1\n      return\n        /* \"Bitxchange.sol\":2038:2231  function setUniswapRouter(address _newRouter) external onlyOwner {... */\n    tag_18:\n      callvalue\n      dup1\n      iszero\n      tag_99\n      jumpi\n      0x00\n      dup1\n      revert\n    tag_99:\n      pop\n      tag_100\n      0x04\n      dup1\n      calldatasize\n      sub\n      dup2\n      add\n      swap1\n      tag_101\n      swap2\n      swap1\n      tag_54\n      jump\t// in\n    tag_101:\n      tag_102\n      jump\t// in\n    tag_100:\n      stop\n        /* \"Bitxchange.sol\":1619:1727  function withdrawETH(uint256 amount) external onlyOwner {... */\n    tag_19:\n      callvalue\n      dup1\n      iszero\n      tag_103\n      jumpi\n      0x00\n      dup1\n      revert\n    tag_103:\n      pop\n      tag_104\n      0x04\n      dup1\n      calldatasize\n      sub\n      dup2\n      add\n      swap1\n      tag_105\n      swap2\n      swap1\n      tag_76\n      jump\t// in\n    tag_105:\n      tag_106\n      jump\t// in\n    tag_104:\n      stop\n        /* \"@openzeppelin/contracts/access/Ownable.sol\":2543:2758  function transferOwnership(address newOwner) public virtual onlyOwner {... */\n    tag_20:\n      callvalue\n      dup1\n      iszero\n      tag_107\n      jumpi\n      0x00\n      dup1\n      revert\n    tag_107:\n      pop\n      tag_108\n      0x04\n      dup1\n      calldatasize\n      sub\n      dup2\n      add\n      swap1\n      tag_109\n      swap2\n      swap1\n      tag_54\n      jump\t// in\n    tag_109:\n      tag_110\n      jump\t// in\n    tag_108:\n      stop\n        /* \"Bitxchange.sol\":1537:1578  function depositETH() external payable {} */\n    tag_21:\n      tag_111\n      tag_112\n      jump\t// in\n    tag_111:\n      stop\n        /* \"Bitxchange.sol\":1291:1338  function receiveFunds() public payable {... */\n    tag_30:\n      jump\t// out\n        /* \"Bitxchange.sol\":2482:3787  function getSignerAddress(bytes32 messageHash, bytes memory signature) public pure returns (address) {... */\n    tag_35:\n        /* \"Bitxchange.sol\":2574:2581  address */\n      0x00\n        /* \"Bitxchange.sol\":2594:2603  bytes32 r */\n      dup1\n        /* \"Bitxchange.sol\":2614:2623  bytes32 s */\n      0x00\n        /* \"Bitxchange.sol\":2634:2641  uint8 v */\n      dup1\n        /* \"Bitxchange.sol\":2770:2772  32 */\n      0x20\n        /* \"Bitxchange.sol\":2759:2768  signature */\n      dup6\n        /* \"Bitxchange.sol\":2755:2773  add(signature, 32) */\n      add\n        /* \"Bitxchange.sol\":2749:2774  mload(add(signature, 32)) */\n      mload\n        /* \"Bitxchange.sol\":2744:2774  r := mload(add(signature, 32)) */\n      swap3\n      pop\n        /* \"Bitxchange.sol\":2814:2816  64 */\n      0x40\n        /* \"Bitxchange.sol\":2803:2812  signature */\n      dup6\n        /* \"Bitxchange.sol\":2799:2817  add(signature, 64) */\n      add\n        /* \"Bitxchange.sol\":2793:2818  mload(add(signature, 64)) */\n      mload\n        /* \"Bitxchange.sol\":2788:2818  s := mload(add(signature, 64)) */\n      swap2\n      pop\n        /* \"Bitxchange.sol\":2866:2868  96 */\n      0x60\n        /* \"Bitxchange.sol\":2855:2864  signature */\n      dup6\n        /* \"Bitxchange.sol\":2851:2869  add(signature, 96) */\n      add\n        /* \"Bitxchange.sol\":2845:2870  mload(add(signature, 96)) */\n      mload\n        /* \"Bitxchange.sol\":2842:2843  0 */\n      0x00\n        /* \"Bitxchange.sol\":2837:2871  byte(0, mload(add(signature, 96))) */\n      byte\n        /* \"Bitxchange.sol\":2832:2871  v := byte(0, mload(add(signature, 96))) */\n      swap1\n      pop\n        /* \"Bitxchange.sol\":2906:2908  27 */\n      0x1b\n        /* \"Bitxchange.sol\":2902:2903  v */\n      dup2\n        /* \"Bitxchange.sol\":2902:2908  v < 27 */\n      0xff\n      and\n      lt\n        /* \"Bitxchange.sol\":2898:2951  if (v < 27) {... */\n      iszero\n      tag_115\n      jumpi\n        /* \"Bitxchange.sol\":2937:2939  27 */\n      0x1b\n        /* \"Bitxchange.sol\":2933:2934  v */\n      dup2\n        /* \"Bitxchange.sol\":2933:2939  v + 27 */\n      tag_116\n      swap2\n      swap1\n      tag_117\n      jump\t// in\n    tag_116:\n        /* \"Bitxchange.sol\":2929:2939  v = v + 27 */\n      swap1\n      pop\n        /* \"Bitxchange.sol\":2898:2951  if (v < 27) {... */\n    tag_115:\n        /* \"Bitxchange.sol\":3482:3511  bytes32 messageHashWithPrefix */\n      0x00\n        /* \"Bitxchange.sol\":3577:3588  messageHash */\n      dup7\n        /* \"Bitxchange.sol\":3524:3589  abi.encodePacked(\"\\x19Ethereum Signed Message:\\n32\", messageHash) */\n      add(0x20, mload(0x40))\n      tag_118\n      swap2\n      swap1\n      tag_119\n      jump\t// in\n    tag_118:\n      mload(0x40)\n      0x20\n      dup2\n      dup4\n      sub\n      sub\n      dup2\n      mstore\n      swap1\n      0x40\n      mstore\n        /* \"Bitxchange.sol\":3514:3590  keccak256(abi.encodePacked(\"\\x19Ethereum Signed Message:\\n32\", messageHash)) */\n      dup1\n      mload\n      swap1\n      0x20\n      add\n      keccak256\n        /* \"Bitxchange.sol\":3482:3590  bytes32 messageHashWithPrefix = keccak256(abi.encodePacked(\"\\x19Ethereum Signed Message:\\n32\", messageHash)) */\n      swap1\n      pop\n        /* \"Bitxchange.sol\":3695:3709  address signer */\n      0x00\n        /* \"Bitxchange.sol\":3712:3753  ecrecover(messageHashWithPrefix, v, r, s) */\n      0x01\n        /* \"Bitxchange.sol\":3722:3743  messageHashWithPrefix */\n      dup3\n        /* \"Bitxchange.sol\":3745:3746  v */\n      dup5\n        /* \"Bitxchange.sol\":3748:3749  r */\n      dup8\n        /* \"Bitxchange.sol\":3751:3752  s */\n      dup8\n        /* \"Bitxchange.sol\":3712:3753  ecrecover(messageHashWithPrefix, v, r, s) */\n      mload(0x40)\n      0x00\n      dup2\n      mstore\n      0x20\n      add\n      0x40\n      mstore\n      mload(0x40)\n      tag_120\n      swap5\n      swap4\n      swap3\n      swap2\n      swap1\n      tag_121\n      jump\t// in\n    tag_120:\n      0x20\n      mload(0x40)\n      0x20\n      dup2\n      sub\n      swap1\n      dup1\n      dup5\n      sub\n      swap1\n      dup6\n      gas\n      staticcall\n      iszero\n      dup1\n      iszero\n      tag_123\n      jumpi\n      returndatasize\n      0x00\n      dup1\n      returndatacopy\n      revert(0x00, returndatasize)\n    tag_123:\n      pop\n      pop\n      pop\n      mload(sub(mload(0x40), 0x20))\n        /* \"Bitxchange.sol\":3695:3753  address signer = ecrecover(messageHashWithPrefix, v, r, s) */\n      swap1\n      pop\n        /* \"Bitxchange.sol\":3773:3779  signer */\n      dup1\n        /* \"Bitxchange.sol\":3766:3779  return signer */\n      swap6\n      pop\n      pop\n      pop\n      pop\n      pop\n      pop\n        /* \"Bitxchange.sol\":2482:3787  function getSignerAddress(bytes32 messageHash, bytes memory signature) public pure returns (address) {... */\n      swap3\n      swap2\n      pop\n      pop\n      jump\t// out\n        /* \"Bitxchange.sol\":8630:9743  function swapTokensForETH_UserPaysGas(address token, uint256 amount, uint256 minAmountOut) external payable {... */\n    tag_41:\n        /* \"Bitxchange.sol\":8785:8790  token */\n      dup3\n        /* \"Bitxchange.sol\":8778:8804  IERC20(token).transferFrom */\n      0xffffffffffffffffffffffffffffffffffffffff\n      and\n      0x23b872dd\n        /* \"Bitxchange.sol\":8805:8815  msg.sender */\n      caller\n        /* \"Bitxchange.sol\":8825:8829  this */\n      address\n        /* \"Bitxchange.sol\":8832:8838  amount */\n      dup6\n        /* \"Bitxchange.sol\":8778:8839  IERC20(token).transferFrom(msg.sender, address(this), amount) */\n      mload(0x40)\n      dup5\n      0xffffffff\n      and\n      0xe0\n      shl\n      dup2\n      mstore\n      0x04\n      add\n      tag_125\n      swap4\n      swap3\n      swap2\n      swap1\n      tag_126\n      jump\t// in\n    tag_125:\n      0x20\n      mload(0x40)\n      dup1\n      dup4\n      sub\n      dup2\n      0x00\n      dup8\n      gas\n      call\n      iszero\n      dup1\n      iszero\n      tag_128\n      jumpi\n      returndatasize\n      0x00\n      dup1\n      returndatacopy\n      revert(0x00, returndatasize)\n    tag_128:\n      pop\n      pop\n      pop\n      pop\n      mload(0x40)\n      returndatasize\n      not(0x1f)\n      0x1f\n      dup3\n      add\n      and\n      dup3\n      add\n      dup1\n      0x40\n      mstore\n      pop\n      dup2\n      add\n      swap1\n      tag_129\n      swap2\n      swap1\n      tag_130\n      jump\t// in\n    tag_129:\n      pop\n        /* \"Bitxchange.sol\":8857:8862  token */\n      dup3\n        /* \"Bitxchange.sol\":8850:8871  IERC20(token).approve */\n      0xffffffffffffffffffffffffffffffffffffffff\n      and\n      0x095ea7b3\n        /* \"Bitxchange.sol\":8880:8893  uniswapRouter */\n      0x01\n      0x00\n      swap1\n      sload\n      swap1\n      0x0100\n      exp\n      swap1\n      div\n      0xffffffffffffffffffffffffffffffffffffffff\n      and\n        /* \"Bitxchange.sol\":8896:8902  amount */\n      dup5\n        /* \"Bitxchange.sol\":8850:8903  IERC20(token).approve(address(uniswapRouter), amount) */\n      mload(0x40)\n      dup4\n      0xffffffff\n      and\n      0xe0\n      shl\n      dup2\n      mstore\n      0x04\n      add\n      tag_131\n      swap3\n      swap2\n      swap1\n      tag_132\n      jump\t// in\n    tag_131:\n      0x20\n      mload(0x40)\n      dup1\n      dup4\n      sub\n      dup2\n      0x00\n      dup8\n      gas\n      call\n      iszero\n      dup1\n      iszero\n      tag_134\n      jumpi\n      returndatasize\n      0x00\n      dup1\n      returndatacopy\n      revert(0x00, returndatasize)\n    tag_134:\n      pop\n      pop\n      pop\n      pop\n      mload(0x40)\n      returndatasize\n      not(0x1f)\n      0x1f\n      dup3\n      add\n      and\n      dup3\n      add\n      dup1\n      0x40\n      mstore\n      pop\n      dup2\n      add\n      swap1\n      tag_135\n      swap2\n      swap1\n      tag_130\n      jump\t// in\n    tag_135:\n      pop\n        /* \"Bitxchange.sol\":8916:8937  address[] memory path */\n      0x00\n        /* \"Bitxchange.sol\":8954:8955  2 */\n      0x02\n        /* \"Bitxchange.sol\":8940:8956  new address[](2) */\n      0xffffffffffffffff\n      dup2\n      gt\n      iszero\n      tag_136\n      jumpi\n      tag_137\n      tag_138\n      jump\t// in\n    tag_137:\n    tag_136:\n      mload(0x40)\n      swap1\n      dup1\n      dup3\n      mstore\n      dup1\n      0x20\n      mul\n      0x20\n      add\n      dup3\n      add\n      0x40\n      mstore\n      dup1\n      iszero\n      tag_139\n      jumpi\n      dup2\n      0x20\n      add\n      0x20\n      dup3\n      mul\n      dup1\n      calldatasize\n      dup4\n      calldatacopy\n      dup1\n      dup3\n      add\n      swap2\n      pop\n      pop\n      swap1\n      pop\n    tag_139:\n      pop\n        /* \"Bitxchange.sol\":8916:8956  address[] memory path = new address[](2) */\n      swap1\n      pop\n        /* \"Bitxchange.sol\":8977:8982  token */\n      dup4\n        /* \"Bitxchange.sol\":8967:8971  path */\n      dup2\n        /* \"Bitxchange.sol\":8972:8973  0 */\n      0x00\n        /* \"Bitxchange.sol\":8967:8974  path[0] */\n      dup2\n      mload\n      dup2\n      lt\n      tag_140\n      jumpi\n      tag_141\n      tag_142\n      jump\t// in\n    tag_141:\n    tag_140:\n      0x20\n      mul\n      0x20\n      add\n      add\n        /* \"Bitxchange.sol\":8967:8982  path[0] = token */\n      swap1\n      0xffffffffffffffffffffffffffffffffffffffff\n      and\n      swap1\n      dup2\n      0xffffffffffffffffffffffffffffffffffffffff\n      and\n      dup2\n      mstore\n      pop\n      pop\n        /* \"Bitxchange.sol\":9003:9016  uniswapRouter */\n      0x01\n      0x00\n      swap1\n      sload\n      swap1\n      0x0100\n      exp\n      swap1\n      div\n      0xffffffffffffffffffffffffffffffffffffffff\n      and\n        /* \"Bitxchange.sol\":9003:9021  uniswapRouter.WETH */\n      0xffffffffffffffffffffffffffffffffffffffff\n      and\n      0xad5c4648\n        /* \"Bitxchange.sol\":9003:9023  uniswapRouter.WETH() */\n      mload(0x40)\n      dup2\n      0xffffffff\n      and\n      0xe0\n      shl\n      dup2\n      mstore\n      0x04\n      add\n      0x20\n      mload(0x40)\n      dup1\n      dup4\n      sub\n      dup2\n      dup7\n      gas\n      staticcall\n      iszero\n      dup1\n      iszero\n      tag_144\n      jumpi\n      returndatasize\n      0x00\n      dup1\n      returndatacopy\n      revert(0x00, returndatasize)\n    tag_144:\n      pop\n      pop\n      pop\n      pop\n      mload(0x40)\n      returndatasize\n      not(0x1f)\n      0x1f\n      dup3\n      add\n      and\n      dup3\n      add\n      dup1\n      0x40\n      mstore\n      pop\n      dup2\n      add\n      swap1\n      tag_145\n      swap2\n      swap1\n      tag_146\n      jump\t// in\n    tag_145:\n        /* \"Bitxchange.sol\":8993:8997  path */\n      dup2\n        /* \"Bitxchange.sol\":8998:8999  1 */\n      0x01\n        /* \"Bitxchange.sol\":8993:9000  path[1] */\n      dup2\n      mload\n      dup2\n      lt\n      tag_147\n      jumpi\n      tag_148\n      tag_142\n      jump\t// in\n    tag_148:\n    tag_147:\n      0x20\n      mul\n      0x20\n      add\n      add\n        /* \"Bitxchange.sol\":8993:9023  path[1] = uniswapRouter.WETH() */\n      swap1\n      0xffffffffffffffffffffffffffffffffffffffff\n      and\n      swap1\n      dup2\n      0xffffffffffffffffffffffffffffffffffffffff\n      and\n      dup2\n      mstore\n      pop\n      pop\n        /* \"Bitxchange.sol\":9036:9060  uint256[] memory amounts */\n      0x00\n        /* \"Bitxchange.sol\":9063:9076  uniswapRouter */\n      0x01\n      0x00\n      swap1\n      sload\n      swap1\n      0x0100\n      exp\n      swap1\n      div\n      0xffffffffffffffffffffffffffffffffffffffff\n      and\n        /* \"Bitxchange.sol\":9063:9098  uniswapRouter.swapExactTokensForETH */\n      0xffffffffffffffffffffffffffffffffffffffff\n      and\n      0x18cbafe5\n        /* \"Bitxchange.sol\":9099:9105  amount */\n      dup6\n        /* \"Bitxchange.sol\":9107:9119  minAmountOut */\n      dup6\n        /* \"Bitxchange.sol\":9121:9125  path */\n      dup6\n        /* \"Bitxchange.sol\":9135:9139  this */\n      address\n        /* \"Bitxchange.sol\":9142:9157  block.timestamp */\n      timestamp\n        /* \"Bitxchange.sol\":9063:9158  uniswapRouter.swapExactTokensForETH(amount, minAmountOut, path, address(this), block.timestamp) */\n      mload(0x40)\n      dup7\n      0xffffffff\n      and\n      0xe0\n      shl\n      dup2\n      mstore\n      0x04\n      add\n      tag_149\n      swap6\n      swap5\n      swap4\n      swap3\n      swap2\n      swap1\n      tag_150\n      jump\t// in\n    tag_149:\n      0x00\n      mload(0x40)\n      dup1\n      dup4\n      sub\n      dup2\n      0x00\n      dup8\n      gas\n      call\n      iszero\n      dup1\n      iszero\n      tag_152\n      jumpi\n      returndatasize\n      0x00\n      dup1\n      returndatacopy\n      revert(0x00, returndatasize)\n    tag_152:\n      pop\n      pop\n      pop\n      pop\n      mload(0x40)\n      returndatasize\n      0x00\n      dup3\n      returndatacopy\n      returndatasize\n      not(0x1f)\n      0x1f\n      dup3\n      add\n      and\n      dup3\n      add\n      dup1\n      0x40\n      mstore\n      pop\n      dup2\n      add\n      swap1\n      tag_153\n      swap2\n      swap1\n      tag_154\n      jump\t// in\n    tag_153:\n        /* \"Bitxchange.sol\":9036:9158  uint256[] memory amounts = uniswapRouter.swapExactTokensForETH(amount, minAmountOut, path, address(this), block.timestamp) */\n      swap1\n      pop\n        /* \"Bitxchange.sol\":9169:9188  uint256 receivedETH */\n      0x00\n        /* \"Bitxchange.sol\":9191:9198  amounts */\n      dup2\n        /* \"Bitxchange.sol\":9199:9200  1 */\n      0x01\n        /* \"Bitxchange.sol\":9191:9201  amounts[1] */\n      dup2\n      mload\n      dup2\n      lt\n      tag_155\n      jumpi\n      tag_156\n      tag_142\n      jump\t// in\n    tag_156:\n    tag_155:\n      0x20\n      mul\n      0x20\n      add\n      add\n      mload\n        /* \"Bitxchange.sol\":9169:9201  uint256 receivedETH = amounts[1] */\n      swap1\n      pop\n        /* \"Bitxchange.sol\":9253:9264  uint256 fee */\n      0x00\n        /* \"Bitxchange.sol\":9299:9304  10000 */\n      0x2710\n        /* \"Bitxchange.sol\":9282:9295  feePercentage */\n      sload(0x03)\n        /* \"Bitxchange.sol\":9268:9279  receivedETH */\n      dup4\n        /* \"Bitxchange.sol\":9268:9295  receivedETH * feePercentage */\n      tag_157\n      swap2\n      swap1\n      tag_158\n      jump\t// in\n    tag_157:\n        /* \"Bitxchange.sol\":9267:9304  (receivedETH * feePercentage) / 10000 */\n      tag_159\n      swap2\n      swap1\n      tag_160\n      jump\t// in\n    tag_159:\n        /* \"Bitxchange.sol\":9253:9304  uint256 fee = (receivedETH * feePercentage) / 10000 */\n      swap1\n      pop\n        /* \"Bitxchange.sol\":9315:9335  uint256 rewardPotFee */\n      0x00\n        /* \"Bitxchange.sol\":9351:9354  100 */\n      0x64\n        /* \"Bitxchange.sol\":9345:9347  90 */\n      0x5a\n        /* \"Bitxchange.sol\":9339:9342  fee */\n      dup4\n        /* \"Bitxchange.sol\":9339:9347  fee * 90 */\n      tag_161\n      swap2\n      swap1\n      tag_158\n      jump\t// in\n    tag_161:\n        /* \"Bitxchange.sol\":9338:9354  (fee * 90) / 100 */\n      tag_162\n      swap2\n      swap1\n      tag_160\n      jump\t// in\n    tag_162:\n        /* \"Bitxchange.sol\":9315:9354  uint256 rewardPotFee = (fee * 90) / 100 */\n      swap1\n      pop\n        /* \"Bitxchange.sol\":9417:9426  rewardPot */\n      0x02\n      0x00\n      swap1\n      sload\n      swap1\n      0x0100\n      exp\n      swap1\n      div\n      0xffffffffffffffffffffffffffffffffffffffff\n      and\n        /* \"Bitxchange.sol\":9417:9441  rewardPot.addToRewardPot */\n      0xffffffffffffffffffffffffffffffffffffffff\n      and\n      0x099da9e9\n        /* \"Bitxchange.sol\":9442:9454  rewardPotFee */\n      dup3\n        /* \"Bitxchange.sol\":9417:9455  rewardPot.addToRewardPot(rewardPotFee) */\n      mload(0x40)\n      dup3\n      0xffffffff\n      and\n      0xe0\n      shl\n      dup2\n      mstore\n      0x04\n      add\n      tag_163\n      swap2\n      swap1\n      tag_50\n      jump\t// in\n    tag_163:\n      0x00\n      mload(0x40)\n      dup1\n      dup4\n      sub\n      dup2\n      0x00\n      dup8\n      dup1\n      extcodesize\n      iszero\n      dup1\n      iszero\n      tag_164\n      jumpi\n      0x00\n      dup1\n      revert\n    tag_164:\n      pop\n      gas\n      call\n      iszero\n      dup1\n      iszero\n      tag_166\n      jumpi\n      returndatasize\n      0x00\n      dup1\n      returndatacopy\n      revert(0x00, returndatasize)\n    tag_166:\n      pop\n      pop\n      pop\n      pop\n        /* \"Bitxchange.sol\":9585:9605  uint256 remainingETH */\n      0x00\n        /* \"Bitxchange.sol\":9622:9625  fee */\n      dup3\n        /* \"Bitxchange.sol\":9608:9619  receivedETH */\n      dup5\n        /* \"Bitxchange.sol\":9608:9625  receivedETH - fee */\n      tag_167\n      swap2\n      swap1\n      tag_168\n      jump\t// in\n    tag_167:\n        /* \"Bitxchange.sol\":9585:9625  uint256 remainingETH = receivedETH - fee */\n      swap1\n      pop\n        /* \"Bitxchange.sol\":9644:9654  msg.sender */\n      caller\n        /* \"Bitxchange.sol\":9636:9664  payable(msg.sender).transfer */\n      0xffffffffffffffffffffffffffffffffffffffff\n      and\n        /* \"Bitxchange.sol\":9636:9678  payable(msg.sender).transfer(remainingETH) */\n      0x08fc\n        /* \"Bitxchange.sol\":9665:9677  remainingETH */\n      dup3\n        /* \"Bitxchange.sol\":9636:9678  payable(msg.sender).transfer(remainingETH) */\n      swap1\n      dup2\n      iszero\n      mul\n      swap1\n      mload(0x40)\n      0x00\n      mload(0x40)\n      dup1\n      dup4\n      sub\n      dup2\n      dup6\n      dup9\n      dup9\n      call\n      swap4\n      pop\n      pop\n      pop\n      pop\n      iszero\n      dup1\n      iszero\n      tag_170\n      jumpi\n      returndatasize\n      0x00\n      dup1\n      returndatacopy\n      revert(0x00, returndatasize)\n    tag_170:\n      pop\n        /* \"Bitxchange.sol\":9711:9721  msg.sender */\n      caller\n        /* \"Bitxchange.sol\":9696:9735  SwapSuccessful(msg.sender, receivedETH) */\n      0xffffffffffffffffffffffffffffffffffffffff\n      and\n      0xf12a93b520e347a9f6fac0d0eadf4603283511a046afe4ce7758c144fcb80065\n        /* \"Bitxchange.sol\":9723:9734  receivedETH */\n      dup6\n        /* \"Bitxchange.sol\":9696:9735  SwapSuccessful(msg.sender, receivedETH) */\n      mload(0x40)\n      tag_171\n      swap2\n      swap1\n      tag_50\n      jump\t// in\n    tag_171:\n      mload(0x40)\n      dup1\n      swap2\n      sub\n      swap1\n      log2\n        /* \"Bitxchange.sol\":8738:9743  {... */\n      pop\n      pop\n      pop\n      pop\n      pop\n      pop\n        /* \"Bitxchange.sol\":8630:9743  function swapTokensForETH_UserPaysGas(address token, uint256 amount, uint256 minAmountOut) external payable {... */\n      pop\n      pop\n      pop\n      jump\t// out\n        /* \"Bitxchange.sol\":5964:8622  function swapTokensForETH(address token, uint256 amount, uint256 minAmountOut, bytes memory signature,uint256 nonce) external payable {... */\n    tag_45:\n        /* \"Bitxchange.sol\":6109:6124  uint256 gasCost */\n      0x00\n        /* \"Bitxchange.sol\":6127:6136  gasleft() */\n      gas\n        /* \"Bitxchange.sol\":6109:6136  uint256 gasCost = gasleft() */\n      swap1\n      pop\n        /* \"Bitxchange.sol\":6210:6234  uint256 estimatedGasCost */\n      0x00\n        /* \"Bitxchange.sol\":6259:6270  tx.gasprice */\n      gasprice\n        /* \"Bitxchange.sol\":6237:6256  estimatedGasForSwap */\n      sload(0x04)\n        /* \"Bitxchange.sol\":6237:6270  estimatedGasForSwap * tx.gasprice */\n      tag_173\n      swap2\n      swap1\n      tag_158\n      jump\t// in\n    tag_173:\n        /* \"Bitxchange.sol\":6210:6270  uint256 estimatedGasCost = estimatedGasForSwap * tx.gasprice */\n      swap1\n      pop\n        /* \"Bitxchange.sol\":6308:6320  minAmountOut */\n      dup5\n        /* \"Bitxchange.sol\":6289:6305  estimatedGasCost */\n      dup2\n        /* \"Bitxchange.sol\":6289:6320  estimatedGasCost < minAmountOut */\n      lt\n        /* \"Bitxchange.sol\":6281:6364  require(estimatedGasCost < minAmountOut, \"Estimated gas cost exceeds minAmountOut\") */\n      tag_174\n      jumpi\n      mload(0x40)\n      0x08c379a000000000000000000000000000000000000000000000000000000000\n      dup2\n      mstore\n      0x04\n      add\n      tag_175\n      swap1\n      tag_176\n      jump\t// in\n    tag_175:\n      mload(0x40)\n      dup1\n      swap2\n      sub\n      swap1\n      revert\n    tag_174:\n        /* \"Bitxchange.sol\":6473:6497  address recoveredAddress */\n      0x00\n        /* \"Bitxchange.sol\":6500:6648  getSignerAddress(... */\n      tag_177\n        /* \"Bitxchange.sol\":6570:6575  token */\n      dup9\n        /* \"Bitxchange.sol\":6577:6583  amount */\n      dup9\n        /* \"Bitxchange.sol\":6585:6597  minAmountOut */\n      dup9\n        /* \"Bitxchange.sol\":6599:6604  nonce */\n      dup8\n        /* \"Bitxchange.sol\":6553:6605  abi.encodePacked(token, amount, minAmountOut, nonce) */\n      add(0x20, mload(0x40))\n      tag_178\n      swap5\n      swap4\n      swap3\n      swap2\n      swap1\n      tag_179\n      jump\t// in\n    tag_178:\n      mload(0x40)\n      0x20\n      dup2\n      dup4\n      sub\n      sub\n      dup2\n      mstore\n      swap1\n      0x40\n      mstore\n        /* \"Bitxchange.sol\":6536:6612  keccak256(... */\n      dup1\n      mload\n      swap1\n      0x20\n      add\n      keccak256\n        /* \"Bitxchange.sol\":6628:6637  signature */\n      dup7\n        /* \"Bitxchange.sol\":6500:6516  getSignerAddress */\n      tag_35\n        /* \"Bitxchange.sol\":6500:6648  getSignerAddress(... */\n      jump\t// in\n    tag_177:\n        /* \"Bitxchange.sol\":6473:6648  address recoveredAddress = getSignerAddress(... */\n      swap1\n      pop\n        /* \"Bitxchange.sol\":6697:6698  0 */\n      0x00\n        /* \"Bitxchange.sol\":6669:6699  recoveredAddress != address(0) */\n      0xffffffffffffffffffffffffffffffffffffffff\n      and\n        /* \"Bitxchange.sol\":6669:6685  recoveredAddress */\n      dup2\n        /* \"Bitxchange.sol\":6669:6699  recoveredAddress != address(0) */\n      0xffffffffffffffffffffffffffffffffffffffff\n      and\n      sub\n        /* \"Bitxchange.sol\":6661:6721  require(recoveredAddress != address(0), \"Invalid signature\") */\n      tag_180\n      jumpi\n      mload(0x40)\n      0x08c379a000000000000000000000000000000000000000000000000000000000\n      dup2\n      mstore\n      0x04\n      add\n      tag_181\n      swap1\n      tag_182\n      jump\t// in\n    tag_181:\n      mload(0x40)\n      dup1\n      swap2\n      sub\n      swap1\n      revert\n    tag_180:\n        /* \"Bitxchange.sol\":6734:6755  address[] memory path */\n      0x00\n        /* \"Bitxchange.sol\":6772:6773  2 */\n      0x02\n        /* \"Bitxchange.sol\":6758:6774  new address[](2) */\n      0xffffffffffffffff\n      dup2\n      gt\n      iszero\n      tag_183\n      jumpi\n      tag_184\n      tag_138\n      jump\t// in\n    tag_184:\n    tag_183:\n      mload(0x40)\n      swap1\n      dup1\n      dup3\n      mstore\n      dup1\n      0x20\n      mul\n      0x20\n      add\n      dup3\n      add\n      0x40\n      mstore\n      dup1\n      iszero\n      tag_185\n      jumpi\n      dup2\n      0x20\n      add\n      0x20\n      dup3\n      mul\n      dup1\n      calldatasize\n      dup4\n      calldatacopy\n      dup1\n      dup3\n      add\n      swap2\n      pop\n      pop\n      swap1\n      pop\n    tag_185:\n      pop\n        /* \"Bitxchange.sol\":6734:6774  address[] memory path = new address[](2) */\n      swap1\n      pop\n        /* \"Bitxchange.sol\":6795:6800  token */\n      dup9\n        /* \"Bitxchange.sol\":6785:6789  path */\n      dup2\n        /* \"Bitxchange.sol\":6790:6791  0 */\n      0x00\n        /* \"Bitxchange.sol\":6785:6792  path[0] */\n      dup2\n      mload\n      dup2\n      lt\n      tag_186\n      jumpi\n      tag_187\n      tag_142\n      jump\t// in\n    tag_187:\n    tag_186:\n      0x20\n      mul\n      0x20\n      add\n      add\n        /* \"Bitxchange.sol\":6785:6800  path[0] = token */\n      swap1\n      0xffffffffffffffffffffffffffffffffffffffff\n      and\n      swap1\n      dup2\n      0xffffffffffffffffffffffffffffffffffffffff\n      and\n      dup2\n      mstore\n      pop\n      pop\n        /* \"Bitxchange.sol\":6821:6834  uniswapRouter */\n      0x01\n      0x00\n      swap1\n      sload\n      swap1\n      0x0100\n      exp\n      swap1\n      div\n      0xffffffffffffffffffffffffffffffffffffffff\n      and\n        /* \"Bitxchange.sol\":6821:6839  uniswapRouter.WETH */\n      0xffffffffffffffffffffffffffffffffffffffff\n      and\n      0xad5c4648\n        /* \"Bitxchange.sol\":6821:6841  uniswapRouter.WETH() */\n      mload(0x40)\n      dup2\n      0xffffffff\n      and\n      0xe0\n      shl\n      dup2\n      mstore\n      0x04\n      add\n      0x20\n      mload(0x40)\n      dup1\n      dup4\n      sub\n      dup2\n      dup7\n      gas\n      staticcall\n      iszero\n      dup1\n      iszero\n      tag_189\n      jumpi\n      returndatasize\n      0x00\n      dup1\n      returndatacopy\n      revert(0x00, returndatasize)\n    tag_189:\n      pop\n      pop\n      pop\n      pop\n      mload(0x40)\n      returndatasize\n      not(0x1f)\n      0x1f\n      dup3\n      add\n      and\n      dup3\n      add\n      dup1\n      0x40\n      mstore\n      pop\n      dup2\n      add\n      swap1\n      tag_190\n      swap2\n      swap1\n      tag_146\n      jump\t// in\n    tag_190:\n        /* \"Bitxchange.sol\":6811:6815  path */\n      dup2\n        /* \"Bitxchange.sol\":6816:6817  1 */\n      0x01\n        /* \"Bitxchange.sol\":6811:6818  path[1] */\n      dup2\n      mload\n      dup2\n      lt\n      tag_191\n      jumpi\n      tag_192\n      tag_142\n      jump\t// in\n    tag_192:\n    tag_191:\n      0x20\n      mul\n      0x20\n      add\n      add\n        /* \"Bitxchange.sol\":6811:6841  path[1] = uniswapRouter.WETH() */\n      swap1\n      0xffffffffffffffffffffffffffffffffffffffff\n      and\n      swap1\n      dup2\n      0xffffffffffffffffffffffffffffffffffffffff\n      and\n      dup2\n      mstore\n      pop\n      pop\n        /* \"Bitxchange.sol\":6855:6867  bool success */\n      0x00\n        /* \"Bitxchange.sol\":6869:6894  uint256 expectedAmountOut */\n      dup1\n        /* \"Bitxchange.sol\":6898:6928  tryGetAmountsOut(amount, path) */\n      tag_193\n        /* \"Bitxchange.sol\":6915:6921  amount */\n      dup11\n        /* \"Bitxchange.sol\":6923:6927  path */\n      dup5\n        /* \"Bitxchange.sol\":6898:6914  tryGetAmountsOut */\n      tag_194\n        /* \"Bitxchange.sol\":6898:6928  tryGetAmountsOut(amount, path) */\n      jump\t// in\n    tag_193:\n        /* \"Bitxchange.sol\":6854:6928  (bool success, uint256 expectedAmountOut) = tryGetAmountsOut(amount, path) */\n      swap2\n      pop\n      swap2\n      pop\n        /* \"Bitxchange.sol\":6947:6954  success */\n      dup2\n        /* \"Bitxchange.sol\":6939:6980  require(success, \"Swap Expected to fail\") */\n      tag_195\n      jumpi\n      mload(0x40)\n      0x08c379a000000000000000000000000000000000000000000000000000000000\n      dup2\n      mstore\n      0x04\n      add\n      tag_196\n      swap1\n      tag_197\n      jump\t// in\n    tag_196:\n      mload(0x40)\n      dup1\n      swap2\n      sub\n      swap1\n      revert\n    tag_195:\n        /* \"Bitxchange.sol\":7035:7052  expectedAmountOut */\n      dup1\n        /* \"Bitxchange.sol\":7021:7032  tx.gasprice */\n      gasprice\n        /* \"Bitxchange.sol\":6999:7018  estimatedGasForSwap */\n      sload(0x04)\n        /* \"Bitxchange.sol\":6999:7032  estimatedGasForSwap * tx.gasprice */\n      tag_198\n      swap2\n      swap1\n      tag_158\n      jump\t// in\n    tag_198:\n        /* \"Bitxchange.sol\":6999:7052  estimatedGasForSwap * tx.gasprice < expectedAmountOut */\n      lt\n        /* \"Bitxchange.sol\":6991:7086  require(estimatedGasForSwap * tx.gasprice < expectedAmountOut, \"Expected gas more than return\") */\n      tag_199\n      jumpi\n      mload(0x40)\n      0x08c379a000000000000000000000000000000000000000000000000000000000\n      dup2\n      mstore\n      0x04\n      add\n      tag_200\n      swap1\n      tag_201\n      jump\t// in\n    tag_200:\n      mload(0x40)\n      dup1\n      swap2\n      sub\n      swap1\n      revert\n    tag_199:\n        /* \"Bitxchange.sol\":7189:7201  minAmountOut */\n      dup9\n        /* \"Bitxchange.sol\":7168:7185  expectedAmountOut */\n      dup2\n        /* \"Bitxchange.sol\":7168:7201  expectedAmountOut >= minAmountOut */\n      lt\n      iszero\n        /* \"Bitxchange.sol\":7160:7248  require(expectedAmountOut >= minAmountOut, \"Expected amount less than minimum required\") */\n      tag_202\n      jumpi\n      mload(0x40)\n      0x08c379a000000000000000000000000000000000000000000000000000000000\n      dup2\n      mstore\n      0x04\n      add\n      tag_203\n      swap1\n      tag_204\n      jump\t// in\n    tag_203:\n      mload(0x40)\n      dup1\n      swap2\n      sub\n      swap1\n      revert\n    tag_202:\n        /* \"Bitxchange.sol\":7300:7305  token */\n      dup11\n        /* \"Bitxchange.sol\":7293:7319  IERC20(token).transferFrom */\n      0xffffffffffffffffffffffffffffffffffffffff\n      and\n      0x23b872dd\n        /* \"Bitxchange.sol\":7320:7336  recoveredAddress */\n      dup6\n        /* \"Bitxchange.sol\":7346:7350  this */\n      address\n        /* \"Bitxchange.sol\":7353:7359  amount */\n      dup14\n        /* \"Bitxchange.sol\":7293:7360  IERC20(token).transferFrom(recoveredAddress, address(this), amount) */\n      mload(0x40)\n      dup5\n      0xffffffff\n      and\n      0xe0\n      shl\n      dup2\n      mstore\n      0x04\n      add\n      tag_205\n      swap4\n      swap3\n      swap2\n      swap1\n      tag_126\n      jump\t// in\n    tag_205:\n      0x20\n      mload(0x40)\n      dup1\n      dup4\n      sub\n      dup2\n      0x00\n      dup8\n      gas\n      call\n      iszero\n      dup1\n      iszero\n      tag_207\n      jumpi\n      returndatasize\n      0x00\n      dup1\n      returndatacopy\n      revert(0x00, returndatasize)\n    tag_207:\n      pop\n      pop\n      pop\n      pop\n      mload(0x40)\n      returndatasize\n      not(0x1f)\n      0x1f\n      dup3\n      add\n      and\n      dup3\n      add\n      dup1\n      0x40\n      mstore\n      pop\n      dup2\n      add\n      swap1\n      tag_208\n      swap2\n      swap1\n      tag_130\n      jump\t// in\n    tag_208:\n      pop\n        /* \"Bitxchange.sol\":7378:7383  token */\n      dup11\n        /* \"Bitxchange.sol\":7371:7392  IERC20(token).approve */\n      0xffffffffffffffffffffffffffffffffffffffff\n      and\n      0x095ea7b3\n        /* \"Bitxchange.sol\":7401:7414  uniswapRouter */\n      0x01\n      0x00\n      swap1\n      sload\n      swap1\n      0x0100\n      exp\n      swap1\n      div\n      0xffffffffffffffffffffffffffffffffffffffff\n      and\n        /* \"Bitxchange.sol\":7417:7423  amount */\n      dup13\n        /* \"Bitxchange.sol\":7371:7424  IERC20(token).approve(address(uniswapRouter), amount) */\n      mload(0x40)\n      dup4\n      0xffffffff\n      and\n      0xe0\n      shl\n      dup2\n      mstore\n      0x04\n      add\n      tag_209\n      swap3\n      swap2\n      swap1\n      tag_132\n      jump\t// in\n    tag_209:\n      0x20\n      mload(0x40)\n      dup1\n      dup4\n      sub\n      dup2\n      0x00\n      dup8\n      gas\n      call\n      iszero\n      dup1\n      iszero\n      tag_211\n      jumpi\n      returndatasize\n      0x00\n      dup1\n      returndatacopy\n      revert(0x00, returndatasize)\n    tag_211:\n      pop\n      pop\n      pop\n      pop\n      mload(0x40)\n      returndatasize\n      not(0x1f)\n      0x1f\n      dup3\n      add\n      and\n      dup3\n      add\n      dup1\n      0x40\n      mstore\n      pop\n      dup2\n      add\n      swap1\n      tag_212\n      swap2\n      swap1\n      tag_130\n      jump\t// in\n    tag_212:\n      pop\n        /* \"Bitxchange.sol\":7437:7461  uint256[] memory amounts */\n      0x00\n        /* \"Bitxchange.sol\":7464:7477  uniswapRouter */\n      0x01\n      0x00\n      swap1\n      sload\n      swap1\n      0x0100\n      exp\n      swap1\n      div\n      0xffffffffffffffffffffffffffffffffffffffff\n      and\n        /* \"Bitxchange.sol\":7464:7499  uniswapRouter.swapExactTokensForETH */\n      0xffffffffffffffffffffffffffffffffffffffff\n      and\n      0x18cbafe5\n        /* \"Bitxchange.sol\":7500:7506  amount */\n      dup13\n        /* \"Bitxchange.sol\":7508:7520  minAmountOut */\n      dup13\n        /* \"Bitxchange.sol\":7522:7526  path */\n      dup8\n        /* \"Bitxchange.sol\":7536:7540  this */\n      address\n        /* \"Bitxchange.sol\":7543:7558  block.timestamp */\n      timestamp\n        /* \"Bitxchange.sol\":7464:7559  uniswapRouter.swapExactTokensForETH(amount, minAmountOut, path, address(this), block.timestamp) */\n      mload(0x40)\n      dup7\n      0xffffffff\n      and\n      0xe0\n      shl\n      dup2\n      mstore\n      0x04\n      add\n      tag_213\n      swap6\n      swap5\n      swap4\n      swap3\n      swap2\n      swap1\n      tag_150\n      jump\t// in\n    tag_213:\n      0x00\n      mload(0x40)\n      dup1\n      dup4\n      sub\n      dup2\n      0x00\n      dup8\n      gas\n      call\n      iszero\n      dup1\n      iszero\n      tag_215\n      jumpi\n      returndatasize\n      0x00\n      dup1\n      returndatacopy\n      revert(0x00, returndatasize)\n    tag_215:\n      pop\n      pop\n      pop\n      pop\n      mload(0x40)\n      returndatasize\n      0x00\n      dup3\n      returndatacopy\n      returndatasize\n      not(0x1f)\n      0x1f\n      dup3\n      add\n      and\n      dup3\n      add\n      dup1\n      0x40\n      mstore\n      pop\n      dup2\n      add\n      swap1\n      tag_216\n      swap2\n      swap1\n      tag_154\n      jump\t// in\n    tag_216:\n        /* \"Bitxchange.sol\":7437:7559  uint256[] memory amounts = uniswapRouter.swapExactTokensForETH(amount, minAmountOut, path, address(this), block.timestamp) */\n      swap1\n      pop\n        /* \"Bitxchange.sol\":7615:7626  tx.gasprice */\n      gasprice\n        /* \"Bitxchange.sol\":7605:7611  100000 */\n      0x0186a0\n        /* \"Bitxchange.sol\":7592:7601  gasleft() */\n      gas\n        /* \"Bitxchange.sol\":7582:7589  gasCost */\n      dup10\n        /* \"Bitxchange.sol\":7582:7601  gasCost - gasleft() */\n      tag_217\n      swap2\n      swap1\n      tag_168\n      jump\t// in\n    tag_217:\n        /* \"Bitxchange.sol\":7581:7611  (gasCost - gasleft()) + 100000 */\n      tag_218\n      swap2\n      swap1\n      tag_219\n      jump\t// in\n    tag_218:\n        /* \"Bitxchange.sol\":7580:7626  ((gasCost - gasleft()) + 100000) * tx.gasprice */\n      tag_220\n      swap2\n      swap1\n      tag_158\n      jump\t// in\n    tag_220:\n        /* \"Bitxchange.sol\":7570:7626  gasCost = ((gasCost - gasleft()) + 100000) * tx.gasprice */\n      swap7\n      pop\n        /* \"Bitxchange.sol\":7684:7694  msg.sender */\n      caller\n        /* \"Bitxchange.sol\":7676:7704  payable(msg.sender).transfer */\n      0xffffffffffffffffffffffffffffffffffffffff\n      and\n        /* \"Bitxchange.sol\":7676:7713  payable(msg.sender).transfer(gasCost) */\n      0x08fc\n        /* \"Bitxchange.sol\":7705:7712  gasCost */\n      dup9\n        /* \"Bitxchange.sol\":7676:7713  payable(msg.sender).transfer(gasCost) */\n      swap1\n      dup2\n      iszero\n      mul\n      swap1\n      mload(0x40)\n      0x00\n      mload(0x40)\n      dup1\n      dup4\n      sub\n      dup2\n      dup6\n      dup9\n      dup9\n      call\n      swap4\n      pop\n      pop\n      pop\n      pop\n      iszero\n      dup1\n      iszero\n      tag_222\n      jumpi\n      returndatasize\n      0x00\n      dup1\n      returndatacopy\n      revert(0x00, returndatasize)\n    tag_222:\n      pop\n        /* \"Bitxchange.sol\":7726:7745  uint256 receivedETH */\n      0x00\n        /* \"Bitxchange.sol\":7761:7768  gasCost */\n      dup8\n        /* \"Bitxchange.sol\":7748:7755  amounts */\n      dup3\n        /* \"Bitxchange.sol\":7756:7757  1 */\n      0x01\n        /* \"Bitxchange.sol\":7748:7758  amounts[1] */\n      dup2\n      mload\n      dup2\n      lt\n      tag_223\n      jumpi\n      tag_224\n      tag_142\n      jump\t// in\n    tag_224:\n    tag_223:\n      0x20\n      mul\n      0x20\n      add\n      add\n      mload\n        /* \"Bitxchange.sol\":7748:7768  amounts[1] - gasCost */\n      tag_225\n      swap2\n      swap1\n      tag_168\n      jump\t// in\n    tag_225:\n        /* \"Bitxchange.sol\":7726:7768  uint256 receivedETH = amounts[1] - gasCost */\n      swap1\n      pop\n        /* \"Bitxchange.sol\":7841:7860  uint256 feeFreeZone */\n      0x00\n        /* \"Bitxchange.sol\":7883:7895  minAmountOut */\n      dup12\n        /* \"Bitxchange.sol\":7863:7880  expectedAmountOut */\n      dup5\n        /* \"Bitxchange.sol\":7863:7895  expectedAmountOut > minAmountOut */\n      gt\n        /* \"Bitxchange.sol\":7863:7934  expectedAmountOut > minAmountOut ? expectedAmountOut - minAmountOut : 0 */\n      tag_226\n      jumpi\n        /* \"Bitxchange.sol\":7933:7934  0 */\n      0x00\n        /* \"Bitxchange.sol\":7863:7934  expectedAmountOut > minAmountOut ? expectedAmountOut - minAmountOut : 0 */\n      jump(tag_227)\n    tag_226:\n        /* \"Bitxchange.sol\":7918:7930  minAmountOut */\n      dup12\n        /* \"Bitxchange.sol\":7898:7915  expectedAmountOut */\n      dup5\n        /* \"Bitxchange.sol\":7898:7930  expectedAmountOut - minAmountOut */\n      tag_228\n      swap2\n      swap1\n      tag_168\n      jump\t// in\n    tag_228:\n        /* \"Bitxchange.sol\":7863:7934  expectedAmountOut > minAmountOut ? expectedAmountOut - minAmountOut : 0 */\n    tag_227:\n        /* \"Bitxchange.sol\":7841:7934  uint256 feeFreeZone = expectedAmountOut > minAmountOut ? expectedAmountOut - minAmountOut : 0 */\n      swap1\n      pop\n        /* \"Bitxchange.sol\":7945:7965  uint256 excessAmount */\n      0x00\n        /* \"Bitxchange.sol\":7982:7999  expectedAmountOut */\n      dup5\n        /* \"Bitxchange.sol\":7968:7979  receivedETH */\n      dup4\n        /* \"Bitxchange.sol\":7968:7999  receivedETH > expectedAmountOut */\n      gt\n        /* \"Bitxchange.sol\":7968:8037  receivedETH > expectedAmountOut ? receivedETH - expectedAmountOut : 0 */\n      tag_229\n      jumpi\n        /* \"Bitxchange.sol\":8036:8037  0 */\n      0x00\n        /* \"Bitxchange.sol\":7968:8037  receivedETH > expectedAmountOut ? receivedETH - expectedAmountOut : 0 */\n      jump(tag_230)\n    tag_229:\n        /* \"Bitxchange.sol\":8016:8033  expectedAmountOut */\n      dup5\n        /* \"Bitxchange.sol\":8002:8013  receivedETH */\n      dup4\n        /* \"Bitxchange.sol\":8002:8033  receivedETH - expectedAmountOut */\n      tag_231\n      swap2\n      swap1\n      tag_168\n      jump\t// in\n    tag_231:\n        /* \"Bitxchange.sol\":7968:8037  receivedETH > expectedAmountOut ? receivedETH - expectedAmountOut : 0 */\n    tag_230:\n        /* \"Bitxchange.sol\":7945:8037  uint256 excessAmount = receivedETH > expectedAmountOut ? receivedETH - expectedAmountOut : 0 */\n      swap1\n      pop\n        /* \"Bitxchange.sol\":8089:8105  uint256 totalFee */\n      0x00\n        /* \"Bitxchange.sol\":8205:8208  100 */\n      0x64\n        /* \"Bitxchange.sol\":8199:8201  40 */\n      0x28\n        /* \"Bitxchange.sol\":8184:8196  excessAmount */\n      dup4\n        /* \"Bitxchange.sol\":8184:8201  excessAmount * 40 */\n      tag_232\n      swap2\n      swap1\n      tag_158\n      jump\t// in\n    tag_232:\n        /* \"Bitxchange.sol\":8183:8208  (excessAmount * 40) / 100 */\n      tag_233\n      swap2\n      swap1\n      tag_160\n      jump\t// in\n    tag_233:\n        /* \"Bitxchange.sol\":8173:8178  10000 */\n      0x2710\n        /* \"Bitxchange.sol\":8156:8169  feePercentage */\n      sload(0x03)\n        /* \"Bitxchange.sol\":8140:8152  excessAmount */\n      dup5\n        /* \"Bitxchange.sol\":8126:8137  feeFreeZone */\n      dup7\n        /* \"Bitxchange.sol\":8112:8123  receivedETH */\n      dup9\n        /* \"Bitxchange.sol\":8112:8137  receivedETH - feeFreeZone */\n      tag_234\n      swap2\n      swap1\n      tag_168\n      jump\t// in\n    tag_234:\n        /* \"Bitxchange.sol\":8112:8152  receivedETH - feeFreeZone - excessAmount */\n      tag_235\n      swap2\n      swap1\n      tag_168\n      jump\t// in\n    tag_235:\n        /* \"Bitxchange.sol\":8111:8169  (receivedETH - feeFreeZone - excessAmount) * feePercentage */\n      tag_236\n      swap2\n      swap1\n      tag_158\n      jump\t// in\n    tag_236:\n        /* \"Bitxchange.sol\":8110:8178  ((receivedETH - feeFreeZone - excessAmount) * feePercentage) / 10000 */\n      tag_237\n      swap2\n      swap1\n      tag_160\n      jump\t// in\n    tag_237:\n        /* \"Bitxchange.sol\":8108:8208  ( ((receivedETH - feeFreeZone - excessAmount) * feePercentage) / 10000)  + (excessAmount * 40) / 100 */\n      tag_238\n      swap2\n      swap1\n      tag_219\n      jump\t// in\n    tag_238:\n        /* \"Bitxchange.sol\":8089:8208  uint256 totalFee = ( ((receivedETH - feeFreeZone - excessAmount) * feePercentage) / 10000)  + (excessAmount * 40) / 100 */\n      swap1\n      pop\n        /* \"Bitxchange.sol\":8306:8315  rewardPot */\n      0x02\n      0x00\n      swap1\n      sload\n      swap1\n      0x0100\n      exp\n      swap1\n      div\n      0xffffffffffffffffffffffffffffffffffffffff\n      and\n        /* \"Bitxchange.sol\":8306:8330  rewardPot.addToRewardPot */\n      0xffffffffffffffffffffffffffffffffffffffff\n      and\n      0x099da9e9\n        /* \"Bitxchange.sol\":8349:8352  100 */\n      0x64\n        /* \"Bitxchange.sol\":8343:8345  90 */\n      0x5a\n        /* \"Bitxchange.sol\":8332:8340  totalFee */\n      dup5\n        /* \"Bitxchange.sol\":8332:8345  totalFee * 90 */\n      tag_239\n      swap2\n      swap1\n      tag_158\n      jump\t// in\n    tag_239:\n        /* \"Bitxchange.sol\":8331:8352  (totalFee * 90) / 100 */\n      tag_240\n      swap2\n      swap1\n      tag_160\n      jump\t// in\n    tag_240:\n        /* \"Bitxchange.sol\":8306:8353  rewardPot.addToRewardPot((totalFee * 90) / 100) */\n      mload(0x40)\n      dup3\n      0xffffffff\n      and\n      0xe0\n      shl\n      dup2\n      mstore\n      0x04\n      add\n      tag_241\n      swap2\n      swap1\n      tag_50\n      jump\t// in\n    tag_241:\n      0x00\n      mload(0x40)\n      dup1\n      dup4\n      sub\n      dup2\n      0x00\n      dup8\n      dup1\n      extcodesize\n      iszero\n      dup1\n      iszero\n      tag_242\n      jumpi\n      0x00\n      dup1\n      revert\n    tag_242:\n      pop\n      gas\n      call\n      iszero\n      dup1\n      iszero\n      tag_244\n      jumpi\n      returndatasize\n      0x00\n      dup1\n      returndatacopy\n      revert(0x00, returndatasize)\n    tag_244:\n      pop\n      pop\n      pop\n      pop\n        /* \"Bitxchange.sol\":8491:8507  recoveredAddress */\n      dup9\n        /* \"Bitxchange.sol\":8483:8517  payable(recoveredAddress).transfer */\n      0xffffffffffffffffffffffffffffffffffffffff\n      and\n        /* \"Bitxchange.sol\":8483:8541  payable(recoveredAddress).transfer(receivedETH - totalFee) */\n      0x08fc\n        /* \"Bitxchange.sol\":8532:8540  totalFee */\n      dup3\n        /* \"Bitxchange.sol\":8518:8529  receivedETH */\n      dup7\n        /* \"Bitxchange.sol\":8518:8540  receivedETH - totalFee */\n      tag_245\n      swap2\n      swap1\n      tag_168\n      jump\t// in\n    tag_245:\n        /* \"Bitxchange.sol\":8483:8541  payable(recoveredAddress).transfer(receivedETH - totalFee) */\n      swap1\n      dup2\n      iszero\n      mul\n      swap1\n      mload(0x40)\n      0x00\n      mload(0x40)\n      dup1\n      dup4\n      sub\n      dup2\n      dup6\n      dup9\n      dup9\n      call\n      swap4\n      pop\n      pop\n      pop\n      pop\n      iszero\n      dup1\n      iszero\n      tag_247\n      jumpi\n      returndatasize\n      0x00\n      dup1\n      returndatacopy\n      revert(0x00, returndatasize)\n    tag_247:\n      pop\n        /* \"Bitxchange.sol\":8574:8590  recoveredAddress */\n      dup9\n        /* \"Bitxchange.sol\":8559:8604  SwapSuccessful(recoveredAddress, receivedETH) */\n      0xffffffffffffffffffffffffffffffffffffffff\n      and\n      0xf12a93b520e347a9f6fac0d0eadf4603283511a046afe4ce7758c144fcb80065\n        /* \"Bitxchange.sol\":8592:8603  receivedETH */\n      dup6\n        /* \"Bitxchange.sol\":8559:8604  SwapSuccessful(recoveredAddress, receivedETH) */\n      mload(0x40)\n      tag_248\n      swap2\n      swap1\n      tag_50\n      jump\t// in\n    tag_248:\n      mload(0x40)\n      dup1\n      swap2\n      sub\n      swap1\n      log2\n        /* \"Bitxchange.sol\":6098:8622  {... */\n      pop\n      pop\n      pop\n      pop\n      pop\n      pop\n      pop\n      pop\n      pop\n      pop\n      pop\n        /* \"Bitxchange.sol\":5964:8622  function swapTokensForETH(address token, uint256 amount, uint256 minAmountOut, bytes memory signature,uint256 nonce) external payable {... */\n      pop\n      pop\n      pop\n      pop\n      pop\n      jump\t// out\n        /* \"Bitxchange.sol\":854:897  uint256 public estimatedGasForSwap = 321428 */\n    tag_48:\n      sload(0x04)\n      dup2\n      jump\t// out\n        /* \"Bitxchange.sol\":2239:2472  function setRewardPot(address _newRewardPot) external onlyOwner {... */\n    tag_55:\n        /* \"@openzeppelin/contracts/access/Ownable.sol\":1531:1544  _checkOwner() */\n      tag_250\n        /* \"@openzeppelin/contracts/access/Ownable.sol\":1531:1542  _checkOwner */\n      tag_251\n        /* \"@openzeppelin/contracts/access/Ownable.sol\":1531:1544  _checkOwner() */\n      jump\t// in\n    tag_250:\n        /* \"Bitxchange.sol\":2347:2348  0 */\n      0x00\n        /* \"Bitxchange.sol\":2322:2349  _newRewardPot != address(0) */\n      0xffffffffffffffffffffffffffffffffffffffff\n      and\n        /* \"Bitxchange.sol\":2322:2335  _newRewardPot */\n      dup2\n        /* \"Bitxchange.sol\":2322:2349  _newRewardPot != address(0) */\n      0xffffffffffffffffffffffffffffffffffffffff\n      and\n      sub\n        /* \"Bitxchange.sol\":2314:2369  require(_newRewardPot != address(0), \"Invalid address\") */\n      tag_253\n      jumpi\n      mload(0x40)\n      0x08c379a000000000000000000000000000000000000000000000000000000000\n      dup2\n      mstore\n      0x04\n      add\n      tag_254\n      swap1\n      tag_255\n      jump\t// in\n    tag_254:\n      mload(0x40)\n      dup1\n      swap2\n      sub\n      swap1\n      revert\n    tag_253:\n        /* \"Bitxchange.sol\":2403:2416  _newRewardPot */\n      dup1\n        /* \"Bitxchange.sol\":2380:2389  rewardPot */\n      0x02\n      0x00\n        /* \"Bitxchange.sol\":2380:2417  rewardPot = IRewardPot(_newRewardPot) */\n      0x0100\n      exp\n      dup2\n      sload\n      dup2\n      0xffffffffffffffffffffffffffffffffffffffff\n      mul\n      not\n      and\n      swap1\n      dup4\n      0xffffffffffffffffffffffffffffffffffffffff\n      and\n      mul\n      or\n      swap1\n      sstore\n      pop\n        /* \"Bitxchange.sol\":2433:2464  RewardPotUpdated(_newRewardPot) */\n      0xecb9755730c832a50c16ea8001a277be77d816b09dc686fe072d4f2285e5cece\n        /* \"Bitxchange.sol\":2450:2463  _newRewardPot */\n      dup2\n        /* \"Bitxchange.sol\":2433:2464  RewardPotUpdated(_newRewardPot) */\n      mload(0x40)\n      tag_256\n      swap2\n      swap1\n      tag_37\n      jump\t// in\n    tag_256:\n      mload(0x40)\n      dup1\n      swap2\n      sub\n      swap1\n      log1\n        /* \"Bitxchange.sol\":2239:2472  function setRewardPot(address _newRewardPot) external onlyOwner {... */\n      pop\n      jump\t// out\n        /* \"@openzeppelin/contracts/access/Ownable.sol\":2293:2394  function renounceOwnership() public virtual onlyOwner {... */\n    tag_58:\n        /* \"@openzeppelin/contracts/access/Ownable.sol\":1531:1544  _checkOwner() */\n      tag_258\n        /* \"@openzeppelin/contracts/access/Ownable.sol\":1531:1542  _checkOwner */\n      tag_251\n        /* \"@openzeppelin/contracts/access/Ownable.sol\":1531:1544  _checkOwner() */\n      jump\t// in\n    tag_258:\n        /* \"@openzeppelin/contracts/access/Ownable.sol\":2357:2387  _transferOwnership(address(0)) */\n      tag_260\n        /* \"@openzeppelin/contracts/access/Ownable.sol\":2384:2385  0 */\n      0x00\n        /* \"@openzeppelin/contracts/access/Ownable.sol\":2357:2375  _transferOwnership */\n      tag_261\n        /* \"@openzeppelin/contracts/access/Ownable.sol\":2357:2387  _transferOwnership(address(0)) */\n      jump\t// in\n    tag_260:\n        /* \"@openzeppelin/contracts/access/Ownable.sol\":2293:2394  function renounceOwnership() public virtual onlyOwner {... */\n      jump\t// out\n        /* \"Bitxchange.sol\":703:742  IUniswapV2Router02 public uniswapRouter */\n    tag_61:\n      0x01\n      0x00\n      swap1\n      sload\n      swap1\n      0x0100\n      exp\n      swap1\n      div\n      0xffffffffffffffffffffffffffffffffffffffff\n      and\n      dup2\n      jump\t// out\n        /* \"@openzeppelin/contracts/access/Ownable.sol\":1638:1723  function owner() public view virtual returns (address) {... */\n    tag_66:\n        /* \"@openzeppelin/contracts/access/Ownable.sol\":1684:1691  address */\n      0x00\n        /* \"@openzeppelin/contracts/access/Ownable.sol\":1710:1716  _owner */\n      dup1\n      0x00\n      swap1\n      sload\n      swap1\n      0x0100\n      exp\n      swap1\n      div\n      0xffffffffffffffffffffffffffffffffffffffff\n      and\n        /* \"@openzeppelin/contracts/access/Ownable.sol\":1703:1716  return _owner */\n      swap1\n      pop\n        /* \"@openzeppelin/contracts/access/Ownable.sol\":1638:1723  function owner() public view virtual returns (address) {... */\n      swap1\n      jump\t// out\n        /* \"Bitxchange.sol\":749:776  IRewardPot public rewardPot */\n    tag_70:\n      0x02\n      0x00\n      swap1\n      sload\n      swap1\n      0x0100\n      exp\n      swap1\n      div\n      0xffffffffffffffffffffffffffffffffffffffff\n      and\n      dup2\n      jump\t// out\n        /* \"Bitxchange.sol\":1882:2030  function setEstimatedGasForSwap(uint256 _newEstimatedGasForSwap) external onlyOwner {... */\n    tag_77:\n        /* \"@openzeppelin/contracts/access/Ownable.sol\":1531:1544  _checkOwner() */\n      tag_264\n        /* \"@openzeppelin/contracts/access/Ownable.sol\":1531:1542  _checkOwner */\n      tag_251\n        /* \"@openzeppelin/contracts/access/Ownable.sol\":1531:1544  _checkOwner() */\n      jump\t// in\n    tag_264:\n        /* \"Bitxchange.sol\":1999:2022  _newEstimatedGasForSwap */\n      dup1\n        /* \"Bitxchange.sol\":1977:1996  estimatedGasForSwap */\n      0x04\n        /* \"Bitxchange.sol\":1977:2022  estimatedGasForSwap = _newEstimatedGasForSwap */\n      dup2\n      swap1\n      sstore\n      pop\n        /* \"Bitxchange.sol\":1882:2030  function setEstimatedGasForSwap(uint256 _newEstimatedGasForSwap) external onlyOwner {... */\n      pop\n      jump\t// out\n        /* \"Bitxchange.sol\":783:817  uint256 public feePercentage = 750 */\n    tag_80:\n      sload(0x03)\n      dup2\n      jump\t// out\n        /* \"Bitxchange.sol\":4889:5950  function getSwapQuote(address token, uint256 amount, uint256 slippage, uint256 userGasPrice) public view returns (uint256 minAmountOut, uint256 estimatedGasCost, bool canDoSwap) {... */\n    tag_86:\n        /* \"Bitxchange.sol\":5003:5023  uint256 minAmountOut */\n      0x00\n        /* \"Bitxchange.sol\":5025:5049  uint256 estimatedGasCost */\n      dup1\n        /* \"Bitxchange.sol\":5051:5065  bool canDoSwap */\n      0x00\n        /* \"Bitxchange.sol\":5078:5099  address[] memory path */\n      dup1\n        /* \"Bitxchange.sol\":5116:5117  2 */\n      0x02\n        /* \"Bitxchange.sol\":5102:5118  new address[](2) */\n      0xffffffffffffffff\n      dup2\n      gt\n      iszero\n      tag_267\n      jumpi\n      tag_268\n      tag_138\n      jump\t// in\n    tag_268:\n    tag_267:\n      mload(0x40)\n      swap1\n      dup1\n      dup3\n      mstore\n      dup1\n      0x20\n      mul\n      0x20\n      add\n      dup3\n      add\n      0x40\n      mstore\n      dup1\n      iszero\n      tag_269\n      jumpi\n      dup2\n      0x20\n      add\n      0x20\n      dup3\n      mul\n      dup1\n      calldatasize\n      dup4\n      calldatacopy\n      dup1\n      dup3\n      add\n      swap2\n      pop\n      pop\n      swap1\n      pop\n    tag_269:\n      pop\n        /* \"Bitxchange.sol\":5078:5118  address[] memory path = new address[](2) */\n      swap1\n      pop\n        /* \"Bitxchange.sol\":5139:5144  token */\n      dup8\n        /* \"Bitxchange.sol\":5129:5133  path */\n      dup2\n        /* \"Bitxchange.sol\":5134:5135  0 */\n      0x00\n        /* \"Bitxchange.sol\":5129:5136  path[0] */\n      dup2\n      mload\n      dup2\n      lt\n      tag_270\n      jumpi\n      tag_271\n      tag_142\n      jump\t// in\n    tag_271:\n    tag_270:\n      0x20\n      mul\n      0x20\n      add\n      add\n        /* \"Bitxchange.sol\":5129:5144  path[0] = token */\n      swap1\n      0xffffffffffffffffffffffffffffffffffffffff\n      and\n      swap1\n      dup2\n      0xffffffffffffffffffffffffffffffffffffffff\n      and\n      dup2\n      mstore\n      pop\n      pop\n        /* \"Bitxchange.sol\":5165:5178  uniswapRouter */\n      0x01\n      0x00\n      swap1\n      sload\n      swap1\n      0x0100\n      exp\n      swap1\n      div\n      0xffffffffffffffffffffffffffffffffffffffff\n      and\n        /* \"Bitxchange.sol\":5165:5183  uniswapRouter.WETH */\n      0xffffffffffffffffffffffffffffffffffffffff\n      and\n      0xad5c4648\n        /* \"Bitxchange.sol\":5165:5185  uniswapRouter.WETH() */\n      mload(0x40)\n      dup2\n      0xffffffff\n      and\n      0xe0\n      shl\n      dup2\n      mstore\n      0x04\n      add\n      0x20\n      mload(0x40)\n      dup1\n      dup4\n      sub\n      dup2\n      dup7\n      gas\n      staticcall\n      iszero\n      dup1\n      iszero\n      tag_273\n      jumpi\n      returndatasize\n      0x00\n      dup1\n      returndatacopy\n      revert(0x00, returndatasize)\n    tag_273:\n      pop\n      pop\n      pop\n      pop\n      mload(0x40)\n      returndatasize\n      not(0x1f)\n      0x1f\n      dup3\n      add\n      and\n      dup3\n      add\n      dup1\n      0x40\n      mstore\n      pop\n      dup2\n      add\n      swap1\n      tag_274\n      swap2\n      swap1\n      tag_146\n      jump\t// in\n    tag_274:\n        /* \"Bitxchange.sol\":5155:5159  path */\n      dup2\n        /* \"Bitxchange.sol\":5160:5161  1 */\n      0x01\n        /* \"Bitxchange.sol\":5155:5162  path[1] */\n      dup2\n      mload\n      dup2\n      lt\n      tag_275\n      jumpi\n      tag_276\n      tag_142\n      jump\t// in\n    tag_276:\n    tag_275:\n      0x20\n      mul\n      0x20\n      add\n      add\n        /* \"Bitxchange.sol\":5155:5185  path[1] = uniswapRouter.WETH() */\n      swap1\n      0xffffffffffffffffffffffffffffffffffffffff\n      and\n      swap1\n      dup2\n      0xffffffffffffffffffffffffffffffffffffffff\n      and\n      dup2\n      mstore\n      pop\n      pop\n        /* \"Bitxchange.sol\":5277:5289  bool success */\n      0x00\n        /* \"Bitxchange.sol\":5291:5316  uint256 expectedAmountOut */\n      dup1\n        /* \"Bitxchange.sol\":5320:5350  tryGetAmountsOut(amount, path) */\n      tag_277\n        /* \"Bitxchange.sol\":5337:5343  amount */\n      dup10\n        /* \"Bitxchange.sol\":5345:5349  path */\n      dup5\n        /* \"Bitxchange.sol\":5320:5336  tryGetAmountsOut */\n      tag_194\n        /* \"Bitxchange.sol\":5320:5350  tryGetAmountsOut(amount, path) */\n      jump\t// in\n    tag_277:\n        /* \"Bitxchange.sol\":5276:5350  (bool success, uint256 expectedAmountOut) = tryGetAmountsOut(amount, path) */\n      swap2\n      pop\n      swap2\n      pop\n        /* \"Bitxchange.sol\":5369:5376  success */\n      dup2\n        /* \"Bitxchange.sol\":5361:5408  require(success, \"No liquidity for this token\") */\n      tag_278\n      jumpi\n      mload(0x40)\n      0x08c379a000000000000000000000000000000000000000000000000000000000\n      dup2\n      mstore\n      0x04\n      add\n      tag_279\n      swap1\n      tag_280\n      jump\t// in\n    tag_279:\n      mload(0x40)\n      dup1\n      swap2\n      sub\n      swap1\n      revert\n    tag_278:\n        /* \"Bitxchange.sol\":5504:5509  10000 */\n      0x2710\n        /* \"Bitxchange.sol\":5492:5500  slippage */\n      dup9\n        /* \"Bitxchange.sol\":5484:5489  10000 */\n      0x2710\n        /* \"Bitxchange.sol\":5484:5500  10000 - slippage */\n      tag_281\n      swap2\n      swap1\n      tag_168\n      jump\t// in\n    tag_281:\n        /* \"Bitxchange.sol\":5463:5480  expectedAmountOut */\n      dup3\n        /* \"Bitxchange.sol\":5463:5501  expectedAmountOut * (10000 - slippage) */\n      tag_282\n      swap2\n      swap1\n      tag_158\n      jump\t// in\n    tag_282:\n        /* \"Bitxchange.sol\":5463:5509  expectedAmountOut * (10000 - slippage) / 10000 */\n      tag_283\n      swap2\n      swap1\n      tag_160\n      jump\t// in\n    tag_283:\n        /* \"Bitxchange.sol\":5448:5509  minAmountOut = expectedAmountOut * (10000 - slippage) / 10000 */\n      swap6\n      pop\n        /* \"Bitxchange.sol\":5840:5852  userGasPrice */\n      dup7\n        /* \"Bitxchange.sol\":5818:5837  estimatedGasForSwap */\n      sload(0x04)\n        /* \"Bitxchange.sol\":5818:5852  estimatedGasForSwap * userGasPrice */\n      tag_284\n      swap2\n      swap1\n      tag_158\n      jump\t// in\n    tag_284:\n        /* \"Bitxchange.sol\":5799:5852  estimatedGasCost = estimatedGasForSwap * userGasPrice */\n      swap5\n      pop\n        /* \"Bitxchange.sol\":5873:5885  minAmountOut */\n      dup6\n        /* \"Bitxchange.sol\":5887:5903  estimatedGasCost */\n      dup6\n        /* \"Bitxchange.sol\":5905:5941  canSwap(token, amount, userGasPrice) */\n      tag_285\n        /* \"Bitxchange.sol\":5913:5918  token */\n      dup13\n        /* \"Bitxchange.sol\":5920:5926  amount */\n      dup13\n        /* \"Bitxchange.sol\":5928:5940  userGasPrice */\n      dup12\n        /* \"Bitxchange.sol\":5905:5912  canSwap */\n      tag_96\n        /* \"Bitxchange.sol\":5905:5941  canSwap(token, amount, userGasPrice) */\n      jump\t// in\n    tag_285:\n        /* \"Bitxchange.sol\":5865:5942  return (minAmountOut, estimatedGasCost, canSwap(token, amount, userGasPrice)) */\n      swap6\n      pop\n      swap6\n      pop\n      swap6\n      pop\n      pop\n      pop\n      pop\n        /* \"Bitxchange.sol\":4889:5950  function getSwapQuote(address token, uint256 amount, uint256 slippage, uint256 userGasPrice) public view returns (uint256 minAmountOut, uint256 estimatedGasCost, bool canDoSwap) {... */\n      swap5\n      pop\n      swap5\n      pop\n      swap5\n      swap2\n      pop\n      pop\n      jump\t// out\n        /* \"Bitxchange.sol\":1735:1874  function setFeePercentage(uint256 _newFee) external onlyOwner {... */\n    tag_92:\n        /* \"@openzeppelin/contracts/access/Ownable.sol\":1531:1544  _checkOwner() */\n      tag_287\n        /* \"@openzeppelin/contracts/access/Ownable.sol\":1531:1542  _checkOwner */\n      tag_251\n        /* \"@openzeppelin/contracts/access/Ownable.sol\":1531:1544  _checkOwner() */\n      jump\t// in\n    tag_287:\n        /* \"Bitxchange.sol\":1824:1831  _newFee */\n      dup1\n        /* \"Bitxchange.sol\":1808:1821  feePercentage */\n      0x03\n        /* \"Bitxchange.sol\":1808:1831  feePercentage = _newFee */\n      dup2\n      swap1\n      sstore\n      pop\n        /* \"Bitxchange.sol\":1847:1866  FeeUpdated(_newFee) */\n      0x8c4d35e54a3f2ef1134138fd8ea3daee6a3c89e10d2665996babdf70261e2c76\n        /* \"Bitxchange.sol\":1858:1865  _newFee */\n      dup2\n        /* \"Bitxchange.sol\":1847:1866  FeeUpdated(_newFee) */\n      mload(0x40)\n      tag_289\n      swap2\n      swap1\n      tag_50\n      jump\t// in\n    tag_289:\n      mload(0x40)\n      dup1\n      swap2\n      sub\n      swap1\n      log1\n        /* \"Bitxchange.sol\":1735:1874  function setFeePercentage(uint256 _newFee) external onlyOwner {... */\n      pop\n      jump\t// out\n        /* \"Bitxchange.sol\":4179:4881  function canSwap(address token, uint256 amountIn, uint256 userGasPrice) public view returns (bool) {... */\n    tag_96:\n        /* \"Bitxchange.sol\":4272:4276  bool */\n      0x00\n        /* \"Bitxchange.sol\":4289:4310  address[] memory path */\n      dup1\n        /* \"Bitxchange.sol\":4327:4328  2 */\n      0x02\n        /* \"Bitxchange.sol\":4313:4329  new address[](2) */\n      0xffffffffffffffff\n      dup2\n      gt\n      iszero\n      tag_291\n      jumpi\n      tag_292\n      tag_138\n      jump\t// in\n    tag_292:\n    tag_291:\n      mload(0x40)\n      swap1\n      dup1\n      dup3\n      mstore\n      dup1\n      0x20\n      mul\n      0x20\n      add\n      dup3\n      add\n      0x40\n      mstore\n      dup1\n      iszero\n      tag_293\n      jumpi\n      dup2\n      0x20\n      add\n      0x20\n      dup3\n      mul\n      dup1\n      calldatasize\n      dup4\n      calldatacopy\n      dup1\n      dup3\n      add\n      swap2\n      pop\n      pop\n      swap1\n      pop\n    tag_293:\n      pop\n        /* \"Bitxchange.sol\":4289:4329  address[] memory path = new address[](2) */\n      swap1\n      pop\n        /* \"Bitxchange.sol\":4350:4355  token */\n      dup5\n        /* \"Bitxchange.sol\":4340:4344  path */\n      dup2\n        /* \"Bitxchange.sol\":4345:4346  0 */\n      0x00\n        /* \"Bitxchange.sol\":4340:4347  path[0] */\n      dup2\n      mload\n      dup2\n      lt\n      tag_294\n      jumpi\n      tag_295\n      tag_142\n      jump\t// in\n    tag_295:\n    tag_294:\n      0x20\n      mul\n      0x20\n      add\n      add\n        /* \"Bitxchange.sol\":4340:4355  path[0] = token */\n      swap1\n      0xffffffffffffffffffffffffffffffffffffffff\n      and\n      swap1\n      dup2\n      0xffffffffffffffffffffffffffffffffffffffff\n      and\n      dup2\n      mstore\n      pop\n      pop\n        /* \"Bitxchange.sol\":4376:4389  uniswapRouter */\n      0x01\n      0x00\n      swap1\n      sload\n      swap1\n      0x0100\n      exp\n      swap1\n      div\n      0xffffffffffffffffffffffffffffffffffffffff\n      and\n        /* \"Bitxchange.sol\":4376:4394  uniswapRouter.WETH */\n      0xffffffffffffffffffffffffffffffffffffffff\n      and\n      0xad5c4648\n        /* \"Bitxchange.sol\":4376:4396  uniswapRouter.WETH() */\n      mload(0x40)\n      dup2\n      0xffffffff\n      and\n      0xe0\n      shl\n      dup2\n      mstore\n      0x04\n      add\n      0x20\n      mload(0x40)\n      dup1\n      dup4\n      sub\n      dup2\n      dup7\n      gas\n      staticcall\n      iszero\n      dup1\n      iszero\n      tag_297\n      jumpi\n      returndatasize\n      0x00\n      dup1\n      returndatacopy\n      revert(0x00, returndatasize)\n    tag_297:\n      pop\n      pop\n      pop\n      pop\n      mload(0x40)\n      returndatasize\n      not(0x1f)\n      0x1f\n      dup3\n      add\n      and\n      dup3\n      add\n      dup1\n      0x40\n      mstore\n      pop\n      dup2\n      add\n      swap1\n      tag_298\n      swap2\n      swap1\n      tag_146\n      jump\t// in\n    tag_298:\n        /* \"Bitxchange.sol\":4366:4370  path */\n      dup2\n        /* \"Bitxchange.sol\":4371:4372  1 */\n      0x01\n        /* \"Bitxchange.sol\":4366:4373  path[1] */\n      dup2\n      mload\n      dup2\n      lt\n      tag_299\n      jumpi\n      tag_300\n      tag_142\n      jump\t// in\n    tag_300:\n    tag_299:\n      0x20\n      mul\n      0x20\n      add\n      add\n        /* \"Bitxchange.sol\":4366:4396  path[1] = uniswapRouter.WETH() */\n      swap1\n      0xffffffffffffffffffffffffffffffffffffffff\n      and\n      swap1\n      dup2\n      0xffffffffffffffffffffffffffffffffffffffff\n      and\n      dup2\n      mstore\n      pop\n      pop\n        /* \"Bitxchange.sol\":4469:4481  bool success */\n      0x00\n        /* \"Bitxchange.sol\":4483:4500  uint256 amountOut */\n      dup1\n        /* \"Bitxchange.sol\":4504:4536  tryGetAmountsOut(amountIn, path) */\n      tag_301\n        /* \"Bitxchange.sol\":4521:4529  amountIn */\n      dup7\n        /* \"Bitxchange.sol\":4531:4535  path */\n      dup5\n        /* \"Bitxchange.sol\":4504:4520  tryGetAmountsOut */\n      tag_194\n        /* \"Bitxchange.sol\":4504:4536  tryGetAmountsOut(amountIn, path) */\n      jump\t// in\n    tag_301:\n        /* \"Bitxchange.sol\":4468:4536  (bool success, uint256 amountOut) = tryGetAmountsOut(amountIn, path) */\n      swap2\n      pop\n      swap2\n      pop\n        /* \"Bitxchange.sol\":4552:4559  success */\n      dup2\n        /* \"Bitxchange.sol\":4551:4559  !success */\n      iszero\n        /* \"Bitxchange.sol\":4551:4577  !success || amountOut == 0 */\n      dup1\n      tag_302\n      jumpi\n      pop\n        /* \"Bitxchange.sol\":4576:4577  0 */\n      0x00\n        /* \"Bitxchange.sol\":4563:4572  amountOut */\n      dup2\n        /* \"Bitxchange.sol\":4563:4577  amountOut == 0 */\n      eq\n        /* \"Bitxchange.sol\":4551:4577  !success || amountOut == 0 */\n    tag_302:\n        /* \"Bitxchange.sol\":4547:4618  if (!success || amountOut == 0) {... */\n      iszero\n      tag_303\n      jumpi\n        /* \"Bitxchange.sol\":4601:4606  false */\n      0x00\n        /* \"Bitxchange.sol\":4594:4606  return false */\n      swap4\n      pop\n      pop\n      pop\n      pop\n      jump(tag_290)\n        /* \"Bitxchange.sol\":4547:4618  if (!success || amountOut == 0) {... */\n    tag_303:\n        /* \"Bitxchange.sol\":4704:4728  uint256 estimatedGasCost */\n      0x00\n        /* \"Bitxchange.sol\":4753:4765  userGasPrice */\n      dup6\n        /* \"Bitxchange.sol\":4731:4750  estimatedGasForSwap */\n      sload(0x04)\n        /* \"Bitxchange.sol\":4731:4765  estimatedGasForSwap * userGasPrice */\n      tag_304\n      swap2\n      swap1\n      tag_158\n      jump\t// in\n    tag_304:\n        /* \"Bitxchange.sol\":4704:4765  uint256 estimatedGasCost = estimatedGasForSwap * userGasPrice */\n      swap1\n      pop\n        /* \"Bitxchange.sol\":4800:4809  amountOut */\n      dup2\n        /* \"Bitxchange.sol\":4780:4796  estimatedGasCost */\n      dup2\n        /* \"Bitxchange.sol\":4780:4809  estimatedGasCost >= amountOut */\n      lt\n        /* \"Bitxchange.sol\":4776:4850  if (estimatedGasCost >= amountOut) {... */\n      tag_305\n      jumpi\n        /* \"Bitxchange.sol\":4833:4838  false */\n      0x00\n        /* \"Bitxchange.sol\":4826:4838  return false */\n      swap5\n      pop\n      pop\n      pop\n      pop\n      pop\n      jump(tag_290)\n        /* \"Bitxchange.sol\":4776:4850  if (estimatedGasCost >= amountOut) {... */\n    tag_305:\n        /* \"Bitxchange.sol\":4869:4873  true */\n      0x01\n        /* \"Bitxchange.sol\":4862:4873  return true */\n      swap5\n      pop\n      pop\n      pop\n      pop\n      pop\n        /* \"Bitxchange.sol\":4179:4881  function canSwap(address token, uint256 amountIn, uint256 userGasPrice) public view returns (bool) {... */\n    tag_290:\n      swap4\n      swap3\n      pop\n      pop\n      pop\n      jump\t// out\n        /* \"Bitxchange.sol\":2038:2231  function setUniswapRouter(address _newRouter) external onlyOwner {... */\n    tag_102:\n        /* \"@openzeppelin/contracts/access/Ownable.sol\":1531:1544  _checkOwner() */\n      tag_307\n        /* \"@openzeppelin/contracts/access/Ownable.sol\":1531:1542  _checkOwner */\n      tag_251\n        /* \"@openzeppelin/contracts/access/Ownable.sol\":1531:1544  _checkOwner() */\n      jump\t// in\n    tag_307:\n        /* \"Bitxchange.sol\":2144:2145  0 */\n      0x00\n        /* \"Bitxchange.sol\":2122:2146  _newRouter != address(0) */\n      0xffffffffffffffffffffffffffffffffffffffff\n      and\n        /* \"Bitxchange.sol\":2122:2132  _newRouter */\n      dup2\n        /* \"Bitxchange.sol\":2122:2146  _newRouter != address(0) */\n      0xffffffffffffffffffffffffffffffffffffffff\n      and\n      sub\n        /* \"Bitxchange.sol\":2114:2166  require(_newRouter != address(0), \"Invalid address\") */\n      tag_309\n      jumpi\n      mload(0x40)\n      0x08c379a000000000000000000000000000000000000000000000000000000000\n      dup2\n      mstore\n      0x04\n      add\n      tag_310\n      swap1\n      tag_255\n      jump\t// in\n    tag_310:\n      mload(0x40)\n      dup1\n      swap2\n      sub\n      swap1\n      revert\n    tag_309:\n        /* \"Bitxchange.sol\":2212:2222  _newRouter */\n      dup1\n        /* \"Bitxchange.sol\":2177:2190  uniswapRouter */\n      0x01\n      0x00\n        /* \"Bitxchange.sol\":2177:2223  uniswapRouter = IUniswapV2Router02(_newRouter) */\n      0x0100\n      exp\n      dup2\n      sload\n      dup2\n      0xffffffffffffffffffffffffffffffffffffffff\n      mul\n      not\n      and\n      swap1\n      dup4\n      0xffffffffffffffffffffffffffffffffffffffff\n      and\n      mul\n      or\n      swap1\n      sstore\n      pop\n        /* \"Bitxchange.sol\":2038:2231  function setUniswapRouter(address _newRouter) external onlyOwner {... */\n      pop\n      jump\t// out\n        /* \"Bitxchange.sol\":1619:1727  function withdrawETH(uint256 amount) external onlyOwner {... */\n    tag_106:\n        /* \"@openzeppelin/contracts/access/Ownable.sol\":1531:1544  _checkOwner() */\n      tag_312\n        /* \"@openzeppelin/contracts/access/Ownable.sol\":1531:1542  _checkOwner */\n      tag_251\n        /* \"@openzeppelin/contracts/access/Ownable.sol\":1531:1544  _checkOwner() */\n      jump\t// in\n    tag_312:\n        /* \"Bitxchange.sol\":1694:1701  owner() */\n      tag_314\n        /* \"Bitxchange.sol\":1694:1699  owner */\n      tag_66\n        /* \"Bitxchange.sol\":1694:1701  owner() */\n      jump\t// in\n    tag_314:\n        /* \"Bitxchange.sol\":1686:1711  payable(owner()).transfer */\n      0xffffffffffffffffffffffffffffffffffffffff\n      and\n        /* \"Bitxchange.sol\":1686:1719  payable(owner()).transfer(amount) */\n      0x08fc\n        /* \"Bitxchange.sol\":1712:1718  amount */\n      dup3\n        /* \"Bitxchange.sol\":1686:1719  payable(owner()).transfer(amount) */\n      swap1\n      dup2\n      iszero\n      mul\n      swap1\n      mload(0x40)\n      0x00\n      mload(0x40)\n      dup1\n      dup4\n      sub\n      dup2\n      dup6\n      dup9\n      dup9\n      call\n      swap4\n      pop\n      pop\n      pop\n      pop\n      iszero\n      dup1\n      iszero\n      tag_316\n      jumpi\n      returndatasize\n      0x00\n      dup1\n      returndatacopy\n      revert(0x00, returndatasize)\n    tag_316:\n      pop\n        /* \"Bitxchange.sol\":1619:1727  function withdrawETH(uint256 amount) external onlyOwner {... */\n      pop\n      jump\t// out\n        /* \"@openzeppelin/contracts/access/Ownable.sol\":2543:2758  function transferOwnership(address newOwner) public virtual onlyOwner {... */\n    tag_110:\n        /* \"@openzeppelin/contracts/access/Ownable.sol\":1531:1544  _checkOwner() */\n      tag_318\n        /* \"@openzeppelin/contracts/access/Ownable.sol\":1531:1542  _checkOwner */\n      tag_251\n        /* \"@openzeppelin/contracts/access/Ownable.sol\":1531:1544  _checkOwner() */\n      jump\t// in\n    tag_318:\n        /* \"@openzeppelin/contracts/access/Ownable.sol\":2647:2648  0 */\n      0x00\n        /* \"@openzeppelin/contracts/access/Ownable.sol\":2627:2649  newOwner == address(0) */\n      0xffffffffffffffffffffffffffffffffffffffff\n      and\n        /* \"@openzeppelin/contracts/access/Ownable.sol\":2627:2635  newOwner */\n      dup2\n        /* \"@openzeppelin/contracts/access/Ownable.sol\":2627:2649  newOwner == address(0) */\n      0xffffffffffffffffffffffffffffffffffffffff\n      and\n      sub\n        /* \"@openzeppelin/contracts/access/Ownable.sol\":2623:2714  if (newOwner == address(0)) {... */\n      tag_320\n      jumpi\n        /* \"@openzeppelin/contracts/access/Ownable.sol\":2700:2701  0 */\n      0x00\n        /* \"@openzeppelin/contracts/access/Ownable.sol\":2672:2703  OwnableInvalidOwner(address(0)) */\n      mload(0x40)\n      0x1e4fbdf700000000000000000000000000000000000000000000000000000000\n      dup2\n      mstore\n      0x04\n      add\n      tag_321\n      swap2\n      swap1\n      tag_37\n      jump\t// in\n    tag_321:\n      mload(0x40)\n      dup1\n      swap2\n      sub\n      swap1\n      revert\n        /* \"@openzeppelin/contracts/access/Ownable.sol\":2623:2714  if (newOwner == address(0)) {... */\n    tag_320:\n        /* \"@openzeppelin/contracts/access/Ownable.sol\":2723:2751  _transferOwnership(newOwner) */\n      tag_322\n        /* \"@openzeppelin/contracts/access/Ownable.sol\":2742:2750  newOwner */\n      dup2\n        /* \"@openzeppelin/contracts/access/Ownable.sol\":2723:2741  _transferOwnership */\n      tag_261\n        /* \"@openzeppelin/contracts/access/Ownable.sol\":2723:2751  _transferOwnership(newOwner) */\n      jump\t// in\n    tag_322:\n        /* \"@openzeppelin/contracts/access/Ownable.sol\":2543:2758  function transferOwnership(address newOwner) public virtual onlyOwner {... */\n      pop\n      jump\t// out\n        /* \"Bitxchange.sol\":1537:1578  function depositETH() external payable {} */\n    tag_112:\n      jump\t// out\n        /* \"Bitxchange.sol\":3797:4121  function tryGetAmountsOut(uint amountIn, address[] memory path) internal view returns (bool success, uint256 amountOut) {... */\n    tag_194:\n        /* \"Bitxchange.sol\":3884:3896  bool success */\n      0x00\n        /* \"Bitxchange.sol\":3898:3915  uint256 amountOut */\n      dup1\n        /* \"Bitxchange.sol\":3932:3945  uniswapRouter */\n      0x01\n      0x00\n      swap1\n      sload\n      swap1\n      0x0100\n      exp\n      swap1\n      div\n      0xffffffffffffffffffffffffffffffffffffffff\n      and\n        /* \"Bitxchange.sol\":3932:3959  uniswapRouter.getAmountsOut */\n      0xffffffffffffffffffffffffffffffffffffffff\n      and\n      0xd06ca61f\n        /* \"Bitxchange.sol\":3960:3968  amountIn */\n      dup6\n        /* \"Bitxchange.sol\":3970:3974  path */\n      dup6\n        /* \"Bitxchange.sol\":3932:3975  uniswapRouter.getAmountsOut(amountIn, path) */\n      mload(0x40)\n      dup4\n      0xffffffff\n      and\n      0xe0\n      shl\n      dup2\n      mstore\n      0x04\n      add\n      tag_325\n      swap3\n      swap2\n      swap1\n      tag_326\n      jump\t// in\n    tag_325:\n      0x00\n      mload(0x40)\n      dup1\n      dup4\n      sub\n      dup2\n      dup7\n      gas\n      staticcall\n      swap3\n      pop\n      pop\n      pop\n      dup1\n      iszero\n      tag_327\n      jumpi\n      pop\n      mload(0x40)\n      returndatasize\n      0x00\n      dup3\n      returndatacopy\n      returndatasize\n      not(0x1f)\n      0x1f\n      dup3\n      add\n      and\n      dup3\n      add\n      dup1\n      0x40\n      mstore\n      pop\n      dup2\n      add\n      swap1\n      tag_328\n      swap2\n      swap1\n      tag_154\n      jump\t// in\n    tag_328:\n      0x01\n    tag_327:\n        /* \"Bitxchange.sol\":3928:4114  try uniswapRouter.getAmountsOut(amountIn, path) returns (uint256[] memory amounts) {... */\n      tag_329\n      jumpi\n        /* \"Bitxchange.sol\":4093:4098  false */\n      0x00\n        /* \"Bitxchange.sol\":4100:4101  0 */\n      dup1\n        /* \"Bitxchange.sol\":4085:4102  return (false, 0) */\n      swap2\n      pop\n      swap2\n      pop\n      jump(tag_324)\n        /* \"Bitxchange.sol\":3928:4114  try uniswapRouter.getAmountsOut(amountIn, path) returns (uint256[] memory amounts) {... */\n    tag_329:\n        /* \"Bitxchange.sol\":4034:4038  true */\n      0x01\n        /* \"Bitxchange.sol\":4040:4047  amounts */\n      dup2\n        /* \"Bitxchange.sol\":4048:4049  1 */\n      0x01\n        /* \"Bitxchange.sol\":4040:4050  amounts[1] */\n      dup2\n      mload\n      dup2\n      lt\n      tag_334\n      jumpi\n      tag_335\n      tag_142\n      jump\t// in\n    tag_335:\n    tag_334:\n      0x20\n      mul\n      0x20\n      add\n      add\n      mload\n        /* \"Bitxchange.sol\":4026:4051  return (true, amounts[1]) */\n      swap3\n      pop\n      swap3\n      pop\n      pop\n        /* \"Bitxchange.sol\":3797:4121  function tryGetAmountsOut(uint amountIn, address[] memory path) internal view returns (bool success, uint256 amountOut) {... */\n    tag_324:\n      swap3\n      pop\n      swap3\n      swap1\n      pop\n      jump\t// out\n        /* \"@openzeppelin/contracts/access/Ownable.sol\":1796:1958  function _checkOwner() internal view virtual {... */\n    tag_251:\n        /* \"@openzeppelin/contracts/access/Ownable.sol\":1866:1878  _msgSender() */\n      tag_337\n        /* \"@openzeppelin/contracts/access/Ownable.sol\":1866:1876  _msgSender */\n      tag_338\n        /* \"@openzeppelin/contracts/access/Ownable.sol\":1866:1878  _msgSender() */\n      jump\t// in\n    tag_337:\n        /* \"@openzeppelin/contracts/access/Ownable.sol\":1855:1878  owner() != _msgSender() */\n      0xffffffffffffffffffffffffffffffffffffffff\n      and\n        /* \"@openzeppelin/contracts/access/Ownable.sol\":1855:1862  owner() */\n      tag_339\n        /* \"@openzeppelin/contracts/access/Ownable.sol\":1855:1860  owner */\n      tag_66\n        /* \"@openzeppelin/contracts/access/Ownable.sol\":1855:1862  owner() */\n      jump\t// in\n    tag_339:\n        /* \"@openzeppelin/contracts/access/Ownable.sol\":1855:1878  owner() != _msgSender() */\n      0xffffffffffffffffffffffffffffffffffffffff\n      and\n      eq\n        /* \"@openzeppelin/contracts/access/Ownable.sol\":1851:1952  if (owner() != _msgSender()) {... */\n      tag_340\n      jumpi\n        /* \"@openzeppelin/contracts/access/Ownable.sol\":1928:1940  _msgSender() */\n      tag_341\n        /* \"@openzeppelin/contracts/access/Ownable.sol\":1928:1938  _msgSender */\n      tag_338\n        /* \"@openzeppelin/contracts/access/Ownable.sol\":1928:1940  _msgSender() */\n      jump\t// in\n    tag_341:\n        /* \"@openzeppelin/contracts/access/Ownable.sol\":1901:1941  OwnableUnauthorizedAccount(_msgSender()) */\n      mload(0x40)\n      0x118cdaa700000000000000000000000000000000000000000000000000000000\n      dup2\n      mstore\n      0x04\n      add\n      tag_342\n      swap2\n      swap1\n      tag_37\n      jump\t// in\n    tag_342:\n      mload(0x40)\n      dup1\n      swap2\n      sub\n      swap1\n      revert\n        /* \"@openzeppelin/contracts/access/Ownable.sol\":1851:1952  if (owner() != _msgSender()) {... */\n    tag_340:\n        /* \"@openzeppelin/contracts/access/Ownable.sol\":1796:1958  function _checkOwner() internal view virtual {... */\n      jump\t// out\n        /* \"@openzeppelin/contracts/access/Ownable.sol\":2912:3099  function _transferOwnership(address newOwner) internal virtual {... */\n    tag_261:\n        /* \"@openzeppelin/contracts/access/Ownable.sol\":2985:3001  address oldOwner */\n      0x00\n        /* \"@openzeppelin/contracts/access/Ownable.sol\":3004:3010  _owner */\n      dup1\n      0x00\n      swap1\n      sload\n      swap1\n      0x0100\n      exp\n      swap1\n      div\n      0xffffffffffffffffffffffffffffffffffffffff\n      and\n        /* \"@openzeppelin/contracts/access/Ownable.sol\":2985:3010  address oldOwner = _owner */\n      swap1\n      pop\n        /* \"@openzeppelin/contracts/access/Ownable.sol\":3029:3037  newOwner */\n      dup2\n        /* \"@openzeppelin/contracts/access/Ownable.sol\":3020:3026  _owner */\n      0x00\n      dup1\n        /* \"@openzeppelin/contracts/access/Ownable.sol\":3020:3037  _owner = newOwner */\n      0x0100\n      exp\n      dup2\n      sload\n      dup2\n      0xffffffffffffffffffffffffffffffffffffffff\n      mul\n      not\n      and\n      swap1\n      dup4\n      0xffffffffffffffffffffffffffffffffffffffff\n      and\n      mul\n      or\n      swap1\n      sstore\n      pop\n        /* \"@openzeppelin/contracts/access/Ownable.sol\":3083:3091  newOwner */\n      dup2\n        /* \"@openzeppelin/contracts/access/Ownable.sol\":3052:3092  OwnershipTransferred(oldOwner, newOwner) */\n      0xffffffffffffffffffffffffffffffffffffffff\n      and\n        /* \"@openzeppelin/contracts/access/Ownable.sol\":3073:3081  oldOwner */\n      dup2\n        /* \"@openzeppelin/contracts/access/Ownable.sol\":3052:3092  OwnershipTransferred(oldOwner, newOwner) */\n      0xffffffffffffffffffffffffffffffffffffffff\n      and\n      0x8be0079c531659141344cd1fd0a4f28419497f9722a3daafe3b4186f6b6457e0\n      mload(0x40)\n      mload(0x40)\n      dup1\n      swap2\n      sub\n      swap1\n      log3\n        /* \"@openzeppelin/contracts/access/Ownable.sol\":2975:3099  {... */\n      pop\n        /* \"@openzeppelin/contracts/access/Ownable.sol\":2912:3099  function _transferOwnership(address newOwner) internal virtual {... */\n      pop\n      jump\t// out\n        /* \"@openzeppelin/contracts/utils/Context.sol\":656:752  function _msgSender() internal view virtual returns (address) {... */\n    tag_338:\n        /* \"@openzeppelin/contracts/utils/Context.sol\":709:716  address */\n      0x00\n        /* \"@openzeppelin/contracts/utils/Context.sol\":735:745  msg.sender */\n      caller\n        /* \"@openzeppelin/contracts/utils/Context.sol\":728:745  return msg.sender */\n      swap1\n      pop\n        /* \"@openzeppelin/contracts/utils/Context.sol\":656:752  function _msgSender() internal view virtual returns (address) {... */\n      swap1\n      jump\t// out\n        /* \"#utility.yul\":7:82   */\n    tag_345:\n        /* \"#utility.yul\":40:46   */\n      0x00\n        /* \"#utility.yul\":73:75   */\n      0x40\n        /* \"#utility.yul\":67:76   */\n      mload\n        /* \"#utility.yul\":57:76   */\n      swap1\n      pop\n        /* \"#utility.yul\":7:82   */\n      swap1\n      jump\t// out\n        /* \"#utility.yul\":88:205   */\n    tag_346:\n        /* \"#utility.yul\":197:198   */\n      0x00\n        /* \"#utility.yul\":194:195   */\n      dup1\n        /* \"#utility.yul\":187:199   */\n      revert\n        /* \"#utility.yul\":211:328   */\n    tag_347:\n        /* \"#utility.yul\":320:321   */\n      0x00\n        /* \"#utility.yul\":317:318   */\n      dup1\n        /* \"#utility.yul\":310:322   */\n      revert\n        /* \"#utility.yul\":334:411   */\n    tag_348:\n        /* \"#utility.yul\":371:378   */\n      0x00\n        /* \"#utility.yul\":400:405   */\n      dup2\n        /* \"#utility.yul\":389:405   */\n      swap1\n      pop\n        /* \"#utility.yul\":334:411   */\n      swap2\n      swap1\n      pop\n      jump\t// out\n        /* \"#utility.yul\":417:539   */\n    tag_349:\n        /* \"#utility.yul\":490:514   */\n      tag_430\n        /* \"#utility.yul\":508:513   */\n      dup2\n        /* \"#utility.yul\":490:514   */\n      tag_348\n      jump\t// in\n    tag_430:\n        /* \"#utility.yul\":483:488   */\n      dup2\n        /* \"#utility.yul\":480:515   */\n      eq\n        /* \"#utility.yul\":470:533   */\n      tag_431\n      jumpi\n        /* \"#utility.yul\":529:530   */\n      0x00\n        /* \"#utility.yul\":526:527   */\n      dup1\n        /* \"#utility.yul\":519:531   */\n      revert\n        /* \"#utility.yul\":470:533   */\n    tag_431:\n        /* \"#utility.yul\":417:539   */\n      pop\n      jump\t// out\n        /* \"#utility.yul\":545:684   */\n    tag_350:\n        /* \"#utility.yul\":591:596   */\n      0x00\n        /* \"#utility.yul\":629:635   */\n      dup2\n        /* \"#utility.yul\":616:636   */\n      calldataload\n        /* \"#utility.yul\":607:636   */\n      swap1\n      pop\n        /* \"#utility.yul\":645:678   */\n      tag_433\n        /* \"#utility.yul\":672:677   */\n      dup2\n        /* \"#utility.yul\":645:678   */\n      tag_349\n      jump\t// in\n    tag_433:\n        /* \"#utility.yul\":545:684   */\n      swap3\n      swap2\n      pop\n      pop\n      jump\t// out\n        /* \"#utility.yul\":690:807   */\n    tag_351:\n        /* \"#utility.yul\":799:800   */\n      0x00\n        /* \"#utility.yul\":796:797   */\n      dup1\n        /* \"#utility.yul\":789:801   */\n      revert\n        /* \"#utility.yul\":813:930   */\n    tag_352:\n        /* \"#utility.yul\":922:923   */\n      0x00\n        /* \"#utility.yul\":919:920   */\n      dup1\n        /* \"#utility.yul\":912:924   */\n      revert\n        /* \"#utility.yul\":936:1038   */\n    tag_353:\n        /* \"#utility.yul\":977:983   */\n      0x00\n        /* \"#utility.yul\":1028:1030   */\n      0x1f\n        /* \"#utility.yul\":1024:1031   */\n      not\n        /* \"#utility.yul\":1019:1021   */\n      0x1f\n        /* \"#utility.yul\":1012:1017   */\n      dup4\n        /* \"#utility.yul\":1008:1022   */\n      add\n        /* \"#utility.yul\":1004:1032   */\n      and\n        /* \"#utility.yul\":994:1032   */\n      swap1\n      pop\n        /* \"#utility.yul\":936:1038   */\n      swap2\n      swap1\n      pop\n      jump\t// out\n        /* \"#utility.yul\":1044:1224   */\n    tag_138:\n        /* \"#utility.yul\":1092:1169   */\n      0x4e487b7100000000000000000000000000000000000000000000000000000000\n        /* \"#utility.yul\":1089:1090   */\n      0x00\n        /* \"#utility.yul\":1082:1170   */\n      mstore\n        /* \"#utility.yul\":1189:1193   */\n      0x41\n        /* \"#utility.yul\":1186:1187   */\n      0x04\n        /* \"#utility.yul\":1179:1194   */\n      mstore\n        /* \"#utility.yul\":1213:1217   */\n      0x24\n        /* \"#utility.yul\":1210:1211   */\n      0x00\n        /* \"#utility.yul\":1203:1218   */\n      revert\n        /* \"#utility.yul\":1230:1511   */\n    tag_354:\n        /* \"#utility.yul\":1313:1340   */\n      tag_439\n        /* \"#utility.yul\":1335:1339   */\n      dup3\n        /* \"#utility.yul\":1313:1340   */\n      tag_353\n      jump\t// in\n    tag_439:\n        /* \"#utility.yul\":1305:1311   */\n      dup2\n        /* \"#utility.yul\":1301:1341   */\n      add\n        /* \"#utility.yul\":1443:1449   */\n      dup2\n        /* \"#utility.yul\":1431:1441   */\n      dup2\n        /* \"#utility.yul\":1428:1450   */\n      lt\n        /* \"#utility.yul\":1407:1425   */\n      0xffffffffffffffff\n        /* \"#utility.yul\":1395:1405   */\n      dup3\n        /* \"#utility.yul\":1392:1426   */\n      gt\n        /* \"#utility.yul\":1389:1451   */\n      or\n        /* \"#utility.yul\":1386:1474   */\n      iszero\n      tag_440\n      jumpi\n        /* \"#utility.yul\":1454:1472   */\n      tag_441\n      tag_138\n      jump\t// in\n    tag_441:\n        /* \"#utility.yul\":1386:1474   */\n    tag_440:\n        /* \"#utility.yul\":1494:1504   */\n      dup1\n        /* \"#utility.yul\":1490:1492   */\n      0x40\n        /* \"#utility.yul\":1483:1505   */\n      mstore\n        /* \"#utility.yul\":1273:1511   */\n      pop\n        /* \"#utility.yul\":1230:1511   */\n      pop\n      pop\n      jump\t// out\n        /* \"#utility.yul\":1517:1646   */\n    tag_355:\n        /* \"#utility.yul\":1551:1557   */\n      0x00\n        /* \"#utility.yul\":1578:1598   */\n      tag_443\n      tag_345\n      jump\t// in\n    tag_443:\n        /* \"#utility.yul\":1568:1598   */\n      swap1\n      pop\n        /* \"#utility.yul\":1607:1640   */\n      tag_444\n        /* \"#utility.yul\":1635:1639   */\n      dup3\n        /* \"#utility.yul\":1627:1633   */\n      dup3\n        /* \"#utility.yul\":1607:1640   */\n      tag_354\n      jump\t// in\n    tag_444:\n        /* \"#utility.yul\":1517:1646   */\n      swap2\n      swap1\n      pop\n      jump\t// out\n        /* \"#utility.yul\":1652:1959   */\n    tag_356:\n        /* \"#utility.yul\":1713:1717   */\n      0x00\n        /* \"#utility.yul\":1803:1821   */\n      0xffffffffffffffff\n        /* \"#utility.yul\":1795:1801   */\n      dup3\n        /* \"#utility.yul\":1792:1822   */\n      gt\n        /* \"#utility.yul\":1789:1845   */\n      iszero\n      tag_446\n      jumpi\n        /* \"#utility.yul\":1825:1843   */\n      tag_447\n      tag_138\n      jump\t// in\n    tag_447:\n        /* \"#utility.yul\":1789:1845   */\n    tag_446:\n        /* \"#utility.yul\":1863:1892   */\n      tag_448\n        /* \"#utility.yul\":1885:1891   */\n      dup3\n        /* \"#utility.yul\":1863:1892   */\n      tag_353\n      jump\t// in\n    tag_448:\n        /* \"#utility.yul\":1855:1892   */\n      swap1\n      pop\n        /* \"#utility.yul\":1947:1951   */\n      0x20\n        /* \"#utility.yul\":1941:1945   */\n      dup2\n        /* \"#utility.yul\":1937:1952   */\n      add\n        /* \"#utility.yul\":1929:1952   */\n      swap1\n      pop\n        /* \"#utility.yul\":1652:1959   */\n      swap2\n      swap1\n      pop\n      jump\t// out\n        /* \"#utility.yul\":1965:2111   */\n    tag_357:\n        /* \"#utility.yul\":2062:2068   */\n      dup3\n        /* \"#utility.yul\":2057:2060   */\n      dup2\n        /* \"#utility.yul\":2052:2055   */\n      dup4\n        /* \"#utility.yul\":2039:2069   */\n      calldatacopy\n        /* \"#utility.yul\":2103:2104   */\n      0x00\n        /* \"#utility.yul\":2094:2100   */\n      dup4\n        /* \"#utility.yul\":2089:2092   */\n      dup4\n        /* \"#utility.yul\":2085:2101   */\n      add\n        /* \"#utility.yul\":2078:2105   */\n      mstore\n        /* \"#utility.yul\":1965:2111   */\n      pop\n      pop\n      pop\n      jump\t// out\n        /* \"#utility.yul\":2117:2540   */\n    tag_358:\n        /* \"#utility.yul\":2194:2199   */\n      0x00\n        /* \"#utility.yul\":2219:2284   */\n      tag_451\n        /* \"#utility.yul\":2235:2283   */\n      tag_452\n        /* \"#utility.yul\":2276:2282   */\n      dup5\n        /* \"#utility.yul\":2235:2283   */\n      tag_356\n      jump\t// in\n    tag_452:\n        /* \"#utility.yul\":2219:2284   */\n      tag_355\n      jump\t// in\n    tag_451:\n        /* \"#utility.yul\":2210:2284   */\n      swap1\n      pop\n        /* \"#utility.yul\":2307:2313   */\n      dup3\n        /* \"#utility.yul\":2300:2305   */\n      dup2\n        /* \"#utility.yul\":2293:2314   */\n      mstore\n        /* \"#utility.yul\":2345:2349   */\n      0x20\n        /* \"#utility.yul\":2338:2343   */\n      dup2\n        /* \"#utility.yul\":2334:2350   */\n      add\n        /* \"#utility.yul\":2383:2386   */\n      dup5\n        /* \"#utility.yul\":2374:2380   */\n      dup5\n        /* \"#utility.yul\":2369:2372   */\n      dup5\n        /* \"#utility.yul\":2365:2381   */\n      add\n        /* \"#utility.yul\":2362:2387   */\n      gt\n        /* \"#utility.yul\":2359:2471   */\n      iszero\n      tag_453\n      jumpi\n        /* \"#utility.yul\":2390:2469   */\n      tag_454\n      tag_352\n      jump\t// in\n    tag_454:\n        /* \"#utility.yul\":2359:2471   */\n    tag_453:\n        /* \"#utility.yul\":2480:2534   */\n      tag_455\n        /* \"#utility.yul\":2527:2533   */\n      dup5\n        /* \"#utility.yul\":2522:2525   */\n      dup3\n        /* \"#utility.yul\":2517:2520   */\n      dup6\n        /* \"#utility.yul\":2480:2534   */\n      tag_357\n      jump\t// in\n    tag_455:\n        /* \"#utility.yul\":2200:2540   */\n      pop\n        /* \"#utility.yul\":2117:2540   */\n      swap4\n      swap3\n      pop\n      pop\n      pop\n      jump\t// out\n        /* \"#utility.yul\":2559:2897   */\n    tag_359:\n        /* \"#utility.yul\":2614:2619   */\n      0x00\n        /* \"#utility.yul\":2663:2666   */\n      dup3\n        /* \"#utility.yul\":2656:2660   */\n      0x1f\n        /* \"#utility.yul\":2648:2654   */\n      dup4\n        /* \"#utility.yul\":2644:2661   */\n      add\n        /* \"#utility.yul\":2640:2667   */\n      slt\n        /* \"#utility.yul\":2630:2752   */\n      tag_457\n      jumpi\n        /* \"#utility.yul\":2671:2750   */\n      tag_458\n      tag_351\n      jump\t// in\n    tag_458:\n        /* \"#utility.yul\":2630:2752   */\n    tag_457:\n        /* \"#utility.yul\":2788:2794   */\n      dup2\n        /* \"#utility.yul\":2775:2795   */\n      calldataload\n        /* \"#utility.yul\":2813:2891   */\n      tag_459\n        /* \"#utility.yul\":2887:2890   */\n      dup5\n        /* \"#utility.yul\":2879:2885   */\n      dup3\n        /* \"#utility.yul\":2872:2876   */\n      0x20\n        /* \"#utility.yul\":2864:2870   */\n      dup7\n        /* \"#utility.yul\":2860:2877   */\n      add\n        /* \"#utility.yul\":2813:2891   */\n      tag_358\n      jump\t// in\n    tag_459:\n        /* \"#utility.yul\":2804:2891   */\n      swap2\n      pop\n        /* \"#utility.yul\":2620:2897   */\n      pop\n        /* \"#utility.yul\":2559:2897   */\n      swap3\n      swap2\n      pop\n      pop\n      jump\t// out\n        /* \"#utility.yul\":2903:3555   */\n    tag_34:\n        /* \"#utility.yul\":2980:2986   */\n      0x00\n        /* \"#utility.yul\":2988:2994   */\n      dup1\n        /* \"#utility.yul\":3037:3039   */\n      0x40\n        /* \"#utility.yul\":3025:3034   */\n      dup4\n        /* \"#utility.yul\":3016:3023   */\n      dup6\n        /* \"#utility.yul\":3012:3035   */\n      sub\n        /* \"#utility.yul\":3008:3040   */\n      slt\n        /* \"#utility.yul\":3005:3124   */\n      iszero\n      tag_461\n      jumpi\n        /* \"#utility.yul\":3043:3122   */\n      tag_462\n      tag_346\n      jump\t// in\n    tag_462:\n        /* \"#utility.yul\":3005:3124   */\n    tag_461:\n        /* \"#utility.yul\":3163:3164   */\n      0x00\n        /* \"#utility.yul\":3188:3241   */\n      tag_463\n        /* \"#utility.yul\":3233:3240   */\n      dup6\n        /* \"#utility.yul\":3224:3230   */\n      dup3\n        /* \"#utility.yul\":3213:3222   */\n      dup7\n        /* \"#utility.yul\":3209:3231   */\n      add\n        /* \"#utility.yul\":3188:3241   */\n      tag_350\n      jump\t// in\n    tag_463:\n        /* \"#utility.yul\":3178:3241   */\n      swap3\n      pop\n        /* \"#utility.yul\":3134:3251   */\n      pop\n        /* \"#utility.yul\":3318:3320   */\n      0x20\n        /* \"#utility.yul\":3307:3316   */\n      dup4\n        /* \"#utility.yul\":3303:3321   */\n      add\n        /* \"#utility.yul\":3290:3322   */\n      calldataload\n        /* \"#utility.yul\":3349:3367   */\n      0xffffffffffffffff\n        /* \"#utility.yul\":3341:3347   */\n      dup2\n        /* \"#utility.yul\":3338:3368   */\n      gt\n        /* \"#utility.yul\":3335:3452   */\n      iszero\n      tag_464\n      jumpi\n        /* \"#utility.yul\":3371:3450   */\n      tag_465\n      tag_347\n      jump\t// in\n    tag_465:\n        /* \"#utility.yul\":3335:3452   */\n    tag_464:\n        /* \"#utility.yul\":3476:3538   */\n      tag_466\n        /* \"#utility.yul\":3530:3537   */\n      dup6\n        /* \"#utility.yul\":3521:3527   */\n      dup3\n        /* \"#utility.yul\":3510:3519   */\n      dup7\n        /* \"#utility.yul\":3506:3528   */\n      add\n        /* \"#utility.yul\":3476:3538   */\n      tag_359\n      jump\t// in\n    tag_466:\n        /* \"#utility.yul\":3466:3538   */\n      swap2\n      pop\n        /* \"#utility.yul\":3261:3548   */\n      pop\n        /* \"#utility.yul\":2903:3555   */\n      swap3\n      pop\n      swap3\n      swap1\n      pop\n      jump\t// out\n        /* \"#utility.yul\":3561:3687   */\n    tag_360:\n        /* \"#utility.yul\":3598:3605   */\n      0x00\n        /* \"#utility.yul\":3638:3680   */\n      0xffffffffffffffffffffffffffffffffffffffff\n        /* \"#utility.yul\":3631:3636   */\n      dup3\n        /* \"#utility.yul\":3627:3681   */\n      and\n        /* \"#utility.yul\":3616:3681   */\n      swap1\n      pop\n        /* \"#utility.yul\":3561:3687   */\n      swap2\n      swap1\n      pop\n      jump\t// out\n        /* \"#utility.yul\":3693:3789   */\n    tag_361:\n        /* \"#utility.yul\":3730:3737   */\n      0x00\n        /* \"#utility.yul\":3759:3783   */\n      tag_469\n        /* \"#utility.yul\":3777:3782   */\n      dup3\n        /* \"#utility.yul\":3759:3783   */\n      tag_360\n      jump\t// in\n    tag_469:\n        /* \"#utility.yul\":3748:3783   */\n      swap1\n      pop\n        /* \"#utility.yul\":3693:3789   */\n      swap2\n      swap1\n      pop\n      jump\t// out\n        /* \"#utility.yul\":3795:3913   */\n    tag_362:\n        /* \"#utility.yul\":3882:3906   */\n      tag_471\n        /* \"#utility.yul\":3900:3905   */\n      dup2\n        /* \"#utility.yul\":3882:3906   */\n      tag_361\n      jump\t// in\n    tag_471:\n        /* \"#utility.yul\":3877:3880   */\n      dup3\n        /* \"#utility.yul\":3870:3907   */\n      mstore\n        /* \"#utility.yul\":3795:3913   */\n      pop\n      pop\n      jump\t// out\n        /* \"#utility.yul\":3919:4141   */\n    tag_37:\n        /* \"#utility.yul\":4012:4016   */\n      0x00\n        /* \"#utility.yul\":4050:4052   */\n      0x20\n        /* \"#utility.yul\":4039:4048   */\n      dup3\n        /* \"#utility.yul\":4035:4053   */\n      add\n        /* \"#utility.yul\":4027:4053   */\n      swap1\n      pop\n        /* \"#utility.yul\":4063:4134   */\n      tag_473\n        /* \"#utility.yul\":4131:4132   */\n      0x00\n        /* \"#utility.yul\":4120:4129   */\n      dup4\n        /* \"#utility.yul\":4116:4133   */\n      add\n        /* \"#utility.yul\":4107:4113   */\n      dup5\n        /* \"#utility.yul\":4063:4134   */\n      tag_362\n      jump\t// in\n    tag_473:\n        /* \"#utility.yul\":3919:4141   */\n      swap3\n      swap2\n      pop\n      pop\n      jump\t// out\n        /* \"#utility.yul\":4147:4269   */\n    tag_363:\n        /* \"#utility.yul\":4220:4244   */\n      tag_475\n        /* \"#utility.yul\":4238:4243   */\n      dup2\n        /* \"#utility.yul\":4220:4244   */\n      tag_361\n      jump\t// in\n    tag_475:\n        /* \"#utility.yul\":4213:4218   */\n      dup2\n        /* \"#utility.yul\":4210:4245   */\n      eq\n        /* \"#utility.yul\":4200:4263   */\n      tag_476\n      jumpi\n        /* \"#utility.yul\":4259:4260   */\n      0x00\n        /* \"#utility.yul\":4256:4257   */\n      dup1\n        /* \"#utility.yul\":4249:4261   */\n      revert\n        /* \"#utility.yul\":4200:4263   */\n    tag_476:\n        /* \"#utility.yul\":4147:4269   */\n      pop\n      jump\t// out\n        /* \"#utility.yul\":4275:4414   */\n    tag_364:\n        /* \"#utility.yul\":4321:4326   */\n      0x00\n        /* \"#utility.yul\":4359:4365   */\n      dup2\n        /* \"#utility.yul\":4346:4366   */\n      calldataload\n        /* \"#utility.yul\":4337:4366   */\n      swap1\n      pop\n        /* \"#utility.yul\":4375:4408   */\n      tag_478\n        /* \"#utility.yul\":4402:4407   */\n      dup2\n        /* \"#utility.yul\":4375:4408   */\n      tag_363\n      jump\t// in\n    tag_478:\n        /* \"#utility.yul\":4275:4414   */\n      swap3\n      swap2\n      pop\n      pop\n      jump\t// out\n        /* \"#utility.yul\":4420:4497   */\n    tag_365:\n        /* \"#utility.yul\":4457:4464   */\n      0x00\n        /* \"#utility.yul\":4486:4491   */\n      dup2\n        /* \"#utility.yul\":4475:4491   */\n      swap1\n      pop\n        /* \"#utility.yul\":4420:4497   */\n      swap2\n      swap1\n      pop\n      jump\t// out\n        /* \"#utility.yul\":4503:4625   */\n    tag_366:\n        /* \"#utility.yul\":4576:4600   */\n      tag_481\n        /* \"#utility.yul\":4594:4599   */\n      dup2\n        /* \"#utility.yul\":4576:4600   */\n      tag_365\n      jump\t// in\n    tag_481:\n        /* \"#utility.yul\":4569:4574   */\n      dup2\n        /* \"#utility.yul\":4566:4601   */\n      eq\n        /* \"#utility.yul\":4556:4619   */\n      tag_482\n      jumpi\n        /* \"#utility.yul\":4615:4616   */\n      0x00\n        /* \"#utility.yul\":4612:4613   */\n      dup1\n        /* \"#utility.yul\":4605:4617   */\n      revert\n        /* \"#utility.yul\":4556:4619   */\n    tag_482:\n        /* \"#utility.yul\":4503:4625   */\n      pop\n      jump\t// out\n        /* \"#utility.yul\":4631:4770   */\n    tag_367:\n        /* \"#utility.yul\":4677:4682   */\n      0x00\n        /* \"#utility.yul\":4715:4721   */\n      dup2\n        /* \"#utility.yul\":4702:4722   */\n      calldataload\n        /* \"#utility.yul\":4693:4722   */\n      swap1\n      pop\n        /* \"#utility.yul\":4731:4764   */\n      tag_484\n        /* \"#utility.yul\":4758:4763   */\n      dup2\n        /* \"#utility.yul\":4731:4764   */\n      tag_366\n      jump\t// in\n    tag_484:\n        /* \"#utility.yul\":4631:4770   */\n      swap3\n      swap2\n      pop\n      pop\n      jump\t// out\n        /* \"#utility.yul\":4776:5395   */\n    tag_40:\n        /* \"#utility.yul\":4853:4859   */\n      0x00\n        /* \"#utility.yul\":4861:4867   */\n      dup1\n        /* \"#utility.yul\":4869:4875   */\n      0x00\n        /* \"#utility.yul\":4918:4920   */\n      0x60\n        /* \"#utility.yul\":4906:4915   */\n      dup5\n        /* \"#utility.yul\":4897:4904   */\n      dup7\n        /* \"#utility.yul\":4893:4916   */\n      sub\n        /* \"#utility.yul\":4889:4921   */\n      slt\n        /* \"#utility.yul\":4886:5005   */\n      iszero\n      tag_486\n      jumpi\n        /* \"#utility.yul\":4924:5003   */\n      tag_487\n      tag_346\n      jump\t// in\n    tag_487:\n        /* \"#utility.yul\":4886:5005   */\n    tag_486:\n        /* \"#utility.yul\":5044:5045   */\n      0x00\n        /* \"#utility.yul\":5069:5122   */\n      tag_488\n        /* \"#utility.yul\":5114:5121   */\n      dup7\n        /* \"#utility.yul\":5105:5111   */\n      dup3\n        /* \"#utility.yul\":5094:5103   */\n      dup8\n        /* \"#utility.yul\":5090:5112   */\n      add\n        /* \"#utility.yul\":5069:5122   */\n      tag_364\n      jump\t// in\n    tag_488:\n        /* \"#utility.yul\":5059:5122   */\n      swap4\n      pop\n        /* \"#utility.yul\":5015:5132   */\n      pop\n        /* \"#utility.yul\":5171:5173   */\n      0x20\n        /* \"#utility.yul\":5197:5250   */\n      tag_489\n        /* \"#utility.yul\":5242:5249   */\n      dup7\n        /* \"#utility.yul\":5233:5239   */\n      dup3\n        /* \"#utility.yul\":5222:5231   */\n      dup8\n        /* \"#utility.yul\":5218:5240   */\n      add\n        /* \"#utility.yul\":5197:5250   */\n      tag_367\n      jump\t// in\n    tag_489:\n        /* \"#utility.yul\":5187:5250   */\n      swap3\n      pop\n        /* \"#utility.yul\":5142:5260   */\n      pop\n        /* \"#utility.yul\":5299:5301   */\n      0x40\n        /* \"#utility.yul\":5325:5378   */\n      tag_490\n        /* \"#utility.yul\":5370:5377   */\n      dup7\n        /* \"#utility.yul\":5361:5367   */\n      dup3\n        /* \"#utility.yul\":5350:5359   */\n      dup8\n        /* \"#utility.yul\":5346:5368   */\n      add\n        /* \"#utility.yul\":5325:5378   */\n      tag_367\n      jump\t// in\n    tag_490:\n        /* \"#utility.yul\":5315:5378   */\n      swap2\n      pop\n        /* \"#utility.yul\":5270:5388   */\n      pop\n        /* \"#utility.yul\":4776:5395   */\n      swap3\n      pop\n      swap3\n      pop\n      swap3\n      jump\t// out\n        /* \"#utility.yul\":5401:6490   */\n    tag_44:\n        /* \"#utility.yul\":5505:5511   */\n      0x00\n        /* \"#utility.yul\":5513:5519   */\n      dup1\n        /* \"#utility.yul\":5521:5527   */\n      0x00\n        /* \"#utility.yul\":5529:5535   */\n      dup1\n        /* \"#utility.yul\":5537:5543   */\n      0x00\n        /* \"#utility.yul\":5586:5589   */\n      0xa0\n        /* \"#utility.yul\":5574:5583   */\n      dup7\n        /* \"#utility.yul\":5565:5572   */\n      dup9\n        /* \"#utility.yul\":5561:5584   */\n      sub\n        /* \"#utility.yul\":5557:5590   */\n      slt\n        /* \"#utility.yul\":5554:5674   */\n      iszero\n      tag_492\n      jumpi\n        /* \"#utility.yul\":5593:5672   */\n      tag_493\n      tag_346\n      jump\t// in\n    tag_493:\n        /* \"#utility.yul\":5554:5674   */\n    tag_492:\n        /* \"#utility.yul\":5713:5714   */\n      0x00\n        /* \"#utility.yul\":5738:5791   */\n      tag_494\n        /* \"#utility.yul\":5783:5790   */\n      dup9\n        /* \"#utility.yul\":5774:5780   */\n      dup3\n        /* \"#utility.yul\":5763:5772   */\n      dup10\n        /* \"#utility.yul\":5759:5781   */\n      add\n        /* \"#utility.yul\":5738:5791   */\n      tag_364\n      jump\t// in\n    tag_494:\n        /* \"#utility.yul\":5728:5791   */\n      swap6\n      pop\n        /* \"#utility.yul\":5684:5801   */\n      pop\n        /* \"#utility.yul\":5840:5842   */\n      0x20\n        /* \"#utility.yul\":5866:5919   */\n      tag_495\n        /* \"#utility.yul\":5911:5918   */\n      dup9\n        /* \"#utility.yul\":5902:5908   */\n      dup3\n        /* \"#utility.yul\":5891:5900   */\n      dup10\n        /* \"#utility.yul\":5887:5909   */\n      add\n        /* \"#utility.yul\":5866:5919   */\n      tag_367\n      jump\t// in\n    tag_495:\n        /* \"#utility.yul\":5856:5919   */\n      swap5\n      pop\n        /* \"#utility.yul\":5811:5929   */\n      pop\n        /* \"#utility.yul\":5968:5970   */\n      0x40\n        /* \"#utility.yul\":5994:6047   */\n      tag_496\n        /* \"#utility.yul\":6039:6046   */\n      dup9\n        /* \"#utility.yul\":6030:6036   */\n      dup3\n        /* \"#utility.yul\":6019:6028   */\n      dup10\n        /* \"#utility.yul\":6015:6037   */\n      add\n        /* \"#utility.yul\":5994:6047   */\n      tag_367\n      jump\t// in\n    tag_496:\n        /* \"#utility.yul\":5984:6047   */\n      swap4\n      pop\n        /* \"#utility.yul\":5939:6057   */\n      pop\n        /* \"#utility.yul\":6124:6126   */\n      0x60\n        /* \"#utility.yul\":6113:6122   */\n      dup7\n        /* \"#utility.yul\":6109:6127   */\n      add\n        /* \"#utility.yul\":6096:6128   */\n      calldataload\n        /* \"#utility.yul\":6155:6173   */\n      0xffffffffffffffff\n        /* \"#utility.yul\":6147:6153   */\n      dup2\n        /* \"#utility.yul\":6144:6174   */\n      gt\n        /* \"#utility.yul\":6141:6258   */\n      iszero\n      tag_497\n      jumpi\n        /* \"#utility.yul\":6177:6256   */\n      tag_498\n      tag_347\n      jump\t// in\n    tag_498:\n        /* \"#utility.yul\":6141:6258   */\n    tag_497:\n        /* \"#utility.yul\":6282:6344   */\n      tag_499\n        /* \"#utility.yul\":6336:6343   */\n      dup9\n        /* \"#utility.yul\":6327:6333   */\n      dup3\n        /* \"#utility.yul\":6316:6325   */\n      dup10\n        /* \"#utility.yul\":6312:6334   */\n      add\n        /* \"#utility.yul\":6282:6344   */\n      tag_359\n      jump\t// in\n    tag_499:\n        /* \"#utility.yul\":6272:6344   */\n      swap3\n      pop\n        /* \"#utility.yul\":6067:6354   */\n      pop\n        /* \"#utility.yul\":6393:6396   */\n      0x80\n        /* \"#utility.yul\":6420:6473   */\n      tag_500\n        /* \"#utility.yul\":6465:6472   */\n      dup9\n        /* \"#utility.yul\":6456:6462   */\n      dup3\n        /* \"#utility.yul\":6445:6454   */\n      dup10\n        /* \"#utility.yul\":6441:6463   */\n      add\n        /* \"#utility.yul\":6420:6473   */\n      tag_367\n      jump\t// in\n    tag_500:\n        /* \"#utility.yul\":6410:6473   */\n      swap2\n      pop\n        /* \"#utility.yul\":6364:6483   */\n      pop\n        /* \"#utility.yul\":5401:6490   */\n      swap3\n      swap6\n      pop\n      swap3\n      swap6\n      swap1\n      swap4\n      pop\n      jump\t// out\n        /* \"#utility.yul\":6496:6614   */\n    tag_368:\n        /* \"#utility.yul\":6583:6607   */\n      tag_502\n        /* \"#utility.yul\":6601:6606   */\n      dup2\n        /* \"#utility.yul\":6583:6607   */\n      tag_365\n      jump\t// in\n    tag_502:\n        /* \"#utility.yul\":6578:6581   */\n      dup3\n        /* \"#utility.yul\":6571:6608   */\n      mstore\n        /* \"#utility.yul\":6496:6614   */\n      pop\n      pop\n      jump\t// out\n        /* \"#utility.yul\":6620:6842   */\n    tag_50:\n        /* \"#utility.yul\":6713:6717   */\n      0x00\n        /* \"#utility.yul\":6751:6753   */\n      0x20\n        /* \"#utility.yul\":6740:6749   */\n      dup3\n        /* \"#utility.yul\":6736:6754   */\n      add\n        /* \"#utility.yul\":6728:6754   */\n      swap1\n      pop\n        /* \"#utility.yul\":6764:6835   */\n      tag_504\n        /* \"#utility.yul\":6832:6833   */\n      0x00\n        /* \"#utility.yul\":6821:6830   */\n      dup4\n        /* \"#utility.yul\":6817:6834   */\n      add\n        /* \"#utility.yul\":6808:6814   */\n      dup5\n        /* \"#utility.yul\":6764:6835   */\n      tag_368\n      jump\t// in\n    tag_504:\n        /* \"#utility.yul\":6620:6842   */\n      swap3\n      swap2\n      pop\n      pop\n      jump\t// out\n        /* \"#utility.yul\":6848:7177   */\n    tag_54:\n        /* \"#utility.yul\":6907:6913   */\n      0x00\n        /* \"#utility.yul\":6956:6958   */\n      0x20\n        /* \"#utility.yul\":6944:6953   */\n      dup3\n        /* \"#utility.yul\":6935:6942   */\n      dup5\n        /* \"#utility.yul\":6931:6954   */\n      sub\n        /* \"#utility.yul\":6927:6959   */\n      slt\n        /* \"#utility.yul\":6924:7043   */\n      iszero\n      tag_506\n      jumpi\n        /* \"#utility.yul\":6962:7041   */\n      tag_507\n      tag_346\n      jump\t// in\n    tag_507:\n        /* \"#utility.yul\":6924:7043   */\n    tag_506:\n        /* \"#utility.yul\":7082:7083   */\n      0x00\n        /* \"#utility.yul\":7107:7160   */\n      tag_508\n        /* \"#utility.yul\":7152:7159   */\n      dup5\n        /* \"#utility.yul\":7143:7149   */\n      dup3\n        /* \"#utility.yul\":7132:7141   */\n      dup6\n        /* \"#utility.yul\":7128:7150   */\n      add\n        /* \"#utility.yul\":7107:7160   */\n      tag_364\n      jump\t// in\n    tag_508:\n        /* \"#utility.yul\":7097:7160   */\n      swap2\n      pop\n        /* \"#utility.yul\":7053:7170   */\n      pop\n        /* \"#utility.yul\":6848:7177   */\n      swap3\n      swap2\n      pop\n      pop\n      jump\t// out\n        /* \"#utility.yul\":7183:7243   */\n    tag_369:\n        /* \"#utility.yul\":7211:7214   */\n      0x00\n        /* \"#utility.yul\":7232:7237   */\n      dup2\n        /* \"#utility.yul\":7225:7237   */\n      swap1\n      pop\n        /* \"#utility.yul\":7183:7243   */\n      swap2\n      swap1\n      pop\n      jump\t// out\n        /* \"#utility.yul\":7249:7391   */\n    tag_370:\n        /* \"#utility.yul\":7299:7308   */\n      0x00\n        /* \"#utility.yul\":7332:7385   */\n      tag_511\n        /* \"#utility.yul\":7350:7384   */\n      tag_512\n        /* \"#utility.yul\":7359:7383   */\n      tag_513\n        /* \"#utility.yul\":7377:7382   */\n      dup5\n        /* \"#utility.yul\":7359:7383   */\n      tag_360\n      jump\t// in\n    tag_513:\n        /* \"#utility.yul\":7350:7384   */\n      tag_369\n      jump\t// in\n    tag_512:\n        /* \"#utility.yul\":7332:7385   */\n      tag_360\n      jump\t// in\n    tag_511:\n        /* \"#utility.yul\":7319:7385   */\n      swap1\n      pop\n        /* \"#utility.yul\":7249:7391   */\n      swap2\n      swap1\n      pop\n      jump\t// out\n        /* \"#utility.yul\":7397:7523   */\n    tag_371:\n        /* \"#utility.yul\":7447:7456   */\n      0x00\n        /* \"#utility.yul\":7480:7517   */\n      tag_515\n        /* \"#utility.yul\":7511:7516   */\n      dup3\n        /* \"#utility.yul\":7480:7517   */\n      tag_370\n      jump\t// in\n    tag_515:\n        /* \"#utility.yul\":7467:7517   */\n      swap1\n      pop\n        /* \"#utility.yul\":7397:7523   */\n      swap2\n      swap1\n      pop\n      jump\t// out\n        /* \"#utility.yul\":7529:7681   */\n    tag_372:\n        /* \"#utility.yul\":7605:7614   */\n      0x00\n        /* \"#utility.yul\":7638:7675   */\n      tag_517\n        /* \"#utility.yul\":7669:7674   */\n      dup3\n        /* \"#utility.yul\":7638:7675   */\n      tag_371\n      jump\t// in\n    tag_517:\n        /* \"#utility.yul\":7625:7675   */\n      swap1\n      pop\n        /* \"#utility.yul\":7529:7681   */\n      swap2\n      swap1\n      pop\n      jump\t// out\n        /* \"#utility.yul\":7687:7870   */\n    tag_373:\n        /* \"#utility.yul\":7800:7863   */\n      tag_519\n        /* \"#utility.yul\":7857:7862   */\n      dup2\n        /* \"#utility.yul\":7800:7863   */\n      tag_372\n      jump\t// in\n    tag_519:\n        /* \"#utility.yul\":7795:7798   */\n      dup3\n        /* \"#utility.yul\":7788:7864   */\n      mstore\n        /* \"#utility.yul\":7687:7870   */\n      pop\n      pop\n      jump\t// out\n        /* \"#utility.yul\":7876:8150   */\n    tag_63:\n        /* \"#utility.yul\":7995:7999   */\n      0x00\n        /* \"#utility.yul\":8033:8035   */\n      0x20\n        /* \"#utility.yul\":8022:8031   */\n      dup3\n        /* \"#utility.yul\":8018:8036   */\n      add\n        /* \"#utility.yul\":8010:8036   */\n      swap1\n      pop\n        /* \"#utility.yul\":8046:8143   */\n      tag_521\n        /* \"#utility.yul\":8140:8141   */\n      0x00\n        /* \"#utility.yul\":8129:8138   */\n      dup4\n        /* \"#utility.yul\":8125:8142   */\n      add\n        /* \"#utility.yul\":8116:8122   */\n      dup5\n        /* \"#utility.yul\":8046:8143   */\n      tag_373\n      jump\t// in\n    tag_521:\n        /* \"#utility.yul\":7876:8150   */\n      swap3\n      swap2\n      pop\n      pop\n      jump\t// out\n        /* \"#utility.yul\":8156:8300   */\n    tag_374:\n        /* \"#utility.yul\":8224:8233   */\n      0x00\n        /* \"#utility.yul\":8257:8294   */\n      tag_523\n        /* \"#utility.yul\":8288:8293   */\n      dup3\n        /* \"#utility.yul\":8257:8294   */\n      tag_371\n      jump\t// in\n    tag_523:\n        /* \"#utility.yul\":8244:8294   */\n      swap1\n      pop\n        /* \"#utility.yul\":8156:8300   */\n      swap2\n      swap1\n      pop\n      jump\t// out\n        /* \"#utility.yul\":8306:8473   */\n    tag_375:\n        /* \"#utility.yul\":8411:8466   */\n      tag_525\n        /* \"#utility.yul\":8460:8465   */\n      dup2\n        /* \"#utility.yul\":8411:8466   */\n      tag_374\n      jump\t// in\n    tag_525:\n        /* \"#utility.yul\":8406:8409   */\n      dup3\n        /* \"#utility.yul\":8399:8467   */\n      mstore\n        /* \"#utility.yul\":8306:8473   */\n      pop\n      pop\n      jump\t// out\n        /* \"#utility.yul\":8479:8737   */\n    tag_72:\n        /* \"#utility.yul\":8590:8594   */\n      0x00\n        /* \"#utility.yul\":8628:8630   */\n      0x20\n        /* \"#utility.yul\":8617:8626   */\n      dup3\n        /* \"#utility.yul\":8613:8631   */\n      add\n        /* \"#utility.yul\":8605:8631   */\n      swap1\n      pop\n        /* \"#utility.yul\":8641:8730   */\n      tag_527\n        /* \"#utility.yul\":8727:8728   */\n      0x00\n        /* \"#utility.yul\":8716:8725   */\n      dup4\n        /* \"#utility.yul\":8712:8729   */\n      add\n        /* \"#utility.yul\":8703:8709   */\n      dup5\n        /* \"#utility.yul\":8641:8730   */\n      tag_375\n      jump\t// in\n    tag_527:\n        /* \"#utility.yul\":8479:8737   */\n      swap3\n      swap2\n      pop\n      pop\n      jump\t// out\n        /* \"#utility.yul\":8743:9072   */\n    tag_76:\n        /* \"#utility.yul\":8802:8808   */\n      0x00\n        /* \"#utility.yul\":8851:8853   */\n      0x20\n        /* \"#utility.yul\":8839:8848   */\n      dup3\n        /* \"#utility.yul\":8830:8837   */\n      dup5\n        /* \"#utility.yul\":8826:8849   */\n      sub\n        /* \"#utility.yul\":8822:8854   */\n      slt\n        /* \"#utility.yul\":8819:8938   */\n      iszero\n      tag_529\n      jumpi\n        /* \"#utility.yul\":8857:8936   */\n      tag_530\n      tag_346\n      jump\t// in\n    tag_530:\n        /* \"#utility.yul\":8819:8938   */\n    tag_529:\n        /* \"#utility.yul\":8977:8978   */\n      0x00\n        /* \"#utility.yul\":9002:9055   */\n      tag_531\n        /* \"#utility.yul\":9047:9054   */\n      dup5\n        /* \"#utility.yul\":9038:9044   */\n      dup3\n        /* \"#utility.yul\":9027:9036   */\n      dup6\n        /* \"#utility.yul\":9023:9045   */\n      add\n        /* \"#utility.yul\":9002:9055   */\n      tag_367\n      jump\t// in\n    tag_531:\n        /* \"#utility.yul\":8992:9055   */\n      swap2\n      pop\n        /* \"#utility.yul\":8948:9065   */\n      pop\n        /* \"#utility.yul\":8743:9072   */\n      swap3\n      swap2\n      pop\n      pop\n      jump\t// out\n        /* \"#utility.yul\":9078:9843   */\n    tag_85:\n        /* \"#utility.yul\":9164:9170   */\n      0x00\n        /* \"#utility.yul\":9172:9178   */\n      dup1\n        /* \"#utility.yul\":9180:9186   */\n      0x00\n        /* \"#utility.yul\":9188:9194   */\n      dup1\n        /* \"#utility.yul\":9237:9240   */\n      0x80\n        /* \"#utility.yul\":9225:9234   */\n      dup6\n        /* \"#utility.yul\":9216:9223   */\n      dup8\n        /* \"#utility.yul\":9212:9235   */\n      sub\n        /* \"#utility.yul\":9208:9241   */\n      slt\n        /* \"#utility.yul\":9205:9325   */\n      iszero\n      tag_533\n      jumpi\n        /* \"#utility.yul\":9244:9323   */\n      tag_534\n      tag_346\n      jump\t// in\n    tag_534:\n        /* \"#utility.yul\":9205:9325   */\n    tag_533:\n        /* \"#utility.yul\":9364:9365   */\n      0x00\n        /* \"#utility.yul\":9389:9442   */\n      tag_535\n        /* \"#utility.yul\":9434:9441   */\n      dup8\n        /* \"#utility.yul\":9425:9431   */\n      dup3\n        /* \"#utility.yul\":9414:9423   */\n      dup9\n        /* \"#utility.yul\":9410:9432   */\n      add\n        /* \"#utility.yul\":9389:9442   */\n      tag_364\n      jump\t// in\n    tag_535:\n        /* \"#utility.yul\":9379:9442   */\n      swap5\n      pop\n        /* \"#utility.yul\":9335:9452   */\n      pop\n        /* \"#utility.yul\":9491:9493   */\n      0x20\n        /* \"#utility.yul\":9517:9570   */\n      tag_536\n        /* \"#utility.yul\":9562:9569   */\n      dup8\n        /* \"#utility.yul\":9553:9559   */\n      dup3\n        /* \"#utility.yul\":9542:9551   */\n      dup9\n        /* \"#utility.yul\":9538:9560   */\n      add\n        /* \"#utility.yul\":9517:9570   */\n      tag_367\n      jump\t// in\n    tag_536:\n        /* \"#utility.yul\":9507:9570   */\n      swap4\n      pop\n        /* \"#utility.yul\":9462:9580   */\n      pop\n        /* \"#utility.yul\":9619:9621   */\n      0x40\n        /* \"#utility.yul\":9645:9698   */\n      tag_537\n        /* \"#utility.yul\":9690:9697   */\n      dup8\n        /* \"#utility.yul\":9681:9687   */\n      dup3\n        /* \"#utility.yul\":9670:9679   */\n      dup9\n        /* \"#utility.yul\":9666:9688   */\n      add\n        /* \"#utility.yul\":9645:9698   */\n      tag_367\n      jump\t// in\n    tag_537:\n        /* \"#utility.yul\":9635:9698   */\n      swap3\n      pop\n        /* \"#utility.yul\":9590:9708   */\n      pop\n        /* \"#utility.yul\":9747:9749   */\n      0x60\n        /* \"#utility.yul\":9773:9826   */\n      tag_538\n        /* \"#utility.yul\":9818:9825   */\n      dup8\n        /* \"#utility.yul\":9809:9815   */\n      dup3\n        /* \"#utility.yul\":9798:9807   */\n      dup9\n        /* \"#utility.yul\":9794:9816   */\n      add\n        /* \"#utility.yul\":9773:9826   */\n      tag_367\n      jump\t// in\n    tag_538:\n        /* \"#utility.yul\":9763:9826   */\n      swap2\n      pop\n        /* \"#utility.yul\":9718:9836   */\n      pop\n        /* \"#utility.yul\":9078:9843   */\n      swap3\n      swap6\n      swap2\n      swap5\n      pop\n      swap3\n      pop\n      jump\t// out\n        /* \"#utility.yul\":9849:9939   */\n    tag_376:\n        /* \"#utility.yul\":9883:9890   */\n      0x00\n        /* \"#utility.yul\":9926:9931   */\n      dup2\n        /* \"#utility.yul\":9919:9932   */\n      iszero\n        /* \"#utility.yul\":9912:9933   */\n      iszero\n        /* \"#utility.yul\":9901:9933   */\n      swap1\n      pop\n        /* \"#utility.yul\":9849:9939   */\n      swap2\n      swap1\n      pop\n      jump\t// out\n        /* \"#utility.yul\":9945:10054   */\n    tag_377:\n        /* \"#utility.yul\":10026:10047   */\n      tag_541\n        /* \"#utility.yul\":10041:10046   */\n      dup2\n        /* \"#utility.yul\":10026:10047   */\n      tag_376\n      jump\t// in\n    tag_541:\n        /* \"#utility.yul\":10021:10024   */\n      dup3\n        /* \"#utility.yul\":10014:10048   */\n      mstore\n        /* \"#utility.yul\":9945:10054   */\n      pop\n      pop\n      jump\t// out\n        /* \"#utility.yul\":10060:10490   */\n    tag_88:\n        /* \"#utility.yul\":10203:10207   */\n      0x00\n        /* \"#utility.yul\":10241:10243   */\n      0x60\n        /* \"#utility.yul\":10230:10239   */\n      dup3\n        /* \"#utility.yul\":10226:10244   */\n      add\n        /* \"#utility.yul\":10218:10244   */\n      swap1\n      pop\n        /* \"#utility.yul\":10254:10325   */\n      tag_543\n        /* \"#utility.yul\":10322:10323   */\n      0x00\n        /* \"#utility.yul\":10311:10320   */\n      dup4\n        /* \"#utility.yul\":10307:10324   */\n      add\n        /* \"#utility.yul\":10298:10304   */\n      dup7\n        /* \"#utility.yul\":10254:10325   */\n      tag_368\n      jump\t// in\n    tag_543:\n        /* \"#utility.yul\":10335:10407   */\n      tag_544\n        /* \"#utility.yul\":10403:10405   */\n      0x20\n        /* \"#utility.yul\":10392:10401   */\n      dup4\n        /* \"#utility.yul\":10388:10406   */\n      add\n        /* \"#utility.yul\":10379:10385   */\n      dup6\n        /* \"#utility.yul\":10335:10407   */\n      tag_368\n      jump\t// in\n    tag_544:\n        /* \"#utility.yul\":10417:10483   */\n      tag_545\n        /* \"#utility.yul\":10479:10481   */\n      0x40\n        /* \"#utility.yul\":10468:10477   */\n      dup4\n        /* \"#utility.yul\":10464:10482   */\n      add\n        /* \"#utility.yul\":10455:10461   */\n      dup5\n        /* \"#utility.yul\":10417:10483   */\n      tag_377\n      jump\t// in\n    tag_545:\n        /* \"#utility.yul\":10060:10490   */\n      swap5\n      swap4\n      pop\n      pop\n      pop\n      pop\n      jump\t// out\n        /* \"#utility.yul\":10496:10706   */\n    tag_98:\n        /* \"#utility.yul\":10583:10587   */\n      0x00\n        /* \"#utility.yul\":10621:10623   */\n      0x20\n        /* \"#utility.yul\":10610:10619   */\n      dup3\n        /* \"#utility.yul\":10606:10624   */\n      add\n        /* \"#utility.yul\":10598:10624   */\n      swap1\n      pop\n        /* \"#utility.yul\":10634:10699   */\n      tag_547\n        /* \"#utility.yul\":10696:10697   */\n      0x00\n        /* \"#utility.yul\":10685:10694   */\n      dup4\n        /* \"#utility.yul\":10681:10698   */\n      add\n        /* \"#utility.yul\":10672:10678   */\n      dup5\n        /* \"#utility.yul\":10634:10699   */\n      tag_377\n      jump\t// in\n    tag_547:\n        /* \"#utility.yul\":10496:10706   */\n      swap3\n      swap2\n      pop\n      pop\n      jump\t// out\n        /* \"#utility.yul\":10712:10798   */\n    tag_378:\n        /* \"#utility.yul\":10747:10754   */\n      0x00\n        /* \"#utility.yul\":10787:10791   */\n      0xff\n        /* \"#utility.yul\":10780:10785   */\n      dup3\n        /* \"#utility.yul\":10776:10792   */\n      and\n        /* \"#utility.yul\":10765:10792   */\n      swap1\n      pop\n        /* \"#utility.yul\":10712:10798   */\n      swap2\n      swap1\n      pop\n      jump\t// out\n        /* \"#utility.yul\":10804:10984   */\n    tag_379:\n        /* \"#utility.yul\":10852:10929   */\n      0x4e487b7100000000000000000000000000000000000000000000000000000000\n        /* \"#utility.yul\":10849:10850   */\n      0x00\n        /* \"#utility.yul\":10842:10930   */\n      mstore\n        /* \"#utility.yul\":10949:10953   */\n      0x11\n        /* \"#utility.yul\":10946:10947   */\n      0x04\n        /* \"#utility.yul\":10939:10954   */\n      mstore\n        /* \"#utility.yul\":10973:10977   */\n      0x24\n        /* \"#utility.yul\":10970:10971   */\n      0x00\n        /* \"#utility.yul\":10963:10978   */\n      revert\n        /* \"#utility.yul\":10990:11178   */\n    tag_117:\n        /* \"#utility.yul\":11028:11031   */\n      0x00\n        /* \"#utility.yul\":11047:11065   */\n      tag_551\n        /* \"#utility.yul\":11063:11064   */\n      dup3\n        /* \"#utility.yul\":11047:11065   */\n      tag_378\n      jump\t// in\n    tag_551:\n        /* \"#utility.yul\":11042:11065   */\n      swap2\n      pop\n        /* \"#utility.yul\":11079:11097   */\n      tag_552\n        /* \"#utility.yul\":11095:11096   */\n      dup4\n        /* \"#utility.yul\":11079:11097   */\n      tag_378\n      jump\t// in\n    tag_552:\n        /* \"#utility.yul\":11074:11097   */\n      swap3\n      pop\n        /* \"#utility.yul\":11120:11121   */\n      dup3\n        /* \"#utility.yul\":11117:11118   */\n      dup3\n        /* \"#utility.yul\":11113:11122   */\n      add\n        /* \"#utility.yul\":11106:11122   */\n      swap1\n      pop\n        /* \"#utility.yul\":11143:11147   */\n      0xff\n        /* \"#utility.yul\":11138:11141   */\n      dup2\n        /* \"#utility.yul\":11135:11148   */\n      gt\n        /* \"#utility.yul\":11132:11171   */\n      iszero\n      tag_553\n      jumpi\n        /* \"#utility.yul\":11151:11169   */\n      tag_554\n      tag_379\n      jump\t// in\n    tag_554:\n        /* \"#utility.yul\":11132:11171   */\n    tag_553:\n        /* \"#utility.yul\":10990:11178   */\n      swap3\n      swap2\n      pop\n      pop\n      jump\t// out\n        /* \"#utility.yul\":11184:11332   */\n    tag_380:\n        /* \"#utility.yul\":11286:11297   */\n      0x00\n        /* \"#utility.yul\":11323:11326   */\n      dup2\n        /* \"#utility.yul\":11308:11326   */\n      swap1\n      pop\n        /* \"#utility.yul\":11184:11332   */\n      swap3\n      swap2\n      pop\n      pop\n      jump\t// out\n        /* \"#utility.yul\":11338:11552   */\n    tag_381:\n        /* \"#utility.yul\":11478:11544   */\n      0x19457468657265756d205369676e6564204d6573736167653a0a333200000000\n        /* \"#utility.yul\":11474:11475   */\n      0x00\n        /* \"#utility.yul\":11466:11472   */\n      dup3\n        /* \"#utility.yul\":11462:11476   */\n      add\n        /* \"#utility.yul\":11455:11545   */\n      mstore\n        /* \"#utility.yul\":11338:11552   */\n      pop\n      jump\t// out\n        /* \"#utility.yul\":11558:11960   */\n    tag_382:\n        /* \"#utility.yul\":11718:11721   */\n      0x00\n        /* \"#utility.yul\":11739:11824   */\n      tag_558\n        /* \"#utility.yul\":11821:11823   */\n      0x1c\n        /* \"#utility.yul\":11816:11819   */\n      dup4\n        /* \"#utility.yul\":11739:11824   */\n      tag_380\n      jump\t// in\n    tag_558:\n        /* \"#utility.yul\":11732:11824   */\n      swap2\n      pop\n        /* \"#utility.yul\":11833:11926   */\n      tag_559\n        /* \"#utility.yul\":11922:11925   */\n      dup3\n        /* \"#utility.yul\":11833:11926   */\n      tag_381\n      jump\t// in\n    tag_559:\n        /* \"#utility.yul\":11951:11953   */\n      0x1c\n        /* \"#utility.yul\":11946:11949   */\n      dup3\n        /* \"#utility.yul\":11942:11954   */\n      add\n        /* \"#utility.yul\":11935:11954   */\n      swap1\n      pop\n        /* \"#utility.yul\":11558:11960   */\n      swap2\n      swap1\n      pop\n      jump\t// out\n        /* \"#utility.yul\":11966:12045   */\n    tag_383:\n        /* \"#utility.yul\":12005:12012   */\n      0x00\n        /* \"#utility.yul\":12034:12039   */\n      dup2\n        /* \"#utility.yul\":12023:12039   */\n      swap1\n      pop\n        /* \"#utility.yul\":11966:12045   */\n      swap2\n      swap1\n      pop\n      jump\t// out\n        /* \"#utility.yul\":12051:12208   */\n    tag_384:\n        /* \"#utility.yul\":12156:12201   */\n      tag_562\n        /* \"#utility.yul\":12176:12200   */\n      tag_563\n        /* \"#utility.yul\":12194:12199   */\n      dup3\n        /* \"#utility.yul\":12176:12200   */\n      tag_348\n      jump\t// in\n    tag_563:\n        /* \"#utility.yul\":12156:12201   */\n      tag_383\n      jump\t// in\n    tag_562:\n        /* \"#utility.yul\":12151:12154   */\n      dup3\n        /* \"#utility.yul\":12144:12202   */\n      mstore\n        /* \"#utility.yul\":12051:12208   */\n      pop\n      pop\n      jump\t// out\n        /* \"#utility.yul\":12214:12736   */\n    tag_119:\n        /* \"#utility.yul\":12427:12430   */\n      0x00\n        /* \"#utility.yul\":12449:12597   */\n      tag_565\n        /* \"#utility.yul\":12593:12596   */\n      dup3\n        /* \"#utility.yul\":12449:12597   */\n      tag_382\n      jump\t// in\n    tag_565:\n        /* \"#utility.yul\":12442:12597   */\n      swap2\n      pop\n        /* \"#utility.yul\":12607:12682   */\n      tag_566\n        /* \"#utility.yul\":12678:12681   */\n      dup3\n        /* \"#utility.yul\":12669:12675   */\n      dup5\n        /* \"#utility.yul\":12607:12682   */\n      tag_384\n      jump\t// in\n    tag_566:\n        /* \"#utility.yul\":12707:12709   */\n      0x20\n        /* \"#utility.yul\":12702:12705   */\n      dup3\n        /* \"#utility.yul\":12698:12710   */\n      add\n        /* \"#utility.yul\":12691:12710   */\n      swap2\n      pop\n        /* \"#utility.yul\":12727:12730   */\n      dup2\n        /* \"#utility.yul\":12720:12730   */\n      swap1\n      pop\n        /* \"#utility.yul\":12214:12736   */\n      swap3\n      swap2\n      pop\n      pop\n      jump\t// out\n        /* \"#utility.yul\":12742:12860   */\n    tag_385:\n        /* \"#utility.yul\":12829:12853   */\n      tag_568\n        /* \"#utility.yul\":12847:12852   */\n      dup2\n        /* \"#utility.yul\":12829:12853   */\n      tag_348\n      jump\t// in\n    tag_568:\n        /* \"#utility.yul\":12824:12827   */\n      dup3\n        /* \"#utility.yul\":12817:12854   */\n      mstore\n        /* \"#utility.yul\":12742:12860   */\n      pop\n      pop\n      jump\t// out\n        /* \"#utility.yul\":12866:12978   */\n    tag_386:\n        /* \"#utility.yul\":12949:12971   */\n      tag_570\n        /* \"#utility.yul\":12965:12970   */\n      dup2\n        /* \"#utility.yul\":12949:12971   */\n      tag_378\n      jump\t// in\n    tag_570:\n        /* \"#utility.yul\":12944:12947   */\n      dup3\n        /* \"#utility.yul\":12937:12972   */\n      mstore\n        /* \"#utility.yul\":12866:12978   */\n      pop\n      pop\n      jump\t// out\n        /* \"#utility.yul\":12984:13529   */\n    tag_121:\n        /* \"#utility.yul\":13157:13161   */\n      0x00\n        /* \"#utility.yul\":13195:13198   */\n      0x80\n        /* \"#utility.yul\":13184:13193   */\n      dup3\n        /* \"#utility.yul\":13180:13199   */\n      add\n        /* \"#utility.yul\":13172:13199   */\n      swap1\n      pop\n        /* \"#utility.yul\":13209:13280   */\n      tag_572\n        /* \"#utility.yul\":13277:13278   */\n      0x00\n        /* \"#utility.yul\":13266:13275   */\n      dup4\n        /* \"#utility.yul\":13262:13279   */\n      add\n        /* \"#utility.yul\":13253:13259   */\n      dup8\n        /* \"#utility.yul\":13209:13280   */\n      tag_385\n      jump\t// in\n    tag_572:\n        /* \"#utility.yul\":13290:13358   */\n      tag_573\n        /* \"#utility.yul\":13354:13356   */\n      0x20\n        /* \"#utility.yul\":13343:13352   */\n      dup4\n        /* \"#utility.yul\":13339:13357   */\n      add\n        /* \"#utility.yul\":13330:13336   */\n      dup7\n        /* \"#utility.yul\":13290:13358   */\n      tag_386\n      jump\t// in\n    tag_573:\n        /* \"#utility.yul\":13368:13440   */\n      tag_574\n        /* \"#utility.yul\":13436:13438   */\n      0x40\n        /* \"#utility.yul\":13425:13434   */\n      dup4\n        /* \"#utility.yul\":13421:13439   */\n      add\n        /* \"#utility.yul\":13412:13418   */\n      dup6\n        /* \"#utility.yul\":13368:13440   */\n      tag_385\n      jump\t// in\n    tag_574:\n        /* \"#utility.yul\":13450:13522   */\n      tag_575\n        /* \"#utility.yul\":13518:13520   */\n      0x60\n        /* \"#utility.yul\":13507:13516   */\n      dup4\n        /* \"#utility.yul\":13503:13521   */\n      add\n        /* \"#utility.yul\":13494:13500   */\n      dup5\n        /* \"#utility.yul\":13450:13522   */\n      tag_385\n      jump\t// in\n    tag_575:\n        /* \"#utility.yul\":12984:13529   */\n      swap6\n      swap5\n      pop\n      pop\n      pop\n      pop\n      pop\n      jump\t// out\n        /* \"#utility.yul\":13535:13977   */\n    tag_126:\n        /* \"#utility.yul\":13684:13688   */\n      0x00\n        /* \"#utility.yul\":13722:13724   */\n      0x60\n        /* \"#utility.yul\":13711:13720   */\n      dup3\n        /* \"#utility.yul\":13707:13725   */\n      add\n        /* \"#utility.yul\":13699:13725   */\n      swap1\n      pop\n        /* \"#utility.yul\":13735:13806   */\n      tag_577\n        /* \"#utility.yul\":13803:13804   */\n      0x00\n        /* \"#utility.yul\":13792:13801   */\n      dup4\n        /* \"#utility.yul\":13788:13805   */\n      add\n        /* \"#utility.yul\":13779:13785   */\n      dup7\n        /* \"#utility.yul\":13735:13806   */\n      tag_362\n      jump\t// in\n    tag_577:\n        /* \"#utility.yul\":13816:13888   */\n      tag_578\n        /* \"#utility.yul\":13884:13886   */\n      0x20\n        /* \"#utility.yul\":13873:13882   */\n      dup4\n        /* \"#utility.yul\":13869:13887   */\n      add\n        /* \"#utility.yul\":13860:13866   */\n      dup6\n        /* \"#utility.yul\":13816:13888   */\n      tag_362\n      jump\t// in\n    tag_578:\n        /* \"#utility.yul\":13898:13970   */\n      tag_579\n        /* \"#utility.yul\":13966:13968   */\n      0x40\n        /* \"#utility.yul\":13955:13964   */\n      dup4\n        /* \"#utility.yul\":13951:13969   */\n      add\n        /* \"#utility.yul\":13942:13948   */\n      dup5\n        /* \"#utility.yul\":13898:13970   */\n      tag_368\n      jump\t// in\n    tag_579:\n        /* \"#utility.yul\":13535:13977   */\n      swap5\n      swap4\n      pop\n      pop\n      pop\n      pop\n      jump\t// out\n        /* \"#utility.yul\":13983:14099   */\n    tag_387:\n        /* \"#utility.yul\":14053:14074   */\n      tag_581\n        /* \"#utility.yul\":14068:14073   */\n      dup2\n        /* \"#utility.yul\":14053:14074   */\n      tag_376\n      jump\t// in\n    tag_581:\n        /* \"#utility.yul\":14046:14051   */\n      dup2\n        /* \"#utility.yul\":14043:14075   */\n      eq\n        /* \"#utility.yul\":14033:14093   */\n      tag_582\n      jumpi\n        /* \"#utility.yul\":14089:14090   */\n      0x00\n        /* \"#utility.yul\":14086:14087   */\n      dup1\n        /* \"#utility.yul\":14079:14091   */\n      revert\n        /* \"#utility.yul\":14033:14093   */\n    tag_582:\n        /* \"#utility.yul\":13983:14099   */\n      pop\n      jump\t// out\n        /* \"#utility.yul\":14105:14242   */\n    tag_388:\n        /* \"#utility.yul\":14159:14164   */\n      0x00\n        /* \"#utility.yul\":14190:14196   */\n      dup2\n        /* \"#utility.yul\":14184:14197   */\n      mload\n        /* \"#utility.yul\":14175:14197   */\n      swap1\n      pop\n        /* \"#utility.yul\":14206:14236   */\n      tag_584\n        /* \"#utility.yul\":14230:14235   */\n      dup2\n        /* \"#utility.yul\":14206:14236   */\n      tag_387\n      jump\t// in\n    tag_584:\n        /* \"#utility.yul\":14105:14242   */\n      swap3\n      swap2\n      pop\n      pop\n      jump\t// out\n        /* \"#utility.yul\":14248:14593   */\n    tag_130:\n        /* \"#utility.yul\":14315:14321   */\n      0x00\n        /* \"#utility.yul\":14364:14366   */\n      0x20\n        /* \"#utility.yul\":14352:14361   */\n      dup3\n        /* \"#utility.yul\":14343:14350   */\n      dup5\n        /* \"#utility.yul\":14339:14362   */\n      sub\n        /* \"#utility.yul\":14335:14367   */\n      slt\n        /* \"#utility.yul\":14332:14451   */\n      iszero\n      tag_586\n      jumpi\n        /* \"#utility.yul\":14370:14449   */\n      tag_587\n      tag_346\n      jump\t// in\n    tag_587:\n        /* \"#utility.yul\":14332:14451   */\n    tag_586:\n        /* \"#utility.yul\":14490:14491   */\n      0x00\n        /* \"#utility.yul\":14515:14576   */\n      tag_588\n        /* \"#utility.yul\":14568:14575   */\n      dup5\n        /* \"#utility.yul\":14559:14565   */\n      dup3\n        /* \"#utility.yul\":14548:14557   */\n      dup6\n        /* \"#utility.yul\":14544:14566   */\n      add\n        /* \"#utility.yul\":14515:14576   */\n      tag_388\n      jump\t// in\n    tag_588:\n        /* \"#utility.yul\":14505:14576   */\n      swap2\n      pop\n        /* \"#utility.yul\":14461:14586   */\n      pop\n        /* \"#utility.yul\":14248:14593   */\n      swap3\n      swap2\n      pop\n      pop\n      jump\t// out\n        /* \"#utility.yul\":14599:14931   */\n    tag_132:\n        /* \"#utility.yul\":14720:14724   */\n      0x00\n        /* \"#utility.yul\":14758:14760   */\n      0x40\n        /* \"#utility.yul\":14747:14756   */\n      dup3\n        /* \"#utility.yul\":14743:14761   */\n      add\n        /* \"#utility.yul\":14735:14761   */\n      swap1\n      pop\n        /* \"#utility.yul\":14771:14842   */\n      tag_590\n        /* \"#utility.yul\":14839:14840   */\n      0x00\n        /* \"#utility.yul\":14828:14837   */\n      dup4\n        /* \"#utility.yul\":14824:14841   */\n      add\n        /* \"#utility.yul\":14815:14821   */\n      dup6\n        /* \"#utility.yul\":14771:14842   */\n      tag_362\n      jump\t// in\n    tag_590:\n        /* \"#utility.yul\":14852:14924   */\n      tag_591\n        /* \"#utility.yul\":14920:14922   */\n      0x20\n        /* \"#utility.yul\":14909:14918   */\n      dup4\n        /* \"#utility.yul\":14905:14923   */\n      add\n        /* \"#utility.yul\":14896:14902   */\n      dup5\n        /* \"#utility.yul\":14852:14924   */\n      tag_368\n      jump\t// in\n    tag_591:\n        /* \"#utility.yul\":14599:14931   */\n      swap4\n      swap3\n      pop\n      pop\n      pop\n      jump\t// out\n        /* \"#utility.yul\":14937:15117   */\n    tag_142:\n        /* \"#utility.yul\":14985:15062   */\n      0x4e487b7100000000000000000000000000000000000000000000000000000000\n        /* \"#utility.yul\":14982:14983   */\n      0x00\n        /* \"#utility.yul\":14975:15063   */\n      mstore\n        /* \"#utility.yul\":15082:15086   */\n      0x32\n        /* \"#utility.yul\":15079:15080   */\n      0x04\n        /* \"#utility.yul\":15072:15087   */\n      mstore\n        /* \"#utility.yul\":15106:15110   */\n      0x24\n        /* \"#utility.yul\":15103:15104   */\n      0x00\n        /* \"#utility.yul\":15096:15111   */\n      revert\n        /* \"#utility.yul\":15123:15266   */\n    tag_389:\n        /* \"#utility.yul\":15180:15185   */\n      0x00\n        /* \"#utility.yul\":15211:15217   */\n      dup2\n        /* \"#utility.yul\":15205:15218   */\n      mload\n        /* \"#utility.yul\":15196:15218   */\n      swap1\n      pop\n        /* \"#utility.yul\":15227:15260   */\n      tag_594\n        /* \"#utility.yul\":15254:15259   */\n      dup2\n        /* \"#utility.yul\":15227:15260   */\n      tag_363\n      jump\t// in\n    tag_594:\n        /* \"#utility.yul\":15123:15266   */\n      swap3\n      swap2\n      pop\n      pop\n      jump\t// out\n        /* \"#utility.yul\":15272:15623   */\n    tag_146:\n        /* \"#utility.yul\":15342:15348   */\n      0x00\n        /* \"#utility.yul\":15391:15393   */\n      0x20\n        /* \"#utility.yul\":15379:15388   */\n      dup3\n        /* \"#utility.yul\":15370:15377   */\n      dup5\n        /* \"#utility.yul\":15366:15389   */\n      sub\n        /* \"#utility.yul\":15362:15394   */\n      slt\n        /* \"#utility.yul\":15359:15478   */\n      iszero\n      tag_596\n      jumpi\n        /* \"#utility.yul\":15397:15476   */\n      tag_597\n      tag_346\n      jump\t// in\n    tag_597:\n        /* \"#utility.yul\":15359:15478   */\n    tag_596:\n        /* \"#utility.yul\":15517:15518   */\n      0x00\n        /* \"#utility.yul\":15542:15606   */\n      tag_598\n        /* \"#utility.yul\":15598:15605   */\n      dup5\n        /* \"#utility.yul\":15589:15595   */\n      dup3\n        /* \"#utility.yul\":15578:15587   */\n      dup6\n        /* \"#utility.yul\":15574:15596   */\n      add\n        /* \"#utility.yul\":15542:15606   */\n      tag_389\n      jump\t// in\n    tag_598:\n        /* \"#utility.yul\":15532:15606   */\n      swap2\n      pop\n        /* \"#utility.yul\":15488:15616   */\n      pop\n        /* \"#utility.yul\":15272:15623   */\n      swap3\n      swap2\n      pop\n      pop\n      jump\t// out\n        /* \"#utility.yul\":15629:15743   */\n    tag_390:\n        /* \"#utility.yul\":15696:15702   */\n      0x00\n        /* \"#utility.yul\":15730:15735   */\n      dup2\n        /* \"#utility.yul\":15724:15736   */\n      mload\n        /* \"#utility.yul\":15714:15736   */\n      swap1\n      pop\n        /* \"#utility.yul\":15629:15743   */\n      swap2\n      swap1\n      pop\n      jump\t// out\n        /* \"#utility.yul\":15749:15933   */\n    tag_391:\n        /* \"#utility.yul\":15848:15859   */\n      0x00\n        /* \"#utility.yul\":15882:15888   */\n      dup3\n        /* \"#utility.yul\":15877:15880   */\n      dup3\n        /* \"#utility.yul\":15870:15889   */\n      mstore\n        /* \"#utility.yul\":15922:15926   */\n      0x20\n        /* \"#utility.yul\":15917:15920   */\n      dup3\n        /* \"#utility.yul\":15913:15927   */\n      add\n        /* \"#utility.yul\":15898:15927   */\n      swap1\n      pop\n        /* \"#utility.yul\":15749:15933   */\n      swap3\n      swap2\n      pop\n      pop\n      jump\t// out\n        /* \"#utility.yul\":15939:16071   */\n    tag_392:\n        /* \"#utility.yul\":16006:16010   */\n      0x00\n        /* \"#utility.yul\":16029:16032   */\n      dup2\n        /* \"#utility.yul\":16021:16032   */\n      swap1\n      pop\n        /* \"#utility.yul\":16059:16063   */\n      0x20\n        /* \"#utility.yul\":16054:16057   */\n      dup3\n        /* \"#utility.yul\":16050:16064   */\n      add\n        /* \"#utility.yul\":16042:16064   */\n      swap1\n      pop\n        /* \"#utility.yul\":15939:16071   */\n      swap2\n      swap1\n      pop\n      jump\t// out\n        /* \"#utility.yul\":16077:16185   */\n    tag_393:\n        /* \"#utility.yul\":16154:16178   */\n      tag_603\n        /* \"#utility.yul\":16172:16177   */\n      dup2\n        /* \"#utility.yul\":16154:16178   */\n      tag_361\n      jump\t// in\n    tag_603:\n        /* \"#utility.yul\":16149:16152   */\n      dup3\n        /* \"#utility.yul\":16142:16179   */\n      mstore\n        /* \"#utility.yul\":16077:16185   */\n      pop\n      pop\n      jump\t// out\n        /* \"#utility.yul\":16191:16370   */\n    tag_394:\n        /* \"#utility.yul\":16260:16270   */\n      0x00\n        /* \"#utility.yul\":16281:16327   */\n      tag_605\n        /* \"#utility.yul\":16323:16326   */\n      dup4\n        /* \"#utility.yul\":16315:16321   */\n      dup4\n        /* \"#utility.yul\":16281:16327   */\n      tag_393\n      jump\t// in\n    tag_605:\n        /* \"#utility.yul\":16359:16363   */\n      0x20\n        /* \"#utility.yul\":16354:16357   */\n      dup4\n        /* \"#utility.yul\":16350:16364   */\n      add\n        /* \"#utility.yul\":16336:16364   */\n      swap1\n      pop\n        /* \"#utility.yul\":16191:16370   */\n      swap3\n      swap2\n      pop\n      pop\n      jump\t// out\n        /* \"#utility.yul\":16376:16489   */\n    tag_395:\n        /* \"#utility.yul\":16446:16450   */\n      0x00\n        /* \"#utility.yul\":16478:16482   */\n      0x20\n        /* \"#utility.yul\":16473:16476   */\n      dup3\n        /* \"#utility.yul\":16469:16483   */\n      add\n        /* \"#utility.yul\":16461:16483   */\n      swap1\n      pop\n        /* \"#utility.yul\":16376:16489   */\n      swap2\n      swap1\n      pop\n      jump\t// out\n        /* \"#utility.yul\":16525:17257   */\n    tag_396:\n        /* \"#utility.yul\":16644:16647   */\n      0x00\n        /* \"#utility.yul\":16673:16727   */\n      tag_608\n        /* \"#utility.yul\":16721:16726   */\n      dup3\n        /* \"#utility.yul\":16673:16727   */\n      tag_390\n      jump\t// in\n    tag_608:\n        /* \"#utility.yul\":16743:16829   */\n      tag_609\n        /* \"#utility.yul\":16822:16828   */\n      dup2\n        /* \"#utility.yul\":16817:16820   */\n      dup6\n        /* \"#utility.yul\":16743:16829   */\n      tag_391\n      jump\t// in\n    tag_609:\n        /* \"#utility.yul\":16736:16829   */\n      swap4\n      pop\n        /* \"#utility.yul\":16853:16909   */\n      tag_610\n        /* \"#utility.yul\":16903:16908   */\n      dup4\n        /* \"#utility.yul\":16853:16909   */\n      tag_392\n      jump\t// in\n    tag_610:\n        /* \"#utility.yul\":16932:16939   */\n      dup1\n        /* \"#utility.yul\":16963:16964   */\n      0x00\n        /* \"#utility.yul\":16948:17232   */\n    tag_611:\n        /* \"#utility.yul\":16973:16979   */\n      dup4\n        /* \"#utility.yul\":16970:16971   */\n      dup2\n        /* \"#utility.yul\":16967:16980   */\n      lt\n        /* \"#utility.yul\":16948:17232   */\n      iszero\n      tag_613\n      jumpi\n        /* \"#utility.yul\":17049:17055   */\n      dup2\n        /* \"#utility.yul\":17043:17056   */\n      mload\n        /* \"#utility.yul\":17076:17139   */\n      tag_614\n        /* \"#utility.yul\":17135:17138   */\n      dup9\n        /* \"#utility.yul\":17120:17133   */\n      dup3\n        /* \"#utility.yul\":17076:17139   */\n      tag_394\n      jump\t// in\n    tag_614:\n        /* \"#utility.yul\":17069:17139   */\n      swap8\n      pop\n        /* \"#utility.yul\":17162:17222   */\n      tag_615\n        /* \"#utility.yul\":17215:17221   */\n      dup4\n        /* \"#utility.yul\":17162:17222   */\n      tag_395\n      jump\t// in\n    tag_615:\n        /* \"#utility.yul\":17152:17222   */\n      swap3\n      pop\n        /* \"#utility.yul\":17008:17232   */\n      pop\n        /* \"#utility.yul\":16995:16996   */\n      0x01\n        /* \"#utility.yul\":16992:16993   */\n      dup2\n        /* \"#utility.yul\":16988:16997   */\n      add\n        /* \"#utility.yul\":16983:16997   */\n      swap1\n      pop\n        /* \"#utility.yul\":16948:17232   */\n      jump(tag_611)\n    tag_613:\n        /* \"#utility.yul\":16952:16966   */\n      pop\n        /* \"#utility.yul\":17248:17251   */\n      dup6\n        /* \"#utility.yul\":17241:17251   */\n      swap4\n      pop\n        /* \"#utility.yul\":16649:17257   */\n      pop\n      pop\n      pop\n        /* \"#utility.yul\":16525:17257   */\n      swap3\n      swap2\n      pop\n      pop\n      jump\t// out\n        /* \"#utility.yul\":17263:18078   */\n    tag_150:\n        /* \"#utility.yul\":17518:17522   */\n      0x00\n        /* \"#utility.yul\":17556:17559   */\n      0xa0\n        /* \"#utility.yul\":17545:17554   */\n      dup3\n        /* \"#utility.yul\":17541:17560   */\n      add\n        /* \"#utility.yul\":17533:17560   */\n      swap1\n      pop\n        /* \"#utility.yul\":17570:17641   */\n      tag_617\n        /* \"#utility.yul\":17638:17639   */\n      0x00\n        /* \"#utility.yul\":17627:17636   */\n      dup4\n        /* \"#utility.yul\":17623:17640   */\n      add\n        /* \"#utility.yul\":17614:17620   */\n      dup9\n        /* \"#utility.yul\":17570:17641   */\n      tag_368\n      jump\t// in\n    tag_617:\n        /* \"#utility.yul\":17651:17723   */\n      tag_618\n        /* \"#utility.yul\":17719:17721   */\n      0x20\n        /* \"#utility.yul\":17708:17717   */\n      dup4\n        /* \"#utility.yul\":17704:17722   */\n      add\n        /* \"#utility.yul\":17695:17701   */\n      dup8\n        /* \"#utility.yul\":17651:17723   */\n      tag_368\n      jump\t// in\n    tag_618:\n        /* \"#utility.yul\":17770:17779   */\n      dup2\n        /* \"#utility.yul\":17764:17768   */\n      dup2\n        /* \"#utility.yul\":17760:17780   */\n      sub\n        /* \"#utility.yul\":17755:17757   */\n      0x40\n        /* \"#utility.yul\":17744:17753   */\n      dup4\n        /* \"#utility.yul\":17740:17758   */\n      add\n        /* \"#utility.yul\":17733:17781   */\n      mstore\n        /* \"#utility.yul\":17798:17906   */\n      tag_619\n        /* \"#utility.yul\":17901:17905   */\n      dup2\n        /* \"#utility.yul\":17892:17898   */\n      dup7\n        /* \"#utility.yul\":17798:17906   */\n      tag_396\n      jump\t// in\n    tag_619:\n        /* \"#utility.yul\":17790:17906   */\n      swap1\n      pop\n        /* \"#utility.yul\":17916:17988   */\n      tag_620\n        /* \"#utility.yul\":17984:17986   */\n      0x60\n        /* \"#utility.yul\":17973:17982   */\n      dup4\n        /* \"#utility.yul\":17969:17987   */\n      add\n        /* \"#utility.yul\":17960:17966   */\n      dup6\n        /* \"#utility.yul\":17916:17988   */\n      tag_362\n      jump\t// in\n    tag_620:\n        /* \"#utility.yul\":17998:18071   */\n      tag_621\n        /* \"#utility.yul\":18066:18069   */\n      0x80\n        /* \"#utility.yul\":18055:18064   */\n      dup4\n        /* \"#utility.yul\":18051:18070   */\n      add\n        /* \"#utility.yul\":18042:18048   */\n      dup5\n        /* \"#utility.yul\":17998:18071   */\n      tag_368\n      jump\t// in\n    tag_621:\n        /* \"#utility.yul\":17263:18078   */\n      swap7\n      swap6\n      pop\n      pop\n      pop\n      pop\n      pop\n      pop\n      jump\t// out\n        /* \"#utility.yul\":18084:18395   */\n    tag_397:\n        /* \"#utility.yul\":18161:18165   */\n      0x00\n        /* \"#utility.yul\":18251:18269   */\n      0xffffffffffffffff\n        /* \"#utility.yul\":18243:18249   */\n      dup3\n        /* \"#utility.yul\":18240:18270   */\n      gt\n        /* \"#utility.yul\":18237:18293   */\n      iszero\n      tag_623\n      jumpi\n        /* \"#utility.yul\":18273:18291   */\n      tag_624\n      tag_138\n      jump\t// in\n    tag_624:\n        /* \"#utility.yul\":18237:18293   */\n    tag_623:\n        /* \"#utility.yul\":18323:18327   */\n      0x20\n        /* \"#utility.yul\":18315:18321   */\n      dup3\n        /* \"#utility.yul\":18311:18328   */\n      mul\n        /* \"#utility.yul\":18303:18328   */\n      swap1\n      pop\n        /* \"#utility.yul\":18383:18387   */\n      0x20\n        /* \"#utility.yul\":18377:18381   */\n      dup2\n        /* \"#utility.yul\":18373:18388   */\n      add\n        /* \"#utility.yul\":18365:18388   */\n      swap1\n      pop\n        /* \"#utility.yul\":18084:18395   */\n      swap2\n      swap1\n      pop\n      jump\t// out\n        /* \"#utility.yul\":18401:18518   */\n    tag_398:\n        /* \"#utility.yul\":18510:18511   */\n      0x00\n        /* \"#utility.yul\":18507:18508   */\n      dup1\n        /* \"#utility.yul\":18500:18512   */\n      revert\n        /* \"#utility.yul\":18524:18667   */\n    tag_399:\n        /* \"#utility.yul\":18581:18586   */\n      0x00\n        /* \"#utility.yul\":18612:18618   */\n      dup2\n        /* \"#utility.yul\":18606:18619   */\n      mload\n        /* \"#utility.yul\":18597:18619   */\n      swap1\n      pop\n        /* \"#utility.yul\":18628:18661   */\n      tag_627\n        /* \"#utility.yul\":18655:18660   */\n      dup2\n        /* \"#utility.yul\":18628:18661   */\n      tag_366\n      jump\t// in\n    tag_627:\n        /* \"#utility.yul\":18524:18667   */\n      swap3\n      swap2\n      pop\n      pop\n      jump\t// out\n        /* \"#utility.yul\":18690:19422   */\n    tag_400:\n        /* \"#utility.yul\":18797:18802   */\n      0x00\n        /* \"#utility.yul\":18822:18903   */\n      tag_629\n        /* \"#utility.yul\":18838:18902   */\n      tag_630\n        /* \"#utility.yul\":18895:18901   */\n      dup5\n        /* \"#utility.yul\":18838:18902   */\n      tag_397\n      jump\t// in\n    tag_630:\n        /* \"#utility.yul\":18822:18903   */\n      tag_355\n      jump\t// in\n    tag_629:\n        /* \"#utility.yul\":18813:18903   */\n      swap1\n      pop\n        /* \"#utility.yul\":18923:18928   */\n      dup1\n        /* \"#utility.yul\":18952:18958   */\n      dup4\n        /* \"#utility.yul\":18945:18950   */\n      dup3\n        /* \"#utility.yul\":18938:18959   */\n      mstore\n        /* \"#utility.yul\":18986:18990   */\n      0x20\n        /* \"#utility.yul\":18979:18984   */\n      dup3\n        /* \"#utility.yul\":18975:18991   */\n      add\n        /* \"#utility.yul\":18968:18991   */\n      swap1\n      pop\n        /* \"#utility.yul\":19039:19043   */\n      0x20\n        /* \"#utility.yul\":19031:19037   */\n      dup5\n        /* \"#utility.yul\":19027:19044   */\n      mul\n        /* \"#utility.yul\":19019:19025   */\n      dup4\n        /* \"#utility.yul\":19015:19045   */\n      add\n        /* \"#utility.yul\":19068:19071   */\n      dup6\n        /* \"#utility.yul\":19060:19066   */\n      dup2\n        /* \"#utility.yul\":19057:19072   */\n      gt\n        /* \"#utility.yul\":19054:19176   */\n      iszero\n      tag_631\n      jumpi\n        /* \"#utility.yul\":19087:19166   */\n      tag_632\n      tag_398\n      jump\t// in\n    tag_632:\n        /* \"#utility.yul\":19054:19176   */\n    tag_631:\n        /* \"#utility.yul\":19202:19208   */\n      dup4\n        /* \"#utility.yul\":19185:19416   */\n    tag_633:\n        /* \"#utility.yul\":19219:19225   */\n      dup2\n        /* \"#utility.yul\":19214:19217   */\n      dup2\n        /* \"#utility.yul\":19211:19226   */\n      lt\n        /* \"#utility.yul\":19185:19416   */\n      iszero\n      tag_635\n      jumpi\n        /* \"#utility.yul\":19294:19297   */\n      dup1\n        /* \"#utility.yul\":19323:19371   */\n      tag_636\n        /* \"#utility.yul\":19367:19370   */\n      dup9\n        /* \"#utility.yul\":19355:19365   */\n      dup3\n        /* \"#utility.yul\":19323:19371   */\n      tag_399\n      jump\t// in\n    tag_636:\n        /* \"#utility.yul\":19318:19321   */\n      dup5\n        /* \"#utility.yul\":19311:19372   */\n      mstore\n        /* \"#utility.yul\":19401:19405   */\n      0x20\n        /* \"#utility.yul\":19396:19399   */\n      dup5\n        /* \"#utility.yul\":19392:19406   */\n      add\n        /* \"#utility.yul\":19385:19406   */\n      swap4\n      pop\n        /* \"#utility.yul\":19261:19416   */\n      pop\n        /* \"#utility.yul\":19245:19249   */\n      0x20\n        /* \"#utility.yul\":19240:19243   */\n      dup2\n        /* \"#utility.yul\":19236:19250   */\n      add\n        /* \"#utility.yul\":19229:19250   */\n      swap1\n      pop\n        /* \"#utility.yul\":19185:19416   */\n      jump(tag_633)\n    tag_635:\n        /* \"#utility.yul\":19189:19210   */\n      pop\n        /* \"#utility.yul\":18803:19422   */\n      pop\n      pop\n        /* \"#utility.yul\":18690:19422   */\n      swap4\n      swap3\n      pop\n      pop\n      pop\n      jump\t// out\n        /* \"#utility.yul\":19445:19830   */\n    tag_401:\n        /* \"#utility.yul\":19527:19532   */\n      0x00\n        /* \"#utility.yul\":19576:19579   */\n      dup3\n        /* \"#utility.yul\":19569:19573   */\n      0x1f\n        /* \"#utility.yul\":19561:19567   */\n      dup4\n        /* \"#utility.yul\":19557:19574   */\n      add\n        /* \"#utility.yul\":19553:19580   */\n      slt\n        /* \"#utility.yul\":19543:19665   */\n      tag_638\n      jumpi\n        /* \"#utility.yul\":19584:19663   */\n      tag_639\n      tag_351\n      jump\t// in\n    tag_639:\n        /* \"#utility.yul\":19543:19665   */\n    tag_638:\n        /* \"#utility.yul\":19694:19700   */\n      dup2\n        /* \"#utility.yul\":19688:19701   */\n      mload\n        /* \"#utility.yul\":19719:19824   */\n      tag_640\n        /* \"#utility.yul\":19820:19823   */\n      dup5\n        /* \"#utility.yul\":19812:19818   */\n      dup3\n        /* \"#utility.yul\":19805:19809   */\n      0x20\n        /* \"#utility.yul\":19797:19803   */\n      dup7\n        /* \"#utility.yul\":19793:19810   */\n      add\n        /* \"#utility.yul\":19719:19824   */\n      tag_400\n      jump\t// in\n    tag_640:\n        /* \"#utility.yul\":19710:19824   */\n      swap2\n      pop\n        /* \"#utility.yul\":19533:19830   */\n      pop\n        /* \"#utility.yul\":19445:19830   */\n      swap3\n      swap2\n      pop\n      pop\n      jump\t// out\n        /* \"#utility.yul\":19836:20390   */\n    tag_154:\n        /* \"#utility.yul\":19931:19937   */\n      0x00\n        /* \"#utility.yul\":19980:19982   */\n      0x20\n        /* \"#utility.yul\":19968:19977   */\n      dup3\n        /* \"#utility.yul\":19959:19966   */\n      dup5\n        /* \"#utility.yul\":19955:19978   */\n      sub\n        /* \"#utility.yul\":19951:19983   */\n      slt\n        /* \"#utility.yul\":19948:20067   */\n      iszero\n      tag_642\n      jumpi\n        /* \"#utility.yul\":19986:20065   */\n      tag_643\n      tag_346\n      jump\t// in\n    tag_643:\n        /* \"#utility.yul\":19948:20067   */\n    tag_642:\n        /* \"#utility.yul\":20127:20128   */\n      0x00\n        /* \"#utility.yul\":20116:20125   */\n      dup3\n        /* \"#utility.yul\":20112:20129   */\n      add\n        /* \"#utility.yul\":20106:20130   */\n      mload\n        /* \"#utility.yul\":20157:20175   */\n      0xffffffffffffffff\n        /* \"#utility.yul\":20149:20155   */\n      dup2\n        /* \"#utility.yul\":20146:20176   */\n      gt\n        /* \"#utility.yul\":20143:20260   */\n      iszero\n      tag_644\n      jumpi\n        /* \"#utility.yul\":20179:20258   */\n      tag_645\n      tag_347\n      jump\t// in\n    tag_645:\n        /* \"#utility.yul\":20143:20260   */\n    tag_644:\n        /* \"#utility.yul\":20284:20373   */\n      tag_646\n        /* \"#utility.yul\":20365:20372   */\n      dup5\n        /* \"#utility.yul\":20356:20362   */\n      dup3\n        /* \"#utility.yul\":20345:20354   */\n      dup6\n        /* \"#utility.yul\":20341:20363   */\n      add\n        /* \"#utility.yul\":20284:20373   */\n      tag_401\n      jump\t// in\n    tag_646:\n        /* \"#utility.yul\":20274:20373   */\n      swap2\n      pop\n        /* \"#utility.yul\":20077:20383   */\n      pop\n        /* \"#utility.yul\":19836:20390   */\n      swap3\n      swap2\n      pop\n      pop\n      jump\t// out\n        /* \"#utility.yul\":20396:20806   */\n    tag_158:\n        /* \"#utility.yul\":20436:20443   */\n      0x00\n        /* \"#utility.yul\":20459:20479   */\n      tag_648\n        /* \"#utility.yul\":20477:20478   */\n      dup3\n        /* \"#utility.yul\":20459:20479   */\n      tag_365\n      jump\t// in\n    tag_648:\n        /* \"#utility.yul\":20454:20479   */\n      swap2\n      pop\n        /* \"#utility.yul\":20493:20513   */\n      tag_649\n        /* \"#utility.yul\":20511:20512   */\n      dup4\n        /* \"#utility.yul\":20493:20513   */\n      tag_365\n      jump\t// in\n    tag_649:\n        /* \"#utility.yul\":20488:20513   */\n      swap3\n      pop\n        /* \"#utility.yul\":20548:20549   */\n      dup3\n        /* \"#utility.yul\":20545:20546   */\n      dup3\n        /* \"#utility.yul\":20541:20550   */\n      mul\n        /* \"#utility.yul\":20570:20600   */\n      tag_650\n        /* \"#utility.yul\":20588:20599   */\n      dup2\n        /* \"#utility.yul\":20570:20600   */\n      tag_365\n      jump\t// in\n    tag_650:\n        /* \"#utility.yul\":20559:20600   */\n      swap2\n      pop\n        /* \"#utility.yul\":20749:20750   */\n      dup3\n        /* \"#utility.yul\":20740:20747   */\n      dup3\n        /* \"#utility.yul\":20736:20751   */\n      div\n        /* \"#utility.yul\":20733:20734   */\n      dup5\n        /* \"#utility.yul\":20730:20752   */\n      eq\n        /* \"#utility.yul\":20710:20711   */\n      dup4\n        /* \"#utility.yul\":20703:20712   */\n      iszero\n        /* \"#utility.yul\":20683:20766   */\n      or\n        /* \"#utility.yul\":20660:20799   */\n      tag_651\n      jumpi\n        /* \"#utility.yul\":20779:20797   */\n      tag_652\n      tag_379\n      jump\t// in\n    tag_652:\n        /* \"#utility.yul\":20660:20799   */\n    tag_651:\n        /* \"#utility.yul\":20444:20806   */\n      pop\n        /* \"#utility.yul\":20396:20806   */\n      swap3\n      swap2\n      pop\n      pop\n      jump\t// out\n        /* \"#utility.yul\":20812:20992   */\n    tag_402:\n        /* \"#utility.yul\":20860:20937   */\n      0x4e487b7100000000000000000000000000000000000000000000000000000000\n        /* \"#utility.yul\":20857:20858   */\n      0x00\n        /* \"#utility.yul\":20850:20938   */\n      mstore\n        /* \"#utility.yul\":20957:20961   */\n      0x12\n        /* \"#utility.yul\":20954:20955   */\n      0x04\n        /* \"#utility.yul\":20947:20962   */\n      mstore\n        /* \"#utility.yul\":20981:20985   */\n      0x24\n        /* \"#utility.yul\":20978:20979   */\n      0x00\n        /* \"#utility.yul\":20971:20986   */\n      revert\n        /* \"#utility.yul\":20998:21183   */\n    tag_160:\n        /* \"#utility.yul\":21038:21039   */\n      0x00\n        /* \"#utility.yul\":21055:21075   */\n      tag_655\n        /* \"#utility.yul\":21073:21074   */\n      dup3\n        /* \"#utility.yul\":21055:21075   */\n      tag_365\n      jump\t// in\n    tag_655:\n        /* \"#utility.yul\":21050:21075   */\n      swap2\n      pop\n        /* \"#utility.yul\":21089:21109   */\n      tag_656\n        /* \"#utility.yul\":21107:21108   */\n      dup4\n        /* \"#utility.yul\":21089:21109   */\n      tag_365\n      jump\t// in\n    tag_656:\n        /* \"#utility.yul\":21084:21109   */\n      swap3\n      pop\n        /* \"#utility.yul\":21128:21129   */\n      dup3\n        /* \"#utility.yul\":21118:21153   */\n      tag_657\n      jumpi\n        /* \"#utility.yul\":21133:21151   */\n      tag_658\n      tag_402\n      jump\t// in\n    tag_658:\n        /* \"#utility.yul\":21118:21153   */\n    tag_657:\n        /* \"#utility.yul\":21175:21176   */\n      dup3\n        /* \"#utility.yul\":21172:21173   */\n      dup3\n        /* \"#utility.yul\":21168:21177   */\n      div\n        /* \"#utility.yul\":21163:21177   */\n      swap1\n      pop\n        /* \"#utility.yul\":20998:21183   */\n      swap3\n      swap2\n      pop\n      pop\n      jump\t// out\n        /* \"#utility.yul\":21189:21383   */\n    tag_168:\n        /* \"#utility.yul\":21229:21233   */\n      0x00\n        /* \"#utility.yul\":21249:21269   */\n      tag_660\n        /* \"#utility.yul\":21267:21268   */\n      dup3\n        /* \"#utility.yul\":21249:21269   */\n      tag_365\n      jump\t// in\n    tag_660:\n        /* \"#utility.yul\":21244:21269   */\n      swap2\n      pop\n        /* \"#utility.yul\":21283:21303   */\n      tag_661\n        /* \"#utility.yul\":21301:21302   */\n      dup4\n        /* \"#utility.yul\":21283:21303   */\n      tag_365\n      jump\t// in\n    tag_661:\n        /* \"#utility.yul\":21278:21303   */\n      swap3\n      pop\n        /* \"#utility.yul\":21327:21328   */\n      dup3\n        /* \"#utility.yul\":21324:21325   */\n      dup3\n        /* \"#utility.yul\":21320:21329   */\n      sub\n        /* \"#utility.yul\":21312:21329   */\n      swap1\n      pop\n        /* \"#utility.yul\":21351:21352   */\n      dup2\n        /* \"#utility.yul\":21345:21349   */\n      dup2\n        /* \"#utility.yul\":21342:21353   */\n      gt\n        /* \"#utility.yul\":21339:21376   */\n      iszero\n      tag_662\n      jumpi\n        /* \"#utility.yul\":21356:21374   */\n      tag_663\n      tag_379\n      jump\t// in\n    tag_663:\n        /* \"#utility.yul\":21339:21376   */\n    tag_662:\n        /* \"#utility.yul\":21189:21383   */\n      swap3\n      swap2\n      pop\n      pop\n      jump\t// out\n        /* \"#utility.yul\":21389:21558   */\n    tag_403:\n        /* \"#utility.yul\":21473:21484   */\n      0x00\n        /* \"#utility.yul\":21507:21513   */\n      dup3\n        /* \"#utility.yul\":21502:21505   */\n      dup3\n        /* \"#utility.yul\":21495:21514   */\n      mstore\n        /* \"#utility.yul\":21547:21551   */\n      0x20\n        /* \"#utility.yul\":21542:21545   */\n      dup3\n        /* \"#utility.yul\":21538:21552   */\n      add\n        /* \"#utility.yul\":21523:21552   */\n      swap1\n      pop\n        /* \"#utility.yul\":21389:21558   */\n      swap3\n      swap2\n      pop\n      pop\n      jump\t// out\n        /* \"#utility.yul\":21564:21790   */\n    tag_404:\n        /* \"#utility.yul\":21704:21738   */\n      0x457374696d617465642067617320636f73742065786365656473206d696e416d\n        /* \"#utility.yul\":21700:21701   */\n      0x00\n        /* \"#utility.yul\":21692:21698   */\n      dup3\n        /* \"#utility.yul\":21688:21702   */\n      add\n        /* \"#utility.yul\":21681:21739   */\n      mstore\n        /* \"#utility.yul\":21773:21782   */\n      0x6f756e744f757400000000000000000000000000000000000000000000000000\n        /* \"#utility.yul\":21768:21770   */\n      0x20\n        /* \"#utility.yul\":21760:21766   */\n      dup3\n        /* \"#utility.yul\":21756:21771   */\n      add\n        /* \"#utility.yul\":21749:21783   */\n      mstore\n        /* \"#utility.yul\":21564:21790   */\n      pop\n      jump\t// out\n        /* \"#utility.yul\":21796:22162   */\n    tag_405:\n        /* \"#utility.yul\":21938:21941   */\n      0x00\n        /* \"#utility.yul\":21959:22026   */\n      tag_667\n        /* \"#utility.yul\":22023:22025   */\n      0x27\n        /* \"#utility.yul\":22018:22021   */\n      dup4\n        /* \"#utility.yul\":21959:22026   */\n      tag_403\n      jump\t// in\n    tag_667:\n        /* \"#utility.yul\":21952:22026   */\n      swap2\n      pop\n        /* \"#utility.yul\":22035:22128   */\n      tag_668\n        /* \"#utility.yul\":22124:22127   */\n      dup3\n        /* \"#utility.yul\":22035:22128   */\n      tag_404\n      jump\t// in\n    tag_668:\n        /* \"#utility.yul\":22153:22155   */\n      0x40\n        /* \"#utility.yul\":22148:22151   */\n      dup3\n        /* \"#utility.yul\":22144:22156   */\n      add\n        /* \"#utility.yul\":22137:22156   */\n      swap1\n      pop\n        /* \"#utility.yul\":21796:22162   */\n      swap2\n      swap1\n      pop\n      jump\t// out\n        /* \"#utility.yul\":22168:22587   */\n    tag_176:\n        /* \"#utility.yul\":22334:22338   */\n      0x00\n        /* \"#utility.yul\":22372:22374   */\n      0x20\n        /* \"#utility.yul\":22361:22370   */\n      dup3\n        /* \"#utility.yul\":22357:22375   */\n      add\n        /* \"#utility.yul\":22349:22375   */\n      swap1\n      pop\n        /* \"#utility.yul\":22421:22430   */\n      dup2\n        /* \"#utility.yul\":22415:22419   */\n      dup2\n        /* \"#utility.yul\":22411:22431   */\n      sub\n        /* \"#utility.yul\":22407:22408   */\n      0x00\n        /* \"#utility.yul\":22396:22405   */\n      dup4\n        /* \"#utility.yul\":22392:22409   */\n      add\n        /* \"#utility.yul\":22385:22432   */\n      mstore\n        /* \"#utility.yul\":22449:22580   */\n      tag_670\n        /* \"#utility.yul\":22575:22579   */\n      dup2\n        /* \"#utility.yul\":22449:22580   */\n      tag_405\n      jump\t// in\n    tag_670:\n        /* \"#utility.yul\":22441:22580   */\n      swap1\n      pop\n        /* \"#utility.yul\":22168:22587   */\n      swap2\n      swap1\n      pop\n      jump\t// out\n        /* \"#utility.yul\":22593:22687   */\n    tag_406:\n        /* \"#utility.yul\":22626:22634   */\n      0x00\n        /* \"#utility.yul\":22674:22679   */\n      dup2\n        /* \"#utility.yul\":22670:22672   */\n      0x60\n        /* \"#utility.yul\":22666:22680   */\n      shl\n        /* \"#utility.yul\":22645:22680   */\n      swap1\n      pop\n        /* \"#utility.yul\":22593:22687   */\n      swap2\n      swap1\n      pop\n      jump\t// out\n        /* \"#utility.yul\":22693:22787   */\n    tag_407:\n        /* \"#utility.yul\":22732:22739   */\n      0x00\n        /* \"#utility.yul\":22761:22781   */\n      tag_673\n        /* \"#utility.yul\":22775:22780   */\n      dup3\n        /* \"#utility.yul\":22761:22781   */\n      tag_406\n      jump\t// in\n    tag_673:\n        /* \"#utility.yul\":22750:22781   */\n      swap1\n      pop\n        /* \"#utility.yul\":22693:22787   */\n      swap2\n      swap1\n      pop\n      jump\t// out\n        /* \"#utility.yul\":22793:22893   */\n    tag_408:\n        /* \"#utility.yul\":22832:22839   */\n      0x00\n        /* \"#utility.yul\":22861:22887   */\n      tag_675\n        /* \"#utility.yul\":22881:22886   */\n      dup3\n        /* \"#utility.yul\":22861:22887   */\n      tag_407\n      jump\t// in\n    tag_675:\n        /* \"#utility.yul\":22850:22887   */\n      swap1\n      pop\n        /* \"#utility.yul\":22793:22893   */\n      swap2\n      swap1\n      pop\n      jump\t// out\n        /* \"#utility.yul\":22899:23056   */\n    tag_409:\n        /* \"#utility.yul\":23004:23049   */\n      tag_677\n        /* \"#utility.yul\":23024:23048   */\n      tag_678\n        /* \"#utility.yul\":23042:23047   */\n      dup3\n        /* \"#utility.yul\":23024:23048   */\n      tag_361\n      jump\t// in\n    tag_678:\n        /* \"#utility.yul\":23004:23049   */\n      tag_408\n      jump\t// in\n    tag_677:\n        /* \"#utility.yul\":22999:23002   */\n      dup3\n        /* \"#utility.yul\":22992:23050   */\n      mstore\n        /* \"#utility.yul\":22899:23056   */\n      pop\n      pop\n      jump\t// out\n        /* \"#utility.yul\":23062:23141   */\n    tag_410:\n        /* \"#utility.yul\":23101:23108   */\n      0x00\n        /* \"#utility.yul\":23130:23135   */\n      dup2\n        /* \"#utility.yul\":23119:23135   */\n      swap1\n      pop\n        /* \"#utility.yul\":23062:23141   */\n      swap2\n      swap1\n      pop\n      jump\t// out\n        /* \"#utility.yul\":23147:23304   */\n    tag_411:\n        /* \"#utility.yul\":23252:23297   */\n      tag_681\n        /* \"#utility.yul\":23272:23296   */\n      tag_682\n        /* \"#utility.yul\":23290:23295   */\n      dup3\n        /* \"#utility.yul\":23272:23296   */\n      tag_365\n      jump\t// in\n    tag_682:\n        /* \"#utility.yul\":23252:23297   */\n      tag_410\n      jump\t// in\n    tag_681:\n        /* \"#utility.yul\":23247:23250   */\n      dup3\n        /* \"#utility.yul\":23240:23298   */\n      mstore\n        /* \"#utility.yul\":23147:23304   */\n      pop\n      pop\n      jump\t// out\n        /* \"#utility.yul\":23310:23989   */\n    tag_179:\n        /* \"#utility.yul\":23506:23509   */\n      0x00\n        /* \"#utility.yul\":23521:23596   */\n      tag_684\n        /* \"#utility.yul\":23592:23595   */\n      dup3\n        /* \"#utility.yul\":23583:23589   */\n      dup8\n        /* \"#utility.yul\":23521:23596   */\n      tag_409\n      jump\t// in\n    tag_684:\n        /* \"#utility.yul\":23621:23623   */\n      0x14\n        /* \"#utility.yul\":23616:23619   */\n      dup3\n        /* \"#utility.yul\":23612:23624   */\n      add\n        /* \"#utility.yul\":23605:23624   */\n      swap2\n      pop\n        /* \"#utility.yul\":23634:23709   */\n      tag_685\n        /* \"#utility.yul\":23705:23708   */\n      dup3\n        /* \"#utility.yul\":23696:23702   */\n      dup7\n        /* \"#utility.yul\":23634:23709   */\n      tag_411\n      jump\t// in\n    tag_685:\n        /* \"#utility.yul\":23734:23736   */\n      0x20\n        /* \"#utility.yul\":23729:23732   */\n      dup3\n        /* \"#utility.yul\":23725:23737   */\n      add\n        /* \"#utility.yul\":23718:23737   */\n      swap2\n      pop\n        /* \"#utility.yul\":23747:23822   */\n      tag_686\n        /* \"#utility.yul\":23818:23821   */\n      dup3\n        /* \"#utility.yul\":23809:23815   */\n      dup6\n        /* \"#utility.yul\":23747:23822   */\n      tag_411\n      jump\t// in\n    tag_686:\n        /* \"#utility.yul\":23847:23849   */\n      0x20\n        /* \"#utility.yul\":23842:23845   */\n      dup3\n        /* \"#utility.yul\":23838:23850   */\n      add\n        /* \"#utility.yul\":23831:23850   */\n      swap2\n      pop\n        /* \"#utility.yul\":23860:23935   */\n      tag_687\n        /* \"#utility.yul\":23931:23934   */\n      dup3\n        /* \"#utility.yul\":23922:23928   */\n      dup5\n        /* \"#utility.yul\":23860:23935   */\n      tag_411\n      jump\t// in\n    tag_687:\n        /* \"#utility.yul\":23960:23962   */\n      0x20\n        /* \"#utility.yul\":23955:23958   */\n      dup3\n        /* \"#utility.yul\":23951:23963   */\n      add\n        /* \"#utility.yul\":23944:23963   */\n      swap2\n      pop\n        /* \"#utility.yul\":23980:23983   */\n      dup2\n        /* \"#utility.yul\":23973:23983   */\n      swap1\n      pop\n        /* \"#utility.yul\":23310:23989   */\n      swap6\n      swap5\n      pop\n      pop\n      pop\n      pop\n      pop\n      jump\t// out\n        /* \"#utility.yul\":23995:24162   */\n    tag_412:\n        /* \"#utility.yul\":24135:24154   */\n      0x496e76616c6964207369676e6174757265000000000000000000000000000000\n        /* \"#utility.yul\":24131:24132   */\n      0x00\n        /* \"#utility.yul\":24123:24129   */\n      dup3\n        /* \"#utility.yul\":24119:24133   */\n      add\n        /* \"#utility.yul\":24112:24155   */\n      mstore\n        /* \"#utility.yul\":23995:24162   */\n      pop\n      jump\t// out\n        /* \"#utility.yul\":24168:24534   */\n    tag_413:\n        /* \"#utility.yul\":24310:24313   */\n      0x00\n        /* \"#utility.yul\":24331:24398   */\n      tag_690\n        /* \"#utility.yul\":24395:24397   */\n      0x11\n        /* \"#utility.yul\":24390:24393   */\n      dup4\n        /* \"#utility.yul\":24331:24398   */\n      tag_403\n      jump\t// in\n    tag_690:\n        /* \"#utility.yul\":24324:24398   */\n      swap2\n      pop\n        /* \"#utility.yul\":24407:24500   */\n      tag_691\n        /* \"#utility.yul\":24496:24499   */\n      dup3\n        /* \"#utility.yul\":24407:24500   */\n      tag_412\n      jump\t// in\n    tag_691:\n        /* \"#utility.yul\":24525:24527   */\n      0x20\n        /* \"#utility.yul\":24520:24523   */\n      dup3\n        /* \"#utility.yul\":24516:24528   */\n      add\n        /* \"#utility.yul\":24509:24528   */\n      swap1\n      pop\n        /* \"#utility.yul\":24168:24534   */\n      swap2\n      swap1\n      pop\n      jump\t// out\n        /* \"#utility.yul\":24540:24959   */\n    tag_182:\n        /* \"#utility.yul\":24706:24710   */\n      0x00\n        /* \"#utility.yul\":24744:24746   */\n      0x20\n        /* \"#utility.yul\":24733:24742   */\n      dup3\n        /* \"#utility.yul\":24729:24747   */\n      add\n        /* \"#utility.yul\":24721:24747   */\n      swap1\n      pop\n        /* \"#utility.yul\":24793:24802   */\n      dup2\n        /* \"#utility.yul\":24787:24791   */\n      dup2\n        /* \"#utility.yul\":24783:24803   */\n      sub\n        /* \"#utility.yul\":24779:24780   */\n      0x00\n        /* \"#utility.yul\":24768:24777   */\n      dup4\n        /* \"#utility.yul\":24764:24781   */\n      add\n        /* \"#utility.yul\":24757:24804   */\n      mstore\n        /* \"#utility.yul\":24821:24952   */\n      tag_693\n        /* \"#utility.yul\":24947:24951   */\n      dup2\n        /* \"#utility.yul\":24821:24952   */\n      tag_413\n      jump\t// in\n    tag_693:\n        /* \"#utility.yul\":24813:24952   */\n      swap1\n      pop\n        /* \"#utility.yul\":24540:24959   */\n      swap2\n      swap1\n      pop\n      jump\t// out\n        /* \"#utility.yul\":24965:25136   */\n    tag_414:\n        /* \"#utility.yul\":25105:25128   */\n      0x5377617020457870656374656420746f206661696c0000000000000000000000\n        /* \"#utility.yul\":25101:25102   */\n      0x00\n        /* \"#utility.yul\":25093:25099   */\n      dup3\n        /* \"#utility.yul\":25089:25103   */\n      add\n        /* \"#utility.yul\":25082:25129   */\n      mstore\n        /* \"#utility.yul\":24965:25136   */\n      pop\n      jump\t// out\n        /* \"#utility.yul\":25142:25508   */\n    tag_415:\n        /* \"#utility.yul\":25284:25287   */\n      0x00\n        /* \"#utility.yul\":25305:25372   */\n      tag_696\n        /* \"#utility.yul\":25369:25371   */\n      0x15\n        /* \"#utility.yul\":25364:25367   */\n      dup4\n        /* \"#utility.yul\":25305:25372   */\n      tag_403\n      jump\t// in\n    tag_696:\n        /* \"#utility.yul\":25298:25372   */\n      swap2\n      pop\n        /* \"#utility.yul\":25381:25474   */\n      tag_697\n        /* \"#utility.yul\":25470:25473   */\n      dup3\n        /* \"#utility.yul\":25381:25474   */\n      tag_414\n      jump\t// in\n    tag_697:\n        /* \"#utility.yul\":25499:25501   */\n      0x20\n        /* \"#utility.yul\":25494:25497   */\n      dup3\n        /* \"#utility.yul\":25490:25502   */\n      add\n        /* \"#utility.yul\":25483:25502   */\n      swap1\n      pop\n        /* \"#utility.yul\":25142:25508   */\n      swap2\n      swap1\n      pop\n      jump\t// out\n        /* \"#utility.yul\":25514:25933   */\n    tag_197:\n        /* \"#utility.yul\":25680:25684   */\n      0x00\n        /* \"#utility.yul\":25718:25720   */\n      0x20\n        /* \"#utility.yul\":25707:25716   */\n      dup3\n        /* \"#utility.yul\":25703:25721   */\n      add\n        /* \"#utility.yul\":25695:25721   */\n      swap1\n      pop\n        /* \"#utility.yul\":25767:25776   */\n      dup2\n        /* \"#utility.yul\":25761:25765   */\n      dup2\n        /* \"#utility.yul\":25757:25777   */\n      sub\n        /* \"#utility.yul\":25753:25754   */\n      0x00\n        /* \"#utility.yul\":25742:25751   */\n      dup4\n        /* \"#utility.yul\":25738:25755   */\n      add\n        /* \"#utility.yul\":25731:25778   */\n      mstore\n        /* \"#utility.yul\":25795:25926   */\n      tag_699\n        /* \"#utility.yul\":25921:25925   */\n      dup2\n        /* \"#utility.yul\":25795:25926   */\n      tag_415\n      jump\t// in\n    tag_699:\n        /* \"#utility.yul\":25787:25926   */\n      swap1\n      pop\n        /* \"#utility.yul\":25514:25933   */\n      swap2\n      swap1\n      pop\n      jump\t// out\n        /* \"#utility.yul\":25939:26118   */\n    tag_416:\n        /* \"#utility.yul\":26079:26110   */\n      0x457870656374656420676173206d6f7265207468616e2072657475726e000000\n        /* \"#utility.yul\":26075:26076   */\n      0x00\n        /* \"#utility.yul\":26067:26073   */\n      dup3\n        /* \"#utility.yul\":26063:26077   */\n      add\n        /* \"#utility.yul\":26056:26111   */\n      mstore\n        /* \"#utility.yul\":25939:26118   */\n      pop\n      jump\t// out\n        /* \"#utility.yul\":26124:26490   */\n    tag_417:\n        /* \"#utility.yul\":26266:26269   */\n      0x00\n        /* \"#utility.yul\":26287:26354   */\n      tag_702\n        /* \"#utility.yul\":26351:26353   */\n      0x1d\n        /* \"#utility.yul\":26346:26349   */\n      dup4\n        /* \"#utility.yul\":26287:26354   */\n      tag_403\n      jump\t// in\n    tag_702:\n        /* \"#utility.yul\":26280:26354   */\n      swap2\n      pop\n        /* \"#utility.yul\":26363:26456   */\n      tag_703\n        /* \"#utility.yul\":26452:26455   */\n      dup3\n        /* \"#utility.yul\":26363:26456   */\n      tag_416\n      jump\t// in\n    tag_703:\n        /* \"#utility.yul\":26481:26483   */\n      0x20\n        /* \"#utility.yul\":26476:26479   */\n      dup3\n        /* \"#utility.yul\":26472:26484   */\n      add\n        /* \"#utility.yul\":26465:26484   */\n      swap1\n      pop\n        /* \"#utility.yul\":26124:26490   */\n      swap2\n      swap1\n      pop\n      jump\t// out\n        /* \"#utility.yul\":26496:26915   */\n    tag_201:\n        /* \"#utility.yul\":26662:26666   */\n      0x00\n        /* \"#utility.yul\":26700:26702   */\n      0x20\n        /* \"#utility.yul\":26689:26698   */\n      dup3\n        /* \"#utility.yul\":26685:26703   */\n      add\n        /* \"#utility.yul\":26677:26703   */\n      swap1\n      pop\n        /* \"#utility.yul\":26749:26758   */\n      dup2\n        /* \"#utility.yul\":26743:26747   */\n      dup2\n        /* \"#utility.yul\":26739:26759   */\n      sub\n        /* \"#utility.yul\":26735:26736   */\n      0x00\n        /* \"#utility.yul\":26724:26733   */\n      dup4\n        /* \"#utility.yul\":26720:26737   */\n      add\n        /* \"#utility.yul\":26713:26760   */\n      mstore\n        /* \"#utility.yul\":26777:26908   */\n      tag_705\n        /* \"#utility.yul\":26903:26907   */\n      dup2\n        /* \"#utility.yul\":26777:26908   */\n      tag_417\n      jump\t// in\n    tag_705:\n        /* \"#utility.yul\":26769:26908   */\n      swap1\n      pop\n        /* \"#utility.yul\":26496:26915   */\n      swap2\n      swap1\n      pop\n      jump\t// out\n        /* \"#utility.yul\":26921:27150   */\n    tag_418:\n        /* \"#utility.yul\":27061:27095   */\n      0x457870656374656420616d6f756e74206c657373207468616e206d696e696d75\n        /* \"#utility.yul\":27057:27058   */\n      0x00\n        /* \"#utility.yul\":27049:27055   */\n      dup3\n        /* \"#utility.yul\":27045:27059   */\n      add\n        /* \"#utility.yul\":27038:27096   */\n      mstore\n        /* \"#utility.yul\":27130:27142   */\n      0x6d20726571756972656400000000000000000000000000000000000000000000\n        /* \"#utility.yul\":27125:27127   */\n      0x20\n        /* \"#utility.yul\":27117:27123   */\n      dup3\n        /* \"#utility.yul\":27113:27128   */\n      add\n        /* \"#utility.yul\":27106:27143   */\n      mstore\n        /* \"#utility.yul\":26921:27150   */\n      pop\n      jump\t// out\n        /* \"#utility.yul\":27156:27522   */\n    tag_419:\n        /* \"#utility.yul\":27298:27301   */\n      0x00\n        /* \"#utility.yul\":27319:27386   */\n      tag_708\n        /* \"#utility.yul\":27383:27385   */\n      0x2a\n        /* \"#utility.yul\":27378:27381   */\n      dup4\n        /* \"#utility.yul\":27319:27386   */\n      tag_403\n      jump\t// in\n    tag_708:\n        /* \"#utility.yul\":27312:27386   */\n      swap2\n      pop\n        /* \"#utility.yul\":27395:27488   */\n      tag_709\n        /* \"#utility.yul\":27484:27487   */\n      dup3\n        /* \"#utility.yul\":27395:27488   */\n      tag_418\n      jump\t// in\n    tag_709:\n        /* \"#utility.yul\":27513:27515   */\n      0x40\n        /* \"#utility.yul\":27508:27511   */\n      dup3\n        /* \"#utility.yul\":27504:27516   */\n      add\n        /* \"#utility.yul\":27497:27516   */\n      swap1\n      pop\n        /* \"#utility.yul\":27156:27522   */\n      swap2\n      swap1\n      pop\n      jump\t// out\n        /* \"#utility.yul\":27528:27947   */\n    tag_204:\n        /* \"#utility.yul\":27694:27698   */\n      0x00\n        /* \"#utility.yul\":27732:27734   */\n      0x20\n        /* \"#utility.yul\":27721:27730   */\n      dup3\n        /* \"#utility.yul\":27717:27735   */\n      add\n        /* \"#utility.yul\":27709:27735   */\n      swap1\n      pop\n        /* \"#utility.yul\":27781:27790   */\n      dup2\n        /* \"#utility.yul\":27775:27779   */\n      dup2\n        /* \"#utility.yul\":27771:27791   */\n      sub\n        /* \"#utility.yul\":27767:27768   */\n      0x00\n        /* \"#utility.yul\":27756:27765   */\n      dup4\n        /* \"#utility.yul\":27752:27769   */\n      add\n        /* \"#utility.yul\":27745:27792   */\n      mstore\n        /* \"#utility.yul\":27809:27940   */\n      tag_711\n        /* \"#utility.yul\":27935:27939   */\n      dup2\n        /* \"#utility.yul\":27809:27940   */\n      tag_419\n      jump\t// in\n    tag_711:\n        /* \"#utility.yul\":27801:27940   */\n      swap1\n      pop\n        /* \"#utility.yul\":27528:27947   */\n      swap2\n      swap1\n      pop\n      jump\t// out\n        /* \"#utility.yul\":27953:28144   */\n    tag_219:\n        /* \"#utility.yul\":27993:27996   */\n      0x00\n        /* \"#utility.yul\":28012:28032   */\n      tag_713\n        /* \"#utility.yul\":28030:28031   */\n      dup3\n        /* \"#utility.yul\":28012:28032   */\n      tag_365\n      jump\t// in\n    tag_713:\n        /* \"#utility.yul\":28007:28032   */\n      swap2\n      pop\n        /* \"#utility.yul\":28046:28066   */\n      tag_714\n        /* \"#utility.yul\":28064:28065   */\n      dup4\n        /* \"#utility.yul\":28046:28066   */\n      tag_365\n      jump\t// in\n    tag_714:\n        /* \"#utility.yul\":28041:28066   */\n      swap3\n      pop\n        /* \"#utility.yul\":28089:28090   */\n      dup3\n        /* \"#utility.yul\":28086:28087   */\n      dup3\n        /* \"#utility.yul\":28082:28091   */\n      add\n        /* \"#utility.yul\":28075:28091   */\n      swap1\n      pop\n        /* \"#utility.yul\":28110:28113   */\n      dup1\n        /* \"#utility.yul\":28107:28108   */\n      dup3\n        /* \"#utility.yul\":28104:28114   */\n      gt\n        /* \"#utility.yul\":28101:28137   */\n      iszero\n      tag_715\n      jumpi\n        /* \"#utility.yul\":28117:28135   */\n      tag_716\n      tag_379\n      jump\t// in\n    tag_716:\n        /* \"#utility.yul\":28101:28137   */\n    tag_715:\n        /* \"#utility.yul\":27953:28144   */\n      swap3\n      swap2\n      pop\n      pop\n      jump\t// out\n        /* \"#utility.yul\":28150:28315   */\n    tag_420:\n        /* \"#utility.yul\":28290:28307   */\n      0x496e76616c696420616464726573730000000000000000000000000000000000\n        /* \"#utility.yul\":28286:28287   */\n      0x00\n        /* \"#utility.yul\":28278:28284   */\n      dup3\n        /* \"#utility.yul\":28274:28288   */\n      add\n        /* \"#utility.yul\":28267:28308   */\n      mstore\n        /* \"#utility.yul\":28150:28315   */\n      pop\n      jump\t// out\n        /* \"#utility.yul\":28321:28687   */\n    tag_421:\n        /* \"#utility.yul\":28463:28466   */\n      0x00\n        /* \"#utility.yul\":28484:28551   */\n      tag_719\n        /* \"#utility.yul\":28548:28550   */\n      0x0f\n        /* \"#utility.yul\":28543:28546   */\n      dup4\n        /* \"#utility.yul\":28484:28551   */\n      tag_403\n      jump\t// in\n    tag_719:\n        /* \"#utility.yul\":28477:28551   */\n      swap2\n      pop\n        /* \"#utility.yul\":28560:28653   */\n      tag_720\n        /* \"#utility.yul\":28649:28652   */\n      dup3\n        /* \"#utility.yul\":28560:28653   */\n      tag_420\n      jump\t// in\n    tag_720:\n        /* \"#utility.yul\":28678:28680   */\n      0x20\n        /* \"#utility.yul\":28673:28676   */\n      dup3\n        /* \"#utility.yul\":28669:28681   */\n      add\n        /* \"#utility.yul\":28662:28681   */\n      swap1\n      pop\n        /* \"#utility.yul\":28321:28687   */\n      swap2\n      swap1\n      pop\n      jump\t// out\n        /* \"#utility.yul\":28693:29112   */\n    tag_255:\n        /* \"#utility.yul\":28859:28863   */\n      0x00\n        /* \"#utility.yul\":28897:28899   */\n      0x20\n        /* \"#utility.yul\":28886:28895   */\n      dup3\n        /* \"#utility.yul\":28882:28900   */\n      add\n        /* \"#utility.yul\":28874:28900   */\n      swap1\n      pop\n        /* \"#utility.yul\":28946:28955   */\n      dup2\n        /* \"#utility.yul\":28940:28944   */\n      dup2\n        /* \"#utility.yul\":28936:28956   */\n      sub\n        /* \"#utility.yul\":28932:28933   */\n      0x00\n        /* \"#utility.yul\":28921:28930   */\n      dup4\n        /* \"#utility.yul\":28917:28934   */\n      add\n        /* \"#utility.yul\":28910:28957   */\n      mstore\n        /* \"#utility.yul\":28974:29105   */\n      tag_722\n        /* \"#utility.yul\":29100:29104   */\n      dup2\n        /* \"#utility.yul\":28974:29105   */\n      tag_421\n      jump\t// in\n    tag_722:\n        /* \"#utility.yul\":28966:29105   */\n      swap1\n      pop\n        /* \"#utility.yul\":28693:29112   */\n      swap2\n      swap1\n      pop\n      jump\t// out\n        /* \"#utility.yul\":29118:29295   */\n    tag_422:\n        /* \"#utility.yul\":29258:29287   */\n      0x4e6f206c697175696469747920666f72207468697320746f6b656e0000000000\n        /* \"#utility.yul\":29254:29255   */\n      0x00\n        /* \"#utility.yul\":29246:29252   */\n      dup3\n        /* \"#utility.yul\":29242:29256   */\n      add\n        /* \"#utility.yul\":29235:29288   */\n      mstore\n        /* \"#utility.yul\":29118:29295   */\n      pop\n      jump\t// out\n        /* \"#utility.yul\":29301:29667   */\n    tag_423:\n        /* \"#utility.yul\":29443:29446   */\n      0x00\n        /* \"#utility.yul\":29464:29531   */\n      tag_725\n        /* \"#utility.yul\":29528:29530   */\n      0x1b\n        /* \"#utility.yul\":29523:29526   */\n      dup4\n        /* \"#utility.yul\":29464:29531   */\n      tag_403\n      jump\t// in\n    tag_725:\n        /* \"#utility.yul\":29457:29531   */\n      swap2\n      pop\n        /* \"#utility.yul\":29540:29633   */\n      tag_726\n        /* \"#utility.yul\":29629:29632   */\n      dup3\n        /* \"#utility.yul\":29540:29633   */\n      tag_422\n      jump\t// in\n    tag_726:\n        /* \"#utility.yul\":29658:29660   */\n      0x20\n        /* \"#utility.yul\":29653:29656   */\n      dup3\n        /* \"#utility.yul\":29649:29661   */\n      add\n        /* \"#utility.yul\":29642:29661   */\n      swap1\n      pop\n        /* \"#utility.yul\":29301:29667   */\n      swap2\n      swap1\n      pop\n      jump\t// out\n        /* \"#utility.yul\":29673:30092   */\n    tag_280:\n        /* \"#utility.yul\":29839:29843   */\n      0x00\n        /* \"#utility.yul\":29877:29879   */\n      0x20\n        /* \"#utility.yul\":29866:29875   */\n      dup3\n        /* \"#utility.yul\":29862:29880   */\n      add\n        /* \"#utility.yul\":29854:29880   */\n      swap1\n      pop\n        /* \"#utility.yul\":29926:29935   */\n      dup2\n        /* \"#utility.yul\":29920:29924   */\n      dup2\n        /* \"#utility.yul\":29916:29936   */\n      sub\n        /* \"#utility.yul\":29912:29913   */\n      0x00\n        /* \"#utility.yul\":29901:29910   */\n      dup4\n        /* \"#utility.yul\":29897:29914   */\n      add\n        /* \"#utility.yul\":29890:29937   */\n      mstore\n        /* \"#utility.yul\":29954:30085   */\n      tag_728\n        /* \"#utility.yul\":30080:30084   */\n      dup2\n        /* \"#utility.yul\":29954:30085   */\n      tag_423\n      jump\t// in\n    tag_728:\n        /* \"#utility.yul\":29946:30085   */\n      swap1\n      pop\n        /* \"#utility.yul\":29673:30092   */\n      swap2\n      swap1\n      pop\n      jump\t// out\n        /* \"#utility.yul\":30098:30581   */\n    tag_326:\n        /* \"#utility.yul\":30269:30273   */\n      0x00\n        /* \"#utility.yul\":30307:30309   */\n      0x40\n        /* \"#utility.yul\":30296:30305   */\n      dup3\n        /* \"#utility.yul\":30292:30310   */\n      add\n        /* \"#utility.yul\":30284:30310   */\n      swap1\n      pop\n        /* \"#utility.yul\":30320:30391   */\n      tag_730\n        /* \"#utility.yul\":30388:30389   */\n      0x00\n        /* \"#utility.yul\":30377:30386   */\n      dup4\n        /* \"#utility.yul\":30373:30390   */\n      add\n        /* \"#utility.yul\":30364:30370   */\n      dup6\n        /* \"#utility.yul\":30320:30391   */\n      tag_368\n      jump\t// in\n    tag_730:\n        /* \"#utility.yul\":30438:30447   */\n      dup2\n        /* \"#utility.yul\":30432:30436   */\n      dup2\n        /* \"#utility.yul\":30428:30448   */\n      sub\n        /* \"#utility.yul\":30423:30425   */\n      0x20\n        /* \"#utility.yul\":30412:30421   */\n      dup4\n        /* \"#utility.yul\":30408:30426   */\n      add\n        /* \"#utility.yul\":30401:30449   */\n      mstore\n        /* \"#utility.yul\":30466:30574   */\n      tag_731\n        /* \"#utility.yul\":30569:30573   */\n      dup2\n        /* \"#utility.yul\":30560:30566   */\n      dup5\n        /* \"#utility.yul\":30466:30574   */\n      tag_396\n      jump\t// in\n    tag_731:\n        /* \"#utility.yul\":30458:30574   */\n      swap1\n      pop\n        /* \"#utility.yul\":30098:30581   */\n      swap4\n      swap3\n      pop\n      pop\n      pop\n      jump\t// out\n\n    auxdata: 0xa264697066735822122047724fbec3ee29b860b709c3d0eba2e243de0ddfa088bd8fe776324782fc842f64736f6c63430008150033\n}\n",
				"bytecode": {
					"linkReferences": {},
					"object": "60806040526102ee6003556204e7946004553480156200001d575f80fd5b5060405162002cfa38038062002cfa833981810160405281019062000043919062000277565b335f73ffffffffffffffffffffffffffffffffffffffff168173ffffffffffffffffffffffffffffffffffffffff1603620000b7575f6040517f1e4fbdf7000000000000000000000000000000000000000000000000000000008152600401620000ae9190620002cd565b60405180910390fd5b620000c8816200015160201b60201c565b508160015f6101000a81548173ffffffffffffffffffffffffffffffffffffffff021916908373ffffffffffffffffffffffffffffffffffffffff1602179055508060025f6101000a81548173ffffffffffffffffffffffffffffffffffffffff021916908373ffffffffffffffffffffffffffffffffffffffff1602179055505050620002e8565b5f805f9054906101000a900473ffffffffffffffffffffffffffffffffffffffff169050815f806101000a81548173ffffffffffffffffffffffffffffffffffffffff021916908373ffffffffffffffffffffffffffffffffffffffff1602179055508173ffffffffffffffffffffffffffffffffffffffff168173ffffffffffffffffffffffffffffffffffffffff167f8be0079c531659141344cd1fd0a4f28419497f9722a3daafe3b4186f6b6457e060405160405180910390a35050565b5f80fd5b5f73ffffffffffffffffffffffffffffffffffffffff82169050919050565b5f620002418262000216565b9050919050565b620002538162000235565b81146200025e575f80fd5b50565b5f81519050620002718162000248565b92915050565b5f806040838503121562000290576200028f62000212565b5b5f6200029f8582860162000261565b9250506020620002b28582860162000261565b9150509250929050565b620002c78162000235565b82525050565b5f602082019050620002e25f830184620002bc565b92915050565b612a0480620002f65f395ff3fe608060405260043610610116575f3560e01c806393ad74401161009f578063b479820911610063578063b47982091461033b578063bea9849e14610377578063f14210a61461039f578063f2fde38b146103c7578063f6326fb3146103ef5761011d565b806393ad74401461025957806398281c7514610283578063a001ecdd146102ab578063ad9902a1146102d5578063ae06c1b7146103135761011d565b8063344954af116100e6578063344954af1461019d5780634e63c29e146101c7578063715018a6146101ef578063735de9f7146102055780638da5cb5b1461022f5761011d565b80625c33e11461011f5780630f7d8e39146101295780630fe6a78714610165578063238cb67d146101815761011d565b3661011d57005b005b6101276103f9565b005b348015610134575f80fd5b5061014f600480360381019061014a9190611c1b565b6103fb565b60405161015c9190611cb4565b60405180910390f35b61017f600480360381019061017a9190611d2a565b6104b9565b005b61019b60048036038101906101969190611d7a565b61097f565b005b3480156101a8575f80fd5b506101b161110d565b6040516101be9190611e1c565b60405180910390f35b3480156101d2575f80fd5b506101ed60048036038101906101e89190611e35565b611113565b005b3480156101fa575f80fd5b50610203611203565b005b348015610210575f80fd5b50610219611216565b6040516102269190611ebb565b60405180910390f35b34801561023a575f80fd5b5061024361123b565b6040516102509190611cb4565b60405180910390f35b348015610264575f80fd5b5061026d611262565b60405161027a9190611ef4565b60405180910390f35b34801561028e575f80fd5b506102a960048036038101906102a49190611f0d565b611287565b005b3480156102b6575f80fd5b506102bf611299565b6040516102cc9190611e1c565b60405180910390f35b3480156102e0575f80fd5b506102fb60048036038101906102f69190611f38565b61129f565b60405161030a93929190611fb6565b60405180910390f35b34801561031e575f80fd5b5061033960048036038101906103349190611f0d565b6114c1565b005b348015610346575f80fd5b50610361600480360381019061035c9190611d2a565b61150a565b60405161036e9190611feb565b60405180910390f35b348015610382575f80fd5b5061039d60048036038101906103989190611e35565b6116e2565b005b3480156103aa575f80fd5b506103c560048036038101906103c09190611f0d565b61179b565b005b3480156103d2575f80fd5b506103ed60048036038101906103e89190611e35565b6117f1565b005b6103f7611875565b005b565b5f805f80602085015192506040850151915060608501515f1a9050601b8160ff16101561043257601b8161042f919061203d565b90505b5f8660405160200161044491906120e5565b6040516020818303038152906040528051906020012090505f6001828487876040515f815260200160405260405161047f9493929190612128565b6020604051602081039080840390855afa15801561049f573d5f803e3d5ffd5b505050602060405103519050809550505050505092915050565b8273ffffffffffffffffffffffffffffffffffffffff166323b872dd3330856040518463ffffffff1660e01b81526004016104f69392919061216b565b6020604051808303815f875af1158015610512573d5f803e3d5ffd5b505050506040513d601f19601f8201168201806040525081019061053691906121ca565b508273ffffffffffffffffffffffffffffffffffffffff1663095ea7b360015f9054906101000a900473ffffffffffffffffffffffffffffffffffffffff16846040518363ffffffff1660e01b81526004016105939291906121f5565b6020604051808303815f875af11580156105af573d5f803e3d5ffd5b505050506040513d601f19601f820116820180604052508101906105d391906121ca565b505f600267ffffffffffffffff8111156105f0576105ef611af7565b5b60405190808252806020026020018201604052801561061e5781602001602082028036833780820191505090505b50905083815f815181106106355761063461221c565b5b602002602001019073ffffffffffffffffffffffffffffffffffffffff16908173ffffffffffffffffffffffffffffffffffffffff168152505060015f9054906101000a900473ffffffffffffffffffffffffffffffffffffffff1673ffffffffffffffffffffffffffffffffffffffff1663ad5c46486040518163ffffffff1660e01b8152600401602060405180830381865afa1580156106d9573d5f803e3d5ffd5b505050506040513d601f19601f820116820180604052508101906106fd919061225d565b816001815181106107115761071061221c565b5b602002602001019073ffffffffffffffffffffffffffffffffffffffff16908173ffffffffffffffffffffffffffffffffffffffff16815250505f60015f9054906101000a900473ffffffffffffffffffffffffffffffffffffffff1673ffffffffffffffffffffffffffffffffffffffff166318cbafe585858530426040518663ffffffff1660e01b81526004016107ae95949392919061233f565b5f604051808303815f875af11580156107c9573d5f803e3d5ffd5b505050506040513d5f823e3d601f19601f820116820180604052508101906107f1919061246f565b90505f816001815181106108085761080761221c565b5b602002602001015190505f6127106003548361082491906124b6565b61082e9190612524565b90505f6064605a8361084091906124b6565b61084a9190612524565b905060025f9054906101000a900473ffffffffffffffffffffffffffffffffffffffff1673ffffffffffffffffffffffffffffffffffffffff1663099da9e9826040518263ffffffff1660e01b81526004016108a69190611e1c565b5f604051808303815f87803b1580156108bd575f80fd5b505af11580156108cf573d5f803e3d5ffd5b505050505f82846108e09190612554565b90503373ffffffffffffffffffffffffffffffffffffffff166108fc8290811502906040515f60405180830381858888f19350505050158015610925573d5f803e3d5ffd5b503373ffffffffffffffffffffffffffffffffffffffff167ff12a93b520e347a9f6fac0d0eadf4603283511a046afe4ce7758c144fcb800658560405161096c9190611e1c565b60405180910390a2505050505050505050565b5f5a90505f3a60045461099291906124b6565b90508481106109d6576040517f08c379a00000000000000000000000000000000000000000000000000000000081526004016109cd90612607565b60405180910390fd5b5f610a0d888888876040516020016109f1949392919061268a565b60405160208183030381529060405280519060200120866103fb565b90505f73ffffffffffffffffffffffffffffffffffffffff168173ffffffffffffffffffffffffffffffffffffffff1603610a7d576040517f08c379a0000000000000000000000000000000000000000000000000000000008152600401610a7490612721565b60405180910390fd5b5f600267ffffffffffffffff811115610a9957610a98611af7565b5b604051908082528060200260200182016040528015610ac75781602001602082028036833780820191505090505b50905088815f81518110610ade57610add61221c565b5b602002602001019073ffffffffffffffffffffffffffffffffffffffff16908173ffffffffffffffffffffffffffffffffffffffff168152505060015f9054906101000a900473ffffffffffffffffffffffffffffffffffffffff1673ffffffffffffffffffffffffffffffffffffffff1663ad5c46486040518163ffffffff1660e01b8152600401602060405180830381865afa158015610b82573d5f803e3d5ffd5b505050506040513d601f19601f82011682018060405250810190610ba6919061225d565b81600181518110610bba57610bb961221c565b5b602002602001019073ffffffffffffffffffffffffffffffffffffffff16908173ffffffffffffffffffffffffffffffffffffffff16815250505f80610c008a84611877565b9150915081610c44576040517f08c379a0000000000000000000000000000000000000000000000000000000008152600401610c3b90612789565b60405180910390fd5b803a600454610c5391906124b6565b10610c93576040517f08c379a0000000000000000000000000000000000000000000000000000000008152600401610c8a906127f1565b60405180910390fd5b88811015610cd6576040517f08c379a0000000000000000000000000000000000000000000000000000000008152600401610ccd9061287f565b60405180910390fd5b8a73ffffffffffffffffffffffffffffffffffffffff166323b872dd85308d6040518463ffffffff1660e01b8152600401610d139392919061216b565b6020604051808303815f875af1158015610d2f573d5f803e3d5ffd5b505050506040513d601f19601f82011682018060405250810190610d5391906121ca565b508a73ffffffffffffffffffffffffffffffffffffffff1663095ea7b360015f9054906101000a900473ffffffffffffffffffffffffffffffffffffffff168c6040518363ffffffff1660e01b8152600401610db09291906121f5565b6020604051808303815f875af1158015610dcc573d5f803e3d5ffd5b505050506040513d601f19601f82011682018060405250810190610df091906121ca565b505f60015f9054906101000a900473ffffffffffffffffffffffffffffffffffffffff1673ffffffffffffffffffffffffffffffffffffffff166318cbafe58c8c8730426040518663ffffffff1660e01b8152600401610e5495949392919061233f565b5f604051808303815f875af1158015610e6f573d5f803e3d5ffd5b505050506040513d5f823e3d601f19601f82011682018060405250810190610e97919061246f565b90503a620186a05a89610eaa9190612554565b610eb4919061289d565b610ebe91906124b6565b96503373ffffffffffffffffffffffffffffffffffffffff166108fc8890811502906040515f60405180830381858888f19350505050158015610f03573d5f803e3d5ffd5b505f8782600181518110610f1a57610f1961221c565b5b6020026020010151610f2c9190612554565b90505f8b8411610f3c575f610f49565b8b84610f489190612554565b5b90505f848311610f59575f610f66565b8483610f659190612554565b5b90505f6064602883610f7891906124b6565b610f829190612524565b612710600354848688610f959190612554565b610f9f9190612554565b610fa991906124b6565b610fb39190612524565b610fbd919061289d565b905060025f9054906101000a900473ffffffffffffffffffffffffffffffffffffffff1673ffffffffffffffffffffffffffffffffffffffff1663099da9e96064605a8461100b91906124b6565b6110159190612524565b6040518263ffffffff1660e01b81526004016110319190611e1c565b5f604051808303815f87803b158015611048575f80fd5b505af115801561105a573d5f803e3d5ffd5b505050508873ffffffffffffffffffffffffffffffffffffffff166108fc82866110849190612554565b90811502906040515f60405180830381858888f193505050501580156110ac573d5f803e3d5ffd5b508873ffffffffffffffffffffffffffffffffffffffff167ff12a93b520e347a9f6fac0d0eadf4603283511a046afe4ce7758c144fcb80065856040516110f39190611e1c565b60405180910390a250505050505050505050505050505050565b60045481565b61111b61194c565b5f73ffffffffffffffffffffffffffffffffffffffff168173ffffffffffffffffffffffffffffffffffffffff1603611189576040517f08c379a00000000000000000000000000000000000000000000000000000000081526004016111809061291a565b60405180910390fd5b8060025f6101000a81548173ffffffffffffffffffffffffffffffffffffffff021916908373ffffffffffffffffffffffffffffffffffffffff1602179055507fecb9755730c832a50c16ea8001a277be77d816b09dc686fe072d4f2285e5cece816040516111f89190611cb4565b60405180910390a150565b61120b61194c565b6112145f6119d3565b565b60015f9054906101000a900473ffffffffffffffffffffffffffffffffffffffff1681565b5f805f9054906101000a900473ffffffffffffffffffffffffffffffffffffffff16905090565b60025f9054906101000a900473ffffffffffffffffffffffffffffffffffffffff1681565b61128f61194c565b8060048190555050565b60035481565b5f805f80600267ffffffffffffffff8111156112be576112bd611af7565b5b6040519080825280602002602001820160405280156112ec5781602001602082028036833780820191505090505b50905087815f815181106113035761130261221c565b5b602002602001019073ffffffffffffffffffffffffffffffffffffffff16908173ffffffffffffffffffffffffffffffffffffffff168152505060015f9054906101000a900473ffffffffffffffffffffffffffffffffffffffff1673ffffffffffffffffffffffffffffffffffffffff1663ad5c46486040518163ffffffff1660e01b8152600401602060405180830381865afa1580156113a7573d5f803e3d5ffd5b505050506040513d601f19601f820116820180604052508101906113cb919061225d565b816001815181106113df576113de61221c565b5b602002602001019073ffffffffffffffffffffffffffffffffffffffff16908173ffffffffffffffffffffffffffffffffffffffff16815250505f806114258984611877565b9150915081611469576040517f08c379a000000000000000000000000000000000000000000000000000000000815260040161146090612982565b60405180910390fd5b6127108861271061147a9190612554565b8261148591906124b6565b61148f9190612524565b95508660045461149f91906124b6565b945085856114ae8c8c8b61150a565b9550955095505050509450945094915050565b6114c961194c565b806003819055507f8c4d35e54a3f2ef1134138fd8ea3daee6a3c89e10d2665996babdf70261e2c76816040516114ff9190611e1c565b60405180910390a150565b5f80600267ffffffffffffffff81111561152757611526611af7565b5b6040519080825280602002602001820160405280156115555781602001602082028036833780820191505090505b50905084815f8151811061156c5761156b61221c565b5b602002602001019073ffffffffffffffffffffffffffffffffffffffff16908173ffffffffffffffffffffffffffffffffffffffff168152505060015f9054906101000a900473ffffffffffffffffffffffffffffffffffffffff1673ffffffffffffffffffffffffffffffffffffffff1663ad5c46486040518163ffffffff1660e01b8152600401602060405180830381865afa158015611610573d5f803e3d5ffd5b505050506040513d601f19601f82011682018060405250810190611634919061225d565b816001815181106116485761164761221c565b5b602002602001019073ffffffffffffffffffffffffffffffffffffffff16908173ffffffffffffffffffffffffffffffffffffffff16815250505f8061168e8684611877565b9150915081158061169e57505f81145b156116ae575f93505050506116db565b5f856004546116bd91906124b6565b90508181106116d2575f9450505050506116db565b60019450505050505b9392505050565b6116ea61194c565b5f73ffffffffffffffffffffffffffffffffffffffff168173ffffffffffffffffffffffffffffffffffffffff1603611758576040517f08c379a000000000000000000000000000000000000000000000000000000000815260040161174f9061291a565b60405180910390fd5b8060015f6101000a81548173ffffffffffffffffffffffffffffffffffffffff021916908373ffffffffffffffffffffffffffffffffffffffff16021790555050565b6117a361194c565b6117ab61123b565b73ffffffffffffffffffffffffffffffffffffffff166108fc8290811502906040515f60405180830381858888f193505050501580156117ed573d5f803e3d5ffd5b5050565b6117f961194c565b5f73ffffffffffffffffffffffffffffffffffffffff168173ffffffffffffffffffffffffffffffffffffffff1603611869575f6040517f1e4fbdf70000000000000000000000000000000000000000000000000000000081526004016118609190611cb4565b60405180910390fd5b611872816119d3565b50565b565b5f8060015f9054906101000a900473ffffffffffffffffffffffffffffffffffffffff1673ffffffffffffffffffffffffffffffffffffffff1663d06ca61f85856040518363ffffffff1660e01b81526004016118d59291906129a0565b5f60405180830381865afa92505050801561191257506040513d5f823e3d601f19601f8201168201806040525081019061190f919061246f565b60015b611921575f8091509150611945565b6001816001815181106119375761193661221c565b5b602002602001015192509250505b9250929050565b611954611a94565b73ffffffffffffffffffffffffffffffffffffffff1661197261123b565b73ffffffffffffffffffffffffffffffffffffffff16146119d157611995611a94565b6040517f118cdaa70000000000000000000000000000000000000000000000000000000081526004016119c89190611cb4565b60405180910390fd5b565b5f805f9054906101000a900473ffffffffffffffffffffffffffffffffffffffff169050815f806101000a81548173ffffffffffffffffffffffffffffffffffffffff021916908373ffffffffffffffffffffffffffffffffffffffff1602179055508173ffffffffffffffffffffffffffffffffffffffff168173ffffffffffffffffffffffffffffffffffffffff167f8be0079c531659141344cd1fd0a4f28419497f9722a3daafe3b4186f6b6457e060405160405180910390a35050565b5f33905090565b5f604051905090565b5f80fd5b5f80fd5b5f819050919050565b611abe81611aac565b8114611ac8575f80fd5b50565b5f81359050611ad981611ab5565b92915050565b5f80fd5b5f80fd5b5f601f19601f8301169050919050565b7f4e487b71000000000000000000000000000000000000000000000000000000005f52604160045260245ffd5b611b2d82611ae7565b810181811067ffffffffffffffff82111715611b4c57611b4b611af7565b5b80604052505050565b5f611b5e611a9b565b9050611b6a8282611b24565b919050565b5f67ffffffffffffffff821115611b8957611b88611af7565b5b611b9282611ae7565b9050602081019050919050565b828183375f83830152505050565b5f611bbf611bba84611b6f565b611b55565b905082815260208101848484011115611bdb57611bda611ae3565b5b611be6848285611b9f565b509392505050565b5f82601f830112611c0257611c01611adf565b5b8135611c12848260208601611bad565b91505092915050565b5f8060408385031215611c3157611c30611aa4565b5b5f611c3e85828601611acb565b925050602083013567ffffffffffffffff811115611c5f57611c5e611aa8565b5b611c6b85828601611bee565b9150509250929050565b5f73ffffffffffffffffffffffffffffffffffffffff82169050919050565b5f611c9e82611c75565b9050919050565b611cae81611c94565b82525050565b5f602082019050611cc75f830184611ca5565b92915050565b611cd681611c94565b8114611ce0575f80fd5b50565b5f81359050611cf181611ccd565b92915050565b5f819050919050565b611d0981611cf7565b8114611d13575f80fd5b50565b5f81359050611d2481611d00565b92915050565b5f805f60608486031215611d4157611d40611aa4565b5b5f611d4e86828701611ce3565b9350506020611d5f86828701611d16565b9250506040611d7086828701611d16565b9150509250925092565b5f805f805f60a08688031215611d9357611d92611aa4565b5b5f611da088828901611ce3565b9550506020611db188828901611d16565b9450506040611dc288828901611d16565b935050606086013567ffffffffffffffff811115611de357611de2611aa8565b5b611def88828901611bee565b9250506080611e0088828901611d16565b9150509295509295909350565b611e1681611cf7565b82525050565b5f602082019050611e2f5f830184611e0d565b92915050565b5f60208284031215611e4a57611e49611aa4565b5b5f611e5784828501611ce3565b91505092915050565b5f819050919050565b5f611e83611e7e611e7984611c75565b611e60565b611c75565b9050919050565b5f611e9482611e69565b9050919050565b5f611ea582611e8a565b9050919050565b611eb581611e9b565b82525050565b5f602082019050611ece5f830184611eac565b92915050565b5f611ede82611e8a565b9050919050565b611eee81611ed4565b82525050565b5f602082019050611f075f830184611ee5565b92915050565b5f60208284031215611f2257611f21611aa4565b5b5f611f2f84828501611d16565b91505092915050565b5f805f8060808587031215611f5057611f4f611aa4565b5b5f611f5d87828801611ce3565b9450506020611f6e87828801611d16565b9350506040611f7f87828801611d16565b9250506060611f9087828801611d16565b91505092959194509250565b5f8115159050919050565b611fb081611f9c565b82525050565b5f606082019050611fc95f830186611e0d565b611fd66020830185611e0d565b611fe36040830184611fa7565b949350505050565b5f602082019050611ffe5f830184611fa7565b92915050565b5f60ff82169050919050565b7f4e487b71000000000000000000000000000000000000000000000000000000005f52601160045260245ffd5b5f61204782612004565b915061205283612004565b9250828201905060ff81111561206b5761206a612010565b5b92915050565b5f81905092915050565b7f19457468657265756d205369676e6564204d6573736167653a0a3332000000005f82015250565b5f6120af601c83612071565b91506120ba8261207b565b601c82019050919050565b5f819050919050565b6120df6120da82611aac565b6120c5565b82525050565b5f6120ef826120a3565b91506120fb82846120ce565b60208201915081905092915050565b61211381611aac565b82525050565b61212281612004565b82525050565b5f60808201905061213b5f83018761210a565b6121486020830186612119565b612155604083018561210a565b612162606083018461210a565b95945050505050565b5f60608201905061217e5f830186611ca5565b61218b6020830185611ca5565b6121986040830184611e0d565b949350505050565b6121a981611f9c565b81146121b3575f80fd5b50565b5f815190506121c4816121a0565b92915050565b5f602082840312156121df576121de611aa4565b5b5f6121ec848285016121b6565b91505092915050565b5f6040820190506122085f830185611ca5565b6122156020830184611e0d565b9392505050565b7f4e487b71000000000000000000000000000000000000000000000000000000005f52603260045260245ffd5b5f8151905061225781611ccd565b92915050565b5f6020828403121561227257612271611aa4565b5b5f61227f84828501612249565b91505092915050565b5f81519050919050565b5f82825260208201905092915050565b5f819050602082019050919050565b6122ba81611c94565b82525050565b5f6122cb83836122b1565b60208301905092915050565b5f602082019050919050565b5f6122ed82612288565b6122f78185612292565b9350612302836122a2565b805f5b8381101561233257815161231988826122c0565b9750612324836122d7565b925050600181019050612305565b5085935050505092915050565b5f60a0820190506123525f830188611e0d565b61235f6020830187611e0d565b818103604083015261237181866122e3565b90506123806060830185611ca5565b61238d6080830184611e0d565b9695505050505050565b5f67ffffffffffffffff8211156123b1576123b0611af7565b5b602082029050602081019050919050565b5f80fd5b5f815190506123d481611d00565b92915050565b5f6123ec6123e784612397565b611b55565b9050808382526020820190506020840283018581111561240f5761240e6123c2565b5b835b81811015612438578061242488826123c6565b845260208401935050602081019050612411565b5050509392505050565b5f82601f83011261245657612455611adf565b5b81516124668482602086016123da565b91505092915050565b5f6020828403121561248457612483611aa4565b5b5f82015167ffffffffffffffff8111156124a1576124a0611aa8565b5b6124ad84828501612442565b91505092915050565b5f6124c082611cf7565b91506124cb83611cf7565b92508282026124d981611cf7565b915082820484148315176124f0576124ef612010565b5b5092915050565b7f4e487b71000000000000000000000000000000000000000000000000000000005f52601260045260245ffd5b5f61252e82611cf7565b915061253983611cf7565b925082612549576125486124f7565b5b828204905092915050565b5f61255e82611cf7565b915061256983611cf7565b925082820390508181111561258157612580612010565b5b92915050565b5f82825260208201905092915050565b7f457374696d617465642067617320636f73742065786365656473206d696e416d5f8201527f6f756e744f757400000000000000000000000000000000000000000000000000602082015250565b5f6125f1602783612587565b91506125fc82612597565b604082019050919050565b5f6020820190508181035f83015261261e816125e5565b9050919050565b5f8160601b9050919050565b5f61263b82612625565b9050919050565b5f61264c82612631565b9050919050565b61266461265f82611c94565b612642565b82525050565b5f819050919050565b61268461267f82611cf7565b61266a565b82525050565b5f6126958287612653565b6014820191506126a58286612673565b6020820191506126b58285612673565b6020820191506126c58284612673565b60208201915081905095945050505050565b7f496e76616c6964207369676e61747572650000000000000000000000000000005f82015250565b5f61270b601183612587565b9150612716826126d7565b602082019050919050565b5f6020820190508181035f830152612738816126ff565b9050919050565b7f5377617020457870656374656420746f206661696c00000000000000000000005f82015250565b5f612773601583612587565b915061277e8261273f565b602082019050919050565b5f6020820190508181035f8301526127a081612767565b9050919050565b7f457870656374656420676173206d6f7265207468616e2072657475726e0000005f82015250565b5f6127db601d83612587565b91506127e6826127a7565b602082019050919050565b5f6020820190508181035f830152612808816127cf565b9050919050565b7f457870656374656420616d6f756e74206c657373207468616e206d696e696d755f8201527f6d20726571756972656400000000000000000000000000000000000000000000602082015250565b5f612869602a83612587565b91506128748261280f565b604082019050919050565b5f6020820190508181035f8301526128968161285d565b9050919050565b5f6128a782611cf7565b91506128b283611cf7565b92508282019050808211156128ca576128c9612010565b5b92915050565b7f496e76616c6964206164647265737300000000000000000000000000000000005f82015250565b5f612904600f83612587565b915061290f826128d0565b602082019050919050565b5f6020820190508181035f830152612931816128f8565b9050919050565b7f4e6f206c697175696469747920666f72207468697320746f6b656e00000000005f82015250565b5f61296c601b83612587565b915061297782612938565b602082019050919050565b5f6020820190508181035f83015261299981612960565b9050919050565b5f6040820190506129b35f830185611e0d565b81810360208301526129c581846122e3565b9050939250505056fea264697066735822122047724fbec3ee29b860b709c3d0eba2e243de0ddfa088bd8fe776324782fc842f64736f6c63430008150033",
					"opcodes": "PUSH1 0x80 PUSH1 0x40 MSTORE PUSH2 0x2EE PUSH1 0x3 SSTORE PUSH3 0x4E794 PUSH1 0x4 SSTORE CALLVALUE DUP1 ISZERO PUSH3 0x1D JUMPI PUSH0 DUP1 REVERT JUMPDEST POP PUSH1 0x40 MLOAD PUSH3 0x2CFA CODESIZE SUB DUP1 PUSH3 0x2CFA DUP4 CODECOPY DUP2 DUP2 ADD PUSH1 0x40 MSTORE DUP2 ADD SWAP1 PUSH3 0x43 SWAP2 SWAP1 PUSH3 0x277 JUMP JUMPDEST CALLER PUSH0 PUSH20 0xFFFFFFFFFFFFFFFFFFFFFFFFFFFFFFFFFFFFFFFF AND DUP2 PUSH20 0xFFFFFFFFFFFFFFFFFFFFFFFFFFFFFFFFFFFFFFFF AND SUB PUSH3 0xB7 JUMPI PUSH0 PUSH1 0x40 MLOAD PUSH32 0x1E4FBDF700000000000000000000000000000000000000000000000000000000 DUP2 MSTORE PUSH1 0x4 ADD PUSH3 0xAE SWAP2 SWAP1 PUSH3 0x2CD JUMP JUMPDEST PUSH1 0x40 MLOAD DUP1 SWAP2 SUB SWAP1 REVERT JUMPDEST PUSH3 0xC8 DUP2 PUSH3 0x151 PUSH1 0x20 SHL PUSH1 0x20 SHR JUMP JUMPDEST POP DUP2 PUSH1 0x1 PUSH0 PUSH2 0x100 EXP DUP2 SLOAD DUP2 PUSH20 0xFFFFFFFFFFFFFFFFFFFFFFFFFFFFFFFFFFFFFFFF MUL NOT AND SWAP1 DUP4 PUSH20 0xFFFFFFFFFFFFFFFFFFFFFFFFFFFFFFFFFFFFFFFF AND MUL OR SWAP1 SSTORE POP DUP1 PUSH1 0x2 PUSH0 PUSH2 0x100 EXP DUP2 SLOAD DUP2 PUSH20 0xFFFFFFFFFFFFFFFFFFFFFFFFFFFFFFFFFFFFFFFF MUL NOT AND SWAP1 DUP4 PUSH20 0xFFFFFFFFFFFFFFFFFFFFFFFFFFFFFFFFFFFFFFFF AND MUL OR SWAP1 SSTORE POP POP POP PUSH3 0x2E8 JUMP JUMPDEST PUSH0 DUP1 PUSH0 SWAP1 SLOAD SWAP1 PUSH2 0x100 EXP SWAP1 DIV PUSH20 0xFFFFFFFFFFFFFFFFFFFFFFFFFFFFFFFFFFFFFFFF AND SWAP1 POP DUP2 PUSH0 DUP1 PUSH2 0x100 EXP DUP2 SLOAD DUP2 PUSH20 0xFFFFFFFFFFFFFFFFFFFFFFFFFFFFFFFFFFFFFFFF MUL NOT AND SWAP1 DUP4 PUSH20 0xFFFFFFFFFFFFFFFFFFFFFFFFFFFFFFFFFFFFFFFF AND MUL OR SWAP1 SSTORE POP DUP2 PUSH20 0xFFFFFFFFFFFFFFFFFFFFFFFFFFFFFFFFFFFFFFFF AND DUP2 PUSH20 0xFFFFFFFFFFFFFFFFFFFFFFFFFFFFFFFFFFFFFFFF AND PUSH32 0x8BE0079C531659141344CD1FD0A4F28419497F9722A3DAAFE3B4186F6B6457E0 PUSH1 0x40 MLOAD PUSH1 0x40 MLOAD DUP1 SWAP2 SUB SWAP1 LOG3 POP POP JUMP JUMPDEST PUSH0 DUP1 REVERT JUMPDEST PUSH0 PUSH20 0xFFFFFFFFFFFFFFFFFFFFFFFFFFFFFFFFFFFFFFFF DUP3 AND SWAP1 POP SWAP2 SWAP1 POP JUMP JUMPDEST PUSH0 PUSH3 0x241 DUP3 PUSH3 0x216 JUMP JUMPDEST SWAP1 POP SWAP2 SWAP1 POP JUMP JUMPDEST PUSH3 0x253 DUP2 PUSH3 0x235 JUMP JUMPDEST DUP2 EQ PUSH3 0x25E JUMPI PUSH0 DUP1 REVERT JUMPDEST POP JUMP JUMPDEST PUSH0 DUP2 MLOAD SWAP1 POP PUSH3 0x271 DUP2 PUSH3 0x248 JUMP JUMPDEST SWAP3 SWAP2 POP POP JUMP JUMPDEST PUSH0 DUP1 PUSH1 0x40 DUP4 DUP6 SUB SLT ISZERO PUSH3 0x290 JUMPI PUSH3 0x28F PUSH3 0x212 JUMP JUMPDEST JUMPDEST PUSH0 PUSH3 0x29F DUP6 DUP3 DUP7 ADD PUSH3 0x261 JUMP JUMPDEST SWAP3 POP POP PUSH1 0x20 PUSH3 0x2B2 DUP6 DUP3 DUP7 ADD PUSH3 0x261 JUMP JUMPDEST SWAP2 POP POP SWAP3 POP SWAP3 SWAP1 POP JUMP JUMPDEST PUSH3 0x2C7 DUP2 PUSH3 0x235 JUMP JUMPDEST DUP3 MSTORE POP POP JUMP JUMPDEST PUSH0 PUSH1 0x20 DUP3 ADD SWAP1 POP PUSH3 0x2E2 PUSH0 DUP4 ADD DUP5 PUSH3 0x2BC JUMP JUMPDEST SWAP3 SWAP2 POP POP JUMP JUMPDEST PUSH2 0x2A04 DUP1 PUSH3 0x2F6 PUSH0 CODECOPY PUSH0 RETURN INVALID PUSH1 0x80 PUSH1 0x40 MSTORE PUSH1 0x4 CALLDATASIZE LT PUSH2 0x116 JUMPI PUSH0 CALLDATALOAD PUSH1 0xE0 SHR DUP1 PUSH4 0x93AD7440 GT PUSH2 0x9F JUMPI DUP1 PUSH4 0xB4798209 GT PUSH2 0x63 JUMPI DUP1 PUSH4 0xB4798209 EQ PUSH2 0x33B JUMPI DUP1 PUSH4 0xBEA9849E EQ PUSH2 0x377 JUMPI DUP1 PUSH4 0xF14210A6 EQ PUSH2 0x39F JUMPI DUP1 PUSH4 0xF2FDE38B EQ PUSH2 0x3C7 JUMPI DUP1 PUSH4 0xF6326FB3 EQ PUSH2 0x3EF JUMPI PUSH2 0x11D JUMP JUMPDEST DUP1 PUSH4 0x93AD7440 EQ PUSH2 0x259 JUMPI DUP1 PUSH4 0x98281C75 EQ PUSH2 0x283 JUMPI DUP1 PUSH4 0xA001ECDD EQ PUSH2 0x2AB JUMPI DUP1 PUSH4 0xAD9902A1 EQ PUSH2 0x2D5 JUMPI DUP1 PUSH4 0xAE06C1B7 EQ PUSH2 0x313 JUMPI PUSH2 0x11D JUMP JUMPDEST DUP1 PUSH4 0x344954AF GT PUSH2 0xE6 JUMPI DUP1 PUSH4 0x344954AF EQ PUSH2 0x19D JUMPI DUP1 PUSH4 0x4E63C29E EQ PUSH2 0x1C7 JUMPI DUP1 PUSH4 0x715018A6 EQ PUSH2 0x1EF JUMPI DUP1 PUSH4 0x735DE9F7 EQ PUSH2 0x205 JUMPI DUP1 PUSH4 0x8DA5CB5B EQ PUSH2 0x22F JUMPI PUSH2 0x11D JUMP JUMPDEST DUP1 PUSH3 0x5C33E1 EQ PUSH2 0x11F JUMPI DUP1 PUSH4 0xF7D8E39 EQ PUSH2 0x129 JUMPI DUP1 PUSH4 0xFE6A787 EQ PUSH2 0x165 JUMPI DUP1 PUSH4 0x238CB67D EQ PUSH2 0x181 JUMPI PUSH2 0x11D JUMP JUMPDEST CALLDATASIZE PUSH2 0x11D JUMPI STOP JUMPDEST STOP JUMPDEST PUSH2 0x127 PUSH2 0x3F9 JUMP JUMPDEST STOP JUMPDEST CALLVALUE DUP1 ISZERO PUSH2 0x134 JUMPI PUSH0 DUP1 REVERT JUMPDEST POP PUSH2 0x14F PUSH1 0x4 DUP1 CALLDATASIZE SUB DUP2 ADD SWAP1 PUSH2 0x14A SWAP2 SWAP1 PUSH2 0x1C1B JUMP JUMPDEST PUSH2 0x3FB JUMP JUMPDEST PUSH1 0x40 MLOAD PUSH2 0x15C SWAP2 SWAP1 PUSH2 0x1CB4 JUMP JUMPDEST PUSH1 0x40 MLOAD DUP1 SWAP2 SUB SWAP1 RETURN JUMPDEST PUSH2 0x17F PUSH1 0x4 DUP1 CALLDATASIZE SUB DUP2 ADD SWAP1 PUSH2 0x17A SWAP2 SWAP1 PUSH2 0x1D2A JUMP JUMPDEST PUSH2 0x4B9 JUMP JUMPDEST STOP JUMPDEST PUSH2 0x19B PUSH1 0x4 DUP1 CALLDATASIZE SUB DUP2 ADD SWAP1 PUSH2 0x196 SWAP2 SWAP1 PUSH2 0x1D7A JUMP JUMPDEST PUSH2 0x97F JUMP JUMPDEST STOP JUMPDEST CALLVALUE DUP1 ISZERO PUSH2 0x1A8 JUMPI PUSH0 DUP1 REVERT JUMPDEST POP PUSH2 0x1B1 PUSH2 0x110D JUMP JUMPDEST PUSH1 0x40 MLOAD PUSH2 0x1BE SWAP2 SWAP1 PUSH2 0x1E1C JUMP JUMPDEST PUSH1 0x40 MLOAD DUP1 SWAP2 SUB SWAP1 RETURN JUMPDEST CALLVALUE DUP1 ISZERO PUSH2 0x1D2 JUMPI PUSH0 DUP1 REVERT JUMPDEST POP PUSH2 0x1ED PUSH1 0x4 DUP1 CALLDATASIZE SUB DUP2 ADD SWAP1 PUSH2 0x1E8 SWAP2 SWAP1 PUSH2 0x1E35 JUMP JUMPDEST PUSH2 0x1113 JUMP JUMPDEST STOP JUMPDEST CALLVALUE DUP1 ISZERO PUSH2 0x1FA JUMPI PUSH0 DUP1 REVERT JUMPDEST POP PUSH2 0x203 PUSH2 0x1203 JUMP JUMPDEST STOP JUMPDEST CALLVALUE DUP1 ISZERO PUSH2 0x210 JUMPI PUSH0 DUP1 REVERT JUMPDEST POP PUSH2 0x219 PUSH2 0x1216 JUMP JUMPDEST PUSH1 0x40 MLOAD PUSH2 0x226 SWAP2 SWAP1 PUSH2 0x1EBB JUMP JUMPDEST PUSH1 0x40 MLOAD DUP1 SWAP2 SUB SWAP1 RETURN JUMPDEST CALLVALUE DUP1 ISZERO PUSH2 0x23A JUMPI PUSH0 DUP1 REVERT JUMPDEST POP PUSH2 0x243 PUSH2 0x123B JUMP JUMPDEST PUSH1 0x40 MLOAD PUSH2 0x250 SWAP2 SWAP1 PUSH2 0x1CB4 JUMP JUMPDEST PUSH1 0x40 MLOAD DUP1 SWAP2 SUB SWAP1 RETURN JUMPDEST CALLVALUE DUP1 ISZERO PUSH2 0x264 JUMPI PUSH0 DUP1 REVERT JUMPDEST POP PUSH2 0x26D PUSH2 0x1262 JUMP JUMPDEST PUSH1 0x40 MLOAD PUSH2 0x27A SWAP2 SWAP1 PUSH2 0x1EF4 JUMP JUMPDEST PUSH1 0x40 MLOAD DUP1 SWAP2 SUB SWAP1 RETURN JUMPDEST CALLVALUE DUP1 ISZERO PUSH2 0x28E JUMPI PUSH0 DUP1 REVERT JUMPDEST POP PUSH2 0x2A9 PUSH1 0x4 DUP1 CALLDATASIZE SUB DUP2 ADD SWAP1 PUSH2 0x2A4 SWAP2 SWAP1 PUSH2 0x1F0D JUMP JUMPDEST PUSH2 0x1287 JUMP JUMPDEST STOP JUMPDEST CALLVALUE DUP1 ISZERO PUSH2 0x2B6 JUMPI PUSH0 DUP1 REVERT JUMPDEST POP PUSH2 0x2BF PUSH2 0x1299 JUMP JUMPDEST PUSH1 0x40 MLOAD PUSH2 0x2CC SWAP2 SWAP1 PUSH2 0x1E1C JUMP JUMPDEST PUSH1 0x40 MLOAD DUP1 SWAP2 SUB SWAP1 RETURN JUMPDEST CALLVALUE DUP1 ISZERO PUSH2 0x2E0 JUMPI PUSH0 DUP1 REVERT JUMPDEST POP PUSH2 0x2FB PUSH1 0x4 DUP1 CALLDATASIZE SUB DUP2 ADD SWAP1 PUSH2 0x2F6 SWAP2 SWAP1 PUSH2 0x1F38 JUMP JUMPDEST PUSH2 0x129F JUMP JUMPDEST PUSH1 0x40 MLOAD PUSH2 0x30A SWAP4 SWAP3 SWAP2 SWAP1 PUSH2 0x1FB6 JUMP JUMPDEST PUSH1 0x40 MLOAD DUP1 SWAP2 SUB SWAP1 RETURN JUMPDEST CALLVALUE DUP1 ISZERO PUSH2 0x31E JUMPI PUSH0 DUP1 REVERT JUMPDEST POP PUSH2 0x339 PUSH1 0x4 DUP1 CALLDATASIZE SUB DUP2 ADD SWAP1 PUSH2 0x334 SWAP2 SWAP1 PUSH2 0x1F0D JUMP JUMPDEST PUSH2 0x14C1 JUMP JUMPDEST STOP JUMPDEST CALLVALUE DUP1 ISZERO PUSH2 0x346 JUMPI PUSH0 DUP1 REVERT JUMPDEST POP PUSH2 0x361 PUSH1 0x4 DUP1 CALLDATASIZE SUB DUP2 ADD SWAP1 PUSH2 0x35C SWAP2 SWAP1 PUSH2 0x1D2A JUMP JUMPDEST PUSH2 0x150A JUMP JUMPDEST PUSH1 0x40 MLOAD PUSH2 0x36E SWAP2 SWAP1 PUSH2 0x1FEB JUMP JUMPDEST PUSH1 0x40 MLOAD DUP1 SWAP2 SUB SWAP1 RETURN JUMPDEST CALLVALUE DUP1 ISZERO PUSH2 0x382 JUMPI PUSH0 DUP1 REVERT JUMPDEST POP PUSH2 0x39D PUSH1 0x4 DUP1 CALLDATASIZE SUB DUP2 ADD SWAP1 PUSH2 0x398 SWAP2 SWAP1 PUSH2 0x1E35 JUMP JUMPDEST PUSH2 0x16E2 JUMP JUMPDEST STOP JUMPDEST CALLVALUE DUP1 ISZERO PUSH2 0x3AA JUMPI PUSH0 DUP1 REVERT JUMPDEST POP PUSH2 0x3C5 PUSH1 0x4 DUP1 CALLDATASIZE SUB DUP2 ADD SWAP1 PUSH2 0x3C0 SWAP2 SWAP1 PUSH2 0x1F0D JUMP JUMPDEST PUSH2 0x179B JUMP JUMPDEST STOP JUMPDEST CALLVALUE DUP1 ISZERO PUSH2 0x3D2 JUMPI PUSH0 DUP1 REVERT JUMPDEST POP PUSH2 0x3ED PUSH1 0x4 DUP1 CALLDATASIZE SUB DUP2 ADD SWAP1 PUSH2 0x3E8 SWAP2 SWAP1 PUSH2 0x1E35 JUMP JUMPDEST PUSH2 0x17F1 JUMP JUMPDEST STOP JUMPDEST PUSH2 0x3F7 PUSH2 0x1875 JUMP JUMPDEST STOP JUMPDEST JUMP JUMPDEST PUSH0 DUP1 PUSH0 DUP1 PUSH1 0x20 DUP6 ADD MLOAD SWAP3 POP PUSH1 0x40 DUP6 ADD MLOAD SWAP2 POP PUSH1 0x60 DUP6 ADD MLOAD PUSH0 BYTE SWAP1 POP PUSH1 0x1B DUP2 PUSH1 0xFF AND LT ISZERO PUSH2 0x432 JUMPI PUSH1 0x1B DUP2 PUSH2 0x42F SWAP2 SWAP1 PUSH2 0x203D JUMP JUMPDEST SWAP1 POP JUMPDEST PUSH0 DUP7 PUSH1 0x40 MLOAD PUSH1 0x20 ADD PUSH2 0x444 SWAP2 SWAP1 PUSH2 0x20E5 JUMP JUMPDEST PUSH1 0x40 MLOAD PUSH1 0x20 DUP2 DUP4 SUB SUB DUP2 MSTORE SWAP1 PUSH1 0x40 MSTORE DUP1 MLOAD SWAP1 PUSH1 0x20 ADD KECCAK256 SWAP1 POP PUSH0 PUSH1 0x1 DUP3 DUP5 DUP8 DUP8 PUSH1 0x40 MLOAD PUSH0 DUP2 MSTORE PUSH1 0x20 ADD PUSH1 0x40 MSTORE PUSH1 0x40 MLOAD PUSH2 0x47F SWAP5 SWAP4 SWAP3 SWAP2 SWAP1 PUSH2 0x2128 JUMP JUMPDEST PUSH1 0x20 PUSH1 0x40 MLOAD PUSH1 0x20 DUP2 SUB SWAP1 DUP1 DUP5 SUB SWAP1 DUP6 GAS STATICCALL ISZERO DUP1 ISZERO PUSH2 0x49F JUMPI RETURNDATASIZE PUSH0 DUP1 RETURNDATACOPY RETURNDATASIZE PUSH0 REVERT JUMPDEST POP POP POP PUSH1 0x20 PUSH1 0x40 MLOAD SUB MLOAD SWAP1 POP DUP1 SWAP6 POP POP POP POP POP POP SWAP3 SWAP2 POP POP JUMP JUMPDEST DUP3 PUSH20 0xFFFFFFFFFFFFFFFFFFFFFFFFFFFFFFFFFFFFFFFF AND PUSH4 0x23B872DD CALLER ADDRESS DUP6 PUSH1 0x40 MLOAD DUP5 PUSH4 0xFFFFFFFF AND PUSH1 0xE0 SHL DUP2 MSTORE PUSH1 0x4 ADD PUSH2 0x4F6 SWAP4 SWAP3 SWAP2 SWAP1 PUSH2 0x216B JUMP JUMPDEST PUSH1 0x20 PUSH1 0x40 MLOAD DUP1 DUP4 SUB DUP2 PUSH0 DUP8 GAS CALL ISZERO DUP1 ISZERO PUSH2 0x512 JUMPI RETURNDATASIZE PUSH0 DUP1 RETURNDATACOPY RETURNDATASIZE PUSH0 REVERT JUMPDEST POP POP POP POP PUSH1 0x40 MLOAD RETURNDATASIZE PUSH1 0x1F NOT PUSH1 0x1F DUP3 ADD AND DUP3 ADD DUP1 PUSH1 0x40 MSTORE POP DUP2 ADD SWAP1 PUSH2 0x536 SWAP2 SWAP1 PUSH2 0x21CA JUMP JUMPDEST POP DUP3 PUSH20 0xFFFFFFFFFFFFFFFFFFFFFFFFFFFFFFFFFFFFFFFF AND PUSH4 0x95EA7B3 PUSH1 0x1 PUSH0 SWAP1 SLOAD SWAP1 PUSH2 0x100 EXP SWAP1 DIV PUSH20 0xFFFFFFFFFFFFFFFFFFFFFFFFFFFFFFFFFFFFFFFF AND DUP5 PUSH1 0x40 MLOAD DUP4 PUSH4 0xFFFFFFFF AND PUSH1 0xE0 SHL DUP2 MSTORE PUSH1 0x4 ADD PUSH2 0x593 SWAP3 SWAP2 SWAP1 PUSH2 0x21F5 JUMP JUMPDEST PUSH1 0x20 PUSH1 0x40 MLOAD DUP1 DUP4 SUB DUP2 PUSH0 DUP8 GAS CALL ISZERO DUP1 ISZERO PUSH2 0x5AF JUMPI RETURNDATASIZE PUSH0 DUP1 RETURNDATACOPY RETURNDATASIZE PUSH0 REVERT JUMPDEST POP POP POP POP PUSH1 0x40 MLOAD RETURNDATASIZE PUSH1 0x1F NOT PUSH1 0x1F DUP3 ADD AND DUP3 ADD DUP1 PUSH1 0x40 MSTORE POP DUP2 ADD SWAP1 PUSH2 0x5D3 SWAP2 SWAP1 PUSH2 0x21CA JUMP JUMPDEST POP PUSH0 PUSH1 0x2 PUSH8 0xFFFFFFFFFFFFFFFF DUP2 GT ISZERO PUSH2 0x5F0 JUMPI PUSH2 0x5EF PUSH2 0x1AF7 JUMP JUMPDEST JUMPDEST PUSH1 0x40 MLOAD SWAP1 DUP1 DUP3 MSTORE DUP1 PUSH1 0x20 MUL PUSH1 0x20 ADD DUP3 ADD PUSH1 0x40 MSTORE DUP1 ISZERO PUSH2 0x61E JUMPI DUP2 PUSH1 0x20 ADD PUSH1 0x20 DUP3 MUL DUP1 CALLDATASIZE DUP4 CALLDATACOPY DUP1 DUP3 ADD SWAP2 POP POP SWAP1 POP JUMPDEST POP SWAP1 POP DUP4 DUP2 PUSH0 DUP2 MLOAD DUP2 LT PUSH2 0x635 JUMPI PUSH2 0x634 PUSH2 0x221C JUMP JUMPDEST JUMPDEST PUSH1 0x20 MUL PUSH1 0x20 ADD ADD SWAP1 PUSH20 0xFFFFFFFFFFFFFFFFFFFFFFFFFFFFFFFFFFFFFFFF AND SWAP1 DUP2 PUSH20 0xFFFFFFFFFFFFFFFFFFFFFFFFFFFFFFFFFFFFFFFF AND DUP2 MSTORE POP POP PUSH1 0x1 PUSH0 SWAP1 SLOAD SWAP1 PUSH2 0x100 EXP SWAP1 DIV PUSH20 0xFFFFFFFFFFFFFFFFFFFFFFFFFFFFFFFFFFFFFFFF AND PUSH20 0xFFFFFFFFFFFFFFFFFFFFFFFFFFFFFFFFFFFFFFFF AND PUSH4 0xAD5C4648 PUSH1 0x40 MLOAD DUP2 PUSH4 0xFFFFFFFF AND PUSH1 0xE0 SHL DUP2 MSTORE PUSH1 0x4 ADD PUSH1 0x20 PUSH1 0x40 MLOAD DUP1 DUP4 SUB DUP2 DUP7 GAS STATICCALL ISZERO DUP1 ISZERO PUSH2 0x6D9 JUMPI RETURNDATASIZE PUSH0 DUP1 RETURNDATACOPY RETURNDATASIZE PUSH0 REVERT JUMPDEST POP POP POP POP PUSH1 0x40 MLOAD RETURNDATASIZE PUSH1 0x1F NOT PUSH1 0x1F DUP3 ADD AND DUP3 ADD DUP1 PUSH1 0x40 MSTORE POP DUP2 ADD SWAP1 PUSH2 0x6FD SWAP2 SWAP1 PUSH2 0x225D JUMP JUMPDEST DUP2 PUSH1 0x1 DUP2 MLOAD DUP2 LT PUSH2 0x711 JUMPI PUSH2 0x710 PUSH2 0x221C JUMP JUMPDEST JUMPDEST PUSH1 0x20 MUL PUSH1 0x20 ADD ADD SWAP1 PUSH20 0xFFFFFFFFFFFFFFFFFFFFFFFFFFFFFFFFFFFFFFFF AND SWAP1 DUP2 PUSH20 0xFFFFFFFFFFFFFFFFFFFFFFFFFFFFFFFFFFFFFFFF AND DUP2 MSTORE POP POP PUSH0 PUSH1 0x1 PUSH0 SWAP1 SLOAD SWAP1 PUSH2 0x100 EXP SWAP1 DIV PUSH20 0xFFFFFFFFFFFFFFFFFFFFFFFFFFFFFFFFFFFFFFFF AND PUSH20 0xFFFFFFFFFFFFFFFFFFFFFFFFFFFFFFFFFFFFFFFF AND PUSH4 0x18CBAFE5 DUP6 DUP6 DUP6 ADDRESS TIMESTAMP PUSH1 0x40 MLOAD DUP7 PUSH4 0xFFFFFFFF AND PUSH1 0xE0 SHL DUP2 MSTORE PUSH1 0x4 ADD PUSH2 0x7AE SWAP6 SWAP5 SWAP4 SWAP3 SWAP2 SWAP1 PUSH2 0x233F JUMP JUMPDEST PUSH0 PUSH1 0x40 MLOAD DUP1 DUP4 SUB DUP2 PUSH0 DUP8 GAS CALL ISZERO DUP1 ISZERO PUSH2 0x7C9 JUMPI RETURNDATASIZE PUSH0 DUP1 RETURNDATACOPY RETURNDATASIZE PUSH0 REVERT JUMPDEST POP POP POP POP PUSH1 0x40 MLOAD RETURNDATASIZE PUSH0 DUP3 RETURNDATACOPY RETURNDATASIZE PUSH1 0x1F NOT PUSH1 0x1F DUP3 ADD AND DUP3 ADD DUP1 PUSH1 0x40 MSTORE POP DUP2 ADD SWAP1 PUSH2 0x7F1 SWAP2 SWAP1 PUSH2 0x246F JUMP JUMPDEST SWAP1 POP PUSH0 DUP2 PUSH1 0x1 DUP2 MLOAD DUP2 LT PUSH2 0x808 JUMPI PUSH2 0x807 PUSH2 0x221C JUMP JUMPDEST JUMPDEST PUSH1 0x20 MUL PUSH1 0x20 ADD ADD MLOAD SWAP1 POP PUSH0 PUSH2 0x2710 PUSH1 0x3 SLOAD DUP4 PUSH2 0x824 SWAP2 SWAP1 PUSH2 0x24B6 JUMP JUMPDEST PUSH2 0x82E SWAP2 SWAP1 PUSH2 0x2524 JUMP JUMPDEST SWAP1 POP PUSH0 PUSH1 0x64 PUSH1 0x5A DUP4 PUSH2 0x840 SWAP2 SWAP1 PUSH2 0x24B6 JUMP JUMPDEST PUSH2 0x84A SWAP2 SWAP1 PUSH2 0x2524 JUMP JUMPDEST SWAP1 POP PUSH1 0x2 PUSH0 SWAP1 SLOAD SWAP1 PUSH2 0x100 EXP SWAP1 DIV PUSH20 0xFFFFFFFFFFFFFFFFFFFFFFFFFFFFFFFFFFFFFFFF AND PUSH20 0xFFFFFFFFFFFFFFFFFFFFFFFFFFFFFFFFFFFFFFFF AND PUSH4 0x99DA9E9 DUP3 PUSH1 0x40 MLOAD DUP3 PUSH4 0xFFFFFFFF AND PUSH1 0xE0 SHL DUP2 MSTORE PUSH1 0x4 ADD PUSH2 0x8A6 SWAP2 SWAP1 PUSH2 0x1E1C JUMP JUMPDEST PUSH0 PUSH1 0x40 MLOAD DUP1 DUP4 SUB DUP2 PUSH0 DUP8 DUP1 EXTCODESIZE ISZERO DUP1 ISZERO PUSH2 0x8BD JUMPI PUSH0 DUP1 REVERT JUMPDEST POP GAS CALL ISZERO DUP1 ISZERO PUSH2 0x8CF JUMPI RETURNDATASIZE PUSH0 DUP1 RETURNDATACOPY RETURNDATASIZE PUSH0 REVERT JUMPDEST POP POP POP POP PUSH0 DUP3 DUP5 PUSH2 0x8E0 SWAP2 SWAP1 PUSH2 0x2554 JUMP JUMPDEST SWAP1 POP CALLER PUSH20 0xFFFFFFFFFFFFFFFFFFFFFFFFFFFFFFFFFFFFFFFF AND PUSH2 0x8FC DUP3 SWAP1 DUP2 ISZERO MUL SWAP1 PUSH1 0x40 MLOAD PUSH0 PUSH1 0x40 MLOAD DUP1 DUP4 SUB DUP2 DUP6 DUP9 DUP9 CALL SWAP4 POP POP POP POP ISZERO DUP1 ISZERO PUSH2 0x925 JUMPI RETURNDATASIZE PUSH0 DUP1 RETURNDATACOPY RETURNDATASIZE PUSH0 REVERT JUMPDEST POP CALLER PUSH20 0xFFFFFFFFFFFFFFFFFFFFFFFFFFFFFFFFFFFFFFFF AND PUSH32 0xF12A93B520E347A9F6FAC0D0EADF4603283511A046AFE4CE7758C144FCB80065 DUP6 PUSH1 0x40 MLOAD PUSH2 0x96C SWAP2 SWAP1 PUSH2 0x1E1C JUMP JUMPDEST PUSH1 0x40 MLOAD DUP1 SWAP2 SUB SWAP1 LOG2 POP POP POP POP POP POP POP POP POP JUMP JUMPDEST PUSH0 GAS SWAP1 POP PUSH0 GASPRICE PUSH1 0x4 SLOAD PUSH2 0x992 SWAP2 SWAP1 PUSH2 0x24B6 JUMP JUMPDEST SWAP1 POP DUP5 DUP2 LT PUSH2 0x9D6 JUMPI PUSH1 0x40 MLOAD PUSH32 0x8C379A000000000000000000000000000000000000000000000000000000000 DUP2 MSTORE PUSH1 0x4 ADD PUSH2 0x9CD SWAP1 PUSH2 0x2607 JUMP JUMPDEST PUSH1 0x40 MLOAD DUP1 SWAP2 SUB SWAP1 REVERT JUMPDEST PUSH0 PUSH2 0xA0D DUP9 DUP9 DUP9 DUP8 PUSH1 0x40 MLOAD PUSH1 0x20 ADD PUSH2 0x9F1 SWAP5 SWAP4 SWAP3 SWAP2 SWAP1 PUSH2 0x268A JUMP JUMPDEST PUSH1 0x40 MLOAD PUSH1 0x20 DUP2 DUP4 SUB SUB DUP2 MSTORE SWAP1 PUSH1 0x40 MSTORE DUP1 MLOAD SWAP1 PUSH1 0x20 ADD KECCAK256 DUP7 PUSH2 0x3FB JUMP JUMPDEST SWAP1 POP PUSH0 PUSH20 0xFFFFFFFFFFFFFFFFFFFFFFFFFFFFFFFFFFFFFFFF AND DUP2 PUSH20 0xFFFFFFFFFFFFFFFFFFFFFFFFFFFFFFFFFFFFFFFF AND SUB PUSH2 0xA7D JUMPI PUSH1 0x40 MLOAD PUSH32 0x8C379A000000000000000000000000000000000000000000000000000000000 DUP2 MSTORE PUSH1 0x4 ADD PUSH2 0xA74 SWAP1 PUSH2 0x2721 JUMP JUMPDEST PUSH1 0x40 MLOAD DUP1 SWAP2 SUB SWAP1 REVERT JUMPDEST PUSH0 PUSH1 0x2 PUSH8 0xFFFFFFFFFFFFFFFF DUP2 GT ISZERO PUSH2 0xA99 JUMPI PUSH2 0xA98 PUSH2 0x1AF7 JUMP JUMPDEST JUMPDEST PUSH1 0x40 MLOAD SWAP1 DUP1 DUP3 MSTORE DUP1 PUSH1 0x20 MUL PUSH1 0x20 ADD DUP3 ADD PUSH1 0x40 MSTORE DUP1 ISZERO PUSH2 0xAC7 JUMPI DUP2 PUSH1 0x20 ADD PUSH1 0x20 DUP3 MUL DUP1 CALLDATASIZE DUP4 CALLDATACOPY DUP1 DUP3 ADD SWAP2 POP POP SWAP1 POP JUMPDEST POP SWAP1 POP DUP9 DUP2 PUSH0 DUP2 MLOAD DUP2 LT PUSH2 0xADE JUMPI PUSH2 0xADD PUSH2 0x221C JUMP JUMPDEST JUMPDEST PUSH1 0x20 MUL PUSH1 0x20 ADD ADD SWAP1 PUSH20 0xFFFFFFFFFFFFFFFFFFFFFFFFFFFFFFFFFFFFFFFF AND SWAP1 DUP2 PUSH20 0xFFFFFFFFFFFFFFFFFFFFFFFFFFFFFFFFFFFFFFFF AND DUP2 MSTORE POP POP PUSH1 0x1 PUSH0 SWAP1 SLOAD SWAP1 PUSH2 0x100 EXP SWAP1 DIV PUSH20 0xFFFFFFFFFFFFFFFFFFFFFFFFFFFFFFFFFFFFFFFF AND PUSH20 0xFFFFFFFFFFFFFFFFFFFFFFFFFFFFFFFFFFFFFFFF AND PUSH4 0xAD5C4648 PUSH1 0x40 MLOAD DUP2 PUSH4 0xFFFFFFFF AND PUSH1 0xE0 SHL DUP2 MSTORE PUSH1 0x4 ADD PUSH1 0x20 PUSH1 0x40 MLOAD DUP1 DUP4 SUB DUP2 DUP7 GAS STATICCALL ISZERO DUP1 ISZERO PUSH2 0xB82 JUMPI RETURNDATASIZE PUSH0 DUP1 RETURNDATACOPY RETURNDATASIZE PUSH0 REVERT JUMPDEST POP POP POP POP PUSH1 0x40 MLOAD RETURNDATASIZE PUSH1 0x1F NOT PUSH1 0x1F DUP3 ADD AND DUP3 ADD DUP1 PUSH1 0x40 MSTORE POP DUP2 ADD SWAP1 PUSH2 0xBA6 SWAP2 SWAP1 PUSH2 0x225D JUMP JUMPDEST DUP2 PUSH1 0x1 DUP2 MLOAD DUP2 LT PUSH2 0xBBA JUMPI PUSH2 0xBB9 PUSH2 0x221C JUMP JUMPDEST JUMPDEST PUSH1 0x20 MUL PUSH1 0x20 ADD ADD SWAP1 PUSH20 0xFFFFFFFFFFFFFFFFFFFFFFFFFFFFFFFFFFFFFFFF AND SWAP1 DUP2 PUSH20 0xFFFFFFFFFFFFFFFFFFFFFFFFFFFFFFFFFFFFFFFF AND DUP2 MSTORE POP POP PUSH0 DUP1 PUSH2 0xC00 DUP11 DUP5 PUSH2 0x1877 JUMP JUMPDEST SWAP2 POP SWAP2 POP DUP2 PUSH2 0xC44 JUMPI PUSH1 0x40 MLOAD PUSH32 0x8C379A000000000000000000000000000000000000000000000000000000000 DUP2 MSTORE PUSH1 0x4 ADD PUSH2 0xC3B SWAP1 PUSH2 0x2789 JUMP JUMPDEST PUSH1 0x40 MLOAD DUP1 SWAP2 SUB SWAP1 REVERT JUMPDEST DUP1 GASPRICE PUSH1 0x4 SLOAD PUSH2 0xC53 SWAP2 SWAP1 PUSH2 0x24B6 JUMP JUMPDEST LT PUSH2 0xC93 JUMPI PUSH1 0x40 MLOAD PUSH32 0x8C379A000000000000000000000000000000000000000000000000000000000 DUP2 MSTORE PUSH1 0x4 ADD PUSH2 0xC8A SWAP1 PUSH2 0x27F1 JUMP JUMPDEST PUSH1 0x40 MLOAD DUP1 SWAP2 SUB SWAP1 REVERT JUMPDEST DUP9 DUP2 LT ISZERO PUSH2 0xCD6 JUMPI PUSH1 0x40 MLOAD PUSH32 0x8C379A000000000000000000000000000000000000000000000000000000000 DUP2 MSTORE PUSH1 0x4 ADD PUSH2 0xCCD SWAP1 PUSH2 0x287F JUMP JUMPDEST PUSH1 0x40 MLOAD DUP1 SWAP2 SUB SWAP1 REVERT JUMPDEST DUP11 PUSH20 0xFFFFFFFFFFFFFFFFFFFFFFFFFFFFFFFFFFFFFFFF AND PUSH4 0x23B872DD DUP6 ADDRESS DUP14 PUSH1 0x40 MLOAD DUP5 PUSH4 0xFFFFFFFF AND PUSH1 0xE0 SHL DUP2 MSTORE PUSH1 0x4 ADD PUSH2 0xD13 SWAP4 SWAP3 SWAP2 SWAP1 PUSH2 0x216B JUMP JUMPDEST PUSH1 0x20 PUSH1 0x40 MLOAD DUP1 DUP4 SUB DUP2 PUSH0 DUP8 GAS CALL ISZERO DUP1 ISZERO PUSH2 0xD2F JUMPI RETURNDATASIZE PUSH0 DUP1 RETURNDATACOPY RETURNDATASIZE PUSH0 REVERT JUMPDEST POP POP POP POP PUSH1 0x40 MLOAD RETURNDATASIZE PUSH1 0x1F NOT PUSH1 0x1F DUP3 ADD AND DUP3 ADD DUP1 PUSH1 0x40 MSTORE POP DUP2 ADD SWAP1 PUSH2 0xD53 SWAP2 SWAP1 PUSH2 0x21CA JUMP JUMPDEST POP DUP11 PUSH20 0xFFFFFFFFFFFFFFFFFFFFFFFFFFFFFFFFFFFFFFFF AND PUSH4 0x95EA7B3 PUSH1 0x1 PUSH0 SWAP1 SLOAD SWAP1 PUSH2 0x100 EXP SWAP1 DIV PUSH20 0xFFFFFFFFFFFFFFFFFFFFFFFFFFFFFFFFFFFFFFFF AND DUP13 PUSH1 0x40 MLOAD DUP4 PUSH4 0xFFFFFFFF AND PUSH1 0xE0 SHL DUP2 MSTORE PUSH1 0x4 ADD PUSH2 0xDB0 SWAP3 SWAP2 SWAP1 PUSH2 0x21F5 JUMP JUMPDEST PUSH1 0x20 PUSH1 0x40 MLOAD DUP1 DUP4 SUB DUP2 PUSH0 DUP8 GAS CALL ISZERO DUP1 ISZERO PUSH2 0xDCC JUMPI RETURNDATASIZE PUSH0 DUP1 RETURNDATACOPY RETURNDATASIZE PUSH0 REVERT JUMPDEST POP POP POP POP PUSH1 0x40 MLOAD RETURNDATASIZE PUSH1 0x1F NOT PUSH1 0x1F DUP3 ADD AND DUP3 ADD DUP1 PUSH1 0x40 MSTORE POP DUP2 ADD SWAP1 PUSH2 0xDF0 SWAP2 SWAP1 PUSH2 0x21CA JUMP JUMPDEST POP PUSH0 PUSH1 0x1 PUSH0 SWAP1 SLOAD SWAP1 PUSH2 0x100 EXP SWAP1 DIV PUSH20 0xFFFFFFFFFFFFFFFFFFFFFFFFFFFFFFFFFFFFFFFF AND PUSH20 0xFFFFFFFFFFFFFFFFFFFFFFFFFFFFFFFFFFFFFFFF AND PUSH4 0x18CBAFE5 DUP13 DUP13 DUP8 ADDRESS TIMESTAMP PUSH1 0x40 MLOAD DUP7 PUSH4 0xFFFFFFFF AND PUSH1 0xE0 SHL DUP2 MSTORE PUSH1 0x4 ADD PUSH2 0xE54 SWAP6 SWAP5 SWAP4 SWAP3 SWAP2 SWAP1 PUSH2 0x233F JUMP JUMPDEST PUSH0 PUSH1 0x40 MLOAD DUP1 DUP4 SUB DUP2 PUSH0 DUP8 GAS CALL ISZERO DUP1 ISZERO PUSH2 0xE6F JUMPI RETURNDATASIZE PUSH0 DUP1 RETURNDATACOPY RETURNDATASIZE PUSH0 REVERT JUMPDEST POP POP POP POP PUSH1 0x40 MLOAD RETURNDATASIZE PUSH0 DUP3 RETURNDATACOPY RETURNDATASIZE PUSH1 0x1F NOT PUSH1 0x1F DUP3 ADD AND DUP3 ADD DUP1 PUSH1 0x40 MSTORE POP DUP2 ADD SWAP1 PUSH2 0xE97 SWAP2 SWAP1 PUSH2 0x246F JUMP JUMPDEST SWAP1 POP GASPRICE PUSH3 0x186A0 GAS DUP10 PUSH2 0xEAA SWAP2 SWAP1 PUSH2 0x2554 JUMP JUMPDEST PUSH2 0xEB4 SWAP2 SWAP1 PUSH2 0x289D JUMP JUMPDEST PUSH2 0xEBE SWAP2 SWAP1 PUSH2 0x24B6 JUMP JUMPDEST SWAP7 POP CALLER PUSH20 0xFFFFFFFFFFFFFFFFFFFFFFFFFFFFFFFFFFFFFFFF AND PUSH2 0x8FC DUP9 SWAP1 DUP2 ISZERO MUL SWAP1 PUSH1 0x40 MLOAD PUSH0 PUSH1 0x40 MLOAD DUP1 DUP4 SUB DUP2 DUP6 DUP9 DUP9 CALL SWAP4 POP POP POP POP ISZERO DUP1 ISZERO PUSH2 0xF03 JUMPI RETURNDATASIZE PUSH0 DUP1 RETURNDATACOPY RETURNDATASIZE PUSH0 REVERT JUMPDEST POP PUSH0 DUP8 DUP3 PUSH1 0x1 DUP2 MLOAD DUP2 LT PUSH2 0xF1A JUMPI PUSH2 0xF19 PUSH2 0x221C JUMP JUMPDEST JUMPDEST PUSH1 0x20 MUL PUSH1 0x20 ADD ADD MLOAD PUSH2 0xF2C SWAP2 SWAP1 PUSH2 0x2554 JUMP JUMPDEST SWAP1 POP PUSH0 DUP12 DUP5 GT PUSH2 0xF3C JUMPI PUSH0 PUSH2 0xF49 JUMP JUMPDEST DUP12 DUP5 PUSH2 0xF48 SWAP2 SWAP1 PUSH2 0x2554 JUMP JUMPDEST JUMPDEST SWAP1 POP PUSH0 DUP5 DUP4 GT PUSH2 0xF59 JUMPI PUSH0 PUSH2 0xF66 JUMP JUMPDEST DUP5 DUP4 PUSH2 0xF65 SWAP2 SWAP1 PUSH2 0x2554 JUMP JUMPDEST JUMPDEST SWAP1 POP PUSH0 PUSH1 0x64 PUSH1 0x28 DUP4 PUSH2 0xF78 SWAP2 SWAP1 PUSH2 0x24B6 JUMP JUMPDEST PUSH2 0xF82 SWAP2 SWAP1 PUSH2 0x2524 JUMP JUMPDEST PUSH2 0x2710 PUSH1 0x3 SLOAD DUP5 DUP7 DUP9 PUSH2 0xF95 SWAP2 SWAP1 PUSH2 0x2554 JUMP JUMPDEST PUSH2 0xF9F SWAP2 SWAP1 PUSH2 0x2554 JUMP JUMPDEST PUSH2 0xFA9 SWAP2 SWAP1 PUSH2 0x24B6 JUMP JUMPDEST PUSH2 0xFB3 SWAP2 SWAP1 PUSH2 0x2524 JUMP JUMPDEST PUSH2 0xFBD SWAP2 SWAP1 PUSH2 0x289D JUMP JUMPDEST SWAP1 POP PUSH1 0x2 PUSH0 SWAP1 SLOAD SWAP1 PUSH2 0x100 EXP SWAP1 DIV PUSH20 0xFFFFFFFFFFFFFFFFFFFFFFFFFFFFFFFFFFFFFFFF AND PUSH20 0xFFFFFFFFFFFFFFFFFFFFFFFFFFFFFFFFFFFFFFFF AND PUSH4 0x99DA9E9 PUSH1 0x64 PUSH1 0x5A DUP5 PUSH2 0x100B SWAP2 SWAP1 PUSH2 0x24B6 JUMP JUMPDEST PUSH2 0x1015 SWAP2 SWAP1 PUSH2 0x2524 JUMP JUMPDEST PUSH1 0x40 MLOAD DUP3 PUSH4 0xFFFFFFFF AND PUSH1 0xE0 SHL DUP2 MSTORE PUSH1 0x4 ADD PUSH2 0x1031 SWAP2 SWAP1 PUSH2 0x1E1C JUMP JUMPDEST PUSH0 PUSH1 0x40 MLOAD DUP1 DUP4 SUB DUP2 PUSH0 DUP8 DUP1 EXTCODESIZE ISZERO DUP1 ISZERO PUSH2 0x1048 JUMPI PUSH0 DUP1 REVERT JUMPDEST POP GAS CALL ISZERO DUP1 ISZERO PUSH2 0x105A JUMPI RETURNDATASIZE PUSH0 DUP1 RETURNDATACOPY RETURNDATASIZE PUSH0 REVERT JUMPDEST POP POP POP POP DUP9 PUSH20 0xFFFFFFFFFFFFFFFFFFFFFFFFFFFFFFFFFFFFFFFF AND PUSH2 0x8FC DUP3 DUP7 PUSH2 0x1084 SWAP2 SWAP1 PUSH2 0x2554 JUMP JUMPDEST SWAP1 DUP2 ISZERO MUL SWAP1 PUSH1 0x40 MLOAD PUSH0 PUSH1 0x40 MLOAD DUP1 DUP4 SUB DUP2 DUP6 DUP9 DUP9 CALL SWAP4 POP POP POP POP ISZERO DUP1 ISZERO PUSH2 0x10AC JUMPI RETURNDATASIZE PUSH0 DUP1 RETURNDATACOPY RETURNDATASIZE PUSH0 REVERT JUMPDEST POP DUP9 PUSH20 0xFFFFFFFFFFFFFFFFFFFFFFFFFFFFFFFFFFFFFFFF AND PUSH32 0xF12A93B520E347A9F6FAC0D0EADF4603283511A046AFE4CE7758C144FCB80065 DUP6 PUSH1 0x40 MLOAD PUSH2 0x10F3 SWAP2 SWAP1 PUSH2 0x1E1C JUMP JUMPDEST PUSH1 0x40 MLOAD DUP1 SWAP2 SUB SWAP1 LOG2 POP POP POP POP POP POP POP POP POP POP POP POP POP POP POP POP JUMP JUMPDEST PUSH1 0x4 SLOAD DUP2 JUMP JUMPDEST PUSH2 0x111B PUSH2 0x194C JUMP JUMPDEST PUSH0 PUSH20 0xFFFFFFFFFFFFFFFFFFFFFFFFFFFFFFFFFFFFFFFF AND DUP2 PUSH20 0xFFFFFFFFFFFFFFFFFFFFFFFFFFFFFFFFFFFFFFFF AND SUB PUSH2 0x1189 JUMPI PUSH1 0x40 MLOAD PUSH32 0x8C379A000000000000000000000000000000000000000000000000000000000 DUP2 MSTORE PUSH1 0x4 ADD PUSH2 0x1180 SWAP1 PUSH2 0x291A JUMP JUMPDEST PUSH1 0x40 MLOAD DUP1 SWAP2 SUB SWAP1 REVERT JUMPDEST DUP1 PUSH1 0x2 PUSH0 PUSH2 0x100 EXP DUP2 SLOAD DUP2 PUSH20 0xFFFFFFFFFFFFFFFFFFFFFFFFFFFFFFFFFFFFFFFF MUL NOT AND SWAP1 DUP4 PUSH20 0xFFFFFFFFFFFFFFFFFFFFFFFFFFFFFFFFFFFFFFFF AND MUL OR SWAP1 SSTORE POP PUSH32 0xECB9755730C832A50C16EA8001A277BE77D816B09DC686FE072D4F2285E5CECE DUP2 PUSH1 0x40 MLOAD PUSH2 0x11F8 SWAP2 SWAP1 PUSH2 0x1CB4 JUMP JUMPDEST PUSH1 0x40 MLOAD DUP1 SWAP2 SUB SWAP1 LOG1 POP JUMP JUMPDEST PUSH2 0x120B PUSH2 0x194C JUMP JUMPDEST PUSH2 0x1214 PUSH0 PUSH2 0x19D3 JUMP JUMPDEST JUMP JUMPDEST PUSH1 0x1 PUSH0 SWAP1 SLOAD SWAP1 PUSH2 0x100 EXP SWAP1 DIV PUSH20 0xFFFFFFFFFFFFFFFFFFFFFFFFFFFFFFFFFFFFFFFF AND DUP2 JUMP JUMPDEST PUSH0 DUP1 PUSH0 SWAP1 SLOAD SWAP1 PUSH2 0x100 EXP SWAP1 DIV PUSH20 0xFFFFFFFFFFFFFFFFFFFFFFFFFFFFFFFFFFFFFFFF AND SWAP1 POP SWAP1 JUMP JUMPDEST PUSH1 0x2 PUSH0 SWAP1 SLOAD SWAP1 PUSH2 0x100 EXP SWAP1 DIV PUSH20 0xFFFFFFFFFFFFFFFFFFFFFFFFFFFFFFFFFFFFFFFF AND DUP2 JUMP JUMPDEST PUSH2 0x128F PUSH2 0x194C JUMP JUMPDEST DUP1 PUSH1 0x4 DUP2 SWAP1 SSTORE POP POP JUMP JUMPDEST PUSH1 0x3 SLOAD DUP2 JUMP JUMPDEST PUSH0 DUP1 PUSH0 DUP1 PUSH1 0x2 PUSH8 0xFFFFFFFFFFFFFFFF DUP2 GT ISZERO PUSH2 0x12BE JUMPI PUSH2 0x12BD PUSH2 0x1AF7 JUMP JUMPDEST JUMPDEST PUSH1 0x40 MLOAD SWAP1 DUP1 DUP3 MSTORE DUP1 PUSH1 0x20 MUL PUSH1 0x20 ADD DUP3 ADD PUSH1 0x40 MSTORE DUP1 ISZERO PUSH2 0x12EC JUMPI DUP2 PUSH1 0x20 ADD PUSH1 0x20 DUP3 MUL DUP1 CALLDATASIZE DUP4 CALLDATACOPY DUP1 DUP3 ADD SWAP2 POP POP SWAP1 POP JUMPDEST POP SWAP1 POP DUP8 DUP2 PUSH0 DUP2 MLOAD DUP2 LT PUSH2 0x1303 JUMPI PUSH2 0x1302 PUSH2 0x221C JUMP JUMPDEST JUMPDEST PUSH1 0x20 MUL PUSH1 0x20 ADD ADD SWAP1 PUSH20 0xFFFFFFFFFFFFFFFFFFFFFFFFFFFFFFFFFFFFFFFF AND SWAP1 DUP2 PUSH20 0xFFFFFFFFFFFFFFFFFFFFFFFFFFFFFFFFFFFFFFFF AND DUP2 MSTORE POP POP PUSH1 0x1 PUSH0 SWAP1 SLOAD SWAP1 PUSH2 0x100 EXP SWAP1 DIV PUSH20 0xFFFFFFFFFFFFFFFFFFFFFFFFFFFFFFFFFFFFFFFF AND PUSH20 0xFFFFFFFFFFFFFFFFFFFFFFFFFFFFFFFFFFFFFFFF AND PUSH4 0xAD5C4648 PUSH1 0x40 MLOAD DUP2 PUSH4 0xFFFFFFFF AND PUSH1 0xE0 SHL DUP2 MSTORE PUSH1 0x4 ADD PUSH1 0x20 PUSH1 0x40 MLOAD DUP1 DUP4 SUB DUP2 DUP7 GAS STATICCALL ISZERO DUP1 ISZERO PUSH2 0x13A7 JUMPI RETURNDATASIZE PUSH0 DUP1 RETURNDATACOPY RETURNDATASIZE PUSH0 REVERT JUMPDEST POP POP POP POP PUSH1 0x40 MLOAD RETURNDATASIZE PUSH1 0x1F NOT PUSH1 0x1F DUP3 ADD AND DUP3 ADD DUP1 PUSH1 0x40 MSTORE POP DUP2 ADD SWAP1 PUSH2 0x13CB SWAP2 SWAP1 PUSH2 0x225D JUMP JUMPDEST DUP2 PUSH1 0x1 DUP2 MLOAD DUP2 LT PUSH2 0x13DF JUMPI PUSH2 0x13DE PUSH2 0x221C JUMP JUMPDEST JUMPDEST PUSH1 0x20 MUL PUSH1 0x20 ADD ADD SWAP1 PUSH20 0xFFFFFFFFFFFFFFFFFFFFFFFFFFFFFFFFFFFFFFFF AND SWAP1 DUP2 PUSH20 0xFFFFFFFFFFFFFFFFFFFFFFFFFFFFFFFFFFFFFFFF AND DUP2 MSTORE POP POP PUSH0 DUP1 PUSH2 0x1425 DUP10 DUP5 PUSH2 0x1877 JUMP JUMPDEST SWAP2 POP SWAP2 POP DUP2 PUSH2 0x1469 JUMPI PUSH1 0x40 MLOAD PUSH32 0x8C379A000000000000000000000000000000000000000000000000000000000 DUP2 MSTORE PUSH1 0x4 ADD PUSH2 0x1460 SWAP1 PUSH2 0x2982 JUMP JUMPDEST PUSH1 0x40 MLOAD DUP1 SWAP2 SUB SWAP1 REVERT JUMPDEST PUSH2 0x2710 DUP9 PUSH2 0x2710 PUSH2 0x147A SWAP2 SWAP1 PUSH2 0x2554 JUMP JUMPDEST DUP3 PUSH2 0x1485 SWAP2 SWAP1 PUSH2 0x24B6 JUMP JUMPDEST PUSH2 0x148F SWAP2 SWAP1 PUSH2 0x2524 JUMP JUMPDEST SWAP6 POP DUP7 PUSH1 0x4 SLOAD PUSH2 0x149F SWAP2 SWAP1 PUSH2 0x24B6 JUMP JUMPDEST SWAP5 POP DUP6 DUP6 PUSH2 0x14AE DUP13 DUP13 DUP12 PUSH2 0x150A JUMP JUMPDEST SWAP6 POP SWAP6 POP SWAP6 POP POP POP POP SWAP5 POP SWAP5 POP SWAP5 SWAP2 POP POP JUMP JUMPDEST PUSH2 0x14C9 PUSH2 0x194C JUMP JUMPDEST DUP1 PUSH1 0x3 DUP2 SWAP1 SSTORE POP PUSH32 0x8C4D35E54A3F2EF1134138FD8EA3DAEE6A3C89E10D2665996BABDF70261E2C76 DUP2 PUSH1 0x40 MLOAD PUSH2 0x14FF SWAP2 SWAP1 PUSH2 0x1E1C JUMP JUMPDEST PUSH1 0x40 MLOAD DUP1 SWAP2 SUB SWAP1 LOG1 POP JUMP JUMPDEST PUSH0 DUP1 PUSH1 0x2 PUSH8 0xFFFFFFFFFFFFFFFF DUP2 GT ISZERO PUSH2 0x1527 JUMPI PUSH2 0x1526 PUSH2 0x1AF7 JUMP JUMPDEST JUMPDEST PUSH1 0x40 MLOAD SWAP1 DUP1 DUP3 MSTORE DUP1 PUSH1 0x20 MUL PUSH1 0x20 ADD DUP3 ADD PUSH1 0x40 MSTORE DUP1 ISZERO PUSH2 0x1555 JUMPI DUP2 PUSH1 0x20 ADD PUSH1 0x20 DUP3 MUL DUP1 CALLDATASIZE DUP4 CALLDATACOPY DUP1 DUP3 ADD SWAP2 POP POP SWAP1 POP JUMPDEST POP SWAP1 POP DUP5 DUP2 PUSH0 DUP2 MLOAD DUP2 LT PUSH2 0x156C JUMPI PUSH2 0x156B PUSH2 0x221C JUMP JUMPDEST JUMPDEST PUSH1 0x20 MUL PUSH1 0x20 ADD ADD SWAP1 PUSH20 0xFFFFFFFFFFFFFFFFFFFFFFFFFFFFFFFFFFFFFFFF AND SWAP1 DUP2 PUSH20 0xFFFFFFFFFFFFFFFFFFFFFFFFFFFFFFFFFFFFFFFF AND DUP2 MSTORE POP POP PUSH1 0x1 PUSH0 SWAP1 SLOAD SWAP1 PUSH2 0x100 EXP SWAP1 DIV PUSH20 0xFFFFFFFFFFFFFFFFFFFFFFFFFFFFFFFFFFFFFFFF AND PUSH20 0xFFFFFFFFFFFFFFFFFFFFFFFFFFFFFFFFFFFFFFFF AND PUSH4 0xAD5C4648 PUSH1 0x40 MLOAD DUP2 PUSH4 0xFFFFFFFF AND PUSH1 0xE0 SHL DUP2 MSTORE PUSH1 0x4 ADD PUSH1 0x20 PUSH1 0x40 MLOAD DUP1 DUP4 SUB DUP2 DUP7 GAS STATICCALL ISZERO DUP1 ISZERO PUSH2 0x1610 JUMPI RETURNDATASIZE PUSH0 DUP1 RETURNDATACOPY RETURNDATASIZE PUSH0 REVERT JUMPDEST POP POP POP POP PUSH1 0x40 MLOAD RETURNDATASIZE PUSH1 0x1F NOT PUSH1 0x1F DUP3 ADD AND DUP3 ADD DUP1 PUSH1 0x40 MSTORE POP DUP2 ADD SWAP1 PUSH2 0x1634 SWAP2 SWAP1 PUSH2 0x225D JUMP JUMPDEST DUP2 PUSH1 0x1 DUP2 MLOAD DUP2 LT PUSH2 0x1648 JUMPI PUSH2 0x1647 PUSH2 0x221C JUMP JUMPDEST JUMPDEST PUSH1 0x20 MUL PUSH1 0x20 ADD ADD SWAP1 PUSH20 0xFFFFFFFFFFFFFFFFFFFFFFFFFFFFFFFFFFFFFFFF AND SWAP1 DUP2 PUSH20 0xFFFFFFFFFFFFFFFFFFFFFFFFFFFFFFFFFFFFFFFF AND DUP2 MSTORE POP POP PUSH0 DUP1 PUSH2 0x168E DUP7 DUP5 PUSH2 0x1877 JUMP JUMPDEST SWAP2 POP SWAP2 POP DUP2 ISZERO DUP1 PUSH2 0x169E JUMPI POP PUSH0 DUP2 EQ JUMPDEST ISZERO PUSH2 0x16AE JUMPI PUSH0 SWAP4 POP POP POP POP PUSH2 0x16DB JUMP JUMPDEST PUSH0 DUP6 PUSH1 0x4 SLOAD PUSH2 0x16BD SWAP2 SWAP1 PUSH2 0x24B6 JUMP JUMPDEST SWAP1 POP DUP2 DUP2 LT PUSH2 0x16D2 JUMPI PUSH0 SWAP5 POP POP POP POP POP PUSH2 0x16DB JUMP JUMPDEST PUSH1 0x1 SWAP5 POP POP POP POP POP JUMPDEST SWAP4 SWAP3 POP POP POP JUMP JUMPDEST PUSH2 0x16EA PUSH2 0x194C JUMP JUMPDEST PUSH0 PUSH20 0xFFFFFFFFFFFFFFFFFFFFFFFFFFFFFFFFFFFFFFFF AND DUP2 PUSH20 0xFFFFFFFFFFFFFFFFFFFFFFFFFFFFFFFFFFFFFFFF AND SUB PUSH2 0x1758 JUMPI PUSH1 0x40 MLOAD PUSH32 0x8C379A000000000000000000000000000000000000000000000000000000000 DUP2 MSTORE PUSH1 0x4 ADD PUSH2 0x174F SWAP1 PUSH2 0x291A JUMP JUMPDEST PUSH1 0x40 MLOAD DUP1 SWAP2 SUB SWAP1 REVERT JUMPDEST DUP1 PUSH1 0x1 PUSH0 PUSH2 0x100 EXP DUP2 SLOAD DUP2 PUSH20 0xFFFFFFFFFFFFFFFFFFFFFFFFFFFFFFFFFFFFFFFF MUL NOT AND SWAP1 DUP4 PUSH20 0xFFFFFFFFFFFFFFFFFFFFFFFFFFFFFFFFFFFFFFFF AND MUL OR SWAP1 SSTORE POP POP JUMP JUMPDEST PUSH2 0x17A3 PUSH2 0x194C JUMP JUMPDEST PUSH2 0x17AB PUSH2 0x123B JUMP JUMPDEST PUSH20 0xFFFFFFFFFFFFFFFFFFFFFFFFFFFFFFFFFFFFFFFF AND PUSH2 0x8FC DUP3 SWAP1 DUP2 ISZERO MUL SWAP1 PUSH1 0x40 MLOAD PUSH0 PUSH1 0x40 MLOAD DUP1 DUP4 SUB DUP2 DUP6 DUP9 DUP9 CALL SWAP4 POP POP POP POP ISZERO DUP1 ISZERO PUSH2 0x17ED JUMPI RETURNDATASIZE PUSH0 DUP1 RETURNDATACOPY RETURNDATASIZE PUSH0 REVERT JUMPDEST POP POP JUMP JUMPDEST PUSH2 0x17F9 PUSH2 0x194C JUMP JUMPDEST PUSH0 PUSH20 0xFFFFFFFFFFFFFFFFFFFFFFFFFFFFFFFFFFFFFFFF AND DUP2 PUSH20 0xFFFFFFFFFFFFFFFFFFFFFFFFFFFFFFFFFFFFFFFF AND SUB PUSH2 0x1869 JUMPI PUSH0 PUSH1 0x40 MLOAD PUSH32 0x1E4FBDF700000000000000000000000000000000000000000000000000000000 DUP2 MSTORE PUSH1 0x4 ADD PUSH2 0x1860 SWAP2 SWAP1 PUSH2 0x1CB4 JUMP JUMPDEST PUSH1 0x40 MLOAD DUP1 SWAP2 SUB SWAP1 REVERT JUMPDEST PUSH2 0x1872 DUP2 PUSH2 0x19D3 JUMP JUMPDEST POP JUMP JUMPDEST JUMP JUMPDEST PUSH0 DUP1 PUSH1 0x1 PUSH0 SWAP1 SLOAD SWAP1 PUSH2 0x100 EXP SWAP1 DIV PUSH20 0xFFFFFFFFFFFFFFFFFFFFFFFFFFFFFFFFFFFFFFFF AND PUSH20 0xFFFFFFFFFFFFFFFFFFFFFFFFFFFFFFFFFFFFFFFF AND PUSH4 0xD06CA61F DUP6 DUP6 PUSH1 0x40 MLOAD DUP4 PUSH4 0xFFFFFFFF AND PUSH1 0xE0 SHL DUP2 MSTORE PUSH1 0x4 ADD PUSH2 0x18D5 SWAP3 SWAP2 SWAP1 PUSH2 0x29A0 JUMP JUMPDEST PUSH0 PUSH1 0x40 MLOAD DUP1 DUP4 SUB DUP2 DUP7 GAS STATICCALL SWAP3 POP POP POP DUP1 ISZERO PUSH2 0x1912 JUMPI POP PUSH1 0x40 MLOAD RETURNDATASIZE PUSH0 DUP3 RETURNDATACOPY RETURNDATASIZE PUSH1 0x1F NOT PUSH1 0x1F DUP3 ADD AND DUP3 ADD DUP1 PUSH1 0x40 MSTORE POP DUP2 ADD SWAP1 PUSH2 0x190F SWAP2 SWAP1 PUSH2 0x246F JUMP JUMPDEST PUSH1 0x1 JUMPDEST PUSH2 0x1921 JUMPI PUSH0 DUP1 SWAP2 POP SWAP2 POP PUSH2 0x1945 JUMP JUMPDEST PUSH1 0x1 DUP2 PUSH1 0x1 DUP2 MLOAD DUP2 LT PUSH2 0x1937 JUMPI PUSH2 0x1936 PUSH2 0x221C JUMP JUMPDEST JUMPDEST PUSH1 0x20 MUL PUSH1 0x20 ADD ADD MLOAD SWAP3 POP SWAP3 POP POP JUMPDEST SWAP3 POP SWAP3 SWAP1 POP JUMP JUMPDEST PUSH2 0x1954 PUSH2 0x1A94 JUMP JUMPDEST PUSH20 0xFFFFFFFFFFFFFFFFFFFFFFFFFFFFFFFFFFFFFFFF AND PUSH2 0x1972 PUSH2 0x123B JUMP JUMPDEST PUSH20 0xFFFFFFFFFFFFFFFFFFFFFFFFFFFFFFFFFFFFFFFF AND EQ PUSH2 0x19D1 JUMPI PUSH2 0x1995 PUSH2 0x1A94 JUMP JUMPDEST PUSH1 0x40 MLOAD PUSH32 0x118CDAA700000000000000000000000000000000000000000000000000000000 DUP2 MSTORE PUSH1 0x4 ADD PUSH2 0x19C8 SWAP2 SWAP1 PUSH2 0x1CB4 JUMP JUMPDEST PUSH1 0x40 MLOAD DUP1 SWAP2 SUB SWAP1 REVERT JUMPDEST JUMP JUMPDEST PUSH0 DUP1 PUSH0 SWAP1 SLOAD SWAP1 PUSH2 0x100 EXP SWAP1 DIV PUSH20 0xFFFFFFFFFFFFFFFFFFFFFFFFFFFFFFFFFFFFFFFF AND SWAP1 POP DUP2 PUSH0 DUP1 PUSH2 0x100 EXP DUP2 SLOAD DUP2 PUSH20 0xFFFFFFFFFFFFFFFFFFFFFFFFFFFFFFFFFFFFFFFF MUL NOT AND SWAP1 DUP4 PUSH20 0xFFFFFFFFFFFFFFFFFFFFFFFFFFFFFFFFFFFFFFFF AND MUL OR SWAP1 SSTORE POP DUP2 PUSH20 0xFFFFFFFFFFFFFFFFFFFFFFFFFFFFFFFFFFFFFFFF AND DUP2 PUSH20 0xFFFFFFFFFFFFFFFFFFFFFFFFFFFFFFFFFFFFFFFF AND PUSH32 0x8BE0079C531659141344CD1FD0A4F28419497F9722A3DAAFE3B4186F6B6457E0 PUSH1 0x40 MLOAD PUSH1 0x40 MLOAD DUP1 SWAP2 SUB SWAP1 LOG3 POP POP JUMP JUMPDEST PUSH0 CALLER SWAP1 POP SWAP1 JUMP JUMPDEST PUSH0 PUSH1 0x40 MLOAD SWAP1 POP SWAP1 JUMP JUMPDEST PUSH0 DUP1 REVERT JUMPDEST PUSH0 DUP1 REVERT JUMPDEST PUSH0 DUP2 SWAP1 POP SWAP2 SWAP1 POP JUMP JUMPDEST PUSH2 0x1ABE DUP2 PUSH2 0x1AAC JUMP JUMPDEST DUP2 EQ PUSH2 0x1AC8 JUMPI PUSH0 DUP1 REVERT JUMPDEST POP JUMP JUMPDEST PUSH0 DUP2 CALLDATALOAD SWAP1 POP PUSH2 0x1AD9 DUP2 PUSH2 0x1AB5 JUMP JUMPDEST SWAP3 SWAP2 POP POP JUMP JUMPDEST PUSH0 DUP1 REVERT JUMPDEST PUSH0 DUP1 REVERT JUMPDEST PUSH0 PUSH1 0x1F NOT PUSH1 0x1F DUP4 ADD AND SWAP1 POP SWAP2 SWAP1 POP JUMP JUMPDEST PUSH32 0x4E487B7100000000000000000000000000000000000000000000000000000000 PUSH0 MSTORE PUSH1 0x41 PUSH1 0x4 MSTORE PUSH1 0x24 PUSH0 REVERT JUMPDEST PUSH2 0x1B2D DUP3 PUSH2 0x1AE7 JUMP JUMPDEST DUP2 ADD DUP2 DUP2 LT PUSH8 0xFFFFFFFFFFFFFFFF DUP3 GT OR ISZERO PUSH2 0x1B4C JUMPI PUSH2 0x1B4B PUSH2 0x1AF7 JUMP JUMPDEST JUMPDEST DUP1 PUSH1 0x40 MSTORE POP POP POP JUMP JUMPDEST PUSH0 PUSH2 0x1B5E PUSH2 0x1A9B JUMP JUMPDEST SWAP1 POP PUSH2 0x1B6A DUP3 DUP3 PUSH2 0x1B24 JUMP JUMPDEST SWAP2 SWAP1 POP JUMP JUMPDEST PUSH0 PUSH8 0xFFFFFFFFFFFFFFFF DUP3 GT ISZERO PUSH2 0x1B89 JUMPI PUSH2 0x1B88 PUSH2 0x1AF7 JUMP JUMPDEST JUMPDEST PUSH2 0x1B92 DUP3 PUSH2 0x1AE7 JUMP JUMPDEST SWAP1 POP PUSH1 0x20 DUP2 ADD SWAP1 POP SWAP2 SWAP1 POP JUMP JUMPDEST DUP3 DUP2 DUP4 CALLDATACOPY PUSH0 DUP4 DUP4 ADD MSTORE POP POP POP JUMP JUMPDEST PUSH0 PUSH2 0x1BBF PUSH2 0x1BBA DUP5 PUSH2 0x1B6F JUMP JUMPDEST PUSH2 0x1B55 JUMP JUMPDEST SWAP1 POP DUP3 DUP2 MSTORE PUSH1 0x20 DUP2 ADD DUP5 DUP5 DUP5 ADD GT ISZERO PUSH2 0x1BDB JUMPI PUSH2 0x1BDA PUSH2 0x1AE3 JUMP JUMPDEST JUMPDEST PUSH2 0x1BE6 DUP5 DUP3 DUP6 PUSH2 0x1B9F JUMP JUMPDEST POP SWAP4 SWAP3 POP POP POP JUMP JUMPDEST PUSH0 DUP3 PUSH1 0x1F DUP4 ADD SLT PUSH2 0x1C02 JUMPI PUSH2 0x1C01 PUSH2 0x1ADF JUMP JUMPDEST JUMPDEST DUP2 CALLDATALOAD PUSH2 0x1C12 DUP5 DUP3 PUSH1 0x20 DUP7 ADD PUSH2 0x1BAD JUMP JUMPDEST SWAP2 POP POP SWAP3 SWAP2 POP POP JUMP JUMPDEST PUSH0 DUP1 PUSH1 0x40 DUP4 DUP6 SUB SLT ISZERO PUSH2 0x1C31 JUMPI PUSH2 0x1C30 PUSH2 0x1AA4 JUMP JUMPDEST JUMPDEST PUSH0 PUSH2 0x1C3E DUP6 DUP3 DUP7 ADD PUSH2 0x1ACB JUMP JUMPDEST SWAP3 POP POP PUSH1 0x20 DUP4 ADD CALLDATALOAD PUSH8 0xFFFFFFFFFFFFFFFF DUP2 GT ISZERO PUSH2 0x1C5F JUMPI PUSH2 0x1C5E PUSH2 0x1AA8 JUMP JUMPDEST JUMPDEST PUSH2 0x1C6B DUP6 DUP3 DUP7 ADD PUSH2 0x1BEE JUMP JUMPDEST SWAP2 POP POP SWAP3 POP SWAP3 SWAP1 POP JUMP JUMPDEST PUSH0 PUSH20 0xFFFFFFFFFFFFFFFFFFFFFFFFFFFFFFFFFFFFFFFF DUP3 AND SWAP1 POP SWAP2 SWAP1 POP JUMP JUMPDEST PUSH0 PUSH2 0x1C9E DUP3 PUSH2 0x1C75 JUMP JUMPDEST SWAP1 POP SWAP2 SWAP1 POP JUMP JUMPDEST PUSH2 0x1CAE DUP2 PUSH2 0x1C94 JUMP JUMPDEST DUP3 MSTORE POP POP JUMP JUMPDEST PUSH0 PUSH1 0x20 DUP3 ADD SWAP1 POP PUSH2 0x1CC7 PUSH0 DUP4 ADD DUP5 PUSH2 0x1CA5 JUMP JUMPDEST SWAP3 SWAP2 POP POP JUMP JUMPDEST PUSH2 0x1CD6 DUP2 PUSH2 0x1C94 JUMP JUMPDEST DUP2 EQ PUSH2 0x1CE0 JUMPI PUSH0 DUP1 REVERT JUMPDEST POP JUMP JUMPDEST PUSH0 DUP2 CALLDATALOAD SWAP1 POP PUSH2 0x1CF1 DUP2 PUSH2 0x1CCD JUMP JUMPDEST SWAP3 SWAP2 POP POP JUMP JUMPDEST PUSH0 DUP2 SWAP1 POP SWAP2 SWAP1 POP JUMP JUMPDEST PUSH2 0x1D09 DUP2 PUSH2 0x1CF7 JUMP JUMPDEST DUP2 EQ PUSH2 0x1D13 JUMPI PUSH0 DUP1 REVERT JUMPDEST POP JUMP JUMPDEST PUSH0 DUP2 CALLDATALOAD SWAP1 POP PUSH2 0x1D24 DUP2 PUSH2 0x1D00 JUMP JUMPDEST SWAP3 SWAP2 POP POP JUMP JUMPDEST PUSH0 DUP1 PUSH0 PUSH1 0x60 DUP5 DUP7 SUB SLT ISZERO PUSH2 0x1D41 JUMPI PUSH2 0x1D40 PUSH2 0x1AA4 JUMP JUMPDEST JUMPDEST PUSH0 PUSH2 0x1D4E DUP7 DUP3 DUP8 ADD PUSH2 0x1CE3 JUMP JUMPDEST SWAP4 POP POP PUSH1 0x20 PUSH2 0x1D5F DUP7 DUP3 DUP8 ADD PUSH2 0x1D16 JUMP JUMPDEST SWAP3 POP POP PUSH1 0x40 PUSH2 0x1D70 DUP7 DUP3 DUP8 ADD PUSH2 0x1D16 JUMP JUMPDEST SWAP2 POP POP SWAP3 POP SWAP3 POP SWAP3 JUMP JUMPDEST PUSH0 DUP1 PUSH0 DUP1 PUSH0 PUSH1 0xA0 DUP7 DUP9 SUB SLT ISZERO PUSH2 0x1D93 JUMPI PUSH2 0x1D92 PUSH2 0x1AA4 JUMP JUMPDEST JUMPDEST PUSH0 PUSH2 0x1DA0 DUP9 DUP3 DUP10 ADD PUSH2 0x1CE3 JUMP JUMPDEST SWAP6 POP POP PUSH1 0x20 PUSH2 0x1DB1 DUP9 DUP3 DUP10 ADD PUSH2 0x1D16 JUMP JUMPDEST SWAP5 POP POP PUSH1 0x40 PUSH2 0x1DC2 DUP9 DUP3 DUP10 ADD PUSH2 0x1D16 JUMP JUMPDEST SWAP4 POP POP PUSH1 0x60 DUP7 ADD CALLDATALOAD PUSH8 0xFFFFFFFFFFFFFFFF DUP2 GT ISZERO PUSH2 0x1DE3 JUMPI PUSH2 0x1DE2 PUSH2 0x1AA8 JUMP JUMPDEST JUMPDEST PUSH2 0x1DEF DUP9 DUP3 DUP10 ADD PUSH2 0x1BEE JUMP JUMPDEST SWAP3 POP POP PUSH1 0x80 PUSH2 0x1E00 DUP9 DUP3 DUP10 ADD PUSH2 0x1D16 JUMP JUMPDEST SWAP2 POP POP SWAP3 SWAP6 POP SWAP3 SWAP6 SWAP1 SWAP4 POP JUMP JUMPDEST PUSH2 0x1E16 DUP2 PUSH2 0x1CF7 JUMP JUMPDEST DUP3 MSTORE POP POP JUMP JUMPDEST PUSH0 PUSH1 0x20 DUP3 ADD SWAP1 POP PUSH2 0x1E2F PUSH0 DUP4 ADD DUP5 PUSH2 0x1E0D JUMP JUMPDEST SWAP3 SWAP2 POP POP JUMP JUMPDEST PUSH0 PUSH1 0x20 DUP3 DUP5 SUB SLT ISZERO PUSH2 0x1E4A JUMPI PUSH2 0x1E49 PUSH2 0x1AA4 JUMP JUMPDEST JUMPDEST PUSH0 PUSH2 0x1E57 DUP5 DUP3 DUP6 ADD PUSH2 0x1CE3 JUMP JUMPDEST SWAP2 POP POP SWAP3 SWAP2 POP POP JUMP JUMPDEST PUSH0 DUP2 SWAP1 POP SWAP2 SWAP1 POP JUMP JUMPDEST PUSH0 PUSH2 0x1E83 PUSH2 0x1E7E PUSH2 0x1E79 DUP5 PUSH2 0x1C75 JUMP JUMPDEST PUSH2 0x1E60 JUMP JUMPDEST PUSH2 0x1C75 JUMP JUMPDEST SWAP1 POP SWAP2 SWAP1 POP JUMP JUMPDEST PUSH0 PUSH2 0x1E94 DUP3 PUSH2 0x1E69 JUMP JUMPDEST SWAP1 POP SWAP2 SWAP1 POP JUMP JUMPDEST PUSH0 PUSH2 0x1EA5 DUP3 PUSH2 0x1E8A JUMP JUMPDEST SWAP1 POP SWAP2 SWAP1 POP JUMP JUMPDEST PUSH2 0x1EB5 DUP2 PUSH2 0x1E9B JUMP JUMPDEST DUP3 MSTORE POP POP JUMP JUMPDEST PUSH0 PUSH1 0x20 DUP3 ADD SWAP1 POP PUSH2 0x1ECE PUSH0 DUP4 ADD DUP5 PUSH2 0x1EAC JUMP JUMPDEST SWAP3 SWAP2 POP POP JUMP JUMPDEST PUSH0 PUSH2 0x1EDE DUP3 PUSH2 0x1E8A JUMP JUMPDEST SWAP1 POP SWAP2 SWAP1 POP JUMP JUMPDEST PUSH2 0x1EEE DUP2 PUSH2 0x1ED4 JUMP JUMPDEST DUP3 MSTORE POP POP JUMP JUMPDEST PUSH0 PUSH1 0x20 DUP3 ADD SWAP1 POP PUSH2 0x1F07 PUSH0 DUP4 ADD DUP5 PUSH2 0x1EE5 JUMP JUMPDEST SWAP3 SWAP2 POP POP JUMP JUMPDEST PUSH0 PUSH1 0x20 DUP3 DUP5 SUB SLT ISZERO PUSH2 0x1F22 JUMPI PUSH2 0x1F21 PUSH2 0x1AA4 JUMP JUMPDEST JUMPDEST PUSH0 PUSH2 0x1F2F DUP5 DUP3 DUP6 ADD PUSH2 0x1D16 JUMP JUMPDEST SWAP2 POP POP SWAP3 SWAP2 POP POP JUMP JUMPDEST PUSH0 DUP1 PUSH0 DUP1 PUSH1 0x80 DUP6 DUP8 SUB SLT ISZERO PUSH2 0x1F50 JUMPI PUSH2 0x1F4F PUSH2 0x1AA4 JUMP JUMPDEST JUMPDEST PUSH0 PUSH2 0x1F5D DUP8 DUP3 DUP9 ADD PUSH2 0x1CE3 JUMP JUMPDEST SWAP5 POP POP PUSH1 0x20 PUSH2 0x1F6E DUP8 DUP3 DUP9 ADD PUSH2 0x1D16 JUMP JUMPDEST SWAP4 POP POP PUSH1 0x40 PUSH2 0x1F7F DUP8 DUP3 DUP9 ADD PUSH2 0x1D16 JUMP JUMPDEST SWAP3 POP POP PUSH1 0x60 PUSH2 0x1F90 DUP8 DUP3 DUP9 ADD PUSH2 0x1D16 JUMP JUMPDEST SWAP2 POP POP SWAP3 SWAP6 SWAP2 SWAP5 POP SWAP3 POP JUMP JUMPDEST PUSH0 DUP2 ISZERO ISZERO SWAP1 POP SWAP2 SWAP1 POP JUMP JUMPDEST PUSH2 0x1FB0 DUP2 PUSH2 0x1F9C JUMP JUMPDEST DUP3 MSTORE POP POP JUMP JUMPDEST PUSH0 PUSH1 0x60 DUP3 ADD SWAP1 POP PUSH2 0x1FC9 PUSH0 DUP4 ADD DUP7 PUSH2 0x1E0D JUMP JUMPDEST PUSH2 0x1FD6 PUSH1 0x20 DUP4 ADD DUP6 PUSH2 0x1E0D JUMP JUMPDEST PUSH2 0x1FE3 PUSH1 0x40 DUP4 ADD DUP5 PUSH2 0x1FA7 JUMP JUMPDEST SWAP5 SWAP4 POP POP POP POP JUMP JUMPDEST PUSH0 PUSH1 0x20 DUP3 ADD SWAP1 POP PUSH2 0x1FFE PUSH0 DUP4 ADD DUP5 PUSH2 0x1FA7 JUMP JUMPDEST SWAP3 SWAP2 POP POP JUMP JUMPDEST PUSH0 PUSH1 0xFF DUP3 AND SWAP1 POP SWAP2 SWAP1 POP JUMP JUMPDEST PUSH32 0x4E487B7100000000000000000000000000000000000000000000000000000000 PUSH0 MSTORE PUSH1 0x11 PUSH1 0x4 MSTORE PUSH1 0x24 PUSH0 REVERT JUMPDEST PUSH0 PUSH2 0x2047 DUP3 PUSH2 0x2004 JUMP JUMPDEST SWAP2 POP PUSH2 0x2052 DUP4 PUSH2 0x2004 JUMP JUMPDEST SWAP3 POP DUP3 DUP3 ADD SWAP1 POP PUSH1 0xFF DUP2 GT ISZERO PUSH2 0x206B JUMPI PUSH2 0x206A PUSH2 0x2010 JUMP JUMPDEST JUMPDEST SWAP3 SWAP2 POP POP JUMP JUMPDEST PUSH0 DUP2 SWAP1 POP SWAP3 SWAP2 POP POP JUMP JUMPDEST PUSH32 0x19457468657265756D205369676E6564204D6573736167653A0A333200000000 PUSH0 DUP3 ADD MSTORE POP JUMP JUMPDEST PUSH0 PUSH2 0x20AF PUSH1 0x1C DUP4 PUSH2 0x2071 JUMP JUMPDEST SWAP2 POP PUSH2 0x20BA DUP3 PUSH2 0x207B JUMP JUMPDEST PUSH1 0x1C DUP3 ADD SWAP1 POP SWAP2 SWAP1 POP JUMP JUMPDEST PUSH0 DUP2 SWAP1 POP SWAP2 SWAP1 POP JUMP JUMPDEST PUSH2 0x20DF PUSH2 0x20DA DUP3 PUSH2 0x1AAC JUMP JUMPDEST PUSH2 0x20C5 JUMP JUMPDEST DUP3 MSTORE POP POP JUMP JUMPDEST PUSH0 PUSH2 0x20EF DUP3 PUSH2 0x20A3 JUMP JUMPDEST SWAP2 POP PUSH2 0x20FB DUP3 DUP5 PUSH2 0x20CE JUMP JUMPDEST PUSH1 0x20 DUP3 ADD SWAP2 POP DUP2 SWAP1 POP SWAP3 SWAP2 POP POP JUMP JUMPDEST PUSH2 0x2113 DUP2 PUSH2 0x1AAC JUMP JUMPDEST DUP3 MSTORE POP POP JUMP JUMPDEST PUSH2 0x2122 DUP2 PUSH2 0x2004 JUMP JUMPDEST DUP3 MSTORE POP POP JUMP JUMPDEST PUSH0 PUSH1 0x80 DUP3 ADD SWAP1 POP PUSH2 0x213B PUSH0 DUP4 ADD DUP8 PUSH2 0x210A JUMP JUMPDEST PUSH2 0x2148 PUSH1 0x20 DUP4 ADD DUP7 PUSH2 0x2119 JUMP JUMPDEST PUSH2 0x2155 PUSH1 0x40 DUP4 ADD DUP6 PUSH2 0x210A JUMP JUMPDEST PUSH2 0x2162 PUSH1 0x60 DUP4 ADD DUP5 PUSH2 0x210A JUMP JUMPDEST SWAP6 SWAP5 POP POP POP POP POP JUMP JUMPDEST PUSH0 PUSH1 0x60 DUP3 ADD SWAP1 POP PUSH2 0x217E PUSH0 DUP4 ADD DUP7 PUSH2 0x1CA5 JUMP JUMPDEST PUSH2 0x218B PUSH1 0x20 DUP4 ADD DUP6 PUSH2 0x1CA5 JUMP JUMPDEST PUSH2 0x2198 PUSH1 0x40 DUP4 ADD DUP5 PUSH2 0x1E0D JUMP JUMPDEST SWAP5 SWAP4 POP POP POP POP JUMP JUMPDEST PUSH2 0x21A9 DUP2 PUSH2 0x1F9C JUMP JUMPDEST DUP2 EQ PUSH2 0x21B3 JUMPI PUSH0 DUP1 REVERT JUMPDEST POP JUMP JUMPDEST PUSH0 DUP2 MLOAD SWAP1 POP PUSH2 0x21C4 DUP2 PUSH2 0x21A0 JUMP JUMPDEST SWAP3 SWAP2 POP POP JUMP JUMPDEST PUSH0 PUSH1 0x20 DUP3 DUP5 SUB SLT ISZERO PUSH2 0x21DF JUMPI PUSH2 0x21DE PUSH2 0x1AA4 JUMP JUMPDEST JUMPDEST PUSH0 PUSH2 0x21EC DUP5 DUP3 DUP6 ADD PUSH2 0x21B6 JUMP JUMPDEST SWAP2 POP POP SWAP3 SWAP2 POP POP JUMP JUMPDEST PUSH0 PUSH1 0x40 DUP3 ADD SWAP1 POP PUSH2 0x2208 PUSH0 DUP4 ADD DUP6 PUSH2 0x1CA5 JUMP JUMPDEST PUSH2 0x2215 PUSH1 0x20 DUP4 ADD DUP5 PUSH2 0x1E0D JUMP JUMPDEST SWAP4 SWAP3 POP POP POP JUMP JUMPDEST PUSH32 0x4E487B7100000000000000000000000000000000000000000000000000000000 PUSH0 MSTORE PUSH1 0x32 PUSH1 0x4 MSTORE PUSH1 0x24 PUSH0 REVERT JUMPDEST PUSH0 DUP2 MLOAD SWAP1 POP PUSH2 0x2257 DUP2 PUSH2 0x1CCD JUMP JUMPDEST SWAP3 SWAP2 POP POP JUMP JUMPDEST PUSH0 PUSH1 0x20 DUP3 DUP5 SUB SLT ISZERO PUSH2 0x2272 JUMPI PUSH2 0x2271 PUSH2 0x1AA4 JUMP JUMPDEST JUMPDEST PUSH0 PUSH2 0x227F DUP5 DUP3 DUP6 ADD PUSH2 0x2249 JUMP JUMPDEST SWAP2 POP POP SWAP3 SWAP2 POP POP JUMP JUMPDEST PUSH0 DUP2 MLOAD SWAP1 POP SWAP2 SWAP1 POP JUMP JUMPDEST PUSH0 DUP3 DUP3 MSTORE PUSH1 0x20 DUP3 ADD SWAP1 POP SWAP3 SWAP2 POP POP JUMP JUMPDEST PUSH0 DUP2 SWAP1 POP PUSH1 0x20 DUP3 ADD SWAP1 POP SWAP2 SWAP1 POP JUMP JUMPDEST PUSH2 0x22BA DUP2 PUSH2 0x1C94 JUMP JUMPDEST DUP3 MSTORE POP POP JUMP JUMPDEST PUSH0 PUSH2 0x22CB DUP4 DUP4 PUSH2 0x22B1 JUMP JUMPDEST PUSH1 0x20 DUP4 ADD SWAP1 POP SWAP3 SWAP2 POP POP JUMP JUMPDEST PUSH0 PUSH1 0x20 DUP3 ADD SWAP1 POP SWAP2 SWAP1 POP JUMP JUMPDEST PUSH0 PUSH2 0x22ED DUP3 PUSH2 0x2288 JUMP JUMPDEST PUSH2 0x22F7 DUP2 DUP6 PUSH2 0x2292 JUMP JUMPDEST SWAP4 POP PUSH2 0x2302 DUP4 PUSH2 0x22A2 JUMP JUMPDEST DUP1 PUSH0 JUMPDEST DUP4 DUP2 LT ISZERO PUSH2 0x2332 JUMPI DUP2 MLOAD PUSH2 0x2319 DUP9 DUP3 PUSH2 0x22C0 JUMP JUMPDEST SWAP8 POP PUSH2 0x2324 DUP4 PUSH2 0x22D7 JUMP JUMPDEST SWAP3 POP POP PUSH1 0x1 DUP2 ADD SWAP1 POP PUSH2 0x2305 JUMP JUMPDEST POP DUP6 SWAP4 POP POP POP POP SWAP3 SWAP2 POP POP JUMP JUMPDEST PUSH0 PUSH1 0xA0 DUP3 ADD SWAP1 POP PUSH2 0x2352 PUSH0 DUP4 ADD DUP9 PUSH2 0x1E0D JUMP JUMPDEST PUSH2 0x235F PUSH1 0x20 DUP4 ADD DUP8 PUSH2 0x1E0D JUMP JUMPDEST DUP2 DUP2 SUB PUSH1 0x40 DUP4 ADD MSTORE PUSH2 0x2371 DUP2 DUP7 PUSH2 0x22E3 JUMP JUMPDEST SWAP1 POP PUSH2 0x2380 PUSH1 0x60 DUP4 ADD DUP6 PUSH2 0x1CA5 JUMP JUMPDEST PUSH2 0x238D PUSH1 0x80 DUP4 ADD DUP5 PUSH2 0x1E0D JUMP JUMPDEST SWAP7 SWAP6 POP POP POP POP POP POP JUMP JUMPDEST PUSH0 PUSH8 0xFFFFFFFFFFFFFFFF DUP3 GT ISZERO PUSH2 0x23B1 JUMPI PUSH2 0x23B0 PUSH2 0x1AF7 JUMP JUMPDEST JUMPDEST PUSH1 0x20 DUP3 MUL SWAP1 POP PUSH1 0x20 DUP2 ADD SWAP1 POP SWAP2 SWAP1 POP JUMP JUMPDEST PUSH0 DUP1 REVERT JUMPDEST PUSH0 DUP2 MLOAD SWAP1 POP PUSH2 0x23D4 DUP2 PUSH2 0x1D00 JUMP JUMPDEST SWAP3 SWAP2 POP POP JUMP JUMPDEST PUSH0 PUSH2 0x23EC PUSH2 0x23E7 DUP5 PUSH2 0x2397 JUMP JUMPDEST PUSH2 0x1B55 JUMP JUMPDEST SWAP1 POP DUP1 DUP4 DUP3 MSTORE PUSH1 0x20 DUP3 ADD SWAP1 POP PUSH1 0x20 DUP5 MUL DUP4 ADD DUP6 DUP2 GT ISZERO PUSH2 0x240F JUMPI PUSH2 0x240E PUSH2 0x23C2 JUMP JUMPDEST JUMPDEST DUP4 JUMPDEST DUP2 DUP2 LT ISZERO PUSH2 0x2438 JUMPI DUP1 PUSH2 0x2424 DUP9 DUP3 PUSH2 0x23C6 JUMP JUMPDEST DUP5 MSTORE PUSH1 0x20 DUP5 ADD SWAP4 POP POP PUSH1 0x20 DUP2 ADD SWAP1 POP PUSH2 0x2411 JUMP JUMPDEST POP POP POP SWAP4 SWAP3 POP POP POP JUMP JUMPDEST PUSH0 DUP3 PUSH1 0x1F DUP4 ADD SLT PUSH2 0x2456 JUMPI PUSH2 0x2455 PUSH2 0x1ADF JUMP JUMPDEST JUMPDEST DUP2 MLOAD PUSH2 0x2466 DUP5 DUP3 PUSH1 0x20 DUP7 ADD PUSH2 0x23DA JUMP JUMPDEST SWAP2 POP POP SWAP3 SWAP2 POP POP JUMP JUMPDEST PUSH0 PUSH1 0x20 DUP3 DUP5 SUB SLT ISZERO PUSH2 0x2484 JUMPI PUSH2 0x2483 PUSH2 0x1AA4 JUMP JUMPDEST JUMPDEST PUSH0 DUP3 ADD MLOAD PUSH8 0xFFFFFFFFFFFFFFFF DUP2 GT ISZERO PUSH2 0x24A1 JUMPI PUSH2 0x24A0 PUSH2 0x1AA8 JUMP JUMPDEST JUMPDEST PUSH2 0x24AD DUP5 DUP3 DUP6 ADD PUSH2 0x2442 JUMP JUMPDEST SWAP2 POP POP SWAP3 SWAP2 POP POP JUMP JUMPDEST PUSH0 PUSH2 0x24C0 DUP3 PUSH2 0x1CF7 JUMP JUMPDEST SWAP2 POP PUSH2 0x24CB DUP4 PUSH2 0x1CF7 JUMP JUMPDEST SWAP3 POP DUP3 DUP3 MUL PUSH2 0x24D9 DUP2 PUSH2 0x1CF7 JUMP JUMPDEST SWAP2 POP DUP3 DUP3 DIV DUP5 EQ DUP4 ISZERO OR PUSH2 0x24F0 JUMPI PUSH2 0x24EF PUSH2 0x2010 JUMP JUMPDEST JUMPDEST POP SWAP3 SWAP2 POP POP JUMP JUMPDEST PUSH32 0x4E487B7100000000000000000000000000000000000000000000000000000000 PUSH0 MSTORE PUSH1 0x12 PUSH1 0x4 MSTORE PUSH1 0x24 PUSH0 REVERT JUMPDEST PUSH0 PUSH2 0x252E DUP3 PUSH2 0x1CF7 JUMP JUMPDEST SWAP2 POP PUSH2 0x2539 DUP4 PUSH2 0x1CF7 JUMP JUMPDEST SWAP3 POP DUP3 PUSH2 0x2549 JUMPI PUSH2 0x2548 PUSH2 0x24F7 JUMP JUMPDEST JUMPDEST DUP3 DUP3 DIV SWAP1 POP SWAP3 SWAP2 POP POP JUMP JUMPDEST PUSH0 PUSH2 0x255E DUP3 PUSH2 0x1CF7 JUMP JUMPDEST SWAP2 POP PUSH2 0x2569 DUP4 PUSH2 0x1CF7 JUMP JUMPDEST SWAP3 POP DUP3 DUP3 SUB SWAP1 POP DUP2 DUP2 GT ISZERO PUSH2 0x2581 JUMPI PUSH2 0x2580 PUSH2 0x2010 JUMP JUMPDEST JUMPDEST SWAP3 SWAP2 POP POP JUMP JUMPDEST PUSH0 DUP3 DUP3 MSTORE PUSH1 0x20 DUP3 ADD SWAP1 POP SWAP3 SWAP2 POP POP JUMP JUMPDEST PUSH32 0x457374696D617465642067617320636F73742065786365656473206D696E416D PUSH0 DUP3 ADD MSTORE PUSH32 0x6F756E744F757400000000000000000000000000000000000000000000000000 PUSH1 0x20 DUP3 ADD MSTORE POP JUMP JUMPDEST PUSH0 PUSH2 0x25F1 PUSH1 0x27 DUP4 PUSH2 0x2587 JUMP JUMPDEST SWAP2 POP PUSH2 0x25FC DUP3 PUSH2 0x2597 JUMP JUMPDEST PUSH1 0x40 DUP3 ADD SWAP1 POP SWAP2 SWAP1 POP JUMP JUMPDEST PUSH0 PUSH1 0x20 DUP3 ADD SWAP1 POP DUP2 DUP2 SUB PUSH0 DUP4 ADD MSTORE PUSH2 0x261E DUP2 PUSH2 0x25E5 JUMP JUMPDEST SWAP1 POP SWAP2 SWAP1 POP JUMP JUMPDEST PUSH0 DUP2 PUSH1 0x60 SHL SWAP1 POP SWAP2 SWAP1 POP JUMP JUMPDEST PUSH0 PUSH2 0x263B DUP3 PUSH2 0x2625 JUMP JUMPDEST SWAP1 POP SWAP2 SWAP1 POP JUMP JUMPDEST PUSH0 PUSH2 0x264C DUP3 PUSH2 0x2631 JUMP JUMPDEST SWAP1 POP SWAP2 SWAP1 POP JUMP JUMPDEST PUSH2 0x2664 PUSH2 0x265F DUP3 PUSH2 0x1C94 JUMP JUMPDEST PUSH2 0x2642 JUMP JUMPDEST DUP3 MSTORE POP POP JUMP JUMPDEST PUSH0 DUP2 SWAP1 POP SWAP2 SWAP1 POP JUMP JUMPDEST PUSH2 0x2684 PUSH2 0x267F DUP3 PUSH2 0x1CF7 JUMP JUMPDEST PUSH2 0x266A JUMP JUMPDEST DUP3 MSTORE POP POP JUMP JUMPDEST PUSH0 PUSH2 0x2695 DUP3 DUP8 PUSH2 0x2653 JUMP JUMPDEST PUSH1 0x14 DUP3 ADD SWAP2 POP PUSH2 0x26A5 DUP3 DUP7 PUSH2 0x2673 JUMP JUMPDEST PUSH1 0x20 DUP3 ADD SWAP2 POP PUSH2 0x26B5 DUP3 DUP6 PUSH2 0x2673 JUMP JUMPDEST PUSH1 0x20 DUP3 ADD SWAP2 POP PUSH2 0x26C5 DUP3 DUP5 PUSH2 0x2673 JUMP JUMPDEST PUSH1 0x20 DUP3 ADD SWAP2 POP DUP2 SWAP1 POP SWAP6 SWAP5 POP POP POP POP POP JUMP JUMPDEST PUSH32 0x496E76616C6964207369676E6174757265000000000000000000000000000000 PUSH0 DUP3 ADD MSTORE POP JUMP JUMPDEST PUSH0 PUSH2 0x270B PUSH1 0x11 DUP4 PUSH2 0x2587 JUMP JUMPDEST SWAP2 POP PUSH2 0x2716 DUP3 PUSH2 0x26D7 JUMP JUMPDEST PUSH1 0x20 DUP3 ADD SWAP1 POP SWAP2 SWAP1 POP JUMP JUMPDEST PUSH0 PUSH1 0x20 DUP3 ADD SWAP1 POP DUP2 DUP2 SUB PUSH0 DUP4 ADD MSTORE PUSH2 0x2738 DUP2 PUSH2 0x26FF JUMP JUMPDEST SWAP1 POP SWAP2 SWAP1 POP JUMP JUMPDEST PUSH32 0x5377617020457870656374656420746F206661696C0000000000000000000000 PUSH0 DUP3 ADD MSTORE POP JUMP JUMPDEST PUSH0 PUSH2 0x2773 PUSH1 0x15 DUP4 PUSH2 0x2587 JUMP JUMPDEST SWAP2 POP PUSH2 0x277E DUP3 PUSH2 0x273F JUMP JUMPDEST PUSH1 0x20 DUP3 ADD SWAP1 POP SWAP2 SWAP1 POP JUMP JUMPDEST PUSH0 PUSH1 0x20 DUP3 ADD SWAP1 POP DUP2 DUP2 SUB PUSH0 DUP4 ADD MSTORE PUSH2 0x27A0 DUP2 PUSH2 0x2767 JUMP JUMPDEST SWAP1 POP SWAP2 SWAP1 POP JUMP JUMPDEST PUSH32 0x457870656374656420676173206D6F7265207468616E2072657475726E000000 PUSH0 DUP3 ADD MSTORE POP JUMP JUMPDEST PUSH0 PUSH2 0x27DB PUSH1 0x1D DUP4 PUSH2 0x2587 JUMP JUMPDEST SWAP2 POP PUSH2 0x27E6 DUP3 PUSH2 0x27A7 JUMP JUMPDEST PUSH1 0x20 DUP3 ADD SWAP1 POP SWAP2 SWAP1 POP JUMP JUMPDEST PUSH0 PUSH1 0x20 DUP3 ADD SWAP1 POP DUP2 DUP2 SUB PUSH0 DUP4 ADD MSTORE PUSH2 0x2808 DUP2 PUSH2 0x27CF JUMP JUMPDEST SWAP1 POP SWAP2 SWAP1 POP JUMP JUMPDEST PUSH32 0x457870656374656420616D6F756E74206C657373207468616E206D696E696D75 PUSH0 DUP3 ADD MSTORE PUSH32 0x6D20726571756972656400000000000000000000000000000000000000000000 PUSH1 0x20 DUP3 ADD MSTORE POP JUMP JUMPDEST PUSH0 PUSH2 0x2869 PUSH1 0x2A DUP4 PUSH2 0x2587 JUMP JUMPDEST SWAP2 POP PUSH2 0x2874 DUP3 PUSH2 0x280F JUMP JUMPDEST PUSH1 0x40 DUP3 ADD SWAP1 POP SWAP2 SWAP1 POP JUMP JUMPDEST PUSH0 PUSH1 0x20 DUP3 ADD SWAP1 POP DUP2 DUP2 SUB PUSH0 DUP4 ADD MSTORE PUSH2 0x2896 DUP2 PUSH2 0x285D JUMP JUMPDEST SWAP1 POP SWAP2 SWAP1 POP JUMP JUMPDEST PUSH0 PUSH2 0x28A7 DUP3 PUSH2 0x1CF7 JUMP JUMPDEST SWAP2 POP PUSH2 0x28B2 DUP4 PUSH2 0x1CF7 JUMP JUMPDEST SWAP3 POP DUP3 DUP3 ADD SWAP1 POP DUP1 DUP3 GT ISZERO PUSH2 0x28CA JUMPI PUSH2 0x28C9 PUSH2 0x2010 JUMP JUMPDEST JUMPDEST SWAP3 SWAP2 POP POP JUMP JUMPDEST PUSH32 0x496E76616C696420616464726573730000000000000000000000000000000000 PUSH0 DUP3 ADD MSTORE POP JUMP JUMPDEST PUSH0 PUSH2 0x2904 PUSH1 0xF DUP4 PUSH2 0x2587 JUMP JUMPDEST SWAP2 POP PUSH2 0x290F DUP3 PUSH2 0x28D0 JUMP JUMPDEST PUSH1 0x20 DUP3 ADD SWAP1 POP SWAP2 SWAP1 POP JUMP JUMPDEST PUSH0 PUSH1 0x20 DUP3 ADD SWAP1 POP DUP2 DUP2 SUB PUSH0 DUP4 ADD MSTORE PUSH2 0x2931 DUP2 PUSH2 0x28F8 JUMP JUMPDEST SWAP1 POP SWAP2 SWAP1 POP JUMP JUMPDEST PUSH32 0x4E6F206C697175696469747920666F72207468697320746F6B656E0000000000 PUSH0 DUP3 ADD MSTORE POP JUMP JUMPDEST PUSH0 PUSH2 0x296C PUSH1 0x1B DUP4 PUSH2 0x2587 JUMP JUMPDEST SWAP2 POP PUSH2 0x2977 DUP3 PUSH2 0x2938 JUMP JUMPDEST PUSH1 0x20 DUP3 ADD SWAP1 POP SWAP2 SWAP1 POP JUMP JUMPDEST PUSH0 PUSH1 0x20 DUP3 ADD SWAP1 POP DUP2 DUP2 SUB PUSH0 DUP4 ADD MSTORE PUSH2 0x2999 DUP2 PUSH2 0x2960 JUMP JUMPDEST SWAP1 POP SWAP2 SWAP1 POP JUMP JUMPDEST PUSH0 PUSH1 0x40 DUP3 ADD SWAP1 POP PUSH2 0x29B3 PUSH0 DUP4 ADD DUP6 PUSH2 0x1E0D JUMP JUMPDEST DUP2 DUP2 SUB PUSH1 0x20 DUP4 ADD MSTORE PUSH2 0x29C5 DUP2 DUP5 PUSH2 0x22E3 JUMP JUMPDEST SWAP1 POP SWAP4 SWAP3 POP POP POP JUMP INVALID LOG2 PUSH5 0x6970667358 0x22 SLT KECCAK256 SELFBALANCE PUSH19 0x4FBEC3EE29B860B709C3D0EBA2E243DE0DDFA0 DUP9 0xBD DUP16 0xE7 PUSH23 0x324782FC842F64736F6C63430008150033000000000000 "
				},
				"gasEstimates": {
					"creation": {
						"codeDepositCost": "2151200",
						"executionCost": "infinite",
						"totalCost": "infinite"
					},
					"external": {
						"": "196",
						"canSwap(address,uint256,uint256)": "infinite",
						"depositETH()": "229",
						"estimatedGasForSwap()": "2448",
						"feePercentage()": "2492",
						"getSignerAddress(bytes32,bytes)": "infinite",
						"getSwapQuote(address,uint256,uint256,uint256)": "infinite",
						"owner()": "2626",
						"receiveFunds()": "143",
						"renounceOwnership()": "infinite",
						"rewardPot()": "infinite",
						"setEstimatedGasForSwap(uint256)": "infinite",
						"setFeePercentage(uint256)": "infinite",
						"setRewardPot(address)": "infinite",
						"setUniswapRouter(address)": "infinite",
						"swapTokensForETH(address,uint256,uint256,bytes,uint256)": "infinite",
						"swapTokensForETH_UserPaysGas(address,uint256,uint256)": "infinite",
						"transferOwnership(address)": "infinite",
						"uniswapRouter()": "infinite",
						"withdrawETH(uint256)": "infinite"
					},
					"internal": {
						"tryGetAmountsOut(uint256,address[] memory)": "infinite"
					}
				},
				"methodIdentifiers": {
					"canSwap(address,uint256,uint256)": "b4798209",
					"depositETH()": "f6326fb3",
					"estimatedGasForSwap()": "344954af",
					"feePercentage()": "a001ecdd",
					"getSignerAddress(bytes32,bytes)": "0f7d8e39",
					"getSwapQuote(address,uint256,uint256,uint256)": "ad9902a1",
					"owner()": "8da5cb5b",
					"receiveFunds()": "005c33e1",
					"renounceOwnership()": "715018a6",
					"rewardPot()": "93ad7440",
					"setEstimatedGasForSwap(uint256)": "98281c75",
					"setFeePercentage(uint256)": "ae06c1b7",
					"setRewardPot(address)": "4e63c29e",
					"setUniswapRouter(address)": "bea9849e",
					"swapTokensForETH(address,uint256,uint256,bytes,uint256)": "238cb67d",
					"swapTokensForETH_UserPaysGas(address,uint256,uint256)": "0fe6a787",
					"transferOwnership(address)": "f2fde38b",
					"uniswapRouter()": "735de9f7",
					"withdrawETH(uint256)": "f14210a6"
				}
			},
			"storageLayout": {
				"storage": [
					{
						"astId": 8,
						"contract": "Bitxchange.sol:Bitxchange",
						"label": "_owner",
						"offset": 0,
						"slot": "0",
						"type": "t_address"
					},
					{
						"astId": 659,
						"contract": "Bitxchange.sol:Bitxchange",
						"label": "uniswapRouter",
						"offset": 0,
						"slot": "1",
						"type": "t_contract(IUniswapV2Router02)643"
					},
					{
						"astId": 662,
						"contract": "Bitxchange.sol:Bitxchange",
						"label": "rewardPot",
						"offset": 0,
						"slot": "2",
						"type": "t_contract(IRewardPot)654"
					},
					{
						"astId": 665,
						"contract": "Bitxchange.sol:Bitxchange",
						"label": "feePercentage",
						"offset": 0,
						"slot": "3",
						"type": "t_uint256"
					},
					{
						"astId": 668,
						"contract": "Bitxchange.sol:Bitxchange",
						"label": "estimatedGasForSwap",
						"offset": 0,
						"slot": "4",
						"type": "t_uint256"
					}
				],
				"types": {
					"t_address": {
						"encoding": "inplace",
						"label": "address",
						"numberOfBytes": "20"
					},
					"t_contract(IRewardPot)654": {
						"encoding": "inplace",
						"label": "contract IRewardPot",
						"numberOfBytes": "20"
					},
					"t_contract(IUniswapV2Router02)643": {
						"encoding": "inplace",
						"label": "contract IUniswapV2Router02",
						"numberOfBytes": "20"
					},
					"t_uint256": {
						"encoding": "inplace",
						"label": "uint256",
						"numberOfBytes": "32"
					}
				}
			},
			"userdoc": {
				"kind": "user",
				"methods": {},
				"version": 1
			}
		}
	}
}