{
	"Bitxchange.sol": {
		"Bitxchange": {
			"abi": [
				{
					"inputs": [
						{
							"internalType": "address",
							"name": "_uniswapRouter",
							"type": "address"
						},
						{
							"internalType": "address",
							"name": "_rewardPot",
							"type": "address"
						}
					],
					"stateMutability": "nonpayable",
					"type": "constructor"
				},
				{
					"inputs": [
						{
							"internalType": "address",
							"name": "owner",
							"type": "address"
						}
					],
					"name": "OwnableInvalidOwner",
					"type": "error"
				},
				{
					"inputs": [
						{
							"internalType": "address",
							"name": "account",
							"type": "address"
						}
					],
					"name": "OwnableUnauthorizedAccount",
					"type": "error"
				},
				{
					"anonymous": false,
					"inputs": [
						{
							"indexed": false,
							"internalType": "uint256",
							"name": "newFee",
							"type": "uint256"
						}
					],
					"name": "FeeUpdated",
					"type": "event"
				},
				{
					"anonymous": false,
					"inputs": [
						{
							"indexed": true,
							"internalType": "address",
							"name": "previousOwner",
							"type": "address"
						},
						{
							"indexed": true,
							"internalType": "address",
							"name": "newOwner",
							"type": "address"
						}
					],
					"name": "OwnershipTransferred",
					"type": "event"
				},
				{
					"anonymous": false,
					"inputs": [
						{
							"indexed": false,
							"internalType": "address",
							"name": "newRewardPot",
							"type": "address"
						}
					],
					"name": "RewardPotUpdated",
					"type": "event"
				},
				{
					"anonymous": false,
					"inputs": [
						{
							"indexed": true,
							"internalType": "address",
							"name": "from",
							"type": "address"
						},
						{
							"indexed": false,
							"internalType": "uint256",
							"name": "amount",
							"type": "uint256"
						},
						{
							"indexed": false,
							"internalType": "uint256",
							"name": "receivedETH",
							"type": "uint256"
						}
					],
					"name": "SwapSuccessful",
					"type": "event"
				},
				{
					"inputs": [
						{
							"internalType": "address",
							"name": "token",
							"type": "address"
						},
						{
							"internalType": "uint256",
							"name": "amountIn",
							"type": "uint256"
						},
						{
							"internalType": "uint256",
							"name": "userGasPrice",
							"type": "uint256"
						}
					],
					"name": "canSwap",
					"outputs": [
						{
							"internalType": "bool",
							"name": "",
							"type": "bool"
						}
					],
					"stateMutability": "view",
					"type": "function"
				},
				{
					"inputs": [],
					"name": "depositETH",
					"outputs": [],
					"stateMutability": "payable",
					"type": "function"
				},
				{
					"inputs": [],
					"name": "feePercentage",
					"outputs": [
						{
							"internalType": "uint256",
							"name": "",
							"type": "uint256"
						}
					],
					"stateMutability": "view",
					"type": "function"
				},
				{
					"inputs": [
						{
							"internalType": "address",
							"name": "token",
							"type": "address"
						},
						{
							"internalType": "uint256",
							"name": "amount",
							"type": "uint256"
						},
						{
							"internalType": "uint256",
							"name": "slippage",
							"type": "uint256"
						},
						{
							"internalType": "uint256",
							"name": "userGasPrice",
							"type": "uint256"
						}
					],
					"name": "getSwapQuote",
					"outputs": [
						{
							"internalType": "uint256",
							"name": "minAmountOut",
							"type": "uint256"
						},
						{
							"internalType": "uint256",
							"name": "estimatedGasCost",
							"type": "uint256"
						},
						{
							"internalType": "bool",
							"name": "canDoSwap",
							"type": "bool"
						}
					],
					"stateMutability": "view",
					"type": "function"
				},
				{
					"inputs": [],
					"name": "owner",
					"outputs": [
						{
							"internalType": "address",
							"name": "",
							"type": "address"
						}
					],
					"stateMutability": "view",
					"type": "function"
				},
				{
					"inputs": [],
					"name": "renounceOwnership",
					"outputs": [],
					"stateMutability": "nonpayable",
					"type": "function"
				},
				{
					"inputs": [],
					"name": "rewardPot",
					"outputs": [
						{
							"internalType": "contract IRewardPot",
							"name": "",
							"type": "address"
						}
					],
					"stateMutability": "view",
					"type": "function"
				},
				{
					"inputs": [
						{
							"internalType": "uint256",
							"name": "_newFee",
							"type": "uint256"
						}
					],
					"name": "setFeePercentage",
					"outputs": [],
					"stateMutability": "nonpayable",
					"type": "function"
				},
				{
					"inputs": [
						{
							"internalType": "address",
							"name": "_newRewardPot",
							"type": "address"
						}
					],
					"name": "setRewardPot",
					"outputs": [],
					"stateMutability": "nonpayable",
					"type": "function"
				},
				{
					"inputs": [
						{
							"internalType": "address",
							"name": "token",
							"type": "address"
						},
						{
							"internalType": "uint256",
							"name": "amount",
							"type": "uint256"
						},
						{
							"internalType": "uint256",
							"name": "minAmountOut",
							"type": "uint256"
						}
					],
					"name": "swapTokensForETH",
					"outputs": [],
					"stateMutability": "nonpayable",
					"type": "function"
				},
				{
					"inputs": [
						{
							"internalType": "address",
							"name": "newOwner",
							"type": "address"
						}
					],
					"name": "transferOwnership",
					"outputs": [],
					"stateMutability": "nonpayable",
					"type": "function"
				},
				{
					"inputs": [],
					"name": "uniswapRouter",
					"outputs": [
						{
							"internalType": "contract IUniswapV2Router02",
							"name": "",
							"type": "address"
						}
					],
					"stateMutability": "view",
					"type": "function"
				},
				{
					"inputs": [
						{
							"internalType": "uint256",
							"name": "amount",
							"type": "uint256"
						}
					],
					"name": "withdrawETH",
					"outputs": [],
					"stateMutability": "nonpayable",
					"type": "function"
				}
			],
			"devdoc": {
				"errors": {
					"OwnableInvalidOwner(address)": [
						{
							"details": "The owner is not a valid owner account. (eg. `address(0)`)"
						}
					],
					"OwnableUnauthorizedAccount(address)": [
						{
							"details": "The caller account is not authorized to perform an operation."
						}
					]
				},
				"kind": "dev",
				"methods": {
					"owner()": {
						"details": "Returns the address of the current owner."
					},
					"renounceOwnership()": {
						"details": "Leaves the contract without owner. It will not be possible to call `onlyOwner` functions. Can only be called by the current owner. NOTE: Renouncing ownership will leave the contract without an owner, thereby disabling any functionality that is only available to the owner."
					},
					"transferOwnership(address)": {
						"details": "Transfers ownership of the contract to a new account (`newOwner`). Can only be called by the current owner."
					}
				},
				"version": 1
			},
			"evm": {
				"assembly": "    /* \"Bitxchange.sol\":336:4923  contract Bitxchange is Ownable {... */\n  mstore(0x40, 0x80)\n    /* \"Bitxchange.sol\":485:488  500 */\n  0x01f4\n    /* \"Bitxchange.sol\":454:488  uint256 public feePercentage = 500 */\n  0x03\n  sstore\n    /* \"Bitxchange.sol\":704:894  constructor(address _uniswapRouter, address _rewardPot) Ownable(msg.sender) {... */\n  callvalue\n  dup1\n  iszero\n  tag_1\n  jumpi\n  0x00\n  dup1\n  revert\ntag_1:\n  pop\n  mload(0x40)\n  sub(codesize, bytecodeSize)\n  dup1\n  bytecodeSize\n  dup4\n  codecopy\n  dup2\n  dup2\n  add\n  0x40\n  mstore\n  dup2\n  add\n  swap1\n  tag_2\n  swap2\n  swap1\n  tag_3\n  jump\t// in\ntag_2:\n    /* \"Bitxchange.sol\":768:778  msg.sender */\n  caller\n    /* \"@openzeppelin/contracts/access/Ownable.sol\":1297:1298  0 */\n  0x00\n    /* \"@openzeppelin/contracts/access/Ownable.sol\":1273:1299  initialOwner == address(0) */\n  0xffffffffffffffffffffffffffffffffffffffff\n  and\n    /* \"@openzeppelin/contracts/access/Ownable.sol\":1273:1285  initialOwner */\n  dup2\n    /* \"@openzeppelin/contracts/access/Ownable.sol\":1273:1299  initialOwner == address(0) */\n  0xffffffffffffffffffffffffffffffffffffffff\n  and\n  sub\n    /* \"@openzeppelin/contracts/access/Ownable.sol\":1269:1364  if (initialOwner == address(0)) {... */\n  tag_7\n  jumpi\n    /* \"@openzeppelin/contracts/access/Ownable.sol\":1350:1351  0 */\n  0x00\n    /* \"@openzeppelin/contracts/access/Ownable.sol\":1322:1353  OwnableInvalidOwner(address(0)) */\n  mload(0x40)\n  0x1e4fbdf700000000000000000000000000000000000000000000000000000000\n  dup2\n  mstore\n  0x04\n  add\n  tag_8\n  swap2\n  swap1\n  tag_9\n  jump\t// in\ntag_8:\n  mload(0x40)\n  dup1\n  swap2\n  sub\n  swap1\n  revert\n    /* \"@openzeppelin/contracts/access/Ownable.sol\":1269:1364  if (initialOwner == address(0)) {... */\ntag_7:\n    /* \"@openzeppelin/contracts/access/Ownable.sol\":1373:1405  _transferOwnership(initialOwner) */\n  tag_10\n    /* \"@openzeppelin/contracts/access/Ownable.sol\":1392:1404  initialOwner */\n  dup2\n    /* \"@openzeppelin/contracts/access/Ownable.sol\":1373:1391  _transferOwnership */\n  shl(0x20, tag_11)\n    /* \"@openzeppelin/contracts/access/Ownable.sol\":1373:1405  _transferOwnership(initialOwner) */\n  0x20\n  shr\n  jump\t// in\ntag_10:\n    /* \"@openzeppelin/contracts/access/Ownable.sol\":1225:1412  constructor(address initialOwner) {... */\n  pop\n    /* \"Bitxchange.sol\":826:840  _uniswapRouter */\n  dup2\n    /* \"Bitxchange.sol\":791:804  uniswapRouter */\n  0x01\n  0x00\n    /* \"Bitxchange.sol\":791:841  uniswapRouter = IUniswapV2Router02(_uniswapRouter) */\n  0x0100\n  exp\n  dup2\n  sload\n  dup2\n  0xffffffffffffffffffffffffffffffffffffffff\n  mul\n  not\n  and\n  swap1\n  dup4\n  0xffffffffffffffffffffffffffffffffffffffff\n  and\n  mul\n  or\n  swap1\n  sstore\n  pop\n    /* \"Bitxchange.sol\":875:885  _rewardPot */\n  dup1\n    /* \"Bitxchange.sol\":852:861  rewardPot */\n  0x02\n  0x00\n    /* \"Bitxchange.sol\":852:886  rewardPot = IRewardPot(_rewardPot) */\n  0x0100\n  exp\n  dup2\n  sload\n  dup2\n  0xffffffffffffffffffffffffffffffffffffffff\n  mul\n  not\n  and\n  swap1\n  dup4\n  0xffffffffffffffffffffffffffffffffffffffff\n  and\n  mul\n  or\n  swap1\n  sstore\n  pop\n    /* \"Bitxchange.sol\":704:894  constructor(address _uniswapRouter, address _rewardPot) Ownable(msg.sender) {... */\n  pop\n  pop\n    /* \"Bitxchange.sol\":336:4923  contract Bitxchange is Ownable {... */\n  jump(tag_13)\n    /* \"@openzeppelin/contracts/access/Ownable.sol\":2912:3099  function _transferOwnership(address newOwner) internal virtual {... */\ntag_11:\n    /* \"@openzeppelin/contracts/access/Ownable.sol\":2985:3001  address oldOwner */\n  0x00\n    /* \"@openzeppelin/contracts/access/Ownable.sol\":3004:3010  _owner */\n  dup1\n  0x00\n  swap1\n  sload\n  swap1\n  0x0100\n  exp\n  swap1\n  div\n  0xffffffffffffffffffffffffffffffffffffffff\n  and\n    /* \"@openzeppelin/contracts/access/Ownable.sol\":2985:3010  address oldOwner = _owner */\n  swap1\n  pop\n    /* \"@openzeppelin/contracts/access/Ownable.sol\":3029:3037  newOwner */\n  dup2\n    /* \"@openzeppelin/contracts/access/Ownable.sol\":3020:3026  _owner */\n  0x00\n  dup1\n    /* \"@openzeppelin/contracts/access/Ownable.sol\":3020:3037  _owner = newOwner */\n  0x0100\n  exp\n  dup2\n  sload\n  dup2\n  0xffffffffffffffffffffffffffffffffffffffff\n  mul\n  not\n  and\n  swap1\n  dup4\n  0xffffffffffffffffffffffffffffffffffffffff\n  and\n  mul\n  or\n  swap1\n  sstore\n  pop\n    /* \"@openzeppelin/contracts/access/Ownable.sol\":3083:3091  newOwner */\n  dup2\n    /* \"@openzeppelin/contracts/access/Ownable.sol\":3052:3092  OwnershipTransferred(oldOwner, newOwner) */\n  0xffffffffffffffffffffffffffffffffffffffff\n  and\n    /* \"@openzeppelin/contracts/access/Ownable.sol\":3073:3081  oldOwner */\n  dup2\n    /* \"@openzeppelin/contracts/access/Ownable.sol\":3052:3092  OwnershipTransferred(oldOwner, newOwner) */\n  0xffffffffffffffffffffffffffffffffffffffff\n  and\n  0x8be0079c531659141344cd1fd0a4f28419497f9722a3daafe3b4186f6b6457e0\n  mload(0x40)\n  mload(0x40)\n  dup1\n  swap2\n  sub\n  swap1\n  log3\n    /* \"@openzeppelin/contracts/access/Ownable.sol\":2975:3099  {... */\n  pop\n    /* \"@openzeppelin/contracts/access/Ownable.sol\":2912:3099  function _transferOwnership(address newOwner) internal virtual {... */\n  pop\n  jump\t// out\n    /* \"#utility.yul\":88:205   */\ntag_16:\n    /* \"#utility.yul\":197:198   */\n  0x00\n    /* \"#utility.yul\":194:195   */\n  dup1\n    /* \"#utility.yul\":187:199   */\n  revert\n    /* \"#utility.yul\":334:460   */\ntag_18:\n    /* \"#utility.yul\":371:378   */\n  0x00\n    /* \"#utility.yul\":411:453   */\n  0xffffffffffffffffffffffffffffffffffffffff\n    /* \"#utility.yul\":404:409   */\n  dup3\n    /* \"#utility.yul\":400:454   */\n  and\n    /* \"#utility.yul\":389:454   */\n  swap1\n  pop\n    /* \"#utility.yul\":334:460   */\n  swap2\n  swap1\n  pop\n  jump\t// out\n    /* \"#utility.yul\":466:562   */\ntag_19:\n    /* \"#utility.yul\":503:510   */\n  0x00\n    /* \"#utility.yul\":532:556   */\n  tag_29\n    /* \"#utility.yul\":550:555   */\n  dup3\n    /* \"#utility.yul\":532:556   */\n  tag_18\n  jump\t// in\ntag_29:\n    /* \"#utility.yul\":521:556   */\n  swap1\n  pop\n    /* \"#utility.yul\":466:562   */\n  swap2\n  swap1\n  pop\n  jump\t// out\n    /* \"#utility.yul\":568:690   */\ntag_20:\n    /* \"#utility.yul\":641:665   */\n  tag_31\n    /* \"#utility.yul\":659:664   */\n  dup2\n    /* \"#utility.yul\":641:665   */\n  tag_19\n  jump\t// in\ntag_31:\n    /* \"#utility.yul\":634:639   */\n  dup2\n    /* \"#utility.yul\":631:666   */\n  eq\n    /* \"#utility.yul\":621:684   */\n  tag_32\n  jumpi\n    /* \"#utility.yul\":680:681   */\n  0x00\n    /* \"#utility.yul\":677:678   */\n  dup1\n    /* \"#utility.yul\":670:682   */\n  revert\n    /* \"#utility.yul\":621:684   */\ntag_32:\n    /* \"#utility.yul\":568:690   */\n  pop\n  jump\t// out\n    /* \"#utility.yul\":696:839   */\ntag_21:\n    /* \"#utility.yul\":753:758   */\n  0x00\n    /* \"#utility.yul\":784:790   */\n  dup2\n    /* \"#utility.yul\":778:791   */\n  mload\n    /* \"#utility.yul\":769:791   */\n  swap1\n  pop\n    /* \"#utility.yul\":800:833   */\n  tag_34\n    /* \"#utility.yul\":827:832   */\n  dup2\n    /* \"#utility.yul\":800:833   */\n  tag_20\n  jump\t// in\ntag_34:\n    /* \"#utility.yul\":696:839   */\n  swap3\n  swap2\n  pop\n  pop\n  jump\t// out\n    /* \"#utility.yul\":845:1352   */\ntag_3:\n    /* \"#utility.yul\":924:930   */\n  0x00\n    /* \"#utility.yul\":932:938   */\n  dup1\n    /* \"#utility.yul\":981:983   */\n  0x40\n    /* \"#utility.yul\":969:978   */\n  dup4\n    /* \"#utility.yul\":960:967   */\n  dup6\n    /* \"#utility.yul\":956:979   */\n  sub\n    /* \"#utility.yul\":952:984   */\n  slt\n    /* \"#utility.yul\":949:1068   */\n  iszero\n  tag_36\n  jumpi\n    /* \"#utility.yul\":987:1066   */\n  tag_37\n  tag_16\n  jump\t// in\ntag_37:\n    /* \"#utility.yul\":949:1068   */\ntag_36:\n    /* \"#utility.yul\":1107:1108   */\n  0x00\n    /* \"#utility.yul\":1132:1196   */\n  tag_38\n    /* \"#utility.yul\":1188:1195   */\n  dup6\n    /* \"#utility.yul\":1179:1185   */\n  dup3\n    /* \"#utility.yul\":1168:1177   */\n  dup7\n    /* \"#utility.yul\":1164:1186   */\n  add\n    /* \"#utility.yul\":1132:1196   */\n  tag_21\n  jump\t// in\ntag_38:\n    /* \"#utility.yul\":1122:1196   */\n  swap3\n  pop\n    /* \"#utility.yul\":1078:1206   */\n  pop\n    /* \"#utility.yul\":1245:1247   */\n  0x20\n    /* \"#utility.yul\":1271:1335   */\n  tag_39\n    /* \"#utility.yul\":1327:1334   */\n  dup6\n    /* \"#utility.yul\":1318:1324   */\n  dup3\n    /* \"#utility.yul\":1307:1316   */\n  dup7\n    /* \"#utility.yul\":1303:1325   */\n  add\n    /* \"#utility.yul\":1271:1335   */\n  tag_21\n  jump\t// in\ntag_39:\n    /* \"#utility.yul\":1261:1335   */\n  swap2\n  pop\n    /* \"#utility.yul\":1216:1345   */\n  pop\n    /* \"#utility.yul\":845:1352   */\n  swap3\n  pop\n  swap3\n  swap1\n  pop\n  jump\t// out\n    /* \"#utility.yul\":1358:1476   */\ntag_22:\n    /* \"#utility.yul\":1445:1469   */\n  tag_41\n    /* \"#utility.yul\":1463:1468   */\n  dup2\n    /* \"#utility.yul\":1445:1469   */\n  tag_19\n  jump\t// in\ntag_41:\n    /* \"#utility.yul\":1440:1443   */\n  dup3\n    /* \"#utility.yul\":1433:1470   */\n  mstore\n    /* \"#utility.yul\":1358:1476   */\n  pop\n  pop\n  jump\t// out\n    /* \"#utility.yul\":1482:1704   */\ntag_9:\n    /* \"#utility.yul\":1575:1579   */\n  0x00\n    /* \"#utility.yul\":1613:1615   */\n  0x20\n    /* \"#utility.yul\":1602:1611   */\n  dup3\n    /* \"#utility.yul\":1598:1616   */\n  add\n    /* \"#utility.yul\":1590:1616   */\n  swap1\n  pop\n    /* \"#utility.yul\":1626:1697   */\n  tag_43\n    /* \"#utility.yul\":1694:1695   */\n  0x00\n    /* \"#utility.yul\":1683:1692   */\n  dup4\n    /* \"#utility.yul\":1679:1696   */\n  add\n    /* \"#utility.yul\":1670:1676   */\n  dup5\n    /* \"#utility.yul\":1626:1697   */\n  tag_22\n  jump\t// in\ntag_43:\n    /* \"#utility.yul\":1482:1704   */\n  swap3\n  swap2\n  pop\n  pop\n  jump\t// out\n    /* \"Bitxchange.sol\":336:4923  contract Bitxchange is Ownable {... */\ntag_13:\n  dataSize(sub_0)\n  dup1\n  dataOffset(sub_0)\n  0x00\n  codecopy\n  0x00\n  return\nstop\n\nsub_0: assembly {\n        /* \"Bitxchange.sol\":336:4923  contract Bitxchange is Ownable {... */\n      mstore(0x40, 0x80)\n      jumpi(tag_1, lt(calldatasize, 0x04))\n      shr(0xe0, calldataload(0x00))\n      dup1\n      0xad9902a1\n      gt\n      tag_15\n      jumpi\n      dup1\n      0xe15cc8da\n      gt\n      tag_16\n      jumpi\n      dup1\n      0xe15cc8da\n      eq\n      tag_11\n      jumpi\n      dup1\n      0xf14210a6\n      eq\n      tag_12\n      jumpi\n      dup1\n      0xf2fde38b\n      eq\n      tag_13\n      jumpi\n      dup1\n      0xf6326fb3\n      eq\n      tag_14\n      jumpi\n      jump(tag_1)\n    tag_16:\n      dup1\n      0xad9902a1\n      eq\n      tag_8\n      jumpi\n      dup1\n      0xae06c1b7\n      eq\n      tag_9\n      jumpi\n      dup1\n      0xb4798209\n      eq\n      tag_10\n      jumpi\n      jump(tag_1)\n    tag_15:\n      dup1\n      0x4e63c29e\n      eq\n      tag_2\n      jumpi\n      dup1\n      0x715018a6\n      eq\n      tag_3\n      jumpi\n      dup1\n      0x735de9f7\n      eq\n      tag_4\n      jumpi\n      dup1\n      0x8da5cb5b\n      eq\n      tag_5\n      jumpi\n      dup1\n      0x93ad7440\n      eq\n      tag_6\n      jumpi\n      dup1\n      0xa001ecdd\n      eq\n      tag_7\n      jumpi\n    tag_1:\n      0x00\n      dup1\n      revert\n        /* \"Bitxchange.sol\":1300:1533  function setRewardPot(address _newRewardPot) external onlyOwner {... */\n    tag_2:\n      callvalue\n      dup1\n      iszero\n      tag_17\n      jumpi\n      0x00\n      dup1\n      revert\n    tag_17:\n      pop\n      tag_18\n      0x04\n      dup1\n      calldatasize\n      sub\n      dup2\n      add\n      swap1\n      tag_19\n      swap2\n      swap1\n      tag_20\n      jump\t// in\n    tag_19:\n      tag_21\n      jump\t// in\n    tag_18:\n      stop\n        /* \"@openzeppelin/contracts/access/Ownable.sol\":2293:2394  function renounceOwnership() public virtual onlyOwner {... */\n    tag_3:\n      callvalue\n      dup1\n      iszero\n      tag_22\n      jumpi\n      0x00\n      dup1\n      revert\n    tag_22:\n      pop\n      tag_23\n      tag_24\n      jump\t// in\n    tag_23:\n      stop\n        /* \"Bitxchange.sol\":374:413  IUniswapV2Router02 public uniswapRouter */\n    tag_4:\n      callvalue\n      dup1\n      iszero\n      tag_25\n      jumpi\n      0x00\n      dup1\n      revert\n    tag_25:\n      pop\n      tag_26\n      tag_27\n      jump\t// in\n    tag_26:\n      mload(0x40)\n      tag_28\n      swap2\n      swap1\n      tag_29\n      jump\t// in\n    tag_28:\n      mload(0x40)\n      dup1\n      swap2\n      sub\n      swap1\n      return\n        /* \"@openzeppelin/contracts/access/Ownable.sol\":1638:1723  function owner() public view virtual returns (address) {... */\n    tag_5:\n      callvalue\n      dup1\n      iszero\n      tag_30\n      jumpi\n      0x00\n      dup1\n      revert\n    tag_30:\n      pop\n      tag_31\n      tag_32\n      jump\t// in\n    tag_31:\n      mload(0x40)\n      tag_33\n      swap2\n      swap1\n      tag_34\n      jump\t// in\n    tag_33:\n      mload(0x40)\n      dup1\n      swap2\n      sub\n      swap1\n      return\n        /* \"Bitxchange.sol\":420:447  IRewardPot public rewardPot */\n    tag_6:\n      callvalue\n      dup1\n      iszero\n      tag_35\n      jumpi\n      0x00\n      dup1\n      revert\n    tag_35:\n      pop\n      tag_36\n      tag_37\n      jump\t// in\n    tag_36:\n      mload(0x40)\n      tag_38\n      swap2\n      swap1\n      tag_39\n      jump\t// in\n    tag_38:\n      mload(0x40)\n      dup1\n      swap2\n      sub\n      swap1\n      return\n        /* \"Bitxchange.sol\":454:488  uint256 public feePercentage = 500 */\n    tag_7:\n      callvalue\n      dup1\n      iszero\n      tag_40\n      jumpi\n      0x00\n      dup1\n      revert\n    tag_40:\n      pop\n      tag_41\n      tag_42\n      jump\t// in\n    tag_41:\n      mload(0x40)\n      tag_43\n      swap2\n      swap1\n      tag_44\n      jump\t// in\n    tag_43:\n      mload(0x40)\n      dup1\n      swap2\n      sub\n      swap1\n      return\n        /* \"Bitxchange.sol\":2372:3422  function getSwapQuote(address token, uint256 amount, uint256 slippage, uint256 userGasPrice) public view returns (uint256 minAmountOut, uint256 estimatedGasCost, bool canDoSwap) {... */\n    tag_8:\n      callvalue\n      dup1\n      iszero\n      tag_45\n      jumpi\n      0x00\n      dup1\n      revert\n    tag_45:\n      pop\n      tag_46\n      0x04\n      dup1\n      calldatasize\n      sub\n      dup2\n      add\n      swap1\n      tag_47\n      swap2\n      swap1\n      tag_48\n      jump\t// in\n    tag_47:\n      tag_49\n      jump\t// in\n    tag_46:\n      mload(0x40)\n      tag_50\n      swap4\n      swap3\n      swap2\n      swap1\n      tag_51\n      jump\t// in\n    tag_50:\n      mload(0x40)\n      dup1\n      swap2\n      sub\n      swap1\n      return\n        /* \"Bitxchange.sol\":1153:1292  function setFeePercentage(uint256 _newFee) external onlyOwner {... */\n    tag_9:\n      callvalue\n      dup1\n      iszero\n      tag_52\n      jumpi\n      0x00\n      dup1\n      revert\n    tag_52:\n      pop\n      tag_53\n      0x04\n      dup1\n      calldatasize\n      sub\n      dup2\n      add\n      swap1\n      tag_54\n      swap2\n      swap1\n      tag_55\n      jump\t// in\n    tag_54:\n      tag_56\n      jump\t// in\n    tag_53:\n      stop\n        /* \"Bitxchange.sol\":1589:2364  function canSwap(address token, uint256 amountIn, uint256 userGasPrice) public view returns (bool) {... */\n    tag_10:\n      callvalue\n      dup1\n      iszero\n      tag_57\n      jumpi\n      0x00\n      dup1\n      revert\n    tag_57:\n      pop\n      tag_58\n      0x04\n      dup1\n      calldatasize\n      sub\n      dup2\n      add\n      swap1\n      tag_59\n      swap2\n      swap1\n      tag_60\n      jump\t// in\n    tag_59:\n      tag_61\n      jump\t// in\n    tag_58:\n      mload(0x40)\n      tag_62\n      swap2\n      swap1\n      tag_63\n      jump\t// in\n    tag_62:\n      mload(0x40)\n      dup1\n      swap2\n      sub\n      swap1\n      return\n        /* \"Bitxchange.sol\":3434:4920  function swapTokensForETH(address token, uint256 amount, uint256 minAmountOut) external onlyOwner {... */\n    tag_11:\n      callvalue\n      dup1\n      iszero\n      tag_64\n      jumpi\n      0x00\n      dup1\n      revert\n    tag_64:\n      pop\n      tag_65\n      0x04\n      dup1\n      calldatasize\n      sub\n      dup2\n      add\n      swap1\n      tag_66\n      swap2\n      swap1\n      tag_60\n      jump\t// in\n    tag_66:\n      tag_67\n      jump\t// in\n    tag_65:\n      stop\n        /* \"Bitxchange.sol\":1037:1145  function withdrawETH(uint256 amount) external onlyOwner {... */\n    tag_12:\n      callvalue\n      dup1\n      iszero\n      tag_68\n      jumpi\n      0x00\n      dup1\n      revert\n    tag_68:\n      pop\n      tag_69\n      0x04\n      dup1\n      calldatasize\n      sub\n      dup2\n      add\n      swap1\n      tag_70\n      swap2\n      swap1\n      tag_55\n      jump\t// in\n    tag_70:\n      tag_71\n      jump\t// in\n    tag_69:\n      stop\n        /* \"@openzeppelin/contracts/access/Ownable.sol\":2543:2758  function transferOwnership(address newOwner) public virtual onlyOwner {... */\n    tag_13:\n      callvalue\n      dup1\n      iszero\n      tag_72\n      jumpi\n      0x00\n      dup1\n      revert\n    tag_72:\n      pop\n      tag_73\n      0x04\n      dup1\n      calldatasize\n      sub\n      dup2\n      add\n      swap1\n      tag_74\n      swap2\n      swap1\n      tag_20\n      jump\t// in\n    tag_74:\n      tag_75\n      jump\t// in\n    tag_73:\n      stop\n        /* \"Bitxchange.sol\":947:998  function depositETH() external payable onlyOwner {} */\n    tag_14:\n      tag_76\n      tag_77\n      jump\t// in\n    tag_76:\n      stop\n        /* \"Bitxchange.sol\":1300:1533  function setRewardPot(address _newRewardPot) external onlyOwner {... */\n    tag_21:\n        /* \"@openzeppelin/contracts/access/Ownable.sol\":1531:1544  _checkOwner() */\n      tag_79\n        /* \"@openzeppelin/contracts/access/Ownable.sol\":1531:1542  _checkOwner */\n      tag_80\n        /* \"@openzeppelin/contracts/access/Ownable.sol\":1531:1544  _checkOwner() */\n      jump\t// in\n    tag_79:\n        /* \"Bitxchange.sol\":1408:1409  0 */\n      0x00\n        /* \"Bitxchange.sol\":1383:1410  _newRewardPot != address(0) */\n      0xffffffffffffffffffffffffffffffffffffffff\n      and\n        /* \"Bitxchange.sol\":1383:1396  _newRewardPot */\n      dup2\n        /* \"Bitxchange.sol\":1383:1410  _newRewardPot != address(0) */\n      0xffffffffffffffffffffffffffffffffffffffff\n      and\n      sub\n        /* \"Bitxchange.sol\":1375:1430  require(_newRewardPot != address(0), \"Invalid address\") */\n      tag_82\n      jumpi\n      mload(0x40)\n      0x08c379a000000000000000000000000000000000000000000000000000000000\n      dup2\n      mstore\n      0x04\n      add\n      tag_83\n      swap1\n      tag_84\n      jump\t// in\n    tag_83:\n      mload(0x40)\n      dup1\n      swap2\n      sub\n      swap1\n      revert\n    tag_82:\n        /* \"Bitxchange.sol\":1464:1477  _newRewardPot */\n      dup1\n        /* \"Bitxchange.sol\":1441:1450  rewardPot */\n      0x02\n      0x00\n        /* \"Bitxchange.sol\":1441:1478  rewardPot = IRewardPot(_newRewardPot) */\n      0x0100\n      exp\n      dup2\n      sload\n      dup2\n      0xffffffffffffffffffffffffffffffffffffffff\n      mul\n      not\n      and\n      swap1\n      dup4\n      0xffffffffffffffffffffffffffffffffffffffff\n      and\n      mul\n      or\n      swap1\n      sstore\n      pop\n        /* \"Bitxchange.sol\":1494:1525  RewardPotUpdated(_newRewardPot) */\n      0xecb9755730c832a50c16ea8001a277be77d816b09dc686fe072d4f2285e5cece\n        /* \"Bitxchange.sol\":1511:1524  _newRewardPot */\n      dup2\n        /* \"Bitxchange.sol\":1494:1525  RewardPotUpdated(_newRewardPot) */\n      mload(0x40)\n      tag_85\n      swap2\n      swap1\n      tag_34\n      jump\t// in\n    tag_85:\n      mload(0x40)\n      dup1\n      swap2\n      sub\n      swap1\n      log1\n        /* \"Bitxchange.sol\":1300:1533  function setRewardPot(address _newRewardPot) external onlyOwner {... */\n      pop\n      jump\t// out\n        /* \"@openzeppelin/contracts/access/Ownable.sol\":2293:2394  function renounceOwnership() public virtual onlyOwner {... */\n    tag_24:\n        /* \"@openzeppelin/contracts/access/Ownable.sol\":1531:1544  _checkOwner() */\n      tag_87\n        /* \"@openzeppelin/contracts/access/Ownable.sol\":1531:1542  _checkOwner */\n      tag_80\n        /* \"@openzeppelin/contracts/access/Ownable.sol\":1531:1544  _checkOwner() */\n      jump\t// in\n    tag_87:\n        /* \"@openzeppelin/contracts/access/Ownable.sol\":2357:2387  _transferOwnership(address(0)) */\n      tag_89\n        /* \"@openzeppelin/contracts/access/Ownable.sol\":2384:2385  0 */\n      0x00\n        /* \"@openzeppelin/contracts/access/Ownable.sol\":2357:2375  _transferOwnership */\n      tag_90\n        /* \"@openzeppelin/contracts/access/Ownable.sol\":2357:2387  _transferOwnership(address(0)) */\n      jump\t// in\n    tag_89:\n        /* \"@openzeppelin/contracts/access/Ownable.sol\":2293:2394  function renounceOwnership() public virtual onlyOwner {... */\n      jump\t// out\n        /* \"Bitxchange.sol\":374:413  IUniswapV2Router02 public uniswapRouter */\n    tag_27:\n      0x01\n      0x00\n      swap1\n      sload\n      swap1\n      0x0100\n      exp\n      swap1\n      div\n      0xffffffffffffffffffffffffffffffffffffffff\n      and\n      dup2\n      jump\t// out\n        /* \"@openzeppelin/contracts/access/Ownable.sol\":1638:1723  function owner() public view virtual returns (address) {... */\n    tag_32:\n        /* \"@openzeppelin/contracts/access/Ownable.sol\":1684:1691  address */\n      0x00\n        /* \"@openzeppelin/contracts/access/Ownable.sol\":1710:1716  _owner */\n      dup1\n      0x00\n      swap1\n      sload\n      swap1\n      0x0100\n      exp\n      swap1\n      div\n      0xffffffffffffffffffffffffffffffffffffffff\n      and\n        /* \"@openzeppelin/contracts/access/Ownable.sol\":1703:1716  return _owner */\n      swap1\n      pop\n        /* \"@openzeppelin/contracts/access/Ownable.sol\":1638:1723  function owner() public view virtual returns (address) {... */\n      swap1\n      jump\t// out\n        /* \"Bitxchange.sol\":420:447  IRewardPot public rewardPot */\n    tag_37:\n      0x02\n      0x00\n      swap1\n      sload\n      swap1\n      0x0100\n      exp\n      swap1\n      div\n      0xffffffffffffffffffffffffffffffffffffffff\n      and\n      dup2\n      jump\t// out\n        /* \"Bitxchange.sol\":454:488  uint256 public feePercentage = 500 */\n    tag_42:\n      sload(0x03)\n      dup2\n      jump\t// out\n        /* \"Bitxchange.sol\":2372:3422  function getSwapQuote(address token, uint256 amount, uint256 slippage, uint256 userGasPrice) public view returns (uint256 minAmountOut, uint256 estimatedGasCost, bool canDoSwap) {... */\n    tag_49:\n        /* \"Bitxchange.sol\":2486:2506  uint256 minAmountOut */\n      0x00\n        /* \"Bitxchange.sol\":2508:2532  uint256 estimatedGasCost */\n      dup1\n        /* \"Bitxchange.sol\":2534:2548  bool canDoSwap */\n      0x00\n        /* \"Bitxchange.sol\":2561:2582  address[] memory path */\n      dup1\n        /* \"Bitxchange.sol\":2599:2600  2 */\n      0x02\n        /* \"Bitxchange.sol\":2585:2601  new address[](2) */\n      0xffffffffffffffff\n      dup2\n      gt\n      iszero\n      tag_93\n      jumpi\n      tag_94\n      tag_95\n      jump\t// in\n    tag_94:\n    tag_93:\n      mload(0x40)\n      swap1\n      dup1\n      dup3\n      mstore\n      dup1\n      0x20\n      mul\n      0x20\n      add\n      dup3\n      add\n      0x40\n      mstore\n      dup1\n      iszero\n      tag_96\n      jumpi\n      dup2\n      0x20\n      add\n      0x20\n      dup3\n      mul\n      dup1\n      calldatasize\n      dup4\n      calldatacopy\n      dup1\n      dup3\n      add\n      swap2\n      pop\n      pop\n      swap1\n      pop\n    tag_96:\n      pop\n        /* \"Bitxchange.sol\":2561:2601  address[] memory path = new address[](2) */\n      swap1\n      pop\n        /* \"Bitxchange.sol\":2622:2627  token */\n      dup8\n        /* \"Bitxchange.sol\":2612:2616  path */\n      dup2\n        /* \"Bitxchange.sol\":2617:2618  0 */\n      0x00\n        /* \"Bitxchange.sol\":2612:2619  path[0] */\n      dup2\n      mload\n      dup2\n      lt\n      tag_97\n      jumpi\n      tag_98\n      tag_99\n      jump\t// in\n    tag_98:\n    tag_97:\n      0x20\n      mul\n      0x20\n      add\n      add\n        /* \"Bitxchange.sol\":2612:2627  path[0] = token */\n      swap1\n      0xffffffffffffffffffffffffffffffffffffffff\n      and\n      swap1\n      dup2\n      0xffffffffffffffffffffffffffffffffffffffff\n      and\n      dup2\n      mstore\n      pop\n      pop\n        /* \"Bitxchange.sol\":2648:2661  uniswapRouter */\n      0x01\n      0x00\n      swap1\n      sload\n      swap1\n      0x0100\n      exp\n      swap1\n      div\n      0xffffffffffffffffffffffffffffffffffffffff\n      and\n        /* \"Bitxchange.sol\":2648:2666  uniswapRouter.WETH */\n      0xffffffffffffffffffffffffffffffffffffffff\n      and\n      0xad5c4648\n        /* \"Bitxchange.sol\":2648:2668  uniswapRouter.WETH() */\n      mload(0x40)\n      dup2\n      0xffffffff\n      and\n      0xe0\n      shl\n      dup2\n      mstore\n      0x04\n      add\n      0x20\n      mload(0x40)\n      dup1\n      dup4\n      sub\n      dup2\n      dup7\n      gas\n      staticcall\n      iszero\n      dup1\n      iszero\n      tag_101\n      jumpi\n      returndatasize\n      0x00\n      dup1\n      returndatacopy\n      revert(0x00, returndatasize)\n    tag_101:\n      pop\n      pop\n      pop\n      pop\n      mload(0x40)\n      returndatasize\n      not(0x1f)\n      0x1f\n      dup3\n      add\n      and\n      dup3\n      add\n      dup1\n      0x40\n      mstore\n      pop\n      dup2\n      add\n      swap1\n      tag_102\n      swap2\n      swap1\n      tag_103\n      jump\t// in\n    tag_102:\n        /* \"Bitxchange.sol\":2638:2642  path */\n      dup2\n        /* \"Bitxchange.sol\":2643:2644  1 */\n      0x01\n        /* \"Bitxchange.sol\":2638:2645  path[1] */\n      dup2\n      mload\n      dup2\n      lt\n      tag_104\n      jumpi\n      tag_105\n      tag_99\n      jump\t// in\n    tag_105:\n    tag_104:\n      0x20\n      mul\n      0x20\n      add\n      add\n        /* \"Bitxchange.sol\":2638:2668  path[1] = uniswapRouter.WETH() */\n      swap1\n      0xffffffffffffffffffffffffffffffffffffffff\n      and\n      swap1\n      dup2\n      0xffffffffffffffffffffffffffffffffffffffff\n      and\n      dup2\n      mstore\n      pop\n      pop\n        /* \"Bitxchange.sol\":2759:2786  uint256[] memory amountsOut */\n      0x00\n        /* \"Bitxchange.sol\":2789:2802  uniswapRouter */\n      0x01\n      0x00\n      swap1\n      sload\n      swap1\n      0x0100\n      exp\n      swap1\n      div\n      0xffffffffffffffffffffffffffffffffffffffff\n      and\n        /* \"Bitxchange.sol\":2789:2816  uniswapRouter.getAmountsOut */\n      0xffffffffffffffffffffffffffffffffffffffff\n      and\n      0xd06ca61f\n        /* \"Bitxchange.sol\":2817:2823  amount */\n      dup10\n        /* \"Bitxchange.sol\":2825:2829  path */\n      dup5\n        /* \"Bitxchange.sol\":2789:2830  uniswapRouter.getAmountsOut(amount, path) */\n      mload(0x40)\n      dup4\n      0xffffffff\n      and\n      0xe0\n      shl\n      dup2\n      mstore\n      0x04\n      add\n      tag_106\n      swap3\n      swap2\n      swap1\n      tag_107\n      jump\t// in\n    tag_106:\n      0x00\n      mload(0x40)\n      dup1\n      dup4\n      sub\n      dup2\n      dup7\n      gas\n      staticcall\n      iszero\n      dup1\n      iszero\n      tag_109\n      jumpi\n      returndatasize\n      0x00\n      dup1\n      returndatacopy\n      revert(0x00, returndatasize)\n    tag_109:\n      pop\n      pop\n      pop\n      pop\n      mload(0x40)\n      returndatasize\n      0x00\n      dup3\n      returndatacopy\n      returndatasize\n      not(0x1f)\n      0x1f\n      dup3\n      add\n      and\n      dup3\n      add\n      dup1\n      0x40\n      mstore\n      pop\n      dup2\n      add\n      swap1\n      tag_110\n      swap2\n      swap1\n      tag_111\n      jump\t// in\n    tag_110:\n        /* \"Bitxchange.sol\":2759:2830  uint256[] memory amountsOut = uniswapRouter.getAmountsOut(amount, path) */\n      swap1\n      pop\n        /* \"Bitxchange.sol\":2841:2866  uint256 expectedAmountOut */\n      0x00\n        /* \"Bitxchange.sol\":2869:2879  amountsOut */\n      dup2\n        /* \"Bitxchange.sol\":2880:2881  1 */\n      0x01\n        /* \"Bitxchange.sol\":2869:2882  amountsOut[1] */\n      dup2\n      mload\n      dup2\n      lt\n      tag_112\n      jumpi\n      tag_113\n      tag_99\n      jump\t// in\n    tag_113:\n    tag_112:\n      0x20\n      mul\n      0x20\n      add\n      add\n      mload\n        /* \"Bitxchange.sol\":2841:2882  uint256 expectedAmountOut = amountsOut[1] */\n      swap1\n      pop\n        /* \"Bitxchange.sol\":2978:2983  10000 */\n      0x2710\n        /* \"Bitxchange.sol\":2966:2974  slippage */\n      dup9\n        /* \"Bitxchange.sol\":2958:2963  10000 */\n      0x2710\n        /* \"Bitxchange.sol\":2958:2974  10000 - slippage */\n      tag_114\n      swap2\n      swap1\n      tag_115\n      jump\t// in\n    tag_114:\n        /* \"Bitxchange.sol\":2937:2954  expectedAmountOut */\n      dup3\n        /* \"Bitxchange.sol\":2937:2975  expectedAmountOut * (10000 - slippage) */\n      tag_116\n      swap2\n      swap1\n      tag_117\n      jump\t// in\n    tag_116:\n        /* \"Bitxchange.sol\":2937:2983  expectedAmountOut * (10000 - slippage) / 10000 */\n      tag_118\n      swap2\n      swap1\n      tag_119\n      jump\t// in\n    tag_118:\n        /* \"Bitxchange.sol\":2922:2983  minAmountOut = expectedAmountOut * (10000 - slippage) / 10000 */\n      swap6\n      pop\n        /* \"Bitxchange.sol\":3148:3175  uint256 estimatedGasForSwap */\n      0x00\n        /* \"Bitxchange.sol\":3178:3184  221428 */\n      0x0360f4\n        /* \"Bitxchange.sol\":3148:3184  uint256 estimatedGasForSwap = 221428 */\n      swap1\n      pop\n        /* \"Bitxchange.sol\":3312:3324  userGasPrice */\n      dup8\n        /* \"Bitxchange.sol\":3290:3309  estimatedGasForSwap */\n      dup2\n        /* \"Bitxchange.sol\":3290:3324  estimatedGasForSwap * userGasPrice */\n      tag_120\n      swap2\n      swap1\n      tag_117\n      jump\t// in\n    tag_120:\n        /* \"Bitxchange.sol\":3271:3324  estimatedGasCost = estimatedGasForSwap * userGasPrice */\n      swap6\n      pop\n        /* \"Bitxchange.sol\":3345:3357  minAmountOut */\n      dup7\n        /* \"Bitxchange.sol\":3359:3375  estimatedGasCost */\n      dup7\n        /* \"Bitxchange.sol\":3377:3413  canSwap(token, amount, userGasPrice) */\n      tag_121\n        /* \"Bitxchange.sol\":3385:3390  token */\n      dup14\n        /* \"Bitxchange.sol\":3392:3398  amount */\n      dup14\n        /* \"Bitxchange.sol\":3400:3412  userGasPrice */\n      dup13\n        /* \"Bitxchange.sol\":3377:3384  canSwap */\n      tag_61\n        /* \"Bitxchange.sol\":3377:3413  canSwap(token, amount, userGasPrice) */\n      jump\t// in\n    tag_121:\n        /* \"Bitxchange.sol\":3337:3414  return (minAmountOut, estimatedGasCost, canSwap(token, amount, userGasPrice)) */\n      swap7\n      pop\n      swap7\n      pop\n      swap7\n      pop\n      pop\n      pop\n      pop\n      pop\n        /* \"Bitxchange.sol\":2372:3422  function getSwapQuote(address token, uint256 amount, uint256 slippage, uint256 userGasPrice) public view returns (uint256 minAmountOut, uint256 estimatedGasCost, bool canDoSwap) {... */\n      swap5\n      pop\n      swap5\n      pop\n      swap5\n      swap2\n      pop\n      pop\n      jump\t// out\n        /* \"Bitxchange.sol\":1153:1292  function setFeePercentage(uint256 _newFee) external onlyOwner {... */\n    tag_56:\n        /* \"@openzeppelin/contracts/access/Ownable.sol\":1531:1544  _checkOwner() */\n      tag_123\n        /* \"@openzeppelin/contracts/access/Ownable.sol\":1531:1542  _checkOwner */\n      tag_80\n        /* \"@openzeppelin/contracts/access/Ownable.sol\":1531:1544  _checkOwner() */\n      jump\t// in\n    tag_123:\n        /* \"Bitxchange.sol\":1242:1249  _newFee */\n      dup1\n        /* \"Bitxchange.sol\":1226:1239  feePercentage */\n      0x03\n        /* \"Bitxchange.sol\":1226:1249  feePercentage = _newFee */\n      dup2\n      swap1\n      sstore\n      pop\n        /* \"Bitxchange.sol\":1265:1284  FeeUpdated(_newFee) */\n      0x8c4d35e54a3f2ef1134138fd8ea3daee6a3c89e10d2665996babdf70261e2c76\n        /* \"Bitxchange.sol\":1276:1283  _newFee */\n      dup2\n        /* \"Bitxchange.sol\":1265:1284  FeeUpdated(_newFee) */\n      mload(0x40)\n      tag_125\n      swap2\n      swap1\n      tag_44\n      jump\t// in\n    tag_125:\n      mload(0x40)\n      dup1\n      swap2\n      sub\n      swap1\n      log1\n        /* \"Bitxchange.sol\":1153:1292  function setFeePercentage(uint256 _newFee) external onlyOwner {... */\n      pop\n      jump\t// out\n        /* \"Bitxchange.sol\":1589:2364  function canSwap(address token, uint256 amountIn, uint256 userGasPrice) public view returns (bool) {... */\n    tag_61:\n        /* \"Bitxchange.sol\":1682:1686  bool */\n      0x00\n        /* \"Bitxchange.sol\":1699:1720  address[] memory path */\n      dup1\n        /* \"Bitxchange.sol\":1737:1738  2 */\n      0x02\n        /* \"Bitxchange.sol\":1723:1739  new address[](2) */\n      0xffffffffffffffff\n      dup2\n      gt\n      iszero\n      tag_127\n      jumpi\n      tag_128\n      tag_95\n      jump\t// in\n    tag_128:\n    tag_127:\n      mload(0x40)\n      swap1\n      dup1\n      dup3\n      mstore\n      dup1\n      0x20\n      mul\n      0x20\n      add\n      dup3\n      add\n      0x40\n      mstore\n      dup1\n      iszero\n      tag_129\n      jumpi\n      dup2\n      0x20\n      add\n      0x20\n      dup3\n      mul\n      dup1\n      calldatasize\n      dup4\n      calldatacopy\n      dup1\n      dup3\n      add\n      swap2\n      pop\n      pop\n      swap1\n      pop\n    tag_129:\n      pop\n        /* \"Bitxchange.sol\":1699:1739  address[] memory path = new address[](2) */\n      swap1\n      pop\n        /* \"Bitxchange.sol\":1760:1765  token */\n      dup5\n        /* \"Bitxchange.sol\":1750:1754  path */\n      dup2\n        /* \"Bitxchange.sol\":1755:1756  0 */\n      0x00\n        /* \"Bitxchange.sol\":1750:1757  path[0] */\n      dup2\n      mload\n      dup2\n      lt\n      tag_130\n      jumpi\n      tag_131\n      tag_99\n      jump\t// in\n    tag_131:\n    tag_130:\n      0x20\n      mul\n      0x20\n      add\n      add\n        /* \"Bitxchange.sol\":1750:1765  path[0] = token */\n      swap1\n      0xffffffffffffffffffffffffffffffffffffffff\n      and\n      swap1\n      dup2\n      0xffffffffffffffffffffffffffffffffffffffff\n      and\n      dup2\n      mstore\n      pop\n      pop\n        /* \"Bitxchange.sol\":1786:1799  uniswapRouter */\n      0x01\n      0x00\n      swap1\n      sload\n      swap1\n      0x0100\n      exp\n      swap1\n      div\n      0xffffffffffffffffffffffffffffffffffffffff\n      and\n        /* \"Bitxchange.sol\":1786:1804  uniswapRouter.WETH */\n      0xffffffffffffffffffffffffffffffffffffffff\n      and\n      0xad5c4648\n        /* \"Bitxchange.sol\":1786:1806  uniswapRouter.WETH() */\n      mload(0x40)\n      dup2\n      0xffffffff\n      and\n      0xe0\n      shl\n      dup2\n      mstore\n      0x04\n      add\n      0x20\n      mload(0x40)\n      dup1\n      dup4\n      sub\n      dup2\n      dup7\n      gas\n      staticcall\n      iszero\n      dup1\n      iszero\n      tag_133\n      jumpi\n      returndatasize\n      0x00\n      dup1\n      returndatacopy\n      revert(0x00, returndatasize)\n    tag_133:\n      pop\n      pop\n      pop\n      pop\n      mload(0x40)\n      returndatasize\n      not(0x1f)\n      0x1f\n      dup3\n      add\n      and\n      dup3\n      add\n      dup1\n      0x40\n      mstore\n      pop\n      dup2\n      add\n      swap1\n      tag_134\n      swap2\n      swap1\n      tag_103\n      jump\t// in\n    tag_134:\n        /* \"Bitxchange.sol\":1776:1780  path */\n      dup2\n        /* \"Bitxchange.sol\":1781:1782  1 */\n      0x01\n        /* \"Bitxchange.sol\":1776:1783  path[1] */\n      dup2\n      mload\n      dup2\n      lt\n      tag_135\n      jumpi\n      tag_136\n      tag_99\n      jump\t// in\n    tag_136:\n    tag_135:\n      0x20\n      mul\n      0x20\n      add\n      add\n        /* \"Bitxchange.sol\":1776:1806  path[1] = uniswapRouter.WETH() */\n      swap1\n      0xffffffffffffffffffffffffffffffffffffffff\n      and\n      swap1\n      dup2\n      0xffffffffffffffffffffffffffffffffffffffff\n      and\n      dup2\n      mstore\n      pop\n      pop\n        /* \"Bitxchange.sol\":1878:1905  uint256[] memory amountsOut */\n      0x00\n        /* \"Bitxchange.sol\":1908:1921  uniswapRouter */\n      0x01\n      0x00\n      swap1\n      sload\n      swap1\n      0x0100\n      exp\n      swap1\n      div\n      0xffffffffffffffffffffffffffffffffffffffff\n      and\n        /* \"Bitxchange.sol\":1908:1935  uniswapRouter.getAmountsOut */\n      0xffffffffffffffffffffffffffffffffffffffff\n      and\n      0xd06ca61f\n        /* \"Bitxchange.sol\":1936:1944  amountIn */\n      dup7\n        /* \"Bitxchange.sol\":1946:1950  path */\n      dup5\n        /* \"Bitxchange.sol\":1908:1951  uniswapRouter.getAmountsOut(amountIn, path) */\n      mload(0x40)\n      dup4\n      0xffffffff\n      and\n      0xe0\n      shl\n      dup2\n      mstore\n      0x04\n      add\n      tag_137\n      swap3\n      swap2\n      swap1\n      tag_107\n      jump\t// in\n    tag_137:\n      0x00\n      mload(0x40)\n      dup1\n      dup4\n      sub\n      dup2\n      dup7\n      gas\n      staticcall\n      iszero\n      dup1\n      iszero\n      tag_139\n      jumpi\n      returndatasize\n      0x00\n      dup1\n      returndatacopy\n      revert(0x00, returndatasize)\n    tag_139:\n      pop\n      pop\n      pop\n      pop\n      mload(0x40)\n      returndatasize\n      0x00\n      dup3\n      returndatacopy\n      returndatasize\n      not(0x1f)\n      0x1f\n      dup3\n      add\n      and\n      dup3\n      add\n      dup1\n      0x40\n      mstore\n      pop\n      dup2\n      add\n      swap1\n      tag_140\n      swap2\n      swap1\n      tag_111\n      jump\t// in\n    tag_140:\n        /* \"Bitxchange.sol\":1878:1951  uint256[] memory amountsOut = uniswapRouter.getAmountsOut(amountIn, path) */\n      swap1\n      pop\n        /* \"Bitxchange.sol\":1983:1984  0 */\n      0x00\n        /* \"Bitxchange.sol\":1966:1976  amountsOut */\n      dup2\n        /* \"Bitxchange.sol\":1977:1978  1 */\n      0x01\n        /* \"Bitxchange.sol\":1966:1979  amountsOut[1] */\n      dup2\n      mload\n      dup2\n      lt\n      tag_141\n      jumpi\n      tag_142\n      tag_99\n      jump\t// in\n    tag_142:\n    tag_141:\n      0x20\n      mul\n      0x20\n      add\n      add\n      mload\n        /* \"Bitxchange.sol\":1966:1984  amountsOut[1] == 0 */\n      sub\n        /* \"Bitxchange.sol\":1962:2025  if (amountsOut[1] == 0) {... */\n      tag_143\n      jumpi\n        /* \"Bitxchange.sol\":2008:2013  false */\n      0x00\n        /* \"Bitxchange.sol\":2001:2013  return false */\n      swap3\n      pop\n      pop\n      pop\n      jump(tag_126)\n        /* \"Bitxchange.sol\":1962:2025  if (amountsOut[1] == 0) {... */\n    tag_143:\n        /* \"Bitxchange.sol\":2111:2138  uint256 estimatedGasForSwap */\n      0x00\n        /* \"Bitxchange.sol\":2141:2147  221428 */\n      0x0360f4\n        /* \"Bitxchange.sol\":2111:2147  uint256 estimatedGasForSwap = 221428 */\n      swap1\n      pop\n        /* \"Bitxchange.sol\":2183:2207  uint256 estimatedGasCost */\n      0x00\n        /* \"Bitxchange.sol\":2232:2244  userGasPrice */\n      dup6\n        /* \"Bitxchange.sol\":2210:2229  estimatedGasForSwap */\n      dup3\n        /* \"Bitxchange.sol\":2210:2244  estimatedGasForSwap * userGasPrice */\n      tag_144\n      swap2\n      swap1\n      tag_117\n      jump\t// in\n    tag_144:\n        /* \"Bitxchange.sol\":2183:2244  uint256 estimatedGasCost = estimatedGasForSwap * userGasPrice */\n      swap1\n      pop\n        /* \"Bitxchange.sol\":2279:2289  amountsOut */\n      dup3\n        /* \"Bitxchange.sol\":2290:2291  1 */\n      0x01\n        /* \"Bitxchange.sol\":2279:2292  amountsOut[1] */\n      dup2\n      mload\n      dup2\n      lt\n      tag_145\n      jumpi\n      tag_146\n      tag_99\n      jump\t// in\n    tag_146:\n    tag_145:\n      0x20\n      mul\n      0x20\n      add\n      add\n      mload\n        /* \"Bitxchange.sol\":2259:2275  estimatedGasCost */\n      dup2\n        /* \"Bitxchange.sol\":2259:2292  estimatedGasCost >= amountsOut[1] */\n      lt\n        /* \"Bitxchange.sol\":2255:2333  if (estimatedGasCost >= amountsOut[1]) {... */\n      tag_147\n      jumpi\n        /* \"Bitxchange.sol\":2316:2321  false */\n      0x00\n        /* \"Bitxchange.sol\":2309:2321  return false */\n      swap5\n      pop\n      pop\n      pop\n      pop\n      pop\n      jump(tag_126)\n        /* \"Bitxchange.sol\":2255:2333  if (estimatedGasCost >= amountsOut[1]) {... */\n    tag_147:\n        /* \"Bitxchange.sol\":2352:2356  true */\n      0x01\n        /* \"Bitxchange.sol\":2345:2356  return true */\n      swap5\n      pop\n      pop\n      pop\n      pop\n      pop\n        /* \"Bitxchange.sol\":1589:2364  function canSwap(address token, uint256 amountIn, uint256 userGasPrice) public view returns (bool) {... */\n    tag_126:\n      swap4\n      swap3\n      pop\n      pop\n      pop\n      jump\t// out\n        /* \"Bitxchange.sol\":3434:4920  function swapTokensForETH(address token, uint256 amount, uint256 minAmountOut) external onlyOwner {... */\n    tag_67:\n        /* \"@openzeppelin/contracts/access/Ownable.sol\":1531:1544  _checkOwner() */\n      tag_149\n        /* \"@openzeppelin/contracts/access/Ownable.sol\":1531:1542  _checkOwner */\n      tag_80\n        /* \"@openzeppelin/contracts/access/Ownable.sol\":1531:1544  _checkOwner() */\n      jump\t// in\n    tag_149:\n        /* \"Bitxchange.sol\":3604:3631  uint256 estimatedGasForSwap */\n      0x00\n        /* \"Bitxchange.sol\":3634:3640  221428 */\n      0x0360f4\n        /* \"Bitxchange.sol\":3604:3640  uint256 estimatedGasForSwap = 221428 */\n      swap1\n      pop\n        /* \"Bitxchange.sol\":3676:3700  uint256 estimatedGasCost */\n      0x00\n        /* \"Bitxchange.sol\":3725:3736  tx.gasprice */\n      gasprice\n        /* \"Bitxchange.sol\":3703:3722  estimatedGasForSwap */\n      dup3\n        /* \"Bitxchange.sol\":3703:3736  estimatedGasForSwap * tx.gasprice */\n      tag_151\n      swap2\n      swap1\n      tag_117\n      jump\t// in\n    tag_151:\n        /* \"Bitxchange.sol\":3676:3736  uint256 estimatedGasCost = estimatedGasForSwap * tx.gasprice */\n      swap1\n      pop\n        /* \"Bitxchange.sol\":3774:3786  minAmountOut */\n      dup3\n        /* \"Bitxchange.sol\":3755:3771  estimatedGasCost */\n      dup2\n        /* \"Bitxchange.sol\":3755:3786  estimatedGasCost < minAmountOut */\n      lt\n        /* \"Bitxchange.sol\":3747:3830  require(estimatedGasCost < minAmountOut, \"Estimated gas cost exceeds minAmountOut\") */\n      tag_152\n      jumpi\n      mload(0x40)\n      0x08c379a000000000000000000000000000000000000000000000000000000000\n      dup2\n      mstore\n      0x04\n      add\n      tag_153\n      swap1\n      tag_154\n      jump\t// in\n    tag_153:\n      mload(0x40)\n      dup1\n      swap2\n      sub\n      swap1\n      revert\n    tag_152:\n        /* \"Bitxchange.sol\":3849:3885  canSwap(token, amount,  tx.gasprice) */\n      tag_155\n        /* \"Bitxchange.sol\":3857:3862  token */\n      dup6\n        /* \"Bitxchange.sol\":3864:3870  amount */\n      dup6\n        /* \"Bitxchange.sol\":3873:3884  tx.gasprice */\n      gasprice\n        /* \"Bitxchange.sol\":3849:3856  canSwap */\n      tag_61\n        /* \"Bitxchange.sol\":3849:3885  canSwap(token, amount,  tx.gasprice) */\n      jump\t// in\n    tag_155:\n        /* \"Bitxchange.sol\":3841:3911  require(canSwap(token, amount,  tx.gasprice), \"Swap Expected to Fail\") */\n      tag_156\n      jumpi\n      mload(0x40)\n      0x08c379a000000000000000000000000000000000000000000000000000000000\n      dup2\n      mstore\n      0x04\n      add\n      tag_157\n      swap1\n      tag_158\n      jump\t// in\n    tag_157:\n      mload(0x40)\n      dup1\n      swap2\n      sub\n      swap1\n      revert\n    tag_156:\n        /* \"Bitxchange.sol\":3958:3963  token */\n      dup5\n        /* \"Bitxchange.sol\":3951:3977  IERC20(token).transferFrom */\n      0xffffffffffffffffffffffffffffffffffffffff\n      and\n      0x23b872dd\n        /* \"Bitxchange.sol\":3978:3988  msg.sender */\n      caller\n        /* \"Bitxchange.sol\":3998:4002  this */\n      address\n        /* \"Bitxchange.sol\":4005:4011  amount */\n      dup8\n        /* \"Bitxchange.sol\":3951:4012  IERC20(token).transferFrom(msg.sender, address(this), amount) */\n      mload(0x40)\n      dup5\n      0xffffffff\n      and\n      0xe0\n      shl\n      dup2\n      mstore\n      0x04\n      add\n      tag_159\n      swap4\n      swap3\n      swap2\n      swap1\n      tag_160\n      jump\t// in\n    tag_159:\n      0x20\n      mload(0x40)\n      dup1\n      dup4\n      sub\n      dup2\n      0x00\n      dup8\n      gas\n      call\n      iszero\n      dup1\n      iszero\n      tag_162\n      jumpi\n      returndatasize\n      0x00\n      dup1\n      returndatacopy\n      revert(0x00, returndatasize)\n    tag_162:\n      pop\n      pop\n      pop\n      pop\n      mload(0x40)\n      returndatasize\n      not(0x1f)\n      0x1f\n      dup3\n      add\n      and\n      dup3\n      add\n      dup1\n      0x40\n      mstore\n      pop\n      dup2\n      add\n      swap1\n      tag_163\n      swap2\n      swap1\n      tag_164\n      jump\t// in\n    tag_163:\n      pop\n        /* \"Bitxchange.sol\":4030:4035  token */\n      dup5\n        /* \"Bitxchange.sol\":4023:4044  IERC20(token).approve */\n      0xffffffffffffffffffffffffffffffffffffffff\n      and\n      0x095ea7b3\n        /* \"Bitxchange.sol\":4053:4066  uniswapRouter */\n      0x01\n      0x00\n      swap1\n      sload\n      swap1\n      0x0100\n      exp\n      swap1\n      div\n      0xffffffffffffffffffffffffffffffffffffffff\n      and\n        /* \"Bitxchange.sol\":4069:4075  amount */\n      dup7\n        /* \"Bitxchange.sol\":4023:4076  IERC20(token).approve(address(uniswapRouter), amount) */\n      mload(0x40)\n      dup4\n      0xffffffff\n      and\n      0xe0\n      shl\n      dup2\n      mstore\n      0x04\n      add\n      tag_165\n      swap3\n      swap2\n      swap1\n      tag_166\n      jump\t// in\n    tag_165:\n      0x20\n      mload(0x40)\n      dup1\n      dup4\n      sub\n      dup2\n      0x00\n      dup8\n      gas\n      call\n      iszero\n      dup1\n      iszero\n      tag_168\n      jumpi\n      returndatasize\n      0x00\n      dup1\n      returndatacopy\n      revert(0x00, returndatasize)\n    tag_168:\n      pop\n      pop\n      pop\n      pop\n      mload(0x40)\n      returndatasize\n      not(0x1f)\n      0x1f\n      dup3\n      add\n      and\n      dup3\n      add\n      dup1\n      0x40\n      mstore\n      pop\n      dup2\n      add\n      swap1\n      tag_169\n      swap2\n      swap1\n      tag_164\n      jump\t// in\n    tag_169:\n      pop\n        /* \"Bitxchange.sol\":4089:4110  address[] memory path */\n      0x00\n        /* \"Bitxchange.sol\":4127:4128  2 */\n      0x02\n        /* \"Bitxchange.sol\":4113:4129  new address[](2) */\n      0xffffffffffffffff\n      dup2\n      gt\n      iszero\n      tag_170\n      jumpi\n      tag_171\n      tag_95\n      jump\t// in\n    tag_171:\n    tag_170:\n      mload(0x40)\n      swap1\n      dup1\n      dup3\n      mstore\n      dup1\n      0x20\n      mul\n      0x20\n      add\n      dup3\n      add\n      0x40\n      mstore\n      dup1\n      iszero\n      tag_172\n      jumpi\n      dup2\n      0x20\n      add\n      0x20\n      dup3\n      mul\n      dup1\n      calldatasize\n      dup4\n      calldatacopy\n      dup1\n      dup3\n      add\n      swap2\n      pop\n      pop\n      swap1\n      pop\n    tag_172:\n      pop\n        /* \"Bitxchange.sol\":4089:4129  address[] memory path = new address[](2) */\n      swap1\n      pop\n        /* \"Bitxchange.sol\":4150:4155  token */\n      dup6\n        /* \"Bitxchange.sol\":4140:4144  path */\n      dup2\n        /* \"Bitxchange.sol\":4145:4146  0 */\n      0x00\n        /* \"Bitxchange.sol\":4140:4147  path[0] */\n      dup2\n      mload\n      dup2\n      lt\n      tag_173\n      jumpi\n      tag_174\n      tag_99\n      jump\t// in\n    tag_174:\n    tag_173:\n      0x20\n      mul\n      0x20\n      add\n      add\n        /* \"Bitxchange.sol\":4140:4155  path[0] = token */\n      swap1\n      0xffffffffffffffffffffffffffffffffffffffff\n      and\n      swap1\n      dup2\n      0xffffffffffffffffffffffffffffffffffffffff\n      and\n      dup2\n      mstore\n      pop\n      pop\n        /* \"Bitxchange.sol\":4176:4189  uniswapRouter */\n      0x01\n      0x00\n      swap1\n      sload\n      swap1\n      0x0100\n      exp\n      swap1\n      div\n      0xffffffffffffffffffffffffffffffffffffffff\n      and\n        /* \"Bitxchange.sol\":4176:4194  uniswapRouter.WETH */\n      0xffffffffffffffffffffffffffffffffffffffff\n      and\n      0xad5c4648\n        /* \"Bitxchange.sol\":4176:4196  uniswapRouter.WETH() */\n      mload(0x40)\n      dup2\n      0xffffffff\n      and\n      0xe0\n      shl\n      dup2\n      mstore\n      0x04\n      add\n      0x20\n      mload(0x40)\n      dup1\n      dup4\n      sub\n      dup2\n      dup7\n      gas\n      staticcall\n      iszero\n      dup1\n      iszero\n      tag_176\n      jumpi\n      returndatasize\n      0x00\n      dup1\n      returndatacopy\n      revert(0x00, returndatasize)\n    tag_176:\n      pop\n      pop\n      pop\n      pop\n      mload(0x40)\n      returndatasize\n      not(0x1f)\n      0x1f\n      dup3\n      add\n      and\n      dup3\n      add\n      dup1\n      0x40\n      mstore\n      pop\n      dup2\n      add\n      swap1\n      tag_177\n      swap2\n      swap1\n      tag_103\n      jump\t// in\n    tag_177:\n        /* \"Bitxchange.sol\":4166:4170  path */\n      dup2\n        /* \"Bitxchange.sol\":4171:4172  1 */\n      0x01\n        /* \"Bitxchange.sol\":4166:4173  path[1] */\n      dup2\n      mload\n      dup2\n      lt\n      tag_178\n      jumpi\n      tag_179\n      tag_99\n      jump\t// in\n    tag_179:\n    tag_178:\n      0x20\n      mul\n      0x20\n      add\n      add\n        /* \"Bitxchange.sol\":4166:4196  path[1] = uniswapRouter.WETH() */\n      swap1\n      0xffffffffffffffffffffffffffffffffffffffff\n      and\n      swap1\n      dup2\n      0xffffffffffffffffffffffffffffffffffffffff\n      and\n      dup2\n      mstore\n      pop\n      pop\n        /* \"Bitxchange.sol\":4209:4233  uint256[] memory amounts */\n      0x00\n        /* \"Bitxchange.sol\":4236:4249  uniswapRouter */\n      0x01\n      0x00\n      swap1\n      sload\n      swap1\n      0x0100\n      exp\n      swap1\n      div\n      0xffffffffffffffffffffffffffffffffffffffff\n      and\n        /* \"Bitxchange.sol\":4236:4271  uniswapRouter.swapExactTokensForETH */\n      0xffffffffffffffffffffffffffffffffffffffff\n      and\n      0x18cbafe5\n        /* \"Bitxchange.sol\":4272:4278  amount */\n      dup8\n        /* \"Bitxchange.sol\":4280:4292  minAmountOut */\n      dup8\n        /* \"Bitxchange.sol\":4294:4298  path */\n      dup6\n        /* \"Bitxchange.sol\":4308:4312  this */\n      address\n        /* \"Bitxchange.sol\":4315:4330  block.timestamp */\n      timestamp\n        /* \"Bitxchange.sol\":4236:4331  uniswapRouter.swapExactTokensForETH(amount, minAmountOut, path, address(this), block.timestamp) */\n      mload(0x40)\n      dup7\n      0xffffffff\n      and\n      0xe0\n      shl\n      dup2\n      mstore\n      0x04\n      add\n      tag_180\n      swap6\n      swap5\n      swap4\n      swap3\n      swap2\n      swap1\n      tag_181\n      jump\t// in\n    tag_180:\n      0x00\n      mload(0x40)\n      dup1\n      dup4\n      sub\n      dup2\n      0x00\n      dup8\n      gas\n      call\n      iszero\n      dup1\n      iszero\n      tag_183\n      jumpi\n      returndatasize\n      0x00\n      dup1\n      returndatacopy\n      revert(0x00, returndatasize)\n    tag_183:\n      pop\n      pop\n      pop\n      pop\n      mload(0x40)\n      returndatasize\n      0x00\n      dup3\n      returndatacopy\n      returndatasize\n      not(0x1f)\n      0x1f\n      dup3\n      add\n      and\n      dup3\n      add\n      dup1\n      0x40\n      mstore\n      pop\n      dup2\n      add\n      swap1\n      tag_184\n      swap2\n      swap1\n      tag_111\n      jump\t// in\n    tag_184:\n        /* \"Bitxchange.sol\":4209:4331  uint256[] memory amounts = uniswapRouter.swapExactTokensForETH(amount, minAmountOut, path, address(this), block.timestamp) */\n      swap1\n      pop\n        /* \"Bitxchange.sol\":4342:4361  uint256 receivedETH */\n      0x00\n        /* \"Bitxchange.sol\":4364:4371  amounts */\n      dup2\n        /* \"Bitxchange.sol\":4372:4373  1 */\n      0x01\n        /* \"Bitxchange.sol\":4364:4374  amounts[1] */\n      dup2\n      mload\n      dup2\n      lt\n      tag_185\n      jumpi\n      tag_186\n      tag_99\n      jump\t// in\n    tag_186:\n    tag_185:\n      0x20\n      mul\n      0x20\n      add\n      add\n      mload\n        /* \"Bitxchange.sol\":4342:4374  uint256 receivedETH = amounts[1] */\n      swap1\n      pop\n        /* \"Bitxchange.sol\":4426:4437  uint256 fee */\n      0x00\n        /* \"Bitxchange.sol\":4472:4477  10000 */\n      0x2710\n        /* \"Bitxchange.sol\":4455:4468  feePercentage */\n      sload(0x03)\n        /* \"Bitxchange.sol\":4441:4452  receivedETH */\n      dup4\n        /* \"Bitxchange.sol\":4441:4468  receivedETH * feePercentage */\n      tag_187\n      swap2\n      swap1\n      tag_117\n      jump\t// in\n    tag_187:\n        /* \"Bitxchange.sol\":4440:4477  (receivedETH * feePercentage) / 10000 */\n      tag_188\n      swap2\n      swap1\n      tag_119\n      jump\t// in\n    tag_188:\n        /* \"Bitxchange.sol\":4426:4477  uint256 fee = (receivedETH * feePercentage) / 10000 */\n      swap1\n      pop\n        /* \"Bitxchange.sol\":4488:4508  uint256 rewardPotFee */\n      0x00\n        /* \"Bitxchange.sol\":4524:4527  100 */\n      0x64\n        /* \"Bitxchange.sol\":4518:4520  90 */\n      0x5a\n        /* \"Bitxchange.sol\":4512:4515  fee */\n      dup4\n        /* \"Bitxchange.sol\":4512:4520  fee * 90 */\n      tag_189\n      swap2\n      swap1\n      tag_117\n      jump\t// in\n    tag_189:\n        /* \"Bitxchange.sol\":4511:4527  (fee * 90) / 100 */\n      tag_190\n      swap2\n      swap1\n      tag_119\n      jump\t// in\n    tag_190:\n        /* \"Bitxchange.sol\":4488:4527  uint256 rewardPotFee = (fee * 90) / 100 */\n      swap1\n      pop\n        /* \"Bitxchange.sol\":4538:4557  uint256 contractFee */\n      0x00\n        /* \"Bitxchange.sol\":4566:4578  rewardPotFee */\n      dup2\n        /* \"Bitxchange.sol\":4560:4563  fee */\n      dup4\n        /* \"Bitxchange.sol\":4560:4578  fee - rewardPotFee */\n      tag_191\n      swap2\n      swap1\n      tag_115\n      jump\t// in\n    tag_191:\n        /* \"Bitxchange.sol\":4538:4578  uint256 contractFee = fee - rewardPotFee */\n      swap1\n      pop\n        /* \"Bitxchange.sol\":4591:4600  rewardPot */\n      0x02\n      0x00\n      swap1\n      sload\n      swap1\n      0x0100\n      exp\n      swap1\n      div\n      0xffffffffffffffffffffffffffffffffffffffff\n      and\n        /* \"Bitxchange.sol\":4591:4615  rewardPot.addToRewardPot */\n      0xffffffffffffffffffffffffffffffffffffffff\n      and\n      0x099da9e9\n        /* \"Bitxchange.sol\":4616:4628  rewardPotFee */\n      dup4\n        /* \"Bitxchange.sol\":4591:4629  rewardPot.addToRewardPot(rewardPotFee) */\n      mload(0x40)\n      dup3\n      0xffffffff\n      and\n      0xe0\n      shl\n      dup2\n      mstore\n      0x04\n      add\n      tag_192\n      swap2\n      swap1\n      tag_44\n      jump\t// in\n    tag_192:\n      0x00\n      mload(0x40)\n      dup1\n      dup4\n      sub\n      dup2\n      0x00\n      dup8\n      dup1\n      extcodesize\n      iszero\n      dup1\n      iszero\n      tag_193\n      jumpi\n      0x00\n      dup1\n      revert\n    tag_193:\n      pop\n      gas\n      call\n      iszero\n      dup1\n      iszero\n      tag_195\n      jumpi\n      returndatasize\n      0x00\n      dup1\n      returndatacopy\n      revert(0x00, returndatasize)\n    tag_195:\n      pop\n      pop\n      pop\n      pop\n        /* \"Bitxchange.sol\":4648:4655  owner() */\n      tag_196\n        /* \"Bitxchange.sol\":4648:4653  owner */\n      tag_32\n        /* \"Bitxchange.sol\":4648:4655  owner() */\n      jump\t// in\n    tag_196:\n        /* \"Bitxchange.sol\":4640:4665  payable(owner()).transfer */\n      0xffffffffffffffffffffffffffffffffffffffff\n      and\n        /* \"Bitxchange.sol\":4640:4678  payable(owner()).transfer(contractFee) */\n      0x08fc\n        /* \"Bitxchange.sol\":4666:4677  contractFee */\n      dup3\n        /* \"Bitxchange.sol\":4640:4678  payable(owner()).transfer(contractFee) */\n      swap1\n      dup2\n      iszero\n      mul\n      swap1\n      mload(0x40)\n      0x00\n      mload(0x40)\n      dup1\n      dup4\n      sub\n      dup2\n      dup6\n      dup9\n      dup9\n      call\n      swap4\n      pop\n      pop\n      pop\n      pop\n      iszero\n      dup1\n      iszero\n      tag_198\n      jumpi\n      returndatasize\n      0x00\n      dup1\n      returndatacopy\n      revert(0x00, returndatasize)\n    tag_198:\n      pop\n        /* \"Bitxchange.sol\":4754:4774  uint256 remainingETH */\n      0x00\n        /* \"Bitxchange.sol\":4791:4794  fee */\n      dup4\n        /* \"Bitxchange.sol\":4777:4788  receivedETH */\n      dup6\n        /* \"Bitxchange.sol\":4777:4794  receivedETH - fee */\n      tag_199\n      swap2\n      swap1\n      tag_115\n      jump\t// in\n    tag_199:\n        /* \"Bitxchange.sol\":4754:4794  uint256 remainingETH = receivedETH - fee */\n      swap1\n      pop\n        /* \"Bitxchange.sol\":4813:4823  msg.sender */\n      caller\n        /* \"Bitxchange.sol\":4805:4833  payable(msg.sender).transfer */\n      0xffffffffffffffffffffffffffffffffffffffff\n      and\n        /* \"Bitxchange.sol\":4805:4847  payable(msg.sender).transfer(remainingETH) */\n      0x08fc\n        /* \"Bitxchange.sol\":4834:4846  remainingETH */\n      dup3\n        /* \"Bitxchange.sol\":4805:4847  payable(msg.sender).transfer(remainingETH) */\n      swap1\n      dup2\n      iszero\n      mul\n      swap1\n      mload(0x40)\n      0x00\n      mload(0x40)\n      dup1\n      dup4\n      sub\n      dup2\n      dup6\n      dup9\n      dup9\n      call\n      swap4\n      pop\n      pop\n      pop\n      pop\n      iszero\n      dup1\n      iszero\n      tag_201\n      jumpi\n      returndatasize\n      0x00\n      dup1\n      returndatacopy\n      revert(0x00, returndatasize)\n    tag_201:\n      pop\n        /* \"Bitxchange.sol\":4880:4890  msg.sender */\n      caller\n        /* \"Bitxchange.sol\":4865:4912  SwapSuccessful(msg.sender, amount, receivedETH) */\n      0xffffffffffffffffffffffffffffffffffffffff\n      and\n      0xd0dcb5d6ccbc65558941eda1d0add99921923cc1868a41bbf8d224258a21396d\n        /* \"Bitxchange.sol\":4892:4898  amount */\n      dup13\n        /* \"Bitxchange.sol\":4900:4911  receivedETH */\n      dup8\n        /* \"Bitxchange.sol\":4865:4912  SwapSuccessful(msg.sender, amount, receivedETH) */\n      mload(0x40)\n      tag_202\n      swap3\n      swap2\n      swap1\n      tag_203\n      jump\t// in\n    tag_202:\n      mload(0x40)\n      dup1\n      swap2\n      sub\n      swap1\n      log2\n        /* \"Bitxchange.sol\":3532:4920  {... */\n      pop\n      pop\n      pop\n      pop\n      pop\n      pop\n      pop\n      pop\n      pop\n        /* \"Bitxchange.sol\":3434:4920  function swapTokensForETH(address token, uint256 amount, uint256 minAmountOut) external onlyOwner {... */\n      pop\n      pop\n      pop\n      jump\t// out\n        /* \"Bitxchange.sol\":1037:1145  function withdrawETH(uint256 amount) external onlyOwner {... */\n    tag_71:\n        /* \"@openzeppelin/contracts/access/Ownable.sol\":1531:1544  _checkOwner() */\n      tag_205\n        /* \"@openzeppelin/contracts/access/Ownable.sol\":1531:1542  _checkOwner */\n      tag_80\n        /* \"@openzeppelin/contracts/access/Ownable.sol\":1531:1544  _checkOwner() */\n      jump\t// in\n    tag_205:\n        /* \"Bitxchange.sol\":1112:1119  owner() */\n      tag_207\n        /* \"Bitxchange.sol\":1112:1117  owner */\n      tag_32\n        /* \"Bitxchange.sol\":1112:1119  owner() */\n      jump\t// in\n    tag_207:\n        /* \"Bitxchange.sol\":1104:1129  payable(owner()).transfer */\n      0xffffffffffffffffffffffffffffffffffffffff\n      and\n        /* \"Bitxchange.sol\":1104:1137  payable(owner()).transfer(amount) */\n      0x08fc\n        /* \"Bitxchange.sol\":1130:1136  amount */\n      dup3\n        /* \"Bitxchange.sol\":1104:1137  payable(owner()).transfer(amount) */\n      swap1\n      dup2\n      iszero\n      mul\n      swap1\n      mload(0x40)\n      0x00\n      mload(0x40)\n      dup1\n      dup4\n      sub\n      dup2\n      dup6\n      dup9\n      dup9\n      call\n      swap4\n      pop\n      pop\n      pop\n      pop\n      iszero\n      dup1\n      iszero\n      tag_209\n      jumpi\n      returndatasize\n      0x00\n      dup1\n      returndatacopy\n      revert(0x00, returndatasize)\n    tag_209:\n      pop\n        /* \"Bitxchange.sol\":1037:1145  function withdrawETH(uint256 amount) external onlyOwner {... */\n      pop\n      jump\t// out\n        /* \"@openzeppelin/contracts/access/Ownable.sol\":2543:2758  function transferOwnership(address newOwner) public virtual onlyOwner {... */\n    tag_75:\n        /* \"@openzeppelin/contracts/access/Ownable.sol\":1531:1544  _checkOwner() */\n      tag_211\n        /* \"@openzeppelin/contracts/access/Ownable.sol\":1531:1542  _checkOwner */\n      tag_80\n        /* \"@openzeppelin/contracts/access/Ownable.sol\":1531:1544  _checkOwner() */\n      jump\t// in\n    tag_211:\n        /* \"@openzeppelin/contracts/access/Ownable.sol\":2647:2648  0 */\n      0x00\n        /* \"@openzeppelin/contracts/access/Ownable.sol\":2627:2649  newOwner == address(0) */\n      0xffffffffffffffffffffffffffffffffffffffff\n      and\n        /* \"@openzeppelin/contracts/access/Ownable.sol\":2627:2635  newOwner */\n      dup2\n        /* \"@openzeppelin/contracts/access/Ownable.sol\":2627:2649  newOwner == address(0) */\n      0xffffffffffffffffffffffffffffffffffffffff\n      and\n      sub\n        /* \"@openzeppelin/contracts/access/Ownable.sol\":2623:2714  if (newOwner == address(0)) {... */\n      tag_213\n      jumpi\n        /* \"@openzeppelin/contracts/access/Ownable.sol\":2700:2701  0 */\n      0x00\n        /* \"@openzeppelin/contracts/access/Ownable.sol\":2672:2703  OwnableInvalidOwner(address(0)) */\n      mload(0x40)\n      0x1e4fbdf700000000000000000000000000000000000000000000000000000000\n      dup2\n      mstore\n      0x04\n      add\n      tag_214\n      swap2\n      swap1\n      tag_34\n      jump\t// in\n    tag_214:\n      mload(0x40)\n      dup1\n      swap2\n      sub\n      swap1\n      revert\n        /* \"@openzeppelin/contracts/access/Ownable.sol\":2623:2714  if (newOwner == address(0)) {... */\n    tag_213:\n        /* \"@openzeppelin/contracts/access/Ownable.sol\":2723:2751  _transferOwnership(newOwner) */\n      tag_215\n        /* \"@openzeppelin/contracts/access/Ownable.sol\":2742:2750  newOwner */\n      dup2\n        /* \"@openzeppelin/contracts/access/Ownable.sol\":2723:2741  _transferOwnership */\n      tag_90\n        /* \"@openzeppelin/contracts/access/Ownable.sol\":2723:2751  _transferOwnership(newOwner) */\n      jump\t// in\n    tag_215:\n        /* \"@openzeppelin/contracts/access/Ownable.sol\":2543:2758  function transferOwnership(address newOwner) public virtual onlyOwner {... */\n      pop\n      jump\t// out\n        /* \"Bitxchange.sol\":947:998  function depositETH() external payable onlyOwner {} */\n    tag_77:\n        /* \"@openzeppelin/contracts/access/Ownable.sol\":1531:1544  _checkOwner() */\n      tag_217\n        /* \"@openzeppelin/contracts/access/Ownable.sol\":1531:1542  _checkOwner */\n      tag_80\n        /* \"@openzeppelin/contracts/access/Ownable.sol\":1531:1544  _checkOwner() */\n      jump\t// in\n    tag_217:\n        /* \"Bitxchange.sol\":947:998  function depositETH() external payable onlyOwner {} */\n      jump\t// out\n        /* \"@openzeppelin/contracts/access/Ownable.sol\":1796:1958  function _checkOwner() internal view virtual {... */\n    tag_80:\n        /* \"@openzeppelin/contracts/access/Ownable.sol\":1866:1878  _msgSender() */\n      tag_220\n        /* \"@openzeppelin/contracts/access/Ownable.sol\":1866:1876  _msgSender */\n      tag_221\n        /* \"@openzeppelin/contracts/access/Ownable.sol\":1866:1878  _msgSender() */\n      jump\t// in\n    tag_220:\n        /* \"@openzeppelin/contracts/access/Ownable.sol\":1855:1878  owner() != _msgSender() */\n      0xffffffffffffffffffffffffffffffffffffffff\n      and\n        /* \"@openzeppelin/contracts/access/Ownable.sol\":1855:1862  owner() */\n      tag_222\n        /* \"@openzeppelin/contracts/access/Ownable.sol\":1855:1860  owner */\n      tag_32\n        /* \"@openzeppelin/contracts/access/Ownable.sol\":1855:1862  owner() */\n      jump\t// in\n    tag_222:\n        /* \"@openzeppelin/contracts/access/Ownable.sol\":1855:1878  owner() != _msgSender() */\n      0xffffffffffffffffffffffffffffffffffffffff\n      and\n      eq\n        /* \"@openzeppelin/contracts/access/Ownable.sol\":1851:1952  if (owner() != _msgSender()) {... */\n      tag_223\n      jumpi\n        /* \"@openzeppelin/contracts/access/Ownable.sol\":1928:1940  _msgSender() */\n      tag_224\n        /* \"@openzeppelin/contracts/access/Ownable.sol\":1928:1938  _msgSender */\n      tag_221\n        /* \"@openzeppelin/contracts/access/Ownable.sol\":1928:1940  _msgSender() */\n      jump\t// in\n    tag_224:\n        /* \"@openzeppelin/contracts/access/Ownable.sol\":1901:1941  OwnableUnauthorizedAccount(_msgSender()) */\n      mload(0x40)\n      0x118cdaa700000000000000000000000000000000000000000000000000000000\n      dup2\n      mstore\n      0x04\n      add\n      tag_225\n      swap2\n      swap1\n      tag_34\n      jump\t// in\n    tag_225:\n      mload(0x40)\n      dup1\n      swap2\n      sub\n      swap1\n      revert\n        /* \"@openzeppelin/contracts/access/Ownable.sol\":1851:1952  if (owner() != _msgSender()) {... */\n    tag_223:\n        /* \"@openzeppelin/contracts/access/Ownable.sol\":1796:1958  function _checkOwner() internal view virtual {... */\n      jump\t// out\n        /* \"@openzeppelin/contracts/access/Ownable.sol\":2912:3099  function _transferOwnership(address newOwner) internal virtual {... */\n    tag_90:\n        /* \"@openzeppelin/contracts/access/Ownable.sol\":2985:3001  address oldOwner */\n      0x00\n        /* \"@openzeppelin/contracts/access/Ownable.sol\":3004:3010  _owner */\n      dup1\n      0x00\n      swap1\n      sload\n      swap1\n      0x0100\n      exp\n      swap1\n      div\n      0xffffffffffffffffffffffffffffffffffffffff\n      and\n        /* \"@openzeppelin/contracts/access/Ownable.sol\":2985:3010  address oldOwner = _owner */\n      swap1\n      pop\n        /* \"@openzeppelin/contracts/access/Ownable.sol\":3029:3037  newOwner */\n      dup2\n        /* \"@openzeppelin/contracts/access/Ownable.sol\":3020:3026  _owner */\n      0x00\n      dup1\n        /* \"@openzeppelin/contracts/access/Ownable.sol\":3020:3037  _owner = newOwner */\n      0x0100\n      exp\n      dup2\n      sload\n      dup2\n      0xffffffffffffffffffffffffffffffffffffffff\n      mul\n      not\n      and\n      swap1\n      dup4\n      0xffffffffffffffffffffffffffffffffffffffff\n      and\n      mul\n      or\n      swap1\n      sstore\n      pop\n        /* \"@openzeppelin/contracts/access/Ownable.sol\":3083:3091  newOwner */\n      dup2\n        /* \"@openzeppelin/contracts/access/Ownable.sol\":3052:3092  OwnershipTransferred(oldOwner, newOwner) */\n      0xffffffffffffffffffffffffffffffffffffffff\n      and\n        /* \"@openzeppelin/contracts/access/Ownable.sol\":3073:3081  oldOwner */\n      dup2\n        /* \"@openzeppelin/contracts/access/Ownable.sol\":3052:3092  OwnershipTransferred(oldOwner, newOwner) */\n      0xffffffffffffffffffffffffffffffffffffffff\n      and\n      0x8be0079c531659141344cd1fd0a4f28419497f9722a3daafe3b4186f6b6457e0\n      mload(0x40)\n      mload(0x40)\n      dup1\n      swap2\n      sub\n      swap1\n      log3\n        /* \"@openzeppelin/contracts/access/Ownable.sol\":2975:3099  {... */\n      pop\n        /* \"@openzeppelin/contracts/access/Ownable.sol\":2912:3099  function _transferOwnership(address newOwner) internal virtual {... */\n      pop\n      jump\t// out\n        /* \"@openzeppelin/contracts/utils/Context.sol\":656:752  function _msgSender() internal view virtual returns (address) {... */\n    tag_221:\n        /* \"@openzeppelin/contracts/utils/Context.sol\":709:716  address */\n      0x00\n        /* \"@openzeppelin/contracts/utils/Context.sol\":735:745  msg.sender */\n      caller\n        /* \"@openzeppelin/contracts/utils/Context.sol\":728:745  return msg.sender */\n      swap1\n      pop\n        /* \"@openzeppelin/contracts/utils/Context.sol\":656:752  function _msgSender() internal view virtual returns (address) {... */\n      swap1\n      jump\t// out\n        /* \"#utility.yul\":7:82   */\n    tag_228:\n        /* \"#utility.yul\":40:46   */\n      0x00\n        /* \"#utility.yul\":73:75   */\n      0x40\n        /* \"#utility.yul\":67:76   */\n      mload\n        /* \"#utility.yul\":57:76   */\n      swap1\n      pop\n        /* \"#utility.yul\":7:82   */\n      swap1\n      jump\t// out\n        /* \"#utility.yul\":88:205   */\n    tag_229:\n        /* \"#utility.yul\":197:198   */\n      0x00\n        /* \"#utility.yul\":194:195   */\n      dup1\n        /* \"#utility.yul\":187:199   */\n      revert\n        /* \"#utility.yul\":211:328   */\n    tag_230:\n        /* \"#utility.yul\":320:321   */\n      0x00\n        /* \"#utility.yul\":317:318   */\n      dup1\n        /* \"#utility.yul\":310:322   */\n      revert\n        /* \"#utility.yul\":334:460   */\n    tag_231:\n        /* \"#utility.yul\":371:378   */\n      0x00\n        /* \"#utility.yul\":411:453   */\n      0xffffffffffffffffffffffffffffffffffffffff\n        /* \"#utility.yul\":404:409   */\n      dup3\n        /* \"#utility.yul\":400:454   */\n      and\n        /* \"#utility.yul\":389:454   */\n      swap1\n      pop\n        /* \"#utility.yul\":334:460   */\n      swap2\n      swap1\n      pop\n      jump\t// out\n        /* \"#utility.yul\":466:562   */\n    tag_232:\n        /* \"#utility.yul\":503:510   */\n      0x00\n        /* \"#utility.yul\":532:556   */\n      tag_283\n        /* \"#utility.yul\":550:555   */\n      dup3\n        /* \"#utility.yul\":532:556   */\n      tag_231\n      jump\t// in\n    tag_283:\n        /* \"#utility.yul\":521:556   */\n      swap1\n      pop\n        /* \"#utility.yul\":466:562   */\n      swap2\n      swap1\n      pop\n      jump\t// out\n        /* \"#utility.yul\":568:690   */\n    tag_233:\n        /* \"#utility.yul\":641:665   */\n      tag_285\n        /* \"#utility.yul\":659:664   */\n      dup2\n        /* \"#utility.yul\":641:665   */\n      tag_232\n      jump\t// in\n    tag_285:\n        /* \"#utility.yul\":634:639   */\n      dup2\n        /* \"#utility.yul\":631:666   */\n      eq\n        /* \"#utility.yul\":621:684   */\n      tag_286\n      jumpi\n        /* \"#utility.yul\":680:681   */\n      0x00\n        /* \"#utility.yul\":677:678   */\n      dup1\n        /* \"#utility.yul\":670:682   */\n      revert\n        /* \"#utility.yul\":621:684   */\n    tag_286:\n        /* \"#utility.yul\":568:690   */\n      pop\n      jump\t// out\n        /* \"#utility.yul\":696:835   */\n    tag_234:\n        /* \"#utility.yul\":742:747   */\n      0x00\n        /* \"#utility.yul\":780:786   */\n      dup2\n        /* \"#utility.yul\":767:787   */\n      calldataload\n        /* \"#utility.yul\":758:787   */\n      swap1\n      pop\n        /* \"#utility.yul\":796:829   */\n      tag_288\n        /* \"#utility.yul\":823:828   */\n      dup2\n        /* \"#utility.yul\":796:829   */\n      tag_233\n      jump\t// in\n    tag_288:\n        /* \"#utility.yul\":696:835   */\n      swap3\n      swap2\n      pop\n      pop\n      jump\t// out\n        /* \"#utility.yul\":841:1170   */\n    tag_20:\n        /* \"#utility.yul\":900:906   */\n      0x00\n        /* \"#utility.yul\":949:951   */\n      0x20\n        /* \"#utility.yul\":937:946   */\n      dup3\n        /* \"#utility.yul\":928:935   */\n      dup5\n        /* \"#utility.yul\":924:947   */\n      sub\n        /* \"#utility.yul\":920:952   */\n      slt\n        /* \"#utility.yul\":917:1036   */\n      iszero\n      tag_290\n      jumpi\n        /* \"#utility.yul\":955:1034   */\n      tag_291\n      tag_229\n      jump\t// in\n    tag_291:\n        /* \"#utility.yul\":917:1036   */\n    tag_290:\n        /* \"#utility.yul\":1075:1076   */\n      0x00\n        /* \"#utility.yul\":1100:1153   */\n      tag_292\n        /* \"#utility.yul\":1145:1152   */\n      dup5\n        /* \"#utility.yul\":1136:1142   */\n      dup3\n        /* \"#utility.yul\":1125:1134   */\n      dup6\n        /* \"#utility.yul\":1121:1143   */\n      add\n        /* \"#utility.yul\":1100:1153   */\n      tag_234\n      jump\t// in\n    tag_292:\n        /* \"#utility.yul\":1090:1153   */\n      swap2\n      pop\n        /* \"#utility.yul\":1046:1163   */\n      pop\n        /* \"#utility.yul\":841:1170   */\n      swap3\n      swap2\n      pop\n      pop\n      jump\t// out\n        /* \"#utility.yul\":1176:1236   */\n    tag_235:\n        /* \"#utility.yul\":1204:1207   */\n      0x00\n        /* \"#utility.yul\":1225:1230   */\n      dup2\n        /* \"#utility.yul\":1218:1230   */\n      swap1\n      pop\n        /* \"#utility.yul\":1176:1236   */\n      swap2\n      swap1\n      pop\n      jump\t// out\n        /* \"#utility.yul\":1242:1384   */\n    tag_236:\n        /* \"#utility.yul\":1292:1301   */\n      0x00\n        /* \"#utility.yul\":1325:1378   */\n      tag_295\n        /* \"#utility.yul\":1343:1377   */\n      tag_296\n        /* \"#utility.yul\":1352:1376   */\n      tag_297\n        /* \"#utility.yul\":1370:1375   */\n      dup5\n        /* \"#utility.yul\":1352:1376   */\n      tag_231\n      jump\t// in\n    tag_297:\n        /* \"#utility.yul\":1343:1377   */\n      tag_235\n      jump\t// in\n    tag_296:\n        /* \"#utility.yul\":1325:1378   */\n      tag_231\n      jump\t// in\n    tag_295:\n        /* \"#utility.yul\":1312:1378   */\n      swap1\n      pop\n        /* \"#utility.yul\":1242:1384   */\n      swap2\n      swap1\n      pop\n      jump\t// out\n        /* \"#utility.yul\":1390:1516   */\n    tag_237:\n        /* \"#utility.yul\":1440:1449   */\n      0x00\n        /* \"#utility.yul\":1473:1510   */\n      tag_299\n        /* \"#utility.yul\":1504:1509   */\n      dup3\n        /* \"#utility.yul\":1473:1510   */\n      tag_236\n      jump\t// in\n    tag_299:\n        /* \"#utility.yul\":1460:1510   */\n      swap1\n      pop\n        /* \"#utility.yul\":1390:1516   */\n      swap2\n      swap1\n      pop\n      jump\t// out\n        /* \"#utility.yul\":1522:1674   */\n    tag_238:\n        /* \"#utility.yul\":1598:1607   */\n      0x00\n        /* \"#utility.yul\":1631:1668   */\n      tag_301\n        /* \"#utility.yul\":1662:1667   */\n      dup3\n        /* \"#utility.yul\":1631:1668   */\n      tag_237\n      jump\t// in\n    tag_301:\n        /* \"#utility.yul\":1618:1668   */\n      swap1\n      pop\n        /* \"#utility.yul\":1522:1674   */\n      swap2\n      swap1\n      pop\n      jump\t// out\n        /* \"#utility.yul\":1680:1863   */\n    tag_239:\n        /* \"#utility.yul\":1793:1856   */\n      tag_303\n        /* \"#utility.yul\":1850:1855   */\n      dup2\n        /* \"#utility.yul\":1793:1856   */\n      tag_238\n      jump\t// in\n    tag_303:\n        /* \"#utility.yul\":1788:1791   */\n      dup3\n        /* \"#utility.yul\":1781:1857   */\n      mstore\n        /* \"#utility.yul\":1680:1863   */\n      pop\n      pop\n      jump\t// out\n        /* \"#utility.yul\":1869:2143   */\n    tag_29:\n        /* \"#utility.yul\":1988:1992   */\n      0x00\n        /* \"#utility.yul\":2026:2028   */\n      0x20\n        /* \"#utility.yul\":2015:2024   */\n      dup3\n        /* \"#utility.yul\":2011:2029   */\n      add\n        /* \"#utility.yul\":2003:2029   */\n      swap1\n      pop\n        /* \"#utility.yul\":2039:2136   */\n      tag_305\n        /* \"#utility.yul\":2133:2134   */\n      0x00\n        /* \"#utility.yul\":2122:2131   */\n      dup4\n        /* \"#utility.yul\":2118:2135   */\n      add\n        /* \"#utility.yul\":2109:2115   */\n      dup5\n        /* \"#utility.yul\":2039:2136   */\n      tag_239\n      jump\t// in\n    tag_305:\n        /* \"#utility.yul\":1869:2143   */\n      swap3\n      swap2\n      pop\n      pop\n      jump\t// out\n        /* \"#utility.yul\":2149:2267   */\n    tag_240:\n        /* \"#utility.yul\":2236:2260   */\n      tag_307\n        /* \"#utility.yul\":2254:2259   */\n      dup2\n        /* \"#utility.yul\":2236:2260   */\n      tag_232\n      jump\t// in\n    tag_307:\n        /* \"#utility.yul\":2231:2234   */\n      dup3\n        /* \"#utility.yul\":2224:2261   */\n      mstore\n        /* \"#utility.yul\":2149:2267   */\n      pop\n      pop\n      jump\t// out\n        /* \"#utility.yul\":2273:2495   */\n    tag_34:\n        /* \"#utility.yul\":2366:2370   */\n      0x00\n        /* \"#utility.yul\":2404:2406   */\n      0x20\n        /* \"#utility.yul\":2393:2402   */\n      dup3\n        /* \"#utility.yul\":2389:2407   */\n      add\n        /* \"#utility.yul\":2381:2407   */\n      swap1\n      pop\n        /* \"#utility.yul\":2417:2488   */\n      tag_309\n        /* \"#utility.yul\":2485:2486   */\n      0x00\n        /* \"#utility.yul\":2474:2483   */\n      dup4\n        /* \"#utility.yul\":2470:2487   */\n      add\n        /* \"#utility.yul\":2461:2467   */\n      dup5\n        /* \"#utility.yul\":2417:2488   */\n      tag_240\n      jump\t// in\n    tag_309:\n        /* \"#utility.yul\":2273:2495   */\n      swap3\n      swap2\n      pop\n      pop\n      jump\t// out\n        /* \"#utility.yul\":2501:2645   */\n    tag_241:\n        /* \"#utility.yul\":2569:2578   */\n      0x00\n        /* \"#utility.yul\":2602:2639   */\n      tag_311\n        /* \"#utility.yul\":2633:2638   */\n      dup3\n        /* \"#utility.yul\":2602:2639   */\n      tag_237\n      jump\t// in\n    tag_311:\n        /* \"#utility.yul\":2589:2639   */\n      swap1\n      pop\n        /* \"#utility.yul\":2501:2645   */\n      swap2\n      swap1\n      pop\n      jump\t// out\n        /* \"#utility.yul\":2651:2818   */\n    tag_242:\n        /* \"#utility.yul\":2756:2811   */\n      tag_313\n        /* \"#utility.yul\":2805:2810   */\n      dup2\n        /* \"#utility.yul\":2756:2811   */\n      tag_241\n      jump\t// in\n    tag_313:\n        /* \"#utility.yul\":2751:2754   */\n      dup3\n        /* \"#utility.yul\":2744:2812   */\n      mstore\n        /* \"#utility.yul\":2651:2818   */\n      pop\n      pop\n      jump\t// out\n        /* \"#utility.yul\":2824:3082   */\n    tag_39:\n        /* \"#utility.yul\":2935:2939   */\n      0x00\n        /* \"#utility.yul\":2973:2975   */\n      0x20\n        /* \"#utility.yul\":2962:2971   */\n      dup3\n        /* \"#utility.yul\":2958:2976   */\n      add\n        /* \"#utility.yul\":2950:2976   */\n      swap1\n      pop\n        /* \"#utility.yul\":2986:3075   */\n      tag_315\n        /* \"#utility.yul\":3072:3073   */\n      0x00\n        /* \"#utility.yul\":3061:3070   */\n      dup4\n        /* \"#utility.yul\":3057:3074   */\n      add\n        /* \"#utility.yul\":3048:3054   */\n      dup5\n        /* \"#utility.yul\":2986:3075   */\n      tag_242\n      jump\t// in\n    tag_315:\n        /* \"#utility.yul\":2824:3082   */\n      swap3\n      swap2\n      pop\n      pop\n      jump\t// out\n        /* \"#utility.yul\":3088:3165   */\n    tag_243:\n        /* \"#utility.yul\":3125:3132   */\n      0x00\n        /* \"#utility.yul\":3154:3159   */\n      dup2\n        /* \"#utility.yul\":3143:3159   */\n      swap1\n      pop\n        /* \"#utility.yul\":3088:3165   */\n      swap2\n      swap1\n      pop\n      jump\t// out\n        /* \"#utility.yul\":3171:3289   */\n    tag_244:\n        /* \"#utility.yul\":3258:3282   */\n      tag_318\n        /* \"#utility.yul\":3276:3281   */\n      dup2\n        /* \"#utility.yul\":3258:3282   */\n      tag_243\n      jump\t// in\n    tag_318:\n        /* \"#utility.yul\":3253:3256   */\n      dup3\n        /* \"#utility.yul\":3246:3283   */\n      mstore\n        /* \"#utility.yul\":3171:3289   */\n      pop\n      pop\n      jump\t// out\n        /* \"#utility.yul\":3295:3517   */\n    tag_44:\n        /* \"#utility.yul\":3388:3392   */\n      0x00\n        /* \"#utility.yul\":3426:3428   */\n      0x20\n        /* \"#utility.yul\":3415:3424   */\n      dup3\n        /* \"#utility.yul\":3411:3429   */\n      add\n        /* \"#utility.yul\":3403:3429   */\n      swap1\n      pop\n        /* \"#utility.yul\":3439:3510   */\n      tag_320\n        /* \"#utility.yul\":3507:3508   */\n      0x00\n        /* \"#utility.yul\":3496:3505   */\n      dup4\n        /* \"#utility.yul\":3492:3509   */\n      add\n        /* \"#utility.yul\":3483:3489   */\n      dup5\n        /* \"#utility.yul\":3439:3510   */\n      tag_244\n      jump\t// in\n    tag_320:\n        /* \"#utility.yul\":3295:3517   */\n      swap3\n      swap2\n      pop\n      pop\n      jump\t// out\n        /* \"#utility.yul\":3523:3645   */\n    tag_245:\n        /* \"#utility.yul\":3596:3620   */\n      tag_322\n        /* \"#utility.yul\":3614:3619   */\n      dup2\n        /* \"#utility.yul\":3596:3620   */\n      tag_243\n      jump\t// in\n    tag_322:\n        /* \"#utility.yul\":3589:3594   */\n      dup2\n        /* \"#utility.yul\":3586:3621   */\n      eq\n        /* \"#utility.yul\":3576:3639   */\n      tag_323\n      jumpi\n        /* \"#utility.yul\":3635:3636   */\n      0x00\n        /* \"#utility.yul\":3632:3633   */\n      dup1\n        /* \"#utility.yul\":3625:3637   */\n      revert\n        /* \"#utility.yul\":3576:3639   */\n    tag_323:\n        /* \"#utility.yul\":3523:3645   */\n      pop\n      jump\t// out\n        /* \"#utility.yul\":3651:3790   */\n    tag_246:\n        /* \"#utility.yul\":3697:3702   */\n      0x00\n        /* \"#utility.yul\":3735:3741   */\n      dup2\n        /* \"#utility.yul\":3722:3742   */\n      calldataload\n        /* \"#utility.yul\":3713:3742   */\n      swap1\n      pop\n        /* \"#utility.yul\":3751:3784   */\n      tag_325\n        /* \"#utility.yul\":3778:3783   */\n      dup2\n        /* \"#utility.yul\":3751:3784   */\n      tag_245\n      jump\t// in\n    tag_325:\n        /* \"#utility.yul\":3651:3790   */\n      swap3\n      swap2\n      pop\n      pop\n      jump\t// out\n        /* \"#utility.yul\":3796:4561   */\n    tag_48:\n        /* \"#utility.yul\":3882:3888   */\n      0x00\n        /* \"#utility.yul\":3890:3896   */\n      dup1\n        /* \"#utility.yul\":3898:3904   */\n      0x00\n        /* \"#utility.yul\":3906:3912   */\n      dup1\n        /* \"#utility.yul\":3955:3958   */\n      0x80\n        /* \"#utility.yul\":3943:3952   */\n      dup6\n        /* \"#utility.yul\":3934:3941   */\n      dup8\n        /* \"#utility.yul\":3930:3953   */\n      sub\n        /* \"#utility.yul\":3926:3959   */\n      slt\n        /* \"#utility.yul\":3923:4043   */\n      iszero\n      tag_327\n      jumpi\n        /* \"#utility.yul\":3962:4041   */\n      tag_328\n      tag_229\n      jump\t// in\n    tag_328:\n        /* \"#utility.yul\":3923:4043   */\n    tag_327:\n        /* \"#utility.yul\":4082:4083   */\n      0x00\n        /* \"#utility.yul\":4107:4160   */\n      tag_329\n        /* \"#utility.yul\":4152:4159   */\n      dup8\n        /* \"#utility.yul\":4143:4149   */\n      dup3\n        /* \"#utility.yul\":4132:4141   */\n      dup9\n        /* \"#utility.yul\":4128:4150   */\n      add\n        /* \"#utility.yul\":4107:4160   */\n      tag_234\n      jump\t// in\n    tag_329:\n        /* \"#utility.yul\":4097:4160   */\n      swap5\n      pop\n        /* \"#utility.yul\":4053:4170   */\n      pop\n        /* \"#utility.yul\":4209:4211   */\n      0x20\n        /* \"#utility.yul\":4235:4288   */\n      tag_330\n        /* \"#utility.yul\":4280:4287   */\n      dup8\n        /* \"#utility.yul\":4271:4277   */\n      dup3\n        /* \"#utility.yul\":4260:4269   */\n      dup9\n        /* \"#utility.yul\":4256:4278   */\n      add\n        /* \"#utility.yul\":4235:4288   */\n      tag_246\n      jump\t// in\n    tag_330:\n        /* \"#utility.yul\":4225:4288   */\n      swap4\n      pop\n        /* \"#utility.yul\":4180:4298   */\n      pop\n        /* \"#utility.yul\":4337:4339   */\n      0x40\n        /* \"#utility.yul\":4363:4416   */\n      tag_331\n        /* \"#utility.yul\":4408:4415   */\n      dup8\n        /* \"#utility.yul\":4399:4405   */\n      dup3\n        /* \"#utility.yul\":4388:4397   */\n      dup9\n        /* \"#utility.yul\":4384:4406   */\n      add\n        /* \"#utility.yul\":4363:4416   */\n      tag_246\n      jump\t// in\n    tag_331:\n        /* \"#utility.yul\":4353:4416   */\n      swap3\n      pop\n        /* \"#utility.yul\":4308:4426   */\n      pop\n        /* \"#utility.yul\":4465:4467   */\n      0x60\n        /* \"#utility.yul\":4491:4544   */\n      tag_332\n        /* \"#utility.yul\":4536:4543   */\n      dup8\n        /* \"#utility.yul\":4527:4533   */\n      dup3\n        /* \"#utility.yul\":4516:4525   */\n      dup9\n        /* \"#utility.yul\":4512:4534   */\n      add\n        /* \"#utility.yul\":4491:4544   */\n      tag_246\n      jump\t// in\n    tag_332:\n        /* \"#utility.yul\":4481:4544   */\n      swap2\n      pop\n        /* \"#utility.yul\":4436:4554   */\n      pop\n        /* \"#utility.yul\":3796:4561   */\n      swap3\n      swap6\n      swap2\n      swap5\n      pop\n      swap3\n      pop\n      jump\t// out\n        /* \"#utility.yul\":4567:4657   */\n    tag_247:\n        /* \"#utility.yul\":4601:4608   */\n      0x00\n        /* \"#utility.yul\":4644:4649   */\n      dup2\n        /* \"#utility.yul\":4637:4650   */\n      iszero\n        /* \"#utility.yul\":4630:4651   */\n      iszero\n        /* \"#utility.yul\":4619:4651   */\n      swap1\n      pop\n        /* \"#utility.yul\":4567:4657   */\n      swap2\n      swap1\n      pop\n      jump\t// out\n        /* \"#utility.yul\":4663:4772   */\n    tag_248:\n        /* \"#utility.yul\":4744:4765   */\n      tag_335\n        /* \"#utility.yul\":4759:4764   */\n      dup2\n        /* \"#utility.yul\":4744:4765   */\n      tag_247\n      jump\t// in\n    tag_335:\n        /* \"#utility.yul\":4739:4742   */\n      dup3\n        /* \"#utility.yul\":4732:4766   */\n      mstore\n        /* \"#utility.yul\":4663:4772   */\n      pop\n      pop\n      jump\t// out\n        /* \"#utility.yul\":4778:5208   */\n    tag_51:\n        /* \"#utility.yul\":4921:4925   */\n      0x00\n        /* \"#utility.yul\":4959:4961   */\n      0x60\n        /* \"#utility.yul\":4948:4957   */\n      dup3\n        /* \"#utility.yul\":4944:4962   */\n      add\n        /* \"#utility.yul\":4936:4962   */\n      swap1\n      pop\n        /* \"#utility.yul\":4972:5043   */\n      tag_337\n        /* \"#utility.yul\":5040:5041   */\n      0x00\n        /* \"#utility.yul\":5029:5038   */\n      dup4\n        /* \"#utility.yul\":5025:5042   */\n      add\n        /* \"#utility.yul\":5016:5022   */\n      dup7\n        /* \"#utility.yul\":4972:5043   */\n      tag_244\n      jump\t// in\n    tag_337:\n        /* \"#utility.yul\":5053:5125   */\n      tag_338\n        /* \"#utility.yul\":5121:5123   */\n      0x20\n        /* \"#utility.yul\":5110:5119   */\n      dup4\n        /* \"#utility.yul\":5106:5124   */\n      add\n        /* \"#utility.yul\":5097:5103   */\n      dup6\n        /* \"#utility.yul\":5053:5125   */\n      tag_244\n      jump\t// in\n    tag_338:\n        /* \"#utility.yul\":5135:5201   */\n      tag_339\n        /* \"#utility.yul\":5197:5199   */\n      0x40\n        /* \"#utility.yul\":5186:5195   */\n      dup4\n        /* \"#utility.yul\":5182:5200   */\n      add\n        /* \"#utility.yul\":5173:5179   */\n      dup5\n        /* \"#utility.yul\":5135:5201   */\n      tag_248\n      jump\t// in\n    tag_339:\n        /* \"#utility.yul\":4778:5208   */\n      swap5\n      swap4\n      pop\n      pop\n      pop\n      pop\n      jump\t// out\n        /* \"#utility.yul\":5214:5543   */\n    tag_55:\n        /* \"#utility.yul\":5273:5279   */\n      0x00\n        /* \"#utility.yul\":5322:5324   */\n      0x20\n        /* \"#utility.yul\":5310:5319   */\n      dup3\n        /* \"#utility.yul\":5301:5308   */\n      dup5\n        /* \"#utility.yul\":5297:5320   */\n      sub\n        /* \"#utility.yul\":5293:5325   */\n      slt\n        /* \"#utility.yul\":5290:5409   */\n      iszero\n      tag_341\n      jumpi\n        /* \"#utility.yul\":5328:5407   */\n      tag_342\n      tag_229\n      jump\t// in\n    tag_342:\n        /* \"#utility.yul\":5290:5409   */\n    tag_341:\n        /* \"#utility.yul\":5448:5449   */\n      0x00\n        /* \"#utility.yul\":5473:5526   */\n      tag_343\n        /* \"#utility.yul\":5518:5525   */\n      dup5\n        /* \"#utility.yul\":5509:5515   */\n      dup3\n        /* \"#utility.yul\":5498:5507   */\n      dup6\n        /* \"#utility.yul\":5494:5516   */\n      add\n        /* \"#utility.yul\":5473:5526   */\n      tag_246\n      jump\t// in\n    tag_343:\n        /* \"#utility.yul\":5463:5526   */\n      swap2\n      pop\n        /* \"#utility.yul\":5419:5536   */\n      pop\n        /* \"#utility.yul\":5214:5543   */\n      swap3\n      swap2\n      pop\n      pop\n      jump\t// out\n        /* \"#utility.yul\":5549:6168   */\n    tag_60:\n        /* \"#utility.yul\":5626:5632   */\n      0x00\n        /* \"#utility.yul\":5634:5640   */\n      dup1\n        /* \"#utility.yul\":5642:5648   */\n      0x00\n        /* \"#utility.yul\":5691:5693   */\n      0x60\n        /* \"#utility.yul\":5679:5688   */\n      dup5\n        /* \"#utility.yul\":5670:5677   */\n      dup7\n        /* \"#utility.yul\":5666:5689   */\n      sub\n        /* \"#utility.yul\":5662:5694   */\n      slt\n        /* \"#utility.yul\":5659:5778   */\n      iszero\n      tag_345\n      jumpi\n        /* \"#utility.yul\":5697:5776   */\n      tag_346\n      tag_229\n      jump\t// in\n    tag_346:\n        /* \"#utility.yul\":5659:5778   */\n    tag_345:\n        /* \"#utility.yul\":5817:5818   */\n      0x00\n        /* \"#utility.yul\":5842:5895   */\n      tag_347\n        /* \"#utility.yul\":5887:5894   */\n      dup7\n        /* \"#utility.yul\":5878:5884   */\n      dup3\n        /* \"#utility.yul\":5867:5876   */\n      dup8\n        /* \"#utility.yul\":5863:5885   */\n      add\n        /* \"#utility.yul\":5842:5895   */\n      tag_234\n      jump\t// in\n    tag_347:\n        /* \"#utility.yul\":5832:5895   */\n      swap4\n      pop\n        /* \"#utility.yul\":5788:5905   */\n      pop\n        /* \"#utility.yul\":5944:5946   */\n      0x20\n        /* \"#utility.yul\":5970:6023   */\n      tag_348\n        /* \"#utility.yul\":6015:6022   */\n      dup7\n        /* \"#utility.yul\":6006:6012   */\n      dup3\n        /* \"#utility.yul\":5995:6004   */\n      dup8\n        /* \"#utility.yul\":5991:6013   */\n      add\n        /* \"#utility.yul\":5970:6023   */\n      tag_246\n      jump\t// in\n    tag_348:\n        /* \"#utility.yul\":5960:6023   */\n      swap3\n      pop\n        /* \"#utility.yul\":5915:6033   */\n      pop\n        /* \"#utility.yul\":6072:6074   */\n      0x40\n        /* \"#utility.yul\":6098:6151   */\n      tag_349\n        /* \"#utility.yul\":6143:6150   */\n      dup7\n        /* \"#utility.yul\":6134:6140   */\n      dup3\n        /* \"#utility.yul\":6123:6132   */\n      dup8\n        /* \"#utility.yul\":6119:6141   */\n      add\n        /* \"#utility.yul\":6098:6151   */\n      tag_246\n      jump\t// in\n    tag_349:\n        /* \"#utility.yul\":6088:6151   */\n      swap2\n      pop\n        /* \"#utility.yul\":6043:6161   */\n      pop\n        /* \"#utility.yul\":5549:6168   */\n      swap3\n      pop\n      swap3\n      pop\n      swap3\n      jump\t// out\n        /* \"#utility.yul\":6174:6384   */\n    tag_63:\n        /* \"#utility.yul\":6261:6265   */\n      0x00\n        /* \"#utility.yul\":6299:6301   */\n      0x20\n        /* \"#utility.yul\":6288:6297   */\n      dup3\n        /* \"#utility.yul\":6284:6302   */\n      add\n        /* \"#utility.yul\":6276:6302   */\n      swap1\n      pop\n        /* \"#utility.yul\":6312:6377   */\n      tag_351\n        /* \"#utility.yul\":6374:6375   */\n      0x00\n        /* \"#utility.yul\":6363:6372   */\n      dup4\n        /* \"#utility.yul\":6359:6376   */\n      add\n        /* \"#utility.yul\":6350:6356   */\n      dup5\n        /* \"#utility.yul\":6312:6377   */\n      tag_248\n      jump\t// in\n    tag_351:\n        /* \"#utility.yul\":6174:6384   */\n      swap3\n      swap2\n      pop\n      pop\n      jump\t// out\n        /* \"#utility.yul\":6390:6559   */\n    tag_249:\n        /* \"#utility.yul\":6474:6485   */\n      0x00\n        /* \"#utility.yul\":6508:6514   */\n      dup3\n        /* \"#utility.yul\":6503:6506   */\n      dup3\n        /* \"#utility.yul\":6496:6515   */\n      mstore\n        /* \"#utility.yul\":6548:6552   */\n      0x20\n        /* \"#utility.yul\":6543:6546   */\n      dup3\n        /* \"#utility.yul\":6539:6553   */\n      add\n        /* \"#utility.yul\":6524:6553   */\n      swap1\n      pop\n        /* \"#utility.yul\":6390:6559   */\n      swap3\n      swap2\n      pop\n      pop\n      jump\t// out\n        /* \"#utility.yul\":6565:6730   */\n    tag_250:\n        /* \"#utility.yul\":6705:6722   */\n      0x496e76616c696420616464726573730000000000000000000000000000000000\n        /* \"#utility.yul\":6701:6702   */\n      0x00\n        /* \"#utility.yul\":6693:6699   */\n      dup3\n        /* \"#utility.yul\":6689:6703   */\n      add\n        /* \"#utility.yul\":6682:6723   */\n      mstore\n        /* \"#utility.yul\":6565:6730   */\n      pop\n      jump\t// out\n        /* \"#utility.yul\":6736:7102   */\n    tag_251:\n        /* \"#utility.yul\":6878:6881   */\n      0x00\n        /* \"#utility.yul\":6899:6966   */\n      tag_355\n        /* \"#utility.yul\":6963:6965   */\n      0x0f\n        /* \"#utility.yul\":6958:6961   */\n      dup4\n        /* \"#utility.yul\":6899:6966   */\n      tag_249\n      jump\t// in\n    tag_355:\n        /* \"#utility.yul\":6892:6966   */\n      swap2\n      pop\n        /* \"#utility.yul\":6975:7068   */\n      tag_356\n        /* \"#utility.yul\":7064:7067   */\n      dup3\n        /* \"#utility.yul\":6975:7068   */\n      tag_250\n      jump\t// in\n    tag_356:\n        /* \"#utility.yul\":7093:7095   */\n      0x20\n        /* \"#utility.yul\":7088:7091   */\n      dup3\n        /* \"#utility.yul\":7084:7096   */\n      add\n        /* \"#utility.yul\":7077:7096   */\n      swap1\n      pop\n        /* \"#utility.yul\":6736:7102   */\n      swap2\n      swap1\n      pop\n      jump\t// out\n        /* \"#utility.yul\":7108:7527   */\n    tag_84:\n        /* \"#utility.yul\":7274:7278   */\n      0x00\n        /* \"#utility.yul\":7312:7314   */\n      0x20\n        /* \"#utility.yul\":7301:7310   */\n      dup3\n        /* \"#utility.yul\":7297:7315   */\n      add\n        /* \"#utility.yul\":7289:7315   */\n      swap1\n      pop\n        /* \"#utility.yul\":7361:7370   */\n      dup2\n        /* \"#utility.yul\":7355:7359   */\n      dup2\n        /* \"#utility.yul\":7351:7371   */\n      sub\n        /* \"#utility.yul\":7347:7348   */\n      0x00\n        /* \"#utility.yul\":7336:7345   */\n      dup4\n        /* \"#utility.yul\":7332:7349   */\n      add\n        /* \"#utility.yul\":7325:7372   */\n      mstore\n        /* \"#utility.yul\":7389:7520   */\n      tag_358\n        /* \"#utility.yul\":7515:7519   */\n      dup2\n        /* \"#utility.yul\":7389:7520   */\n      tag_251\n      jump\t// in\n    tag_358:\n        /* \"#utility.yul\":7381:7520   */\n      swap1\n      pop\n        /* \"#utility.yul\":7108:7527   */\n      swap2\n      swap1\n      pop\n      jump\t// out\n        /* \"#utility.yul\":7533:7713   */\n    tag_95:\n        /* \"#utility.yul\":7581:7658   */\n      0x4e487b7100000000000000000000000000000000000000000000000000000000\n        /* \"#utility.yul\":7578:7579   */\n      0x00\n        /* \"#utility.yul\":7571:7659   */\n      mstore\n        /* \"#utility.yul\":7678:7682   */\n      0x41\n        /* \"#utility.yul\":7675:7676   */\n      0x04\n        /* \"#utility.yul\":7668:7683   */\n      mstore\n        /* \"#utility.yul\":7702:7706   */\n      0x24\n        /* \"#utility.yul\":7699:7700   */\n      0x00\n        /* \"#utility.yul\":7692:7707   */\n      revert\n        /* \"#utility.yul\":7719:7899   */\n    tag_99:\n        /* \"#utility.yul\":7767:7844   */\n      0x4e487b7100000000000000000000000000000000000000000000000000000000\n        /* \"#utility.yul\":7764:7765   */\n      0x00\n        /* \"#utility.yul\":7757:7845   */\n      mstore\n        /* \"#utility.yul\":7864:7868   */\n      0x32\n        /* \"#utility.yul\":7861:7862   */\n      0x04\n        /* \"#utility.yul\":7854:7869   */\n      mstore\n        /* \"#utility.yul\":7888:7892   */\n      0x24\n        /* \"#utility.yul\":7885:7886   */\n      0x00\n        /* \"#utility.yul\":7878:7893   */\n      revert\n        /* \"#utility.yul\":7905:8048   */\n    tag_252:\n        /* \"#utility.yul\":7962:7967   */\n      0x00\n        /* \"#utility.yul\":7993:7999   */\n      dup2\n        /* \"#utility.yul\":7987:8000   */\n      mload\n        /* \"#utility.yul\":7978:8000   */\n      swap1\n      pop\n        /* \"#utility.yul\":8009:8042   */\n      tag_362\n        /* \"#utility.yul\":8036:8041   */\n      dup2\n        /* \"#utility.yul\":8009:8042   */\n      tag_233\n      jump\t// in\n    tag_362:\n        /* \"#utility.yul\":7905:8048   */\n      swap3\n      swap2\n      pop\n      pop\n      jump\t// out\n        /* \"#utility.yul\":8054:8405   */\n    tag_103:\n        /* \"#utility.yul\":8124:8130   */\n      0x00\n        /* \"#utility.yul\":8173:8175   */\n      0x20\n        /* \"#utility.yul\":8161:8170   */\n      dup3\n        /* \"#utility.yul\":8152:8159   */\n      dup5\n        /* \"#utility.yul\":8148:8171   */\n      sub\n        /* \"#utility.yul\":8144:8176   */\n      slt\n        /* \"#utility.yul\":8141:8260   */\n      iszero\n      tag_364\n      jumpi\n        /* \"#utility.yul\":8179:8258   */\n      tag_365\n      tag_229\n      jump\t// in\n    tag_365:\n        /* \"#utility.yul\":8141:8260   */\n    tag_364:\n        /* \"#utility.yul\":8299:8300   */\n      0x00\n        /* \"#utility.yul\":8324:8388   */\n      tag_366\n        /* \"#utility.yul\":8380:8387   */\n      dup5\n        /* \"#utility.yul\":8371:8377   */\n      dup3\n        /* \"#utility.yul\":8360:8369   */\n      dup6\n        /* \"#utility.yul\":8356:8378   */\n      add\n        /* \"#utility.yul\":8324:8388   */\n      tag_252\n      jump\t// in\n    tag_366:\n        /* \"#utility.yul\":8314:8388   */\n      swap2\n      pop\n        /* \"#utility.yul\":8270:8398   */\n      pop\n        /* \"#utility.yul\":8054:8405   */\n      swap3\n      swap2\n      pop\n      pop\n      jump\t// out\n        /* \"#utility.yul\":8411:8525   */\n    tag_253:\n        /* \"#utility.yul\":8478:8484   */\n      0x00\n        /* \"#utility.yul\":8512:8517   */\n      dup2\n        /* \"#utility.yul\":8506:8518   */\n      mload\n        /* \"#utility.yul\":8496:8518   */\n      swap1\n      pop\n        /* \"#utility.yul\":8411:8525   */\n      swap2\n      swap1\n      pop\n      jump\t// out\n        /* \"#utility.yul\":8531:8715   */\n    tag_254:\n        /* \"#utility.yul\":8630:8641   */\n      0x00\n        /* \"#utility.yul\":8664:8670   */\n      dup3\n        /* \"#utility.yul\":8659:8662   */\n      dup3\n        /* \"#utility.yul\":8652:8671   */\n      mstore\n        /* \"#utility.yul\":8704:8708   */\n      0x20\n        /* \"#utility.yul\":8699:8702   */\n      dup3\n        /* \"#utility.yul\":8695:8709   */\n      add\n        /* \"#utility.yul\":8680:8709   */\n      swap1\n      pop\n        /* \"#utility.yul\":8531:8715   */\n      swap3\n      swap2\n      pop\n      pop\n      jump\t// out\n        /* \"#utility.yul\":8721:8853   */\n    tag_255:\n        /* \"#utility.yul\":8788:8792   */\n      0x00\n        /* \"#utility.yul\":8811:8814   */\n      dup2\n        /* \"#utility.yul\":8803:8814   */\n      swap1\n      pop\n        /* \"#utility.yul\":8841:8845   */\n      0x20\n        /* \"#utility.yul\":8836:8839   */\n      dup3\n        /* \"#utility.yul\":8832:8846   */\n      add\n        /* \"#utility.yul\":8824:8846   */\n      swap1\n      pop\n        /* \"#utility.yul\":8721:8853   */\n      swap2\n      swap1\n      pop\n      jump\t// out\n        /* \"#utility.yul\":8859:8967   */\n    tag_256:\n        /* \"#utility.yul\":8936:8960   */\n      tag_371\n        /* \"#utility.yul\":8954:8959   */\n      dup2\n        /* \"#utility.yul\":8936:8960   */\n      tag_232\n      jump\t// in\n    tag_371:\n        /* \"#utility.yul\":8931:8934   */\n      dup3\n        /* \"#utility.yul\":8924:8961   */\n      mstore\n        /* \"#utility.yul\":8859:8967   */\n      pop\n      pop\n      jump\t// out\n        /* \"#utility.yul\":8973:9152   */\n    tag_257:\n        /* \"#utility.yul\":9042:9052   */\n      0x00\n        /* \"#utility.yul\":9063:9109   */\n      tag_373\n        /* \"#utility.yul\":9105:9108   */\n      dup4\n        /* \"#utility.yul\":9097:9103   */\n      dup4\n        /* \"#utility.yul\":9063:9109   */\n      tag_256\n      jump\t// in\n    tag_373:\n        /* \"#utility.yul\":9141:9145   */\n      0x20\n        /* \"#utility.yul\":9136:9139   */\n      dup4\n        /* \"#utility.yul\":9132:9146   */\n      add\n        /* \"#utility.yul\":9118:9146   */\n      swap1\n      pop\n        /* \"#utility.yul\":8973:9152   */\n      swap3\n      swap2\n      pop\n      pop\n      jump\t// out\n        /* \"#utility.yul\":9158:9271   */\n    tag_258:\n        /* \"#utility.yul\":9228:9232   */\n      0x00\n        /* \"#utility.yul\":9260:9264   */\n      0x20\n        /* \"#utility.yul\":9255:9258   */\n      dup3\n        /* \"#utility.yul\":9251:9265   */\n      add\n        /* \"#utility.yul\":9243:9265   */\n      swap1\n      pop\n        /* \"#utility.yul\":9158:9271   */\n      swap2\n      swap1\n      pop\n      jump\t// out\n        /* \"#utility.yul\":9307:10039   */\n    tag_259:\n        /* \"#utility.yul\":9426:9429   */\n      0x00\n        /* \"#utility.yul\":9455:9509   */\n      tag_376\n        /* \"#utility.yul\":9503:9508   */\n      dup3\n        /* \"#utility.yul\":9455:9509   */\n      tag_253\n      jump\t// in\n    tag_376:\n        /* \"#utility.yul\":9525:9611   */\n      tag_377\n        /* \"#utility.yul\":9604:9610   */\n      dup2\n        /* \"#utility.yul\":9599:9602   */\n      dup6\n        /* \"#utility.yul\":9525:9611   */\n      tag_254\n      jump\t// in\n    tag_377:\n        /* \"#utility.yul\":9518:9611   */\n      swap4\n      pop\n        /* \"#utility.yul\":9635:9691   */\n      tag_378\n        /* \"#utility.yul\":9685:9690   */\n      dup4\n        /* \"#utility.yul\":9635:9691   */\n      tag_255\n      jump\t// in\n    tag_378:\n        /* \"#utility.yul\":9714:9721   */\n      dup1\n        /* \"#utility.yul\":9745:9746   */\n      0x00\n        /* \"#utility.yul\":9730:10014   */\n    tag_379:\n        /* \"#utility.yul\":9755:9761   */\n      dup4\n        /* \"#utility.yul\":9752:9753   */\n      dup2\n        /* \"#utility.yul\":9749:9762   */\n      lt\n        /* \"#utility.yul\":9730:10014   */\n      iszero\n      tag_381\n      jumpi\n        /* \"#utility.yul\":9831:9837   */\n      dup2\n        /* \"#utility.yul\":9825:9838   */\n      mload\n        /* \"#utility.yul\":9858:9921   */\n      tag_382\n        /* \"#utility.yul\":9917:9920   */\n      dup9\n        /* \"#utility.yul\":9902:9915   */\n      dup3\n        /* \"#utility.yul\":9858:9921   */\n      tag_257\n      jump\t// in\n    tag_382:\n        /* \"#utility.yul\":9851:9921   */\n      swap8\n      pop\n        /* \"#utility.yul\":9944:10004   */\n      tag_383\n        /* \"#utility.yul\":9997:10003   */\n      dup4\n        /* \"#utility.yul\":9944:10004   */\n      tag_258\n      jump\t// in\n    tag_383:\n        /* \"#utility.yul\":9934:10004   */\n      swap3\n      pop\n        /* \"#utility.yul\":9790:10014   */\n      pop\n        /* \"#utility.yul\":9777:9778   */\n      0x01\n        /* \"#utility.yul\":9774:9775   */\n      dup2\n        /* \"#utility.yul\":9770:9779   */\n      add\n        /* \"#utility.yul\":9765:9779   */\n      swap1\n      pop\n        /* \"#utility.yul\":9730:10014   */\n      jump(tag_379)\n    tag_381:\n        /* \"#utility.yul\":9734:9748   */\n      pop\n        /* \"#utility.yul\":10030:10033   */\n      dup6\n        /* \"#utility.yul\":10023:10033   */\n      swap4\n      pop\n        /* \"#utility.yul\":9431:10039   */\n      pop\n      pop\n      pop\n        /* \"#utility.yul\":9307:10039   */\n      swap3\n      swap2\n      pop\n      pop\n      jump\t// out\n        /* \"#utility.yul\":10045:10528   */\n    tag_107:\n        /* \"#utility.yul\":10216:10220   */\n      0x00\n        /* \"#utility.yul\":10254:10256   */\n      0x40\n        /* \"#utility.yul\":10243:10252   */\n      dup3\n        /* \"#utility.yul\":10239:10257   */\n      add\n        /* \"#utility.yul\":10231:10257   */\n      swap1\n      pop\n        /* \"#utility.yul\":10267:10338   */\n      tag_385\n        /* \"#utility.yul\":10335:10336   */\n      0x00\n        /* \"#utility.yul\":10324:10333   */\n      dup4\n        /* \"#utility.yul\":10320:10337   */\n      add\n        /* \"#utility.yul\":10311:10317   */\n      dup6\n        /* \"#utility.yul\":10267:10338   */\n      tag_244\n      jump\t// in\n    tag_385:\n        /* \"#utility.yul\":10385:10394   */\n      dup2\n        /* \"#utility.yul\":10379:10383   */\n      dup2\n        /* \"#utility.yul\":10375:10395   */\n      sub\n        /* \"#utility.yul\":10370:10372   */\n      0x20\n        /* \"#utility.yul\":10359:10368   */\n      dup4\n        /* \"#utility.yul\":10355:10373   */\n      add\n        /* \"#utility.yul\":10348:10396   */\n      mstore\n        /* \"#utility.yul\":10413:10521   */\n      tag_386\n        /* \"#utility.yul\":10516:10520   */\n      dup2\n        /* \"#utility.yul\":10507:10513   */\n      dup5\n        /* \"#utility.yul\":10413:10521   */\n      tag_259\n      jump\t// in\n    tag_386:\n        /* \"#utility.yul\":10405:10521   */\n      swap1\n      pop\n        /* \"#utility.yul\":10045:10528   */\n      swap4\n      swap3\n      pop\n      pop\n      pop\n      jump\t// out\n        /* \"#utility.yul\":10534:10651   */\n    tag_260:\n        /* \"#utility.yul\":10643:10644   */\n      0x00\n        /* \"#utility.yul\":10640:10641   */\n      dup1\n        /* \"#utility.yul\":10633:10645   */\n      revert\n        /* \"#utility.yul\":10657:10759   */\n    tag_261:\n        /* \"#utility.yul\":10698:10704   */\n      0x00\n        /* \"#utility.yul\":10749:10751   */\n      0x1f\n        /* \"#utility.yul\":10745:10752   */\n      not\n        /* \"#utility.yul\":10740:10742   */\n      0x1f\n        /* \"#utility.yul\":10733:10738   */\n      dup4\n        /* \"#utility.yul\":10729:10743   */\n      add\n        /* \"#utility.yul\":10725:10753   */\n      and\n        /* \"#utility.yul\":10715:10753   */\n      swap1\n      pop\n        /* \"#utility.yul\":10657:10759   */\n      swap2\n      swap1\n      pop\n      jump\t// out\n        /* \"#utility.yul\":10765:11046   */\n    tag_262:\n        /* \"#utility.yul\":10848:10875   */\n      tag_390\n        /* \"#utility.yul\":10870:10874   */\n      dup3\n        /* \"#utility.yul\":10848:10875   */\n      tag_261\n      jump\t// in\n    tag_390:\n        /* \"#utility.yul\":10840:10846   */\n      dup2\n        /* \"#utility.yul\":10836:10876   */\n      add\n        /* \"#utility.yul\":10978:10984   */\n      dup2\n        /* \"#utility.yul\":10966:10976   */\n      dup2\n        /* \"#utility.yul\":10963:10985   */\n      lt\n        /* \"#utility.yul\":10942:10960   */\n      0xffffffffffffffff\n        /* \"#utility.yul\":10930:10940   */\n      dup3\n        /* \"#utility.yul\":10927:10961   */\n      gt\n        /* \"#utility.yul\":10924:10986   */\n      or\n        /* \"#utility.yul\":10921:11009   */\n      iszero\n      tag_391\n      jumpi\n        /* \"#utility.yul\":10989:11007   */\n      tag_392\n      tag_95\n      jump\t// in\n    tag_392:\n        /* \"#utility.yul\":10921:11009   */\n    tag_391:\n        /* \"#utility.yul\":11029:11039   */\n      dup1\n        /* \"#utility.yul\":11025:11027   */\n      0x40\n        /* \"#utility.yul\":11018:11040   */\n      mstore\n        /* \"#utility.yul\":10808:11046   */\n      pop\n        /* \"#utility.yul\":10765:11046   */\n      pop\n      pop\n      jump\t// out\n        /* \"#utility.yul\":11052:11181   */\n    tag_263:\n        /* \"#utility.yul\":11086:11092   */\n      0x00\n        /* \"#utility.yul\":11113:11133   */\n      tag_394\n      tag_228\n      jump\t// in\n    tag_394:\n        /* \"#utility.yul\":11103:11133   */\n      swap1\n      pop\n        /* \"#utility.yul\":11142:11175   */\n      tag_395\n        /* \"#utility.yul\":11170:11174   */\n      dup3\n        /* \"#utility.yul\":11162:11168   */\n      dup3\n        /* \"#utility.yul\":11142:11175   */\n      tag_262\n      jump\t// in\n    tag_395:\n        /* \"#utility.yul\":11052:11181   */\n      swap2\n      swap1\n      pop\n      jump\t// out\n        /* \"#utility.yul\":11187:11498   */\n    tag_264:\n        /* \"#utility.yul\":11264:11268   */\n      0x00\n        /* \"#utility.yul\":11354:11372   */\n      0xffffffffffffffff\n        /* \"#utility.yul\":11346:11352   */\n      dup3\n        /* \"#utility.yul\":11343:11373   */\n      gt\n        /* \"#utility.yul\":11340:11396   */\n      iszero\n      tag_397\n      jumpi\n        /* \"#utility.yul\":11376:11394   */\n      tag_398\n      tag_95\n      jump\t// in\n    tag_398:\n        /* \"#utility.yul\":11340:11396   */\n    tag_397:\n        /* \"#utility.yul\":11426:11430   */\n      0x20\n        /* \"#utility.yul\":11418:11424   */\n      dup3\n        /* \"#utility.yul\":11414:11431   */\n      mul\n        /* \"#utility.yul\":11406:11431   */\n      swap1\n      pop\n        /* \"#utility.yul\":11486:11490   */\n      0x20\n        /* \"#utility.yul\":11480:11484   */\n      dup2\n        /* \"#utility.yul\":11476:11491   */\n      add\n        /* \"#utility.yul\":11468:11491   */\n      swap1\n      pop\n        /* \"#utility.yul\":11187:11498   */\n      swap2\n      swap1\n      pop\n      jump\t// out\n        /* \"#utility.yul\":11504:11621   */\n    tag_265:\n        /* \"#utility.yul\":11613:11614   */\n      0x00\n        /* \"#utility.yul\":11610:11611   */\n      dup1\n        /* \"#utility.yul\":11603:11615   */\n      revert\n        /* \"#utility.yul\":11627:11770   */\n    tag_266:\n        /* \"#utility.yul\":11684:11689   */\n      0x00\n        /* \"#utility.yul\":11715:11721   */\n      dup2\n        /* \"#utility.yul\":11709:11722   */\n      mload\n        /* \"#utility.yul\":11700:11722   */\n      swap1\n      pop\n        /* \"#utility.yul\":11731:11764   */\n      tag_401\n        /* \"#utility.yul\":11758:11763   */\n      dup2\n        /* \"#utility.yul\":11731:11764   */\n      tag_245\n      jump\t// in\n    tag_401:\n        /* \"#utility.yul\":11627:11770   */\n      swap3\n      swap2\n      pop\n      pop\n      jump\t// out\n        /* \"#utility.yul\":11793:12525   */\n    tag_267:\n        /* \"#utility.yul\":11900:11905   */\n      0x00\n        /* \"#utility.yul\":11925:12006   */\n      tag_403\n        /* \"#utility.yul\":11941:12005   */\n      tag_404\n        /* \"#utility.yul\":11998:12004   */\n      dup5\n        /* \"#utility.yul\":11941:12005   */\n      tag_264\n      jump\t// in\n    tag_404:\n        /* \"#utility.yul\":11925:12006   */\n      tag_263\n      jump\t// in\n    tag_403:\n        /* \"#utility.yul\":11916:12006   */\n      swap1\n      pop\n        /* \"#utility.yul\":12026:12031   */\n      dup1\n        /* \"#utility.yul\":12055:12061   */\n      dup4\n        /* \"#utility.yul\":12048:12053   */\n      dup3\n        /* \"#utility.yul\":12041:12062   */\n      mstore\n        /* \"#utility.yul\":12089:12093   */\n      0x20\n        /* \"#utility.yul\":12082:12087   */\n      dup3\n        /* \"#utility.yul\":12078:12094   */\n      add\n        /* \"#utility.yul\":12071:12094   */\n      swap1\n      pop\n        /* \"#utility.yul\":12142:12146   */\n      0x20\n        /* \"#utility.yul\":12134:12140   */\n      dup5\n        /* \"#utility.yul\":12130:12147   */\n      mul\n        /* \"#utility.yul\":12122:12128   */\n      dup4\n        /* \"#utility.yul\":12118:12148   */\n      add\n        /* \"#utility.yul\":12171:12174   */\n      dup6\n        /* \"#utility.yul\":12163:12169   */\n      dup2\n        /* \"#utility.yul\":12160:12175   */\n      gt\n        /* \"#utility.yul\":12157:12279   */\n      iszero\n      tag_405\n      jumpi\n        /* \"#utility.yul\":12190:12269   */\n      tag_406\n      tag_265\n      jump\t// in\n    tag_406:\n        /* \"#utility.yul\":12157:12279   */\n    tag_405:\n        /* \"#utility.yul\":12305:12311   */\n      dup4\n        /* \"#utility.yul\":12288:12519   */\n    tag_407:\n        /* \"#utility.yul\":12322:12328   */\n      dup2\n        /* \"#utility.yul\":12317:12320   */\n      dup2\n        /* \"#utility.yul\":12314:12329   */\n      lt\n        /* \"#utility.yul\":12288:12519   */\n      iszero\n      tag_409\n      jumpi\n        /* \"#utility.yul\":12397:12400   */\n      dup1\n        /* \"#utility.yul\":12426:12474   */\n      tag_410\n        /* \"#utility.yul\":12470:12473   */\n      dup9\n        /* \"#utility.yul\":12458:12468   */\n      dup3\n        /* \"#utility.yul\":12426:12474   */\n      tag_266\n      jump\t// in\n    tag_410:\n        /* \"#utility.yul\":12421:12424   */\n      dup5\n        /* \"#utility.yul\":12414:12475   */\n      mstore\n        /* \"#utility.yul\":12504:12508   */\n      0x20\n        /* \"#utility.yul\":12499:12502   */\n      dup5\n        /* \"#utility.yul\":12495:12509   */\n      add\n        /* \"#utility.yul\":12488:12509   */\n      swap4\n      pop\n        /* \"#utility.yul\":12364:12519   */\n      pop\n        /* \"#utility.yul\":12348:12352   */\n      0x20\n        /* \"#utility.yul\":12343:12346   */\n      dup2\n        /* \"#utility.yul\":12339:12353   */\n      add\n        /* \"#utility.yul\":12332:12353   */\n      swap1\n      pop\n        /* \"#utility.yul\":12288:12519   */\n      jump(tag_407)\n    tag_409:\n        /* \"#utility.yul\":12292:12313   */\n      pop\n        /* \"#utility.yul\":11906:12525   */\n      pop\n      pop\n        /* \"#utility.yul\":11793:12525   */\n      swap4\n      swap3\n      pop\n      pop\n      pop\n      jump\t// out\n        /* \"#utility.yul\":12548:12933   */\n    tag_268:\n        /* \"#utility.yul\":12630:12635   */\n      0x00\n        /* \"#utility.yul\":12679:12682   */\n      dup3\n        /* \"#utility.yul\":12672:12676   */\n      0x1f\n        /* \"#utility.yul\":12664:12670   */\n      dup4\n        /* \"#utility.yul\":12660:12677   */\n      add\n        /* \"#utility.yul\":12656:12683   */\n      slt\n        /* \"#utility.yul\":12646:12768   */\n      tag_412\n      jumpi\n        /* \"#utility.yul\":12687:12766   */\n      tag_413\n      tag_260\n      jump\t// in\n    tag_413:\n        /* \"#utility.yul\":12646:12768   */\n    tag_412:\n        /* \"#utility.yul\":12797:12803   */\n      dup2\n        /* \"#utility.yul\":12791:12804   */\n      mload\n        /* \"#utility.yul\":12822:12927   */\n      tag_414\n        /* \"#utility.yul\":12923:12926   */\n      dup5\n        /* \"#utility.yul\":12915:12921   */\n      dup3\n        /* \"#utility.yul\":12908:12912   */\n      0x20\n        /* \"#utility.yul\":12900:12906   */\n      dup7\n        /* \"#utility.yul\":12896:12913   */\n      add\n        /* \"#utility.yul\":12822:12927   */\n      tag_267\n      jump\t// in\n    tag_414:\n        /* \"#utility.yul\":12813:12927   */\n      swap2\n      pop\n        /* \"#utility.yul\":12636:12933   */\n      pop\n        /* \"#utility.yul\":12548:12933   */\n      swap3\n      swap2\n      pop\n      pop\n      jump\t// out\n        /* \"#utility.yul\":12939:13493   */\n    tag_111:\n        /* \"#utility.yul\":13034:13040   */\n      0x00\n        /* \"#utility.yul\":13083:13085   */\n      0x20\n        /* \"#utility.yul\":13071:13080   */\n      dup3\n        /* \"#utility.yul\":13062:13069   */\n      dup5\n        /* \"#utility.yul\":13058:13081   */\n      sub\n        /* \"#utility.yul\":13054:13086   */\n      slt\n        /* \"#utility.yul\":13051:13170   */\n      iszero\n      tag_416\n      jumpi\n        /* \"#utility.yul\":13089:13168   */\n      tag_417\n      tag_229\n      jump\t// in\n    tag_417:\n        /* \"#utility.yul\":13051:13170   */\n    tag_416:\n        /* \"#utility.yul\":13230:13231   */\n      0x00\n        /* \"#utility.yul\":13219:13228   */\n      dup3\n        /* \"#utility.yul\":13215:13232   */\n      add\n        /* \"#utility.yul\":13209:13233   */\n      mload\n        /* \"#utility.yul\":13260:13278   */\n      0xffffffffffffffff\n        /* \"#utility.yul\":13252:13258   */\n      dup2\n        /* \"#utility.yul\":13249:13279   */\n      gt\n        /* \"#utility.yul\":13246:13363   */\n      iszero\n      tag_418\n      jumpi\n        /* \"#utility.yul\":13282:13361   */\n      tag_419\n      tag_230\n      jump\t// in\n    tag_419:\n        /* \"#utility.yul\":13246:13363   */\n    tag_418:\n        /* \"#utility.yul\":13387:13476   */\n      tag_420\n        /* \"#utility.yul\":13468:13475   */\n      dup5\n        /* \"#utility.yul\":13459:13465   */\n      dup3\n        /* \"#utility.yul\":13448:13457   */\n      dup6\n        /* \"#utility.yul\":13444:13466   */\n      add\n        /* \"#utility.yul\":13387:13476   */\n      tag_268\n      jump\t// in\n    tag_420:\n        /* \"#utility.yul\":13377:13476   */\n      swap2\n      pop\n        /* \"#utility.yul\":13180:13486   */\n      pop\n        /* \"#utility.yul\":12939:13493   */\n      swap3\n      swap2\n      pop\n      pop\n      jump\t// out\n        /* \"#utility.yul\":13499:13679   */\n    tag_269:\n        /* \"#utility.yul\":13547:13624   */\n      0x4e487b7100000000000000000000000000000000000000000000000000000000\n        /* \"#utility.yul\":13544:13545   */\n      0x00\n        /* \"#utility.yul\":13537:13625   */\n      mstore\n        /* \"#utility.yul\":13644:13648   */\n      0x11\n        /* \"#utility.yul\":13641:13642   */\n      0x04\n        /* \"#utility.yul\":13634:13649   */\n      mstore\n        /* \"#utility.yul\":13668:13672   */\n      0x24\n        /* \"#utility.yul\":13665:13666   */\n      0x00\n        /* \"#utility.yul\":13658:13673   */\n      revert\n        /* \"#utility.yul\":13685:13879   */\n    tag_115:\n        /* \"#utility.yul\":13725:13729   */\n      0x00\n        /* \"#utility.yul\":13745:13765   */\n      tag_423\n        /* \"#utility.yul\":13763:13764   */\n      dup3\n        /* \"#utility.yul\":13745:13765   */\n      tag_243\n      jump\t// in\n    tag_423:\n        /* \"#utility.yul\":13740:13765   */\n      swap2\n      pop\n        /* \"#utility.yul\":13779:13799   */\n      tag_424\n        /* \"#utility.yul\":13797:13798   */\n      dup4\n        /* \"#utility.yul\":13779:13799   */\n      tag_243\n      jump\t// in\n    tag_424:\n        /* \"#utility.yul\":13774:13799   */\n      swap3\n      pop\n        /* \"#utility.yul\":13823:13824   */\n      dup3\n        /* \"#utility.yul\":13820:13821   */\n      dup3\n        /* \"#utility.yul\":13816:13825   */\n      sub\n        /* \"#utility.yul\":13808:13825   */\n      swap1\n      pop\n        /* \"#utility.yul\":13847:13848   */\n      dup2\n        /* \"#utility.yul\":13841:13845   */\n      dup2\n        /* \"#utility.yul\":13838:13849   */\n      gt\n        /* \"#utility.yul\":13835:13872   */\n      iszero\n      tag_425\n      jumpi\n        /* \"#utility.yul\":13852:13870   */\n      tag_426\n      tag_269\n      jump\t// in\n    tag_426:\n        /* \"#utility.yul\":13835:13872   */\n    tag_425:\n        /* \"#utility.yul\":13685:13879   */\n      swap3\n      swap2\n      pop\n      pop\n      jump\t// out\n        /* \"#utility.yul\":13885:14295   */\n    tag_117:\n        /* \"#utility.yul\":13925:13932   */\n      0x00\n        /* \"#utility.yul\":13948:13968   */\n      tag_428\n        /* \"#utility.yul\":13966:13967   */\n      dup3\n        /* \"#utility.yul\":13948:13968   */\n      tag_243\n      jump\t// in\n    tag_428:\n        /* \"#utility.yul\":13943:13968   */\n      swap2\n      pop\n        /* \"#utility.yul\":13982:14002   */\n      tag_429\n        /* \"#utility.yul\":14000:14001   */\n      dup4\n        /* \"#utility.yul\":13982:14002   */\n      tag_243\n      jump\t// in\n    tag_429:\n        /* \"#utility.yul\":13977:14002   */\n      swap3\n      pop\n        /* \"#utility.yul\":14037:14038   */\n      dup3\n        /* \"#utility.yul\":14034:14035   */\n      dup3\n        /* \"#utility.yul\":14030:14039   */\n      mul\n        /* \"#utility.yul\":14059:14089   */\n      tag_430\n        /* \"#utility.yul\":14077:14088   */\n      dup2\n        /* \"#utility.yul\":14059:14089   */\n      tag_243\n      jump\t// in\n    tag_430:\n        /* \"#utility.yul\":14048:14089   */\n      swap2\n      pop\n        /* \"#utility.yul\":14238:14239   */\n      dup3\n        /* \"#utility.yul\":14229:14236   */\n      dup3\n        /* \"#utility.yul\":14225:14240   */\n      div\n        /* \"#utility.yul\":14222:14223   */\n      dup5\n        /* \"#utility.yul\":14219:14241   */\n      eq\n        /* \"#utility.yul\":14199:14200   */\n      dup4\n        /* \"#utility.yul\":14192:14201   */\n      iszero\n        /* \"#utility.yul\":14172:14255   */\n      or\n        /* \"#utility.yul\":14149:14288   */\n      tag_431\n      jumpi\n        /* \"#utility.yul\":14268:14286   */\n      tag_432\n      tag_269\n      jump\t// in\n    tag_432:\n        /* \"#utility.yul\":14149:14288   */\n    tag_431:\n        /* \"#utility.yul\":13933:14295   */\n      pop\n        /* \"#utility.yul\":13885:14295   */\n      swap3\n      swap2\n      pop\n      pop\n      jump\t// out\n        /* \"#utility.yul\":14301:14481   */\n    tag_270:\n        /* \"#utility.yul\":14349:14426   */\n      0x4e487b7100000000000000000000000000000000000000000000000000000000\n        /* \"#utility.yul\":14346:14347   */\n      0x00\n        /* \"#utility.yul\":14339:14427   */\n      mstore\n        /* \"#utility.yul\":14446:14450   */\n      0x12\n        /* \"#utility.yul\":14443:14444   */\n      0x04\n        /* \"#utility.yul\":14436:14451   */\n      mstore\n        /* \"#utility.yul\":14470:14474   */\n      0x24\n        /* \"#utility.yul\":14467:14468   */\n      0x00\n        /* \"#utility.yul\":14460:14475   */\n      revert\n        /* \"#utility.yul\":14487:14672   */\n    tag_119:\n        /* \"#utility.yul\":14527:14528   */\n      0x00\n        /* \"#utility.yul\":14544:14564   */\n      tag_435\n        /* \"#utility.yul\":14562:14563   */\n      dup3\n        /* \"#utility.yul\":14544:14564   */\n      tag_243\n      jump\t// in\n    tag_435:\n        /* \"#utility.yul\":14539:14564   */\n      swap2\n      pop\n        /* \"#utility.yul\":14578:14598   */\n      tag_436\n        /* \"#utility.yul\":14596:14597   */\n      dup4\n        /* \"#utility.yul\":14578:14598   */\n      tag_243\n      jump\t// in\n    tag_436:\n        /* \"#utility.yul\":14573:14598   */\n      swap3\n      pop\n        /* \"#utility.yul\":14617:14618   */\n      dup3\n        /* \"#utility.yul\":14607:14642   */\n      tag_437\n      jumpi\n        /* \"#utility.yul\":14622:14640   */\n      tag_438\n      tag_270\n      jump\t// in\n    tag_438:\n        /* \"#utility.yul\":14607:14642   */\n    tag_437:\n        /* \"#utility.yul\":14664:14665   */\n      dup3\n        /* \"#utility.yul\":14661:14662   */\n      dup3\n        /* \"#utility.yul\":14657:14666   */\n      div\n        /* \"#utility.yul\":14652:14666   */\n      swap1\n      pop\n        /* \"#utility.yul\":14487:14672   */\n      swap3\n      swap2\n      pop\n      pop\n      jump\t// out\n        /* \"#utility.yul\":14678:14904   */\n    tag_271:\n        /* \"#utility.yul\":14818:14852   */\n      0x457374696d617465642067617320636f73742065786365656473206d696e416d\n        /* \"#utility.yul\":14814:14815   */\n      0x00\n        /* \"#utility.yul\":14806:14812   */\n      dup3\n        /* \"#utility.yul\":14802:14816   */\n      add\n        /* \"#utility.yul\":14795:14853   */\n      mstore\n        /* \"#utility.yul\":14887:14896   */\n      0x6f756e744f757400000000000000000000000000000000000000000000000000\n        /* \"#utility.yul\":14882:14884   */\n      0x20\n        /* \"#utility.yul\":14874:14880   */\n      dup3\n        /* \"#utility.yul\":14870:14885   */\n      add\n        /* \"#utility.yul\":14863:14897   */\n      mstore\n        /* \"#utility.yul\":14678:14904   */\n      pop\n      jump\t// out\n        /* \"#utility.yul\":14910:15276   */\n    tag_272:\n        /* \"#utility.yul\":15052:15055   */\n      0x00\n        /* \"#utility.yul\":15073:15140   */\n      tag_441\n        /* \"#utility.yul\":15137:15139   */\n      0x27\n        /* \"#utility.yul\":15132:15135   */\n      dup4\n        /* \"#utility.yul\":15073:15140   */\n      tag_249\n      jump\t// in\n    tag_441:\n        /* \"#utility.yul\":15066:15140   */\n      swap2\n      pop\n        /* \"#utility.yul\":15149:15242   */\n      tag_442\n        /* \"#utility.yul\":15238:15241   */\n      dup3\n        /* \"#utility.yul\":15149:15242   */\n      tag_271\n      jump\t// in\n    tag_442:\n        /* \"#utility.yul\":15267:15269   */\n      0x40\n        /* \"#utility.yul\":15262:15265   */\n      dup3\n        /* \"#utility.yul\":15258:15270   */\n      add\n        /* \"#utility.yul\":15251:15270   */\n      swap1\n      pop\n        /* \"#utility.yul\":14910:15276   */\n      swap2\n      swap1\n      pop\n      jump\t// out\n        /* \"#utility.yul\":15282:15701   */\n    tag_154:\n        /* \"#utility.yul\":15448:15452   */\n      0x00\n        /* \"#utility.yul\":15486:15488   */\n      0x20\n        /* \"#utility.yul\":15475:15484   */\n      dup3\n        /* \"#utility.yul\":15471:15489   */\n      add\n        /* \"#utility.yul\":15463:15489   */\n      swap1\n      pop\n        /* \"#utility.yul\":15535:15544   */\n      dup2\n        /* \"#utility.yul\":15529:15533   */\n      dup2\n        /* \"#utility.yul\":15525:15545   */\n      sub\n        /* \"#utility.yul\":15521:15522   */\n      0x00\n        /* \"#utility.yul\":15510:15519   */\n      dup4\n        /* \"#utility.yul\":15506:15523   */\n      add\n        /* \"#utility.yul\":15499:15546   */\n      mstore\n        /* \"#utility.yul\":15563:15694   */\n      tag_444\n        /* \"#utility.yul\":15689:15693   */\n      dup2\n        /* \"#utility.yul\":15563:15694   */\n      tag_272\n      jump\t// in\n    tag_444:\n        /* \"#utility.yul\":15555:15694   */\n      swap1\n      pop\n        /* \"#utility.yul\":15282:15701   */\n      swap2\n      swap1\n      pop\n      jump\t// out\n        /* \"#utility.yul\":15707:15878   */\n    tag_273:\n        /* \"#utility.yul\":15847:15870   */\n      0x5377617020457870656374656420746f204661696c0000000000000000000000\n        /* \"#utility.yul\":15843:15844   */\n      0x00\n        /* \"#utility.yul\":15835:15841   */\n      dup3\n        /* \"#utility.yul\":15831:15845   */\n      add\n        /* \"#utility.yul\":15824:15871   */\n      mstore\n        /* \"#utility.yul\":15707:15878   */\n      pop\n      jump\t// out\n        /* \"#utility.yul\":15884:16250   */\n    tag_274:\n        /* \"#utility.yul\":16026:16029   */\n      0x00\n        /* \"#utility.yul\":16047:16114   */\n      tag_447\n        /* \"#utility.yul\":16111:16113   */\n      0x15\n        /* \"#utility.yul\":16106:16109   */\n      dup4\n        /* \"#utility.yul\":16047:16114   */\n      tag_249\n      jump\t// in\n    tag_447:\n        /* \"#utility.yul\":16040:16114   */\n      swap2\n      pop\n        /* \"#utility.yul\":16123:16216   */\n      tag_448\n        /* \"#utility.yul\":16212:16215   */\n      dup3\n        /* \"#utility.yul\":16123:16216   */\n      tag_273\n      jump\t// in\n    tag_448:\n        /* \"#utility.yul\":16241:16243   */\n      0x20\n        /* \"#utility.yul\":16236:16239   */\n      dup3\n        /* \"#utility.yul\":16232:16244   */\n      add\n        /* \"#utility.yul\":16225:16244   */\n      swap1\n      pop\n        /* \"#utility.yul\":15884:16250   */\n      swap2\n      swap1\n      pop\n      jump\t// out\n        /* \"#utility.yul\":16256:16675   */\n    tag_158:\n        /* \"#utility.yul\":16422:16426   */\n      0x00\n        /* \"#utility.yul\":16460:16462   */\n      0x20\n        /* \"#utility.yul\":16449:16458   */\n      dup3\n        /* \"#utility.yul\":16445:16463   */\n      add\n        /* \"#utility.yul\":16437:16463   */\n      swap1\n      pop\n        /* \"#utility.yul\":16509:16518   */\n      dup2\n        /* \"#utility.yul\":16503:16507   */\n      dup2\n        /* \"#utility.yul\":16499:16519   */\n      sub\n        /* \"#utility.yul\":16495:16496   */\n      0x00\n        /* \"#utility.yul\":16484:16493   */\n      dup4\n        /* \"#utility.yul\":16480:16497   */\n      add\n        /* \"#utility.yul\":16473:16520   */\n      mstore\n        /* \"#utility.yul\":16537:16668   */\n      tag_450\n        /* \"#utility.yul\":16663:16667   */\n      dup2\n        /* \"#utility.yul\":16537:16668   */\n      tag_274\n      jump\t// in\n    tag_450:\n        /* \"#utility.yul\":16529:16668   */\n      swap1\n      pop\n        /* \"#utility.yul\":16256:16675   */\n      swap2\n      swap1\n      pop\n      jump\t// out\n        /* \"#utility.yul\":16681:17123   */\n    tag_160:\n        /* \"#utility.yul\":16830:16834   */\n      0x00\n        /* \"#utility.yul\":16868:16870   */\n      0x60\n        /* \"#utility.yul\":16857:16866   */\n      dup3\n        /* \"#utility.yul\":16853:16871   */\n      add\n        /* \"#utility.yul\":16845:16871   */\n      swap1\n      pop\n        /* \"#utility.yul\":16881:16952   */\n      tag_452\n        /* \"#utility.yul\":16949:16950   */\n      0x00\n        /* \"#utility.yul\":16938:16947   */\n      dup4\n        /* \"#utility.yul\":16934:16951   */\n      add\n        /* \"#utility.yul\":16925:16931   */\n      dup7\n        /* \"#utility.yul\":16881:16952   */\n      tag_240\n      jump\t// in\n    tag_452:\n        /* \"#utility.yul\":16962:17034   */\n      tag_453\n        /* \"#utility.yul\":17030:17032   */\n      0x20\n        /* \"#utility.yul\":17019:17028   */\n      dup4\n        /* \"#utility.yul\":17015:17033   */\n      add\n        /* \"#utility.yul\":17006:17012   */\n      dup6\n        /* \"#utility.yul\":16962:17034   */\n      tag_240\n      jump\t// in\n    tag_453:\n        /* \"#utility.yul\":17044:17116   */\n      tag_454\n        /* \"#utility.yul\":17112:17114   */\n      0x40\n        /* \"#utility.yul\":17101:17110   */\n      dup4\n        /* \"#utility.yul\":17097:17115   */\n      add\n        /* \"#utility.yul\":17088:17094   */\n      dup5\n        /* \"#utility.yul\":17044:17116   */\n      tag_244\n      jump\t// in\n    tag_454:\n        /* \"#utility.yul\":16681:17123   */\n      swap5\n      swap4\n      pop\n      pop\n      pop\n      pop\n      jump\t// out\n        /* \"#utility.yul\":17129:17245   */\n    tag_275:\n        /* \"#utility.yul\":17199:17220   */\n      tag_456\n        /* \"#utility.yul\":17214:17219   */\n      dup2\n        /* \"#utility.yul\":17199:17220   */\n      tag_247\n      jump\t// in\n    tag_456:\n        /* \"#utility.yul\":17192:17197   */\n      dup2\n        /* \"#utility.yul\":17189:17221   */\n      eq\n        /* \"#utility.yul\":17179:17239   */\n      tag_457\n      jumpi\n        /* \"#utility.yul\":17235:17236   */\n      0x00\n        /* \"#utility.yul\":17232:17233   */\n      dup1\n        /* \"#utility.yul\":17225:17237   */\n      revert\n        /* \"#utility.yul\":17179:17239   */\n    tag_457:\n        /* \"#utility.yul\":17129:17245   */\n      pop\n      jump\t// out\n        /* \"#utility.yul\":17251:17388   */\n    tag_276:\n        /* \"#utility.yul\":17305:17310   */\n      0x00\n        /* \"#utility.yul\":17336:17342   */\n      dup2\n        /* \"#utility.yul\":17330:17343   */\n      mload\n        /* \"#utility.yul\":17321:17343   */\n      swap1\n      pop\n        /* \"#utility.yul\":17352:17382   */\n      tag_459\n        /* \"#utility.yul\":17376:17381   */\n      dup2\n        /* \"#utility.yul\":17352:17382   */\n      tag_275\n      jump\t// in\n    tag_459:\n        /* \"#utility.yul\":17251:17388   */\n      swap3\n      swap2\n      pop\n      pop\n      jump\t// out\n        /* \"#utility.yul\":17394:17739   */\n    tag_164:\n        /* \"#utility.yul\":17461:17467   */\n      0x00\n        /* \"#utility.yul\":17510:17512   */\n      0x20\n        /* \"#utility.yul\":17498:17507   */\n      dup3\n        /* \"#utility.yul\":17489:17496   */\n      dup5\n        /* \"#utility.yul\":17485:17508   */\n      sub\n        /* \"#utility.yul\":17481:17513   */\n      slt\n        /* \"#utility.yul\":17478:17597   */\n      iszero\n      tag_461\n      jumpi\n        /* \"#utility.yul\":17516:17595   */\n      tag_462\n      tag_229\n      jump\t// in\n    tag_462:\n        /* \"#utility.yul\":17478:17597   */\n    tag_461:\n        /* \"#utility.yul\":17636:17637   */\n      0x00\n        /* \"#utility.yul\":17661:17722   */\n      tag_463\n        /* \"#utility.yul\":17714:17721   */\n      dup5\n        /* \"#utility.yul\":17705:17711   */\n      dup3\n        /* \"#utility.yul\":17694:17703   */\n      dup6\n        /* \"#utility.yul\":17690:17712   */\n      add\n        /* \"#utility.yul\":17661:17722   */\n      tag_276\n      jump\t// in\n    tag_463:\n        /* \"#utility.yul\":17651:17722   */\n      swap2\n      pop\n        /* \"#utility.yul\":17607:17732   */\n      pop\n        /* \"#utility.yul\":17394:17739   */\n      swap3\n      swap2\n      pop\n      pop\n      jump\t// out\n        /* \"#utility.yul\":17745:18077   */\n    tag_166:\n        /* \"#utility.yul\":17866:17870   */\n      0x00\n        /* \"#utility.yul\":17904:17906   */\n      0x40\n        /* \"#utility.yul\":17893:17902   */\n      dup3\n        /* \"#utility.yul\":17889:17907   */\n      add\n        /* \"#utility.yul\":17881:17907   */\n      swap1\n      pop\n        /* \"#utility.yul\":17917:17988   */\n      tag_465\n        /* \"#utility.yul\":17985:17986   */\n      0x00\n        /* \"#utility.yul\":17974:17983   */\n      dup4\n        /* \"#utility.yul\":17970:17987   */\n      add\n        /* \"#utility.yul\":17961:17967   */\n      dup6\n        /* \"#utility.yul\":17917:17988   */\n      tag_240\n      jump\t// in\n    tag_465:\n        /* \"#utility.yul\":17998:18070   */\n      tag_466\n        /* \"#utility.yul\":18066:18068   */\n      0x20\n        /* \"#utility.yul\":18055:18064   */\n      dup4\n        /* \"#utility.yul\":18051:18069   */\n      add\n        /* \"#utility.yul\":18042:18048   */\n      dup5\n        /* \"#utility.yul\":17998:18070   */\n      tag_244\n      jump\t// in\n    tag_466:\n        /* \"#utility.yul\":17745:18077   */\n      swap4\n      swap3\n      pop\n      pop\n      pop\n      jump\t// out\n        /* \"#utility.yul\":18083:18898   */\n    tag_181:\n        /* \"#utility.yul\":18338:18342   */\n      0x00\n        /* \"#utility.yul\":18376:18379   */\n      0xa0\n        /* \"#utility.yul\":18365:18374   */\n      dup3\n        /* \"#utility.yul\":18361:18380   */\n      add\n        /* \"#utility.yul\":18353:18380   */\n      swap1\n      pop\n        /* \"#utility.yul\":18390:18461   */\n      tag_468\n        /* \"#utility.yul\":18458:18459   */\n      0x00\n        /* \"#utility.yul\":18447:18456   */\n      dup4\n        /* \"#utility.yul\":18443:18460   */\n      add\n        /* \"#utility.yul\":18434:18440   */\n      dup9\n        /* \"#utility.yul\":18390:18461   */\n      tag_244\n      jump\t// in\n    tag_468:\n        /* \"#utility.yul\":18471:18543   */\n      tag_469\n        /* \"#utility.yul\":18539:18541   */\n      0x20\n        /* \"#utility.yul\":18528:18537   */\n      dup4\n        /* \"#utility.yul\":18524:18542   */\n      add\n        /* \"#utility.yul\":18515:18521   */\n      dup8\n        /* \"#utility.yul\":18471:18543   */\n      tag_244\n      jump\t// in\n    tag_469:\n        /* \"#utility.yul\":18590:18599   */\n      dup2\n        /* \"#utility.yul\":18584:18588   */\n      dup2\n        /* \"#utility.yul\":18580:18600   */\n      sub\n        /* \"#utility.yul\":18575:18577   */\n      0x40\n        /* \"#utility.yul\":18564:18573   */\n      dup4\n        /* \"#utility.yul\":18560:18578   */\n      add\n        /* \"#utility.yul\":18553:18601   */\n      mstore\n        /* \"#utility.yul\":18618:18726   */\n      tag_470\n        /* \"#utility.yul\":18721:18725   */\n      dup2\n        /* \"#utility.yul\":18712:18718   */\n      dup7\n        /* \"#utility.yul\":18618:18726   */\n      tag_259\n      jump\t// in\n    tag_470:\n        /* \"#utility.yul\":18610:18726   */\n      swap1\n      pop\n        /* \"#utility.yul\":18736:18808   */\n      tag_471\n        /* \"#utility.yul\":18804:18806   */\n      0x60\n        /* \"#utility.yul\":18793:18802   */\n      dup4\n        /* \"#utility.yul\":18789:18807   */\n      add\n        /* \"#utility.yul\":18780:18786   */\n      dup6\n        /* \"#utility.yul\":18736:18808   */\n      tag_240\n      jump\t// in\n    tag_471:\n        /* \"#utility.yul\":18818:18891   */\n      tag_472\n        /* \"#utility.yul\":18886:18889   */\n      0x80\n        /* \"#utility.yul\":18875:18884   */\n      dup4\n        /* \"#utility.yul\":18871:18890   */\n      add\n        /* \"#utility.yul\":18862:18868   */\n      dup5\n        /* \"#utility.yul\":18818:18891   */\n      tag_244\n      jump\t// in\n    tag_472:\n        /* \"#utility.yul\":18083:18898   */\n      swap7\n      swap6\n      pop\n      pop\n      pop\n      pop\n      pop\n      pop\n      jump\t// out\n        /* \"#utility.yul\":18904:19236   */\n    tag_203:\n        /* \"#utility.yul\":19025:19029   */\n      0x00\n        /* \"#utility.yul\":19063:19065   */\n      0x40\n        /* \"#utility.yul\":19052:19061   */\n      dup3\n        /* \"#utility.yul\":19048:19066   */\n      add\n        /* \"#utility.yul\":19040:19066   */\n      swap1\n      pop\n        /* \"#utility.yul\":19076:19147   */\n      tag_474\n        /* \"#utility.yul\":19144:19145   */\n      0x00\n        /* \"#utility.yul\":19133:19142   */\n      dup4\n        /* \"#utility.yul\":19129:19146   */\n      add\n        /* \"#utility.yul\":19120:19126   */\n      dup6\n        /* \"#utility.yul\":19076:19147   */\n      tag_244\n      jump\t// in\n    tag_474:\n        /* \"#utility.yul\":19157:19229   */\n      tag_475\n        /* \"#utility.yul\":19225:19227   */\n      0x20\n        /* \"#utility.yul\":19214:19223   */\n      dup4\n        /* \"#utility.yul\":19210:19228   */\n      add\n        /* \"#utility.yul\":19201:19207   */\n      dup5\n        /* \"#utility.yul\":19157:19229   */\n      tag_244\n      jump\t// in\n    tag_475:\n        /* \"#utility.yul\":18904:19236   */\n      swap4\n      swap3\n      pop\n      pop\n      pop\n      jump\t// out\n\n    auxdata: 0xa2646970667358221220fa012e4950a1aaecee966af1ed0305b118f15cfa8f9b50d6e2e978bc5076480a64736f6c63430008140033\n}\n",
				"bytecode": {
					"linkReferences": {},
					"object": "60806040526101f460035534801562000016575f80fd5b5060405162001e8f38038062001e8f83398181016040528101906200003c919062000270565b335f73ffffffffffffffffffffffffffffffffffffffff168173ffffffffffffffffffffffffffffffffffffffff1603620000b0575f6040517f1e4fbdf7000000000000000000000000000000000000000000000000000000008152600401620000a79190620002c6565b60405180910390fd5b620000c1816200014a60201b60201c565b508160015f6101000a81548173ffffffffffffffffffffffffffffffffffffffff021916908373ffffffffffffffffffffffffffffffffffffffff1602179055508060025f6101000a81548173ffffffffffffffffffffffffffffffffffffffff021916908373ffffffffffffffffffffffffffffffffffffffff1602179055505050620002e1565b5f805f9054906101000a900473ffffffffffffffffffffffffffffffffffffffff169050815f806101000a81548173ffffffffffffffffffffffffffffffffffffffff021916908373ffffffffffffffffffffffffffffffffffffffff1602179055508173ffffffffffffffffffffffffffffffffffffffff168173ffffffffffffffffffffffffffffffffffffffff167f8be0079c531659141344cd1fd0a4f28419497f9722a3daafe3b4186f6b6457e060405160405180910390a35050565b5f80fd5b5f73ffffffffffffffffffffffffffffffffffffffff82169050919050565b5f6200023a826200020f565b9050919050565b6200024c816200022e565b811462000257575f80fd5b50565b5f815190506200026a8162000241565b92915050565b5f80604083850312156200028957620002886200020b565b5b5f62000298858286016200025a565b9250506020620002ab858286016200025a565b9150509250929050565b620002c0816200022e565b82525050565b5f602082019050620002db5f830184620002b5565b92915050565b611ba080620002ef5f395ff3fe6080604052600436106100c1575f3560e01c8063ad9902a11161007e578063e15cc8da11610058578063e15cc8da1461024d578063f14210a614610275578063f2fde38b1461029d578063f6326fb3146102c5576100c1565b8063ad9902a1146101ab578063ae06c1b7146101e9578063b479820914610211576100c1565b80634e63c29e146100c5578063715018a6146100ed578063735de9f7146101035780638da5cb5b1461012d57806393ad744014610157578063a001ecdd14610181575b5f80fd5b3480156100d0575f80fd5b506100eb60048036038101906100e69190611230565b6102cf565b005b3480156100f8575f80fd5b506101016103bf565b005b34801561010e575f80fd5b506101176103d2565b60405161012491906112b6565b60405180910390f35b348015610138575f80fd5b506101416103f7565b60405161014e91906112de565b60405180910390f35b348015610162575f80fd5b5061016b61041e565b6040516101789190611317565b60405180910390f35b34801561018c575f80fd5b50610195610443565b6040516101a29190611348565b60405180910390f35b3480156101b6575f80fd5b506101d160048036038101906101cc919061138b565b610449565b6040516101e093929190611409565b60405180910390f35b3480156101f4575f80fd5b5061020f600480360381019061020a919061143e565b6106e1565b005b34801561021c575f80fd5b5061023760048036038101906102329190611469565b61072a565b60405161024491906114b9565b60405180910390f35b348015610258575f80fd5b50610273600480360381019061026e9190611469565b6109c3565b005b348015610280575f80fd5b5061029b6004803603810190610296919061143e565b610f92565b005b3480156102a8575f80fd5b506102c360048036038101906102be9190611230565b610fe8565b005b6102cd61106c565b005b6102d7611076565b5f73ffffffffffffffffffffffffffffffffffffffff168173ffffffffffffffffffffffffffffffffffffffff1603610345576040517f08c379a000000000000000000000000000000000000000000000000000000000815260040161033c9061152c565b60405180910390fd5b8060025f6101000a81548173ffffffffffffffffffffffffffffffffffffffff021916908373ffffffffffffffffffffffffffffffffffffffff1602179055507fecb9755730c832a50c16ea8001a277be77d816b09dc686fe072d4f2285e5cece816040516103b491906112de565b60405180910390a150565b6103c7611076565b6103d05f6110fd565b565b60015f9054906101000a900473ffffffffffffffffffffffffffffffffffffffff1681565b5f805f9054906101000a900473ffffffffffffffffffffffffffffffffffffffff16905090565b60025f9054906101000a900473ffffffffffffffffffffffffffffffffffffffff1681565b60035481565b5f805f80600267ffffffffffffffff8111156104685761046761154a565b5b6040519080825280602002602001820160405280156104965781602001602082028036833780820191505090505b50905087815f815181106104ad576104ac611577565b5b602002602001019073ffffffffffffffffffffffffffffffffffffffff16908173ffffffffffffffffffffffffffffffffffffffff168152505060015f9054906101000a900473ffffffffffffffffffffffffffffffffffffffff1673ffffffffffffffffffffffffffffffffffffffff1663ad5c46486040518163ffffffff1660e01b8152600401602060405180830381865afa158015610551573d5f803e3d5ffd5b505050506040513d601f19601f8201168201806040525081019061057591906115b8565b8160018151811061058957610588611577565b5b602002602001019073ffffffffffffffffffffffffffffffffffffffff16908173ffffffffffffffffffffffffffffffffffffffff16815250505f60015f9054906101000a900473ffffffffffffffffffffffffffffffffffffffff1673ffffffffffffffffffffffffffffffffffffffff1663d06ca61f89846040518363ffffffff1660e01b815260040161062092919061169a565b5f60405180830381865afa15801561063a573d5f803e3d5ffd5b505050506040513d5f823e3d601f19601f8201168201806040525081019061066291906117ff565b90505f8160018151811061067957610678611577565b5b60200260200101519050612710886127106106949190611873565b8261069f91906118a6565b6106a99190611914565b95505f620360f4905087816106be91906118a6565b955086866106cd8d8d8c61072a565b965096509650505050509450945094915050565b6106e9611076565b806003819055507f8c4d35e54a3f2ef1134138fd8ea3daee6a3c89e10d2665996babdf70261e2c768160405161071f9190611348565b60405180910390a150565b5f80600267ffffffffffffffff8111156107475761074661154a565b5b6040519080825280602002602001820160405280156107755781602001602082028036833780820191505090505b50905084815f8151811061078c5761078b611577565b5b602002602001019073ffffffffffffffffffffffffffffffffffffffff16908173ffffffffffffffffffffffffffffffffffffffff168152505060015f9054906101000a900473ffffffffffffffffffffffffffffffffffffffff1673ffffffffffffffffffffffffffffffffffffffff1663ad5c46486040518163ffffffff1660e01b8152600401602060405180830381865afa158015610830573d5f803e3d5ffd5b505050506040513d601f19601f8201168201806040525081019061085491906115b8565b8160018151811061086857610867611577565b5b602002602001019073ffffffffffffffffffffffffffffffffffffffff16908173ffffffffffffffffffffffffffffffffffffffff16815250505f60015f9054906101000a900473ffffffffffffffffffffffffffffffffffffffff1673ffffffffffffffffffffffffffffffffffffffff1663d06ca61f86846040518363ffffffff1660e01b81526004016108ff92919061169a565b5f60405180830381865afa158015610919573d5f803e3d5ffd5b505050506040513d5f823e3d601f19601f8201168201806040525081019061094191906117ff565b90505f8160018151811061095857610957611577565b5b60200260200101510361096f575f925050506109bc565b5f620360f490505f858261098391906118a6565b90508260018151811061099957610998611577565b5b602002602001015181106109b3575f9450505050506109bc565b60019450505050505b9392505050565b6109cb611076565b5f620360f490505f3a826109df91906118a6565b9050828110610a23576040517f08c379a0000000000000000000000000000000000000000000000000000000008152600401610a1a906119b4565b60405180910390fd5b610a2e85853a61072a565b610a6d576040517f08c379a0000000000000000000000000000000000000000000000000000000008152600401610a6490611a1c565b60405180910390fd5b8473ffffffffffffffffffffffffffffffffffffffff166323b872dd3330876040518463ffffffff1660e01b8152600401610aaa93929190611a3a565b6020604051808303815f875af1158015610ac6573d5f803e3d5ffd5b505050506040513d601f19601f82011682018060405250810190610aea9190611a99565b508473ffffffffffffffffffffffffffffffffffffffff1663095ea7b360015f9054906101000a900473ffffffffffffffffffffffffffffffffffffffff16866040518363ffffffff1660e01b8152600401610b47929190611ac4565b6020604051808303815f875af1158015610b63573d5f803e3d5ffd5b505050506040513d601f19601f82011682018060405250810190610b879190611a99565b505f600267ffffffffffffffff811115610ba457610ba361154a565b5b604051908082528060200260200182016040528015610bd25781602001602082028036833780820191505090505b50905085815f81518110610be957610be8611577565b5b602002602001019073ffffffffffffffffffffffffffffffffffffffff16908173ffffffffffffffffffffffffffffffffffffffff168152505060015f9054906101000a900473ffffffffffffffffffffffffffffffffffffffff1673ffffffffffffffffffffffffffffffffffffffff1663ad5c46486040518163ffffffff1660e01b8152600401602060405180830381865afa158015610c8d573d5f803e3d5ffd5b505050506040513d601f19601f82011682018060405250810190610cb191906115b8565b81600181518110610cc557610cc4611577565b5b602002602001019073ffffffffffffffffffffffffffffffffffffffff16908173ffffffffffffffffffffffffffffffffffffffff16815250505f60015f9054906101000a900473ffffffffffffffffffffffffffffffffffffffff1673ffffffffffffffffffffffffffffffffffffffff166318cbafe587878530426040518663ffffffff1660e01b8152600401610d62959493929190611aeb565b5f604051808303815f875af1158015610d7d573d5f803e3d5ffd5b505050506040513d5f823e3d601f19601f82011682018060405250810190610da591906117ff565b90505f81600181518110610dbc57610dbb611577565b5b602002602001015190505f61271060035483610dd891906118a6565b610de29190611914565b90505f6064605a83610df491906118a6565b610dfe9190611914565b90505f8183610e0d9190611873565b905060025f9054906101000a900473ffffffffffffffffffffffffffffffffffffffff1673ffffffffffffffffffffffffffffffffffffffff1663099da9e9836040518263ffffffff1660e01b8152600401610e699190611348565b5f604051808303815f87803b158015610e80575f80fd5b505af1158015610e92573d5f803e3d5ffd5b50505050610e9e6103f7565b73ffffffffffffffffffffffffffffffffffffffff166108fc8290811502906040515f60405180830381858888f19350505050158015610ee0573d5f803e3d5ffd5b505f8385610eee9190611873565b90503373ffffffffffffffffffffffffffffffffffffffff166108fc8290811502906040515f60405180830381858888f19350505050158015610f33573d5f803e3d5ffd5b503373ffffffffffffffffffffffffffffffffffffffff167fd0dcb5d6ccbc65558941eda1d0add99921923cc1868a41bbf8d224258a21396d8c87604051610f7c929190611b43565b60405180910390a2505050505050505050505050565b610f9a611076565b610fa26103f7565b73ffffffffffffffffffffffffffffffffffffffff166108fc8290811502906040515f60405180830381858888f19350505050158015610fe4573d5f803e3d5ffd5b5050565b610ff0611076565b5f73ffffffffffffffffffffffffffffffffffffffff168173ffffffffffffffffffffffffffffffffffffffff1603611060575f6040517f1e4fbdf700000000000000000000000000000000000000000000000000000000815260040161105791906112de565b60405180910390fd5b611069816110fd565b50565b611074611076565b565b61107e6111be565b73ffffffffffffffffffffffffffffffffffffffff1661109c6103f7565b73ffffffffffffffffffffffffffffffffffffffff16146110fb576110bf6111be565b6040517f118cdaa70000000000000000000000000000000000000000000000000000000081526004016110f291906112de565b60405180910390fd5b565b5f805f9054906101000a900473ffffffffffffffffffffffffffffffffffffffff169050815f806101000a81548173ffffffffffffffffffffffffffffffffffffffff021916908373ffffffffffffffffffffffffffffffffffffffff1602179055508173ffffffffffffffffffffffffffffffffffffffff168173ffffffffffffffffffffffffffffffffffffffff167f8be0079c531659141344cd1fd0a4f28419497f9722a3daafe3b4186f6b6457e060405160405180910390a35050565b5f33905090565b5f604051905090565b5f80fd5b5f80fd5b5f73ffffffffffffffffffffffffffffffffffffffff82169050919050565b5f6111ff826111d6565b9050919050565b61120f816111f5565b8114611219575f80fd5b50565b5f8135905061122a81611206565b92915050565b5f60208284031215611245576112446111ce565b5b5f6112528482850161121c565b91505092915050565b5f819050919050565b5f61127e611279611274846111d6565b61125b565b6111d6565b9050919050565b5f61128f82611264565b9050919050565b5f6112a082611285565b9050919050565b6112b081611296565b82525050565b5f6020820190506112c95f8301846112a7565b92915050565b6112d8816111f5565b82525050565b5f6020820190506112f15f8301846112cf565b92915050565b5f61130182611285565b9050919050565b611311816112f7565b82525050565b5f60208201905061132a5f830184611308565b92915050565b5f819050919050565b61134281611330565b82525050565b5f60208201905061135b5f830184611339565b92915050565b61136a81611330565b8114611374575f80fd5b50565b5f8135905061138581611361565b92915050565b5f805f80608085870312156113a3576113a26111ce565b5b5f6113b08782880161121c565b94505060206113c187828801611377565b93505060406113d287828801611377565b92505060606113e387828801611377565b91505092959194509250565b5f8115159050919050565b611403816113ef565b82525050565b5f60608201905061141c5f830186611339565b6114296020830185611339565b61143660408301846113fa565b949350505050565b5f60208284031215611453576114526111ce565b5b5f61146084828501611377565b91505092915050565b5f805f606084860312156114805761147f6111ce565b5b5f61148d8682870161121c565b935050602061149e86828701611377565b92505060406114af86828701611377565b9150509250925092565b5f6020820190506114cc5f8301846113fa565b92915050565b5f82825260208201905092915050565b7f496e76616c6964206164647265737300000000000000000000000000000000005f82015250565b5f611516600f836114d2565b9150611521826114e2565b602082019050919050565b5f6020820190508181035f8301526115438161150a565b9050919050565b7f4e487b71000000000000000000000000000000000000000000000000000000005f52604160045260245ffd5b7f4e487b71000000000000000000000000000000000000000000000000000000005f52603260045260245ffd5b5f815190506115b281611206565b92915050565b5f602082840312156115cd576115cc6111ce565b5b5f6115da848285016115a4565b91505092915050565b5f81519050919050565b5f82825260208201905092915050565b5f819050602082019050919050565b611615816111f5565b82525050565b5f611626838361160c565b60208301905092915050565b5f602082019050919050565b5f611648826115e3565b61165281856115ed565b935061165d836115fd565b805f5b8381101561168d578151611674888261161b565b975061167f83611632565b925050600181019050611660565b5085935050505092915050565b5f6040820190506116ad5f830185611339565b81810360208301526116bf818461163e565b90509392505050565b5f80fd5b5f601f19601f8301169050919050565b6116e5826116cc565b810181811067ffffffffffffffff821117156117045761170361154a565b5b80604052505050565b5f6117166111c5565b905061172282826116dc565b919050565b5f67ffffffffffffffff8211156117415761174061154a565b5b602082029050602081019050919050565b5f80fd5b5f8151905061176481611361565b92915050565b5f61177c61177784611727565b61170d565b9050808382526020820190506020840283018581111561179f5761179e611752565b5b835b818110156117c857806117b48882611756565b8452602084019350506020810190506117a1565b5050509392505050565b5f82601f8301126117e6576117e56116c8565b5b81516117f684826020860161176a565b91505092915050565b5f60208284031215611814576118136111ce565b5b5f82015167ffffffffffffffff811115611831576118306111d2565b5b61183d848285016117d2565b91505092915050565b7f4e487b71000000000000000000000000000000000000000000000000000000005f52601160045260245ffd5b5f61187d82611330565b915061188883611330565b92508282039050818111156118a05761189f611846565b5b92915050565b5f6118b082611330565b91506118bb83611330565b92508282026118c981611330565b915082820484148315176118e0576118df611846565b5b5092915050565b7f4e487b71000000000000000000000000000000000000000000000000000000005f52601260045260245ffd5b5f61191e82611330565b915061192983611330565b925082611939576119386118e7565b5b828204905092915050565b7f457374696d617465642067617320636f73742065786365656473206d696e416d5f8201527f6f756e744f757400000000000000000000000000000000000000000000000000602082015250565b5f61199e6027836114d2565b91506119a982611944565b604082019050919050565b5f6020820190508181035f8301526119cb81611992565b9050919050565b7f5377617020457870656374656420746f204661696c00000000000000000000005f82015250565b5f611a066015836114d2565b9150611a11826119d2565b602082019050919050565b5f6020820190508181035f830152611a33816119fa565b9050919050565b5f606082019050611a4d5f8301866112cf565b611a5a60208301856112cf565b611a676040830184611339565b949350505050565b611a78816113ef565b8114611a82575f80fd5b50565b5f81519050611a9381611a6f565b92915050565b5f60208284031215611aae57611aad6111ce565b5b5f611abb84828501611a85565b91505092915050565b5f604082019050611ad75f8301856112cf565b611ae46020830184611339565b9392505050565b5f60a082019050611afe5f830188611339565b611b0b6020830187611339565b8181036040830152611b1d818661163e565b9050611b2c60608301856112cf565b611b396080830184611339565b9695505050505050565b5f604082019050611b565f830185611339565b611b636020830184611339565b939250505056fea2646970667358221220fa012e4950a1aaecee966af1ed0305b118f15cfa8f9b50d6e2e978bc5076480a64736f6c63430008140033",
					"opcodes": "PUSH1 0x80 PUSH1 0x40 MSTORE PUSH2 0x1F4 PUSH1 0x3 SSTORE CALLVALUE DUP1 ISZERO PUSH3 0x16 JUMPI PUSH0 DUP1 REVERT JUMPDEST POP PUSH1 0x40 MLOAD PUSH3 0x1E8F CODESIZE SUB DUP1 PUSH3 0x1E8F DUP4 CODECOPY DUP2 DUP2 ADD PUSH1 0x40 MSTORE DUP2 ADD SWAP1 PUSH3 0x3C SWAP2 SWAP1 PUSH3 0x270 JUMP JUMPDEST CALLER PUSH0 PUSH20 0xFFFFFFFFFFFFFFFFFFFFFFFFFFFFFFFFFFFFFFFF AND DUP2 PUSH20 0xFFFFFFFFFFFFFFFFFFFFFFFFFFFFFFFFFFFFFFFF AND SUB PUSH3 0xB0 JUMPI PUSH0 PUSH1 0x40 MLOAD PUSH32 0x1E4FBDF700000000000000000000000000000000000000000000000000000000 DUP2 MSTORE PUSH1 0x4 ADD PUSH3 0xA7 SWAP2 SWAP1 PUSH3 0x2C6 JUMP JUMPDEST PUSH1 0x40 MLOAD DUP1 SWAP2 SUB SWAP1 REVERT JUMPDEST PUSH3 0xC1 DUP2 PUSH3 0x14A PUSH1 0x20 SHL PUSH1 0x20 SHR JUMP JUMPDEST POP DUP2 PUSH1 0x1 PUSH0 PUSH2 0x100 EXP DUP2 SLOAD DUP2 PUSH20 0xFFFFFFFFFFFFFFFFFFFFFFFFFFFFFFFFFFFFFFFF MUL NOT AND SWAP1 DUP4 PUSH20 0xFFFFFFFFFFFFFFFFFFFFFFFFFFFFFFFFFFFFFFFF AND MUL OR SWAP1 SSTORE POP DUP1 PUSH1 0x2 PUSH0 PUSH2 0x100 EXP DUP2 SLOAD DUP2 PUSH20 0xFFFFFFFFFFFFFFFFFFFFFFFFFFFFFFFFFFFFFFFF MUL NOT AND SWAP1 DUP4 PUSH20 0xFFFFFFFFFFFFFFFFFFFFFFFFFFFFFFFFFFFFFFFF AND MUL OR SWAP1 SSTORE POP POP POP PUSH3 0x2E1 JUMP JUMPDEST PUSH0 DUP1 PUSH0 SWAP1 SLOAD SWAP1 PUSH2 0x100 EXP SWAP1 DIV PUSH20 0xFFFFFFFFFFFFFFFFFFFFFFFFFFFFFFFFFFFFFFFF AND SWAP1 POP DUP2 PUSH0 DUP1 PUSH2 0x100 EXP DUP2 SLOAD DUP2 PUSH20 0xFFFFFFFFFFFFFFFFFFFFFFFFFFFFFFFFFFFFFFFF MUL NOT AND SWAP1 DUP4 PUSH20 0xFFFFFFFFFFFFFFFFFFFFFFFFFFFFFFFFFFFFFFFF AND MUL OR SWAP1 SSTORE POP DUP2 PUSH20 0xFFFFFFFFFFFFFFFFFFFFFFFFFFFFFFFFFFFFFFFF AND DUP2 PUSH20 0xFFFFFFFFFFFFFFFFFFFFFFFFFFFFFFFFFFFFFFFF AND PUSH32 0x8BE0079C531659141344CD1FD0A4F28419497F9722A3DAAFE3B4186F6B6457E0 PUSH1 0x40 MLOAD PUSH1 0x40 MLOAD DUP1 SWAP2 SUB SWAP1 LOG3 POP POP JUMP JUMPDEST PUSH0 DUP1 REVERT JUMPDEST PUSH0 PUSH20 0xFFFFFFFFFFFFFFFFFFFFFFFFFFFFFFFFFFFFFFFF DUP3 AND SWAP1 POP SWAP2 SWAP1 POP JUMP JUMPDEST PUSH0 PUSH3 0x23A DUP3 PUSH3 0x20F JUMP JUMPDEST SWAP1 POP SWAP2 SWAP1 POP JUMP JUMPDEST PUSH3 0x24C DUP2 PUSH3 0x22E JUMP JUMPDEST DUP2 EQ PUSH3 0x257 JUMPI PUSH0 DUP1 REVERT JUMPDEST POP JUMP JUMPDEST PUSH0 DUP2 MLOAD SWAP1 POP PUSH3 0x26A DUP2 PUSH3 0x241 JUMP JUMPDEST SWAP3 SWAP2 POP POP JUMP JUMPDEST PUSH0 DUP1 PUSH1 0x40 DUP4 DUP6 SUB SLT ISZERO PUSH3 0x289 JUMPI PUSH3 0x288 PUSH3 0x20B JUMP JUMPDEST JUMPDEST PUSH0 PUSH3 0x298 DUP6 DUP3 DUP7 ADD PUSH3 0x25A JUMP JUMPDEST SWAP3 POP POP PUSH1 0x20 PUSH3 0x2AB DUP6 DUP3 DUP7 ADD PUSH3 0x25A JUMP JUMPDEST SWAP2 POP POP SWAP3 POP SWAP3 SWAP1 POP JUMP JUMPDEST PUSH3 0x2C0 DUP2 PUSH3 0x22E JUMP JUMPDEST DUP3 MSTORE POP POP JUMP JUMPDEST PUSH0 PUSH1 0x20 DUP3 ADD SWAP1 POP PUSH3 0x2DB PUSH0 DUP4 ADD DUP5 PUSH3 0x2B5 JUMP JUMPDEST SWAP3 SWAP2 POP POP JUMP JUMPDEST PUSH2 0x1BA0 DUP1 PUSH3 0x2EF PUSH0 CODECOPY PUSH0 RETURN INVALID PUSH1 0x80 PUSH1 0x40 MSTORE PUSH1 0x4 CALLDATASIZE LT PUSH2 0xC1 JUMPI PUSH0 CALLDATALOAD PUSH1 0xE0 SHR DUP1 PUSH4 0xAD9902A1 GT PUSH2 0x7E JUMPI DUP1 PUSH4 0xE15CC8DA GT PUSH2 0x58 JUMPI DUP1 PUSH4 0xE15CC8DA EQ PUSH2 0x24D JUMPI DUP1 PUSH4 0xF14210A6 EQ PUSH2 0x275 JUMPI DUP1 PUSH4 0xF2FDE38B EQ PUSH2 0x29D JUMPI DUP1 PUSH4 0xF6326FB3 EQ PUSH2 0x2C5 JUMPI PUSH2 0xC1 JUMP JUMPDEST DUP1 PUSH4 0xAD9902A1 EQ PUSH2 0x1AB JUMPI DUP1 PUSH4 0xAE06C1B7 EQ PUSH2 0x1E9 JUMPI DUP1 PUSH4 0xB4798209 EQ PUSH2 0x211 JUMPI PUSH2 0xC1 JUMP JUMPDEST DUP1 PUSH4 0x4E63C29E EQ PUSH2 0xC5 JUMPI DUP1 PUSH4 0x715018A6 EQ PUSH2 0xED JUMPI DUP1 PUSH4 0x735DE9F7 EQ PUSH2 0x103 JUMPI DUP1 PUSH4 0x8DA5CB5B EQ PUSH2 0x12D JUMPI DUP1 PUSH4 0x93AD7440 EQ PUSH2 0x157 JUMPI DUP1 PUSH4 0xA001ECDD EQ PUSH2 0x181 JUMPI JUMPDEST PUSH0 DUP1 REVERT JUMPDEST CALLVALUE DUP1 ISZERO PUSH2 0xD0 JUMPI PUSH0 DUP1 REVERT JUMPDEST POP PUSH2 0xEB PUSH1 0x4 DUP1 CALLDATASIZE SUB DUP2 ADD SWAP1 PUSH2 0xE6 SWAP2 SWAP1 PUSH2 0x1230 JUMP JUMPDEST PUSH2 0x2CF JUMP JUMPDEST STOP JUMPDEST CALLVALUE DUP1 ISZERO PUSH2 0xF8 JUMPI PUSH0 DUP1 REVERT JUMPDEST POP PUSH2 0x101 PUSH2 0x3BF JUMP JUMPDEST STOP JUMPDEST CALLVALUE DUP1 ISZERO PUSH2 0x10E JUMPI PUSH0 DUP1 REVERT JUMPDEST POP PUSH2 0x117 PUSH2 0x3D2 JUMP JUMPDEST PUSH1 0x40 MLOAD PUSH2 0x124 SWAP2 SWAP1 PUSH2 0x12B6 JUMP JUMPDEST PUSH1 0x40 MLOAD DUP1 SWAP2 SUB SWAP1 RETURN JUMPDEST CALLVALUE DUP1 ISZERO PUSH2 0x138 JUMPI PUSH0 DUP1 REVERT JUMPDEST POP PUSH2 0x141 PUSH2 0x3F7 JUMP JUMPDEST PUSH1 0x40 MLOAD PUSH2 0x14E SWAP2 SWAP1 PUSH2 0x12DE JUMP JUMPDEST PUSH1 0x40 MLOAD DUP1 SWAP2 SUB SWAP1 RETURN JUMPDEST CALLVALUE DUP1 ISZERO PUSH2 0x162 JUMPI PUSH0 DUP1 REVERT JUMPDEST POP PUSH2 0x16B PUSH2 0x41E JUMP JUMPDEST PUSH1 0x40 MLOAD PUSH2 0x178 SWAP2 SWAP1 PUSH2 0x1317 JUMP JUMPDEST PUSH1 0x40 MLOAD DUP1 SWAP2 SUB SWAP1 RETURN JUMPDEST CALLVALUE DUP1 ISZERO PUSH2 0x18C JUMPI PUSH0 DUP1 REVERT JUMPDEST POP PUSH2 0x195 PUSH2 0x443 JUMP JUMPDEST PUSH1 0x40 MLOAD PUSH2 0x1A2 SWAP2 SWAP1 PUSH2 0x1348 JUMP JUMPDEST PUSH1 0x40 MLOAD DUP1 SWAP2 SUB SWAP1 RETURN JUMPDEST CALLVALUE DUP1 ISZERO PUSH2 0x1B6 JUMPI PUSH0 DUP1 REVERT JUMPDEST POP PUSH2 0x1D1 PUSH1 0x4 DUP1 CALLDATASIZE SUB DUP2 ADD SWAP1 PUSH2 0x1CC SWAP2 SWAP1 PUSH2 0x138B JUMP JUMPDEST PUSH2 0x449 JUMP JUMPDEST PUSH1 0x40 MLOAD PUSH2 0x1E0 SWAP4 SWAP3 SWAP2 SWAP1 PUSH2 0x1409 JUMP JUMPDEST PUSH1 0x40 MLOAD DUP1 SWAP2 SUB SWAP1 RETURN JUMPDEST CALLVALUE DUP1 ISZERO PUSH2 0x1F4 JUMPI PUSH0 DUP1 REVERT JUMPDEST POP PUSH2 0x20F PUSH1 0x4 DUP1 CALLDATASIZE SUB DUP2 ADD SWAP1 PUSH2 0x20A SWAP2 SWAP1 PUSH2 0x143E JUMP JUMPDEST PUSH2 0x6E1 JUMP JUMPDEST STOP JUMPDEST CALLVALUE DUP1 ISZERO PUSH2 0x21C JUMPI PUSH0 DUP1 REVERT JUMPDEST POP PUSH2 0x237 PUSH1 0x4 DUP1 CALLDATASIZE SUB DUP2 ADD SWAP1 PUSH2 0x232 SWAP2 SWAP1 PUSH2 0x1469 JUMP JUMPDEST PUSH2 0x72A JUMP JUMPDEST PUSH1 0x40 MLOAD PUSH2 0x244 SWAP2 SWAP1 PUSH2 0x14B9 JUMP JUMPDEST PUSH1 0x40 MLOAD DUP1 SWAP2 SUB SWAP1 RETURN JUMPDEST CALLVALUE DUP1 ISZERO PUSH2 0x258 JUMPI PUSH0 DUP1 REVERT JUMPDEST POP PUSH2 0x273 PUSH1 0x4 DUP1 CALLDATASIZE SUB DUP2 ADD SWAP1 PUSH2 0x26E SWAP2 SWAP1 PUSH2 0x1469 JUMP JUMPDEST PUSH2 0x9C3 JUMP JUMPDEST STOP JUMPDEST CALLVALUE DUP1 ISZERO PUSH2 0x280 JUMPI PUSH0 DUP1 REVERT JUMPDEST POP PUSH2 0x29B PUSH1 0x4 DUP1 CALLDATASIZE SUB DUP2 ADD SWAP1 PUSH2 0x296 SWAP2 SWAP1 PUSH2 0x143E JUMP JUMPDEST PUSH2 0xF92 JUMP JUMPDEST STOP JUMPDEST CALLVALUE DUP1 ISZERO PUSH2 0x2A8 JUMPI PUSH0 DUP1 REVERT JUMPDEST POP PUSH2 0x2C3 PUSH1 0x4 DUP1 CALLDATASIZE SUB DUP2 ADD SWAP1 PUSH2 0x2BE SWAP2 SWAP1 PUSH2 0x1230 JUMP JUMPDEST PUSH2 0xFE8 JUMP JUMPDEST STOP JUMPDEST PUSH2 0x2CD PUSH2 0x106C JUMP JUMPDEST STOP JUMPDEST PUSH2 0x2D7 PUSH2 0x1076 JUMP JUMPDEST PUSH0 PUSH20 0xFFFFFFFFFFFFFFFFFFFFFFFFFFFFFFFFFFFFFFFF AND DUP2 PUSH20 0xFFFFFFFFFFFFFFFFFFFFFFFFFFFFFFFFFFFFFFFF AND SUB PUSH2 0x345 JUMPI PUSH1 0x40 MLOAD PUSH32 0x8C379A000000000000000000000000000000000000000000000000000000000 DUP2 MSTORE PUSH1 0x4 ADD PUSH2 0x33C SWAP1 PUSH2 0x152C JUMP JUMPDEST PUSH1 0x40 MLOAD DUP1 SWAP2 SUB SWAP1 REVERT JUMPDEST DUP1 PUSH1 0x2 PUSH0 PUSH2 0x100 EXP DUP2 SLOAD DUP2 PUSH20 0xFFFFFFFFFFFFFFFFFFFFFFFFFFFFFFFFFFFFFFFF MUL NOT AND SWAP1 DUP4 PUSH20 0xFFFFFFFFFFFFFFFFFFFFFFFFFFFFFFFFFFFFFFFF AND MUL OR SWAP1 SSTORE POP PUSH32 0xECB9755730C832A50C16EA8001A277BE77D816B09DC686FE072D4F2285E5CECE DUP2 PUSH1 0x40 MLOAD PUSH2 0x3B4 SWAP2 SWAP1 PUSH2 0x12DE JUMP JUMPDEST PUSH1 0x40 MLOAD DUP1 SWAP2 SUB SWAP1 LOG1 POP JUMP JUMPDEST PUSH2 0x3C7 PUSH2 0x1076 JUMP JUMPDEST PUSH2 0x3D0 PUSH0 PUSH2 0x10FD JUMP JUMPDEST JUMP JUMPDEST PUSH1 0x1 PUSH0 SWAP1 SLOAD SWAP1 PUSH2 0x100 EXP SWAP1 DIV PUSH20 0xFFFFFFFFFFFFFFFFFFFFFFFFFFFFFFFFFFFFFFFF AND DUP2 JUMP JUMPDEST PUSH0 DUP1 PUSH0 SWAP1 SLOAD SWAP1 PUSH2 0x100 EXP SWAP1 DIV PUSH20 0xFFFFFFFFFFFFFFFFFFFFFFFFFFFFFFFFFFFFFFFF AND SWAP1 POP SWAP1 JUMP JUMPDEST PUSH1 0x2 PUSH0 SWAP1 SLOAD SWAP1 PUSH2 0x100 EXP SWAP1 DIV PUSH20 0xFFFFFFFFFFFFFFFFFFFFFFFFFFFFFFFFFFFFFFFF AND DUP2 JUMP JUMPDEST PUSH1 0x3 SLOAD DUP2 JUMP JUMPDEST PUSH0 DUP1 PUSH0 DUP1 PUSH1 0x2 PUSH8 0xFFFFFFFFFFFFFFFF DUP2 GT ISZERO PUSH2 0x468 JUMPI PUSH2 0x467 PUSH2 0x154A JUMP JUMPDEST JUMPDEST PUSH1 0x40 MLOAD SWAP1 DUP1 DUP3 MSTORE DUP1 PUSH1 0x20 MUL PUSH1 0x20 ADD DUP3 ADD PUSH1 0x40 MSTORE DUP1 ISZERO PUSH2 0x496 JUMPI DUP2 PUSH1 0x20 ADD PUSH1 0x20 DUP3 MUL DUP1 CALLDATASIZE DUP4 CALLDATACOPY DUP1 DUP3 ADD SWAP2 POP POP SWAP1 POP JUMPDEST POP SWAP1 POP DUP8 DUP2 PUSH0 DUP2 MLOAD DUP2 LT PUSH2 0x4AD JUMPI PUSH2 0x4AC PUSH2 0x1577 JUMP JUMPDEST JUMPDEST PUSH1 0x20 MUL PUSH1 0x20 ADD ADD SWAP1 PUSH20 0xFFFFFFFFFFFFFFFFFFFFFFFFFFFFFFFFFFFFFFFF AND SWAP1 DUP2 PUSH20 0xFFFFFFFFFFFFFFFFFFFFFFFFFFFFFFFFFFFFFFFF AND DUP2 MSTORE POP POP PUSH1 0x1 PUSH0 SWAP1 SLOAD SWAP1 PUSH2 0x100 EXP SWAP1 DIV PUSH20 0xFFFFFFFFFFFFFFFFFFFFFFFFFFFFFFFFFFFFFFFF AND PUSH20 0xFFFFFFFFFFFFFFFFFFFFFFFFFFFFFFFFFFFFFFFF AND PUSH4 0xAD5C4648 PUSH1 0x40 MLOAD DUP2 PUSH4 0xFFFFFFFF AND PUSH1 0xE0 SHL DUP2 MSTORE PUSH1 0x4 ADD PUSH1 0x20 PUSH1 0x40 MLOAD DUP1 DUP4 SUB DUP2 DUP7 GAS STATICCALL ISZERO DUP1 ISZERO PUSH2 0x551 JUMPI RETURNDATASIZE PUSH0 DUP1 RETURNDATACOPY RETURNDATASIZE PUSH0 REVERT JUMPDEST POP POP POP POP PUSH1 0x40 MLOAD RETURNDATASIZE PUSH1 0x1F NOT PUSH1 0x1F DUP3 ADD AND DUP3 ADD DUP1 PUSH1 0x40 MSTORE POP DUP2 ADD SWAP1 PUSH2 0x575 SWAP2 SWAP1 PUSH2 0x15B8 JUMP JUMPDEST DUP2 PUSH1 0x1 DUP2 MLOAD DUP2 LT PUSH2 0x589 JUMPI PUSH2 0x588 PUSH2 0x1577 JUMP JUMPDEST JUMPDEST PUSH1 0x20 MUL PUSH1 0x20 ADD ADD SWAP1 PUSH20 0xFFFFFFFFFFFFFFFFFFFFFFFFFFFFFFFFFFFFFFFF AND SWAP1 DUP2 PUSH20 0xFFFFFFFFFFFFFFFFFFFFFFFFFFFFFFFFFFFFFFFF AND DUP2 MSTORE POP POP PUSH0 PUSH1 0x1 PUSH0 SWAP1 SLOAD SWAP1 PUSH2 0x100 EXP SWAP1 DIV PUSH20 0xFFFFFFFFFFFFFFFFFFFFFFFFFFFFFFFFFFFFFFFF AND PUSH20 0xFFFFFFFFFFFFFFFFFFFFFFFFFFFFFFFFFFFFFFFF AND PUSH4 0xD06CA61F DUP10 DUP5 PUSH1 0x40 MLOAD DUP4 PUSH4 0xFFFFFFFF AND PUSH1 0xE0 SHL DUP2 MSTORE PUSH1 0x4 ADD PUSH2 0x620 SWAP3 SWAP2 SWAP1 PUSH2 0x169A JUMP JUMPDEST PUSH0 PUSH1 0x40 MLOAD DUP1 DUP4 SUB DUP2 DUP7 GAS STATICCALL ISZERO DUP1 ISZERO PUSH2 0x63A JUMPI RETURNDATASIZE PUSH0 DUP1 RETURNDATACOPY RETURNDATASIZE PUSH0 REVERT JUMPDEST POP POP POP POP PUSH1 0x40 MLOAD RETURNDATASIZE PUSH0 DUP3 RETURNDATACOPY RETURNDATASIZE PUSH1 0x1F NOT PUSH1 0x1F DUP3 ADD AND DUP3 ADD DUP1 PUSH1 0x40 MSTORE POP DUP2 ADD SWAP1 PUSH2 0x662 SWAP2 SWAP1 PUSH2 0x17FF JUMP JUMPDEST SWAP1 POP PUSH0 DUP2 PUSH1 0x1 DUP2 MLOAD DUP2 LT PUSH2 0x679 JUMPI PUSH2 0x678 PUSH2 0x1577 JUMP JUMPDEST JUMPDEST PUSH1 0x20 MUL PUSH1 0x20 ADD ADD MLOAD SWAP1 POP PUSH2 0x2710 DUP9 PUSH2 0x2710 PUSH2 0x694 SWAP2 SWAP1 PUSH2 0x1873 JUMP JUMPDEST DUP3 PUSH2 0x69F SWAP2 SWAP1 PUSH2 0x18A6 JUMP JUMPDEST PUSH2 0x6A9 SWAP2 SWAP1 PUSH2 0x1914 JUMP JUMPDEST SWAP6 POP PUSH0 PUSH3 0x360F4 SWAP1 POP DUP8 DUP2 PUSH2 0x6BE SWAP2 SWAP1 PUSH2 0x18A6 JUMP JUMPDEST SWAP6 POP DUP7 DUP7 PUSH2 0x6CD DUP14 DUP14 DUP13 PUSH2 0x72A JUMP JUMPDEST SWAP7 POP SWAP7 POP SWAP7 POP POP POP POP POP SWAP5 POP SWAP5 POP SWAP5 SWAP2 POP POP JUMP JUMPDEST PUSH2 0x6E9 PUSH2 0x1076 JUMP JUMPDEST DUP1 PUSH1 0x3 DUP2 SWAP1 SSTORE POP PUSH32 0x8C4D35E54A3F2EF1134138FD8EA3DAEE6A3C89E10D2665996BABDF70261E2C76 DUP2 PUSH1 0x40 MLOAD PUSH2 0x71F SWAP2 SWAP1 PUSH2 0x1348 JUMP JUMPDEST PUSH1 0x40 MLOAD DUP1 SWAP2 SUB SWAP1 LOG1 POP JUMP JUMPDEST PUSH0 DUP1 PUSH1 0x2 PUSH8 0xFFFFFFFFFFFFFFFF DUP2 GT ISZERO PUSH2 0x747 JUMPI PUSH2 0x746 PUSH2 0x154A JUMP JUMPDEST JUMPDEST PUSH1 0x40 MLOAD SWAP1 DUP1 DUP3 MSTORE DUP1 PUSH1 0x20 MUL PUSH1 0x20 ADD DUP3 ADD PUSH1 0x40 MSTORE DUP1 ISZERO PUSH2 0x775 JUMPI DUP2 PUSH1 0x20 ADD PUSH1 0x20 DUP3 MUL DUP1 CALLDATASIZE DUP4 CALLDATACOPY DUP1 DUP3 ADD SWAP2 POP POP SWAP1 POP JUMPDEST POP SWAP1 POP DUP5 DUP2 PUSH0 DUP2 MLOAD DUP2 LT PUSH2 0x78C JUMPI PUSH2 0x78B PUSH2 0x1577 JUMP JUMPDEST JUMPDEST PUSH1 0x20 MUL PUSH1 0x20 ADD ADD SWAP1 PUSH20 0xFFFFFFFFFFFFFFFFFFFFFFFFFFFFFFFFFFFFFFFF AND SWAP1 DUP2 PUSH20 0xFFFFFFFFFFFFFFFFFFFFFFFFFFFFFFFFFFFFFFFF AND DUP2 MSTORE POP POP PUSH1 0x1 PUSH0 SWAP1 SLOAD SWAP1 PUSH2 0x100 EXP SWAP1 DIV PUSH20 0xFFFFFFFFFFFFFFFFFFFFFFFFFFFFFFFFFFFFFFFF AND PUSH20 0xFFFFFFFFFFFFFFFFFFFFFFFFFFFFFFFFFFFFFFFF AND PUSH4 0xAD5C4648 PUSH1 0x40 MLOAD DUP2 PUSH4 0xFFFFFFFF AND PUSH1 0xE0 SHL DUP2 MSTORE PUSH1 0x4 ADD PUSH1 0x20 PUSH1 0x40 MLOAD DUP1 DUP4 SUB DUP2 DUP7 GAS STATICCALL ISZERO DUP1 ISZERO PUSH2 0x830 JUMPI RETURNDATASIZE PUSH0 DUP1 RETURNDATACOPY RETURNDATASIZE PUSH0 REVERT JUMPDEST POP POP POP POP PUSH1 0x40 MLOAD RETURNDATASIZE PUSH1 0x1F NOT PUSH1 0x1F DUP3 ADD AND DUP3 ADD DUP1 PUSH1 0x40 MSTORE POP DUP2 ADD SWAP1 PUSH2 0x854 SWAP2 SWAP1 PUSH2 0x15B8 JUMP JUMPDEST DUP2 PUSH1 0x1 DUP2 MLOAD DUP2 LT PUSH2 0x868 JUMPI PUSH2 0x867 PUSH2 0x1577 JUMP JUMPDEST JUMPDEST PUSH1 0x20 MUL PUSH1 0x20 ADD ADD SWAP1 PUSH20 0xFFFFFFFFFFFFFFFFFFFFFFFFFFFFFFFFFFFFFFFF AND SWAP1 DUP2 PUSH20 0xFFFFFFFFFFFFFFFFFFFFFFFFFFFFFFFFFFFFFFFF AND DUP2 MSTORE POP POP PUSH0 PUSH1 0x1 PUSH0 SWAP1 SLOAD SWAP1 PUSH2 0x100 EXP SWAP1 DIV PUSH20 0xFFFFFFFFFFFFFFFFFFFFFFFFFFFFFFFFFFFFFFFF AND PUSH20 0xFFFFFFFFFFFFFFFFFFFFFFFFFFFFFFFFFFFFFFFF AND PUSH4 0xD06CA61F DUP7 DUP5 PUSH1 0x40 MLOAD DUP4 PUSH4 0xFFFFFFFF AND PUSH1 0xE0 SHL DUP2 MSTORE PUSH1 0x4 ADD PUSH2 0x8FF SWAP3 SWAP2 SWAP1 PUSH2 0x169A JUMP JUMPDEST PUSH0 PUSH1 0x40 MLOAD DUP1 DUP4 SUB DUP2 DUP7 GAS STATICCALL ISZERO DUP1 ISZERO PUSH2 0x919 JUMPI RETURNDATASIZE PUSH0 DUP1 RETURNDATACOPY RETURNDATASIZE PUSH0 REVERT JUMPDEST POP POP POP POP PUSH1 0x40 MLOAD RETURNDATASIZE PUSH0 DUP3 RETURNDATACOPY RETURNDATASIZE PUSH1 0x1F NOT PUSH1 0x1F DUP3 ADD AND DUP3 ADD DUP1 PUSH1 0x40 MSTORE POP DUP2 ADD SWAP1 PUSH2 0x941 SWAP2 SWAP1 PUSH2 0x17FF JUMP JUMPDEST SWAP1 POP PUSH0 DUP2 PUSH1 0x1 DUP2 MLOAD DUP2 LT PUSH2 0x958 JUMPI PUSH2 0x957 PUSH2 0x1577 JUMP JUMPDEST JUMPDEST PUSH1 0x20 MUL PUSH1 0x20 ADD ADD MLOAD SUB PUSH2 0x96F JUMPI PUSH0 SWAP3 POP POP POP PUSH2 0x9BC JUMP JUMPDEST PUSH0 PUSH3 0x360F4 SWAP1 POP PUSH0 DUP6 DUP3 PUSH2 0x983 SWAP2 SWAP1 PUSH2 0x18A6 JUMP JUMPDEST SWAP1 POP DUP3 PUSH1 0x1 DUP2 MLOAD DUP2 LT PUSH2 0x999 JUMPI PUSH2 0x998 PUSH2 0x1577 JUMP JUMPDEST JUMPDEST PUSH1 0x20 MUL PUSH1 0x20 ADD ADD MLOAD DUP2 LT PUSH2 0x9B3 JUMPI PUSH0 SWAP5 POP POP POP POP POP PUSH2 0x9BC JUMP JUMPDEST PUSH1 0x1 SWAP5 POP POP POP POP POP JUMPDEST SWAP4 SWAP3 POP POP POP JUMP JUMPDEST PUSH2 0x9CB PUSH2 0x1076 JUMP JUMPDEST PUSH0 PUSH3 0x360F4 SWAP1 POP PUSH0 GASPRICE DUP3 PUSH2 0x9DF SWAP2 SWAP1 PUSH2 0x18A6 JUMP JUMPDEST SWAP1 POP DUP3 DUP2 LT PUSH2 0xA23 JUMPI PUSH1 0x40 MLOAD PUSH32 0x8C379A000000000000000000000000000000000000000000000000000000000 DUP2 MSTORE PUSH1 0x4 ADD PUSH2 0xA1A SWAP1 PUSH2 0x19B4 JUMP JUMPDEST PUSH1 0x40 MLOAD DUP1 SWAP2 SUB SWAP1 REVERT JUMPDEST PUSH2 0xA2E DUP6 DUP6 GASPRICE PUSH2 0x72A JUMP JUMPDEST PUSH2 0xA6D JUMPI PUSH1 0x40 MLOAD PUSH32 0x8C379A000000000000000000000000000000000000000000000000000000000 DUP2 MSTORE PUSH1 0x4 ADD PUSH2 0xA64 SWAP1 PUSH2 0x1A1C JUMP JUMPDEST PUSH1 0x40 MLOAD DUP1 SWAP2 SUB SWAP1 REVERT JUMPDEST DUP5 PUSH20 0xFFFFFFFFFFFFFFFFFFFFFFFFFFFFFFFFFFFFFFFF AND PUSH4 0x23B872DD CALLER ADDRESS DUP8 PUSH1 0x40 MLOAD DUP5 PUSH4 0xFFFFFFFF AND PUSH1 0xE0 SHL DUP2 MSTORE PUSH1 0x4 ADD PUSH2 0xAAA SWAP4 SWAP3 SWAP2 SWAP1 PUSH2 0x1A3A JUMP JUMPDEST PUSH1 0x20 PUSH1 0x40 MLOAD DUP1 DUP4 SUB DUP2 PUSH0 DUP8 GAS CALL ISZERO DUP1 ISZERO PUSH2 0xAC6 JUMPI RETURNDATASIZE PUSH0 DUP1 RETURNDATACOPY RETURNDATASIZE PUSH0 REVERT JUMPDEST POP POP POP POP PUSH1 0x40 MLOAD RETURNDATASIZE PUSH1 0x1F NOT PUSH1 0x1F DUP3 ADD AND DUP3 ADD DUP1 PUSH1 0x40 MSTORE POP DUP2 ADD SWAP1 PUSH2 0xAEA SWAP2 SWAP1 PUSH2 0x1A99 JUMP JUMPDEST POP DUP5 PUSH20 0xFFFFFFFFFFFFFFFFFFFFFFFFFFFFFFFFFFFFFFFF AND PUSH4 0x95EA7B3 PUSH1 0x1 PUSH0 SWAP1 SLOAD SWAP1 PUSH2 0x100 EXP SWAP1 DIV PUSH20 0xFFFFFFFFFFFFFFFFFFFFFFFFFFFFFFFFFFFFFFFF AND DUP7 PUSH1 0x40 MLOAD DUP4 PUSH4 0xFFFFFFFF AND PUSH1 0xE0 SHL DUP2 MSTORE PUSH1 0x4 ADD PUSH2 0xB47 SWAP3 SWAP2 SWAP1 PUSH2 0x1AC4 JUMP JUMPDEST PUSH1 0x20 PUSH1 0x40 MLOAD DUP1 DUP4 SUB DUP2 PUSH0 DUP8 GAS CALL ISZERO DUP1 ISZERO PUSH2 0xB63 JUMPI RETURNDATASIZE PUSH0 DUP1 RETURNDATACOPY RETURNDATASIZE PUSH0 REVERT JUMPDEST POP POP POP POP PUSH1 0x40 MLOAD RETURNDATASIZE PUSH1 0x1F NOT PUSH1 0x1F DUP3 ADD AND DUP3 ADD DUP1 PUSH1 0x40 MSTORE POP DUP2 ADD SWAP1 PUSH2 0xB87 SWAP2 SWAP1 PUSH2 0x1A99 JUMP JUMPDEST POP PUSH0 PUSH1 0x2 PUSH8 0xFFFFFFFFFFFFFFFF DUP2 GT ISZERO PUSH2 0xBA4 JUMPI PUSH2 0xBA3 PUSH2 0x154A JUMP JUMPDEST JUMPDEST PUSH1 0x40 MLOAD SWAP1 DUP1 DUP3 MSTORE DUP1 PUSH1 0x20 MUL PUSH1 0x20 ADD DUP3 ADD PUSH1 0x40 MSTORE DUP1 ISZERO PUSH2 0xBD2 JUMPI DUP2 PUSH1 0x20 ADD PUSH1 0x20 DUP3 MUL DUP1 CALLDATASIZE DUP4 CALLDATACOPY DUP1 DUP3 ADD SWAP2 POP POP SWAP1 POP JUMPDEST POP SWAP1 POP DUP6 DUP2 PUSH0 DUP2 MLOAD DUP2 LT PUSH2 0xBE9 JUMPI PUSH2 0xBE8 PUSH2 0x1577 JUMP JUMPDEST JUMPDEST PUSH1 0x20 MUL PUSH1 0x20 ADD ADD SWAP1 PUSH20 0xFFFFFFFFFFFFFFFFFFFFFFFFFFFFFFFFFFFFFFFF AND SWAP1 DUP2 PUSH20 0xFFFFFFFFFFFFFFFFFFFFFFFFFFFFFFFFFFFFFFFF AND DUP2 MSTORE POP POP PUSH1 0x1 PUSH0 SWAP1 SLOAD SWAP1 PUSH2 0x100 EXP SWAP1 DIV PUSH20 0xFFFFFFFFFFFFFFFFFFFFFFFFFFFFFFFFFFFFFFFF AND PUSH20 0xFFFFFFFFFFFFFFFFFFFFFFFFFFFFFFFFFFFFFFFF AND PUSH4 0xAD5C4648 PUSH1 0x40 MLOAD DUP2 PUSH4 0xFFFFFFFF AND PUSH1 0xE0 SHL DUP2 MSTORE PUSH1 0x4 ADD PUSH1 0x20 PUSH1 0x40 MLOAD DUP1 DUP4 SUB DUP2 DUP7 GAS STATICCALL ISZERO DUP1 ISZERO PUSH2 0xC8D JUMPI RETURNDATASIZE PUSH0 DUP1 RETURNDATACOPY RETURNDATASIZE PUSH0 REVERT JUMPDEST POP POP POP POP PUSH1 0x40 MLOAD RETURNDATASIZE PUSH1 0x1F NOT PUSH1 0x1F DUP3 ADD AND DUP3 ADD DUP1 PUSH1 0x40 MSTORE POP DUP2 ADD SWAP1 PUSH2 0xCB1 SWAP2 SWAP1 PUSH2 0x15B8 JUMP JUMPDEST DUP2 PUSH1 0x1 DUP2 MLOAD DUP2 LT PUSH2 0xCC5 JUMPI PUSH2 0xCC4 PUSH2 0x1577 JUMP JUMPDEST JUMPDEST PUSH1 0x20 MUL PUSH1 0x20 ADD ADD SWAP1 PUSH20 0xFFFFFFFFFFFFFFFFFFFFFFFFFFFFFFFFFFFFFFFF AND SWAP1 DUP2 PUSH20 0xFFFFFFFFFFFFFFFFFFFFFFFFFFFFFFFFFFFFFFFF AND DUP2 MSTORE POP POP PUSH0 PUSH1 0x1 PUSH0 SWAP1 SLOAD SWAP1 PUSH2 0x100 EXP SWAP1 DIV PUSH20 0xFFFFFFFFFFFFFFFFFFFFFFFFFFFFFFFFFFFFFFFF AND PUSH20 0xFFFFFFFFFFFFFFFFFFFFFFFFFFFFFFFFFFFFFFFF AND PUSH4 0x18CBAFE5 DUP8 DUP8 DUP6 ADDRESS TIMESTAMP PUSH1 0x40 MLOAD DUP7 PUSH4 0xFFFFFFFF AND PUSH1 0xE0 SHL DUP2 MSTORE PUSH1 0x4 ADD PUSH2 0xD62 SWAP6 SWAP5 SWAP4 SWAP3 SWAP2 SWAP1 PUSH2 0x1AEB JUMP JUMPDEST PUSH0 PUSH1 0x40 MLOAD DUP1 DUP4 SUB DUP2 PUSH0 DUP8 GAS CALL ISZERO DUP1 ISZERO PUSH2 0xD7D JUMPI RETURNDATASIZE PUSH0 DUP1 RETURNDATACOPY RETURNDATASIZE PUSH0 REVERT JUMPDEST POP POP POP POP PUSH1 0x40 MLOAD RETURNDATASIZE PUSH0 DUP3 RETURNDATACOPY RETURNDATASIZE PUSH1 0x1F NOT PUSH1 0x1F DUP3 ADD AND DUP3 ADD DUP1 PUSH1 0x40 MSTORE POP DUP2 ADD SWAP1 PUSH2 0xDA5 SWAP2 SWAP1 PUSH2 0x17FF JUMP JUMPDEST SWAP1 POP PUSH0 DUP2 PUSH1 0x1 DUP2 MLOAD DUP2 LT PUSH2 0xDBC JUMPI PUSH2 0xDBB PUSH2 0x1577 JUMP JUMPDEST JUMPDEST PUSH1 0x20 MUL PUSH1 0x20 ADD ADD MLOAD SWAP1 POP PUSH0 PUSH2 0x2710 PUSH1 0x3 SLOAD DUP4 PUSH2 0xDD8 SWAP2 SWAP1 PUSH2 0x18A6 JUMP JUMPDEST PUSH2 0xDE2 SWAP2 SWAP1 PUSH2 0x1914 JUMP JUMPDEST SWAP1 POP PUSH0 PUSH1 0x64 PUSH1 0x5A DUP4 PUSH2 0xDF4 SWAP2 SWAP1 PUSH2 0x18A6 JUMP JUMPDEST PUSH2 0xDFE SWAP2 SWAP1 PUSH2 0x1914 JUMP JUMPDEST SWAP1 POP PUSH0 DUP2 DUP4 PUSH2 0xE0D SWAP2 SWAP1 PUSH2 0x1873 JUMP JUMPDEST SWAP1 POP PUSH1 0x2 PUSH0 SWAP1 SLOAD SWAP1 PUSH2 0x100 EXP SWAP1 DIV PUSH20 0xFFFFFFFFFFFFFFFFFFFFFFFFFFFFFFFFFFFFFFFF AND PUSH20 0xFFFFFFFFFFFFFFFFFFFFFFFFFFFFFFFFFFFFFFFF AND PUSH4 0x99DA9E9 DUP4 PUSH1 0x40 MLOAD DUP3 PUSH4 0xFFFFFFFF AND PUSH1 0xE0 SHL DUP2 MSTORE PUSH1 0x4 ADD PUSH2 0xE69 SWAP2 SWAP1 PUSH2 0x1348 JUMP JUMPDEST PUSH0 PUSH1 0x40 MLOAD DUP1 DUP4 SUB DUP2 PUSH0 DUP8 DUP1 EXTCODESIZE ISZERO DUP1 ISZERO PUSH2 0xE80 JUMPI PUSH0 DUP1 REVERT JUMPDEST POP GAS CALL ISZERO DUP1 ISZERO PUSH2 0xE92 JUMPI RETURNDATASIZE PUSH0 DUP1 RETURNDATACOPY RETURNDATASIZE PUSH0 REVERT JUMPDEST POP POP POP POP PUSH2 0xE9E PUSH2 0x3F7 JUMP JUMPDEST PUSH20 0xFFFFFFFFFFFFFFFFFFFFFFFFFFFFFFFFFFFFFFFF AND PUSH2 0x8FC DUP3 SWAP1 DUP2 ISZERO MUL SWAP1 PUSH1 0x40 MLOAD PUSH0 PUSH1 0x40 MLOAD DUP1 DUP4 SUB DUP2 DUP6 DUP9 DUP9 CALL SWAP4 POP POP POP POP ISZERO DUP1 ISZERO PUSH2 0xEE0 JUMPI RETURNDATASIZE PUSH0 DUP1 RETURNDATACOPY RETURNDATASIZE PUSH0 REVERT JUMPDEST POP PUSH0 DUP4 DUP6 PUSH2 0xEEE SWAP2 SWAP1 PUSH2 0x1873 JUMP JUMPDEST SWAP1 POP CALLER PUSH20 0xFFFFFFFFFFFFFFFFFFFFFFFFFFFFFFFFFFFFFFFF AND PUSH2 0x8FC DUP3 SWAP1 DUP2 ISZERO MUL SWAP1 PUSH1 0x40 MLOAD PUSH0 PUSH1 0x40 MLOAD DUP1 DUP4 SUB DUP2 DUP6 DUP9 DUP9 CALL SWAP4 POP POP POP POP ISZERO DUP1 ISZERO PUSH2 0xF33 JUMPI RETURNDATASIZE PUSH0 DUP1 RETURNDATACOPY RETURNDATASIZE PUSH0 REVERT JUMPDEST POP CALLER PUSH20 0xFFFFFFFFFFFFFFFFFFFFFFFFFFFFFFFFFFFFFFFF AND PUSH32 0xD0DCB5D6CCBC65558941EDA1D0ADD99921923CC1868A41BBF8D224258A21396D DUP13 DUP8 PUSH1 0x40 MLOAD PUSH2 0xF7C SWAP3 SWAP2 SWAP1 PUSH2 0x1B43 JUMP JUMPDEST PUSH1 0x40 MLOAD DUP1 SWAP2 SUB SWAP1 LOG2 POP POP POP POP POP POP POP POP POP POP POP POP JUMP JUMPDEST PUSH2 0xF9A PUSH2 0x1076 JUMP JUMPDEST PUSH2 0xFA2 PUSH2 0x3F7 JUMP JUMPDEST PUSH20 0xFFFFFFFFFFFFFFFFFFFFFFFFFFFFFFFFFFFFFFFF AND PUSH2 0x8FC DUP3 SWAP1 DUP2 ISZERO MUL SWAP1 PUSH1 0x40 MLOAD PUSH0 PUSH1 0x40 MLOAD DUP1 DUP4 SUB DUP2 DUP6 DUP9 DUP9 CALL SWAP4 POP POP POP POP ISZERO DUP1 ISZERO PUSH2 0xFE4 JUMPI RETURNDATASIZE PUSH0 DUP1 RETURNDATACOPY RETURNDATASIZE PUSH0 REVERT JUMPDEST POP POP JUMP JUMPDEST PUSH2 0xFF0 PUSH2 0x1076 JUMP JUMPDEST PUSH0 PUSH20 0xFFFFFFFFFFFFFFFFFFFFFFFFFFFFFFFFFFFFFFFF AND DUP2 PUSH20 0xFFFFFFFFFFFFFFFFFFFFFFFFFFFFFFFFFFFFFFFF AND SUB PUSH2 0x1060 JUMPI PUSH0 PUSH1 0x40 MLOAD PUSH32 0x1E4FBDF700000000000000000000000000000000000000000000000000000000 DUP2 MSTORE PUSH1 0x4 ADD PUSH2 0x1057 SWAP2 SWAP1 PUSH2 0x12DE JUMP JUMPDEST PUSH1 0x40 MLOAD DUP1 SWAP2 SUB SWAP1 REVERT JUMPDEST PUSH2 0x1069 DUP2 PUSH2 0x10FD JUMP JUMPDEST POP JUMP JUMPDEST PUSH2 0x1074 PUSH2 0x1076 JUMP JUMPDEST JUMP JUMPDEST PUSH2 0x107E PUSH2 0x11BE JUMP JUMPDEST PUSH20 0xFFFFFFFFFFFFFFFFFFFFFFFFFFFFFFFFFFFFFFFF AND PUSH2 0x109C PUSH2 0x3F7 JUMP JUMPDEST PUSH20 0xFFFFFFFFFFFFFFFFFFFFFFFFFFFFFFFFFFFFFFFF AND EQ PUSH2 0x10FB JUMPI PUSH2 0x10BF PUSH2 0x11BE JUMP JUMPDEST PUSH1 0x40 MLOAD PUSH32 0x118CDAA700000000000000000000000000000000000000000000000000000000 DUP2 MSTORE PUSH1 0x4 ADD PUSH2 0x10F2 SWAP2 SWAP1 PUSH2 0x12DE JUMP JUMPDEST PUSH1 0x40 MLOAD DUP1 SWAP2 SUB SWAP1 REVERT JUMPDEST JUMP JUMPDEST PUSH0 DUP1 PUSH0 SWAP1 SLOAD SWAP1 PUSH2 0x100 EXP SWAP1 DIV PUSH20 0xFFFFFFFFFFFFFFFFFFFFFFFFFFFFFFFFFFFFFFFF AND SWAP1 POP DUP2 PUSH0 DUP1 PUSH2 0x100 EXP DUP2 SLOAD DUP2 PUSH20 0xFFFFFFFFFFFFFFFFFFFFFFFFFFFFFFFFFFFFFFFF MUL NOT AND SWAP1 DUP4 PUSH20 0xFFFFFFFFFFFFFFFFFFFFFFFFFFFFFFFFFFFFFFFF AND MUL OR SWAP1 SSTORE POP DUP2 PUSH20 0xFFFFFFFFFFFFFFFFFFFFFFFFFFFFFFFFFFFFFFFF AND DUP2 PUSH20 0xFFFFFFFFFFFFFFFFFFFFFFFFFFFFFFFFFFFFFFFF AND PUSH32 0x8BE0079C531659141344CD1FD0A4F28419497F9722A3DAAFE3B4186F6B6457E0 PUSH1 0x40 MLOAD PUSH1 0x40 MLOAD DUP1 SWAP2 SUB SWAP1 LOG3 POP POP JUMP JUMPDEST PUSH0 CALLER SWAP1 POP SWAP1 JUMP JUMPDEST PUSH0 PUSH1 0x40 MLOAD SWAP1 POP SWAP1 JUMP JUMPDEST PUSH0 DUP1 REVERT JUMPDEST PUSH0 DUP1 REVERT JUMPDEST PUSH0 PUSH20 0xFFFFFFFFFFFFFFFFFFFFFFFFFFFFFFFFFFFFFFFF DUP3 AND SWAP1 POP SWAP2 SWAP1 POP JUMP JUMPDEST PUSH0 PUSH2 0x11FF DUP3 PUSH2 0x11D6 JUMP JUMPDEST SWAP1 POP SWAP2 SWAP1 POP JUMP JUMPDEST PUSH2 0x120F DUP2 PUSH2 0x11F5 JUMP JUMPDEST DUP2 EQ PUSH2 0x1219 JUMPI PUSH0 DUP1 REVERT JUMPDEST POP JUMP JUMPDEST PUSH0 DUP2 CALLDATALOAD SWAP1 POP PUSH2 0x122A DUP2 PUSH2 0x1206 JUMP JUMPDEST SWAP3 SWAP2 POP POP JUMP JUMPDEST PUSH0 PUSH1 0x20 DUP3 DUP5 SUB SLT ISZERO PUSH2 0x1245 JUMPI PUSH2 0x1244 PUSH2 0x11CE JUMP JUMPDEST JUMPDEST PUSH0 PUSH2 0x1252 DUP5 DUP3 DUP6 ADD PUSH2 0x121C JUMP JUMPDEST SWAP2 POP POP SWAP3 SWAP2 POP POP JUMP JUMPDEST PUSH0 DUP2 SWAP1 POP SWAP2 SWAP1 POP JUMP JUMPDEST PUSH0 PUSH2 0x127E PUSH2 0x1279 PUSH2 0x1274 DUP5 PUSH2 0x11D6 JUMP JUMPDEST PUSH2 0x125B JUMP JUMPDEST PUSH2 0x11D6 JUMP JUMPDEST SWAP1 POP SWAP2 SWAP1 POP JUMP JUMPDEST PUSH0 PUSH2 0x128F DUP3 PUSH2 0x1264 JUMP JUMPDEST SWAP1 POP SWAP2 SWAP1 POP JUMP JUMPDEST PUSH0 PUSH2 0x12A0 DUP3 PUSH2 0x1285 JUMP JUMPDEST SWAP1 POP SWAP2 SWAP1 POP JUMP JUMPDEST PUSH2 0x12B0 DUP2 PUSH2 0x1296 JUMP JUMPDEST DUP3 MSTORE POP POP JUMP JUMPDEST PUSH0 PUSH1 0x20 DUP3 ADD SWAP1 POP PUSH2 0x12C9 PUSH0 DUP4 ADD DUP5 PUSH2 0x12A7 JUMP JUMPDEST SWAP3 SWAP2 POP POP JUMP JUMPDEST PUSH2 0x12D8 DUP2 PUSH2 0x11F5 JUMP JUMPDEST DUP3 MSTORE POP POP JUMP JUMPDEST PUSH0 PUSH1 0x20 DUP3 ADD SWAP1 POP PUSH2 0x12F1 PUSH0 DUP4 ADD DUP5 PUSH2 0x12CF JUMP JUMPDEST SWAP3 SWAP2 POP POP JUMP JUMPDEST PUSH0 PUSH2 0x1301 DUP3 PUSH2 0x1285 JUMP JUMPDEST SWAP1 POP SWAP2 SWAP1 POP JUMP JUMPDEST PUSH2 0x1311 DUP2 PUSH2 0x12F7 JUMP JUMPDEST DUP3 MSTORE POP POP JUMP JUMPDEST PUSH0 PUSH1 0x20 DUP3 ADD SWAP1 POP PUSH2 0x132A PUSH0 DUP4 ADD DUP5 PUSH2 0x1308 JUMP JUMPDEST SWAP3 SWAP2 POP POP JUMP JUMPDEST PUSH0 DUP2 SWAP1 POP SWAP2 SWAP1 POP JUMP JUMPDEST PUSH2 0x1342 DUP2 PUSH2 0x1330 JUMP JUMPDEST DUP3 MSTORE POP POP JUMP JUMPDEST PUSH0 PUSH1 0x20 DUP3 ADD SWAP1 POP PUSH2 0x135B PUSH0 DUP4 ADD DUP5 PUSH2 0x1339 JUMP JUMPDEST SWAP3 SWAP2 POP POP JUMP JUMPDEST PUSH2 0x136A DUP2 PUSH2 0x1330 JUMP JUMPDEST DUP2 EQ PUSH2 0x1374 JUMPI PUSH0 DUP1 REVERT JUMPDEST POP JUMP JUMPDEST PUSH0 DUP2 CALLDATALOAD SWAP1 POP PUSH2 0x1385 DUP2 PUSH2 0x1361 JUMP JUMPDEST SWAP3 SWAP2 POP POP JUMP JUMPDEST PUSH0 DUP1 PUSH0 DUP1 PUSH1 0x80 DUP6 DUP8 SUB SLT ISZERO PUSH2 0x13A3 JUMPI PUSH2 0x13A2 PUSH2 0x11CE JUMP JUMPDEST JUMPDEST PUSH0 PUSH2 0x13B0 DUP8 DUP3 DUP9 ADD PUSH2 0x121C JUMP JUMPDEST SWAP5 POP POP PUSH1 0x20 PUSH2 0x13C1 DUP8 DUP3 DUP9 ADD PUSH2 0x1377 JUMP JUMPDEST SWAP4 POP POP PUSH1 0x40 PUSH2 0x13D2 DUP8 DUP3 DUP9 ADD PUSH2 0x1377 JUMP JUMPDEST SWAP3 POP POP PUSH1 0x60 PUSH2 0x13E3 DUP8 DUP3 DUP9 ADD PUSH2 0x1377 JUMP JUMPDEST SWAP2 POP POP SWAP3 SWAP6 SWAP2 SWAP5 POP SWAP3 POP JUMP JUMPDEST PUSH0 DUP2 ISZERO ISZERO SWAP1 POP SWAP2 SWAP1 POP JUMP JUMPDEST PUSH2 0x1403 DUP2 PUSH2 0x13EF JUMP JUMPDEST DUP3 MSTORE POP POP JUMP JUMPDEST PUSH0 PUSH1 0x60 DUP3 ADD SWAP1 POP PUSH2 0x141C PUSH0 DUP4 ADD DUP7 PUSH2 0x1339 JUMP JUMPDEST PUSH2 0x1429 PUSH1 0x20 DUP4 ADD DUP6 PUSH2 0x1339 JUMP JUMPDEST PUSH2 0x1436 PUSH1 0x40 DUP4 ADD DUP5 PUSH2 0x13FA JUMP JUMPDEST SWAP5 SWAP4 POP POP POP POP JUMP JUMPDEST PUSH0 PUSH1 0x20 DUP3 DUP5 SUB SLT ISZERO PUSH2 0x1453 JUMPI PUSH2 0x1452 PUSH2 0x11CE JUMP JUMPDEST JUMPDEST PUSH0 PUSH2 0x1460 DUP5 DUP3 DUP6 ADD PUSH2 0x1377 JUMP JUMPDEST SWAP2 POP POP SWAP3 SWAP2 POP POP JUMP JUMPDEST PUSH0 DUP1 PUSH0 PUSH1 0x60 DUP5 DUP7 SUB SLT ISZERO PUSH2 0x1480 JUMPI PUSH2 0x147F PUSH2 0x11CE JUMP JUMPDEST JUMPDEST PUSH0 PUSH2 0x148D DUP7 DUP3 DUP8 ADD PUSH2 0x121C JUMP JUMPDEST SWAP4 POP POP PUSH1 0x20 PUSH2 0x149E DUP7 DUP3 DUP8 ADD PUSH2 0x1377 JUMP JUMPDEST SWAP3 POP POP PUSH1 0x40 PUSH2 0x14AF DUP7 DUP3 DUP8 ADD PUSH2 0x1377 JUMP JUMPDEST SWAP2 POP POP SWAP3 POP SWAP3 POP SWAP3 JUMP JUMPDEST PUSH0 PUSH1 0x20 DUP3 ADD SWAP1 POP PUSH2 0x14CC PUSH0 DUP4 ADD DUP5 PUSH2 0x13FA JUMP JUMPDEST SWAP3 SWAP2 POP POP JUMP JUMPDEST PUSH0 DUP3 DUP3 MSTORE PUSH1 0x20 DUP3 ADD SWAP1 POP SWAP3 SWAP2 POP POP JUMP JUMPDEST PUSH32 0x496E76616C696420616464726573730000000000000000000000000000000000 PUSH0 DUP3 ADD MSTORE POP JUMP JUMPDEST PUSH0 PUSH2 0x1516 PUSH1 0xF DUP4 PUSH2 0x14D2 JUMP JUMPDEST SWAP2 POP PUSH2 0x1521 DUP3 PUSH2 0x14E2 JUMP JUMPDEST PUSH1 0x20 DUP3 ADD SWAP1 POP SWAP2 SWAP1 POP JUMP JUMPDEST PUSH0 PUSH1 0x20 DUP3 ADD SWAP1 POP DUP2 DUP2 SUB PUSH0 DUP4 ADD MSTORE PUSH2 0x1543 DUP2 PUSH2 0x150A JUMP JUMPDEST SWAP1 POP SWAP2 SWAP1 POP JUMP JUMPDEST PUSH32 0x4E487B7100000000000000000000000000000000000000000000000000000000 PUSH0 MSTORE PUSH1 0x41 PUSH1 0x4 MSTORE PUSH1 0x24 PUSH0 REVERT JUMPDEST PUSH32 0x4E487B7100000000000000000000000000000000000000000000000000000000 PUSH0 MSTORE PUSH1 0x32 PUSH1 0x4 MSTORE PUSH1 0x24 PUSH0 REVERT JUMPDEST PUSH0 DUP2 MLOAD SWAP1 POP PUSH2 0x15B2 DUP2 PUSH2 0x1206 JUMP JUMPDEST SWAP3 SWAP2 POP POP JUMP JUMPDEST PUSH0 PUSH1 0x20 DUP3 DUP5 SUB SLT ISZERO PUSH2 0x15CD JUMPI PUSH2 0x15CC PUSH2 0x11CE JUMP JUMPDEST JUMPDEST PUSH0 PUSH2 0x15DA DUP5 DUP3 DUP6 ADD PUSH2 0x15A4 JUMP JUMPDEST SWAP2 POP POP SWAP3 SWAP2 POP POP JUMP JUMPDEST PUSH0 DUP2 MLOAD SWAP1 POP SWAP2 SWAP1 POP JUMP JUMPDEST PUSH0 DUP3 DUP3 MSTORE PUSH1 0x20 DUP3 ADD SWAP1 POP SWAP3 SWAP2 POP POP JUMP JUMPDEST PUSH0 DUP2 SWAP1 POP PUSH1 0x20 DUP3 ADD SWAP1 POP SWAP2 SWAP1 POP JUMP JUMPDEST PUSH2 0x1615 DUP2 PUSH2 0x11F5 JUMP JUMPDEST DUP3 MSTORE POP POP JUMP JUMPDEST PUSH0 PUSH2 0x1626 DUP4 DUP4 PUSH2 0x160C JUMP JUMPDEST PUSH1 0x20 DUP4 ADD SWAP1 POP SWAP3 SWAP2 POP POP JUMP JUMPDEST PUSH0 PUSH1 0x20 DUP3 ADD SWAP1 POP SWAP2 SWAP1 POP JUMP JUMPDEST PUSH0 PUSH2 0x1648 DUP3 PUSH2 0x15E3 JUMP JUMPDEST PUSH2 0x1652 DUP2 DUP6 PUSH2 0x15ED JUMP JUMPDEST SWAP4 POP PUSH2 0x165D DUP4 PUSH2 0x15FD JUMP JUMPDEST DUP1 PUSH0 JUMPDEST DUP4 DUP2 LT ISZERO PUSH2 0x168D JUMPI DUP2 MLOAD PUSH2 0x1674 DUP9 DUP3 PUSH2 0x161B JUMP JUMPDEST SWAP8 POP PUSH2 0x167F DUP4 PUSH2 0x1632 JUMP JUMPDEST SWAP3 POP POP PUSH1 0x1 DUP2 ADD SWAP1 POP PUSH2 0x1660 JUMP JUMPDEST POP DUP6 SWAP4 POP POP POP POP SWAP3 SWAP2 POP POP JUMP JUMPDEST PUSH0 PUSH1 0x40 DUP3 ADD SWAP1 POP PUSH2 0x16AD PUSH0 DUP4 ADD DUP6 PUSH2 0x1339 JUMP JUMPDEST DUP2 DUP2 SUB PUSH1 0x20 DUP4 ADD MSTORE PUSH2 0x16BF DUP2 DUP5 PUSH2 0x163E JUMP JUMPDEST SWAP1 POP SWAP4 SWAP3 POP POP POP JUMP JUMPDEST PUSH0 DUP1 REVERT JUMPDEST PUSH0 PUSH1 0x1F NOT PUSH1 0x1F DUP4 ADD AND SWAP1 POP SWAP2 SWAP1 POP JUMP JUMPDEST PUSH2 0x16E5 DUP3 PUSH2 0x16CC JUMP JUMPDEST DUP2 ADD DUP2 DUP2 LT PUSH8 0xFFFFFFFFFFFFFFFF DUP3 GT OR ISZERO PUSH2 0x1704 JUMPI PUSH2 0x1703 PUSH2 0x154A JUMP JUMPDEST JUMPDEST DUP1 PUSH1 0x40 MSTORE POP POP POP JUMP JUMPDEST PUSH0 PUSH2 0x1716 PUSH2 0x11C5 JUMP JUMPDEST SWAP1 POP PUSH2 0x1722 DUP3 DUP3 PUSH2 0x16DC JUMP JUMPDEST SWAP2 SWAP1 POP JUMP JUMPDEST PUSH0 PUSH8 0xFFFFFFFFFFFFFFFF DUP3 GT ISZERO PUSH2 0x1741 JUMPI PUSH2 0x1740 PUSH2 0x154A JUMP JUMPDEST JUMPDEST PUSH1 0x20 DUP3 MUL SWAP1 POP PUSH1 0x20 DUP2 ADD SWAP1 POP SWAP2 SWAP1 POP JUMP JUMPDEST PUSH0 DUP1 REVERT JUMPDEST PUSH0 DUP2 MLOAD SWAP1 POP PUSH2 0x1764 DUP2 PUSH2 0x1361 JUMP JUMPDEST SWAP3 SWAP2 POP POP JUMP JUMPDEST PUSH0 PUSH2 0x177C PUSH2 0x1777 DUP5 PUSH2 0x1727 JUMP JUMPDEST PUSH2 0x170D JUMP JUMPDEST SWAP1 POP DUP1 DUP4 DUP3 MSTORE PUSH1 0x20 DUP3 ADD SWAP1 POP PUSH1 0x20 DUP5 MUL DUP4 ADD DUP6 DUP2 GT ISZERO PUSH2 0x179F JUMPI PUSH2 0x179E PUSH2 0x1752 JUMP JUMPDEST JUMPDEST DUP4 JUMPDEST DUP2 DUP2 LT ISZERO PUSH2 0x17C8 JUMPI DUP1 PUSH2 0x17B4 DUP9 DUP3 PUSH2 0x1756 JUMP JUMPDEST DUP5 MSTORE PUSH1 0x20 DUP5 ADD SWAP4 POP POP PUSH1 0x20 DUP2 ADD SWAP1 POP PUSH2 0x17A1 JUMP JUMPDEST POP POP POP SWAP4 SWAP3 POP POP POP JUMP JUMPDEST PUSH0 DUP3 PUSH1 0x1F DUP4 ADD SLT PUSH2 0x17E6 JUMPI PUSH2 0x17E5 PUSH2 0x16C8 JUMP JUMPDEST JUMPDEST DUP2 MLOAD PUSH2 0x17F6 DUP5 DUP3 PUSH1 0x20 DUP7 ADD PUSH2 0x176A JUMP JUMPDEST SWAP2 POP POP SWAP3 SWAP2 POP POP JUMP JUMPDEST PUSH0 PUSH1 0x20 DUP3 DUP5 SUB SLT ISZERO PUSH2 0x1814 JUMPI PUSH2 0x1813 PUSH2 0x11CE JUMP JUMPDEST JUMPDEST PUSH0 DUP3 ADD MLOAD PUSH8 0xFFFFFFFFFFFFFFFF DUP2 GT ISZERO PUSH2 0x1831 JUMPI PUSH2 0x1830 PUSH2 0x11D2 JUMP JUMPDEST JUMPDEST PUSH2 0x183D DUP5 DUP3 DUP6 ADD PUSH2 0x17D2 JUMP JUMPDEST SWAP2 POP POP SWAP3 SWAP2 POP POP JUMP JUMPDEST PUSH32 0x4E487B7100000000000000000000000000000000000000000000000000000000 PUSH0 MSTORE PUSH1 0x11 PUSH1 0x4 MSTORE PUSH1 0x24 PUSH0 REVERT JUMPDEST PUSH0 PUSH2 0x187D DUP3 PUSH2 0x1330 JUMP JUMPDEST SWAP2 POP PUSH2 0x1888 DUP4 PUSH2 0x1330 JUMP JUMPDEST SWAP3 POP DUP3 DUP3 SUB SWAP1 POP DUP2 DUP2 GT ISZERO PUSH2 0x18A0 JUMPI PUSH2 0x189F PUSH2 0x1846 JUMP JUMPDEST JUMPDEST SWAP3 SWAP2 POP POP JUMP JUMPDEST PUSH0 PUSH2 0x18B0 DUP3 PUSH2 0x1330 JUMP JUMPDEST SWAP2 POP PUSH2 0x18BB DUP4 PUSH2 0x1330 JUMP JUMPDEST SWAP3 POP DUP3 DUP3 MUL PUSH2 0x18C9 DUP2 PUSH2 0x1330 JUMP JUMPDEST SWAP2 POP DUP3 DUP3 DIV DUP5 EQ DUP4 ISZERO OR PUSH2 0x18E0 JUMPI PUSH2 0x18DF PUSH2 0x1846 JUMP JUMPDEST JUMPDEST POP SWAP3 SWAP2 POP POP JUMP JUMPDEST PUSH32 0x4E487B7100000000000000000000000000000000000000000000000000000000 PUSH0 MSTORE PUSH1 0x12 PUSH1 0x4 MSTORE PUSH1 0x24 PUSH0 REVERT JUMPDEST PUSH0 PUSH2 0x191E DUP3 PUSH2 0x1330 JUMP JUMPDEST SWAP2 POP PUSH2 0x1929 DUP4 PUSH2 0x1330 JUMP JUMPDEST SWAP3 POP DUP3 PUSH2 0x1939 JUMPI PUSH2 0x1938 PUSH2 0x18E7 JUMP JUMPDEST JUMPDEST DUP3 DUP3 DIV SWAP1 POP SWAP3 SWAP2 POP POP JUMP JUMPDEST PUSH32 0x457374696D617465642067617320636F73742065786365656473206D696E416D PUSH0 DUP3 ADD MSTORE PUSH32 0x6F756E744F757400000000000000000000000000000000000000000000000000 PUSH1 0x20 DUP3 ADD MSTORE POP JUMP JUMPDEST PUSH0 PUSH2 0x199E PUSH1 0x27 DUP4 PUSH2 0x14D2 JUMP JUMPDEST SWAP2 POP PUSH2 0x19A9 DUP3 PUSH2 0x1944 JUMP JUMPDEST PUSH1 0x40 DUP3 ADD SWAP1 POP SWAP2 SWAP1 POP JUMP JUMPDEST PUSH0 PUSH1 0x20 DUP3 ADD SWAP1 POP DUP2 DUP2 SUB PUSH0 DUP4 ADD MSTORE PUSH2 0x19CB DUP2 PUSH2 0x1992 JUMP JUMPDEST SWAP1 POP SWAP2 SWAP1 POP JUMP JUMPDEST PUSH32 0x5377617020457870656374656420746F204661696C0000000000000000000000 PUSH0 DUP3 ADD MSTORE POP JUMP JUMPDEST PUSH0 PUSH2 0x1A06 PUSH1 0x15 DUP4 PUSH2 0x14D2 JUMP JUMPDEST SWAP2 POP PUSH2 0x1A11 DUP3 PUSH2 0x19D2 JUMP JUMPDEST PUSH1 0x20 DUP3 ADD SWAP1 POP SWAP2 SWAP1 POP JUMP JUMPDEST PUSH0 PUSH1 0x20 DUP3 ADD SWAP1 POP DUP2 DUP2 SUB PUSH0 DUP4 ADD MSTORE PUSH2 0x1A33 DUP2 PUSH2 0x19FA JUMP JUMPDEST SWAP1 POP SWAP2 SWAP1 POP JUMP JUMPDEST PUSH0 PUSH1 0x60 DUP3 ADD SWAP1 POP PUSH2 0x1A4D PUSH0 DUP4 ADD DUP7 PUSH2 0x12CF JUMP JUMPDEST PUSH2 0x1A5A PUSH1 0x20 DUP4 ADD DUP6 PUSH2 0x12CF JUMP JUMPDEST PUSH2 0x1A67 PUSH1 0x40 DUP4 ADD DUP5 PUSH2 0x1339 JUMP JUMPDEST SWAP5 SWAP4 POP POP POP POP JUMP JUMPDEST PUSH2 0x1A78 DUP2 PUSH2 0x13EF JUMP JUMPDEST DUP2 EQ PUSH2 0x1A82 JUMPI PUSH0 DUP1 REVERT JUMPDEST POP JUMP JUMPDEST PUSH0 DUP2 MLOAD SWAP1 POP PUSH2 0x1A93 DUP2 PUSH2 0x1A6F JUMP JUMPDEST SWAP3 SWAP2 POP POP JUMP JUMPDEST PUSH0 PUSH1 0x20 DUP3 DUP5 SUB SLT ISZERO PUSH2 0x1AAE JUMPI PUSH2 0x1AAD PUSH2 0x11CE JUMP JUMPDEST JUMPDEST PUSH0 PUSH2 0x1ABB DUP5 DUP3 DUP6 ADD PUSH2 0x1A85 JUMP JUMPDEST SWAP2 POP POP SWAP3 SWAP2 POP POP JUMP JUMPDEST PUSH0 PUSH1 0x40 DUP3 ADD SWAP1 POP PUSH2 0x1AD7 PUSH0 DUP4 ADD DUP6 PUSH2 0x12CF JUMP JUMPDEST PUSH2 0x1AE4 PUSH1 0x20 DUP4 ADD DUP5 PUSH2 0x1339 JUMP JUMPDEST SWAP4 SWAP3 POP POP POP JUMP JUMPDEST PUSH0 PUSH1 0xA0 DUP3 ADD SWAP1 POP PUSH2 0x1AFE PUSH0 DUP4 ADD DUP9 PUSH2 0x1339 JUMP JUMPDEST PUSH2 0x1B0B PUSH1 0x20 DUP4 ADD DUP8 PUSH2 0x1339 JUMP JUMPDEST DUP2 DUP2 SUB PUSH1 0x40 DUP4 ADD MSTORE PUSH2 0x1B1D DUP2 DUP7 PUSH2 0x163E JUMP JUMPDEST SWAP1 POP PUSH2 0x1B2C PUSH1 0x60 DUP4 ADD DUP6 PUSH2 0x12CF JUMP JUMPDEST PUSH2 0x1B39 PUSH1 0x80 DUP4 ADD DUP5 PUSH2 0x1339 JUMP JUMPDEST SWAP7 SWAP6 POP POP POP POP POP POP JUMP JUMPDEST PUSH0 PUSH1 0x40 DUP3 ADD SWAP1 POP PUSH2 0x1B56 PUSH0 DUP4 ADD DUP6 PUSH2 0x1339 JUMP JUMPDEST PUSH2 0x1B63 PUSH1 0x20 DUP4 ADD DUP5 PUSH2 0x1339 JUMP JUMPDEST SWAP4 SWAP3 POP POP POP JUMP INVALID LOG2 PUSH5 0x6970667358 0x22 SLT KECCAK256 STATICCALL ADD 0x2E 0x49 POP LOG1 0xAA 0xEC 0xEE SWAP7 PUSH11 0xF1ED0305B118F15CFA8F9B POP 0xD6 0xE2 0xE9 PUSH25 0xBC5076480A64736F6C63430008140033000000000000000000 "
				},
				"gasEstimates": {
					"creation": {
						"codeDepositCost": "1414400",
						"executionCost": "infinite",
						"totalCost": "infinite"
					},
					"external": {
						"canSwap(address,uint256,uint256)": "infinite",
						"depositETH()": "infinite",
						"feePercentage()": "2536",
						"getSwapQuote(address,uint256,uint256,uint256)": "infinite",
						"owner()": "2582",
						"renounceOwnership()": "infinite",
						"rewardPot()": "infinite",
						"setFeePercentage(uint256)": "infinite",
						"setRewardPot(address)": "infinite",
						"swapTokensForETH(address,uint256,uint256)": "infinite",
						"transferOwnership(address)": "infinite",
						"uniswapRouter()": "infinite",
						"withdrawETH(uint256)": "infinite"
					}
				},
				"methodIdentifiers": {
					"canSwap(address,uint256,uint256)": "b4798209",
					"depositETH()": "f6326fb3",
					"feePercentage()": "a001ecdd",
					"getSwapQuote(address,uint256,uint256,uint256)": "ad9902a1",
					"owner()": "8da5cb5b",
					"renounceOwnership()": "715018a6",
					"rewardPot()": "93ad7440",
					"setFeePercentage(uint256)": "ae06c1b7",
					"setRewardPot(address)": "4e63c29e",
					"swapTokensForETH(address,uint256,uint256)": "e15cc8da",
					"transferOwnership(address)": "f2fde38b",
					"uniswapRouter()": "735de9f7",
					"withdrawETH(uint256)": "f14210a6"
				}
			},
			"storageLayout": {
				"storage": [
					{
						"astId": 8,
						"contract": "Bitxchange.sol:Bitxchange",
						"label": "_owner",
						"offset": 0,
						"slot": "0",
						"type": "t_address"
					},
					{
						"astId": 659,
						"contract": "Bitxchange.sol:Bitxchange",
						"label": "uniswapRouter",
						"offset": 0,
						"slot": "1",
						"type": "t_contract(IUniswapV2Router02)643"
					},
					{
						"astId": 662,
						"contract": "Bitxchange.sol:Bitxchange",
						"label": "rewardPot",
						"offset": 0,
						"slot": "2",
						"type": "t_contract(IRewardPot)654"
					},
					{
						"astId": 665,
						"contract": "Bitxchange.sol:Bitxchange",
						"label": "feePercentage",
						"offset": 0,
						"slot": "3",
						"type": "t_uint256"
					}
				],
				"types": {
					"t_address": {
						"encoding": "inplace",
						"label": "address",
						"numberOfBytes": "20"
					},
					"t_contract(IRewardPot)654": {
						"encoding": "inplace",
						"label": "contract IRewardPot",
						"numberOfBytes": "20"
					},
					"t_contract(IUniswapV2Router02)643": {
						"encoding": "inplace",
						"label": "contract IUniswapV2Router02",
						"numberOfBytes": "20"
					},
					"t_uint256": {
						"encoding": "inplace",
						"label": "uint256",
						"numberOfBytes": "32"
					}
				}
			},
			"userdoc": {
				"kind": "user",
				"methods": {},
				"version": 1
			}
		}
	}
}