{
	"Bitxchange.sol": {
		"Bitxchange": {
			"abi": [
				{
					"inputs": [
						{
							"internalType": "address",
							"name": "_uniswapRouter",
							"type": "address"
						},
						{
							"internalType": "address",
							"name": "_rewardPot",
							"type": "address"
						}
					],
					"stateMutability": "nonpayable",
					"type": "constructor"
				},
				{
					"inputs": [
						{
							"internalType": "address",
							"name": "owner",
							"type": "address"
						}
					],
					"name": "OwnableInvalidOwner",
					"type": "error"
				},
				{
					"inputs": [
						{
							"internalType": "address",
							"name": "account",
							"type": "address"
						}
					],
					"name": "OwnableUnauthorizedAccount",
					"type": "error"
				},
				{
					"anonymous": false,
					"inputs": [
						{
							"indexed": false,
							"internalType": "uint256",
							"name": "newFee",
							"type": "uint256"
						}
					],
					"name": "FeeUpdated",
					"type": "event"
				},
				{
					"anonymous": false,
					"inputs": [
						{
							"indexed": true,
							"internalType": "address",
							"name": "previousOwner",
							"type": "address"
						},
						{
							"indexed": true,
							"internalType": "address",
							"name": "newOwner",
							"type": "address"
						}
					],
					"name": "OwnershipTransferred",
					"type": "event"
				},
				{
					"anonymous": false,
					"inputs": [
						{
							"indexed": true,
							"internalType": "address",
							"name": "recovered",
							"type": "address"
						}
					],
					"name": "RecoveredAddress",
					"type": "event"
				},
				{
					"anonymous": false,
					"inputs": [
						{
							"indexed": false,
							"internalType": "address",
							"name": "newRewardPot",
							"type": "address"
						}
					],
					"name": "RewardPotUpdated",
					"type": "event"
				},
				{
					"anonymous": false,
					"inputs": [
						{
							"indexed": true,
							"internalType": "address",
							"name": "from",
							"type": "address"
						},
						{
							"indexed": false,
							"internalType": "uint256",
							"name": "receivedETH",
							"type": "uint256"
						}
					],
					"name": "SwapSuccessful",
					"type": "event"
				},
				{
					"inputs": [
						{
							"internalType": "address",
							"name": "token",
							"type": "address"
						},
						{
							"internalType": "uint256",
							"name": "amountIn",
							"type": "uint256"
						},
						{
							"internalType": "uint256",
							"name": "userGasPrice",
							"type": "uint256"
						}
					],
					"name": "canSwap",
					"outputs": [
						{
							"internalType": "bool",
							"name": "",
							"type": "bool"
						}
					],
					"stateMutability": "view",
					"type": "function"
				},
				{
					"inputs": [],
					"name": "depositETH",
					"outputs": [],
					"stateMutability": "payable",
					"type": "function"
				},
				{
					"inputs": [],
					"name": "estimatedGasForSwap",
					"outputs": [
						{
							"internalType": "uint256",
							"name": "",
							"type": "uint256"
						}
					],
					"stateMutability": "view",
					"type": "function"
				},
				{
					"inputs": [],
					"name": "feePercentage",
					"outputs": [
						{
							"internalType": "uint256",
							"name": "",
							"type": "uint256"
						}
					],
					"stateMutability": "view",
					"type": "function"
				},
				{
					"inputs": [
						{
							"internalType": "bytes32",
							"name": "messageHash",
							"type": "bytes32"
						},
						{
							"internalType": "bytes",
							"name": "signature",
							"type": "bytes"
						}
					],
					"name": "getSignerAddress",
					"outputs": [
						{
							"internalType": "address",
							"name": "",
							"type": "address"
						}
					],
					"stateMutability": "pure",
					"type": "function"
				},
				{
					"inputs": [
						{
							"internalType": "address",
							"name": "token",
							"type": "address"
						},
						{
							"internalType": "uint256",
							"name": "amount",
							"type": "uint256"
						},
						{
							"internalType": "uint256",
							"name": "slippage",
							"type": "uint256"
						},
						{
							"internalType": "uint256",
							"name": "userGasPrice",
							"type": "uint256"
						}
					],
					"name": "getSwapQuote",
					"outputs": [
						{
							"internalType": "uint256",
							"name": "minAmountOut",
							"type": "uint256"
						},
						{
							"internalType": "uint256",
							"name": "estimatedGasCost",
							"type": "uint256"
						},
						{
							"internalType": "bool",
							"name": "canDoSwap",
							"type": "bool"
						}
					],
					"stateMutability": "view",
					"type": "function"
				},
				{
					"inputs": [],
					"name": "owner",
					"outputs": [
						{
							"internalType": "address",
							"name": "",
							"type": "address"
						}
					],
					"stateMutability": "view",
					"type": "function"
				},
				{
					"inputs": [],
					"name": "renounceOwnership",
					"outputs": [],
					"stateMutability": "nonpayable",
					"type": "function"
				},
				{
					"inputs": [],
					"name": "rewardPot",
					"outputs": [
						{
							"internalType": "contract IRewardPot",
							"name": "",
							"type": "address"
						}
					],
					"stateMutability": "view",
					"type": "function"
				},
				{
					"inputs": [
						{
							"internalType": "uint256",
							"name": "_newEstimatedGasForSwap",
							"type": "uint256"
						}
					],
					"name": "setEstimatedGasForSwap",
					"outputs": [],
					"stateMutability": "nonpayable",
					"type": "function"
				},
				{
					"inputs": [
						{
							"internalType": "uint256",
							"name": "_newFee",
							"type": "uint256"
						}
					],
					"name": "setFeePercentage",
					"outputs": [],
					"stateMutability": "nonpayable",
					"type": "function"
				},
				{
					"inputs": [
						{
							"internalType": "address",
							"name": "_newRewardPot",
							"type": "address"
						}
					],
					"name": "setRewardPot",
					"outputs": [],
					"stateMutability": "nonpayable",
					"type": "function"
				},
				{
					"inputs": [
						{
							"internalType": "address",
							"name": "_newRouter",
							"type": "address"
						}
					],
					"name": "setUniswapRouter",
					"outputs": [],
					"stateMutability": "nonpayable",
					"type": "function"
				},
				{
					"inputs": [
						{
							"internalType": "address",
							"name": "token",
							"type": "address"
						},
						{
							"internalType": "uint256",
							"name": "amount",
							"type": "uint256"
						},
						{
							"internalType": "uint256",
							"name": "minAmountOut",
							"type": "uint256"
						},
						{
							"internalType": "bytes",
							"name": "signature",
							"type": "bytes"
						},
						{
							"internalType": "uint256",
							"name": "nonce",
							"type": "uint256"
						}
					],
					"name": "swapTokensForETH",
					"outputs": [],
					"stateMutability": "payable",
					"type": "function"
				},
				{
					"inputs": [
						{
							"internalType": "address",
							"name": "token",
							"type": "address"
						},
						{
							"internalType": "uint256",
							"name": "amount",
							"type": "uint256"
						},
						{
							"internalType": "uint256",
							"name": "minAmountOut",
							"type": "uint256"
						}
					],
					"name": "swapTokensForETH_UserPaysGas",
					"outputs": [],
					"stateMutability": "payable",
					"type": "function"
				},
				{
					"inputs": [
						{
							"internalType": "address",
							"name": "newOwner",
							"type": "address"
						}
					],
					"name": "transferOwnership",
					"outputs": [],
					"stateMutability": "nonpayable",
					"type": "function"
				},
				{
					"inputs": [],
					"name": "uniswapRouter",
					"outputs": [
						{
							"internalType": "contract IUniswapV2Router02",
							"name": "",
							"type": "address"
						}
					],
					"stateMutability": "view",
					"type": "function"
				},
				{
					"inputs": [
						{
							"internalType": "uint256",
							"name": "amount",
							"type": "uint256"
						}
					],
					"name": "withdrawETH",
					"outputs": [],
					"stateMutability": "nonpayable",
					"type": "function"
				}
			],
			"devdoc": {
				"errors": {
					"OwnableInvalidOwner(address)": [
						{
							"details": "The owner is not a valid owner account. (eg. `address(0)`)"
						}
					],
					"OwnableUnauthorizedAccount(address)": [
						{
							"details": "The caller account is not authorized to perform an operation."
						}
					]
				},
				"kind": "dev",
				"methods": {
					"owner()": {
						"details": "Returns the address of the current owner."
					},
					"renounceOwnership()": {
						"details": "Leaves the contract without owner. It will not be possible to call `onlyOwner` functions. Can only be called by the current owner. NOTE: Renouncing ownership will leave the contract without an owner, thereby disabling any functionality that is only available to the owner."
					},
					"transferOwnership(address)": {
						"details": "Transfers ownership of the contract to a new account (`newOwner`). Can only be called by the current owner."
					}
				},
				"version": 1
			},
			"evm": {
				"assembly": "    /* \"Bitxchange.sol\":665:9813  contract Bitxchange is Ownable {... */\n  mstore(0x40, 0x80)\n    /* \"Bitxchange.sol\":814:817  750 */\n  0x02ee\n    /* \"Bitxchange.sol\":783:817  uint256 public feePercentage = 750 */\n  0x03\n  sstore\n    /* \"Bitxchange.sol\":891:897  321428 */\n  0x04e794\n    /* \"Bitxchange.sol\":854:897  uint256 public estimatedGasForSwap = 321428 */\n  0x04\n  sstore\n    /* \"Bitxchange.sol\":1124:1314  constructor(address _uniswapRouter, address _rewardPot) Ownable(msg.sender) {... */\n  callvalue\n  dup1\n  iszero\n  tag_1\n  jumpi\n  0x00\n  dup1\n  revert\ntag_1:\n  pop\n  mload(0x40)\n  sub(codesize, bytecodeSize)\n  dup1\n  bytecodeSize\n  dup4\n  codecopy\n  dup2\n  dup2\n  add\n  0x40\n  mstore\n  dup2\n  add\n  swap1\n  tag_2\n  swap2\n  swap1\n  tag_3\n  jump\t// in\ntag_2:\n    /* \"Bitxchange.sol\":1188:1198  msg.sender */\n  caller\n    /* \"@openzeppelin/contracts/access/Ownable.sol\":1297:1298  0 */\n  0x00\n    /* \"@openzeppelin/contracts/access/Ownable.sol\":1273:1299  initialOwner == address(0) */\n  0xffffffffffffffffffffffffffffffffffffffff\n  and\n    /* \"@openzeppelin/contracts/access/Ownable.sol\":1273:1285  initialOwner */\n  dup2\n    /* \"@openzeppelin/contracts/access/Ownable.sol\":1273:1299  initialOwner == address(0) */\n  0xffffffffffffffffffffffffffffffffffffffff\n  and\n  sub\n    /* \"@openzeppelin/contracts/access/Ownable.sol\":1269:1364  if (initialOwner == address(0)) {... */\n  tag_7\n  jumpi\n    /* \"@openzeppelin/contracts/access/Ownable.sol\":1350:1351  0 */\n  0x00\n    /* \"@openzeppelin/contracts/access/Ownable.sol\":1322:1353  OwnableInvalidOwner(address(0)) */\n  mload(0x40)\n  0x1e4fbdf700000000000000000000000000000000000000000000000000000000\n  dup2\n  mstore\n  0x04\n  add\n  tag_8\n  swap2\n  swap1\n  tag_9\n  jump\t// in\ntag_8:\n  mload(0x40)\n  dup1\n  swap2\n  sub\n  swap1\n  revert\n    /* \"@openzeppelin/contracts/access/Ownable.sol\":1269:1364  if (initialOwner == address(0)) {... */\ntag_7:\n    /* \"@openzeppelin/contracts/access/Ownable.sol\":1373:1405  _transferOwnership(initialOwner) */\n  tag_10\n    /* \"@openzeppelin/contracts/access/Ownable.sol\":1392:1404  initialOwner */\n  dup2\n    /* \"@openzeppelin/contracts/access/Ownable.sol\":1373:1391  _transferOwnership */\n  shl(0x20, tag_11)\n    /* \"@openzeppelin/contracts/access/Ownable.sol\":1373:1405  _transferOwnership(initialOwner) */\n  0x20\n  shr\n  jump\t// in\ntag_10:\n    /* \"@openzeppelin/contracts/access/Ownable.sol\":1225:1412  constructor(address initialOwner) {... */\n  pop\n    /* \"Bitxchange.sol\":1246:1260  _uniswapRouter */\n  dup2\n    /* \"Bitxchange.sol\":1211:1224  uniswapRouter */\n  0x01\n  0x00\n    /* \"Bitxchange.sol\":1211:1261  uniswapRouter = IUniswapV2Router02(_uniswapRouter) */\n  0x0100\n  exp\n  dup2\n  sload\n  dup2\n  0xffffffffffffffffffffffffffffffffffffffff\n  mul\n  not\n  and\n  swap1\n  dup4\n  0xffffffffffffffffffffffffffffffffffffffff\n  and\n  mul\n  or\n  swap1\n  sstore\n  pop\n    /* \"Bitxchange.sol\":1295:1305  _rewardPot */\n  dup1\n    /* \"Bitxchange.sol\":1272:1281  rewardPot */\n  0x02\n  0x00\n    /* \"Bitxchange.sol\":1272:1306  rewardPot = IRewardPot(_rewardPot) */\n  0x0100\n  exp\n  dup2\n  sload\n  dup2\n  0xffffffffffffffffffffffffffffffffffffffff\n  mul\n  not\n  and\n  swap1\n  dup4\n  0xffffffffffffffffffffffffffffffffffffffff\n  and\n  mul\n  or\n  swap1\n  sstore\n  pop\n    /* \"Bitxchange.sol\":1124:1314  constructor(address _uniswapRouter, address _rewardPot) Ownable(msg.sender) {... */\n  pop\n  pop\n    /* \"Bitxchange.sol\":665:9813  contract Bitxchange is Ownable {... */\n  jump(tag_13)\n    /* \"@openzeppelin/contracts/access/Ownable.sol\":2912:3099  function _transferOwnership(address newOwner) internal virtual {... */\ntag_11:\n    /* \"@openzeppelin/contracts/access/Ownable.sol\":2985:3001  address oldOwner */\n  0x00\n    /* \"@openzeppelin/contracts/access/Ownable.sol\":3004:3010  _owner */\n  dup1\n  0x00\n  swap1\n  sload\n  swap1\n  0x0100\n  exp\n  swap1\n  div\n  0xffffffffffffffffffffffffffffffffffffffff\n  and\n    /* \"@openzeppelin/contracts/access/Ownable.sol\":2985:3010  address oldOwner = _owner */\n  swap1\n  pop\n    /* \"@openzeppelin/contracts/access/Ownable.sol\":3029:3037  newOwner */\n  dup2\n    /* \"@openzeppelin/contracts/access/Ownable.sol\":3020:3026  _owner */\n  0x00\n  dup1\n    /* \"@openzeppelin/contracts/access/Ownable.sol\":3020:3037  _owner = newOwner */\n  0x0100\n  exp\n  dup2\n  sload\n  dup2\n  0xffffffffffffffffffffffffffffffffffffffff\n  mul\n  not\n  and\n  swap1\n  dup4\n  0xffffffffffffffffffffffffffffffffffffffff\n  and\n  mul\n  or\n  swap1\n  sstore\n  pop\n    /* \"@openzeppelin/contracts/access/Ownable.sol\":3083:3091  newOwner */\n  dup2\n    /* \"@openzeppelin/contracts/access/Ownable.sol\":3052:3092  OwnershipTransferred(oldOwner, newOwner) */\n  0xffffffffffffffffffffffffffffffffffffffff\n  and\n    /* \"@openzeppelin/contracts/access/Ownable.sol\":3073:3081  oldOwner */\n  dup2\n    /* \"@openzeppelin/contracts/access/Ownable.sol\":3052:3092  OwnershipTransferred(oldOwner, newOwner) */\n  0xffffffffffffffffffffffffffffffffffffffff\n  and\n  0x8be0079c531659141344cd1fd0a4f28419497f9722a3daafe3b4186f6b6457e0\n  mload(0x40)\n  mload(0x40)\n  dup1\n  swap2\n  sub\n  swap1\n  log3\n    /* \"@openzeppelin/contracts/access/Ownable.sol\":2975:3099  {... */\n  pop\n    /* \"@openzeppelin/contracts/access/Ownable.sol\":2912:3099  function _transferOwnership(address newOwner) internal virtual {... */\n  pop\n  jump\t// out\n    /* \"#utility.yul\":88:205   */\ntag_16:\n    /* \"#utility.yul\":197:198   */\n  0x00\n    /* \"#utility.yul\":194:195   */\n  dup1\n    /* \"#utility.yul\":187:199   */\n  revert\n    /* \"#utility.yul\":334:460   */\ntag_18:\n    /* \"#utility.yul\":371:378   */\n  0x00\n    /* \"#utility.yul\":411:453   */\n  0xffffffffffffffffffffffffffffffffffffffff\n    /* \"#utility.yul\":404:409   */\n  dup3\n    /* \"#utility.yul\":400:454   */\n  and\n    /* \"#utility.yul\":389:454   */\n  swap1\n  pop\n    /* \"#utility.yul\":334:460   */\n  swap2\n  swap1\n  pop\n  jump\t// out\n    /* \"#utility.yul\":466:562   */\ntag_19:\n    /* \"#utility.yul\":503:510   */\n  0x00\n    /* \"#utility.yul\":532:556   */\n  tag_29\n    /* \"#utility.yul\":550:555   */\n  dup3\n    /* \"#utility.yul\":532:556   */\n  tag_18\n  jump\t// in\ntag_29:\n    /* \"#utility.yul\":521:556   */\n  swap1\n  pop\n    /* \"#utility.yul\":466:562   */\n  swap2\n  swap1\n  pop\n  jump\t// out\n    /* \"#utility.yul\":568:690   */\ntag_20:\n    /* \"#utility.yul\":641:665   */\n  tag_31\n    /* \"#utility.yul\":659:664   */\n  dup2\n    /* \"#utility.yul\":641:665   */\n  tag_19\n  jump\t// in\ntag_31:\n    /* \"#utility.yul\":634:639   */\n  dup2\n    /* \"#utility.yul\":631:666   */\n  eq\n    /* \"#utility.yul\":621:684   */\n  tag_32\n  jumpi\n    /* \"#utility.yul\":680:681   */\n  0x00\n    /* \"#utility.yul\":677:678   */\n  dup1\n    /* \"#utility.yul\":670:682   */\n  revert\n    /* \"#utility.yul\":621:684   */\ntag_32:\n    /* \"#utility.yul\":568:690   */\n  pop\n  jump\t// out\n    /* \"#utility.yul\":696:839   */\ntag_21:\n    /* \"#utility.yul\":753:758   */\n  0x00\n    /* \"#utility.yul\":784:790   */\n  dup2\n    /* \"#utility.yul\":778:791   */\n  mload\n    /* \"#utility.yul\":769:791   */\n  swap1\n  pop\n    /* \"#utility.yul\":800:833   */\n  tag_34\n    /* \"#utility.yul\":827:832   */\n  dup2\n    /* \"#utility.yul\":800:833   */\n  tag_20\n  jump\t// in\ntag_34:\n    /* \"#utility.yul\":696:839   */\n  swap3\n  swap2\n  pop\n  pop\n  jump\t// out\n    /* \"#utility.yul\":845:1352   */\ntag_3:\n    /* \"#utility.yul\":924:930   */\n  0x00\n    /* \"#utility.yul\":932:938   */\n  dup1\n    /* \"#utility.yul\":981:983   */\n  0x40\n    /* \"#utility.yul\":969:978   */\n  dup4\n    /* \"#utility.yul\":960:967   */\n  dup6\n    /* \"#utility.yul\":956:979   */\n  sub\n    /* \"#utility.yul\":952:984   */\n  slt\n    /* \"#utility.yul\":949:1068   */\n  iszero\n  tag_36\n  jumpi\n    /* \"#utility.yul\":987:1066   */\n  tag_37\n  tag_16\n  jump\t// in\ntag_37:\n    /* \"#utility.yul\":949:1068   */\ntag_36:\n    /* \"#utility.yul\":1107:1108   */\n  0x00\n    /* \"#utility.yul\":1132:1196   */\n  tag_38\n    /* \"#utility.yul\":1188:1195   */\n  dup6\n    /* \"#utility.yul\":1179:1185   */\n  dup3\n    /* \"#utility.yul\":1168:1177   */\n  dup7\n    /* \"#utility.yul\":1164:1186   */\n  add\n    /* \"#utility.yul\":1132:1196   */\n  tag_21\n  jump\t// in\ntag_38:\n    /* \"#utility.yul\":1122:1196   */\n  swap3\n  pop\n    /* \"#utility.yul\":1078:1206   */\n  pop\n    /* \"#utility.yul\":1245:1247   */\n  0x20\n    /* \"#utility.yul\":1271:1335   */\n  tag_39\n    /* \"#utility.yul\":1327:1334   */\n  dup6\n    /* \"#utility.yul\":1318:1324   */\n  dup3\n    /* \"#utility.yul\":1307:1316   */\n  dup7\n    /* \"#utility.yul\":1303:1325   */\n  add\n    /* \"#utility.yul\":1271:1335   */\n  tag_21\n  jump\t// in\ntag_39:\n    /* \"#utility.yul\":1261:1335   */\n  swap2\n  pop\n    /* \"#utility.yul\":1216:1345   */\n  pop\n    /* \"#utility.yul\":845:1352   */\n  swap3\n  pop\n  swap3\n  swap1\n  pop\n  jump\t// out\n    /* \"#utility.yul\":1358:1476   */\ntag_22:\n    /* \"#utility.yul\":1445:1469   */\n  tag_41\n    /* \"#utility.yul\":1463:1468   */\n  dup2\n    /* \"#utility.yul\":1445:1469   */\n  tag_19\n  jump\t// in\ntag_41:\n    /* \"#utility.yul\":1440:1443   */\n  dup3\n    /* \"#utility.yul\":1433:1470   */\n  mstore\n    /* \"#utility.yul\":1358:1476   */\n  pop\n  pop\n  jump\t// out\n    /* \"#utility.yul\":1482:1704   */\ntag_9:\n    /* \"#utility.yul\":1575:1579   */\n  0x00\n    /* \"#utility.yul\":1613:1615   */\n  0x20\n    /* \"#utility.yul\":1602:1611   */\n  dup3\n    /* \"#utility.yul\":1598:1616   */\n  add\n    /* \"#utility.yul\":1590:1616   */\n  swap1\n  pop\n    /* \"#utility.yul\":1626:1697   */\n  tag_43\n    /* \"#utility.yul\":1694:1695   */\n  0x00\n    /* \"#utility.yul\":1683:1692   */\n  dup4\n    /* \"#utility.yul\":1679:1696   */\n  add\n    /* \"#utility.yul\":1670:1676   */\n  dup5\n    /* \"#utility.yul\":1626:1697   */\n  tag_22\n  jump\t// in\ntag_43:\n    /* \"#utility.yul\":1482:1704   */\n  swap3\n  swap2\n  pop\n  pop\n  jump\t// out\n    /* \"Bitxchange.sol\":665:9813  contract Bitxchange is Ownable {... */\ntag_13:\n  dataSize(sub_0)\n  dup1\n  dataOffset(sub_0)\n  0x00\n  codecopy\n  0x00\n  return\nstop\n\nsub_0: assembly {\n        /* \"Bitxchange.sol\":665:9813  contract Bitxchange is Ownable {... */\n      mstore(0x40, 0x80)\n      jumpi(tag_1, lt(calldatasize, 0x04))\n      shr(0xe0, calldataload(0x00))\n      dup1\n      0x98281c75\n      gt\n      tag_20\n      jumpi\n      dup1\n      0xb4798209\n      gt\n      tag_21\n      jumpi\n      dup1\n      0xb4798209\n      eq\n      tag_15\n      jumpi\n      dup1\n      0xbea9849e\n      eq\n      tag_16\n      jumpi\n      dup1\n      0xf14210a6\n      eq\n      tag_17\n      jumpi\n      dup1\n      0xf2fde38b\n      eq\n      tag_18\n      jumpi\n      dup1\n      0xf6326fb3\n      eq\n      tag_19\n      jumpi\n      jump(tag_1)\n    tag_21:\n      dup1\n      0x98281c75\n      eq\n      tag_11\n      jumpi\n      dup1\n      0xa001ecdd\n      eq\n      tag_12\n      jumpi\n      dup1\n      0xad9902a1\n      eq\n      tag_13\n      jumpi\n      dup1\n      0xae06c1b7\n      eq\n      tag_14\n      jumpi\n      jump(tag_1)\n    tag_20:\n      dup1\n      0x4e63c29e\n      gt\n      tag_22\n      jumpi\n      dup1\n      0x4e63c29e\n      eq\n      tag_6\n      jumpi\n      dup1\n      0x715018a6\n      eq\n      tag_7\n      jumpi\n      dup1\n      0x735de9f7\n      eq\n      tag_8\n      jumpi\n      dup1\n      0x8da5cb5b\n      eq\n      tag_9\n      jumpi\n      dup1\n      0x93ad7440\n      eq\n      tag_10\n      jumpi\n      jump(tag_1)\n    tag_22:\n      dup1\n      0x0f7d8e39\n      eq\n      tag_2\n      jumpi\n      dup1\n      0x0fe6a787\n      eq\n      tag_3\n      jumpi\n      dup1\n      0x238cb67d\n      eq\n      tag_4\n      jumpi\n      dup1\n      0x344954af\n      eq\n      tag_5\n      jumpi\n    tag_1:\n      0x00\n      dup1\n      revert\n        /* \"Bitxchange.sol\":2598:3807  function getSignerAddress(bytes32 messageHash, bytes memory signature) public pure returns (address) {... */\n    tag_2:\n      callvalue\n      dup1\n      iszero\n      tag_23\n      jumpi\n      0x00\n      dup1\n      revert\n    tag_23:\n      pop\n      tag_24\n      0x04\n      dup1\n      calldatasize\n      sub\n      dup2\n      add\n      swap1\n      tag_25\n      swap2\n      swap1\n      tag_26\n      jump\t// in\n    tag_25:\n      tag_27\n      jump\t// in\n    tag_24:\n      mload(0x40)\n      tag_28\n      swap2\n      swap1\n      tag_29\n      jump\t// in\n    tag_28:\n      mload(0x40)\n      dup1\n      swap2\n      sub\n      swap1\n      return\n        /* \"Bitxchange.sol\":8695:9808  function swapTokensForETH_UserPaysGas(address token, uint256 amount, uint256 minAmountOut) external payable {... */\n    tag_3:\n      tag_30\n      0x04\n      dup1\n      calldatasize\n      sub\n      dup2\n      add\n      swap1\n      tag_31\n      swap2\n      swap1\n      tag_32\n      jump\t// in\n    tag_31:\n      tag_33\n      jump\t// in\n    tag_30:\n      stop\n        /* \"Bitxchange.sol\":5984:8687  function swapTokensForETH(address token, uint256 amount, uint256 minAmountOut, bytes memory signature,uint256 nonce) external payable {... */\n    tag_4:\n      tag_34\n      0x04\n      dup1\n      calldatasize\n      sub\n      dup2\n      add\n      swap1\n      tag_35\n      swap2\n      swap1\n      tag_36\n      jump\t// in\n    tag_35:\n      tag_37\n      jump\t// in\n    tag_34:\n      stop\n        /* \"Bitxchange.sol\":854:897  uint256 public estimatedGasForSwap = 321428 */\n    tag_5:\n      callvalue\n      dup1\n      iszero\n      tag_38\n      jumpi\n      0x00\n      dup1\n      revert\n    tag_38:\n      pop\n      tag_39\n      tag_40\n      jump\t// in\n    tag_39:\n      mload(0x40)\n      tag_41\n      swap2\n      swap1\n      tag_42\n      jump\t// in\n    tag_41:\n      mload(0x40)\n      dup1\n      swap2\n      sub\n      swap1\n      return\n        /* \"Bitxchange.sol\":2355:2588  function setRewardPot(address _newRewardPot) external onlyOwner {... */\n    tag_6:\n      callvalue\n      dup1\n      iszero\n      tag_43\n      jumpi\n      0x00\n      dup1\n      revert\n    tag_43:\n      pop\n      tag_44\n      0x04\n      dup1\n      calldatasize\n      sub\n      dup2\n      add\n      swap1\n      tag_45\n      swap2\n      swap1\n      tag_46\n      jump\t// in\n    tag_45:\n      tag_47\n      jump\t// in\n    tag_44:\n      stop\n        /* \"@openzeppelin/contracts/access/Ownable.sol\":2293:2394  function renounceOwnership() public virtual onlyOwner {... */\n    tag_7:\n      callvalue\n      dup1\n      iszero\n      tag_48\n      jumpi\n      0x00\n      dup1\n      revert\n    tag_48:\n      pop\n      tag_49\n      tag_50\n      jump\t// in\n    tag_49:\n      stop\n        /* \"Bitxchange.sol\":703:742  IUniswapV2Router02 public uniswapRouter */\n    tag_8:\n      callvalue\n      dup1\n      iszero\n      tag_51\n      jumpi\n      0x00\n      dup1\n      revert\n    tag_51:\n      pop\n      tag_52\n      tag_53\n      jump\t// in\n    tag_52:\n      mload(0x40)\n      tag_54\n      swap2\n      swap1\n      tag_55\n      jump\t// in\n    tag_54:\n      mload(0x40)\n      dup1\n      swap2\n      sub\n      swap1\n      return\n        /* \"@openzeppelin/contracts/access/Ownable.sol\":1638:1723  function owner() public view virtual returns (address) {... */\n    tag_9:\n      callvalue\n      dup1\n      iszero\n      tag_56\n      jumpi\n      0x00\n      dup1\n      revert\n    tag_56:\n      pop\n      tag_57\n      tag_58\n      jump\t// in\n    tag_57:\n      mload(0x40)\n      tag_59\n      swap2\n      swap1\n      tag_29\n      jump\t// in\n    tag_59:\n      mload(0x40)\n      dup1\n      swap2\n      sub\n      swap1\n      return\n        /* \"Bitxchange.sol\":749:776  IRewardPot public rewardPot */\n    tag_10:\n      callvalue\n      dup1\n      iszero\n      tag_60\n      jumpi\n      0x00\n      dup1\n      revert\n    tag_60:\n      pop\n      tag_61\n      tag_62\n      jump\t// in\n    tag_61:\n      mload(0x40)\n      tag_63\n      swap2\n      swap1\n      tag_64\n      jump\t// in\n    tag_63:\n      mload(0x40)\n      dup1\n      swap2\n      sub\n      swap1\n      return\n        /* \"Bitxchange.sol\":1998:2146  function setEstimatedGasForSwap(uint256 _newEstimatedGasForSwap) external onlyOwner {... */\n    tag_11:\n      callvalue\n      dup1\n      iszero\n      tag_65\n      jumpi\n      0x00\n      dup1\n      revert\n    tag_65:\n      pop\n      tag_66\n      0x04\n      dup1\n      calldatasize\n      sub\n      dup2\n      add\n      swap1\n      tag_67\n      swap2\n      swap1\n      tag_68\n      jump\t// in\n    tag_67:\n      tag_69\n      jump\t// in\n    tag_66:\n      stop\n        /* \"Bitxchange.sol\":783:817  uint256 public feePercentage = 750 */\n    tag_12:\n      callvalue\n      dup1\n      iszero\n      tag_70\n      jumpi\n      0x00\n      dup1\n      revert\n    tag_70:\n      pop\n      tag_71\n      tag_72\n      jump\t// in\n    tag_71:\n      mload(0x40)\n      tag_73\n      swap2\n      swap1\n      tag_42\n      jump\t// in\n    tag_73:\n      mload(0x40)\n      dup1\n      swap2\n      sub\n      swap1\n      return\n        /* \"Bitxchange.sol\":4909:5970  function getSwapQuote(address token, uint256 amount, uint256 slippage, uint256 userGasPrice) public view returns (uint256 minAmountOut, uint256 estimatedGasCost, bool canDoSwap) {... */\n    tag_13:\n      callvalue\n      dup1\n      iszero\n      tag_74\n      jumpi\n      0x00\n      dup1\n      revert\n    tag_74:\n      pop\n      tag_75\n      0x04\n      dup1\n      calldatasize\n      sub\n      dup2\n      add\n      swap1\n      tag_76\n      swap2\n      swap1\n      tag_77\n      jump\t// in\n    tag_76:\n      tag_78\n      jump\t// in\n    tag_75:\n      mload(0x40)\n      tag_79\n      swap4\n      swap3\n      swap2\n      swap1\n      tag_80\n      jump\t// in\n    tag_79:\n      mload(0x40)\n      dup1\n      swap2\n      sub\n      swap1\n      return\n        /* \"Bitxchange.sol\":1851:1990  function setFeePercentage(uint256 _newFee) external onlyOwner {... */\n    tag_14:\n      callvalue\n      dup1\n      iszero\n      tag_81\n      jumpi\n      0x00\n      dup1\n      revert\n    tag_81:\n      pop\n      tag_82\n      0x04\n      dup1\n      calldatasize\n      sub\n      dup2\n      add\n      swap1\n      tag_83\n      swap2\n      swap1\n      tag_68\n      jump\t// in\n    tag_83:\n      tag_84\n      jump\t// in\n    tag_82:\n      stop\n        /* \"Bitxchange.sol\":4199:4901  function canSwap(address token, uint256 amountIn, uint256 userGasPrice) public view returns (bool) {... */\n    tag_15:\n      callvalue\n      dup1\n      iszero\n      tag_85\n      jumpi\n      0x00\n      dup1\n      revert\n    tag_85:\n      pop\n      tag_86\n      0x04\n      dup1\n      calldatasize\n      sub\n      dup2\n      add\n      swap1\n      tag_87\n      swap2\n      swap1\n      tag_32\n      jump\t// in\n    tag_87:\n      tag_88\n      jump\t// in\n    tag_86:\n      mload(0x40)\n      tag_89\n      swap2\n      swap1\n      tag_90\n      jump\t// in\n    tag_89:\n      mload(0x40)\n      dup1\n      swap2\n      sub\n      swap1\n      return\n        /* \"Bitxchange.sol\":2154:2347  function setUniswapRouter(address _newRouter) external onlyOwner {... */\n    tag_16:\n      callvalue\n      dup1\n      iszero\n      tag_91\n      jumpi\n      0x00\n      dup1\n      revert\n    tag_91:\n      pop\n      tag_92\n      0x04\n      dup1\n      calldatasize\n      sub\n      dup2\n      add\n      swap1\n      tag_93\n      swap2\n      swap1\n      tag_46\n      jump\t// in\n    tag_93:\n      tag_94\n      jump\t// in\n    tag_92:\n      stop\n        /* \"Bitxchange.sol\":1735:1843  function withdrawETH(uint256 amount) external onlyOwner {... */\n    tag_17:\n      callvalue\n      dup1\n      iszero\n      tag_95\n      jumpi\n      0x00\n      dup1\n      revert\n    tag_95:\n      pop\n      tag_96\n      0x04\n      dup1\n      calldatasize\n      sub\n      dup2\n      add\n      swap1\n      tag_97\n      swap2\n      swap1\n      tag_68\n      jump\t// in\n    tag_97:\n      tag_98\n      jump\t// in\n    tag_96:\n      stop\n        /* \"@openzeppelin/contracts/access/Ownable.sol\":2543:2758  function transferOwnership(address newOwner) public virtual onlyOwner {... */\n    tag_18:\n      callvalue\n      dup1\n      iszero\n      tag_99\n      jumpi\n      0x00\n      dup1\n      revert\n    tag_99:\n      pop\n      tag_100\n      0x04\n      dup1\n      calldatasize\n      sub\n      dup2\n      add\n      swap1\n      tag_101\n      swap2\n      swap1\n      tag_46\n      jump\t// in\n    tag_101:\n      tag_102\n      jump\t// in\n    tag_100:\n      stop\n        /* \"Bitxchange.sol\":1655:1696  function depositETH() external payable {} */\n    tag_19:\n      tag_103\n      tag_104\n      jump\t// in\n    tag_103:\n      stop\n        /* \"Bitxchange.sol\":2598:3807  function getSignerAddress(bytes32 messageHash, bytes memory signature) public pure returns (address) {... */\n    tag_27:\n        /* \"Bitxchange.sol\":2690:2697  address */\n      0x00\n        /* \"Bitxchange.sol\":2710:2719  bytes32 r */\n      dup1\n        /* \"Bitxchange.sol\":2730:2739  bytes32 s */\n      0x00\n        /* \"Bitxchange.sol\":2750:2757  uint8 v */\n      dup1\n        /* \"Bitxchange.sol\":2878:2880  32 */\n      0x20\n        /* \"Bitxchange.sol\":2867:2876  signature */\n      dup6\n        /* \"Bitxchange.sol\":2863:2881  add(signature, 32) */\n      add\n        /* \"Bitxchange.sol\":2857:2882  mload(add(signature, 32)) */\n      mload\n        /* \"Bitxchange.sol\":2852:2882  r := mload(add(signature, 32)) */\n      swap3\n      pop\n        /* \"Bitxchange.sol\":2922:2924  64 */\n      0x40\n        /* \"Bitxchange.sol\":2911:2920  signature */\n      dup6\n        /* \"Bitxchange.sol\":2907:2925  add(signature, 64) */\n      add\n        /* \"Bitxchange.sol\":2901:2926  mload(add(signature, 64)) */\n      mload\n        /* \"Bitxchange.sol\":2896:2926  s := mload(add(signature, 64)) */\n      swap2\n      pop\n        /* \"Bitxchange.sol\":2974:2976  96 */\n      0x60\n        /* \"Bitxchange.sol\":2963:2972  signature */\n      dup6\n        /* \"Bitxchange.sol\":2959:2977  add(signature, 96) */\n      add\n        /* \"Bitxchange.sol\":2953:2978  mload(add(signature, 96)) */\n      mload\n        /* \"Bitxchange.sol\":2950:2951  0 */\n      0x00\n        /* \"Bitxchange.sol\":2945:2979  byte(0, mload(add(signature, 96))) */\n      byte\n        /* \"Bitxchange.sol\":2940:2979  v := byte(0, mload(add(signature, 96))) */\n      swap1\n      pop\n        /* \"Bitxchange.sol\":3511:3540  bytes32 messageHashWithPrefix */\n      0x00\n        /* \"Bitxchange.sol\":3606:3617  messageHash */\n      dup7\n        /* \"Bitxchange.sol\":3553:3618  abi.encodePacked(\"\\x19Ethereum Signed Message:\\n32\", messageHash) */\n      add(0x20, mload(0x40))\n      tag_106\n      swap2\n      swap1\n      tag_107\n      jump\t// in\n    tag_106:\n      mload(0x40)\n      0x20\n      dup2\n      dup4\n      sub\n      sub\n      dup2\n      mstore\n      swap1\n      0x40\n      mstore\n        /* \"Bitxchange.sol\":3543:3619  keccak256(abi.encodePacked(\"\\x19Ethereum Signed Message:\\n32\", messageHash)) */\n      dup1\n      mload\n      swap1\n      0x20\n      add\n      keccak256\n        /* \"Bitxchange.sol\":3511:3619  bytes32 messageHashWithPrefix = keccak256(abi.encodePacked(\"\\x19Ethereum Signed Message:\\n32\", messageHash)) */\n      swap1\n      pop\n        /* \"Bitxchange.sol\":3715:3729  address signer */\n      0x00\n        /* \"Bitxchange.sol\":3732:3773  ecrecover(messageHashWithPrefix, v, r, s) */\n      0x01\n        /* \"Bitxchange.sol\":3742:3763  messageHashWithPrefix */\n      dup3\n        /* \"Bitxchange.sol\":3765:3766  v */\n      dup5\n        /* \"Bitxchange.sol\":3768:3769  r */\n      dup8\n        /* \"Bitxchange.sol\":3771:3772  s */\n      dup8\n        /* \"Bitxchange.sol\":3732:3773  ecrecover(messageHashWithPrefix, v, r, s) */\n      mload(0x40)\n      0x00\n      dup2\n      mstore\n      0x20\n      add\n      0x40\n      mstore\n      mload(0x40)\n      tag_108\n      swap5\n      swap4\n      swap3\n      swap2\n      swap1\n      tag_109\n      jump\t// in\n    tag_108:\n      0x20\n      mload(0x40)\n      0x20\n      dup2\n      sub\n      swap1\n      dup1\n      dup5\n      sub\n      swap1\n      dup6\n      gas\n      staticcall\n      iszero\n      dup1\n      iszero\n      tag_111\n      jumpi\n      returndatasize\n      0x00\n      dup1\n      returndatacopy\n      revert(0x00, returndatasize)\n    tag_111:\n      pop\n      pop\n      pop\n      mload(sub(mload(0x40), 0x20))\n        /* \"Bitxchange.sol\":3715:3773  address signer = ecrecover(messageHashWithPrefix, v, r, s) */\n      swap1\n      pop\n        /* \"Bitxchange.sol\":3793:3799  signer */\n      dup1\n        /* \"Bitxchange.sol\":3786:3799  return signer */\n      swap6\n      pop\n      pop\n      pop\n      pop\n      pop\n      pop\n        /* \"Bitxchange.sol\":2598:3807  function getSignerAddress(bytes32 messageHash, bytes memory signature) public pure returns (address) {... */\n      swap3\n      swap2\n      pop\n      pop\n      jump\t// out\n        /* \"Bitxchange.sol\":8695:9808  function swapTokensForETH_UserPaysGas(address token, uint256 amount, uint256 minAmountOut) external payable {... */\n    tag_33:\n        /* \"Bitxchange.sol\":8850:8855  token */\n      dup3\n        /* \"Bitxchange.sol\":8843:8869  IERC20(token).transferFrom */\n      0xffffffffffffffffffffffffffffffffffffffff\n      and\n      0x23b872dd\n        /* \"Bitxchange.sol\":8870:8880  msg.sender */\n      caller\n        /* \"Bitxchange.sol\":8890:8894  this */\n      address\n        /* \"Bitxchange.sol\":8897:8903  amount */\n      dup6\n        /* \"Bitxchange.sol\":8843:8904  IERC20(token).transferFrom(msg.sender, address(this), amount) */\n      mload(0x40)\n      dup5\n      0xffffffff\n      and\n      0xe0\n      shl\n      dup2\n      mstore\n      0x04\n      add\n      tag_113\n      swap4\n      swap3\n      swap2\n      swap1\n      tag_114\n      jump\t// in\n    tag_113:\n      0x20\n      mload(0x40)\n      dup1\n      dup4\n      sub\n      dup2\n      0x00\n      dup8\n      gas\n      call\n      iszero\n      dup1\n      iszero\n      tag_116\n      jumpi\n      returndatasize\n      0x00\n      dup1\n      returndatacopy\n      revert(0x00, returndatasize)\n    tag_116:\n      pop\n      pop\n      pop\n      pop\n      mload(0x40)\n      returndatasize\n      not(0x1f)\n      0x1f\n      dup3\n      add\n      and\n      dup3\n      add\n      dup1\n      0x40\n      mstore\n      pop\n      dup2\n      add\n      swap1\n      tag_117\n      swap2\n      swap1\n      tag_118\n      jump\t// in\n    tag_117:\n      pop\n        /* \"Bitxchange.sol\":8922:8927  token */\n      dup3\n        /* \"Bitxchange.sol\":8915:8936  IERC20(token).approve */\n      0xffffffffffffffffffffffffffffffffffffffff\n      and\n      0x095ea7b3\n        /* \"Bitxchange.sol\":8945:8958  uniswapRouter */\n      0x01\n      0x00\n      swap1\n      sload\n      swap1\n      0x0100\n      exp\n      swap1\n      div\n      0xffffffffffffffffffffffffffffffffffffffff\n      and\n        /* \"Bitxchange.sol\":8961:8967  amount */\n      dup5\n        /* \"Bitxchange.sol\":8915:8968  IERC20(token).approve(address(uniswapRouter), amount) */\n      mload(0x40)\n      dup4\n      0xffffffff\n      and\n      0xe0\n      shl\n      dup2\n      mstore\n      0x04\n      add\n      tag_119\n      swap3\n      swap2\n      swap1\n      tag_120\n      jump\t// in\n    tag_119:\n      0x20\n      mload(0x40)\n      dup1\n      dup4\n      sub\n      dup2\n      0x00\n      dup8\n      gas\n      call\n      iszero\n      dup1\n      iszero\n      tag_122\n      jumpi\n      returndatasize\n      0x00\n      dup1\n      returndatacopy\n      revert(0x00, returndatasize)\n    tag_122:\n      pop\n      pop\n      pop\n      pop\n      mload(0x40)\n      returndatasize\n      not(0x1f)\n      0x1f\n      dup3\n      add\n      and\n      dup3\n      add\n      dup1\n      0x40\n      mstore\n      pop\n      dup2\n      add\n      swap1\n      tag_123\n      swap2\n      swap1\n      tag_118\n      jump\t// in\n    tag_123:\n      pop\n        /* \"Bitxchange.sol\":8981:9002  address[] memory path */\n      0x00\n        /* \"Bitxchange.sol\":9019:9020  2 */\n      0x02\n        /* \"Bitxchange.sol\":9005:9021  new address[](2) */\n      0xffffffffffffffff\n      dup2\n      gt\n      iszero\n      tag_124\n      jumpi\n      tag_125\n      tag_126\n      jump\t// in\n    tag_125:\n    tag_124:\n      mload(0x40)\n      swap1\n      dup1\n      dup3\n      mstore\n      dup1\n      0x20\n      mul\n      0x20\n      add\n      dup3\n      add\n      0x40\n      mstore\n      dup1\n      iszero\n      tag_127\n      jumpi\n      dup2\n      0x20\n      add\n      0x20\n      dup3\n      mul\n      dup1\n      calldatasize\n      dup4\n      calldatacopy\n      dup1\n      dup3\n      add\n      swap2\n      pop\n      pop\n      swap1\n      pop\n    tag_127:\n      pop\n        /* \"Bitxchange.sol\":8981:9021  address[] memory path = new address[](2) */\n      swap1\n      pop\n        /* \"Bitxchange.sol\":9042:9047  token */\n      dup4\n        /* \"Bitxchange.sol\":9032:9036  path */\n      dup2\n        /* \"Bitxchange.sol\":9037:9038  0 */\n      0x00\n        /* \"Bitxchange.sol\":9032:9039  path[0] */\n      dup2\n      mload\n      dup2\n      lt\n      tag_128\n      jumpi\n      tag_129\n      tag_130\n      jump\t// in\n    tag_129:\n    tag_128:\n      0x20\n      mul\n      0x20\n      add\n      add\n        /* \"Bitxchange.sol\":9032:9047  path[0] = token */\n      swap1\n      0xffffffffffffffffffffffffffffffffffffffff\n      and\n      swap1\n      dup2\n      0xffffffffffffffffffffffffffffffffffffffff\n      and\n      dup2\n      mstore\n      pop\n      pop\n        /* \"Bitxchange.sol\":9068:9081  uniswapRouter */\n      0x01\n      0x00\n      swap1\n      sload\n      swap1\n      0x0100\n      exp\n      swap1\n      div\n      0xffffffffffffffffffffffffffffffffffffffff\n      and\n        /* \"Bitxchange.sol\":9068:9086  uniswapRouter.WETH */\n      0xffffffffffffffffffffffffffffffffffffffff\n      and\n      0xad5c4648\n        /* \"Bitxchange.sol\":9068:9088  uniswapRouter.WETH() */\n      mload(0x40)\n      dup2\n      0xffffffff\n      and\n      0xe0\n      shl\n      dup2\n      mstore\n      0x04\n      add\n      0x20\n      mload(0x40)\n      dup1\n      dup4\n      sub\n      dup2\n      dup7\n      gas\n      staticcall\n      iszero\n      dup1\n      iszero\n      tag_132\n      jumpi\n      returndatasize\n      0x00\n      dup1\n      returndatacopy\n      revert(0x00, returndatasize)\n    tag_132:\n      pop\n      pop\n      pop\n      pop\n      mload(0x40)\n      returndatasize\n      not(0x1f)\n      0x1f\n      dup3\n      add\n      and\n      dup3\n      add\n      dup1\n      0x40\n      mstore\n      pop\n      dup2\n      add\n      swap1\n      tag_133\n      swap2\n      swap1\n      tag_134\n      jump\t// in\n    tag_133:\n        /* \"Bitxchange.sol\":9058:9062  path */\n      dup2\n        /* \"Bitxchange.sol\":9063:9064  1 */\n      0x01\n        /* \"Bitxchange.sol\":9058:9065  path[1] */\n      dup2\n      mload\n      dup2\n      lt\n      tag_135\n      jumpi\n      tag_136\n      tag_130\n      jump\t// in\n    tag_136:\n    tag_135:\n      0x20\n      mul\n      0x20\n      add\n      add\n        /* \"Bitxchange.sol\":9058:9088  path[1] = uniswapRouter.WETH() */\n      swap1\n      0xffffffffffffffffffffffffffffffffffffffff\n      and\n      swap1\n      dup2\n      0xffffffffffffffffffffffffffffffffffffffff\n      and\n      dup2\n      mstore\n      pop\n      pop\n        /* \"Bitxchange.sol\":9101:9125  uint256[] memory amounts */\n      0x00\n        /* \"Bitxchange.sol\":9128:9141  uniswapRouter */\n      0x01\n      0x00\n      swap1\n      sload\n      swap1\n      0x0100\n      exp\n      swap1\n      div\n      0xffffffffffffffffffffffffffffffffffffffff\n      and\n        /* \"Bitxchange.sol\":9128:9163  uniswapRouter.swapExactTokensForETH */\n      0xffffffffffffffffffffffffffffffffffffffff\n      and\n      0x18cbafe5\n        /* \"Bitxchange.sol\":9164:9170  amount */\n      dup6\n        /* \"Bitxchange.sol\":9172:9184  minAmountOut */\n      dup6\n        /* \"Bitxchange.sol\":9186:9190  path */\n      dup6\n        /* \"Bitxchange.sol\":9200:9204  this */\n      address\n        /* \"Bitxchange.sol\":9207:9222  block.timestamp */\n      timestamp\n        /* \"Bitxchange.sol\":9128:9223  uniswapRouter.swapExactTokensForETH(amount, minAmountOut, path, address(this), block.timestamp) */\n      mload(0x40)\n      dup7\n      0xffffffff\n      and\n      0xe0\n      shl\n      dup2\n      mstore\n      0x04\n      add\n      tag_137\n      swap6\n      swap5\n      swap4\n      swap3\n      swap2\n      swap1\n      tag_138\n      jump\t// in\n    tag_137:\n      0x00\n      mload(0x40)\n      dup1\n      dup4\n      sub\n      dup2\n      0x00\n      dup8\n      gas\n      call\n      iszero\n      dup1\n      iszero\n      tag_140\n      jumpi\n      returndatasize\n      0x00\n      dup1\n      returndatacopy\n      revert(0x00, returndatasize)\n    tag_140:\n      pop\n      pop\n      pop\n      pop\n      mload(0x40)\n      returndatasize\n      0x00\n      dup3\n      returndatacopy\n      returndatasize\n      not(0x1f)\n      0x1f\n      dup3\n      add\n      and\n      dup3\n      add\n      dup1\n      0x40\n      mstore\n      pop\n      dup2\n      add\n      swap1\n      tag_141\n      swap2\n      swap1\n      tag_142\n      jump\t// in\n    tag_141:\n        /* \"Bitxchange.sol\":9101:9223  uint256[] memory amounts = uniswapRouter.swapExactTokensForETH(amount, minAmountOut, path, address(this), block.timestamp) */\n      swap1\n      pop\n        /* \"Bitxchange.sol\":9234:9253  uint256 receivedETH */\n      0x00\n        /* \"Bitxchange.sol\":9256:9263  amounts */\n      dup2\n        /* \"Bitxchange.sol\":9264:9265  1 */\n      0x01\n        /* \"Bitxchange.sol\":9256:9266  amounts[1] */\n      dup2\n      mload\n      dup2\n      lt\n      tag_143\n      jumpi\n      tag_144\n      tag_130\n      jump\t// in\n    tag_144:\n    tag_143:\n      0x20\n      mul\n      0x20\n      add\n      add\n      mload\n        /* \"Bitxchange.sol\":9234:9266  uint256 receivedETH = amounts[1] */\n      swap1\n      pop\n        /* \"Bitxchange.sol\":9318:9329  uint256 fee */\n      0x00\n        /* \"Bitxchange.sol\":9364:9369  10000 */\n      0x2710\n        /* \"Bitxchange.sol\":9347:9360  feePercentage */\n      sload(0x03)\n        /* \"Bitxchange.sol\":9333:9344  receivedETH */\n      dup4\n        /* \"Bitxchange.sol\":9333:9360  receivedETH * feePercentage */\n      tag_145\n      swap2\n      swap1\n      tag_146\n      jump\t// in\n    tag_145:\n        /* \"Bitxchange.sol\":9332:9369  (receivedETH * feePercentage) / 10000 */\n      tag_147\n      swap2\n      swap1\n      tag_148\n      jump\t// in\n    tag_147:\n        /* \"Bitxchange.sol\":9318:9369  uint256 fee = (receivedETH * feePercentage) / 10000 */\n      swap1\n      pop\n        /* \"Bitxchange.sol\":9380:9400  uint256 rewardPotFee */\n      0x00\n        /* \"Bitxchange.sol\":9416:9419  100 */\n      0x64\n        /* \"Bitxchange.sol\":9410:9412  90 */\n      0x5a\n        /* \"Bitxchange.sol\":9404:9407  fee */\n      dup4\n        /* \"Bitxchange.sol\":9404:9412  fee * 90 */\n      tag_149\n      swap2\n      swap1\n      tag_146\n      jump\t// in\n    tag_149:\n        /* \"Bitxchange.sol\":9403:9419  (fee * 90) / 100 */\n      tag_150\n      swap2\n      swap1\n      tag_148\n      jump\t// in\n    tag_150:\n        /* \"Bitxchange.sol\":9380:9419  uint256 rewardPotFee = (fee * 90) / 100 */\n      swap1\n      pop\n        /* \"Bitxchange.sol\":9482:9491  rewardPot */\n      0x02\n      0x00\n      swap1\n      sload\n      swap1\n      0x0100\n      exp\n      swap1\n      div\n      0xffffffffffffffffffffffffffffffffffffffff\n      and\n        /* \"Bitxchange.sol\":9482:9506  rewardPot.addToRewardPot */\n      0xffffffffffffffffffffffffffffffffffffffff\n      and\n      0x099da9e9\n        /* \"Bitxchange.sol\":9507:9519  rewardPotFee */\n      dup3\n        /* \"Bitxchange.sol\":9482:9520  rewardPot.addToRewardPot(rewardPotFee) */\n      mload(0x40)\n      dup3\n      0xffffffff\n      and\n      0xe0\n      shl\n      dup2\n      mstore\n      0x04\n      add\n      tag_151\n      swap2\n      swap1\n      tag_42\n      jump\t// in\n    tag_151:\n      0x00\n      mload(0x40)\n      dup1\n      dup4\n      sub\n      dup2\n      0x00\n      dup8\n      dup1\n      extcodesize\n      iszero\n      dup1\n      iszero\n      tag_152\n      jumpi\n      0x00\n      dup1\n      revert\n    tag_152:\n      pop\n      gas\n      call\n      iszero\n      dup1\n      iszero\n      tag_154\n      jumpi\n      returndatasize\n      0x00\n      dup1\n      returndatacopy\n      revert(0x00, returndatasize)\n    tag_154:\n      pop\n      pop\n      pop\n      pop\n        /* \"Bitxchange.sol\":9650:9670  uint256 remainingETH */\n      0x00\n        /* \"Bitxchange.sol\":9687:9690  fee */\n      dup3\n        /* \"Bitxchange.sol\":9673:9684  receivedETH */\n      dup5\n        /* \"Bitxchange.sol\":9673:9690  receivedETH - fee */\n      tag_155\n      swap2\n      swap1\n      tag_156\n      jump\t// in\n    tag_155:\n        /* \"Bitxchange.sol\":9650:9690  uint256 remainingETH = receivedETH - fee */\n      swap1\n      pop\n        /* \"Bitxchange.sol\":9709:9719  msg.sender */\n      caller\n        /* \"Bitxchange.sol\":9701:9729  payable(msg.sender).transfer */\n      0xffffffffffffffffffffffffffffffffffffffff\n      and\n        /* \"Bitxchange.sol\":9701:9743  payable(msg.sender).transfer(remainingETH) */\n      0x08fc\n        /* \"Bitxchange.sol\":9730:9742  remainingETH */\n      dup3\n        /* \"Bitxchange.sol\":9701:9743  payable(msg.sender).transfer(remainingETH) */\n      swap1\n      dup2\n      iszero\n      mul\n      swap1\n      mload(0x40)\n      0x00\n      mload(0x40)\n      dup1\n      dup4\n      sub\n      dup2\n      dup6\n      dup9\n      dup9\n      call\n      swap4\n      pop\n      pop\n      pop\n      pop\n      iszero\n      dup1\n      iszero\n      tag_158\n      jumpi\n      returndatasize\n      0x00\n      dup1\n      returndatacopy\n      revert(0x00, returndatasize)\n    tag_158:\n      pop\n        /* \"Bitxchange.sol\":9776:9786  msg.sender */\n      caller\n        /* \"Bitxchange.sol\":9761:9800  SwapSuccessful(msg.sender, receivedETH) */\n      0xffffffffffffffffffffffffffffffffffffffff\n      and\n      0xf12a93b520e347a9f6fac0d0eadf4603283511a046afe4ce7758c144fcb80065\n        /* \"Bitxchange.sol\":9788:9799  receivedETH */\n      dup6\n        /* \"Bitxchange.sol\":9761:9800  SwapSuccessful(msg.sender, receivedETH) */\n      mload(0x40)\n      tag_159\n      swap2\n      swap1\n      tag_42\n      jump\t// in\n    tag_159:\n      mload(0x40)\n      dup1\n      swap2\n      sub\n      swap1\n      log2\n        /* \"Bitxchange.sol\":8803:9808  {... */\n      pop\n      pop\n      pop\n      pop\n      pop\n      pop\n        /* \"Bitxchange.sol\":8695:9808  function swapTokensForETH_UserPaysGas(address token, uint256 amount, uint256 minAmountOut) external payable {... */\n      pop\n      pop\n      pop\n      jump\t// out\n        /* \"Bitxchange.sol\":5984:8687  function swapTokensForETH(address token, uint256 amount, uint256 minAmountOut, bytes memory signature,uint256 nonce) external payable {... */\n    tag_37:\n        /* \"Bitxchange.sol\":6129:6144  uint256 gasCost */\n      0x00\n        /* \"Bitxchange.sol\":6147:6156  gasleft() */\n      gas\n        /* \"Bitxchange.sol\":6129:6156  uint256 gasCost = gasleft() */\n      swap1\n      pop\n        /* \"Bitxchange.sol\":6230:6254  uint256 estimatedGasCost */\n      0x00\n        /* \"Bitxchange.sol\":6279:6290  tx.gasprice */\n      gasprice\n        /* \"Bitxchange.sol\":6257:6276  estimatedGasForSwap */\n      sload(0x04)\n        /* \"Bitxchange.sol\":6257:6290  estimatedGasForSwap * tx.gasprice */\n      tag_161\n      swap2\n      swap1\n      tag_146\n      jump\t// in\n    tag_161:\n        /* \"Bitxchange.sol\":6230:6290  uint256 estimatedGasCost = estimatedGasForSwap * tx.gasprice */\n      swap1\n      pop\n        /* \"Bitxchange.sol\":6328:6340  minAmountOut */\n      dup5\n        /* \"Bitxchange.sol\":6309:6325  estimatedGasCost */\n      dup2\n        /* \"Bitxchange.sol\":6309:6340  estimatedGasCost < minAmountOut */\n      lt\n        /* \"Bitxchange.sol\":6301:6384  require(estimatedGasCost < minAmountOut, \"Estimated gas cost exceeds minAmountOut\") */\n      tag_162\n      jumpi\n      mload(0x40)\n      0x08c379a000000000000000000000000000000000000000000000000000000000\n      dup2\n      mstore\n      0x04\n      add\n      tag_163\n      swap1\n      tag_164\n      jump\t// in\n    tag_163:\n      mload(0x40)\n      dup1\n      swap2\n      sub\n      swap1\n      revert\n    tag_162:\n        /* \"Bitxchange.sol\":6493:6517  address recoveredAddress */\n      0x00\n        /* \"Bitxchange.sol\":6520:6668  getSignerAddress(... */\n      tag_165\n        /* \"Bitxchange.sol\":6590:6595  token */\n      dup9\n        /* \"Bitxchange.sol\":6597:6603  amount */\n      dup9\n        /* \"Bitxchange.sol\":6605:6617  minAmountOut */\n      dup9\n        /* \"Bitxchange.sol\":6619:6624  nonce */\n      dup8\n        /* \"Bitxchange.sol\":6573:6625  abi.encodePacked(token, amount, minAmountOut, nonce) */\n      add(0x20, mload(0x40))\n      tag_166\n      swap5\n      swap4\n      swap3\n      swap2\n      swap1\n      tag_167\n      jump\t// in\n    tag_166:\n      mload(0x40)\n      0x20\n      dup2\n      dup4\n      sub\n      sub\n      dup2\n      mstore\n      swap1\n      0x40\n      mstore\n        /* \"Bitxchange.sol\":6556:6632  keccak256(... */\n      dup1\n      mload\n      swap1\n      0x20\n      add\n      keccak256\n        /* \"Bitxchange.sol\":6648:6657  signature */\n      dup7\n        /* \"Bitxchange.sol\":6520:6536  getSignerAddress */\n      tag_27\n        /* \"Bitxchange.sol\":6520:6668  getSignerAddress(... */\n      jump\t// in\n    tag_165:\n        /* \"Bitxchange.sol\":6493:6668  address recoveredAddress = getSignerAddress(... */\n      swap1\n      pop\n        /* \"Bitxchange.sol\":6701:6717  recoveredAddress */\n      dup1\n        /* \"Bitxchange.sol\":6684:6718  RecoveredAddress(recoveredAddress) */\n      0xffffffffffffffffffffffffffffffffffffffff\n      and\n      0x391f5edd7209ba797e8055bce97cab2d1a480a2849b0c7fe965c370457166dc4\n      mload(0x40)\n      mload(0x40)\n      dup1\n      swap2\n      sub\n      swap1\n      log2\n        /* \"Bitxchange.sol\":6765:6766  0 */\n      0x00\n        /* \"Bitxchange.sol\":6737:6767  recoveredAddress != address(0) */\n      0xffffffffffffffffffffffffffffffffffffffff\n      and\n        /* \"Bitxchange.sol\":6737:6753  recoveredAddress */\n      dup2\n        /* \"Bitxchange.sol\":6737:6767  recoveredAddress != address(0) */\n      0xffffffffffffffffffffffffffffffffffffffff\n      and\n      sub\n        /* \"Bitxchange.sol\":6729:6789  require(recoveredAddress != address(0), \"Invalid signature\") */\n      tag_168\n      jumpi\n      mload(0x40)\n      0x08c379a000000000000000000000000000000000000000000000000000000000\n      dup2\n      mstore\n      0x04\n      add\n      tag_169\n      swap1\n      tag_170\n      jump\t// in\n    tag_169:\n      mload(0x40)\n      dup1\n      swap2\n      sub\n      swap1\n      revert\n    tag_168:\n        /* \"Bitxchange.sol\":6802:6823  address[] memory path */\n      0x00\n        /* \"Bitxchange.sol\":6840:6841  2 */\n      0x02\n        /* \"Bitxchange.sol\":6826:6842  new address[](2) */\n      0xffffffffffffffff\n      dup2\n      gt\n      iszero\n      tag_171\n      jumpi\n      tag_172\n      tag_126\n      jump\t// in\n    tag_172:\n    tag_171:\n      mload(0x40)\n      swap1\n      dup1\n      dup3\n      mstore\n      dup1\n      0x20\n      mul\n      0x20\n      add\n      dup3\n      add\n      0x40\n      mstore\n      dup1\n      iszero\n      tag_173\n      jumpi\n      dup2\n      0x20\n      add\n      0x20\n      dup3\n      mul\n      dup1\n      calldatasize\n      dup4\n      calldatacopy\n      dup1\n      dup3\n      add\n      swap2\n      pop\n      pop\n      swap1\n      pop\n    tag_173:\n      pop\n        /* \"Bitxchange.sol\":6802:6842  address[] memory path = new address[](2) */\n      swap1\n      pop\n        /* \"Bitxchange.sol\":6863:6868  token */\n      dup9\n        /* \"Bitxchange.sol\":6853:6857  path */\n      dup2\n        /* \"Bitxchange.sol\":6858:6859  0 */\n      0x00\n        /* \"Bitxchange.sol\":6853:6860  path[0] */\n      dup2\n      mload\n      dup2\n      lt\n      tag_174\n      jumpi\n      tag_175\n      tag_130\n      jump\t// in\n    tag_175:\n    tag_174:\n      0x20\n      mul\n      0x20\n      add\n      add\n        /* \"Bitxchange.sol\":6853:6868  path[0] = token */\n      swap1\n      0xffffffffffffffffffffffffffffffffffffffff\n      and\n      swap1\n      dup2\n      0xffffffffffffffffffffffffffffffffffffffff\n      and\n      dup2\n      mstore\n      pop\n      pop\n        /* \"Bitxchange.sol\":6889:6902  uniswapRouter */\n      0x01\n      0x00\n      swap1\n      sload\n      swap1\n      0x0100\n      exp\n      swap1\n      div\n      0xffffffffffffffffffffffffffffffffffffffff\n      and\n        /* \"Bitxchange.sol\":6889:6907  uniswapRouter.WETH */\n      0xffffffffffffffffffffffffffffffffffffffff\n      and\n      0xad5c4648\n        /* \"Bitxchange.sol\":6889:6909  uniswapRouter.WETH() */\n      mload(0x40)\n      dup2\n      0xffffffff\n      and\n      0xe0\n      shl\n      dup2\n      mstore\n      0x04\n      add\n      0x20\n      mload(0x40)\n      dup1\n      dup4\n      sub\n      dup2\n      dup7\n      gas\n      staticcall\n      iszero\n      dup1\n      iszero\n      tag_177\n      jumpi\n      returndatasize\n      0x00\n      dup1\n      returndatacopy\n      revert(0x00, returndatasize)\n    tag_177:\n      pop\n      pop\n      pop\n      pop\n      mload(0x40)\n      returndatasize\n      not(0x1f)\n      0x1f\n      dup3\n      add\n      and\n      dup3\n      add\n      dup1\n      0x40\n      mstore\n      pop\n      dup2\n      add\n      swap1\n      tag_178\n      swap2\n      swap1\n      tag_134\n      jump\t// in\n    tag_178:\n        /* \"Bitxchange.sol\":6879:6883  path */\n      dup2\n        /* \"Bitxchange.sol\":6884:6885  1 */\n      0x01\n        /* \"Bitxchange.sol\":6879:6886  path[1] */\n      dup2\n      mload\n      dup2\n      lt\n      tag_179\n      jumpi\n      tag_180\n      tag_130\n      jump\t// in\n    tag_180:\n    tag_179:\n      0x20\n      mul\n      0x20\n      add\n      add\n        /* \"Bitxchange.sol\":6879:6909  path[1] = uniswapRouter.WETH() */\n      swap1\n      0xffffffffffffffffffffffffffffffffffffffff\n      and\n      swap1\n      dup2\n      0xffffffffffffffffffffffffffffffffffffffff\n      and\n      dup2\n      mstore\n      pop\n      pop\n        /* \"Bitxchange.sol\":6923:6935  bool success */\n      0x00\n        /* \"Bitxchange.sol\":6937:6962  uint256 expectedAmountOut */\n      dup1\n        /* \"Bitxchange.sol\":6966:6996  tryGetAmountsOut(amount, path) */\n      tag_181\n        /* \"Bitxchange.sol\":6983:6989  amount */\n      dup11\n        /* \"Bitxchange.sol\":6991:6995  path */\n      dup5\n        /* \"Bitxchange.sol\":6966:6982  tryGetAmountsOut */\n      tag_182\n        /* \"Bitxchange.sol\":6966:6996  tryGetAmountsOut(amount, path) */\n      jump\t// in\n    tag_181:\n        /* \"Bitxchange.sol\":6922:6996  (bool success, uint256 expectedAmountOut) = tryGetAmountsOut(amount, path) */\n      swap2\n      pop\n      swap2\n      pop\n        /* \"Bitxchange.sol\":7015:7022  success */\n      dup2\n        /* \"Bitxchange.sol\":7007:7048  require(success, \"Swap Expected to fail\") */\n      tag_183\n      jumpi\n      mload(0x40)\n      0x08c379a000000000000000000000000000000000000000000000000000000000\n      dup2\n      mstore\n      0x04\n      add\n      tag_184\n      swap1\n      tag_185\n      jump\t// in\n    tag_184:\n      mload(0x40)\n      dup1\n      swap2\n      sub\n      swap1\n      revert\n    tag_183:\n        /* \"Bitxchange.sol\":7103:7120  expectedAmountOut */\n      dup1\n        /* \"Bitxchange.sol\":7089:7100  tx.gasprice */\n      gasprice\n        /* \"Bitxchange.sol\":7067:7086  estimatedGasForSwap */\n      sload(0x04)\n        /* \"Bitxchange.sol\":7067:7100  estimatedGasForSwap * tx.gasprice */\n      tag_186\n      swap2\n      swap1\n      tag_146\n      jump\t// in\n    tag_186:\n        /* \"Bitxchange.sol\":7067:7120  estimatedGasForSwap * tx.gasprice < expectedAmountOut */\n      lt\n        /* \"Bitxchange.sol\":7059:7154  require(estimatedGasForSwap * tx.gasprice < expectedAmountOut, \"Expected gas more than return\") */\n      tag_187\n      jumpi\n      mload(0x40)\n      0x08c379a000000000000000000000000000000000000000000000000000000000\n      dup2\n      mstore\n      0x04\n      add\n      tag_188\n      swap1\n      tag_189\n      jump\t// in\n    tag_188:\n      mload(0x40)\n      dup1\n      swap2\n      sub\n      swap1\n      revert\n    tag_187:\n        /* \"Bitxchange.sol\":7257:7269  minAmountOut */\n      dup9\n        /* \"Bitxchange.sol\":7236:7253  expectedAmountOut */\n      dup2\n        /* \"Bitxchange.sol\":7236:7269  expectedAmountOut >= minAmountOut */\n      lt\n      iszero\n        /* \"Bitxchange.sol\":7228:7316  require(expectedAmountOut >= minAmountOut, \"Expected amount less than minimum required\") */\n      tag_190\n      jumpi\n      mload(0x40)\n      0x08c379a000000000000000000000000000000000000000000000000000000000\n      dup2\n      mstore\n      0x04\n      add\n      tag_191\n      swap1\n      tag_192\n      jump\t// in\n    tag_191:\n      mload(0x40)\n      dup1\n      swap2\n      sub\n      swap1\n      revert\n    tag_190:\n        /* \"Bitxchange.sol\":7365:7370  token */\n      dup11\n        /* \"Bitxchange.sol\":7358:7384  IERC20(token).transferFrom */\n      0xffffffffffffffffffffffffffffffffffffffff\n      and\n      0x23b872dd\n        /* \"Bitxchange.sol\":7385:7401  recoveredAddress */\n      dup6\n        /* \"Bitxchange.sol\":7411:7415  this */\n      address\n        /* \"Bitxchange.sol\":7418:7424  amount */\n      dup14\n        /* \"Bitxchange.sol\":7358:7425  IERC20(token).transferFrom(recoveredAddress, address(this), amount) */\n      mload(0x40)\n      dup5\n      0xffffffff\n      and\n      0xe0\n      shl\n      dup2\n      mstore\n      0x04\n      add\n      tag_193\n      swap4\n      swap3\n      swap2\n      swap1\n      tag_114\n      jump\t// in\n    tag_193:\n      0x20\n      mload(0x40)\n      dup1\n      dup4\n      sub\n      dup2\n      0x00\n      dup8\n      gas\n      call\n      iszero\n      dup1\n      iszero\n      tag_195\n      jumpi\n      returndatasize\n      0x00\n      dup1\n      returndatacopy\n      revert(0x00, returndatasize)\n    tag_195:\n      pop\n      pop\n      pop\n      pop\n      mload(0x40)\n      returndatasize\n      not(0x1f)\n      0x1f\n      dup3\n      add\n      and\n      dup3\n      add\n      dup1\n      0x40\n      mstore\n      pop\n      dup2\n      add\n      swap1\n      tag_196\n      swap2\n      swap1\n      tag_118\n      jump\t// in\n    tag_196:\n      pop\n        /* \"Bitxchange.sol\":7443:7448  token */\n      dup11\n        /* \"Bitxchange.sol\":7436:7457  IERC20(token).approve */\n      0xffffffffffffffffffffffffffffffffffffffff\n      and\n      0x095ea7b3\n        /* \"Bitxchange.sol\":7466:7479  uniswapRouter */\n      0x01\n      0x00\n      swap1\n      sload\n      swap1\n      0x0100\n      exp\n      swap1\n      div\n      0xffffffffffffffffffffffffffffffffffffffff\n      and\n        /* \"Bitxchange.sol\":7482:7488  amount */\n      dup13\n        /* \"Bitxchange.sol\":7436:7489  IERC20(token).approve(address(uniswapRouter), amount) */\n      mload(0x40)\n      dup4\n      0xffffffff\n      and\n      0xe0\n      shl\n      dup2\n      mstore\n      0x04\n      add\n      tag_197\n      swap3\n      swap2\n      swap1\n      tag_120\n      jump\t// in\n    tag_197:\n      0x20\n      mload(0x40)\n      dup1\n      dup4\n      sub\n      dup2\n      0x00\n      dup8\n      gas\n      call\n      iszero\n      dup1\n      iszero\n      tag_199\n      jumpi\n      returndatasize\n      0x00\n      dup1\n      returndatacopy\n      revert(0x00, returndatasize)\n    tag_199:\n      pop\n      pop\n      pop\n      pop\n      mload(0x40)\n      returndatasize\n      not(0x1f)\n      0x1f\n      dup3\n      add\n      and\n      dup3\n      add\n      dup1\n      0x40\n      mstore\n      pop\n      dup2\n      add\n      swap1\n      tag_200\n      swap2\n      swap1\n      tag_118\n      jump\t// in\n    tag_200:\n      pop\n        /* \"Bitxchange.sol\":7502:7526  uint256[] memory amounts */\n      0x00\n        /* \"Bitxchange.sol\":7529:7542  uniswapRouter */\n      0x01\n      0x00\n      swap1\n      sload\n      swap1\n      0x0100\n      exp\n      swap1\n      div\n      0xffffffffffffffffffffffffffffffffffffffff\n      and\n        /* \"Bitxchange.sol\":7529:7564  uniswapRouter.swapExactTokensForETH */\n      0xffffffffffffffffffffffffffffffffffffffff\n      and\n      0x18cbafe5\n        /* \"Bitxchange.sol\":7565:7571  amount */\n      dup13\n        /* \"Bitxchange.sol\":7573:7585  minAmountOut */\n      dup13\n        /* \"Bitxchange.sol\":7587:7591  path */\n      dup8\n        /* \"Bitxchange.sol\":7601:7605  this */\n      address\n        /* \"Bitxchange.sol\":7608:7623  block.timestamp */\n      timestamp\n        /* \"Bitxchange.sol\":7529:7624  uniswapRouter.swapExactTokensForETH(amount, minAmountOut, path, address(this), block.timestamp) */\n      mload(0x40)\n      dup7\n      0xffffffff\n      and\n      0xe0\n      shl\n      dup2\n      mstore\n      0x04\n      add\n      tag_201\n      swap6\n      swap5\n      swap4\n      swap3\n      swap2\n      swap1\n      tag_138\n      jump\t// in\n    tag_201:\n      0x00\n      mload(0x40)\n      dup1\n      dup4\n      sub\n      dup2\n      0x00\n      dup8\n      gas\n      call\n      iszero\n      dup1\n      iszero\n      tag_203\n      jumpi\n      returndatasize\n      0x00\n      dup1\n      returndatacopy\n      revert(0x00, returndatasize)\n    tag_203:\n      pop\n      pop\n      pop\n      pop\n      mload(0x40)\n      returndatasize\n      0x00\n      dup3\n      returndatacopy\n      returndatasize\n      not(0x1f)\n      0x1f\n      dup3\n      add\n      and\n      dup3\n      add\n      dup1\n      0x40\n      mstore\n      pop\n      dup2\n      add\n      swap1\n      tag_204\n      swap2\n      swap1\n      tag_142\n      jump\t// in\n    tag_204:\n        /* \"Bitxchange.sol\":7502:7624  uint256[] memory amounts = uniswapRouter.swapExactTokensForETH(amount, minAmountOut, path, address(this), block.timestamp) */\n      swap1\n      pop\n        /* \"Bitxchange.sol\":7680:7691  tx.gasprice */\n      gasprice\n        /* \"Bitxchange.sol\":7670:7676  100000 */\n      0x0186a0\n        /* \"Bitxchange.sol\":7657:7666  gasleft() */\n      gas\n        /* \"Bitxchange.sol\":7647:7654  gasCost */\n      dup10\n        /* \"Bitxchange.sol\":7647:7666  gasCost - gasleft() */\n      tag_205\n      swap2\n      swap1\n      tag_156\n      jump\t// in\n    tag_205:\n        /* \"Bitxchange.sol\":7646:7676  (gasCost - gasleft()) + 100000 */\n      tag_206\n      swap2\n      swap1\n      tag_207\n      jump\t// in\n    tag_206:\n        /* \"Bitxchange.sol\":7645:7691  ((gasCost - gasleft()) + 100000) * tx.gasprice */\n      tag_208\n      swap2\n      swap1\n      tag_146\n      jump\t// in\n    tag_208:\n        /* \"Bitxchange.sol\":7635:7691  gasCost = ((gasCost - gasleft()) + 100000) * tx.gasprice */\n      swap7\n      pop\n        /* \"Bitxchange.sol\":7749:7759  msg.sender */\n      caller\n        /* \"Bitxchange.sol\":7741:7769  payable(msg.sender).transfer */\n      0xffffffffffffffffffffffffffffffffffffffff\n      and\n        /* \"Bitxchange.sol\":7741:7778  payable(msg.sender).transfer(gasCost) */\n      0x08fc\n        /* \"Bitxchange.sol\":7770:7777  gasCost */\n      dup9\n        /* \"Bitxchange.sol\":7741:7778  payable(msg.sender).transfer(gasCost) */\n      swap1\n      dup2\n      iszero\n      mul\n      swap1\n      mload(0x40)\n      0x00\n      mload(0x40)\n      dup1\n      dup4\n      sub\n      dup2\n      dup6\n      dup9\n      dup9\n      call\n      swap4\n      pop\n      pop\n      pop\n      pop\n      iszero\n      dup1\n      iszero\n      tag_210\n      jumpi\n      returndatasize\n      0x00\n      dup1\n      returndatacopy\n      revert(0x00, returndatasize)\n    tag_210:\n      pop\n        /* \"Bitxchange.sol\":7791:7810  uint256 receivedETH */\n      0x00\n        /* \"Bitxchange.sol\":7826:7833  gasCost */\n      dup8\n        /* \"Bitxchange.sol\":7813:7820  amounts */\n      dup3\n        /* \"Bitxchange.sol\":7821:7822  1 */\n      0x01\n        /* \"Bitxchange.sol\":7813:7823  amounts[1] */\n      dup2\n      mload\n      dup2\n      lt\n      tag_211\n      jumpi\n      tag_212\n      tag_130\n      jump\t// in\n    tag_212:\n    tag_211:\n      0x20\n      mul\n      0x20\n      add\n      add\n      mload\n        /* \"Bitxchange.sol\":7813:7833  amounts[1] - gasCost */\n      tag_213\n      swap2\n      swap1\n      tag_156\n      jump\t// in\n    tag_213:\n        /* \"Bitxchange.sol\":7791:7833  uint256 receivedETH = amounts[1] - gasCost */\n      swap1\n      pop\n        /* \"Bitxchange.sol\":7906:7925  uint256 feeFreeZone */\n      0x00\n        /* \"Bitxchange.sol\":7948:7960  minAmountOut */\n      dup12\n        /* \"Bitxchange.sol\":7928:7945  expectedAmountOut */\n      dup5\n        /* \"Bitxchange.sol\":7928:7960  expectedAmountOut > minAmountOut */\n      gt\n        /* \"Bitxchange.sol\":7928:7999  expectedAmountOut > minAmountOut ? expectedAmountOut - minAmountOut : 0 */\n      tag_214\n      jumpi\n        /* \"Bitxchange.sol\":7998:7999  0 */\n      0x00\n        /* \"Bitxchange.sol\":7928:7999  expectedAmountOut > minAmountOut ? expectedAmountOut - minAmountOut : 0 */\n      jump(tag_215)\n    tag_214:\n        /* \"Bitxchange.sol\":7983:7995  minAmountOut */\n      dup12\n        /* \"Bitxchange.sol\":7963:7980  expectedAmountOut */\n      dup5\n        /* \"Bitxchange.sol\":7963:7995  expectedAmountOut - minAmountOut */\n      tag_216\n      swap2\n      swap1\n      tag_156\n      jump\t// in\n    tag_216:\n        /* \"Bitxchange.sol\":7928:7999  expectedAmountOut > minAmountOut ? expectedAmountOut - minAmountOut : 0 */\n    tag_215:\n        /* \"Bitxchange.sol\":7906:7999  uint256 feeFreeZone = expectedAmountOut > minAmountOut ? expectedAmountOut - minAmountOut : 0 */\n      swap1\n      pop\n        /* \"Bitxchange.sol\":8010:8030  uint256 excessAmount */\n      0x00\n        /* \"Bitxchange.sol\":8047:8064  expectedAmountOut */\n      dup5\n        /* \"Bitxchange.sol\":8033:8044  receivedETH */\n      dup4\n        /* \"Bitxchange.sol\":8033:8064  receivedETH > expectedAmountOut */\n      gt\n        /* \"Bitxchange.sol\":8033:8102  receivedETH > expectedAmountOut ? receivedETH - expectedAmountOut : 0 */\n      tag_217\n      jumpi\n        /* \"Bitxchange.sol\":8101:8102  0 */\n      0x00\n        /* \"Bitxchange.sol\":8033:8102  receivedETH > expectedAmountOut ? receivedETH - expectedAmountOut : 0 */\n      jump(tag_218)\n    tag_217:\n        /* \"Bitxchange.sol\":8081:8098  expectedAmountOut */\n      dup5\n        /* \"Bitxchange.sol\":8067:8078  receivedETH */\n      dup4\n        /* \"Bitxchange.sol\":8067:8098  receivedETH - expectedAmountOut */\n      tag_219\n      swap2\n      swap1\n      tag_156\n      jump\t// in\n    tag_219:\n        /* \"Bitxchange.sol\":8033:8102  receivedETH > expectedAmountOut ? receivedETH - expectedAmountOut : 0 */\n    tag_218:\n        /* \"Bitxchange.sol\":8010:8102  uint256 excessAmount = receivedETH > expectedAmountOut ? receivedETH - expectedAmountOut : 0 */\n      swap1\n      pop\n        /* \"Bitxchange.sol\":8154:8170  uint256 totalFee */\n      0x00\n        /* \"Bitxchange.sol\":8270:8273  100 */\n      0x64\n        /* \"Bitxchange.sol\":8264:8266  40 */\n      0x28\n        /* \"Bitxchange.sol\":8249:8261  excessAmount */\n      dup4\n        /* \"Bitxchange.sol\":8249:8266  excessAmount * 40 */\n      tag_220\n      swap2\n      swap1\n      tag_146\n      jump\t// in\n    tag_220:\n        /* \"Bitxchange.sol\":8248:8273  (excessAmount * 40) / 100 */\n      tag_221\n      swap2\n      swap1\n      tag_148\n      jump\t// in\n    tag_221:\n        /* \"Bitxchange.sol\":8238:8243  10000 */\n      0x2710\n        /* \"Bitxchange.sol\":8221:8234  feePercentage */\n      sload(0x03)\n        /* \"Bitxchange.sol\":8205:8217  excessAmount */\n      dup5\n        /* \"Bitxchange.sol\":8191:8202  feeFreeZone */\n      dup7\n        /* \"Bitxchange.sol\":8177:8188  receivedETH */\n      dup9\n        /* \"Bitxchange.sol\":8177:8202  receivedETH - feeFreeZone */\n      tag_222\n      swap2\n      swap1\n      tag_156\n      jump\t// in\n    tag_222:\n        /* \"Bitxchange.sol\":8177:8217  receivedETH - feeFreeZone - excessAmount */\n      tag_223\n      swap2\n      swap1\n      tag_156\n      jump\t// in\n    tag_223:\n        /* \"Bitxchange.sol\":8176:8234  (receivedETH - feeFreeZone - excessAmount) * feePercentage */\n      tag_224\n      swap2\n      swap1\n      tag_146\n      jump\t// in\n    tag_224:\n        /* \"Bitxchange.sol\":8175:8243  ((receivedETH - feeFreeZone - excessAmount) * feePercentage) / 10000 */\n      tag_225\n      swap2\n      swap1\n      tag_148\n      jump\t// in\n    tag_225:\n        /* \"Bitxchange.sol\":8173:8273  ( ((receivedETH - feeFreeZone - excessAmount) * feePercentage) / 10000)  + (excessAmount * 40) / 100 */\n      tag_226\n      swap2\n      swap1\n      tag_207\n      jump\t// in\n    tag_226:\n        /* \"Bitxchange.sol\":8154:8273  uint256 totalFee = ( ((receivedETH - feeFreeZone - excessAmount) * feePercentage) / 10000)  + (excessAmount * 40) / 100 */\n      swap1\n      pop\n        /* \"Bitxchange.sol\":8371:8380  rewardPot */\n      0x02\n      0x00\n      swap1\n      sload\n      swap1\n      0x0100\n      exp\n      swap1\n      div\n      0xffffffffffffffffffffffffffffffffffffffff\n      and\n        /* \"Bitxchange.sol\":8371:8395  rewardPot.addToRewardPot */\n      0xffffffffffffffffffffffffffffffffffffffff\n      and\n      0x099da9e9\n        /* \"Bitxchange.sol\":8414:8417  100 */\n      0x64\n        /* \"Bitxchange.sol\":8408:8410  90 */\n      0x5a\n        /* \"Bitxchange.sol\":8397:8405  totalFee */\n      dup5\n        /* \"Bitxchange.sol\":8397:8410  totalFee * 90 */\n      tag_227\n      swap2\n      swap1\n      tag_146\n      jump\t// in\n    tag_227:\n        /* \"Bitxchange.sol\":8396:8417  (totalFee * 90) / 100 */\n      tag_228\n      swap2\n      swap1\n      tag_148\n      jump\t// in\n    tag_228:\n        /* \"Bitxchange.sol\":8371:8418  rewardPot.addToRewardPot((totalFee * 90) / 100) */\n      mload(0x40)\n      dup3\n      0xffffffff\n      and\n      0xe0\n      shl\n      dup2\n      mstore\n      0x04\n      add\n      tag_229\n      swap2\n      swap1\n      tag_42\n      jump\t// in\n    tag_229:\n      0x00\n      mload(0x40)\n      dup1\n      dup4\n      sub\n      dup2\n      0x00\n      dup8\n      dup1\n      extcodesize\n      iszero\n      dup1\n      iszero\n      tag_230\n      jumpi\n      0x00\n      dup1\n      revert\n    tag_230:\n      pop\n      gas\n      call\n      iszero\n      dup1\n      iszero\n      tag_232\n      jumpi\n      returndatasize\n      0x00\n      dup1\n      returndatacopy\n      revert(0x00, returndatasize)\n    tag_232:\n      pop\n      pop\n      pop\n      pop\n        /* \"Bitxchange.sol\":8556:8572  recoveredAddress */\n      dup9\n        /* \"Bitxchange.sol\":8548:8582  payable(recoveredAddress).transfer */\n      0xffffffffffffffffffffffffffffffffffffffff\n      and\n        /* \"Bitxchange.sol\":8548:8606  payable(recoveredAddress).transfer(receivedETH - totalFee) */\n      0x08fc\n        /* \"Bitxchange.sol\":8597:8605  totalFee */\n      dup3\n        /* \"Bitxchange.sol\":8583:8594  receivedETH */\n      dup7\n        /* \"Bitxchange.sol\":8583:8605  receivedETH - totalFee */\n      tag_233\n      swap2\n      swap1\n      tag_156\n      jump\t// in\n    tag_233:\n        /* \"Bitxchange.sol\":8548:8606  payable(recoveredAddress).transfer(receivedETH - totalFee) */\n      swap1\n      dup2\n      iszero\n      mul\n      swap1\n      mload(0x40)\n      0x00\n      mload(0x40)\n      dup1\n      dup4\n      sub\n      dup2\n      dup6\n      dup9\n      dup9\n      call\n      swap4\n      pop\n      pop\n      pop\n      pop\n      iszero\n      dup1\n      iszero\n      tag_235\n      jumpi\n      returndatasize\n      0x00\n      dup1\n      returndatacopy\n      revert(0x00, returndatasize)\n    tag_235:\n      pop\n        /* \"Bitxchange.sol\":8639:8655  recoveredAddress */\n      dup9\n        /* \"Bitxchange.sol\":8624:8669  SwapSuccessful(recoveredAddress, receivedETH) */\n      0xffffffffffffffffffffffffffffffffffffffff\n      and\n      0xf12a93b520e347a9f6fac0d0eadf4603283511a046afe4ce7758c144fcb80065\n        /* \"Bitxchange.sol\":8657:8668  receivedETH */\n      dup6\n        /* \"Bitxchange.sol\":8624:8669  SwapSuccessful(recoveredAddress, receivedETH) */\n      mload(0x40)\n      tag_236\n      swap2\n      swap1\n      tag_42\n      jump\t// in\n    tag_236:\n      mload(0x40)\n      dup1\n      swap2\n      sub\n      swap1\n      log2\n        /* \"Bitxchange.sol\":6118:8687  {... */\n      pop\n      pop\n      pop\n      pop\n      pop\n      pop\n      pop\n      pop\n      pop\n      pop\n      pop\n        /* \"Bitxchange.sol\":5984:8687  function swapTokensForETH(address token, uint256 amount, uint256 minAmountOut, bytes memory signature,uint256 nonce) external payable {... */\n      pop\n      pop\n      pop\n      pop\n      pop\n      jump\t// out\n        /* \"Bitxchange.sol\":854:897  uint256 public estimatedGasForSwap = 321428 */\n    tag_40:\n      sload(0x04)\n      dup2\n      jump\t// out\n        /* \"Bitxchange.sol\":2355:2588  function setRewardPot(address _newRewardPot) external onlyOwner {... */\n    tag_47:\n        /* \"@openzeppelin/contracts/access/Ownable.sol\":1531:1544  _checkOwner() */\n      tag_238\n        /* \"@openzeppelin/contracts/access/Ownable.sol\":1531:1542  _checkOwner */\n      tag_239\n        /* \"@openzeppelin/contracts/access/Ownable.sol\":1531:1544  _checkOwner() */\n      jump\t// in\n    tag_238:\n        /* \"Bitxchange.sol\":2463:2464  0 */\n      0x00\n        /* \"Bitxchange.sol\":2438:2465  _newRewardPot != address(0) */\n      0xffffffffffffffffffffffffffffffffffffffff\n      and\n        /* \"Bitxchange.sol\":2438:2451  _newRewardPot */\n      dup2\n        /* \"Bitxchange.sol\":2438:2465  _newRewardPot != address(0) */\n      0xffffffffffffffffffffffffffffffffffffffff\n      and\n      sub\n        /* \"Bitxchange.sol\":2430:2485  require(_newRewardPot != address(0), \"Invalid address\") */\n      tag_241\n      jumpi\n      mload(0x40)\n      0x08c379a000000000000000000000000000000000000000000000000000000000\n      dup2\n      mstore\n      0x04\n      add\n      tag_242\n      swap1\n      tag_243\n      jump\t// in\n    tag_242:\n      mload(0x40)\n      dup1\n      swap2\n      sub\n      swap1\n      revert\n    tag_241:\n        /* \"Bitxchange.sol\":2519:2532  _newRewardPot */\n      dup1\n        /* \"Bitxchange.sol\":2496:2505  rewardPot */\n      0x02\n      0x00\n        /* \"Bitxchange.sol\":2496:2533  rewardPot = IRewardPot(_newRewardPot) */\n      0x0100\n      exp\n      dup2\n      sload\n      dup2\n      0xffffffffffffffffffffffffffffffffffffffff\n      mul\n      not\n      and\n      swap1\n      dup4\n      0xffffffffffffffffffffffffffffffffffffffff\n      and\n      mul\n      or\n      swap1\n      sstore\n      pop\n        /* \"Bitxchange.sol\":2549:2580  RewardPotUpdated(_newRewardPot) */\n      0xecb9755730c832a50c16ea8001a277be77d816b09dc686fe072d4f2285e5cece\n        /* \"Bitxchange.sol\":2566:2579  _newRewardPot */\n      dup2\n        /* \"Bitxchange.sol\":2549:2580  RewardPotUpdated(_newRewardPot) */\n      mload(0x40)\n      tag_244\n      swap2\n      swap1\n      tag_29\n      jump\t// in\n    tag_244:\n      mload(0x40)\n      dup1\n      swap2\n      sub\n      swap1\n      log1\n        /* \"Bitxchange.sol\":2355:2588  function setRewardPot(address _newRewardPot) external onlyOwner {... */\n      pop\n      jump\t// out\n        /* \"@openzeppelin/contracts/access/Ownable.sol\":2293:2394  function renounceOwnership() public virtual onlyOwner {... */\n    tag_50:\n        /* \"@openzeppelin/contracts/access/Ownable.sol\":1531:1544  _checkOwner() */\n      tag_246\n        /* \"@openzeppelin/contracts/access/Ownable.sol\":1531:1542  _checkOwner */\n      tag_239\n        /* \"@openzeppelin/contracts/access/Ownable.sol\":1531:1544  _checkOwner() */\n      jump\t// in\n    tag_246:\n        /* \"@openzeppelin/contracts/access/Ownable.sol\":2357:2387  _transferOwnership(address(0)) */\n      tag_248\n        /* \"@openzeppelin/contracts/access/Ownable.sol\":2384:2385  0 */\n      0x00\n        /* \"@openzeppelin/contracts/access/Ownable.sol\":2357:2375  _transferOwnership */\n      tag_249\n        /* \"@openzeppelin/contracts/access/Ownable.sol\":2357:2387  _transferOwnership(address(0)) */\n      jump\t// in\n    tag_248:\n        /* \"@openzeppelin/contracts/access/Ownable.sol\":2293:2394  function renounceOwnership() public virtual onlyOwner {... */\n      jump\t// out\n        /* \"Bitxchange.sol\":703:742  IUniswapV2Router02 public uniswapRouter */\n    tag_53:\n      0x01\n      0x00\n      swap1\n      sload\n      swap1\n      0x0100\n      exp\n      swap1\n      div\n      0xffffffffffffffffffffffffffffffffffffffff\n      and\n      dup2\n      jump\t// out\n        /* \"@openzeppelin/contracts/access/Ownable.sol\":1638:1723  function owner() public view virtual returns (address) {... */\n    tag_58:\n        /* \"@openzeppelin/contracts/access/Ownable.sol\":1684:1691  address */\n      0x00\n        /* \"@openzeppelin/contracts/access/Ownable.sol\":1710:1716  _owner */\n      dup1\n      0x00\n      swap1\n      sload\n      swap1\n      0x0100\n      exp\n      swap1\n      div\n      0xffffffffffffffffffffffffffffffffffffffff\n      and\n        /* \"@openzeppelin/contracts/access/Ownable.sol\":1703:1716  return _owner */\n      swap1\n      pop\n        /* \"@openzeppelin/contracts/access/Ownable.sol\":1638:1723  function owner() public view virtual returns (address) {... */\n      swap1\n      jump\t// out\n        /* \"Bitxchange.sol\":749:776  IRewardPot public rewardPot */\n    tag_62:\n      0x02\n      0x00\n      swap1\n      sload\n      swap1\n      0x0100\n      exp\n      swap1\n      div\n      0xffffffffffffffffffffffffffffffffffffffff\n      and\n      dup2\n      jump\t// out\n        /* \"Bitxchange.sol\":1998:2146  function setEstimatedGasForSwap(uint256 _newEstimatedGasForSwap) external onlyOwner {... */\n    tag_69:\n        /* \"@openzeppelin/contracts/access/Ownable.sol\":1531:1544  _checkOwner() */\n      tag_252\n        /* \"@openzeppelin/contracts/access/Ownable.sol\":1531:1542  _checkOwner */\n      tag_239\n        /* \"@openzeppelin/contracts/access/Ownable.sol\":1531:1544  _checkOwner() */\n      jump\t// in\n    tag_252:\n        /* \"Bitxchange.sol\":2115:2138  _newEstimatedGasForSwap */\n      dup1\n        /* \"Bitxchange.sol\":2093:2112  estimatedGasForSwap */\n      0x04\n        /* \"Bitxchange.sol\":2093:2138  estimatedGasForSwap = _newEstimatedGasForSwap */\n      dup2\n      swap1\n      sstore\n      pop\n        /* \"Bitxchange.sol\":1998:2146  function setEstimatedGasForSwap(uint256 _newEstimatedGasForSwap) external onlyOwner {... */\n      pop\n      jump\t// out\n        /* \"Bitxchange.sol\":783:817  uint256 public feePercentage = 750 */\n    tag_72:\n      sload(0x03)\n      dup2\n      jump\t// out\n        /* \"Bitxchange.sol\":4909:5970  function getSwapQuote(address token, uint256 amount, uint256 slippage, uint256 userGasPrice) public view returns (uint256 minAmountOut, uint256 estimatedGasCost, bool canDoSwap) {... */\n    tag_78:\n        /* \"Bitxchange.sol\":5023:5043  uint256 minAmountOut */\n      0x00\n        /* \"Bitxchange.sol\":5045:5069  uint256 estimatedGasCost */\n      dup1\n        /* \"Bitxchange.sol\":5071:5085  bool canDoSwap */\n      0x00\n        /* \"Bitxchange.sol\":5098:5119  address[] memory path */\n      dup1\n        /* \"Bitxchange.sol\":5136:5137  2 */\n      0x02\n        /* \"Bitxchange.sol\":5122:5138  new address[](2) */\n      0xffffffffffffffff\n      dup2\n      gt\n      iszero\n      tag_255\n      jumpi\n      tag_256\n      tag_126\n      jump\t// in\n    tag_256:\n    tag_255:\n      mload(0x40)\n      swap1\n      dup1\n      dup3\n      mstore\n      dup1\n      0x20\n      mul\n      0x20\n      add\n      dup3\n      add\n      0x40\n      mstore\n      dup1\n      iszero\n      tag_257\n      jumpi\n      dup2\n      0x20\n      add\n      0x20\n      dup3\n      mul\n      dup1\n      calldatasize\n      dup4\n      calldatacopy\n      dup1\n      dup3\n      add\n      swap2\n      pop\n      pop\n      swap1\n      pop\n    tag_257:\n      pop\n        /* \"Bitxchange.sol\":5098:5138  address[] memory path = new address[](2) */\n      swap1\n      pop\n        /* \"Bitxchange.sol\":5159:5164  token */\n      dup8\n        /* \"Bitxchange.sol\":5149:5153  path */\n      dup2\n        /* \"Bitxchange.sol\":5154:5155  0 */\n      0x00\n        /* \"Bitxchange.sol\":5149:5156  path[0] */\n      dup2\n      mload\n      dup2\n      lt\n      tag_258\n      jumpi\n      tag_259\n      tag_130\n      jump\t// in\n    tag_259:\n    tag_258:\n      0x20\n      mul\n      0x20\n      add\n      add\n        /* \"Bitxchange.sol\":5149:5164  path[0] = token */\n      swap1\n      0xffffffffffffffffffffffffffffffffffffffff\n      and\n      swap1\n      dup2\n      0xffffffffffffffffffffffffffffffffffffffff\n      and\n      dup2\n      mstore\n      pop\n      pop\n        /* \"Bitxchange.sol\":5185:5198  uniswapRouter */\n      0x01\n      0x00\n      swap1\n      sload\n      swap1\n      0x0100\n      exp\n      swap1\n      div\n      0xffffffffffffffffffffffffffffffffffffffff\n      and\n        /* \"Bitxchange.sol\":5185:5203  uniswapRouter.WETH */\n      0xffffffffffffffffffffffffffffffffffffffff\n      and\n      0xad5c4648\n        /* \"Bitxchange.sol\":5185:5205  uniswapRouter.WETH() */\n      mload(0x40)\n      dup2\n      0xffffffff\n      and\n      0xe0\n      shl\n      dup2\n      mstore\n      0x04\n      add\n      0x20\n      mload(0x40)\n      dup1\n      dup4\n      sub\n      dup2\n      dup7\n      gas\n      staticcall\n      iszero\n      dup1\n      iszero\n      tag_261\n      jumpi\n      returndatasize\n      0x00\n      dup1\n      returndatacopy\n      revert(0x00, returndatasize)\n    tag_261:\n      pop\n      pop\n      pop\n      pop\n      mload(0x40)\n      returndatasize\n      not(0x1f)\n      0x1f\n      dup3\n      add\n      and\n      dup3\n      add\n      dup1\n      0x40\n      mstore\n      pop\n      dup2\n      add\n      swap1\n      tag_262\n      swap2\n      swap1\n      tag_134\n      jump\t// in\n    tag_262:\n        /* \"Bitxchange.sol\":5175:5179  path */\n      dup2\n        /* \"Bitxchange.sol\":5180:5181  1 */\n      0x01\n        /* \"Bitxchange.sol\":5175:5182  path[1] */\n      dup2\n      mload\n      dup2\n      lt\n      tag_263\n      jumpi\n      tag_264\n      tag_130\n      jump\t// in\n    tag_264:\n    tag_263:\n      0x20\n      mul\n      0x20\n      add\n      add\n        /* \"Bitxchange.sol\":5175:5205  path[1] = uniswapRouter.WETH() */\n      swap1\n      0xffffffffffffffffffffffffffffffffffffffff\n      and\n      swap1\n      dup2\n      0xffffffffffffffffffffffffffffffffffffffff\n      and\n      dup2\n      mstore\n      pop\n      pop\n        /* \"Bitxchange.sol\":5297:5309  bool success */\n      0x00\n        /* \"Bitxchange.sol\":5311:5336  uint256 expectedAmountOut */\n      dup1\n        /* \"Bitxchange.sol\":5340:5370  tryGetAmountsOut(amount, path) */\n      tag_265\n        /* \"Bitxchange.sol\":5357:5363  amount */\n      dup10\n        /* \"Bitxchange.sol\":5365:5369  path */\n      dup5\n        /* \"Bitxchange.sol\":5340:5356  tryGetAmountsOut */\n      tag_182\n        /* \"Bitxchange.sol\":5340:5370  tryGetAmountsOut(amount, path) */\n      jump\t// in\n    tag_265:\n        /* \"Bitxchange.sol\":5296:5370  (bool success, uint256 expectedAmountOut) = tryGetAmountsOut(amount, path) */\n      swap2\n      pop\n      swap2\n      pop\n        /* \"Bitxchange.sol\":5389:5396  success */\n      dup2\n        /* \"Bitxchange.sol\":5381:5428  require(success, \"No liquidity for this token\") */\n      tag_266\n      jumpi\n      mload(0x40)\n      0x08c379a000000000000000000000000000000000000000000000000000000000\n      dup2\n      mstore\n      0x04\n      add\n      tag_267\n      swap1\n      tag_268\n      jump\t// in\n    tag_267:\n      mload(0x40)\n      dup1\n      swap2\n      sub\n      swap1\n      revert\n    tag_266:\n        /* \"Bitxchange.sol\":5524:5529  10000 */\n      0x2710\n        /* \"Bitxchange.sol\":5512:5520  slippage */\n      dup9\n        /* \"Bitxchange.sol\":5504:5509  10000 */\n      0x2710\n        /* \"Bitxchange.sol\":5504:5520  10000 - slippage */\n      tag_269\n      swap2\n      swap1\n      tag_156\n      jump\t// in\n    tag_269:\n        /* \"Bitxchange.sol\":5483:5500  expectedAmountOut */\n      dup3\n        /* \"Bitxchange.sol\":5483:5521  expectedAmountOut * (10000 - slippage) */\n      tag_270\n      swap2\n      swap1\n      tag_146\n      jump\t// in\n    tag_270:\n        /* \"Bitxchange.sol\":5483:5529  expectedAmountOut * (10000 - slippage) / 10000 */\n      tag_271\n      swap2\n      swap1\n      tag_148\n      jump\t// in\n    tag_271:\n        /* \"Bitxchange.sol\":5468:5529  minAmountOut = expectedAmountOut * (10000 - slippage) / 10000 */\n      swap6\n      pop\n        /* \"Bitxchange.sol\":5860:5872  userGasPrice */\n      dup7\n        /* \"Bitxchange.sol\":5838:5857  estimatedGasForSwap */\n      sload(0x04)\n        /* \"Bitxchange.sol\":5838:5872  estimatedGasForSwap * userGasPrice */\n      tag_272\n      swap2\n      swap1\n      tag_146\n      jump\t// in\n    tag_272:\n        /* \"Bitxchange.sol\":5819:5872  estimatedGasCost = estimatedGasForSwap * userGasPrice */\n      swap5\n      pop\n        /* \"Bitxchange.sol\":5893:5905  minAmountOut */\n      dup6\n        /* \"Bitxchange.sol\":5907:5923  estimatedGasCost */\n      dup6\n        /* \"Bitxchange.sol\":5925:5961  canSwap(token, amount, userGasPrice) */\n      tag_273\n        /* \"Bitxchange.sol\":5933:5938  token */\n      dup13\n        /* \"Bitxchange.sol\":5940:5946  amount */\n      dup13\n        /* \"Bitxchange.sol\":5948:5960  userGasPrice */\n      dup12\n        /* \"Bitxchange.sol\":5925:5932  canSwap */\n      tag_88\n        /* \"Bitxchange.sol\":5925:5961  canSwap(token, amount, userGasPrice) */\n      jump\t// in\n    tag_273:\n        /* \"Bitxchange.sol\":5885:5962  return (minAmountOut, estimatedGasCost, canSwap(token, amount, userGasPrice)) */\n      swap6\n      pop\n      swap6\n      pop\n      swap6\n      pop\n      pop\n      pop\n      pop\n        /* \"Bitxchange.sol\":4909:5970  function getSwapQuote(address token, uint256 amount, uint256 slippage, uint256 userGasPrice) public view returns (uint256 minAmountOut, uint256 estimatedGasCost, bool canDoSwap) {... */\n      swap5\n      pop\n      swap5\n      pop\n      swap5\n      swap2\n      pop\n      pop\n      jump\t// out\n        /* \"Bitxchange.sol\":1851:1990  function setFeePercentage(uint256 _newFee) external onlyOwner {... */\n    tag_84:\n        /* \"@openzeppelin/contracts/access/Ownable.sol\":1531:1544  _checkOwner() */\n      tag_275\n        /* \"@openzeppelin/contracts/access/Ownable.sol\":1531:1542  _checkOwner */\n      tag_239\n        /* \"@openzeppelin/contracts/access/Ownable.sol\":1531:1544  _checkOwner() */\n      jump\t// in\n    tag_275:\n        /* \"Bitxchange.sol\":1940:1947  _newFee */\n      dup1\n        /* \"Bitxchange.sol\":1924:1937  feePercentage */\n      0x03\n        /* \"Bitxchange.sol\":1924:1947  feePercentage = _newFee */\n      dup2\n      swap1\n      sstore\n      pop\n        /* \"Bitxchange.sol\":1963:1982  FeeUpdated(_newFee) */\n      0x8c4d35e54a3f2ef1134138fd8ea3daee6a3c89e10d2665996babdf70261e2c76\n        /* \"Bitxchange.sol\":1974:1981  _newFee */\n      dup2\n        /* \"Bitxchange.sol\":1963:1982  FeeUpdated(_newFee) */\n      mload(0x40)\n      tag_277\n      swap2\n      swap1\n      tag_42\n      jump\t// in\n    tag_277:\n      mload(0x40)\n      dup1\n      swap2\n      sub\n      swap1\n      log1\n        /* \"Bitxchange.sol\":1851:1990  function setFeePercentage(uint256 _newFee) external onlyOwner {... */\n      pop\n      jump\t// out\n        /* \"Bitxchange.sol\":4199:4901  function canSwap(address token, uint256 amountIn, uint256 userGasPrice) public view returns (bool) {... */\n    tag_88:\n        /* \"Bitxchange.sol\":4292:4296  bool */\n      0x00\n        /* \"Bitxchange.sol\":4309:4330  address[] memory path */\n      dup1\n        /* \"Bitxchange.sol\":4347:4348  2 */\n      0x02\n        /* \"Bitxchange.sol\":4333:4349  new address[](2) */\n      0xffffffffffffffff\n      dup2\n      gt\n      iszero\n      tag_279\n      jumpi\n      tag_280\n      tag_126\n      jump\t// in\n    tag_280:\n    tag_279:\n      mload(0x40)\n      swap1\n      dup1\n      dup3\n      mstore\n      dup1\n      0x20\n      mul\n      0x20\n      add\n      dup3\n      add\n      0x40\n      mstore\n      dup1\n      iszero\n      tag_281\n      jumpi\n      dup2\n      0x20\n      add\n      0x20\n      dup3\n      mul\n      dup1\n      calldatasize\n      dup4\n      calldatacopy\n      dup1\n      dup3\n      add\n      swap2\n      pop\n      pop\n      swap1\n      pop\n    tag_281:\n      pop\n        /* \"Bitxchange.sol\":4309:4349  address[] memory path = new address[](2) */\n      swap1\n      pop\n        /* \"Bitxchange.sol\":4370:4375  token */\n      dup5\n        /* \"Bitxchange.sol\":4360:4364  path */\n      dup2\n        /* \"Bitxchange.sol\":4365:4366  0 */\n      0x00\n        /* \"Bitxchange.sol\":4360:4367  path[0] */\n      dup2\n      mload\n      dup2\n      lt\n      tag_282\n      jumpi\n      tag_283\n      tag_130\n      jump\t// in\n    tag_283:\n    tag_282:\n      0x20\n      mul\n      0x20\n      add\n      add\n        /* \"Bitxchange.sol\":4360:4375  path[0] = token */\n      swap1\n      0xffffffffffffffffffffffffffffffffffffffff\n      and\n      swap1\n      dup2\n      0xffffffffffffffffffffffffffffffffffffffff\n      and\n      dup2\n      mstore\n      pop\n      pop\n        /* \"Bitxchange.sol\":4396:4409  uniswapRouter */\n      0x01\n      0x00\n      swap1\n      sload\n      swap1\n      0x0100\n      exp\n      swap1\n      div\n      0xffffffffffffffffffffffffffffffffffffffff\n      and\n        /* \"Bitxchange.sol\":4396:4414  uniswapRouter.WETH */\n      0xffffffffffffffffffffffffffffffffffffffff\n      and\n      0xad5c4648\n        /* \"Bitxchange.sol\":4396:4416  uniswapRouter.WETH() */\n      mload(0x40)\n      dup2\n      0xffffffff\n      and\n      0xe0\n      shl\n      dup2\n      mstore\n      0x04\n      add\n      0x20\n      mload(0x40)\n      dup1\n      dup4\n      sub\n      dup2\n      dup7\n      gas\n      staticcall\n      iszero\n      dup1\n      iszero\n      tag_285\n      jumpi\n      returndatasize\n      0x00\n      dup1\n      returndatacopy\n      revert(0x00, returndatasize)\n    tag_285:\n      pop\n      pop\n      pop\n      pop\n      mload(0x40)\n      returndatasize\n      not(0x1f)\n      0x1f\n      dup3\n      add\n      and\n      dup3\n      add\n      dup1\n      0x40\n      mstore\n      pop\n      dup2\n      add\n      swap1\n      tag_286\n      swap2\n      swap1\n      tag_134\n      jump\t// in\n    tag_286:\n        /* \"Bitxchange.sol\":4386:4390  path */\n      dup2\n        /* \"Bitxchange.sol\":4391:4392  1 */\n      0x01\n        /* \"Bitxchange.sol\":4386:4393  path[1] */\n      dup2\n      mload\n      dup2\n      lt\n      tag_287\n      jumpi\n      tag_288\n      tag_130\n      jump\t// in\n    tag_288:\n    tag_287:\n      0x20\n      mul\n      0x20\n      add\n      add\n        /* \"Bitxchange.sol\":4386:4416  path[1] = uniswapRouter.WETH() */\n      swap1\n      0xffffffffffffffffffffffffffffffffffffffff\n      and\n      swap1\n      dup2\n      0xffffffffffffffffffffffffffffffffffffffff\n      and\n      dup2\n      mstore\n      pop\n      pop\n        /* \"Bitxchange.sol\":4489:4501  bool success */\n      0x00\n        /* \"Bitxchange.sol\":4503:4520  uint256 amountOut */\n      dup1\n        /* \"Bitxchange.sol\":4524:4556  tryGetAmountsOut(amountIn, path) */\n      tag_289\n        /* \"Bitxchange.sol\":4541:4549  amountIn */\n      dup7\n        /* \"Bitxchange.sol\":4551:4555  path */\n      dup5\n        /* \"Bitxchange.sol\":4524:4540  tryGetAmountsOut */\n      tag_182\n        /* \"Bitxchange.sol\":4524:4556  tryGetAmountsOut(amountIn, path) */\n      jump\t// in\n    tag_289:\n        /* \"Bitxchange.sol\":4488:4556  (bool success, uint256 amountOut) = tryGetAmountsOut(amountIn, path) */\n      swap2\n      pop\n      swap2\n      pop\n        /* \"Bitxchange.sol\":4572:4579  success */\n      dup2\n        /* \"Bitxchange.sol\":4571:4579  !success */\n      iszero\n        /* \"Bitxchange.sol\":4571:4597  !success || amountOut == 0 */\n      dup1\n      tag_290\n      jumpi\n      pop\n        /* \"Bitxchange.sol\":4596:4597  0 */\n      0x00\n        /* \"Bitxchange.sol\":4583:4592  amountOut */\n      dup2\n        /* \"Bitxchange.sol\":4583:4597  amountOut == 0 */\n      eq\n        /* \"Bitxchange.sol\":4571:4597  !success || amountOut == 0 */\n    tag_290:\n        /* \"Bitxchange.sol\":4567:4638  if (!success || amountOut == 0) {... */\n      iszero\n      tag_291\n      jumpi\n        /* \"Bitxchange.sol\":4621:4626  false */\n      0x00\n        /* \"Bitxchange.sol\":4614:4626  return false */\n      swap4\n      pop\n      pop\n      pop\n      pop\n      jump(tag_278)\n        /* \"Bitxchange.sol\":4567:4638  if (!success || amountOut == 0) {... */\n    tag_291:\n        /* \"Bitxchange.sol\":4724:4748  uint256 estimatedGasCost */\n      0x00\n        /* \"Bitxchange.sol\":4773:4785  userGasPrice */\n      dup6\n        /* \"Bitxchange.sol\":4751:4770  estimatedGasForSwap */\n      sload(0x04)\n        /* \"Bitxchange.sol\":4751:4785  estimatedGasForSwap * userGasPrice */\n      tag_292\n      swap2\n      swap1\n      tag_146\n      jump\t// in\n    tag_292:\n        /* \"Bitxchange.sol\":4724:4785  uint256 estimatedGasCost = estimatedGasForSwap * userGasPrice */\n      swap1\n      pop\n        /* \"Bitxchange.sol\":4820:4829  amountOut */\n      dup2\n        /* \"Bitxchange.sol\":4800:4816  estimatedGasCost */\n      dup2\n        /* \"Bitxchange.sol\":4800:4829  estimatedGasCost >= amountOut */\n      lt\n        /* \"Bitxchange.sol\":4796:4870  if (estimatedGasCost >= amountOut) {... */\n      tag_293\n      jumpi\n        /* \"Bitxchange.sol\":4853:4858  false */\n      0x00\n        /* \"Bitxchange.sol\":4846:4858  return false */\n      swap5\n      pop\n      pop\n      pop\n      pop\n      pop\n      jump(tag_278)\n        /* \"Bitxchange.sol\":4796:4870  if (estimatedGasCost >= amountOut) {... */\n    tag_293:\n        /* \"Bitxchange.sol\":4889:4893  true */\n      0x01\n        /* \"Bitxchange.sol\":4882:4893  return true */\n      swap5\n      pop\n      pop\n      pop\n      pop\n      pop\n        /* \"Bitxchange.sol\":4199:4901  function canSwap(address token, uint256 amountIn, uint256 userGasPrice) public view returns (bool) {... */\n    tag_278:\n      swap4\n      swap3\n      pop\n      pop\n      pop\n      jump\t// out\n        /* \"Bitxchange.sol\":2154:2347  function setUniswapRouter(address _newRouter) external onlyOwner {... */\n    tag_94:\n        /* \"@openzeppelin/contracts/access/Ownable.sol\":1531:1544  _checkOwner() */\n      tag_295\n        /* \"@openzeppelin/contracts/access/Ownable.sol\":1531:1542  _checkOwner */\n      tag_239\n        /* \"@openzeppelin/contracts/access/Ownable.sol\":1531:1544  _checkOwner() */\n      jump\t// in\n    tag_295:\n        /* \"Bitxchange.sol\":2260:2261  0 */\n      0x00\n        /* \"Bitxchange.sol\":2238:2262  _newRouter != address(0) */\n      0xffffffffffffffffffffffffffffffffffffffff\n      and\n        /* \"Bitxchange.sol\":2238:2248  _newRouter */\n      dup2\n        /* \"Bitxchange.sol\":2238:2262  _newRouter != address(0) */\n      0xffffffffffffffffffffffffffffffffffffffff\n      and\n      sub\n        /* \"Bitxchange.sol\":2230:2282  require(_newRouter != address(0), \"Invalid address\") */\n      tag_297\n      jumpi\n      mload(0x40)\n      0x08c379a000000000000000000000000000000000000000000000000000000000\n      dup2\n      mstore\n      0x04\n      add\n      tag_298\n      swap1\n      tag_243\n      jump\t// in\n    tag_298:\n      mload(0x40)\n      dup1\n      swap2\n      sub\n      swap1\n      revert\n    tag_297:\n        /* \"Bitxchange.sol\":2328:2338  _newRouter */\n      dup1\n        /* \"Bitxchange.sol\":2293:2306  uniswapRouter */\n      0x01\n      0x00\n        /* \"Bitxchange.sol\":2293:2339  uniswapRouter = IUniswapV2Router02(_newRouter) */\n      0x0100\n      exp\n      dup2\n      sload\n      dup2\n      0xffffffffffffffffffffffffffffffffffffffff\n      mul\n      not\n      and\n      swap1\n      dup4\n      0xffffffffffffffffffffffffffffffffffffffff\n      and\n      mul\n      or\n      swap1\n      sstore\n      pop\n        /* \"Bitxchange.sol\":2154:2347  function setUniswapRouter(address _newRouter) external onlyOwner {... */\n      pop\n      jump\t// out\n        /* \"Bitxchange.sol\":1735:1843  function withdrawETH(uint256 amount) external onlyOwner {... */\n    tag_98:\n        /* \"@openzeppelin/contracts/access/Ownable.sol\":1531:1544  _checkOwner() */\n      tag_300\n        /* \"@openzeppelin/contracts/access/Ownable.sol\":1531:1542  _checkOwner */\n      tag_239\n        /* \"@openzeppelin/contracts/access/Ownable.sol\":1531:1544  _checkOwner() */\n      jump\t// in\n    tag_300:\n        /* \"Bitxchange.sol\":1810:1817  owner() */\n      tag_302\n        /* \"Bitxchange.sol\":1810:1815  owner */\n      tag_58\n        /* \"Bitxchange.sol\":1810:1817  owner() */\n      jump\t// in\n    tag_302:\n        /* \"Bitxchange.sol\":1802:1827  payable(owner()).transfer */\n      0xffffffffffffffffffffffffffffffffffffffff\n      and\n        /* \"Bitxchange.sol\":1802:1835  payable(owner()).transfer(amount) */\n      0x08fc\n        /* \"Bitxchange.sol\":1828:1834  amount */\n      dup3\n        /* \"Bitxchange.sol\":1802:1835  payable(owner()).transfer(amount) */\n      swap1\n      dup2\n      iszero\n      mul\n      swap1\n      mload(0x40)\n      0x00\n      mload(0x40)\n      dup1\n      dup4\n      sub\n      dup2\n      dup6\n      dup9\n      dup9\n      call\n      swap4\n      pop\n      pop\n      pop\n      pop\n      iszero\n      dup1\n      iszero\n      tag_304\n      jumpi\n      returndatasize\n      0x00\n      dup1\n      returndatacopy\n      revert(0x00, returndatasize)\n    tag_304:\n      pop\n        /* \"Bitxchange.sol\":1735:1843  function withdrawETH(uint256 amount) external onlyOwner {... */\n      pop\n      jump\t// out\n        /* \"@openzeppelin/contracts/access/Ownable.sol\":2543:2758  function transferOwnership(address newOwner) public virtual onlyOwner {... */\n    tag_102:\n        /* \"@openzeppelin/contracts/access/Ownable.sol\":1531:1544  _checkOwner() */\n      tag_306\n        /* \"@openzeppelin/contracts/access/Ownable.sol\":1531:1542  _checkOwner */\n      tag_239\n        /* \"@openzeppelin/contracts/access/Ownable.sol\":1531:1544  _checkOwner() */\n      jump\t// in\n    tag_306:\n        /* \"@openzeppelin/contracts/access/Ownable.sol\":2647:2648  0 */\n      0x00\n        /* \"@openzeppelin/contracts/access/Ownable.sol\":2627:2649  newOwner == address(0) */\n      0xffffffffffffffffffffffffffffffffffffffff\n      and\n        /* \"@openzeppelin/contracts/access/Ownable.sol\":2627:2635  newOwner */\n      dup2\n        /* \"@openzeppelin/contracts/access/Ownable.sol\":2627:2649  newOwner == address(0) */\n      0xffffffffffffffffffffffffffffffffffffffff\n      and\n      sub\n        /* \"@openzeppelin/contracts/access/Ownable.sol\":2623:2714  if (newOwner == address(0)) {... */\n      tag_308\n      jumpi\n        /* \"@openzeppelin/contracts/access/Ownable.sol\":2700:2701  0 */\n      0x00\n        /* \"@openzeppelin/contracts/access/Ownable.sol\":2672:2703  OwnableInvalidOwner(address(0)) */\n      mload(0x40)\n      0x1e4fbdf700000000000000000000000000000000000000000000000000000000\n      dup2\n      mstore\n      0x04\n      add\n      tag_309\n      swap2\n      swap1\n      tag_29\n      jump\t// in\n    tag_309:\n      mload(0x40)\n      dup1\n      swap2\n      sub\n      swap1\n      revert\n        /* \"@openzeppelin/contracts/access/Ownable.sol\":2623:2714  if (newOwner == address(0)) {... */\n    tag_308:\n        /* \"@openzeppelin/contracts/access/Ownable.sol\":2723:2751  _transferOwnership(newOwner) */\n      tag_310\n        /* \"@openzeppelin/contracts/access/Ownable.sol\":2742:2750  newOwner */\n      dup2\n        /* \"@openzeppelin/contracts/access/Ownable.sol\":2723:2741  _transferOwnership */\n      tag_249\n        /* \"@openzeppelin/contracts/access/Ownable.sol\":2723:2751  _transferOwnership(newOwner) */\n      jump\t// in\n    tag_310:\n        /* \"@openzeppelin/contracts/access/Ownable.sol\":2543:2758  function transferOwnership(address newOwner) public virtual onlyOwner {... */\n      pop\n      jump\t// out\n        /* \"Bitxchange.sol\":1655:1696  function depositETH() external payable {} */\n    tag_104:\n      jump\t// out\n        /* \"Bitxchange.sol\":3817:4141  function tryGetAmountsOut(uint amountIn, address[] memory path) internal view returns (bool success, uint256 amountOut) {... */\n    tag_182:\n        /* \"Bitxchange.sol\":3904:3916  bool success */\n      0x00\n        /* \"Bitxchange.sol\":3918:3935  uint256 amountOut */\n      dup1\n        /* \"Bitxchange.sol\":3952:3965  uniswapRouter */\n      0x01\n      0x00\n      swap1\n      sload\n      swap1\n      0x0100\n      exp\n      swap1\n      div\n      0xffffffffffffffffffffffffffffffffffffffff\n      and\n        /* \"Bitxchange.sol\":3952:3979  uniswapRouter.getAmountsOut */\n      0xffffffffffffffffffffffffffffffffffffffff\n      and\n      0xd06ca61f\n        /* \"Bitxchange.sol\":3980:3988  amountIn */\n      dup6\n        /* \"Bitxchange.sol\":3990:3994  path */\n      dup6\n        /* \"Bitxchange.sol\":3952:3995  uniswapRouter.getAmountsOut(amountIn, path) */\n      mload(0x40)\n      dup4\n      0xffffffff\n      and\n      0xe0\n      shl\n      dup2\n      mstore\n      0x04\n      add\n      tag_313\n      swap3\n      swap2\n      swap1\n      tag_314\n      jump\t// in\n    tag_313:\n      0x00\n      mload(0x40)\n      dup1\n      dup4\n      sub\n      dup2\n      dup7\n      gas\n      staticcall\n      swap3\n      pop\n      pop\n      pop\n      dup1\n      iszero\n      tag_315\n      jumpi\n      pop\n      mload(0x40)\n      returndatasize\n      0x00\n      dup3\n      returndatacopy\n      returndatasize\n      not(0x1f)\n      0x1f\n      dup3\n      add\n      and\n      dup3\n      add\n      dup1\n      0x40\n      mstore\n      pop\n      dup2\n      add\n      swap1\n      tag_316\n      swap2\n      swap1\n      tag_142\n      jump\t// in\n    tag_316:\n      0x01\n    tag_315:\n        /* \"Bitxchange.sol\":3948:4134  try uniswapRouter.getAmountsOut(amountIn, path) returns (uint256[] memory amounts) {... */\n      tag_317\n      jumpi\n        /* \"Bitxchange.sol\":4113:4118  false */\n      0x00\n        /* \"Bitxchange.sol\":4120:4121  0 */\n      dup1\n        /* \"Bitxchange.sol\":4105:4122  return (false, 0) */\n      swap2\n      pop\n      swap2\n      pop\n      jump(tag_312)\n        /* \"Bitxchange.sol\":3948:4134  try uniswapRouter.getAmountsOut(amountIn, path) returns (uint256[] memory amounts) {... */\n    tag_317:\n        /* \"Bitxchange.sol\":4054:4058  true */\n      0x01\n        /* \"Bitxchange.sol\":4060:4067  amounts */\n      dup2\n        /* \"Bitxchange.sol\":4068:4069  1 */\n      0x01\n        /* \"Bitxchange.sol\":4060:4070  amounts[1] */\n      dup2\n      mload\n      dup2\n      lt\n      tag_322\n      jumpi\n      tag_323\n      tag_130\n      jump\t// in\n    tag_323:\n    tag_322:\n      0x20\n      mul\n      0x20\n      add\n      add\n      mload\n        /* \"Bitxchange.sol\":4046:4071  return (true, amounts[1]) */\n      swap3\n      pop\n      swap3\n      pop\n      pop\n        /* \"Bitxchange.sol\":3817:4141  function tryGetAmountsOut(uint amountIn, address[] memory path) internal view returns (bool success, uint256 amountOut) {... */\n    tag_312:\n      swap3\n      pop\n      swap3\n      swap1\n      pop\n      jump\t// out\n        /* \"@openzeppelin/contracts/access/Ownable.sol\":1796:1958  function _checkOwner() internal view virtual {... */\n    tag_239:\n        /* \"@openzeppelin/contracts/access/Ownable.sol\":1866:1878  _msgSender() */\n      tag_325\n        /* \"@openzeppelin/contracts/access/Ownable.sol\":1866:1876  _msgSender */\n      tag_326\n        /* \"@openzeppelin/contracts/access/Ownable.sol\":1866:1878  _msgSender() */\n      jump\t// in\n    tag_325:\n        /* \"@openzeppelin/contracts/access/Ownable.sol\":1855:1878  owner() != _msgSender() */\n      0xffffffffffffffffffffffffffffffffffffffff\n      and\n        /* \"@openzeppelin/contracts/access/Ownable.sol\":1855:1862  owner() */\n      tag_327\n        /* \"@openzeppelin/contracts/access/Ownable.sol\":1855:1860  owner */\n      tag_58\n        /* \"@openzeppelin/contracts/access/Ownable.sol\":1855:1862  owner() */\n      jump\t// in\n    tag_327:\n        /* \"@openzeppelin/contracts/access/Ownable.sol\":1855:1878  owner() != _msgSender() */\n      0xffffffffffffffffffffffffffffffffffffffff\n      and\n      eq\n        /* \"@openzeppelin/contracts/access/Ownable.sol\":1851:1952  if (owner() != _msgSender()) {... */\n      tag_328\n      jumpi\n        /* \"@openzeppelin/contracts/access/Ownable.sol\":1928:1940  _msgSender() */\n      tag_329\n        /* \"@openzeppelin/contracts/access/Ownable.sol\":1928:1938  _msgSender */\n      tag_326\n        /* \"@openzeppelin/contracts/access/Ownable.sol\":1928:1940  _msgSender() */\n      jump\t// in\n    tag_329:\n        /* \"@openzeppelin/contracts/access/Ownable.sol\":1901:1941  OwnableUnauthorizedAccount(_msgSender()) */\n      mload(0x40)\n      0x118cdaa700000000000000000000000000000000000000000000000000000000\n      dup2\n      mstore\n      0x04\n      add\n      tag_330\n      swap2\n      swap1\n      tag_29\n      jump\t// in\n    tag_330:\n      mload(0x40)\n      dup1\n      swap2\n      sub\n      swap1\n      revert\n        /* \"@openzeppelin/contracts/access/Ownable.sol\":1851:1952  if (owner() != _msgSender()) {... */\n    tag_328:\n        /* \"@openzeppelin/contracts/access/Ownable.sol\":1796:1958  function _checkOwner() internal view virtual {... */\n      jump\t// out\n        /* \"@openzeppelin/contracts/access/Ownable.sol\":2912:3099  function _transferOwnership(address newOwner) internal virtual {... */\n    tag_249:\n        /* \"@openzeppelin/contracts/access/Ownable.sol\":2985:3001  address oldOwner */\n      0x00\n        /* \"@openzeppelin/contracts/access/Ownable.sol\":3004:3010  _owner */\n      dup1\n      0x00\n      swap1\n      sload\n      swap1\n      0x0100\n      exp\n      swap1\n      div\n      0xffffffffffffffffffffffffffffffffffffffff\n      and\n        /* \"@openzeppelin/contracts/access/Ownable.sol\":2985:3010  address oldOwner = _owner */\n      swap1\n      pop\n        /* \"@openzeppelin/contracts/access/Ownable.sol\":3029:3037  newOwner */\n      dup2\n        /* \"@openzeppelin/contracts/access/Ownable.sol\":3020:3026  _owner */\n      0x00\n      dup1\n        /* \"@openzeppelin/contracts/access/Ownable.sol\":3020:3037  _owner = newOwner */\n      0x0100\n      exp\n      dup2\n      sload\n      dup2\n      0xffffffffffffffffffffffffffffffffffffffff\n      mul\n      not\n      and\n      swap1\n      dup4\n      0xffffffffffffffffffffffffffffffffffffffff\n      and\n      mul\n      or\n      swap1\n      sstore\n      pop\n        /* \"@openzeppelin/contracts/access/Ownable.sol\":3083:3091  newOwner */\n      dup2\n        /* \"@openzeppelin/contracts/access/Ownable.sol\":3052:3092  OwnershipTransferred(oldOwner, newOwner) */\n      0xffffffffffffffffffffffffffffffffffffffff\n      and\n        /* \"@openzeppelin/contracts/access/Ownable.sol\":3073:3081  oldOwner */\n      dup2\n        /* \"@openzeppelin/contracts/access/Ownable.sol\":3052:3092  OwnershipTransferred(oldOwner, newOwner) */\n      0xffffffffffffffffffffffffffffffffffffffff\n      and\n      0x8be0079c531659141344cd1fd0a4f28419497f9722a3daafe3b4186f6b6457e0\n      mload(0x40)\n      mload(0x40)\n      dup1\n      swap2\n      sub\n      swap1\n      log3\n        /* \"@openzeppelin/contracts/access/Ownable.sol\":2975:3099  {... */\n      pop\n        /* \"@openzeppelin/contracts/access/Ownable.sol\":2912:3099  function _transferOwnership(address newOwner) internal virtual {... */\n      pop\n      jump\t// out\n        /* \"@openzeppelin/contracts/utils/Context.sol\":656:752  function _msgSender() internal view virtual returns (address) {... */\n    tag_326:\n        /* \"@openzeppelin/contracts/utils/Context.sol\":709:716  address */\n      0x00\n        /* \"@openzeppelin/contracts/utils/Context.sol\":735:745  msg.sender */\n      caller\n        /* \"@openzeppelin/contracts/utils/Context.sol\":728:745  return msg.sender */\n      swap1\n      pop\n        /* \"@openzeppelin/contracts/utils/Context.sol\":656:752  function _msgSender() internal view virtual returns (address) {... */\n      swap1\n      jump\t// out\n        /* \"#utility.yul\":7:82   */\n    tag_333:\n        /* \"#utility.yul\":40:46   */\n      0x00\n        /* \"#utility.yul\":73:75   */\n      0x40\n        /* \"#utility.yul\":67:76   */\n      mload\n        /* \"#utility.yul\":57:76   */\n      swap1\n      pop\n        /* \"#utility.yul\":7:82   */\n      swap1\n      jump\t// out\n        /* \"#utility.yul\":88:205   */\n    tag_334:\n        /* \"#utility.yul\":197:198   */\n      0x00\n        /* \"#utility.yul\":194:195   */\n      dup1\n        /* \"#utility.yul\":187:199   */\n      revert\n        /* \"#utility.yul\":211:328   */\n    tag_335:\n        /* \"#utility.yul\":320:321   */\n      0x00\n        /* \"#utility.yul\":317:318   */\n      dup1\n        /* \"#utility.yul\":310:322   */\n      revert\n        /* \"#utility.yul\":334:411   */\n    tag_336:\n        /* \"#utility.yul\":371:378   */\n      0x00\n        /* \"#utility.yul\":400:405   */\n      dup2\n        /* \"#utility.yul\":389:405   */\n      swap1\n      pop\n        /* \"#utility.yul\":334:411   */\n      swap2\n      swap1\n      pop\n      jump\t// out\n        /* \"#utility.yul\":417:539   */\n    tag_337:\n        /* \"#utility.yul\":490:514   */\n      tag_418\n        /* \"#utility.yul\":508:513   */\n      dup2\n        /* \"#utility.yul\":490:514   */\n      tag_336\n      jump\t// in\n    tag_418:\n        /* \"#utility.yul\":483:488   */\n      dup2\n        /* \"#utility.yul\":480:515   */\n      eq\n        /* \"#utility.yul\":470:533   */\n      tag_419\n      jumpi\n        /* \"#utility.yul\":529:530   */\n      0x00\n        /* \"#utility.yul\":526:527   */\n      dup1\n        /* \"#utility.yul\":519:531   */\n      revert\n        /* \"#utility.yul\":470:533   */\n    tag_419:\n        /* \"#utility.yul\":417:539   */\n      pop\n      jump\t// out\n        /* \"#utility.yul\":545:684   */\n    tag_338:\n        /* \"#utility.yul\":591:596   */\n      0x00\n        /* \"#utility.yul\":629:635   */\n      dup2\n        /* \"#utility.yul\":616:636   */\n      calldataload\n        /* \"#utility.yul\":607:636   */\n      swap1\n      pop\n        /* \"#utility.yul\":645:678   */\n      tag_421\n        /* \"#utility.yul\":672:677   */\n      dup2\n        /* \"#utility.yul\":645:678   */\n      tag_337\n      jump\t// in\n    tag_421:\n        /* \"#utility.yul\":545:684   */\n      swap3\n      swap2\n      pop\n      pop\n      jump\t// out\n        /* \"#utility.yul\":690:807   */\n    tag_339:\n        /* \"#utility.yul\":799:800   */\n      0x00\n        /* \"#utility.yul\":796:797   */\n      dup1\n        /* \"#utility.yul\":789:801   */\n      revert\n        /* \"#utility.yul\":813:930   */\n    tag_340:\n        /* \"#utility.yul\":922:923   */\n      0x00\n        /* \"#utility.yul\":919:920   */\n      dup1\n        /* \"#utility.yul\":912:924   */\n      revert\n        /* \"#utility.yul\":936:1038   */\n    tag_341:\n        /* \"#utility.yul\":977:983   */\n      0x00\n        /* \"#utility.yul\":1028:1030   */\n      0x1f\n        /* \"#utility.yul\":1024:1031   */\n      not\n        /* \"#utility.yul\":1019:1021   */\n      0x1f\n        /* \"#utility.yul\":1012:1017   */\n      dup4\n        /* \"#utility.yul\":1008:1022   */\n      add\n        /* \"#utility.yul\":1004:1032   */\n      and\n        /* \"#utility.yul\":994:1032   */\n      swap1\n      pop\n        /* \"#utility.yul\":936:1038   */\n      swap2\n      swap1\n      pop\n      jump\t// out\n        /* \"#utility.yul\":1044:1224   */\n    tag_126:\n        /* \"#utility.yul\":1092:1169   */\n      0x4e487b7100000000000000000000000000000000000000000000000000000000\n        /* \"#utility.yul\":1089:1090   */\n      0x00\n        /* \"#utility.yul\":1082:1170   */\n      mstore\n        /* \"#utility.yul\":1189:1193   */\n      0x41\n        /* \"#utility.yul\":1186:1187   */\n      0x04\n        /* \"#utility.yul\":1179:1194   */\n      mstore\n        /* \"#utility.yul\":1213:1217   */\n      0x24\n        /* \"#utility.yul\":1210:1211   */\n      0x00\n        /* \"#utility.yul\":1203:1218   */\n      revert\n        /* \"#utility.yul\":1230:1511   */\n    tag_342:\n        /* \"#utility.yul\":1313:1340   */\n      tag_427\n        /* \"#utility.yul\":1335:1339   */\n      dup3\n        /* \"#utility.yul\":1313:1340   */\n      tag_341\n      jump\t// in\n    tag_427:\n        /* \"#utility.yul\":1305:1311   */\n      dup2\n        /* \"#utility.yul\":1301:1341   */\n      add\n        /* \"#utility.yul\":1443:1449   */\n      dup2\n        /* \"#utility.yul\":1431:1441   */\n      dup2\n        /* \"#utility.yul\":1428:1450   */\n      lt\n        /* \"#utility.yul\":1407:1425   */\n      0xffffffffffffffff\n        /* \"#utility.yul\":1395:1405   */\n      dup3\n        /* \"#utility.yul\":1392:1426   */\n      gt\n        /* \"#utility.yul\":1389:1451   */\n      or\n        /* \"#utility.yul\":1386:1474   */\n      iszero\n      tag_428\n      jumpi\n        /* \"#utility.yul\":1454:1472   */\n      tag_429\n      tag_126\n      jump\t// in\n    tag_429:\n        /* \"#utility.yul\":1386:1474   */\n    tag_428:\n        /* \"#utility.yul\":1494:1504   */\n      dup1\n        /* \"#utility.yul\":1490:1492   */\n      0x40\n        /* \"#utility.yul\":1483:1505   */\n      mstore\n        /* \"#utility.yul\":1273:1511   */\n      pop\n        /* \"#utility.yul\":1230:1511   */\n      pop\n      pop\n      jump\t// out\n        /* \"#utility.yul\":1517:1646   */\n    tag_343:\n        /* \"#utility.yul\":1551:1557   */\n      0x00\n        /* \"#utility.yul\":1578:1598   */\n      tag_431\n      tag_333\n      jump\t// in\n    tag_431:\n        /* \"#utility.yul\":1568:1598   */\n      swap1\n      pop\n        /* \"#utility.yul\":1607:1640   */\n      tag_432\n        /* \"#utility.yul\":1635:1639   */\n      dup3\n        /* \"#utility.yul\":1627:1633   */\n      dup3\n        /* \"#utility.yul\":1607:1640   */\n      tag_342\n      jump\t// in\n    tag_432:\n        /* \"#utility.yul\":1517:1646   */\n      swap2\n      swap1\n      pop\n      jump\t// out\n        /* \"#utility.yul\":1652:1959   */\n    tag_344:\n        /* \"#utility.yul\":1713:1717   */\n      0x00\n        /* \"#utility.yul\":1803:1821   */\n      0xffffffffffffffff\n        /* \"#utility.yul\":1795:1801   */\n      dup3\n        /* \"#utility.yul\":1792:1822   */\n      gt\n        /* \"#utility.yul\":1789:1845   */\n      iszero\n      tag_434\n      jumpi\n        /* \"#utility.yul\":1825:1843   */\n      tag_435\n      tag_126\n      jump\t// in\n    tag_435:\n        /* \"#utility.yul\":1789:1845   */\n    tag_434:\n        /* \"#utility.yul\":1863:1892   */\n      tag_436\n        /* \"#utility.yul\":1885:1891   */\n      dup3\n        /* \"#utility.yul\":1863:1892   */\n      tag_341\n      jump\t// in\n    tag_436:\n        /* \"#utility.yul\":1855:1892   */\n      swap1\n      pop\n        /* \"#utility.yul\":1947:1951   */\n      0x20\n        /* \"#utility.yul\":1941:1945   */\n      dup2\n        /* \"#utility.yul\":1937:1952   */\n      add\n        /* \"#utility.yul\":1929:1952   */\n      swap1\n      pop\n        /* \"#utility.yul\":1652:1959   */\n      swap2\n      swap1\n      pop\n      jump\t// out\n        /* \"#utility.yul\":1965:2111   */\n    tag_345:\n        /* \"#utility.yul\":2062:2068   */\n      dup3\n        /* \"#utility.yul\":2057:2060   */\n      dup2\n        /* \"#utility.yul\":2052:2055   */\n      dup4\n        /* \"#utility.yul\":2039:2069   */\n      calldatacopy\n        /* \"#utility.yul\":2103:2104   */\n      0x00\n        /* \"#utility.yul\":2094:2100   */\n      dup4\n        /* \"#utility.yul\":2089:2092   */\n      dup4\n        /* \"#utility.yul\":2085:2101   */\n      add\n        /* \"#utility.yul\":2078:2105   */\n      mstore\n        /* \"#utility.yul\":1965:2111   */\n      pop\n      pop\n      pop\n      jump\t// out\n        /* \"#utility.yul\":2117:2540   */\n    tag_346:\n        /* \"#utility.yul\":2194:2199   */\n      0x00\n        /* \"#utility.yul\":2219:2284   */\n      tag_439\n        /* \"#utility.yul\":2235:2283   */\n      tag_440\n        /* \"#utility.yul\":2276:2282   */\n      dup5\n        /* \"#utility.yul\":2235:2283   */\n      tag_344\n      jump\t// in\n    tag_440:\n        /* \"#utility.yul\":2219:2284   */\n      tag_343\n      jump\t// in\n    tag_439:\n        /* \"#utility.yul\":2210:2284   */\n      swap1\n      pop\n        /* \"#utility.yul\":2307:2313   */\n      dup3\n        /* \"#utility.yul\":2300:2305   */\n      dup2\n        /* \"#utility.yul\":2293:2314   */\n      mstore\n        /* \"#utility.yul\":2345:2349   */\n      0x20\n        /* \"#utility.yul\":2338:2343   */\n      dup2\n        /* \"#utility.yul\":2334:2350   */\n      add\n        /* \"#utility.yul\":2383:2386   */\n      dup5\n        /* \"#utility.yul\":2374:2380   */\n      dup5\n        /* \"#utility.yul\":2369:2372   */\n      dup5\n        /* \"#utility.yul\":2365:2381   */\n      add\n        /* \"#utility.yul\":2362:2387   */\n      gt\n        /* \"#utility.yul\":2359:2471   */\n      iszero\n      tag_441\n      jumpi\n        /* \"#utility.yul\":2390:2469   */\n      tag_442\n      tag_340\n      jump\t// in\n    tag_442:\n        /* \"#utility.yul\":2359:2471   */\n    tag_441:\n        /* \"#utility.yul\":2480:2534   */\n      tag_443\n        /* \"#utility.yul\":2527:2533   */\n      dup5\n        /* \"#utility.yul\":2522:2525   */\n      dup3\n        /* \"#utility.yul\":2517:2520   */\n      dup6\n        /* \"#utility.yul\":2480:2534   */\n      tag_345\n      jump\t// in\n    tag_443:\n        /* \"#utility.yul\":2200:2540   */\n      pop\n        /* \"#utility.yul\":2117:2540   */\n      swap4\n      swap3\n      pop\n      pop\n      pop\n      jump\t// out\n        /* \"#utility.yul\":2559:2897   */\n    tag_347:\n        /* \"#utility.yul\":2614:2619   */\n      0x00\n        /* \"#utility.yul\":2663:2666   */\n      dup3\n        /* \"#utility.yul\":2656:2660   */\n      0x1f\n        /* \"#utility.yul\":2648:2654   */\n      dup4\n        /* \"#utility.yul\":2644:2661   */\n      add\n        /* \"#utility.yul\":2640:2667   */\n      slt\n        /* \"#utility.yul\":2630:2752   */\n      tag_445\n      jumpi\n        /* \"#utility.yul\":2671:2750   */\n      tag_446\n      tag_339\n      jump\t// in\n    tag_446:\n        /* \"#utility.yul\":2630:2752   */\n    tag_445:\n        /* \"#utility.yul\":2788:2794   */\n      dup2\n        /* \"#utility.yul\":2775:2795   */\n      calldataload\n        /* \"#utility.yul\":2813:2891   */\n      tag_447\n        /* \"#utility.yul\":2887:2890   */\n      dup5\n        /* \"#utility.yul\":2879:2885   */\n      dup3\n        /* \"#utility.yul\":2872:2876   */\n      0x20\n        /* \"#utility.yul\":2864:2870   */\n      dup7\n        /* \"#utility.yul\":2860:2877   */\n      add\n        /* \"#utility.yul\":2813:2891   */\n      tag_346\n      jump\t// in\n    tag_447:\n        /* \"#utility.yul\":2804:2891   */\n      swap2\n      pop\n        /* \"#utility.yul\":2620:2897   */\n      pop\n        /* \"#utility.yul\":2559:2897   */\n      swap3\n      swap2\n      pop\n      pop\n      jump\t// out\n        /* \"#utility.yul\":2903:3555   */\n    tag_26:\n        /* \"#utility.yul\":2980:2986   */\n      0x00\n        /* \"#utility.yul\":2988:2994   */\n      dup1\n        /* \"#utility.yul\":3037:3039   */\n      0x40\n        /* \"#utility.yul\":3025:3034   */\n      dup4\n        /* \"#utility.yul\":3016:3023   */\n      dup6\n        /* \"#utility.yul\":3012:3035   */\n      sub\n        /* \"#utility.yul\":3008:3040   */\n      slt\n        /* \"#utility.yul\":3005:3124   */\n      iszero\n      tag_449\n      jumpi\n        /* \"#utility.yul\":3043:3122   */\n      tag_450\n      tag_334\n      jump\t// in\n    tag_450:\n        /* \"#utility.yul\":3005:3124   */\n    tag_449:\n        /* \"#utility.yul\":3163:3164   */\n      0x00\n        /* \"#utility.yul\":3188:3241   */\n      tag_451\n        /* \"#utility.yul\":3233:3240   */\n      dup6\n        /* \"#utility.yul\":3224:3230   */\n      dup3\n        /* \"#utility.yul\":3213:3222   */\n      dup7\n        /* \"#utility.yul\":3209:3231   */\n      add\n        /* \"#utility.yul\":3188:3241   */\n      tag_338\n      jump\t// in\n    tag_451:\n        /* \"#utility.yul\":3178:3241   */\n      swap3\n      pop\n        /* \"#utility.yul\":3134:3251   */\n      pop\n        /* \"#utility.yul\":3318:3320   */\n      0x20\n        /* \"#utility.yul\":3307:3316   */\n      dup4\n        /* \"#utility.yul\":3303:3321   */\n      add\n        /* \"#utility.yul\":3290:3322   */\n      calldataload\n        /* \"#utility.yul\":3349:3367   */\n      0xffffffffffffffff\n        /* \"#utility.yul\":3341:3347   */\n      dup2\n        /* \"#utility.yul\":3338:3368   */\n      gt\n        /* \"#utility.yul\":3335:3452   */\n      iszero\n      tag_452\n      jumpi\n        /* \"#utility.yul\":3371:3450   */\n      tag_453\n      tag_335\n      jump\t// in\n    tag_453:\n        /* \"#utility.yul\":3335:3452   */\n    tag_452:\n        /* \"#utility.yul\":3476:3538   */\n      tag_454\n        /* \"#utility.yul\":3530:3537   */\n      dup6\n        /* \"#utility.yul\":3521:3527   */\n      dup3\n        /* \"#utility.yul\":3510:3519   */\n      dup7\n        /* \"#utility.yul\":3506:3528   */\n      add\n        /* \"#utility.yul\":3476:3538   */\n      tag_347\n      jump\t// in\n    tag_454:\n        /* \"#utility.yul\":3466:3538   */\n      swap2\n      pop\n        /* \"#utility.yul\":3261:3548   */\n      pop\n        /* \"#utility.yul\":2903:3555   */\n      swap3\n      pop\n      swap3\n      swap1\n      pop\n      jump\t// out\n        /* \"#utility.yul\":3561:3687   */\n    tag_348:\n        /* \"#utility.yul\":3598:3605   */\n      0x00\n        /* \"#utility.yul\":3638:3680   */\n      0xffffffffffffffffffffffffffffffffffffffff\n        /* \"#utility.yul\":3631:3636   */\n      dup3\n        /* \"#utility.yul\":3627:3681   */\n      and\n        /* \"#utility.yul\":3616:3681   */\n      swap1\n      pop\n        /* \"#utility.yul\":3561:3687   */\n      swap2\n      swap1\n      pop\n      jump\t// out\n        /* \"#utility.yul\":3693:3789   */\n    tag_349:\n        /* \"#utility.yul\":3730:3737   */\n      0x00\n        /* \"#utility.yul\":3759:3783   */\n      tag_457\n        /* \"#utility.yul\":3777:3782   */\n      dup3\n        /* \"#utility.yul\":3759:3783   */\n      tag_348\n      jump\t// in\n    tag_457:\n        /* \"#utility.yul\":3748:3783   */\n      swap1\n      pop\n        /* \"#utility.yul\":3693:3789   */\n      swap2\n      swap1\n      pop\n      jump\t// out\n        /* \"#utility.yul\":3795:3913   */\n    tag_350:\n        /* \"#utility.yul\":3882:3906   */\n      tag_459\n        /* \"#utility.yul\":3900:3905   */\n      dup2\n        /* \"#utility.yul\":3882:3906   */\n      tag_349\n      jump\t// in\n    tag_459:\n        /* \"#utility.yul\":3877:3880   */\n      dup3\n        /* \"#utility.yul\":3870:3907   */\n      mstore\n        /* \"#utility.yul\":3795:3913   */\n      pop\n      pop\n      jump\t// out\n        /* \"#utility.yul\":3919:4141   */\n    tag_29:\n        /* \"#utility.yul\":4012:4016   */\n      0x00\n        /* \"#utility.yul\":4050:4052   */\n      0x20\n        /* \"#utility.yul\":4039:4048   */\n      dup3\n        /* \"#utility.yul\":4035:4053   */\n      add\n        /* \"#utility.yul\":4027:4053   */\n      swap1\n      pop\n        /* \"#utility.yul\":4063:4134   */\n      tag_461\n        /* \"#utility.yul\":4131:4132   */\n      0x00\n        /* \"#utility.yul\":4120:4129   */\n      dup4\n        /* \"#utility.yul\":4116:4133   */\n      add\n        /* \"#utility.yul\":4107:4113   */\n      dup5\n        /* \"#utility.yul\":4063:4134   */\n      tag_350\n      jump\t// in\n    tag_461:\n        /* \"#utility.yul\":3919:4141   */\n      swap3\n      swap2\n      pop\n      pop\n      jump\t// out\n        /* \"#utility.yul\":4147:4269   */\n    tag_351:\n        /* \"#utility.yul\":4220:4244   */\n      tag_463\n        /* \"#utility.yul\":4238:4243   */\n      dup2\n        /* \"#utility.yul\":4220:4244   */\n      tag_349\n      jump\t// in\n    tag_463:\n        /* \"#utility.yul\":4213:4218   */\n      dup2\n        /* \"#utility.yul\":4210:4245   */\n      eq\n        /* \"#utility.yul\":4200:4263   */\n      tag_464\n      jumpi\n        /* \"#utility.yul\":4259:4260   */\n      0x00\n        /* \"#utility.yul\":4256:4257   */\n      dup1\n        /* \"#utility.yul\":4249:4261   */\n      revert\n        /* \"#utility.yul\":4200:4263   */\n    tag_464:\n        /* \"#utility.yul\":4147:4269   */\n      pop\n      jump\t// out\n        /* \"#utility.yul\":4275:4414   */\n    tag_352:\n        /* \"#utility.yul\":4321:4326   */\n      0x00\n        /* \"#utility.yul\":4359:4365   */\n      dup2\n        /* \"#utility.yul\":4346:4366   */\n      calldataload\n        /* \"#utility.yul\":4337:4366   */\n      swap1\n      pop\n        /* \"#utility.yul\":4375:4408   */\n      tag_466\n        /* \"#utility.yul\":4402:4407   */\n      dup2\n        /* \"#utility.yul\":4375:4408   */\n      tag_351\n      jump\t// in\n    tag_466:\n        /* \"#utility.yul\":4275:4414   */\n      swap3\n      swap2\n      pop\n      pop\n      jump\t// out\n        /* \"#utility.yul\":4420:4497   */\n    tag_353:\n        /* \"#utility.yul\":4457:4464   */\n      0x00\n        /* \"#utility.yul\":4486:4491   */\n      dup2\n        /* \"#utility.yul\":4475:4491   */\n      swap1\n      pop\n        /* \"#utility.yul\":4420:4497   */\n      swap2\n      swap1\n      pop\n      jump\t// out\n        /* \"#utility.yul\":4503:4625   */\n    tag_354:\n        /* \"#utility.yul\":4576:4600   */\n      tag_469\n        /* \"#utility.yul\":4594:4599   */\n      dup2\n        /* \"#utility.yul\":4576:4600   */\n      tag_353\n      jump\t// in\n    tag_469:\n        /* \"#utility.yul\":4569:4574   */\n      dup2\n        /* \"#utility.yul\":4566:4601   */\n      eq\n        /* \"#utility.yul\":4556:4619   */\n      tag_470\n      jumpi\n        /* \"#utility.yul\":4615:4616   */\n      0x00\n        /* \"#utility.yul\":4612:4613   */\n      dup1\n        /* \"#utility.yul\":4605:4617   */\n      revert\n        /* \"#utility.yul\":4556:4619   */\n    tag_470:\n        /* \"#utility.yul\":4503:4625   */\n      pop\n      jump\t// out\n        /* \"#utility.yul\":4631:4770   */\n    tag_355:\n        /* \"#utility.yul\":4677:4682   */\n      0x00\n        /* \"#utility.yul\":4715:4721   */\n      dup2\n        /* \"#utility.yul\":4702:4722   */\n      calldataload\n        /* \"#utility.yul\":4693:4722   */\n      swap1\n      pop\n        /* \"#utility.yul\":4731:4764   */\n      tag_472\n        /* \"#utility.yul\":4758:4763   */\n      dup2\n        /* \"#utility.yul\":4731:4764   */\n      tag_354\n      jump\t// in\n    tag_472:\n        /* \"#utility.yul\":4631:4770   */\n      swap3\n      swap2\n      pop\n      pop\n      jump\t// out\n        /* \"#utility.yul\":4776:5395   */\n    tag_32:\n        /* \"#utility.yul\":4853:4859   */\n      0x00\n        /* \"#utility.yul\":4861:4867   */\n      dup1\n        /* \"#utility.yul\":4869:4875   */\n      0x00\n        /* \"#utility.yul\":4918:4920   */\n      0x60\n        /* \"#utility.yul\":4906:4915   */\n      dup5\n        /* \"#utility.yul\":4897:4904   */\n      dup7\n        /* \"#utility.yul\":4893:4916   */\n      sub\n        /* \"#utility.yul\":4889:4921   */\n      slt\n        /* \"#utility.yul\":4886:5005   */\n      iszero\n      tag_474\n      jumpi\n        /* \"#utility.yul\":4924:5003   */\n      tag_475\n      tag_334\n      jump\t// in\n    tag_475:\n        /* \"#utility.yul\":4886:5005   */\n    tag_474:\n        /* \"#utility.yul\":5044:5045   */\n      0x00\n        /* \"#utility.yul\":5069:5122   */\n      tag_476\n        /* \"#utility.yul\":5114:5121   */\n      dup7\n        /* \"#utility.yul\":5105:5111   */\n      dup3\n        /* \"#utility.yul\":5094:5103   */\n      dup8\n        /* \"#utility.yul\":5090:5112   */\n      add\n        /* \"#utility.yul\":5069:5122   */\n      tag_352\n      jump\t// in\n    tag_476:\n        /* \"#utility.yul\":5059:5122   */\n      swap4\n      pop\n        /* \"#utility.yul\":5015:5132   */\n      pop\n        /* \"#utility.yul\":5171:5173   */\n      0x20\n        /* \"#utility.yul\":5197:5250   */\n      tag_477\n        /* \"#utility.yul\":5242:5249   */\n      dup7\n        /* \"#utility.yul\":5233:5239   */\n      dup3\n        /* \"#utility.yul\":5222:5231   */\n      dup8\n        /* \"#utility.yul\":5218:5240   */\n      add\n        /* \"#utility.yul\":5197:5250   */\n      tag_355\n      jump\t// in\n    tag_477:\n        /* \"#utility.yul\":5187:5250   */\n      swap3\n      pop\n        /* \"#utility.yul\":5142:5260   */\n      pop\n        /* \"#utility.yul\":5299:5301   */\n      0x40\n        /* \"#utility.yul\":5325:5378   */\n      tag_478\n        /* \"#utility.yul\":5370:5377   */\n      dup7\n        /* \"#utility.yul\":5361:5367   */\n      dup3\n        /* \"#utility.yul\":5350:5359   */\n      dup8\n        /* \"#utility.yul\":5346:5368   */\n      add\n        /* \"#utility.yul\":5325:5378   */\n      tag_355\n      jump\t// in\n    tag_478:\n        /* \"#utility.yul\":5315:5378   */\n      swap2\n      pop\n        /* \"#utility.yul\":5270:5388   */\n      pop\n        /* \"#utility.yul\":4776:5395   */\n      swap3\n      pop\n      swap3\n      pop\n      swap3\n      jump\t// out\n        /* \"#utility.yul\":5401:6490   */\n    tag_36:\n        /* \"#utility.yul\":5505:5511   */\n      0x00\n        /* \"#utility.yul\":5513:5519   */\n      dup1\n        /* \"#utility.yul\":5521:5527   */\n      0x00\n        /* \"#utility.yul\":5529:5535   */\n      dup1\n        /* \"#utility.yul\":5537:5543   */\n      0x00\n        /* \"#utility.yul\":5586:5589   */\n      0xa0\n        /* \"#utility.yul\":5574:5583   */\n      dup7\n        /* \"#utility.yul\":5565:5572   */\n      dup9\n        /* \"#utility.yul\":5561:5584   */\n      sub\n        /* \"#utility.yul\":5557:5590   */\n      slt\n        /* \"#utility.yul\":5554:5674   */\n      iszero\n      tag_480\n      jumpi\n        /* \"#utility.yul\":5593:5672   */\n      tag_481\n      tag_334\n      jump\t// in\n    tag_481:\n        /* \"#utility.yul\":5554:5674   */\n    tag_480:\n        /* \"#utility.yul\":5713:5714   */\n      0x00\n        /* \"#utility.yul\":5738:5791   */\n      tag_482\n        /* \"#utility.yul\":5783:5790   */\n      dup9\n        /* \"#utility.yul\":5774:5780   */\n      dup3\n        /* \"#utility.yul\":5763:5772   */\n      dup10\n        /* \"#utility.yul\":5759:5781   */\n      add\n        /* \"#utility.yul\":5738:5791   */\n      tag_352\n      jump\t// in\n    tag_482:\n        /* \"#utility.yul\":5728:5791   */\n      swap6\n      pop\n        /* \"#utility.yul\":5684:5801   */\n      pop\n        /* \"#utility.yul\":5840:5842   */\n      0x20\n        /* \"#utility.yul\":5866:5919   */\n      tag_483\n        /* \"#utility.yul\":5911:5918   */\n      dup9\n        /* \"#utility.yul\":5902:5908   */\n      dup3\n        /* \"#utility.yul\":5891:5900   */\n      dup10\n        /* \"#utility.yul\":5887:5909   */\n      add\n        /* \"#utility.yul\":5866:5919   */\n      tag_355\n      jump\t// in\n    tag_483:\n        /* \"#utility.yul\":5856:5919   */\n      swap5\n      pop\n        /* \"#utility.yul\":5811:5929   */\n      pop\n        /* \"#utility.yul\":5968:5970   */\n      0x40\n        /* \"#utility.yul\":5994:6047   */\n      tag_484\n        /* \"#utility.yul\":6039:6046   */\n      dup9\n        /* \"#utility.yul\":6030:6036   */\n      dup3\n        /* \"#utility.yul\":6019:6028   */\n      dup10\n        /* \"#utility.yul\":6015:6037   */\n      add\n        /* \"#utility.yul\":5994:6047   */\n      tag_355\n      jump\t// in\n    tag_484:\n        /* \"#utility.yul\":5984:6047   */\n      swap4\n      pop\n        /* \"#utility.yul\":5939:6057   */\n      pop\n        /* \"#utility.yul\":6124:6126   */\n      0x60\n        /* \"#utility.yul\":6113:6122   */\n      dup7\n        /* \"#utility.yul\":6109:6127   */\n      add\n        /* \"#utility.yul\":6096:6128   */\n      calldataload\n        /* \"#utility.yul\":6155:6173   */\n      0xffffffffffffffff\n        /* \"#utility.yul\":6147:6153   */\n      dup2\n        /* \"#utility.yul\":6144:6174   */\n      gt\n        /* \"#utility.yul\":6141:6258   */\n      iszero\n      tag_485\n      jumpi\n        /* \"#utility.yul\":6177:6256   */\n      tag_486\n      tag_335\n      jump\t// in\n    tag_486:\n        /* \"#utility.yul\":6141:6258   */\n    tag_485:\n        /* \"#utility.yul\":6282:6344   */\n      tag_487\n        /* \"#utility.yul\":6336:6343   */\n      dup9\n        /* \"#utility.yul\":6327:6333   */\n      dup3\n        /* \"#utility.yul\":6316:6325   */\n      dup10\n        /* \"#utility.yul\":6312:6334   */\n      add\n        /* \"#utility.yul\":6282:6344   */\n      tag_347\n      jump\t// in\n    tag_487:\n        /* \"#utility.yul\":6272:6344   */\n      swap3\n      pop\n        /* \"#utility.yul\":6067:6354   */\n      pop\n        /* \"#utility.yul\":6393:6396   */\n      0x80\n        /* \"#utility.yul\":6420:6473   */\n      tag_488\n        /* \"#utility.yul\":6465:6472   */\n      dup9\n        /* \"#utility.yul\":6456:6462   */\n      dup3\n        /* \"#utility.yul\":6445:6454   */\n      dup10\n        /* \"#utility.yul\":6441:6463   */\n      add\n        /* \"#utility.yul\":6420:6473   */\n      tag_355\n      jump\t// in\n    tag_488:\n        /* \"#utility.yul\":6410:6473   */\n      swap2\n      pop\n        /* \"#utility.yul\":6364:6483   */\n      pop\n        /* \"#utility.yul\":5401:6490   */\n      swap3\n      swap6\n      pop\n      swap3\n      swap6\n      swap1\n      swap4\n      pop\n      jump\t// out\n        /* \"#utility.yul\":6496:6614   */\n    tag_356:\n        /* \"#utility.yul\":6583:6607   */\n      tag_490\n        /* \"#utility.yul\":6601:6606   */\n      dup2\n        /* \"#utility.yul\":6583:6607   */\n      tag_353\n      jump\t// in\n    tag_490:\n        /* \"#utility.yul\":6578:6581   */\n      dup3\n        /* \"#utility.yul\":6571:6608   */\n      mstore\n        /* \"#utility.yul\":6496:6614   */\n      pop\n      pop\n      jump\t// out\n        /* \"#utility.yul\":6620:6842   */\n    tag_42:\n        /* \"#utility.yul\":6713:6717   */\n      0x00\n        /* \"#utility.yul\":6751:6753   */\n      0x20\n        /* \"#utility.yul\":6740:6749   */\n      dup3\n        /* \"#utility.yul\":6736:6754   */\n      add\n        /* \"#utility.yul\":6728:6754   */\n      swap1\n      pop\n        /* \"#utility.yul\":6764:6835   */\n      tag_492\n        /* \"#utility.yul\":6832:6833   */\n      0x00\n        /* \"#utility.yul\":6821:6830   */\n      dup4\n        /* \"#utility.yul\":6817:6834   */\n      add\n        /* \"#utility.yul\":6808:6814   */\n      dup5\n        /* \"#utility.yul\":6764:6835   */\n      tag_356\n      jump\t// in\n    tag_492:\n        /* \"#utility.yul\":6620:6842   */\n      swap3\n      swap2\n      pop\n      pop\n      jump\t// out\n        /* \"#utility.yul\":6848:7177   */\n    tag_46:\n        /* \"#utility.yul\":6907:6913   */\n      0x00\n        /* \"#utility.yul\":6956:6958   */\n      0x20\n        /* \"#utility.yul\":6944:6953   */\n      dup3\n        /* \"#utility.yul\":6935:6942   */\n      dup5\n        /* \"#utility.yul\":6931:6954   */\n      sub\n        /* \"#utility.yul\":6927:6959   */\n      slt\n        /* \"#utility.yul\":6924:7043   */\n      iszero\n      tag_494\n      jumpi\n        /* \"#utility.yul\":6962:7041   */\n      tag_495\n      tag_334\n      jump\t// in\n    tag_495:\n        /* \"#utility.yul\":6924:7043   */\n    tag_494:\n        /* \"#utility.yul\":7082:7083   */\n      0x00\n        /* \"#utility.yul\":7107:7160   */\n      tag_496\n        /* \"#utility.yul\":7152:7159   */\n      dup5\n        /* \"#utility.yul\":7143:7149   */\n      dup3\n        /* \"#utility.yul\":7132:7141   */\n      dup6\n        /* \"#utility.yul\":7128:7150   */\n      add\n        /* \"#utility.yul\":7107:7160   */\n      tag_352\n      jump\t// in\n    tag_496:\n        /* \"#utility.yul\":7097:7160   */\n      swap2\n      pop\n        /* \"#utility.yul\":7053:7170   */\n      pop\n        /* \"#utility.yul\":6848:7177   */\n      swap3\n      swap2\n      pop\n      pop\n      jump\t// out\n        /* \"#utility.yul\":7183:7243   */\n    tag_357:\n        /* \"#utility.yul\":7211:7214   */\n      0x00\n        /* \"#utility.yul\":7232:7237   */\n      dup2\n        /* \"#utility.yul\":7225:7237   */\n      swap1\n      pop\n        /* \"#utility.yul\":7183:7243   */\n      swap2\n      swap1\n      pop\n      jump\t// out\n        /* \"#utility.yul\":7249:7391   */\n    tag_358:\n        /* \"#utility.yul\":7299:7308   */\n      0x00\n        /* \"#utility.yul\":7332:7385   */\n      tag_499\n        /* \"#utility.yul\":7350:7384   */\n      tag_500\n        /* \"#utility.yul\":7359:7383   */\n      tag_501\n        /* \"#utility.yul\":7377:7382   */\n      dup5\n        /* \"#utility.yul\":7359:7383   */\n      tag_348\n      jump\t// in\n    tag_501:\n        /* \"#utility.yul\":7350:7384   */\n      tag_357\n      jump\t// in\n    tag_500:\n        /* \"#utility.yul\":7332:7385   */\n      tag_348\n      jump\t// in\n    tag_499:\n        /* \"#utility.yul\":7319:7385   */\n      swap1\n      pop\n        /* \"#utility.yul\":7249:7391   */\n      swap2\n      swap1\n      pop\n      jump\t// out\n        /* \"#utility.yul\":7397:7523   */\n    tag_359:\n        /* \"#utility.yul\":7447:7456   */\n      0x00\n        /* \"#utility.yul\":7480:7517   */\n      tag_503\n        /* \"#utility.yul\":7511:7516   */\n      dup3\n        /* \"#utility.yul\":7480:7517   */\n      tag_358\n      jump\t// in\n    tag_503:\n        /* \"#utility.yul\":7467:7517   */\n      swap1\n      pop\n        /* \"#utility.yul\":7397:7523   */\n      swap2\n      swap1\n      pop\n      jump\t// out\n        /* \"#utility.yul\":7529:7681   */\n    tag_360:\n        /* \"#utility.yul\":7605:7614   */\n      0x00\n        /* \"#utility.yul\":7638:7675   */\n      tag_505\n        /* \"#utility.yul\":7669:7674   */\n      dup3\n        /* \"#utility.yul\":7638:7675   */\n      tag_359\n      jump\t// in\n    tag_505:\n        /* \"#utility.yul\":7625:7675   */\n      swap1\n      pop\n        /* \"#utility.yul\":7529:7681   */\n      swap2\n      swap1\n      pop\n      jump\t// out\n        /* \"#utility.yul\":7687:7870   */\n    tag_361:\n        /* \"#utility.yul\":7800:7863   */\n      tag_507\n        /* \"#utility.yul\":7857:7862   */\n      dup2\n        /* \"#utility.yul\":7800:7863   */\n      tag_360\n      jump\t// in\n    tag_507:\n        /* \"#utility.yul\":7795:7798   */\n      dup3\n        /* \"#utility.yul\":7788:7864   */\n      mstore\n        /* \"#utility.yul\":7687:7870   */\n      pop\n      pop\n      jump\t// out\n        /* \"#utility.yul\":7876:8150   */\n    tag_55:\n        /* \"#utility.yul\":7995:7999   */\n      0x00\n        /* \"#utility.yul\":8033:8035   */\n      0x20\n        /* \"#utility.yul\":8022:8031   */\n      dup3\n        /* \"#utility.yul\":8018:8036   */\n      add\n        /* \"#utility.yul\":8010:8036   */\n      swap1\n      pop\n        /* \"#utility.yul\":8046:8143   */\n      tag_509\n        /* \"#utility.yul\":8140:8141   */\n      0x00\n        /* \"#utility.yul\":8129:8138   */\n      dup4\n        /* \"#utility.yul\":8125:8142   */\n      add\n        /* \"#utility.yul\":8116:8122   */\n      dup5\n        /* \"#utility.yul\":8046:8143   */\n      tag_361\n      jump\t// in\n    tag_509:\n        /* \"#utility.yul\":7876:8150   */\n      swap3\n      swap2\n      pop\n      pop\n      jump\t// out\n        /* \"#utility.yul\":8156:8300   */\n    tag_362:\n        /* \"#utility.yul\":8224:8233   */\n      0x00\n        /* \"#utility.yul\":8257:8294   */\n      tag_511\n        /* \"#utility.yul\":8288:8293   */\n      dup3\n        /* \"#utility.yul\":8257:8294   */\n      tag_359\n      jump\t// in\n    tag_511:\n        /* \"#utility.yul\":8244:8294   */\n      swap1\n      pop\n        /* \"#utility.yul\":8156:8300   */\n      swap2\n      swap1\n      pop\n      jump\t// out\n        /* \"#utility.yul\":8306:8473   */\n    tag_363:\n        /* \"#utility.yul\":8411:8466   */\n      tag_513\n        /* \"#utility.yul\":8460:8465   */\n      dup2\n        /* \"#utility.yul\":8411:8466   */\n      tag_362\n      jump\t// in\n    tag_513:\n        /* \"#utility.yul\":8406:8409   */\n      dup3\n        /* \"#utility.yul\":8399:8467   */\n      mstore\n        /* \"#utility.yul\":8306:8473   */\n      pop\n      pop\n      jump\t// out\n        /* \"#utility.yul\":8479:8737   */\n    tag_64:\n        /* \"#utility.yul\":8590:8594   */\n      0x00\n        /* \"#utility.yul\":8628:8630   */\n      0x20\n        /* \"#utility.yul\":8617:8626   */\n      dup3\n        /* \"#utility.yul\":8613:8631   */\n      add\n        /* \"#utility.yul\":8605:8631   */\n      swap1\n      pop\n        /* \"#utility.yul\":8641:8730   */\n      tag_515\n        /* \"#utility.yul\":8727:8728   */\n      0x00\n        /* \"#utility.yul\":8716:8725   */\n      dup4\n        /* \"#utility.yul\":8712:8729   */\n      add\n        /* \"#utility.yul\":8703:8709   */\n      dup5\n        /* \"#utility.yul\":8641:8730   */\n      tag_363\n      jump\t// in\n    tag_515:\n        /* \"#utility.yul\":8479:8737   */\n      swap3\n      swap2\n      pop\n      pop\n      jump\t// out\n        /* \"#utility.yul\":8743:9072   */\n    tag_68:\n        /* \"#utility.yul\":8802:8808   */\n      0x00\n        /* \"#utility.yul\":8851:8853   */\n      0x20\n        /* \"#utility.yul\":8839:8848   */\n      dup3\n        /* \"#utility.yul\":8830:8837   */\n      dup5\n        /* \"#utility.yul\":8826:8849   */\n      sub\n        /* \"#utility.yul\":8822:8854   */\n      slt\n        /* \"#utility.yul\":8819:8938   */\n      iszero\n      tag_517\n      jumpi\n        /* \"#utility.yul\":8857:8936   */\n      tag_518\n      tag_334\n      jump\t// in\n    tag_518:\n        /* \"#utility.yul\":8819:8938   */\n    tag_517:\n        /* \"#utility.yul\":8977:8978   */\n      0x00\n        /* \"#utility.yul\":9002:9055   */\n      tag_519\n        /* \"#utility.yul\":9047:9054   */\n      dup5\n        /* \"#utility.yul\":9038:9044   */\n      dup3\n        /* \"#utility.yul\":9027:9036   */\n      dup6\n        /* \"#utility.yul\":9023:9045   */\n      add\n        /* \"#utility.yul\":9002:9055   */\n      tag_355\n      jump\t// in\n    tag_519:\n        /* \"#utility.yul\":8992:9055   */\n      swap2\n      pop\n        /* \"#utility.yul\":8948:9065   */\n      pop\n        /* \"#utility.yul\":8743:9072   */\n      swap3\n      swap2\n      pop\n      pop\n      jump\t// out\n        /* \"#utility.yul\":9078:9843   */\n    tag_77:\n        /* \"#utility.yul\":9164:9170   */\n      0x00\n        /* \"#utility.yul\":9172:9178   */\n      dup1\n        /* \"#utility.yul\":9180:9186   */\n      0x00\n        /* \"#utility.yul\":9188:9194   */\n      dup1\n        /* \"#utility.yul\":9237:9240   */\n      0x80\n        /* \"#utility.yul\":9225:9234   */\n      dup6\n        /* \"#utility.yul\":9216:9223   */\n      dup8\n        /* \"#utility.yul\":9212:9235   */\n      sub\n        /* \"#utility.yul\":9208:9241   */\n      slt\n        /* \"#utility.yul\":9205:9325   */\n      iszero\n      tag_521\n      jumpi\n        /* \"#utility.yul\":9244:9323   */\n      tag_522\n      tag_334\n      jump\t// in\n    tag_522:\n        /* \"#utility.yul\":9205:9325   */\n    tag_521:\n        /* \"#utility.yul\":9364:9365   */\n      0x00\n        /* \"#utility.yul\":9389:9442   */\n      tag_523\n        /* \"#utility.yul\":9434:9441   */\n      dup8\n        /* \"#utility.yul\":9425:9431   */\n      dup3\n        /* \"#utility.yul\":9414:9423   */\n      dup9\n        /* \"#utility.yul\":9410:9432   */\n      add\n        /* \"#utility.yul\":9389:9442   */\n      tag_352\n      jump\t// in\n    tag_523:\n        /* \"#utility.yul\":9379:9442   */\n      swap5\n      pop\n        /* \"#utility.yul\":9335:9452   */\n      pop\n        /* \"#utility.yul\":9491:9493   */\n      0x20\n        /* \"#utility.yul\":9517:9570   */\n      tag_524\n        /* \"#utility.yul\":9562:9569   */\n      dup8\n        /* \"#utility.yul\":9553:9559   */\n      dup3\n        /* \"#utility.yul\":9542:9551   */\n      dup9\n        /* \"#utility.yul\":9538:9560   */\n      add\n        /* \"#utility.yul\":9517:9570   */\n      tag_355\n      jump\t// in\n    tag_524:\n        /* \"#utility.yul\":9507:9570   */\n      swap4\n      pop\n        /* \"#utility.yul\":9462:9580   */\n      pop\n        /* \"#utility.yul\":9619:9621   */\n      0x40\n        /* \"#utility.yul\":9645:9698   */\n      tag_525\n        /* \"#utility.yul\":9690:9697   */\n      dup8\n        /* \"#utility.yul\":9681:9687   */\n      dup3\n        /* \"#utility.yul\":9670:9679   */\n      dup9\n        /* \"#utility.yul\":9666:9688   */\n      add\n        /* \"#utility.yul\":9645:9698   */\n      tag_355\n      jump\t// in\n    tag_525:\n        /* \"#utility.yul\":9635:9698   */\n      swap3\n      pop\n        /* \"#utility.yul\":9590:9708   */\n      pop\n        /* \"#utility.yul\":9747:9749   */\n      0x60\n        /* \"#utility.yul\":9773:9826   */\n      tag_526\n        /* \"#utility.yul\":9818:9825   */\n      dup8\n        /* \"#utility.yul\":9809:9815   */\n      dup3\n        /* \"#utility.yul\":9798:9807   */\n      dup9\n        /* \"#utility.yul\":9794:9816   */\n      add\n        /* \"#utility.yul\":9773:9826   */\n      tag_355\n      jump\t// in\n    tag_526:\n        /* \"#utility.yul\":9763:9826   */\n      swap2\n      pop\n        /* \"#utility.yul\":9718:9836   */\n      pop\n        /* \"#utility.yul\":9078:9843   */\n      swap3\n      swap6\n      swap2\n      swap5\n      pop\n      swap3\n      pop\n      jump\t// out\n        /* \"#utility.yul\":9849:9939   */\n    tag_364:\n        /* \"#utility.yul\":9883:9890   */\n      0x00\n        /* \"#utility.yul\":9926:9931   */\n      dup2\n        /* \"#utility.yul\":9919:9932   */\n      iszero\n        /* \"#utility.yul\":9912:9933   */\n      iszero\n        /* \"#utility.yul\":9901:9933   */\n      swap1\n      pop\n        /* \"#utility.yul\":9849:9939   */\n      swap2\n      swap1\n      pop\n      jump\t// out\n        /* \"#utility.yul\":9945:10054   */\n    tag_365:\n        /* \"#utility.yul\":10026:10047   */\n      tag_529\n        /* \"#utility.yul\":10041:10046   */\n      dup2\n        /* \"#utility.yul\":10026:10047   */\n      tag_364\n      jump\t// in\n    tag_529:\n        /* \"#utility.yul\":10021:10024   */\n      dup3\n        /* \"#utility.yul\":10014:10048   */\n      mstore\n        /* \"#utility.yul\":9945:10054   */\n      pop\n      pop\n      jump\t// out\n        /* \"#utility.yul\":10060:10490   */\n    tag_80:\n        /* \"#utility.yul\":10203:10207   */\n      0x00\n        /* \"#utility.yul\":10241:10243   */\n      0x60\n        /* \"#utility.yul\":10230:10239   */\n      dup3\n        /* \"#utility.yul\":10226:10244   */\n      add\n        /* \"#utility.yul\":10218:10244   */\n      swap1\n      pop\n        /* \"#utility.yul\":10254:10325   */\n      tag_531\n        /* \"#utility.yul\":10322:10323   */\n      0x00\n        /* \"#utility.yul\":10311:10320   */\n      dup4\n        /* \"#utility.yul\":10307:10324   */\n      add\n        /* \"#utility.yul\":10298:10304   */\n      dup7\n        /* \"#utility.yul\":10254:10325   */\n      tag_356\n      jump\t// in\n    tag_531:\n        /* \"#utility.yul\":10335:10407   */\n      tag_532\n        /* \"#utility.yul\":10403:10405   */\n      0x20\n        /* \"#utility.yul\":10392:10401   */\n      dup4\n        /* \"#utility.yul\":10388:10406   */\n      add\n        /* \"#utility.yul\":10379:10385   */\n      dup6\n        /* \"#utility.yul\":10335:10407   */\n      tag_356\n      jump\t// in\n    tag_532:\n        /* \"#utility.yul\":10417:10483   */\n      tag_533\n        /* \"#utility.yul\":10479:10481   */\n      0x40\n        /* \"#utility.yul\":10468:10477   */\n      dup4\n        /* \"#utility.yul\":10464:10482   */\n      add\n        /* \"#utility.yul\":10455:10461   */\n      dup5\n        /* \"#utility.yul\":10417:10483   */\n      tag_365\n      jump\t// in\n    tag_533:\n        /* \"#utility.yul\":10060:10490   */\n      swap5\n      swap4\n      pop\n      pop\n      pop\n      pop\n      jump\t// out\n        /* \"#utility.yul\":10496:10706   */\n    tag_90:\n        /* \"#utility.yul\":10583:10587   */\n      0x00\n        /* \"#utility.yul\":10621:10623   */\n      0x20\n        /* \"#utility.yul\":10610:10619   */\n      dup3\n        /* \"#utility.yul\":10606:10624   */\n      add\n        /* \"#utility.yul\":10598:10624   */\n      swap1\n      pop\n        /* \"#utility.yul\":10634:10699   */\n      tag_535\n        /* \"#utility.yul\":10696:10697   */\n      0x00\n        /* \"#utility.yul\":10685:10694   */\n      dup4\n        /* \"#utility.yul\":10681:10698   */\n      add\n        /* \"#utility.yul\":10672:10678   */\n      dup5\n        /* \"#utility.yul\":10634:10699   */\n      tag_365\n      jump\t// in\n    tag_535:\n        /* \"#utility.yul\":10496:10706   */\n      swap3\n      swap2\n      pop\n      pop\n      jump\t// out\n        /* \"#utility.yul\":10712:10860   */\n    tag_366:\n        /* \"#utility.yul\":10814:10825   */\n      0x00\n        /* \"#utility.yul\":10851:10854   */\n      dup2\n        /* \"#utility.yul\":10836:10854   */\n      swap1\n      pop\n        /* \"#utility.yul\":10712:10860   */\n      swap3\n      swap2\n      pop\n      pop\n      jump\t// out\n        /* \"#utility.yul\":10866:11080   */\n    tag_367:\n        /* \"#utility.yul\":11006:11072   */\n      0x19457468657265756d205369676e6564204d6573736167653a0a333200000000\n        /* \"#utility.yul\":11002:11003   */\n      0x00\n        /* \"#utility.yul\":10994:11000   */\n      dup3\n        /* \"#utility.yul\":10990:11004   */\n      add\n        /* \"#utility.yul\":10983:11073   */\n      mstore\n        /* \"#utility.yul\":10866:11080   */\n      pop\n      jump\t// out\n        /* \"#utility.yul\":11086:11488   */\n    tag_368:\n        /* \"#utility.yul\":11246:11249   */\n      0x00\n        /* \"#utility.yul\":11267:11352   */\n      tag_539\n        /* \"#utility.yul\":11349:11351   */\n      0x1c\n        /* \"#utility.yul\":11344:11347   */\n      dup4\n        /* \"#utility.yul\":11267:11352   */\n      tag_366\n      jump\t// in\n    tag_539:\n        /* \"#utility.yul\":11260:11352   */\n      swap2\n      pop\n        /* \"#utility.yul\":11361:11454   */\n      tag_540\n        /* \"#utility.yul\":11450:11453   */\n      dup3\n        /* \"#utility.yul\":11361:11454   */\n      tag_367\n      jump\t// in\n    tag_540:\n        /* \"#utility.yul\":11479:11481   */\n      0x1c\n        /* \"#utility.yul\":11474:11477   */\n      dup3\n        /* \"#utility.yul\":11470:11482   */\n      add\n        /* \"#utility.yul\":11463:11482   */\n      swap1\n      pop\n        /* \"#utility.yul\":11086:11488   */\n      swap2\n      swap1\n      pop\n      jump\t// out\n        /* \"#utility.yul\":11494:11573   */\n    tag_369:\n        /* \"#utility.yul\":11533:11540   */\n      0x00\n        /* \"#utility.yul\":11562:11567   */\n      dup2\n        /* \"#utility.yul\":11551:11567   */\n      swap1\n      pop\n        /* \"#utility.yul\":11494:11573   */\n      swap2\n      swap1\n      pop\n      jump\t// out\n        /* \"#utility.yul\":11579:11736   */\n    tag_370:\n        /* \"#utility.yul\":11684:11729   */\n      tag_543\n        /* \"#utility.yul\":11704:11728   */\n      tag_544\n        /* \"#utility.yul\":11722:11727   */\n      dup3\n        /* \"#utility.yul\":11704:11728   */\n      tag_336\n      jump\t// in\n    tag_544:\n        /* \"#utility.yul\":11684:11729   */\n      tag_369\n      jump\t// in\n    tag_543:\n        /* \"#utility.yul\":11679:11682   */\n      dup3\n        /* \"#utility.yul\":11672:11730   */\n      mstore\n        /* \"#utility.yul\":11579:11736   */\n      pop\n      pop\n      jump\t// out\n        /* \"#utility.yul\":11742:12264   */\n    tag_107:\n        /* \"#utility.yul\":11955:11958   */\n      0x00\n        /* \"#utility.yul\":11977:12125   */\n      tag_546\n        /* \"#utility.yul\":12121:12124   */\n      dup3\n        /* \"#utility.yul\":11977:12125   */\n      tag_368\n      jump\t// in\n    tag_546:\n        /* \"#utility.yul\":11970:12125   */\n      swap2\n      pop\n        /* \"#utility.yul\":12135:12210   */\n      tag_547\n        /* \"#utility.yul\":12206:12209   */\n      dup3\n        /* \"#utility.yul\":12197:12203   */\n      dup5\n        /* \"#utility.yul\":12135:12210   */\n      tag_370\n      jump\t// in\n    tag_547:\n        /* \"#utility.yul\":12235:12237   */\n      0x20\n        /* \"#utility.yul\":12230:12233   */\n      dup3\n        /* \"#utility.yul\":12226:12238   */\n      add\n        /* \"#utility.yul\":12219:12238   */\n      swap2\n      pop\n        /* \"#utility.yul\":12255:12258   */\n      dup2\n        /* \"#utility.yul\":12248:12258   */\n      swap1\n      pop\n        /* \"#utility.yul\":11742:12264   */\n      swap3\n      swap2\n      pop\n      pop\n      jump\t// out\n        /* \"#utility.yul\":12270:12388   */\n    tag_371:\n        /* \"#utility.yul\":12357:12381   */\n      tag_549\n        /* \"#utility.yul\":12375:12380   */\n      dup2\n        /* \"#utility.yul\":12357:12381   */\n      tag_336\n      jump\t// in\n    tag_549:\n        /* \"#utility.yul\":12352:12355   */\n      dup3\n        /* \"#utility.yul\":12345:12382   */\n      mstore\n        /* \"#utility.yul\":12270:12388   */\n      pop\n      pop\n      jump\t// out\n        /* \"#utility.yul\":12394:12480   */\n    tag_372:\n        /* \"#utility.yul\":12429:12436   */\n      0x00\n        /* \"#utility.yul\":12469:12473   */\n      0xff\n        /* \"#utility.yul\":12462:12467   */\n      dup3\n        /* \"#utility.yul\":12458:12474   */\n      and\n        /* \"#utility.yul\":12447:12474   */\n      swap1\n      pop\n        /* \"#utility.yul\":12394:12480   */\n      swap2\n      swap1\n      pop\n      jump\t// out\n        /* \"#utility.yul\":12486:12598   */\n    tag_373:\n        /* \"#utility.yul\":12569:12591   */\n      tag_552\n        /* \"#utility.yul\":12585:12590   */\n      dup2\n        /* \"#utility.yul\":12569:12591   */\n      tag_372\n      jump\t// in\n    tag_552:\n        /* \"#utility.yul\":12564:12567   */\n      dup3\n        /* \"#utility.yul\":12557:12592   */\n      mstore\n        /* \"#utility.yul\":12486:12598   */\n      pop\n      pop\n      jump\t// out\n        /* \"#utility.yul\":12604:13149   */\n    tag_109:\n        /* \"#utility.yul\":12777:12781   */\n      0x00\n        /* \"#utility.yul\":12815:12818   */\n      0x80\n        /* \"#utility.yul\":12804:12813   */\n      dup3\n        /* \"#utility.yul\":12800:12819   */\n      add\n        /* \"#utility.yul\":12792:12819   */\n      swap1\n      pop\n        /* \"#utility.yul\":12829:12900   */\n      tag_554\n        /* \"#utility.yul\":12897:12898   */\n      0x00\n        /* \"#utility.yul\":12886:12895   */\n      dup4\n        /* \"#utility.yul\":12882:12899   */\n      add\n        /* \"#utility.yul\":12873:12879   */\n      dup8\n        /* \"#utility.yul\":12829:12900   */\n      tag_371\n      jump\t// in\n    tag_554:\n        /* \"#utility.yul\":12910:12978   */\n      tag_555\n        /* \"#utility.yul\":12974:12976   */\n      0x20\n        /* \"#utility.yul\":12963:12972   */\n      dup4\n        /* \"#utility.yul\":12959:12977   */\n      add\n        /* \"#utility.yul\":12950:12956   */\n      dup7\n        /* \"#utility.yul\":12910:12978   */\n      tag_373\n      jump\t// in\n    tag_555:\n        /* \"#utility.yul\":12988:13060   */\n      tag_556\n        /* \"#utility.yul\":13056:13058   */\n      0x40\n        /* \"#utility.yul\":13045:13054   */\n      dup4\n        /* \"#utility.yul\":13041:13059   */\n      add\n        /* \"#utility.yul\":13032:13038   */\n      dup6\n        /* \"#utility.yul\":12988:13060   */\n      tag_371\n      jump\t// in\n    tag_556:\n        /* \"#utility.yul\":13070:13142   */\n      tag_557\n        /* \"#utility.yul\":13138:13140   */\n      0x60\n        /* \"#utility.yul\":13127:13136   */\n      dup4\n        /* \"#utility.yul\":13123:13141   */\n      add\n        /* \"#utility.yul\":13114:13120   */\n      dup5\n        /* \"#utility.yul\":13070:13142   */\n      tag_371\n      jump\t// in\n    tag_557:\n        /* \"#utility.yul\":12604:13149   */\n      swap6\n      swap5\n      pop\n      pop\n      pop\n      pop\n      pop\n      jump\t// out\n        /* \"#utility.yul\":13155:13597   */\n    tag_114:\n        /* \"#utility.yul\":13304:13308   */\n      0x00\n        /* \"#utility.yul\":13342:13344   */\n      0x60\n        /* \"#utility.yul\":13331:13340   */\n      dup3\n        /* \"#utility.yul\":13327:13345   */\n      add\n        /* \"#utility.yul\":13319:13345   */\n      swap1\n      pop\n        /* \"#utility.yul\":13355:13426   */\n      tag_559\n        /* \"#utility.yul\":13423:13424   */\n      0x00\n        /* \"#utility.yul\":13412:13421   */\n      dup4\n        /* \"#utility.yul\":13408:13425   */\n      add\n        /* \"#utility.yul\":13399:13405   */\n      dup7\n        /* \"#utility.yul\":13355:13426   */\n      tag_350\n      jump\t// in\n    tag_559:\n        /* \"#utility.yul\":13436:13508   */\n      tag_560\n        /* \"#utility.yul\":13504:13506   */\n      0x20\n        /* \"#utility.yul\":13493:13502   */\n      dup4\n        /* \"#utility.yul\":13489:13507   */\n      add\n        /* \"#utility.yul\":13480:13486   */\n      dup6\n        /* \"#utility.yul\":13436:13508   */\n      tag_350\n      jump\t// in\n    tag_560:\n        /* \"#utility.yul\":13518:13590   */\n      tag_561\n        /* \"#utility.yul\":13586:13588   */\n      0x40\n        /* \"#utility.yul\":13575:13584   */\n      dup4\n        /* \"#utility.yul\":13571:13589   */\n      add\n        /* \"#utility.yul\":13562:13568   */\n      dup5\n        /* \"#utility.yul\":13518:13590   */\n      tag_356\n      jump\t// in\n    tag_561:\n        /* \"#utility.yul\":13155:13597   */\n      swap5\n      swap4\n      pop\n      pop\n      pop\n      pop\n      jump\t// out\n        /* \"#utility.yul\":13603:13719   */\n    tag_374:\n        /* \"#utility.yul\":13673:13694   */\n      tag_563\n        /* \"#utility.yul\":13688:13693   */\n      dup2\n        /* \"#utility.yul\":13673:13694   */\n      tag_364\n      jump\t// in\n    tag_563:\n        /* \"#utility.yul\":13666:13671   */\n      dup2\n        /* \"#utility.yul\":13663:13695   */\n      eq\n        /* \"#utility.yul\":13653:13713   */\n      tag_564\n      jumpi\n        /* \"#utility.yul\":13709:13710   */\n      0x00\n        /* \"#utility.yul\":13706:13707   */\n      dup1\n        /* \"#utility.yul\":13699:13711   */\n      revert\n        /* \"#utility.yul\":13653:13713   */\n    tag_564:\n        /* \"#utility.yul\":13603:13719   */\n      pop\n      jump\t// out\n        /* \"#utility.yul\":13725:13862   */\n    tag_375:\n        /* \"#utility.yul\":13779:13784   */\n      0x00\n        /* \"#utility.yul\":13810:13816   */\n      dup2\n        /* \"#utility.yul\":13804:13817   */\n      mload\n        /* \"#utility.yul\":13795:13817   */\n      swap1\n      pop\n        /* \"#utility.yul\":13826:13856   */\n      tag_566\n        /* \"#utility.yul\":13850:13855   */\n      dup2\n        /* \"#utility.yul\":13826:13856   */\n      tag_374\n      jump\t// in\n    tag_566:\n        /* \"#utility.yul\":13725:13862   */\n      swap3\n      swap2\n      pop\n      pop\n      jump\t// out\n        /* \"#utility.yul\":13868:14213   */\n    tag_118:\n        /* \"#utility.yul\":13935:13941   */\n      0x00\n        /* \"#utility.yul\":13984:13986   */\n      0x20\n        /* \"#utility.yul\":13972:13981   */\n      dup3\n        /* \"#utility.yul\":13963:13970   */\n      dup5\n        /* \"#utility.yul\":13959:13982   */\n      sub\n        /* \"#utility.yul\":13955:13987   */\n      slt\n        /* \"#utility.yul\":13952:14071   */\n      iszero\n      tag_568\n      jumpi\n        /* \"#utility.yul\":13990:14069   */\n      tag_569\n      tag_334\n      jump\t// in\n    tag_569:\n        /* \"#utility.yul\":13952:14071   */\n    tag_568:\n        /* \"#utility.yul\":14110:14111   */\n      0x00\n        /* \"#utility.yul\":14135:14196   */\n      tag_570\n        /* \"#utility.yul\":14188:14195   */\n      dup5\n        /* \"#utility.yul\":14179:14185   */\n      dup3\n        /* \"#utility.yul\":14168:14177   */\n      dup6\n        /* \"#utility.yul\":14164:14186   */\n      add\n        /* \"#utility.yul\":14135:14196   */\n      tag_375\n      jump\t// in\n    tag_570:\n        /* \"#utility.yul\":14125:14196   */\n      swap2\n      pop\n        /* \"#utility.yul\":14081:14206   */\n      pop\n        /* \"#utility.yul\":13868:14213   */\n      swap3\n      swap2\n      pop\n      pop\n      jump\t// out\n        /* \"#utility.yul\":14219:14551   */\n    tag_120:\n        /* \"#utility.yul\":14340:14344   */\n      0x00\n        /* \"#utility.yul\":14378:14380   */\n      0x40\n        /* \"#utility.yul\":14367:14376   */\n      dup3\n        /* \"#utility.yul\":14363:14381   */\n      add\n        /* \"#utility.yul\":14355:14381   */\n      swap1\n      pop\n        /* \"#utility.yul\":14391:14462   */\n      tag_572\n        /* \"#utility.yul\":14459:14460   */\n      0x00\n        /* \"#utility.yul\":14448:14457   */\n      dup4\n        /* \"#utility.yul\":14444:14461   */\n      add\n        /* \"#utility.yul\":14435:14441   */\n      dup6\n        /* \"#utility.yul\":14391:14462   */\n      tag_350\n      jump\t// in\n    tag_572:\n        /* \"#utility.yul\":14472:14544   */\n      tag_573\n        /* \"#utility.yul\":14540:14542   */\n      0x20\n        /* \"#utility.yul\":14529:14538   */\n      dup4\n        /* \"#utility.yul\":14525:14543   */\n      add\n        /* \"#utility.yul\":14516:14522   */\n      dup5\n        /* \"#utility.yul\":14472:14544   */\n      tag_356\n      jump\t// in\n    tag_573:\n        /* \"#utility.yul\":14219:14551   */\n      swap4\n      swap3\n      pop\n      pop\n      pop\n      jump\t// out\n        /* \"#utility.yul\":14557:14737   */\n    tag_130:\n        /* \"#utility.yul\":14605:14682   */\n      0x4e487b7100000000000000000000000000000000000000000000000000000000\n        /* \"#utility.yul\":14602:14603   */\n      0x00\n        /* \"#utility.yul\":14595:14683   */\n      mstore\n        /* \"#utility.yul\":14702:14706   */\n      0x32\n        /* \"#utility.yul\":14699:14700   */\n      0x04\n        /* \"#utility.yul\":14692:14707   */\n      mstore\n        /* \"#utility.yul\":14726:14730   */\n      0x24\n        /* \"#utility.yul\":14723:14724   */\n      0x00\n        /* \"#utility.yul\":14716:14731   */\n      revert\n        /* \"#utility.yul\":14743:14886   */\n    tag_376:\n        /* \"#utility.yul\":14800:14805   */\n      0x00\n        /* \"#utility.yul\":14831:14837   */\n      dup2\n        /* \"#utility.yul\":14825:14838   */\n      mload\n        /* \"#utility.yul\":14816:14838   */\n      swap1\n      pop\n        /* \"#utility.yul\":14847:14880   */\n      tag_576\n        /* \"#utility.yul\":14874:14879   */\n      dup2\n        /* \"#utility.yul\":14847:14880   */\n      tag_351\n      jump\t// in\n    tag_576:\n        /* \"#utility.yul\":14743:14886   */\n      swap3\n      swap2\n      pop\n      pop\n      jump\t// out\n        /* \"#utility.yul\":14892:15243   */\n    tag_134:\n        /* \"#utility.yul\":14962:14968   */\n      0x00\n        /* \"#utility.yul\":15011:15013   */\n      0x20\n        /* \"#utility.yul\":14999:15008   */\n      dup3\n        /* \"#utility.yul\":14990:14997   */\n      dup5\n        /* \"#utility.yul\":14986:15009   */\n      sub\n        /* \"#utility.yul\":14982:15014   */\n      slt\n        /* \"#utility.yul\":14979:15098   */\n      iszero\n      tag_578\n      jumpi\n        /* \"#utility.yul\":15017:15096   */\n      tag_579\n      tag_334\n      jump\t// in\n    tag_579:\n        /* \"#utility.yul\":14979:15098   */\n    tag_578:\n        /* \"#utility.yul\":15137:15138   */\n      0x00\n        /* \"#utility.yul\":15162:15226   */\n      tag_580\n        /* \"#utility.yul\":15218:15225   */\n      dup5\n        /* \"#utility.yul\":15209:15215   */\n      dup3\n        /* \"#utility.yul\":15198:15207   */\n      dup6\n        /* \"#utility.yul\":15194:15216   */\n      add\n        /* \"#utility.yul\":15162:15226   */\n      tag_376\n      jump\t// in\n    tag_580:\n        /* \"#utility.yul\":15152:15226   */\n      swap2\n      pop\n        /* \"#utility.yul\":15108:15236   */\n      pop\n        /* \"#utility.yul\":14892:15243   */\n      swap3\n      swap2\n      pop\n      pop\n      jump\t// out\n        /* \"#utility.yul\":15249:15363   */\n    tag_377:\n        /* \"#utility.yul\":15316:15322   */\n      0x00\n        /* \"#utility.yul\":15350:15355   */\n      dup2\n        /* \"#utility.yul\":15344:15356   */\n      mload\n        /* \"#utility.yul\":15334:15356   */\n      swap1\n      pop\n        /* \"#utility.yul\":15249:15363   */\n      swap2\n      swap1\n      pop\n      jump\t// out\n        /* \"#utility.yul\":15369:15553   */\n    tag_378:\n        /* \"#utility.yul\":15468:15479   */\n      0x00\n        /* \"#utility.yul\":15502:15508   */\n      dup3\n        /* \"#utility.yul\":15497:15500   */\n      dup3\n        /* \"#utility.yul\":15490:15509   */\n      mstore\n        /* \"#utility.yul\":15542:15546   */\n      0x20\n        /* \"#utility.yul\":15537:15540   */\n      dup3\n        /* \"#utility.yul\":15533:15547   */\n      add\n        /* \"#utility.yul\":15518:15547   */\n      swap1\n      pop\n        /* \"#utility.yul\":15369:15553   */\n      swap3\n      swap2\n      pop\n      pop\n      jump\t// out\n        /* \"#utility.yul\":15559:15691   */\n    tag_379:\n        /* \"#utility.yul\":15626:15630   */\n      0x00\n        /* \"#utility.yul\":15649:15652   */\n      dup2\n        /* \"#utility.yul\":15641:15652   */\n      swap1\n      pop\n        /* \"#utility.yul\":15679:15683   */\n      0x20\n        /* \"#utility.yul\":15674:15677   */\n      dup3\n        /* \"#utility.yul\":15670:15684   */\n      add\n        /* \"#utility.yul\":15662:15684   */\n      swap1\n      pop\n        /* \"#utility.yul\":15559:15691   */\n      swap2\n      swap1\n      pop\n      jump\t// out\n        /* \"#utility.yul\":15697:15805   */\n    tag_380:\n        /* \"#utility.yul\":15774:15798   */\n      tag_585\n        /* \"#utility.yul\":15792:15797   */\n      dup2\n        /* \"#utility.yul\":15774:15798   */\n      tag_349\n      jump\t// in\n    tag_585:\n        /* \"#utility.yul\":15769:15772   */\n      dup3\n        /* \"#utility.yul\":15762:15799   */\n      mstore\n        /* \"#utility.yul\":15697:15805   */\n      pop\n      pop\n      jump\t// out\n        /* \"#utility.yul\":15811:15990   */\n    tag_381:\n        /* \"#utility.yul\":15880:15890   */\n      0x00\n        /* \"#utility.yul\":15901:15947   */\n      tag_587\n        /* \"#utility.yul\":15943:15946   */\n      dup4\n        /* \"#utility.yul\":15935:15941   */\n      dup4\n        /* \"#utility.yul\":15901:15947   */\n      tag_380\n      jump\t// in\n    tag_587:\n        /* \"#utility.yul\":15979:15983   */\n      0x20\n        /* \"#utility.yul\":15974:15977   */\n      dup4\n        /* \"#utility.yul\":15970:15984   */\n      add\n        /* \"#utility.yul\":15956:15984   */\n      swap1\n      pop\n        /* \"#utility.yul\":15811:15990   */\n      swap3\n      swap2\n      pop\n      pop\n      jump\t// out\n        /* \"#utility.yul\":15996:16109   */\n    tag_382:\n        /* \"#utility.yul\":16066:16070   */\n      0x00\n        /* \"#utility.yul\":16098:16102   */\n      0x20\n        /* \"#utility.yul\":16093:16096   */\n      dup3\n        /* \"#utility.yul\":16089:16103   */\n      add\n        /* \"#utility.yul\":16081:16103   */\n      swap1\n      pop\n        /* \"#utility.yul\":15996:16109   */\n      swap2\n      swap1\n      pop\n      jump\t// out\n        /* \"#utility.yul\":16145:16877   */\n    tag_383:\n        /* \"#utility.yul\":16264:16267   */\n      0x00\n        /* \"#utility.yul\":16293:16347   */\n      tag_590\n        /* \"#utility.yul\":16341:16346   */\n      dup3\n        /* \"#utility.yul\":16293:16347   */\n      tag_377\n      jump\t// in\n    tag_590:\n        /* \"#utility.yul\":16363:16449   */\n      tag_591\n        /* \"#utility.yul\":16442:16448   */\n      dup2\n        /* \"#utility.yul\":16437:16440   */\n      dup6\n        /* \"#utility.yul\":16363:16449   */\n      tag_378\n      jump\t// in\n    tag_591:\n        /* \"#utility.yul\":16356:16449   */\n      swap4\n      pop\n        /* \"#utility.yul\":16473:16529   */\n      tag_592\n        /* \"#utility.yul\":16523:16528   */\n      dup4\n        /* \"#utility.yul\":16473:16529   */\n      tag_379\n      jump\t// in\n    tag_592:\n        /* \"#utility.yul\":16552:16559   */\n      dup1\n        /* \"#utility.yul\":16583:16584   */\n      0x00\n        /* \"#utility.yul\":16568:16852   */\n    tag_593:\n        /* \"#utility.yul\":16593:16599   */\n      dup4\n        /* \"#utility.yul\":16590:16591   */\n      dup2\n        /* \"#utility.yul\":16587:16600   */\n      lt\n        /* \"#utility.yul\":16568:16852   */\n      iszero\n      tag_595\n      jumpi\n        /* \"#utility.yul\":16669:16675   */\n      dup2\n        /* \"#utility.yul\":16663:16676   */\n      mload\n        /* \"#utility.yul\":16696:16759   */\n      tag_596\n        /* \"#utility.yul\":16755:16758   */\n      dup9\n        /* \"#utility.yul\":16740:16753   */\n      dup3\n        /* \"#utility.yul\":16696:16759   */\n      tag_381\n      jump\t// in\n    tag_596:\n        /* \"#utility.yul\":16689:16759   */\n      swap8\n      pop\n        /* \"#utility.yul\":16782:16842   */\n      tag_597\n        /* \"#utility.yul\":16835:16841   */\n      dup4\n        /* \"#utility.yul\":16782:16842   */\n      tag_382\n      jump\t// in\n    tag_597:\n        /* \"#utility.yul\":16772:16842   */\n      swap3\n      pop\n        /* \"#utility.yul\":16628:16852   */\n      pop\n        /* \"#utility.yul\":16615:16616   */\n      0x01\n        /* \"#utility.yul\":16612:16613   */\n      dup2\n        /* \"#utility.yul\":16608:16617   */\n      add\n        /* \"#utility.yul\":16603:16617   */\n      swap1\n      pop\n        /* \"#utility.yul\":16568:16852   */\n      jump(tag_593)\n    tag_595:\n        /* \"#utility.yul\":16572:16586   */\n      pop\n        /* \"#utility.yul\":16868:16871   */\n      dup6\n        /* \"#utility.yul\":16861:16871   */\n      swap4\n      pop\n        /* \"#utility.yul\":16269:16877   */\n      pop\n      pop\n      pop\n        /* \"#utility.yul\":16145:16877   */\n      swap3\n      swap2\n      pop\n      pop\n      jump\t// out\n        /* \"#utility.yul\":16883:17698   */\n    tag_138:\n        /* \"#utility.yul\":17138:17142   */\n      0x00\n        /* \"#utility.yul\":17176:17179   */\n      0xa0\n        /* \"#utility.yul\":17165:17174   */\n      dup3\n        /* \"#utility.yul\":17161:17180   */\n      add\n        /* \"#utility.yul\":17153:17180   */\n      swap1\n      pop\n        /* \"#utility.yul\":17190:17261   */\n      tag_599\n        /* \"#utility.yul\":17258:17259   */\n      0x00\n        /* \"#utility.yul\":17247:17256   */\n      dup4\n        /* \"#utility.yul\":17243:17260   */\n      add\n        /* \"#utility.yul\":17234:17240   */\n      dup9\n        /* \"#utility.yul\":17190:17261   */\n      tag_356\n      jump\t// in\n    tag_599:\n        /* \"#utility.yul\":17271:17343   */\n      tag_600\n        /* \"#utility.yul\":17339:17341   */\n      0x20\n        /* \"#utility.yul\":17328:17337   */\n      dup4\n        /* \"#utility.yul\":17324:17342   */\n      add\n        /* \"#utility.yul\":17315:17321   */\n      dup8\n        /* \"#utility.yul\":17271:17343   */\n      tag_356\n      jump\t// in\n    tag_600:\n        /* \"#utility.yul\":17390:17399   */\n      dup2\n        /* \"#utility.yul\":17384:17388   */\n      dup2\n        /* \"#utility.yul\":17380:17400   */\n      sub\n        /* \"#utility.yul\":17375:17377   */\n      0x40\n        /* \"#utility.yul\":17364:17373   */\n      dup4\n        /* \"#utility.yul\":17360:17378   */\n      add\n        /* \"#utility.yul\":17353:17401   */\n      mstore\n        /* \"#utility.yul\":17418:17526   */\n      tag_601\n        /* \"#utility.yul\":17521:17525   */\n      dup2\n        /* \"#utility.yul\":17512:17518   */\n      dup7\n        /* \"#utility.yul\":17418:17526   */\n      tag_383\n      jump\t// in\n    tag_601:\n        /* \"#utility.yul\":17410:17526   */\n      swap1\n      pop\n        /* \"#utility.yul\":17536:17608   */\n      tag_602\n        /* \"#utility.yul\":17604:17606   */\n      0x60\n        /* \"#utility.yul\":17593:17602   */\n      dup4\n        /* \"#utility.yul\":17589:17607   */\n      add\n        /* \"#utility.yul\":17580:17586   */\n      dup6\n        /* \"#utility.yul\":17536:17608   */\n      tag_350\n      jump\t// in\n    tag_602:\n        /* \"#utility.yul\":17618:17691   */\n      tag_603\n        /* \"#utility.yul\":17686:17689   */\n      0x80\n        /* \"#utility.yul\":17675:17684   */\n      dup4\n        /* \"#utility.yul\":17671:17690   */\n      add\n        /* \"#utility.yul\":17662:17668   */\n      dup5\n        /* \"#utility.yul\":17618:17691   */\n      tag_356\n      jump\t// in\n    tag_603:\n        /* \"#utility.yul\":16883:17698   */\n      swap7\n      swap6\n      pop\n      pop\n      pop\n      pop\n      pop\n      pop\n      jump\t// out\n        /* \"#utility.yul\":17704:18015   */\n    tag_384:\n        /* \"#utility.yul\":17781:17785   */\n      0x00\n        /* \"#utility.yul\":17871:17889   */\n      0xffffffffffffffff\n        /* \"#utility.yul\":17863:17869   */\n      dup3\n        /* \"#utility.yul\":17860:17890   */\n      gt\n        /* \"#utility.yul\":17857:17913   */\n      iszero\n      tag_605\n      jumpi\n        /* \"#utility.yul\":17893:17911   */\n      tag_606\n      tag_126\n      jump\t// in\n    tag_606:\n        /* \"#utility.yul\":17857:17913   */\n    tag_605:\n        /* \"#utility.yul\":17943:17947   */\n      0x20\n        /* \"#utility.yul\":17935:17941   */\n      dup3\n        /* \"#utility.yul\":17931:17948   */\n      mul\n        /* \"#utility.yul\":17923:17948   */\n      swap1\n      pop\n        /* \"#utility.yul\":18003:18007   */\n      0x20\n        /* \"#utility.yul\":17997:18001   */\n      dup2\n        /* \"#utility.yul\":17993:18008   */\n      add\n        /* \"#utility.yul\":17985:18008   */\n      swap1\n      pop\n        /* \"#utility.yul\":17704:18015   */\n      swap2\n      swap1\n      pop\n      jump\t// out\n        /* \"#utility.yul\":18021:18138   */\n    tag_385:\n        /* \"#utility.yul\":18130:18131   */\n      0x00\n        /* \"#utility.yul\":18127:18128   */\n      dup1\n        /* \"#utility.yul\":18120:18132   */\n      revert\n        /* \"#utility.yul\":18144:18287   */\n    tag_386:\n        /* \"#utility.yul\":18201:18206   */\n      0x00\n        /* \"#utility.yul\":18232:18238   */\n      dup2\n        /* \"#utility.yul\":18226:18239   */\n      mload\n        /* \"#utility.yul\":18217:18239   */\n      swap1\n      pop\n        /* \"#utility.yul\":18248:18281   */\n      tag_609\n        /* \"#utility.yul\":18275:18280   */\n      dup2\n        /* \"#utility.yul\":18248:18281   */\n      tag_354\n      jump\t// in\n    tag_609:\n        /* \"#utility.yul\":18144:18287   */\n      swap3\n      swap2\n      pop\n      pop\n      jump\t// out\n        /* \"#utility.yul\":18310:19042   */\n    tag_387:\n        /* \"#utility.yul\":18417:18422   */\n      0x00\n        /* \"#utility.yul\":18442:18523   */\n      tag_611\n        /* \"#utility.yul\":18458:18522   */\n      tag_612\n        /* \"#utility.yul\":18515:18521   */\n      dup5\n        /* \"#utility.yul\":18458:18522   */\n      tag_384\n      jump\t// in\n    tag_612:\n        /* \"#utility.yul\":18442:18523   */\n      tag_343\n      jump\t// in\n    tag_611:\n        /* \"#utility.yul\":18433:18523   */\n      swap1\n      pop\n        /* \"#utility.yul\":18543:18548   */\n      dup1\n        /* \"#utility.yul\":18572:18578   */\n      dup4\n        /* \"#utility.yul\":18565:18570   */\n      dup3\n        /* \"#utility.yul\":18558:18579   */\n      mstore\n        /* \"#utility.yul\":18606:18610   */\n      0x20\n        /* \"#utility.yul\":18599:18604   */\n      dup3\n        /* \"#utility.yul\":18595:18611   */\n      add\n        /* \"#utility.yul\":18588:18611   */\n      swap1\n      pop\n        /* \"#utility.yul\":18659:18663   */\n      0x20\n        /* \"#utility.yul\":18651:18657   */\n      dup5\n        /* \"#utility.yul\":18647:18664   */\n      mul\n        /* \"#utility.yul\":18639:18645   */\n      dup4\n        /* \"#utility.yul\":18635:18665   */\n      add\n        /* \"#utility.yul\":18688:18691   */\n      dup6\n        /* \"#utility.yul\":18680:18686   */\n      dup2\n        /* \"#utility.yul\":18677:18692   */\n      gt\n        /* \"#utility.yul\":18674:18796   */\n      iszero\n      tag_613\n      jumpi\n        /* \"#utility.yul\":18707:18786   */\n      tag_614\n      tag_385\n      jump\t// in\n    tag_614:\n        /* \"#utility.yul\":18674:18796   */\n    tag_613:\n        /* \"#utility.yul\":18822:18828   */\n      dup4\n        /* \"#utility.yul\":18805:19036   */\n    tag_615:\n        /* \"#utility.yul\":18839:18845   */\n      dup2\n        /* \"#utility.yul\":18834:18837   */\n      dup2\n        /* \"#utility.yul\":18831:18846   */\n      lt\n        /* \"#utility.yul\":18805:19036   */\n      iszero\n      tag_617\n      jumpi\n        /* \"#utility.yul\":18914:18917   */\n      dup1\n        /* \"#utility.yul\":18943:18991   */\n      tag_618\n        /* \"#utility.yul\":18987:18990   */\n      dup9\n        /* \"#utility.yul\":18975:18985   */\n      dup3\n        /* \"#utility.yul\":18943:18991   */\n      tag_386\n      jump\t// in\n    tag_618:\n        /* \"#utility.yul\":18938:18941   */\n      dup5\n        /* \"#utility.yul\":18931:18992   */\n      mstore\n        /* \"#utility.yul\":19021:19025   */\n      0x20\n        /* \"#utility.yul\":19016:19019   */\n      dup5\n        /* \"#utility.yul\":19012:19026   */\n      add\n        /* \"#utility.yul\":19005:19026   */\n      swap4\n      pop\n        /* \"#utility.yul\":18881:19036   */\n      pop\n        /* \"#utility.yul\":18865:18869   */\n      0x20\n        /* \"#utility.yul\":18860:18863   */\n      dup2\n        /* \"#utility.yul\":18856:18870   */\n      add\n        /* \"#utility.yul\":18849:18870   */\n      swap1\n      pop\n        /* \"#utility.yul\":18805:19036   */\n      jump(tag_615)\n    tag_617:\n        /* \"#utility.yul\":18809:18830   */\n      pop\n        /* \"#utility.yul\":18423:19042   */\n      pop\n      pop\n        /* \"#utility.yul\":18310:19042   */\n      swap4\n      swap3\n      pop\n      pop\n      pop\n      jump\t// out\n        /* \"#utility.yul\":19065:19450   */\n    tag_388:\n        /* \"#utility.yul\":19147:19152   */\n      0x00\n        /* \"#utility.yul\":19196:19199   */\n      dup3\n        /* \"#utility.yul\":19189:19193   */\n      0x1f\n        /* \"#utility.yul\":19181:19187   */\n      dup4\n        /* \"#utility.yul\":19177:19194   */\n      add\n        /* \"#utility.yul\":19173:19200   */\n      slt\n        /* \"#utility.yul\":19163:19285   */\n      tag_620\n      jumpi\n        /* \"#utility.yul\":19204:19283   */\n      tag_621\n      tag_339\n      jump\t// in\n    tag_621:\n        /* \"#utility.yul\":19163:19285   */\n    tag_620:\n        /* \"#utility.yul\":19314:19320   */\n      dup2\n        /* \"#utility.yul\":19308:19321   */\n      mload\n        /* \"#utility.yul\":19339:19444   */\n      tag_622\n        /* \"#utility.yul\":19440:19443   */\n      dup5\n        /* \"#utility.yul\":19432:19438   */\n      dup3\n        /* \"#utility.yul\":19425:19429   */\n      0x20\n        /* \"#utility.yul\":19417:19423   */\n      dup7\n        /* \"#utility.yul\":19413:19430   */\n      add\n        /* \"#utility.yul\":19339:19444   */\n      tag_387\n      jump\t// in\n    tag_622:\n        /* \"#utility.yul\":19330:19444   */\n      swap2\n      pop\n        /* \"#utility.yul\":19153:19450   */\n      pop\n        /* \"#utility.yul\":19065:19450   */\n      swap3\n      swap2\n      pop\n      pop\n      jump\t// out\n        /* \"#utility.yul\":19456:20010   */\n    tag_142:\n        /* \"#utility.yul\":19551:19557   */\n      0x00\n        /* \"#utility.yul\":19600:19602   */\n      0x20\n        /* \"#utility.yul\":19588:19597   */\n      dup3\n        /* \"#utility.yul\":19579:19586   */\n      dup5\n        /* \"#utility.yul\":19575:19598   */\n      sub\n        /* \"#utility.yul\":19571:19603   */\n      slt\n        /* \"#utility.yul\":19568:19687   */\n      iszero\n      tag_624\n      jumpi\n        /* \"#utility.yul\":19606:19685   */\n      tag_625\n      tag_334\n      jump\t// in\n    tag_625:\n        /* \"#utility.yul\":19568:19687   */\n    tag_624:\n        /* \"#utility.yul\":19747:19748   */\n      0x00\n        /* \"#utility.yul\":19736:19745   */\n      dup3\n        /* \"#utility.yul\":19732:19749   */\n      add\n        /* \"#utility.yul\":19726:19750   */\n      mload\n        /* \"#utility.yul\":19777:19795   */\n      0xffffffffffffffff\n        /* \"#utility.yul\":19769:19775   */\n      dup2\n        /* \"#utility.yul\":19766:19796   */\n      gt\n        /* \"#utility.yul\":19763:19880   */\n      iszero\n      tag_626\n      jumpi\n        /* \"#utility.yul\":19799:19878   */\n      tag_627\n      tag_335\n      jump\t// in\n    tag_627:\n        /* \"#utility.yul\":19763:19880   */\n    tag_626:\n        /* \"#utility.yul\":19904:19993   */\n      tag_628\n        /* \"#utility.yul\":19985:19992   */\n      dup5\n        /* \"#utility.yul\":19976:19982   */\n      dup3\n        /* \"#utility.yul\":19965:19974   */\n      dup6\n        /* \"#utility.yul\":19961:19983   */\n      add\n        /* \"#utility.yul\":19904:19993   */\n      tag_388\n      jump\t// in\n    tag_628:\n        /* \"#utility.yul\":19894:19993   */\n      swap2\n      pop\n        /* \"#utility.yul\":19697:20003   */\n      pop\n        /* \"#utility.yul\":19456:20010   */\n      swap3\n      swap2\n      pop\n      pop\n      jump\t// out\n        /* \"#utility.yul\":20016:20196   */\n    tag_389:\n        /* \"#utility.yul\":20064:20141   */\n      0x4e487b7100000000000000000000000000000000000000000000000000000000\n        /* \"#utility.yul\":20061:20062   */\n      0x00\n        /* \"#utility.yul\":20054:20142   */\n      mstore\n        /* \"#utility.yul\":20161:20165   */\n      0x11\n        /* \"#utility.yul\":20158:20159   */\n      0x04\n        /* \"#utility.yul\":20151:20166   */\n      mstore\n        /* \"#utility.yul\":20185:20189   */\n      0x24\n        /* \"#utility.yul\":20182:20183   */\n      0x00\n        /* \"#utility.yul\":20175:20190   */\n      revert\n        /* \"#utility.yul\":20202:20612   */\n    tag_146:\n        /* \"#utility.yul\":20242:20249   */\n      0x00\n        /* \"#utility.yul\":20265:20285   */\n      tag_631\n        /* \"#utility.yul\":20283:20284   */\n      dup3\n        /* \"#utility.yul\":20265:20285   */\n      tag_353\n      jump\t// in\n    tag_631:\n        /* \"#utility.yul\":20260:20285   */\n      swap2\n      pop\n        /* \"#utility.yul\":20299:20319   */\n      tag_632\n        /* \"#utility.yul\":20317:20318   */\n      dup4\n        /* \"#utility.yul\":20299:20319   */\n      tag_353\n      jump\t// in\n    tag_632:\n        /* \"#utility.yul\":20294:20319   */\n      swap3\n      pop\n        /* \"#utility.yul\":20354:20355   */\n      dup3\n        /* \"#utility.yul\":20351:20352   */\n      dup3\n        /* \"#utility.yul\":20347:20356   */\n      mul\n        /* \"#utility.yul\":20376:20406   */\n      tag_633\n        /* \"#utility.yul\":20394:20405   */\n      dup2\n        /* \"#utility.yul\":20376:20406   */\n      tag_353\n      jump\t// in\n    tag_633:\n        /* \"#utility.yul\":20365:20406   */\n      swap2\n      pop\n        /* \"#utility.yul\":20555:20556   */\n      dup3\n        /* \"#utility.yul\":20546:20553   */\n      dup3\n        /* \"#utility.yul\":20542:20557   */\n      div\n        /* \"#utility.yul\":20539:20540   */\n      dup5\n        /* \"#utility.yul\":20536:20558   */\n      eq\n        /* \"#utility.yul\":20516:20517   */\n      dup4\n        /* \"#utility.yul\":20509:20518   */\n      iszero\n        /* \"#utility.yul\":20489:20572   */\n      or\n        /* \"#utility.yul\":20466:20605   */\n      tag_634\n      jumpi\n        /* \"#utility.yul\":20585:20603   */\n      tag_635\n      tag_389\n      jump\t// in\n    tag_635:\n        /* \"#utility.yul\":20466:20605   */\n    tag_634:\n        /* \"#utility.yul\":20250:20612   */\n      pop\n        /* \"#utility.yul\":20202:20612   */\n      swap3\n      swap2\n      pop\n      pop\n      jump\t// out\n        /* \"#utility.yul\":20618:20798   */\n    tag_390:\n        /* \"#utility.yul\":20666:20743   */\n      0x4e487b7100000000000000000000000000000000000000000000000000000000\n        /* \"#utility.yul\":20663:20664   */\n      0x00\n        /* \"#utility.yul\":20656:20744   */\n      mstore\n        /* \"#utility.yul\":20763:20767   */\n      0x12\n        /* \"#utility.yul\":20760:20761   */\n      0x04\n        /* \"#utility.yul\":20753:20768   */\n      mstore\n        /* \"#utility.yul\":20787:20791   */\n      0x24\n        /* \"#utility.yul\":20784:20785   */\n      0x00\n        /* \"#utility.yul\":20777:20792   */\n      revert\n        /* \"#utility.yul\":20804:20989   */\n    tag_148:\n        /* \"#utility.yul\":20844:20845   */\n      0x00\n        /* \"#utility.yul\":20861:20881   */\n      tag_638\n        /* \"#utility.yul\":20879:20880   */\n      dup3\n        /* \"#utility.yul\":20861:20881   */\n      tag_353\n      jump\t// in\n    tag_638:\n        /* \"#utility.yul\":20856:20881   */\n      swap2\n      pop\n        /* \"#utility.yul\":20895:20915   */\n      tag_639\n        /* \"#utility.yul\":20913:20914   */\n      dup4\n        /* \"#utility.yul\":20895:20915   */\n      tag_353\n      jump\t// in\n    tag_639:\n        /* \"#utility.yul\":20890:20915   */\n      swap3\n      pop\n        /* \"#utility.yul\":20934:20935   */\n      dup3\n        /* \"#utility.yul\":20924:20959   */\n      tag_640\n      jumpi\n        /* \"#utility.yul\":20939:20957   */\n      tag_641\n      tag_390\n      jump\t// in\n    tag_641:\n        /* \"#utility.yul\":20924:20959   */\n    tag_640:\n        /* \"#utility.yul\":20981:20982   */\n      dup3\n        /* \"#utility.yul\":20978:20979   */\n      dup3\n        /* \"#utility.yul\":20974:20983   */\n      div\n        /* \"#utility.yul\":20969:20983   */\n      swap1\n      pop\n        /* \"#utility.yul\":20804:20989   */\n      swap3\n      swap2\n      pop\n      pop\n      jump\t// out\n        /* \"#utility.yul\":20995:21189   */\n    tag_156:\n        /* \"#utility.yul\":21035:21039   */\n      0x00\n        /* \"#utility.yul\":21055:21075   */\n      tag_643\n        /* \"#utility.yul\":21073:21074   */\n      dup3\n        /* \"#utility.yul\":21055:21075   */\n      tag_353\n      jump\t// in\n    tag_643:\n        /* \"#utility.yul\":21050:21075   */\n      swap2\n      pop\n        /* \"#utility.yul\":21089:21109   */\n      tag_644\n        /* \"#utility.yul\":21107:21108   */\n      dup4\n        /* \"#utility.yul\":21089:21109   */\n      tag_353\n      jump\t// in\n    tag_644:\n        /* \"#utility.yul\":21084:21109   */\n      swap3\n      pop\n        /* \"#utility.yul\":21133:21134   */\n      dup3\n        /* \"#utility.yul\":21130:21131   */\n      dup3\n        /* \"#utility.yul\":21126:21135   */\n      sub\n        /* \"#utility.yul\":21118:21135   */\n      swap1\n      pop\n        /* \"#utility.yul\":21157:21158   */\n      dup2\n        /* \"#utility.yul\":21151:21155   */\n      dup2\n        /* \"#utility.yul\":21148:21159   */\n      gt\n        /* \"#utility.yul\":21145:21182   */\n      iszero\n      tag_645\n      jumpi\n        /* \"#utility.yul\":21162:21180   */\n      tag_646\n      tag_389\n      jump\t// in\n    tag_646:\n        /* \"#utility.yul\":21145:21182   */\n    tag_645:\n        /* \"#utility.yul\":20995:21189   */\n      swap3\n      swap2\n      pop\n      pop\n      jump\t// out\n        /* \"#utility.yul\":21195:21364   */\n    tag_391:\n        /* \"#utility.yul\":21279:21290   */\n      0x00\n        /* \"#utility.yul\":21313:21319   */\n      dup3\n        /* \"#utility.yul\":21308:21311   */\n      dup3\n        /* \"#utility.yul\":21301:21320   */\n      mstore\n        /* \"#utility.yul\":21353:21357   */\n      0x20\n        /* \"#utility.yul\":21348:21351   */\n      dup3\n        /* \"#utility.yul\":21344:21358   */\n      add\n        /* \"#utility.yul\":21329:21358   */\n      swap1\n      pop\n        /* \"#utility.yul\":21195:21364   */\n      swap3\n      swap2\n      pop\n      pop\n      jump\t// out\n        /* \"#utility.yul\":21370:21596   */\n    tag_392:\n        /* \"#utility.yul\":21510:21544   */\n      0x457374696d617465642067617320636f73742065786365656473206d696e416d\n        /* \"#utility.yul\":21506:21507   */\n      0x00\n        /* \"#utility.yul\":21498:21504   */\n      dup3\n        /* \"#utility.yul\":21494:21508   */\n      add\n        /* \"#utility.yul\":21487:21545   */\n      mstore\n        /* \"#utility.yul\":21579:21588   */\n      0x6f756e744f757400000000000000000000000000000000000000000000000000\n        /* \"#utility.yul\":21574:21576   */\n      0x20\n        /* \"#utility.yul\":21566:21572   */\n      dup3\n        /* \"#utility.yul\":21562:21577   */\n      add\n        /* \"#utility.yul\":21555:21589   */\n      mstore\n        /* \"#utility.yul\":21370:21596   */\n      pop\n      jump\t// out\n        /* \"#utility.yul\":21602:21968   */\n    tag_393:\n        /* \"#utility.yul\":21744:21747   */\n      0x00\n        /* \"#utility.yul\":21765:21832   */\n      tag_650\n        /* \"#utility.yul\":21829:21831   */\n      0x27\n        /* \"#utility.yul\":21824:21827   */\n      dup4\n        /* \"#utility.yul\":21765:21832   */\n      tag_391\n      jump\t// in\n    tag_650:\n        /* \"#utility.yul\":21758:21832   */\n      swap2\n      pop\n        /* \"#utility.yul\":21841:21934   */\n      tag_651\n        /* \"#utility.yul\":21930:21933   */\n      dup3\n        /* \"#utility.yul\":21841:21934   */\n      tag_392\n      jump\t// in\n    tag_651:\n        /* \"#utility.yul\":21959:21961   */\n      0x40\n        /* \"#utility.yul\":21954:21957   */\n      dup3\n        /* \"#utility.yul\":21950:21962   */\n      add\n        /* \"#utility.yul\":21943:21962   */\n      swap1\n      pop\n        /* \"#utility.yul\":21602:21968   */\n      swap2\n      swap1\n      pop\n      jump\t// out\n        /* \"#utility.yul\":21974:22393   */\n    tag_164:\n        /* \"#utility.yul\":22140:22144   */\n      0x00\n        /* \"#utility.yul\":22178:22180   */\n      0x20\n        /* \"#utility.yul\":22167:22176   */\n      dup3\n        /* \"#utility.yul\":22163:22181   */\n      add\n        /* \"#utility.yul\":22155:22181   */\n      swap1\n      pop\n        /* \"#utility.yul\":22227:22236   */\n      dup2\n        /* \"#utility.yul\":22221:22225   */\n      dup2\n        /* \"#utility.yul\":22217:22237   */\n      sub\n        /* \"#utility.yul\":22213:22214   */\n      0x00\n        /* \"#utility.yul\":22202:22211   */\n      dup4\n        /* \"#utility.yul\":22198:22215   */\n      add\n        /* \"#utility.yul\":22191:22238   */\n      mstore\n        /* \"#utility.yul\":22255:22386   */\n      tag_653\n        /* \"#utility.yul\":22381:22385   */\n      dup2\n        /* \"#utility.yul\":22255:22386   */\n      tag_393\n      jump\t// in\n    tag_653:\n        /* \"#utility.yul\":22247:22386   */\n      swap1\n      pop\n        /* \"#utility.yul\":21974:22393   */\n      swap2\n      swap1\n      pop\n      jump\t// out\n        /* \"#utility.yul\":22399:22493   */\n    tag_394:\n        /* \"#utility.yul\":22432:22440   */\n      0x00\n        /* \"#utility.yul\":22480:22485   */\n      dup2\n        /* \"#utility.yul\":22476:22478   */\n      0x60\n        /* \"#utility.yul\":22472:22486   */\n      shl\n        /* \"#utility.yul\":22451:22486   */\n      swap1\n      pop\n        /* \"#utility.yul\":22399:22493   */\n      swap2\n      swap1\n      pop\n      jump\t// out\n        /* \"#utility.yul\":22499:22593   */\n    tag_395:\n        /* \"#utility.yul\":22538:22545   */\n      0x00\n        /* \"#utility.yul\":22567:22587   */\n      tag_656\n        /* \"#utility.yul\":22581:22586   */\n      dup3\n        /* \"#utility.yul\":22567:22587   */\n      tag_394\n      jump\t// in\n    tag_656:\n        /* \"#utility.yul\":22556:22587   */\n      swap1\n      pop\n        /* \"#utility.yul\":22499:22593   */\n      swap2\n      swap1\n      pop\n      jump\t// out\n        /* \"#utility.yul\":22599:22699   */\n    tag_396:\n        /* \"#utility.yul\":22638:22645   */\n      0x00\n        /* \"#utility.yul\":22667:22693   */\n      tag_658\n        /* \"#utility.yul\":22687:22692   */\n      dup3\n        /* \"#utility.yul\":22667:22693   */\n      tag_395\n      jump\t// in\n    tag_658:\n        /* \"#utility.yul\":22656:22693   */\n      swap1\n      pop\n        /* \"#utility.yul\":22599:22699   */\n      swap2\n      swap1\n      pop\n      jump\t// out\n        /* \"#utility.yul\":22705:22862   */\n    tag_397:\n        /* \"#utility.yul\":22810:22855   */\n      tag_660\n        /* \"#utility.yul\":22830:22854   */\n      tag_661\n        /* \"#utility.yul\":22848:22853   */\n      dup3\n        /* \"#utility.yul\":22830:22854   */\n      tag_349\n      jump\t// in\n    tag_661:\n        /* \"#utility.yul\":22810:22855   */\n      tag_396\n      jump\t// in\n    tag_660:\n        /* \"#utility.yul\":22805:22808   */\n      dup3\n        /* \"#utility.yul\":22798:22856   */\n      mstore\n        /* \"#utility.yul\":22705:22862   */\n      pop\n      pop\n      jump\t// out\n        /* \"#utility.yul\":22868:22947   */\n    tag_398:\n        /* \"#utility.yul\":22907:22914   */\n      0x00\n        /* \"#utility.yul\":22936:22941   */\n      dup2\n        /* \"#utility.yul\":22925:22941   */\n      swap1\n      pop\n        /* \"#utility.yul\":22868:22947   */\n      swap2\n      swap1\n      pop\n      jump\t// out\n        /* \"#utility.yul\":22953:23110   */\n    tag_399:\n        /* \"#utility.yul\":23058:23103   */\n      tag_664\n        /* \"#utility.yul\":23078:23102   */\n      tag_665\n        /* \"#utility.yul\":23096:23101   */\n      dup3\n        /* \"#utility.yul\":23078:23102   */\n      tag_353\n      jump\t// in\n    tag_665:\n        /* \"#utility.yul\":23058:23103   */\n      tag_398\n      jump\t// in\n    tag_664:\n        /* \"#utility.yul\":23053:23056   */\n      dup3\n        /* \"#utility.yul\":23046:23104   */\n      mstore\n        /* \"#utility.yul\":22953:23110   */\n      pop\n      pop\n      jump\t// out\n        /* \"#utility.yul\":23116:23795   */\n    tag_167:\n        /* \"#utility.yul\":23312:23315   */\n      0x00\n        /* \"#utility.yul\":23327:23402   */\n      tag_667\n        /* \"#utility.yul\":23398:23401   */\n      dup3\n        /* \"#utility.yul\":23389:23395   */\n      dup8\n        /* \"#utility.yul\":23327:23402   */\n      tag_397\n      jump\t// in\n    tag_667:\n        /* \"#utility.yul\":23427:23429   */\n      0x14\n        /* \"#utility.yul\":23422:23425   */\n      dup3\n        /* \"#utility.yul\":23418:23430   */\n      add\n        /* \"#utility.yul\":23411:23430   */\n      swap2\n      pop\n        /* \"#utility.yul\":23440:23515   */\n      tag_668\n        /* \"#utility.yul\":23511:23514   */\n      dup3\n        /* \"#utility.yul\":23502:23508   */\n      dup7\n        /* \"#utility.yul\":23440:23515   */\n      tag_399\n      jump\t// in\n    tag_668:\n        /* \"#utility.yul\":23540:23542   */\n      0x20\n        /* \"#utility.yul\":23535:23538   */\n      dup3\n        /* \"#utility.yul\":23531:23543   */\n      add\n        /* \"#utility.yul\":23524:23543   */\n      swap2\n      pop\n        /* \"#utility.yul\":23553:23628   */\n      tag_669\n        /* \"#utility.yul\":23624:23627   */\n      dup3\n        /* \"#utility.yul\":23615:23621   */\n      dup6\n        /* \"#utility.yul\":23553:23628   */\n      tag_399\n      jump\t// in\n    tag_669:\n        /* \"#utility.yul\":23653:23655   */\n      0x20\n        /* \"#utility.yul\":23648:23651   */\n      dup3\n        /* \"#utility.yul\":23644:23656   */\n      add\n        /* \"#utility.yul\":23637:23656   */\n      swap2\n      pop\n        /* \"#utility.yul\":23666:23741   */\n      tag_670\n        /* \"#utility.yul\":23737:23740   */\n      dup3\n        /* \"#utility.yul\":23728:23734   */\n      dup5\n        /* \"#utility.yul\":23666:23741   */\n      tag_399\n      jump\t// in\n    tag_670:\n        /* \"#utility.yul\":23766:23768   */\n      0x20\n        /* \"#utility.yul\":23761:23764   */\n      dup3\n        /* \"#utility.yul\":23757:23769   */\n      add\n        /* \"#utility.yul\":23750:23769   */\n      swap2\n      pop\n        /* \"#utility.yul\":23786:23789   */\n      dup2\n        /* \"#utility.yul\":23779:23789   */\n      swap1\n      pop\n        /* \"#utility.yul\":23116:23795   */\n      swap6\n      swap5\n      pop\n      pop\n      pop\n      pop\n      pop\n      jump\t// out\n        /* \"#utility.yul\":23801:23968   */\n    tag_400:\n        /* \"#utility.yul\":23941:23960   */\n      0x496e76616c6964207369676e6174757265000000000000000000000000000000\n        /* \"#utility.yul\":23937:23938   */\n      0x00\n        /* \"#utility.yul\":23929:23935   */\n      dup3\n        /* \"#utility.yul\":23925:23939   */\n      add\n        /* \"#utility.yul\":23918:23961   */\n      mstore\n        /* \"#utility.yul\":23801:23968   */\n      pop\n      jump\t// out\n        /* \"#utility.yul\":23974:24340   */\n    tag_401:\n        /* \"#utility.yul\":24116:24119   */\n      0x00\n        /* \"#utility.yul\":24137:24204   */\n      tag_673\n        /* \"#utility.yul\":24201:24203   */\n      0x11\n        /* \"#utility.yul\":24196:24199   */\n      dup4\n        /* \"#utility.yul\":24137:24204   */\n      tag_391\n      jump\t// in\n    tag_673:\n        /* \"#utility.yul\":24130:24204   */\n      swap2\n      pop\n        /* \"#utility.yul\":24213:24306   */\n      tag_674\n        /* \"#utility.yul\":24302:24305   */\n      dup3\n        /* \"#utility.yul\":24213:24306   */\n      tag_400\n      jump\t// in\n    tag_674:\n        /* \"#utility.yul\":24331:24333   */\n      0x20\n        /* \"#utility.yul\":24326:24329   */\n      dup3\n        /* \"#utility.yul\":24322:24334   */\n      add\n        /* \"#utility.yul\":24315:24334   */\n      swap1\n      pop\n        /* \"#utility.yul\":23974:24340   */\n      swap2\n      swap1\n      pop\n      jump\t// out\n        /* \"#utility.yul\":24346:24765   */\n    tag_170:\n        /* \"#utility.yul\":24512:24516   */\n      0x00\n        /* \"#utility.yul\":24550:24552   */\n      0x20\n        /* \"#utility.yul\":24539:24548   */\n      dup3\n        /* \"#utility.yul\":24535:24553   */\n      add\n        /* \"#utility.yul\":24527:24553   */\n      swap1\n      pop\n        /* \"#utility.yul\":24599:24608   */\n      dup2\n        /* \"#utility.yul\":24593:24597   */\n      dup2\n        /* \"#utility.yul\":24589:24609   */\n      sub\n        /* \"#utility.yul\":24585:24586   */\n      0x00\n        /* \"#utility.yul\":24574:24583   */\n      dup4\n        /* \"#utility.yul\":24570:24587   */\n      add\n        /* \"#utility.yul\":24563:24610   */\n      mstore\n        /* \"#utility.yul\":24627:24758   */\n      tag_676\n        /* \"#utility.yul\":24753:24757   */\n      dup2\n        /* \"#utility.yul\":24627:24758   */\n      tag_401\n      jump\t// in\n    tag_676:\n        /* \"#utility.yul\":24619:24758   */\n      swap1\n      pop\n        /* \"#utility.yul\":24346:24765   */\n      swap2\n      swap1\n      pop\n      jump\t// out\n        /* \"#utility.yul\":24771:24942   */\n    tag_402:\n        /* \"#utility.yul\":24911:24934   */\n      0x5377617020457870656374656420746f206661696c0000000000000000000000\n        /* \"#utility.yul\":24907:24908   */\n      0x00\n        /* \"#utility.yul\":24899:24905   */\n      dup3\n        /* \"#utility.yul\":24895:24909   */\n      add\n        /* \"#utility.yul\":24888:24935   */\n      mstore\n        /* \"#utility.yul\":24771:24942   */\n      pop\n      jump\t// out\n        /* \"#utility.yul\":24948:25314   */\n    tag_403:\n        /* \"#utility.yul\":25090:25093   */\n      0x00\n        /* \"#utility.yul\":25111:25178   */\n      tag_679\n        /* \"#utility.yul\":25175:25177   */\n      0x15\n        /* \"#utility.yul\":25170:25173   */\n      dup4\n        /* \"#utility.yul\":25111:25178   */\n      tag_391\n      jump\t// in\n    tag_679:\n        /* \"#utility.yul\":25104:25178   */\n      swap2\n      pop\n        /* \"#utility.yul\":25187:25280   */\n      tag_680\n        /* \"#utility.yul\":25276:25279   */\n      dup3\n        /* \"#utility.yul\":25187:25280   */\n      tag_402\n      jump\t// in\n    tag_680:\n        /* \"#utility.yul\":25305:25307   */\n      0x20\n        /* \"#utility.yul\":25300:25303   */\n      dup3\n        /* \"#utility.yul\":25296:25308   */\n      add\n        /* \"#utility.yul\":25289:25308   */\n      swap1\n      pop\n        /* \"#utility.yul\":24948:25314   */\n      swap2\n      swap1\n      pop\n      jump\t// out\n        /* \"#utility.yul\":25320:25739   */\n    tag_185:\n        /* \"#utility.yul\":25486:25490   */\n      0x00\n        /* \"#utility.yul\":25524:25526   */\n      0x20\n        /* \"#utility.yul\":25513:25522   */\n      dup3\n        /* \"#utility.yul\":25509:25527   */\n      add\n        /* \"#utility.yul\":25501:25527   */\n      swap1\n      pop\n        /* \"#utility.yul\":25573:25582   */\n      dup2\n        /* \"#utility.yul\":25567:25571   */\n      dup2\n        /* \"#utility.yul\":25563:25583   */\n      sub\n        /* \"#utility.yul\":25559:25560   */\n      0x00\n        /* \"#utility.yul\":25548:25557   */\n      dup4\n        /* \"#utility.yul\":25544:25561   */\n      add\n        /* \"#utility.yul\":25537:25584   */\n      mstore\n        /* \"#utility.yul\":25601:25732   */\n      tag_682\n        /* \"#utility.yul\":25727:25731   */\n      dup2\n        /* \"#utility.yul\":25601:25732   */\n      tag_403\n      jump\t// in\n    tag_682:\n        /* \"#utility.yul\":25593:25732   */\n      swap1\n      pop\n        /* \"#utility.yul\":25320:25739   */\n      swap2\n      swap1\n      pop\n      jump\t// out\n        /* \"#utility.yul\":25745:25924   */\n    tag_404:\n        /* \"#utility.yul\":25885:25916   */\n      0x457870656374656420676173206d6f7265207468616e2072657475726e000000\n        /* \"#utility.yul\":25881:25882   */\n      0x00\n        /* \"#utility.yul\":25873:25879   */\n      dup3\n        /* \"#utility.yul\":25869:25883   */\n      add\n        /* \"#utility.yul\":25862:25917   */\n      mstore\n        /* \"#utility.yul\":25745:25924   */\n      pop\n      jump\t// out\n        /* \"#utility.yul\":25930:26296   */\n    tag_405:\n        /* \"#utility.yul\":26072:26075   */\n      0x00\n        /* \"#utility.yul\":26093:26160   */\n      tag_685\n        /* \"#utility.yul\":26157:26159   */\n      0x1d\n        /* \"#utility.yul\":26152:26155   */\n      dup4\n        /* \"#utility.yul\":26093:26160   */\n      tag_391\n      jump\t// in\n    tag_685:\n        /* \"#utility.yul\":26086:26160   */\n      swap2\n      pop\n        /* \"#utility.yul\":26169:26262   */\n      tag_686\n        /* \"#utility.yul\":26258:26261   */\n      dup3\n        /* \"#utility.yul\":26169:26262   */\n      tag_404\n      jump\t// in\n    tag_686:\n        /* \"#utility.yul\":26287:26289   */\n      0x20\n        /* \"#utility.yul\":26282:26285   */\n      dup3\n        /* \"#utility.yul\":26278:26290   */\n      add\n        /* \"#utility.yul\":26271:26290   */\n      swap1\n      pop\n        /* \"#utility.yul\":25930:26296   */\n      swap2\n      swap1\n      pop\n      jump\t// out\n        /* \"#utility.yul\":26302:26721   */\n    tag_189:\n        /* \"#utility.yul\":26468:26472   */\n      0x00\n        /* \"#utility.yul\":26506:26508   */\n      0x20\n        /* \"#utility.yul\":26495:26504   */\n      dup3\n        /* \"#utility.yul\":26491:26509   */\n      add\n        /* \"#utility.yul\":26483:26509   */\n      swap1\n      pop\n        /* \"#utility.yul\":26555:26564   */\n      dup2\n        /* \"#utility.yul\":26549:26553   */\n      dup2\n        /* \"#utility.yul\":26545:26565   */\n      sub\n        /* \"#utility.yul\":26541:26542   */\n      0x00\n        /* \"#utility.yul\":26530:26539   */\n      dup4\n        /* \"#utility.yul\":26526:26543   */\n      add\n        /* \"#utility.yul\":26519:26566   */\n      mstore\n        /* \"#utility.yul\":26583:26714   */\n      tag_688\n        /* \"#utility.yul\":26709:26713   */\n      dup2\n        /* \"#utility.yul\":26583:26714   */\n      tag_405\n      jump\t// in\n    tag_688:\n        /* \"#utility.yul\":26575:26714   */\n      swap1\n      pop\n        /* \"#utility.yul\":26302:26721   */\n      swap2\n      swap1\n      pop\n      jump\t// out\n        /* \"#utility.yul\":26727:26956   */\n    tag_406:\n        /* \"#utility.yul\":26867:26901   */\n      0x457870656374656420616d6f756e74206c657373207468616e206d696e696d75\n        /* \"#utility.yul\":26863:26864   */\n      0x00\n        /* \"#utility.yul\":26855:26861   */\n      dup3\n        /* \"#utility.yul\":26851:26865   */\n      add\n        /* \"#utility.yul\":26844:26902   */\n      mstore\n        /* \"#utility.yul\":26936:26948   */\n      0x6d20726571756972656400000000000000000000000000000000000000000000\n        /* \"#utility.yul\":26931:26933   */\n      0x20\n        /* \"#utility.yul\":26923:26929   */\n      dup3\n        /* \"#utility.yul\":26919:26934   */\n      add\n        /* \"#utility.yul\":26912:26949   */\n      mstore\n        /* \"#utility.yul\":26727:26956   */\n      pop\n      jump\t// out\n        /* \"#utility.yul\":26962:27328   */\n    tag_407:\n        /* \"#utility.yul\":27104:27107   */\n      0x00\n        /* \"#utility.yul\":27125:27192   */\n      tag_691\n        /* \"#utility.yul\":27189:27191   */\n      0x2a\n        /* \"#utility.yul\":27184:27187   */\n      dup4\n        /* \"#utility.yul\":27125:27192   */\n      tag_391\n      jump\t// in\n    tag_691:\n        /* \"#utility.yul\":27118:27192   */\n      swap2\n      pop\n        /* \"#utility.yul\":27201:27294   */\n      tag_692\n        /* \"#utility.yul\":27290:27293   */\n      dup3\n        /* \"#utility.yul\":27201:27294   */\n      tag_406\n      jump\t// in\n    tag_692:\n        /* \"#utility.yul\":27319:27321   */\n      0x40\n        /* \"#utility.yul\":27314:27317   */\n      dup3\n        /* \"#utility.yul\":27310:27322   */\n      add\n        /* \"#utility.yul\":27303:27322   */\n      swap1\n      pop\n        /* \"#utility.yul\":26962:27328   */\n      swap2\n      swap1\n      pop\n      jump\t// out\n        /* \"#utility.yul\":27334:27753   */\n    tag_192:\n        /* \"#utility.yul\":27500:27504   */\n      0x00\n        /* \"#utility.yul\":27538:27540   */\n      0x20\n        /* \"#utility.yul\":27527:27536   */\n      dup3\n        /* \"#utility.yul\":27523:27541   */\n      add\n        /* \"#utility.yul\":27515:27541   */\n      swap1\n      pop\n        /* \"#utility.yul\":27587:27596   */\n      dup2\n        /* \"#utility.yul\":27581:27585   */\n      dup2\n        /* \"#utility.yul\":27577:27597   */\n      sub\n        /* \"#utility.yul\":27573:27574   */\n      0x00\n        /* \"#utility.yul\":27562:27571   */\n      dup4\n        /* \"#utility.yul\":27558:27575   */\n      add\n        /* \"#utility.yul\":27551:27598   */\n      mstore\n        /* \"#utility.yul\":27615:27746   */\n      tag_694\n        /* \"#utility.yul\":27741:27745   */\n      dup2\n        /* \"#utility.yul\":27615:27746   */\n      tag_407\n      jump\t// in\n    tag_694:\n        /* \"#utility.yul\":27607:27746   */\n      swap1\n      pop\n        /* \"#utility.yul\":27334:27753   */\n      swap2\n      swap1\n      pop\n      jump\t// out\n        /* \"#utility.yul\":27759:27950   */\n    tag_207:\n        /* \"#utility.yul\":27799:27802   */\n      0x00\n        /* \"#utility.yul\":27818:27838   */\n      tag_696\n        /* \"#utility.yul\":27836:27837   */\n      dup3\n        /* \"#utility.yul\":27818:27838   */\n      tag_353\n      jump\t// in\n    tag_696:\n        /* \"#utility.yul\":27813:27838   */\n      swap2\n      pop\n        /* \"#utility.yul\":27852:27872   */\n      tag_697\n        /* \"#utility.yul\":27870:27871   */\n      dup4\n        /* \"#utility.yul\":27852:27872   */\n      tag_353\n      jump\t// in\n    tag_697:\n        /* \"#utility.yul\":27847:27872   */\n      swap3\n      pop\n        /* \"#utility.yul\":27895:27896   */\n      dup3\n        /* \"#utility.yul\":27892:27893   */\n      dup3\n        /* \"#utility.yul\":27888:27897   */\n      add\n        /* \"#utility.yul\":27881:27897   */\n      swap1\n      pop\n        /* \"#utility.yul\":27916:27919   */\n      dup1\n        /* \"#utility.yul\":27913:27914   */\n      dup3\n        /* \"#utility.yul\":27910:27920   */\n      gt\n        /* \"#utility.yul\":27907:27943   */\n      iszero\n      tag_698\n      jumpi\n        /* \"#utility.yul\":27923:27941   */\n      tag_699\n      tag_389\n      jump\t// in\n    tag_699:\n        /* \"#utility.yul\":27907:27943   */\n    tag_698:\n        /* \"#utility.yul\":27759:27950   */\n      swap3\n      swap2\n      pop\n      pop\n      jump\t// out\n        /* \"#utility.yul\":27956:28121   */\n    tag_408:\n        /* \"#utility.yul\":28096:28113   */\n      0x496e76616c696420616464726573730000000000000000000000000000000000\n        /* \"#utility.yul\":28092:28093   */\n      0x00\n        /* \"#utility.yul\":28084:28090   */\n      dup3\n        /* \"#utility.yul\":28080:28094   */\n      add\n        /* \"#utility.yul\":28073:28114   */\n      mstore\n        /* \"#utility.yul\":27956:28121   */\n      pop\n      jump\t// out\n        /* \"#utility.yul\":28127:28493   */\n    tag_409:\n        /* \"#utility.yul\":28269:28272   */\n      0x00\n        /* \"#utility.yul\":28290:28357   */\n      tag_702\n        /* \"#utility.yul\":28354:28356   */\n      0x0f\n        /* \"#utility.yul\":28349:28352   */\n      dup4\n        /* \"#utility.yul\":28290:28357   */\n      tag_391\n      jump\t// in\n    tag_702:\n        /* \"#utility.yul\":28283:28357   */\n      swap2\n      pop\n        /* \"#utility.yul\":28366:28459   */\n      tag_703\n        /* \"#utility.yul\":28455:28458   */\n      dup3\n        /* \"#utility.yul\":28366:28459   */\n      tag_408\n      jump\t// in\n    tag_703:\n        /* \"#utility.yul\":28484:28486   */\n      0x20\n        /* \"#utility.yul\":28479:28482   */\n      dup3\n        /* \"#utility.yul\":28475:28487   */\n      add\n        /* \"#utility.yul\":28468:28487   */\n      swap1\n      pop\n        /* \"#utility.yul\":28127:28493   */\n      swap2\n      swap1\n      pop\n      jump\t// out\n        /* \"#utility.yul\":28499:28918   */\n    tag_243:\n        /* \"#utility.yul\":28665:28669   */\n      0x00\n        /* \"#utility.yul\":28703:28705   */\n      0x20\n        /* \"#utility.yul\":28692:28701   */\n      dup3\n        /* \"#utility.yul\":28688:28706   */\n      add\n        /* \"#utility.yul\":28680:28706   */\n      swap1\n      pop\n        /* \"#utility.yul\":28752:28761   */\n      dup2\n        /* \"#utility.yul\":28746:28750   */\n      dup2\n        /* \"#utility.yul\":28742:28762   */\n      sub\n        /* \"#utility.yul\":28738:28739   */\n      0x00\n        /* \"#utility.yul\":28727:28736   */\n      dup4\n        /* \"#utility.yul\":28723:28740   */\n      add\n        /* \"#utility.yul\":28716:28763   */\n      mstore\n        /* \"#utility.yul\":28780:28911   */\n      tag_705\n        /* \"#utility.yul\":28906:28910   */\n      dup2\n        /* \"#utility.yul\":28780:28911   */\n      tag_409\n      jump\t// in\n    tag_705:\n        /* \"#utility.yul\":28772:28911   */\n      swap1\n      pop\n        /* \"#utility.yul\":28499:28918   */\n      swap2\n      swap1\n      pop\n      jump\t// out\n        /* \"#utility.yul\":28924:29101   */\n    tag_410:\n        /* \"#utility.yul\":29064:29093   */\n      0x4e6f206c697175696469747920666f72207468697320746f6b656e0000000000\n        /* \"#utility.yul\":29060:29061   */\n      0x00\n        /* \"#utility.yul\":29052:29058   */\n      dup3\n        /* \"#utility.yul\":29048:29062   */\n      add\n        /* \"#utility.yul\":29041:29094   */\n      mstore\n        /* \"#utility.yul\":28924:29101   */\n      pop\n      jump\t// out\n        /* \"#utility.yul\":29107:29473   */\n    tag_411:\n        /* \"#utility.yul\":29249:29252   */\n      0x00\n        /* \"#utility.yul\":29270:29337   */\n      tag_708\n        /* \"#utility.yul\":29334:29336   */\n      0x1b\n        /* \"#utility.yul\":29329:29332   */\n      dup4\n        /* \"#utility.yul\":29270:29337   */\n      tag_391\n      jump\t// in\n    tag_708:\n        /* \"#utility.yul\":29263:29337   */\n      swap2\n      pop\n        /* \"#utility.yul\":29346:29439   */\n      tag_709\n        /* \"#utility.yul\":29435:29438   */\n      dup3\n        /* \"#utility.yul\":29346:29439   */\n      tag_410\n      jump\t// in\n    tag_709:\n        /* \"#utility.yul\":29464:29466   */\n      0x20\n        /* \"#utility.yul\":29459:29462   */\n      dup3\n        /* \"#utility.yul\":29455:29467   */\n      add\n        /* \"#utility.yul\":29448:29467   */\n      swap1\n      pop\n        /* \"#utility.yul\":29107:29473   */\n      swap2\n      swap1\n      pop\n      jump\t// out\n        /* \"#utility.yul\":29479:29898   */\n    tag_268:\n        /* \"#utility.yul\":29645:29649   */\n      0x00\n        /* \"#utility.yul\":29683:29685   */\n      0x20\n        /* \"#utility.yul\":29672:29681   */\n      dup3\n        /* \"#utility.yul\":29668:29686   */\n      add\n        /* \"#utility.yul\":29660:29686   */\n      swap1\n      pop\n        /* \"#utility.yul\":29732:29741   */\n      dup2\n        /* \"#utility.yul\":29726:29730   */\n      dup2\n        /* \"#utility.yul\":29722:29742   */\n      sub\n        /* \"#utility.yul\":29718:29719   */\n      0x00\n        /* \"#utility.yul\":29707:29716   */\n      dup4\n        /* \"#utility.yul\":29703:29720   */\n      add\n        /* \"#utility.yul\":29696:29743   */\n      mstore\n        /* \"#utility.yul\":29760:29891   */\n      tag_711\n        /* \"#utility.yul\":29886:29890   */\n      dup2\n        /* \"#utility.yul\":29760:29891   */\n      tag_411\n      jump\t// in\n    tag_711:\n        /* \"#utility.yul\":29752:29891   */\n      swap1\n      pop\n        /* \"#utility.yul\":29479:29898   */\n      swap2\n      swap1\n      pop\n      jump\t// out\n        /* \"#utility.yul\":29904:30387   */\n    tag_314:\n        /* \"#utility.yul\":30075:30079   */\n      0x00\n        /* \"#utility.yul\":30113:30115   */\n      0x40\n        /* \"#utility.yul\":30102:30111   */\n      dup3\n        /* \"#utility.yul\":30098:30116   */\n      add\n        /* \"#utility.yul\":30090:30116   */\n      swap1\n      pop\n        /* \"#utility.yul\":30126:30197   */\n      tag_713\n        /* \"#utility.yul\":30194:30195   */\n      0x00\n        /* \"#utility.yul\":30183:30192   */\n      dup4\n        /* \"#utility.yul\":30179:30196   */\n      add\n        /* \"#utility.yul\":30170:30176   */\n      dup6\n        /* \"#utility.yul\":30126:30197   */\n      tag_356\n      jump\t// in\n    tag_713:\n        /* \"#utility.yul\":30244:30253   */\n      dup2\n        /* \"#utility.yul\":30238:30242   */\n      dup2\n        /* \"#utility.yul\":30234:30254   */\n      sub\n        /* \"#utility.yul\":30229:30231   */\n      0x20\n        /* \"#utility.yul\":30218:30227   */\n      dup4\n        /* \"#utility.yul\":30214:30232   */\n      add\n        /* \"#utility.yul\":30207:30255   */\n      mstore\n        /* \"#utility.yul\":30272:30380   */\n      tag_714\n        /* \"#utility.yul\":30375:30379   */\n      dup2\n        /* \"#utility.yul\":30366:30372   */\n      dup5\n        /* \"#utility.yul\":30272:30380   */\n      tag_383\n      jump\t// in\n    tag_714:\n        /* \"#utility.yul\":30264:30380   */\n      swap1\n      pop\n        /* \"#utility.yul\":29904:30387   */\n      swap4\n      swap3\n      pop\n      pop\n      pop\n      jump\t// out\n\n    auxdata: 0xa264697066735822122059d726e340f6a2dc731ca4fbeb7353eaceac957ec547e398e7fa76978286fcd164736f6c63430008150033\n}\n",
				"bytecode": {
					"linkReferences": {},
					"object": "60806040526102ee6003556204e7946004553480156200001d575f80fd5b5060405162002cce38038062002cce833981810160405281019062000043919062000277565b335f73ffffffffffffffffffffffffffffffffffffffff168173ffffffffffffffffffffffffffffffffffffffff1603620000b7575f6040517f1e4fbdf7000000000000000000000000000000000000000000000000000000008152600401620000ae9190620002cd565b60405180910390fd5b620000c8816200015160201b60201c565b508160015f6101000a81548173ffffffffffffffffffffffffffffffffffffffff021916908373ffffffffffffffffffffffffffffffffffffffff1602179055508060025f6101000a81548173ffffffffffffffffffffffffffffffffffffffff021916908373ffffffffffffffffffffffffffffffffffffffff1602179055505050620002e8565b5f805f9054906101000a900473ffffffffffffffffffffffffffffffffffffffff169050815f806101000a81548173ffffffffffffffffffffffffffffffffffffffff021916908373ffffffffffffffffffffffffffffffffffffffff1602179055508173ffffffffffffffffffffffffffffffffffffffff168173ffffffffffffffffffffffffffffffffffffffff167f8be0079c531659141344cd1fd0a4f28419497f9722a3daafe3b4186f6b6457e060405160405180910390a35050565b5f80fd5b5f73ffffffffffffffffffffffffffffffffffffffff82169050919050565b5f620002418262000216565b9050919050565b620002538162000235565b81146200025e575f80fd5b50565b5f81519050620002718162000248565b92915050565b5f806040838503121562000290576200028f62000212565b5b5f6200029f8582860162000261565b9250506020620002b28582860162000261565b9150509250929050565b620002c78162000235565b82525050565b5f602082019050620002e25f830184620002bc565b92915050565b6129d880620002f65f395ff3fe608060405260043610610108575f3560e01c806398281c7511610094578063b479820911610063578063b47982091461031e578063bea9849e1461035a578063f14210a614610382578063f2fde38b146103aa578063f6326fb3146103d257610108565b806398281c7514610266578063a001ecdd1461028e578063ad9902a1146102b8578063ae06c1b7146102f657610108565b80634e63c29e116100db5780634e63c29e146101aa578063715018a6146101d2578063735de9f7146101e85780638da5cb5b1461021257806393ad74401461023c57610108565b80630f7d8e391461010c5780630fe6a78714610148578063238cb67d14610164578063344954af14610180575b5f80fd5b348015610117575f80fd5b50610132600480360381019061012d9190611c23565b6103dc565b60405161013f9190611cbc565b60405180910390f35b610162600480360381019061015d9190611d32565b61047e565b005b61017e60048036038101906101799190611d82565b610944565b005b34801561018b575f80fd5b50610194611115565b6040516101a19190611e24565b60405180910390f35b3480156101b5575f80fd5b506101d060048036038101906101cb9190611e3d565b61111b565b005b3480156101dd575f80fd5b506101e661120b565b005b3480156101f3575f80fd5b506101fc61121e565b6040516102099190611ec3565b60405180910390f35b34801561021d575f80fd5b50610226611243565b6040516102339190611cbc565b60405180910390f35b348015610247575f80fd5b5061025061126a565b60405161025d9190611efc565b60405180910390f35b348015610271575f80fd5b5061028c60048036038101906102879190611f15565b61128f565b005b348015610299575f80fd5b506102a26112a1565b6040516102af9190611e24565b60405180910390f35b3480156102c3575f80fd5b506102de60048036038101906102d99190611f40565b6112a7565b6040516102ed93929190611fbe565b60405180910390f35b348015610301575f80fd5b5061031c60048036038101906103179190611f15565b6114c9565b005b348015610329575f80fd5b50610344600480360381019061033f9190611d32565b611512565b6040516103519190611ff3565b60405180910390f35b348015610365575f80fd5b50610380600480360381019061037b9190611e3d565b6116ea565b005b34801561038d575f80fd5b506103a860048036038101906103a39190611f15565b6117a3565b005b3480156103b5575f80fd5b506103d060048036038101906103cb9190611e3d565b6117f9565b005b6103da61187d565b005b5f805f80602085015192506040850151915060608501515f1a90505f866040516020016104099190612080565b6040516020818303038152906040528051906020012090505f6001828487876040515f815260200160405260405161044494939291906120cf565b6020604051602081039080840390855afa158015610464573d5f803e3d5ffd5b505050602060405103519050809550505050505092915050565b8273ffffffffffffffffffffffffffffffffffffffff166323b872dd3330856040518463ffffffff1660e01b81526004016104bb93929190612112565b6020604051808303815f875af11580156104d7573d5f803e3d5ffd5b505050506040513d601f19601f820116820180604052508101906104fb9190612171565b508273ffffffffffffffffffffffffffffffffffffffff1663095ea7b360015f9054906101000a900473ffffffffffffffffffffffffffffffffffffffff16846040518363ffffffff1660e01b815260040161055892919061219c565b6020604051808303815f875af1158015610574573d5f803e3d5ffd5b505050506040513d601f19601f820116820180604052508101906105989190612171565b505f600267ffffffffffffffff8111156105b5576105b4611aff565b5b6040519080825280602002602001820160405280156105e35781602001602082028036833780820191505090505b50905083815f815181106105fa576105f96121c3565b5b602002602001019073ffffffffffffffffffffffffffffffffffffffff16908173ffffffffffffffffffffffffffffffffffffffff168152505060015f9054906101000a900473ffffffffffffffffffffffffffffffffffffffff1673ffffffffffffffffffffffffffffffffffffffff1663ad5c46486040518163ffffffff1660e01b8152600401602060405180830381865afa15801561069e573d5f803e3d5ffd5b505050506040513d601f19601f820116820180604052508101906106c29190612204565b816001815181106106d6576106d56121c3565b5b602002602001019073ffffffffffffffffffffffffffffffffffffffff16908173ffffffffffffffffffffffffffffffffffffffff16815250505f60015f9054906101000a900473ffffffffffffffffffffffffffffffffffffffff1673ffffffffffffffffffffffffffffffffffffffff166318cbafe585858530426040518663ffffffff1660e01b81526004016107739594939291906122e6565b5f604051808303815f875af115801561078e573d5f803e3d5ffd5b505050506040513d5f823e3d601f19601f820116820180604052508101906107b69190612416565b90505f816001815181106107cd576107cc6121c3565b5b602002602001015190505f612710600354836107e9919061248a565b6107f391906124f8565b90505f6064605a83610805919061248a565b61080f91906124f8565b905060025f9054906101000a900473ffffffffffffffffffffffffffffffffffffffff1673ffffffffffffffffffffffffffffffffffffffff1663099da9e9826040518263ffffffff1660e01b815260040161086b9190611e24565b5f604051808303815f87803b158015610882575f80fd5b505af1158015610894573d5f803e3d5ffd5b505050505f82846108a59190612528565b90503373ffffffffffffffffffffffffffffffffffffffff166108fc8290811502906040515f60405180830381858888f193505050501580156108ea573d5f803e3d5ffd5b503373ffffffffffffffffffffffffffffffffffffffff167ff12a93b520e347a9f6fac0d0eadf4603283511a046afe4ce7758c144fcb80065856040516109319190611e24565b60405180910390a2505050505050505050565b5f5a90505f3a600454610957919061248a565b905084811061099b576040517f08c379a0000000000000000000000000000000000000000000000000000000008152600401610992906125db565b60405180910390fd5b5f6109d2888888876040516020016109b6949392919061265e565b60405160208183030381529060405280519060200120866103dc565b90508073ffffffffffffffffffffffffffffffffffffffff167f391f5edd7209ba797e8055bce97cab2d1a480a2849b0c7fe965c370457166dc460405160405180910390a25f73ffffffffffffffffffffffffffffffffffffffff168173ffffffffffffffffffffffffffffffffffffffff1603610a85576040517f08c379a0000000000000000000000000000000000000000000000000000000008152600401610a7c906126f5565b60405180910390fd5b5f600267ffffffffffffffff811115610aa157610aa0611aff565b5b604051908082528060200260200182016040528015610acf5781602001602082028036833780820191505090505b50905088815f81518110610ae657610ae56121c3565b5b602002602001019073ffffffffffffffffffffffffffffffffffffffff16908173ffffffffffffffffffffffffffffffffffffffff168152505060015f9054906101000a900473ffffffffffffffffffffffffffffffffffffffff1673ffffffffffffffffffffffffffffffffffffffff1663ad5c46486040518163ffffffff1660e01b8152600401602060405180830381865afa158015610b8a573d5f803e3d5ffd5b505050506040513d601f19601f82011682018060405250810190610bae9190612204565b81600181518110610bc257610bc16121c3565b5b602002602001019073ffffffffffffffffffffffffffffffffffffffff16908173ffffffffffffffffffffffffffffffffffffffff16815250505f80610c088a8461187f565b9150915081610c4c576040517f08c379a0000000000000000000000000000000000000000000000000000000008152600401610c439061275d565b60405180910390fd5b803a600454610c5b919061248a565b10610c9b576040517f08c379a0000000000000000000000000000000000000000000000000000000008152600401610c92906127c5565b60405180910390fd5b88811015610cde576040517f08c379a0000000000000000000000000000000000000000000000000000000008152600401610cd590612853565b60405180910390fd5b8a73ffffffffffffffffffffffffffffffffffffffff166323b872dd85308d6040518463ffffffff1660e01b8152600401610d1b93929190612112565b6020604051808303815f875af1158015610d37573d5f803e3d5ffd5b505050506040513d601f19601f82011682018060405250810190610d5b9190612171565b508a73ffffffffffffffffffffffffffffffffffffffff1663095ea7b360015f9054906101000a900473ffffffffffffffffffffffffffffffffffffffff168c6040518363ffffffff1660e01b8152600401610db892919061219c565b6020604051808303815f875af1158015610dd4573d5f803e3d5ffd5b505050506040513d601f19601f82011682018060405250810190610df89190612171565b505f60015f9054906101000a900473ffffffffffffffffffffffffffffffffffffffff1673ffffffffffffffffffffffffffffffffffffffff166318cbafe58c8c8730426040518663ffffffff1660e01b8152600401610e5c9594939291906122e6565b5f604051808303815f875af1158015610e77573d5f803e3d5ffd5b505050506040513d5f823e3d601f19601f82011682018060405250810190610e9f9190612416565b90503a620186a05a89610eb29190612528565b610ebc9190612871565b610ec6919061248a565b96503373ffffffffffffffffffffffffffffffffffffffff166108fc8890811502906040515f60405180830381858888f19350505050158015610f0b573d5f803e3d5ffd5b505f8782600181518110610f2257610f216121c3565b5b6020026020010151610f349190612528565b90505f8b8411610f44575f610f51565b8b84610f509190612528565b5b90505f848311610f61575f610f6e565b8483610f6d9190612528565b5b90505f6064602883610f80919061248a565b610f8a91906124f8565b612710600354848688610f9d9190612528565b610fa79190612528565b610fb1919061248a565b610fbb91906124f8565b610fc59190612871565b905060025f9054906101000a900473ffffffffffffffffffffffffffffffffffffffff1673ffffffffffffffffffffffffffffffffffffffff1663099da9e96064605a84611013919061248a565b61101d91906124f8565b6040518263ffffffff1660e01b81526004016110399190611e24565b5f604051808303815f87803b158015611050575f80fd5b505af1158015611062573d5f803e3d5ffd5b505050508873ffffffffffffffffffffffffffffffffffffffff166108fc828661108c9190612528565b90811502906040515f60405180830381858888f193505050501580156110b4573d5f803e3d5ffd5b508873ffffffffffffffffffffffffffffffffffffffff167ff12a93b520e347a9f6fac0d0eadf4603283511a046afe4ce7758c144fcb80065856040516110fb9190611e24565b60405180910390a250505050505050505050505050505050565b60045481565b611123611954565b5f73ffffffffffffffffffffffffffffffffffffffff168173ffffffffffffffffffffffffffffffffffffffff1603611191576040517f08c379a0000000000000000000000000000000000000000000000000000000008152600401611188906128ee565b60405180910390fd5b8060025f6101000a81548173ffffffffffffffffffffffffffffffffffffffff021916908373ffffffffffffffffffffffffffffffffffffffff1602179055507fecb9755730c832a50c16ea8001a277be77d816b09dc686fe072d4f2285e5cece816040516112009190611cbc565b60405180910390a150565b611213611954565b61121c5f6119db565b565b60015f9054906101000a900473ffffffffffffffffffffffffffffffffffffffff1681565b5f805f9054906101000a900473ffffffffffffffffffffffffffffffffffffffff16905090565b60025f9054906101000a900473ffffffffffffffffffffffffffffffffffffffff1681565b611297611954565b8060048190555050565b60035481565b5f805f80600267ffffffffffffffff8111156112c6576112c5611aff565b5b6040519080825280602002602001820160405280156112f45781602001602082028036833780820191505090505b50905087815f8151811061130b5761130a6121c3565b5b602002602001019073ffffffffffffffffffffffffffffffffffffffff16908173ffffffffffffffffffffffffffffffffffffffff168152505060015f9054906101000a900473ffffffffffffffffffffffffffffffffffffffff1673ffffffffffffffffffffffffffffffffffffffff1663ad5c46486040518163ffffffff1660e01b8152600401602060405180830381865afa1580156113af573d5f803e3d5ffd5b505050506040513d601f19601f820116820180604052508101906113d39190612204565b816001815181106113e7576113e66121c3565b5b602002602001019073ffffffffffffffffffffffffffffffffffffffff16908173ffffffffffffffffffffffffffffffffffffffff16815250505f8061142d898461187f565b9150915081611471576040517f08c379a000000000000000000000000000000000000000000000000000000000815260040161146890612956565b60405180910390fd5b612710886127106114829190612528565b8261148d919061248a565b61149791906124f8565b9550866004546114a7919061248a565b945085856114b68c8c8b611512565b9550955095505050509450945094915050565b6114d1611954565b806003819055507f8c4d35e54a3f2ef1134138fd8ea3daee6a3c89e10d2665996babdf70261e2c76816040516115079190611e24565b60405180910390a150565b5f80600267ffffffffffffffff81111561152f5761152e611aff565b5b60405190808252806020026020018201604052801561155d5781602001602082028036833780820191505090505b50905084815f81518110611574576115736121c3565b5b602002602001019073ffffffffffffffffffffffffffffffffffffffff16908173ffffffffffffffffffffffffffffffffffffffff168152505060015f9054906101000a900473ffffffffffffffffffffffffffffffffffffffff1673ffffffffffffffffffffffffffffffffffffffff1663ad5c46486040518163ffffffff1660e01b8152600401602060405180830381865afa158015611618573d5f803e3d5ffd5b505050506040513d601f19601f8201168201806040525081019061163c9190612204565b816001815181106116505761164f6121c3565b5b602002602001019073ffffffffffffffffffffffffffffffffffffffff16908173ffffffffffffffffffffffffffffffffffffffff16815250505f80611696868461187f565b915091508115806116a657505f81145b156116b6575f93505050506116e3565b5f856004546116c5919061248a565b90508181106116da575f9450505050506116e3565b60019450505050505b9392505050565b6116f2611954565b5f73ffffffffffffffffffffffffffffffffffffffff168173ffffffffffffffffffffffffffffffffffffffff1603611760576040517f08c379a0000000000000000000000000000000000000000000000000000000008152600401611757906128ee565b60405180910390fd5b8060015f6101000a81548173ffffffffffffffffffffffffffffffffffffffff021916908373ffffffffffffffffffffffffffffffffffffffff16021790555050565b6117ab611954565b6117b3611243565b73ffffffffffffffffffffffffffffffffffffffff166108fc8290811502906040515f60405180830381858888f193505050501580156117f5573d5f803e3d5ffd5b5050565b611801611954565b5f73ffffffffffffffffffffffffffffffffffffffff168173ffffffffffffffffffffffffffffffffffffffff1603611871575f6040517f1e4fbdf70000000000000000000000000000000000000000000000000000000081526004016118689190611cbc565b60405180910390fd5b61187a816119db565b50565b565b5f8060015f9054906101000a900473ffffffffffffffffffffffffffffffffffffffff1673ffffffffffffffffffffffffffffffffffffffff1663d06ca61f85856040518363ffffffff1660e01b81526004016118dd929190612974565b5f60405180830381865afa92505050801561191a57506040513d5f823e3d601f19601f820116820180604052508101906119179190612416565b60015b611929575f809150915061194d565b60018160018151811061193f5761193e6121c3565b5b602002602001015192509250505b9250929050565b61195c611a9c565b73ffffffffffffffffffffffffffffffffffffffff1661197a611243565b73ffffffffffffffffffffffffffffffffffffffff16146119d95761199d611a9c565b6040517f118cdaa70000000000000000000000000000000000000000000000000000000081526004016119d09190611cbc565b60405180910390fd5b565b5f805f9054906101000a900473ffffffffffffffffffffffffffffffffffffffff169050815f806101000a81548173ffffffffffffffffffffffffffffffffffffffff021916908373ffffffffffffffffffffffffffffffffffffffff1602179055508173ffffffffffffffffffffffffffffffffffffffff168173ffffffffffffffffffffffffffffffffffffffff167f8be0079c531659141344cd1fd0a4f28419497f9722a3daafe3b4186f6b6457e060405160405180910390a35050565b5f33905090565b5f604051905090565b5f80fd5b5f80fd5b5f819050919050565b611ac681611ab4565b8114611ad0575f80fd5b50565b5f81359050611ae181611abd565b92915050565b5f80fd5b5f80fd5b5f601f19601f8301169050919050565b7f4e487b71000000000000000000000000000000000000000000000000000000005f52604160045260245ffd5b611b3582611aef565b810181811067ffffffffffffffff82111715611b5457611b53611aff565b5b80604052505050565b5f611b66611aa3565b9050611b728282611b2c565b919050565b5f67ffffffffffffffff821115611b9157611b90611aff565b5b611b9a82611aef565b9050602081019050919050565b828183375f83830152505050565b5f611bc7611bc284611b77565b611b5d565b905082815260208101848484011115611be357611be2611aeb565b5b611bee848285611ba7565b509392505050565b5f82601f830112611c0a57611c09611ae7565b5b8135611c1a848260208601611bb5565b91505092915050565b5f8060408385031215611c3957611c38611aac565b5b5f611c4685828601611ad3565b925050602083013567ffffffffffffffff811115611c6757611c66611ab0565b5b611c7385828601611bf6565b9150509250929050565b5f73ffffffffffffffffffffffffffffffffffffffff82169050919050565b5f611ca682611c7d565b9050919050565b611cb681611c9c565b82525050565b5f602082019050611ccf5f830184611cad565b92915050565b611cde81611c9c565b8114611ce8575f80fd5b50565b5f81359050611cf981611cd5565b92915050565b5f819050919050565b611d1181611cff565b8114611d1b575f80fd5b50565b5f81359050611d2c81611d08565b92915050565b5f805f60608486031215611d4957611d48611aac565b5b5f611d5686828701611ceb565b9350506020611d6786828701611d1e565b9250506040611d7886828701611d1e565b9150509250925092565b5f805f805f60a08688031215611d9b57611d9a611aac565b5b5f611da888828901611ceb565b9550506020611db988828901611d1e565b9450506040611dca88828901611d1e565b935050606086013567ffffffffffffffff811115611deb57611dea611ab0565b5b611df788828901611bf6565b9250506080611e0888828901611d1e565b9150509295509295909350565b611e1e81611cff565b82525050565b5f602082019050611e375f830184611e15565b92915050565b5f60208284031215611e5257611e51611aac565b5b5f611e5f84828501611ceb565b91505092915050565b5f819050919050565b5f611e8b611e86611e8184611c7d565b611e68565b611c7d565b9050919050565b5f611e9c82611e71565b9050919050565b5f611ead82611e92565b9050919050565b611ebd81611ea3565b82525050565b5f602082019050611ed65f830184611eb4565b92915050565b5f611ee682611e92565b9050919050565b611ef681611edc565b82525050565b5f602082019050611f0f5f830184611eed565b92915050565b5f60208284031215611f2a57611f29611aac565b5b5f611f3784828501611d1e565b91505092915050565b5f805f8060808587031215611f5857611f57611aac565b5b5f611f6587828801611ceb565b9450506020611f7687828801611d1e565b9350506040611f8787828801611d1e565b9250506060611f9887828801611d1e565b91505092959194509250565b5f8115159050919050565b611fb881611fa4565b82525050565b5f606082019050611fd15f830186611e15565b611fde6020830185611e15565b611feb6040830184611faf565b949350505050565b5f6020820190506120065f830184611faf565b92915050565b5f81905092915050565b7f19457468657265756d205369676e6564204d6573736167653a0a3332000000005f82015250565b5f61204a601c8361200c565b915061205582612016565b601c82019050919050565b5f819050919050565b61207a61207582611ab4565b612060565b82525050565b5f61208a8261203e565b91506120968284612069565b60208201915081905092915050565b6120ae81611ab4565b82525050565b5f60ff82169050919050565b6120c9816120b4565b82525050565b5f6080820190506120e25f8301876120a5565b6120ef60208301866120c0565b6120fc60408301856120a5565b61210960608301846120a5565b95945050505050565b5f6060820190506121255f830186611cad565b6121326020830185611cad565b61213f6040830184611e15565b949350505050565b61215081611fa4565b811461215a575f80fd5b50565b5f8151905061216b81612147565b92915050565b5f6020828403121561218657612185611aac565b5b5f6121938482850161215d565b91505092915050565b5f6040820190506121af5f830185611cad565b6121bc6020830184611e15565b9392505050565b7f4e487b71000000000000000000000000000000000000000000000000000000005f52603260045260245ffd5b5f815190506121fe81611cd5565b92915050565b5f6020828403121561221957612218611aac565b5b5f612226848285016121f0565b91505092915050565b5f81519050919050565b5f82825260208201905092915050565b5f819050602082019050919050565b61226181611c9c565b82525050565b5f6122728383612258565b60208301905092915050565b5f602082019050919050565b5f6122948261222f565b61229e8185612239565b93506122a983612249565b805f5b838110156122d95781516122c08882612267565b97506122cb8361227e565b9250506001810190506122ac565b5085935050505092915050565b5f60a0820190506122f95f830188611e15565b6123066020830187611e15565b8181036040830152612318818661228a565b90506123276060830185611cad565b6123346080830184611e15565b9695505050505050565b5f67ffffffffffffffff82111561235857612357611aff565b5b602082029050602081019050919050565b5f80fd5b5f8151905061237b81611d08565b92915050565b5f61239361238e8461233e565b611b5d565b905080838252602082019050602084028301858111156123b6576123b5612369565b5b835b818110156123df57806123cb888261236d565b8452602084019350506020810190506123b8565b5050509392505050565b5f82601f8301126123fd576123fc611ae7565b5b815161240d848260208601612381565b91505092915050565b5f6020828403121561242b5761242a611aac565b5b5f82015167ffffffffffffffff81111561244857612447611ab0565b5b612454848285016123e9565b91505092915050565b7f4e487b71000000000000000000000000000000000000000000000000000000005f52601160045260245ffd5b5f61249482611cff565b915061249f83611cff565b92508282026124ad81611cff565b915082820484148315176124c4576124c361245d565b5b5092915050565b7f4e487b71000000000000000000000000000000000000000000000000000000005f52601260045260245ffd5b5f61250282611cff565b915061250d83611cff565b92508261251d5761251c6124cb565b5b828204905092915050565b5f61253282611cff565b915061253d83611cff565b92508282039050818111156125555761255461245d565b5b92915050565b5f82825260208201905092915050565b7f457374696d617465642067617320636f73742065786365656473206d696e416d5f8201527f6f756e744f757400000000000000000000000000000000000000000000000000602082015250565b5f6125c560278361255b565b91506125d08261256b565b604082019050919050565b5f6020820190508181035f8301526125f2816125b9565b9050919050565b5f8160601b9050919050565b5f61260f826125f9565b9050919050565b5f61262082612605565b9050919050565b61263861263382611c9c565b612616565b82525050565b5f819050919050565b61265861265382611cff565b61263e565b82525050565b5f6126698287612627565b6014820191506126798286612647565b6020820191506126898285612647565b6020820191506126998284612647565b60208201915081905095945050505050565b7f496e76616c6964207369676e61747572650000000000000000000000000000005f82015250565b5f6126df60118361255b565b91506126ea826126ab565b602082019050919050565b5f6020820190508181035f83015261270c816126d3565b9050919050565b7f5377617020457870656374656420746f206661696c00000000000000000000005f82015250565b5f61274760158361255b565b915061275282612713565b602082019050919050565b5f6020820190508181035f8301526127748161273b565b9050919050565b7f457870656374656420676173206d6f7265207468616e2072657475726e0000005f82015250565b5f6127af601d8361255b565b91506127ba8261277b565b602082019050919050565b5f6020820190508181035f8301526127dc816127a3565b9050919050565b7f457870656374656420616d6f756e74206c657373207468616e206d696e696d755f8201527f6d20726571756972656400000000000000000000000000000000000000000000602082015250565b5f61283d602a8361255b565b9150612848826127e3565b604082019050919050565b5f6020820190508181035f83015261286a81612831565b9050919050565b5f61287b82611cff565b915061288683611cff565b925082820190508082111561289e5761289d61245d565b5b92915050565b7f496e76616c6964206164647265737300000000000000000000000000000000005f82015250565b5f6128d8600f8361255b565b91506128e3826128a4565b602082019050919050565b5f6020820190508181035f830152612905816128cc565b9050919050565b7f4e6f206c697175696469747920666f72207468697320746f6b656e00000000005f82015250565b5f612940601b8361255b565b915061294b8261290c565b602082019050919050565b5f6020820190508181035f83015261296d81612934565b9050919050565b5f6040820190506129875f830185611e15565b8181036020830152612999818461228a565b9050939250505056fea264697066735822122059d726e340f6a2dc731ca4fbeb7353eaceac957ec547e398e7fa76978286fcd164736f6c63430008150033",
					"opcodes": "PUSH1 0x80 PUSH1 0x40 MSTORE PUSH2 0x2EE PUSH1 0x3 SSTORE PUSH3 0x4E794 PUSH1 0x4 SSTORE CALLVALUE DUP1 ISZERO PUSH3 0x1D JUMPI PUSH0 DUP1 REVERT JUMPDEST POP PUSH1 0x40 MLOAD PUSH3 0x2CCE CODESIZE SUB DUP1 PUSH3 0x2CCE DUP4 CODECOPY DUP2 DUP2 ADD PUSH1 0x40 MSTORE DUP2 ADD SWAP1 PUSH3 0x43 SWAP2 SWAP1 PUSH3 0x277 JUMP JUMPDEST CALLER PUSH0 PUSH20 0xFFFFFFFFFFFFFFFFFFFFFFFFFFFFFFFFFFFFFFFF AND DUP2 PUSH20 0xFFFFFFFFFFFFFFFFFFFFFFFFFFFFFFFFFFFFFFFF AND SUB PUSH3 0xB7 JUMPI PUSH0 PUSH1 0x40 MLOAD PUSH32 0x1E4FBDF700000000000000000000000000000000000000000000000000000000 DUP2 MSTORE PUSH1 0x4 ADD PUSH3 0xAE SWAP2 SWAP1 PUSH3 0x2CD JUMP JUMPDEST PUSH1 0x40 MLOAD DUP1 SWAP2 SUB SWAP1 REVERT JUMPDEST PUSH3 0xC8 DUP2 PUSH3 0x151 PUSH1 0x20 SHL PUSH1 0x20 SHR JUMP JUMPDEST POP DUP2 PUSH1 0x1 PUSH0 PUSH2 0x100 EXP DUP2 SLOAD DUP2 PUSH20 0xFFFFFFFFFFFFFFFFFFFFFFFFFFFFFFFFFFFFFFFF MUL NOT AND SWAP1 DUP4 PUSH20 0xFFFFFFFFFFFFFFFFFFFFFFFFFFFFFFFFFFFFFFFF AND MUL OR SWAP1 SSTORE POP DUP1 PUSH1 0x2 PUSH0 PUSH2 0x100 EXP DUP2 SLOAD DUP2 PUSH20 0xFFFFFFFFFFFFFFFFFFFFFFFFFFFFFFFFFFFFFFFF MUL NOT AND SWAP1 DUP4 PUSH20 0xFFFFFFFFFFFFFFFFFFFFFFFFFFFFFFFFFFFFFFFF AND MUL OR SWAP1 SSTORE POP POP POP PUSH3 0x2E8 JUMP JUMPDEST PUSH0 DUP1 PUSH0 SWAP1 SLOAD SWAP1 PUSH2 0x100 EXP SWAP1 DIV PUSH20 0xFFFFFFFFFFFFFFFFFFFFFFFFFFFFFFFFFFFFFFFF AND SWAP1 POP DUP2 PUSH0 DUP1 PUSH2 0x100 EXP DUP2 SLOAD DUP2 PUSH20 0xFFFFFFFFFFFFFFFFFFFFFFFFFFFFFFFFFFFFFFFF MUL NOT AND SWAP1 DUP4 PUSH20 0xFFFFFFFFFFFFFFFFFFFFFFFFFFFFFFFFFFFFFFFF AND MUL OR SWAP1 SSTORE POP DUP2 PUSH20 0xFFFFFFFFFFFFFFFFFFFFFFFFFFFFFFFFFFFFFFFF AND DUP2 PUSH20 0xFFFFFFFFFFFFFFFFFFFFFFFFFFFFFFFFFFFFFFFF AND PUSH32 0x8BE0079C531659141344CD1FD0A4F28419497F9722A3DAAFE3B4186F6B6457E0 PUSH1 0x40 MLOAD PUSH1 0x40 MLOAD DUP1 SWAP2 SUB SWAP1 LOG3 POP POP JUMP JUMPDEST PUSH0 DUP1 REVERT JUMPDEST PUSH0 PUSH20 0xFFFFFFFFFFFFFFFFFFFFFFFFFFFFFFFFFFFFFFFF DUP3 AND SWAP1 POP SWAP2 SWAP1 POP JUMP JUMPDEST PUSH0 PUSH3 0x241 DUP3 PUSH3 0x216 JUMP JUMPDEST SWAP1 POP SWAP2 SWAP1 POP JUMP JUMPDEST PUSH3 0x253 DUP2 PUSH3 0x235 JUMP JUMPDEST DUP2 EQ PUSH3 0x25E JUMPI PUSH0 DUP1 REVERT JUMPDEST POP JUMP JUMPDEST PUSH0 DUP2 MLOAD SWAP1 POP PUSH3 0x271 DUP2 PUSH3 0x248 JUMP JUMPDEST SWAP3 SWAP2 POP POP JUMP JUMPDEST PUSH0 DUP1 PUSH1 0x40 DUP4 DUP6 SUB SLT ISZERO PUSH3 0x290 JUMPI PUSH3 0x28F PUSH3 0x212 JUMP JUMPDEST JUMPDEST PUSH0 PUSH3 0x29F DUP6 DUP3 DUP7 ADD PUSH3 0x261 JUMP JUMPDEST SWAP3 POP POP PUSH1 0x20 PUSH3 0x2B2 DUP6 DUP3 DUP7 ADD PUSH3 0x261 JUMP JUMPDEST SWAP2 POP POP SWAP3 POP SWAP3 SWAP1 POP JUMP JUMPDEST PUSH3 0x2C7 DUP2 PUSH3 0x235 JUMP JUMPDEST DUP3 MSTORE POP POP JUMP JUMPDEST PUSH0 PUSH1 0x20 DUP3 ADD SWAP1 POP PUSH3 0x2E2 PUSH0 DUP4 ADD DUP5 PUSH3 0x2BC JUMP JUMPDEST SWAP3 SWAP2 POP POP JUMP JUMPDEST PUSH2 0x29D8 DUP1 PUSH3 0x2F6 PUSH0 CODECOPY PUSH0 RETURN INVALID PUSH1 0x80 PUSH1 0x40 MSTORE PUSH1 0x4 CALLDATASIZE LT PUSH2 0x108 JUMPI PUSH0 CALLDATALOAD PUSH1 0xE0 SHR DUP1 PUSH4 0x98281C75 GT PUSH2 0x94 JUMPI DUP1 PUSH4 0xB4798209 GT PUSH2 0x63 JUMPI DUP1 PUSH4 0xB4798209 EQ PUSH2 0x31E JUMPI DUP1 PUSH4 0xBEA9849E EQ PUSH2 0x35A JUMPI DUP1 PUSH4 0xF14210A6 EQ PUSH2 0x382 JUMPI DUP1 PUSH4 0xF2FDE38B EQ PUSH2 0x3AA JUMPI DUP1 PUSH4 0xF6326FB3 EQ PUSH2 0x3D2 JUMPI PUSH2 0x108 JUMP JUMPDEST DUP1 PUSH4 0x98281C75 EQ PUSH2 0x266 JUMPI DUP1 PUSH4 0xA001ECDD EQ PUSH2 0x28E JUMPI DUP1 PUSH4 0xAD9902A1 EQ PUSH2 0x2B8 JUMPI DUP1 PUSH4 0xAE06C1B7 EQ PUSH2 0x2F6 JUMPI PUSH2 0x108 JUMP JUMPDEST DUP1 PUSH4 0x4E63C29E GT PUSH2 0xDB JUMPI DUP1 PUSH4 0x4E63C29E EQ PUSH2 0x1AA JUMPI DUP1 PUSH4 0x715018A6 EQ PUSH2 0x1D2 JUMPI DUP1 PUSH4 0x735DE9F7 EQ PUSH2 0x1E8 JUMPI DUP1 PUSH4 0x8DA5CB5B EQ PUSH2 0x212 JUMPI DUP1 PUSH4 0x93AD7440 EQ PUSH2 0x23C JUMPI PUSH2 0x108 JUMP JUMPDEST DUP1 PUSH4 0xF7D8E39 EQ PUSH2 0x10C JUMPI DUP1 PUSH4 0xFE6A787 EQ PUSH2 0x148 JUMPI DUP1 PUSH4 0x238CB67D EQ PUSH2 0x164 JUMPI DUP1 PUSH4 0x344954AF EQ PUSH2 0x180 JUMPI JUMPDEST PUSH0 DUP1 REVERT JUMPDEST CALLVALUE DUP1 ISZERO PUSH2 0x117 JUMPI PUSH0 DUP1 REVERT JUMPDEST POP PUSH2 0x132 PUSH1 0x4 DUP1 CALLDATASIZE SUB DUP2 ADD SWAP1 PUSH2 0x12D SWAP2 SWAP1 PUSH2 0x1C23 JUMP JUMPDEST PUSH2 0x3DC JUMP JUMPDEST PUSH1 0x40 MLOAD PUSH2 0x13F SWAP2 SWAP1 PUSH2 0x1CBC JUMP JUMPDEST PUSH1 0x40 MLOAD DUP1 SWAP2 SUB SWAP1 RETURN JUMPDEST PUSH2 0x162 PUSH1 0x4 DUP1 CALLDATASIZE SUB DUP2 ADD SWAP1 PUSH2 0x15D SWAP2 SWAP1 PUSH2 0x1D32 JUMP JUMPDEST PUSH2 0x47E JUMP JUMPDEST STOP JUMPDEST PUSH2 0x17E PUSH1 0x4 DUP1 CALLDATASIZE SUB DUP2 ADD SWAP1 PUSH2 0x179 SWAP2 SWAP1 PUSH2 0x1D82 JUMP JUMPDEST PUSH2 0x944 JUMP JUMPDEST STOP JUMPDEST CALLVALUE DUP1 ISZERO PUSH2 0x18B JUMPI PUSH0 DUP1 REVERT JUMPDEST POP PUSH2 0x194 PUSH2 0x1115 JUMP JUMPDEST PUSH1 0x40 MLOAD PUSH2 0x1A1 SWAP2 SWAP1 PUSH2 0x1E24 JUMP JUMPDEST PUSH1 0x40 MLOAD DUP1 SWAP2 SUB SWAP1 RETURN JUMPDEST CALLVALUE DUP1 ISZERO PUSH2 0x1B5 JUMPI PUSH0 DUP1 REVERT JUMPDEST POP PUSH2 0x1D0 PUSH1 0x4 DUP1 CALLDATASIZE SUB DUP2 ADD SWAP1 PUSH2 0x1CB SWAP2 SWAP1 PUSH2 0x1E3D JUMP JUMPDEST PUSH2 0x111B JUMP JUMPDEST STOP JUMPDEST CALLVALUE DUP1 ISZERO PUSH2 0x1DD JUMPI PUSH0 DUP1 REVERT JUMPDEST POP PUSH2 0x1E6 PUSH2 0x120B JUMP JUMPDEST STOP JUMPDEST CALLVALUE DUP1 ISZERO PUSH2 0x1F3 JUMPI PUSH0 DUP1 REVERT JUMPDEST POP PUSH2 0x1FC PUSH2 0x121E JUMP JUMPDEST PUSH1 0x40 MLOAD PUSH2 0x209 SWAP2 SWAP1 PUSH2 0x1EC3 JUMP JUMPDEST PUSH1 0x40 MLOAD DUP1 SWAP2 SUB SWAP1 RETURN JUMPDEST CALLVALUE DUP1 ISZERO PUSH2 0x21D JUMPI PUSH0 DUP1 REVERT JUMPDEST POP PUSH2 0x226 PUSH2 0x1243 JUMP JUMPDEST PUSH1 0x40 MLOAD PUSH2 0x233 SWAP2 SWAP1 PUSH2 0x1CBC JUMP JUMPDEST PUSH1 0x40 MLOAD DUP1 SWAP2 SUB SWAP1 RETURN JUMPDEST CALLVALUE DUP1 ISZERO PUSH2 0x247 JUMPI PUSH0 DUP1 REVERT JUMPDEST POP PUSH2 0x250 PUSH2 0x126A JUMP JUMPDEST PUSH1 0x40 MLOAD PUSH2 0x25D SWAP2 SWAP1 PUSH2 0x1EFC JUMP JUMPDEST PUSH1 0x40 MLOAD DUP1 SWAP2 SUB SWAP1 RETURN JUMPDEST CALLVALUE DUP1 ISZERO PUSH2 0x271 JUMPI PUSH0 DUP1 REVERT JUMPDEST POP PUSH2 0x28C PUSH1 0x4 DUP1 CALLDATASIZE SUB DUP2 ADD SWAP1 PUSH2 0x287 SWAP2 SWAP1 PUSH2 0x1F15 JUMP JUMPDEST PUSH2 0x128F JUMP JUMPDEST STOP JUMPDEST CALLVALUE DUP1 ISZERO PUSH2 0x299 JUMPI PUSH0 DUP1 REVERT JUMPDEST POP PUSH2 0x2A2 PUSH2 0x12A1 JUMP JUMPDEST PUSH1 0x40 MLOAD PUSH2 0x2AF SWAP2 SWAP1 PUSH2 0x1E24 JUMP JUMPDEST PUSH1 0x40 MLOAD DUP1 SWAP2 SUB SWAP1 RETURN JUMPDEST CALLVALUE DUP1 ISZERO PUSH2 0x2C3 JUMPI PUSH0 DUP1 REVERT JUMPDEST POP PUSH2 0x2DE PUSH1 0x4 DUP1 CALLDATASIZE SUB DUP2 ADD SWAP1 PUSH2 0x2D9 SWAP2 SWAP1 PUSH2 0x1F40 JUMP JUMPDEST PUSH2 0x12A7 JUMP JUMPDEST PUSH1 0x40 MLOAD PUSH2 0x2ED SWAP4 SWAP3 SWAP2 SWAP1 PUSH2 0x1FBE JUMP JUMPDEST PUSH1 0x40 MLOAD DUP1 SWAP2 SUB SWAP1 RETURN JUMPDEST CALLVALUE DUP1 ISZERO PUSH2 0x301 JUMPI PUSH0 DUP1 REVERT JUMPDEST POP PUSH2 0x31C PUSH1 0x4 DUP1 CALLDATASIZE SUB DUP2 ADD SWAP1 PUSH2 0x317 SWAP2 SWAP1 PUSH2 0x1F15 JUMP JUMPDEST PUSH2 0x14C9 JUMP JUMPDEST STOP JUMPDEST CALLVALUE DUP1 ISZERO PUSH2 0x329 JUMPI PUSH0 DUP1 REVERT JUMPDEST POP PUSH2 0x344 PUSH1 0x4 DUP1 CALLDATASIZE SUB DUP2 ADD SWAP1 PUSH2 0x33F SWAP2 SWAP1 PUSH2 0x1D32 JUMP JUMPDEST PUSH2 0x1512 JUMP JUMPDEST PUSH1 0x40 MLOAD PUSH2 0x351 SWAP2 SWAP1 PUSH2 0x1FF3 JUMP JUMPDEST PUSH1 0x40 MLOAD DUP1 SWAP2 SUB SWAP1 RETURN JUMPDEST CALLVALUE DUP1 ISZERO PUSH2 0x365 JUMPI PUSH0 DUP1 REVERT JUMPDEST POP PUSH2 0x380 PUSH1 0x4 DUP1 CALLDATASIZE SUB DUP2 ADD SWAP1 PUSH2 0x37B SWAP2 SWAP1 PUSH2 0x1E3D JUMP JUMPDEST PUSH2 0x16EA JUMP JUMPDEST STOP JUMPDEST CALLVALUE DUP1 ISZERO PUSH2 0x38D JUMPI PUSH0 DUP1 REVERT JUMPDEST POP PUSH2 0x3A8 PUSH1 0x4 DUP1 CALLDATASIZE SUB DUP2 ADD SWAP1 PUSH2 0x3A3 SWAP2 SWAP1 PUSH2 0x1F15 JUMP JUMPDEST PUSH2 0x17A3 JUMP JUMPDEST STOP JUMPDEST CALLVALUE DUP1 ISZERO PUSH2 0x3B5 JUMPI PUSH0 DUP1 REVERT JUMPDEST POP PUSH2 0x3D0 PUSH1 0x4 DUP1 CALLDATASIZE SUB DUP2 ADD SWAP1 PUSH2 0x3CB SWAP2 SWAP1 PUSH2 0x1E3D JUMP JUMPDEST PUSH2 0x17F9 JUMP JUMPDEST STOP JUMPDEST PUSH2 0x3DA PUSH2 0x187D JUMP JUMPDEST STOP JUMPDEST PUSH0 DUP1 PUSH0 DUP1 PUSH1 0x20 DUP6 ADD MLOAD SWAP3 POP PUSH1 0x40 DUP6 ADD MLOAD SWAP2 POP PUSH1 0x60 DUP6 ADD MLOAD PUSH0 BYTE SWAP1 POP PUSH0 DUP7 PUSH1 0x40 MLOAD PUSH1 0x20 ADD PUSH2 0x409 SWAP2 SWAP1 PUSH2 0x2080 JUMP JUMPDEST PUSH1 0x40 MLOAD PUSH1 0x20 DUP2 DUP4 SUB SUB DUP2 MSTORE SWAP1 PUSH1 0x40 MSTORE DUP1 MLOAD SWAP1 PUSH1 0x20 ADD KECCAK256 SWAP1 POP PUSH0 PUSH1 0x1 DUP3 DUP5 DUP8 DUP8 PUSH1 0x40 MLOAD PUSH0 DUP2 MSTORE PUSH1 0x20 ADD PUSH1 0x40 MSTORE PUSH1 0x40 MLOAD PUSH2 0x444 SWAP5 SWAP4 SWAP3 SWAP2 SWAP1 PUSH2 0x20CF JUMP JUMPDEST PUSH1 0x20 PUSH1 0x40 MLOAD PUSH1 0x20 DUP2 SUB SWAP1 DUP1 DUP5 SUB SWAP1 DUP6 GAS STATICCALL ISZERO DUP1 ISZERO PUSH2 0x464 JUMPI RETURNDATASIZE PUSH0 DUP1 RETURNDATACOPY RETURNDATASIZE PUSH0 REVERT JUMPDEST POP POP POP PUSH1 0x20 PUSH1 0x40 MLOAD SUB MLOAD SWAP1 POP DUP1 SWAP6 POP POP POP POP POP POP SWAP3 SWAP2 POP POP JUMP JUMPDEST DUP3 PUSH20 0xFFFFFFFFFFFFFFFFFFFFFFFFFFFFFFFFFFFFFFFF AND PUSH4 0x23B872DD CALLER ADDRESS DUP6 PUSH1 0x40 MLOAD DUP5 PUSH4 0xFFFFFFFF AND PUSH1 0xE0 SHL DUP2 MSTORE PUSH1 0x4 ADD PUSH2 0x4BB SWAP4 SWAP3 SWAP2 SWAP1 PUSH2 0x2112 JUMP JUMPDEST PUSH1 0x20 PUSH1 0x40 MLOAD DUP1 DUP4 SUB DUP2 PUSH0 DUP8 GAS CALL ISZERO DUP1 ISZERO PUSH2 0x4D7 JUMPI RETURNDATASIZE PUSH0 DUP1 RETURNDATACOPY RETURNDATASIZE PUSH0 REVERT JUMPDEST POP POP POP POP PUSH1 0x40 MLOAD RETURNDATASIZE PUSH1 0x1F NOT PUSH1 0x1F DUP3 ADD AND DUP3 ADD DUP1 PUSH1 0x40 MSTORE POP DUP2 ADD SWAP1 PUSH2 0x4FB SWAP2 SWAP1 PUSH2 0x2171 JUMP JUMPDEST POP DUP3 PUSH20 0xFFFFFFFFFFFFFFFFFFFFFFFFFFFFFFFFFFFFFFFF AND PUSH4 0x95EA7B3 PUSH1 0x1 PUSH0 SWAP1 SLOAD SWAP1 PUSH2 0x100 EXP SWAP1 DIV PUSH20 0xFFFFFFFFFFFFFFFFFFFFFFFFFFFFFFFFFFFFFFFF AND DUP5 PUSH1 0x40 MLOAD DUP4 PUSH4 0xFFFFFFFF AND PUSH1 0xE0 SHL DUP2 MSTORE PUSH1 0x4 ADD PUSH2 0x558 SWAP3 SWAP2 SWAP1 PUSH2 0x219C JUMP JUMPDEST PUSH1 0x20 PUSH1 0x40 MLOAD DUP1 DUP4 SUB DUP2 PUSH0 DUP8 GAS CALL ISZERO DUP1 ISZERO PUSH2 0x574 JUMPI RETURNDATASIZE PUSH0 DUP1 RETURNDATACOPY RETURNDATASIZE PUSH0 REVERT JUMPDEST POP POP POP POP PUSH1 0x40 MLOAD RETURNDATASIZE PUSH1 0x1F NOT PUSH1 0x1F DUP3 ADD AND DUP3 ADD DUP1 PUSH1 0x40 MSTORE POP DUP2 ADD SWAP1 PUSH2 0x598 SWAP2 SWAP1 PUSH2 0x2171 JUMP JUMPDEST POP PUSH0 PUSH1 0x2 PUSH8 0xFFFFFFFFFFFFFFFF DUP2 GT ISZERO PUSH2 0x5B5 JUMPI PUSH2 0x5B4 PUSH2 0x1AFF JUMP JUMPDEST JUMPDEST PUSH1 0x40 MLOAD SWAP1 DUP1 DUP3 MSTORE DUP1 PUSH1 0x20 MUL PUSH1 0x20 ADD DUP3 ADD PUSH1 0x40 MSTORE DUP1 ISZERO PUSH2 0x5E3 JUMPI DUP2 PUSH1 0x20 ADD PUSH1 0x20 DUP3 MUL DUP1 CALLDATASIZE DUP4 CALLDATACOPY DUP1 DUP3 ADD SWAP2 POP POP SWAP1 POP JUMPDEST POP SWAP1 POP DUP4 DUP2 PUSH0 DUP2 MLOAD DUP2 LT PUSH2 0x5FA JUMPI PUSH2 0x5F9 PUSH2 0x21C3 JUMP JUMPDEST JUMPDEST PUSH1 0x20 MUL PUSH1 0x20 ADD ADD SWAP1 PUSH20 0xFFFFFFFFFFFFFFFFFFFFFFFFFFFFFFFFFFFFFFFF AND SWAP1 DUP2 PUSH20 0xFFFFFFFFFFFFFFFFFFFFFFFFFFFFFFFFFFFFFFFF AND DUP2 MSTORE POP POP PUSH1 0x1 PUSH0 SWAP1 SLOAD SWAP1 PUSH2 0x100 EXP SWAP1 DIV PUSH20 0xFFFFFFFFFFFFFFFFFFFFFFFFFFFFFFFFFFFFFFFF AND PUSH20 0xFFFFFFFFFFFFFFFFFFFFFFFFFFFFFFFFFFFFFFFF AND PUSH4 0xAD5C4648 PUSH1 0x40 MLOAD DUP2 PUSH4 0xFFFFFFFF AND PUSH1 0xE0 SHL DUP2 MSTORE PUSH1 0x4 ADD PUSH1 0x20 PUSH1 0x40 MLOAD DUP1 DUP4 SUB DUP2 DUP7 GAS STATICCALL ISZERO DUP1 ISZERO PUSH2 0x69E JUMPI RETURNDATASIZE PUSH0 DUP1 RETURNDATACOPY RETURNDATASIZE PUSH0 REVERT JUMPDEST POP POP POP POP PUSH1 0x40 MLOAD RETURNDATASIZE PUSH1 0x1F NOT PUSH1 0x1F DUP3 ADD AND DUP3 ADD DUP1 PUSH1 0x40 MSTORE POP DUP2 ADD SWAP1 PUSH2 0x6C2 SWAP2 SWAP1 PUSH2 0x2204 JUMP JUMPDEST DUP2 PUSH1 0x1 DUP2 MLOAD DUP2 LT PUSH2 0x6D6 JUMPI PUSH2 0x6D5 PUSH2 0x21C3 JUMP JUMPDEST JUMPDEST PUSH1 0x20 MUL PUSH1 0x20 ADD ADD SWAP1 PUSH20 0xFFFFFFFFFFFFFFFFFFFFFFFFFFFFFFFFFFFFFFFF AND SWAP1 DUP2 PUSH20 0xFFFFFFFFFFFFFFFFFFFFFFFFFFFFFFFFFFFFFFFF AND DUP2 MSTORE POP POP PUSH0 PUSH1 0x1 PUSH0 SWAP1 SLOAD SWAP1 PUSH2 0x100 EXP SWAP1 DIV PUSH20 0xFFFFFFFFFFFFFFFFFFFFFFFFFFFFFFFFFFFFFFFF AND PUSH20 0xFFFFFFFFFFFFFFFFFFFFFFFFFFFFFFFFFFFFFFFF AND PUSH4 0x18CBAFE5 DUP6 DUP6 DUP6 ADDRESS TIMESTAMP PUSH1 0x40 MLOAD DUP7 PUSH4 0xFFFFFFFF AND PUSH1 0xE0 SHL DUP2 MSTORE PUSH1 0x4 ADD PUSH2 0x773 SWAP6 SWAP5 SWAP4 SWAP3 SWAP2 SWAP1 PUSH2 0x22E6 JUMP JUMPDEST PUSH0 PUSH1 0x40 MLOAD DUP1 DUP4 SUB DUP2 PUSH0 DUP8 GAS CALL ISZERO DUP1 ISZERO PUSH2 0x78E JUMPI RETURNDATASIZE PUSH0 DUP1 RETURNDATACOPY RETURNDATASIZE PUSH0 REVERT JUMPDEST POP POP POP POP PUSH1 0x40 MLOAD RETURNDATASIZE PUSH0 DUP3 RETURNDATACOPY RETURNDATASIZE PUSH1 0x1F NOT PUSH1 0x1F DUP3 ADD AND DUP3 ADD DUP1 PUSH1 0x40 MSTORE POP DUP2 ADD SWAP1 PUSH2 0x7B6 SWAP2 SWAP1 PUSH2 0x2416 JUMP JUMPDEST SWAP1 POP PUSH0 DUP2 PUSH1 0x1 DUP2 MLOAD DUP2 LT PUSH2 0x7CD JUMPI PUSH2 0x7CC PUSH2 0x21C3 JUMP JUMPDEST JUMPDEST PUSH1 0x20 MUL PUSH1 0x20 ADD ADD MLOAD SWAP1 POP PUSH0 PUSH2 0x2710 PUSH1 0x3 SLOAD DUP4 PUSH2 0x7E9 SWAP2 SWAP1 PUSH2 0x248A JUMP JUMPDEST PUSH2 0x7F3 SWAP2 SWAP1 PUSH2 0x24F8 JUMP JUMPDEST SWAP1 POP PUSH0 PUSH1 0x64 PUSH1 0x5A DUP4 PUSH2 0x805 SWAP2 SWAP1 PUSH2 0x248A JUMP JUMPDEST PUSH2 0x80F SWAP2 SWAP1 PUSH2 0x24F8 JUMP JUMPDEST SWAP1 POP PUSH1 0x2 PUSH0 SWAP1 SLOAD SWAP1 PUSH2 0x100 EXP SWAP1 DIV PUSH20 0xFFFFFFFFFFFFFFFFFFFFFFFFFFFFFFFFFFFFFFFF AND PUSH20 0xFFFFFFFFFFFFFFFFFFFFFFFFFFFFFFFFFFFFFFFF AND PUSH4 0x99DA9E9 DUP3 PUSH1 0x40 MLOAD DUP3 PUSH4 0xFFFFFFFF AND PUSH1 0xE0 SHL DUP2 MSTORE PUSH1 0x4 ADD PUSH2 0x86B SWAP2 SWAP1 PUSH2 0x1E24 JUMP JUMPDEST PUSH0 PUSH1 0x40 MLOAD DUP1 DUP4 SUB DUP2 PUSH0 DUP8 DUP1 EXTCODESIZE ISZERO DUP1 ISZERO PUSH2 0x882 JUMPI PUSH0 DUP1 REVERT JUMPDEST POP GAS CALL ISZERO DUP1 ISZERO PUSH2 0x894 JUMPI RETURNDATASIZE PUSH0 DUP1 RETURNDATACOPY RETURNDATASIZE PUSH0 REVERT JUMPDEST POP POP POP POP PUSH0 DUP3 DUP5 PUSH2 0x8A5 SWAP2 SWAP1 PUSH2 0x2528 JUMP JUMPDEST SWAP1 POP CALLER PUSH20 0xFFFFFFFFFFFFFFFFFFFFFFFFFFFFFFFFFFFFFFFF AND PUSH2 0x8FC DUP3 SWAP1 DUP2 ISZERO MUL SWAP1 PUSH1 0x40 MLOAD PUSH0 PUSH1 0x40 MLOAD DUP1 DUP4 SUB DUP2 DUP6 DUP9 DUP9 CALL SWAP4 POP POP POP POP ISZERO DUP1 ISZERO PUSH2 0x8EA JUMPI RETURNDATASIZE PUSH0 DUP1 RETURNDATACOPY RETURNDATASIZE PUSH0 REVERT JUMPDEST POP CALLER PUSH20 0xFFFFFFFFFFFFFFFFFFFFFFFFFFFFFFFFFFFFFFFF AND PUSH32 0xF12A93B520E347A9F6FAC0D0EADF4603283511A046AFE4CE7758C144FCB80065 DUP6 PUSH1 0x40 MLOAD PUSH2 0x931 SWAP2 SWAP1 PUSH2 0x1E24 JUMP JUMPDEST PUSH1 0x40 MLOAD DUP1 SWAP2 SUB SWAP1 LOG2 POP POP POP POP POP POP POP POP POP JUMP JUMPDEST PUSH0 GAS SWAP1 POP PUSH0 GASPRICE PUSH1 0x4 SLOAD PUSH2 0x957 SWAP2 SWAP1 PUSH2 0x248A JUMP JUMPDEST SWAP1 POP DUP5 DUP2 LT PUSH2 0x99B JUMPI PUSH1 0x40 MLOAD PUSH32 0x8C379A000000000000000000000000000000000000000000000000000000000 DUP2 MSTORE PUSH1 0x4 ADD PUSH2 0x992 SWAP1 PUSH2 0x25DB JUMP JUMPDEST PUSH1 0x40 MLOAD DUP1 SWAP2 SUB SWAP1 REVERT JUMPDEST PUSH0 PUSH2 0x9D2 DUP9 DUP9 DUP9 DUP8 PUSH1 0x40 MLOAD PUSH1 0x20 ADD PUSH2 0x9B6 SWAP5 SWAP4 SWAP3 SWAP2 SWAP1 PUSH2 0x265E JUMP JUMPDEST PUSH1 0x40 MLOAD PUSH1 0x20 DUP2 DUP4 SUB SUB DUP2 MSTORE SWAP1 PUSH1 0x40 MSTORE DUP1 MLOAD SWAP1 PUSH1 0x20 ADD KECCAK256 DUP7 PUSH2 0x3DC JUMP JUMPDEST SWAP1 POP DUP1 PUSH20 0xFFFFFFFFFFFFFFFFFFFFFFFFFFFFFFFFFFFFFFFF AND PUSH32 0x391F5EDD7209BA797E8055BCE97CAB2D1A480A2849B0C7FE965C370457166DC4 PUSH1 0x40 MLOAD PUSH1 0x40 MLOAD DUP1 SWAP2 SUB SWAP1 LOG2 PUSH0 PUSH20 0xFFFFFFFFFFFFFFFFFFFFFFFFFFFFFFFFFFFFFFFF AND DUP2 PUSH20 0xFFFFFFFFFFFFFFFFFFFFFFFFFFFFFFFFFFFFFFFF AND SUB PUSH2 0xA85 JUMPI PUSH1 0x40 MLOAD PUSH32 0x8C379A000000000000000000000000000000000000000000000000000000000 DUP2 MSTORE PUSH1 0x4 ADD PUSH2 0xA7C SWAP1 PUSH2 0x26F5 JUMP JUMPDEST PUSH1 0x40 MLOAD DUP1 SWAP2 SUB SWAP1 REVERT JUMPDEST PUSH0 PUSH1 0x2 PUSH8 0xFFFFFFFFFFFFFFFF DUP2 GT ISZERO PUSH2 0xAA1 JUMPI PUSH2 0xAA0 PUSH2 0x1AFF JUMP JUMPDEST JUMPDEST PUSH1 0x40 MLOAD SWAP1 DUP1 DUP3 MSTORE DUP1 PUSH1 0x20 MUL PUSH1 0x20 ADD DUP3 ADD PUSH1 0x40 MSTORE DUP1 ISZERO PUSH2 0xACF JUMPI DUP2 PUSH1 0x20 ADD PUSH1 0x20 DUP3 MUL DUP1 CALLDATASIZE DUP4 CALLDATACOPY DUP1 DUP3 ADD SWAP2 POP POP SWAP1 POP JUMPDEST POP SWAP1 POP DUP9 DUP2 PUSH0 DUP2 MLOAD DUP2 LT PUSH2 0xAE6 JUMPI PUSH2 0xAE5 PUSH2 0x21C3 JUMP JUMPDEST JUMPDEST PUSH1 0x20 MUL PUSH1 0x20 ADD ADD SWAP1 PUSH20 0xFFFFFFFFFFFFFFFFFFFFFFFFFFFFFFFFFFFFFFFF AND SWAP1 DUP2 PUSH20 0xFFFFFFFFFFFFFFFFFFFFFFFFFFFFFFFFFFFFFFFF AND DUP2 MSTORE POP POP PUSH1 0x1 PUSH0 SWAP1 SLOAD SWAP1 PUSH2 0x100 EXP SWAP1 DIV PUSH20 0xFFFFFFFFFFFFFFFFFFFFFFFFFFFFFFFFFFFFFFFF AND PUSH20 0xFFFFFFFFFFFFFFFFFFFFFFFFFFFFFFFFFFFFFFFF AND PUSH4 0xAD5C4648 PUSH1 0x40 MLOAD DUP2 PUSH4 0xFFFFFFFF AND PUSH1 0xE0 SHL DUP2 MSTORE PUSH1 0x4 ADD PUSH1 0x20 PUSH1 0x40 MLOAD DUP1 DUP4 SUB DUP2 DUP7 GAS STATICCALL ISZERO DUP1 ISZERO PUSH2 0xB8A JUMPI RETURNDATASIZE PUSH0 DUP1 RETURNDATACOPY RETURNDATASIZE PUSH0 REVERT JUMPDEST POP POP POP POP PUSH1 0x40 MLOAD RETURNDATASIZE PUSH1 0x1F NOT PUSH1 0x1F DUP3 ADD AND DUP3 ADD DUP1 PUSH1 0x40 MSTORE POP DUP2 ADD SWAP1 PUSH2 0xBAE SWAP2 SWAP1 PUSH2 0x2204 JUMP JUMPDEST DUP2 PUSH1 0x1 DUP2 MLOAD DUP2 LT PUSH2 0xBC2 JUMPI PUSH2 0xBC1 PUSH2 0x21C3 JUMP JUMPDEST JUMPDEST PUSH1 0x20 MUL PUSH1 0x20 ADD ADD SWAP1 PUSH20 0xFFFFFFFFFFFFFFFFFFFFFFFFFFFFFFFFFFFFFFFF AND SWAP1 DUP2 PUSH20 0xFFFFFFFFFFFFFFFFFFFFFFFFFFFFFFFFFFFFFFFF AND DUP2 MSTORE POP POP PUSH0 DUP1 PUSH2 0xC08 DUP11 DUP5 PUSH2 0x187F JUMP JUMPDEST SWAP2 POP SWAP2 POP DUP2 PUSH2 0xC4C JUMPI PUSH1 0x40 MLOAD PUSH32 0x8C379A000000000000000000000000000000000000000000000000000000000 DUP2 MSTORE PUSH1 0x4 ADD PUSH2 0xC43 SWAP1 PUSH2 0x275D JUMP JUMPDEST PUSH1 0x40 MLOAD DUP1 SWAP2 SUB SWAP1 REVERT JUMPDEST DUP1 GASPRICE PUSH1 0x4 SLOAD PUSH2 0xC5B SWAP2 SWAP1 PUSH2 0x248A JUMP JUMPDEST LT PUSH2 0xC9B JUMPI PUSH1 0x40 MLOAD PUSH32 0x8C379A000000000000000000000000000000000000000000000000000000000 DUP2 MSTORE PUSH1 0x4 ADD PUSH2 0xC92 SWAP1 PUSH2 0x27C5 JUMP JUMPDEST PUSH1 0x40 MLOAD DUP1 SWAP2 SUB SWAP1 REVERT JUMPDEST DUP9 DUP2 LT ISZERO PUSH2 0xCDE JUMPI PUSH1 0x40 MLOAD PUSH32 0x8C379A000000000000000000000000000000000000000000000000000000000 DUP2 MSTORE PUSH1 0x4 ADD PUSH2 0xCD5 SWAP1 PUSH2 0x2853 JUMP JUMPDEST PUSH1 0x40 MLOAD DUP1 SWAP2 SUB SWAP1 REVERT JUMPDEST DUP11 PUSH20 0xFFFFFFFFFFFFFFFFFFFFFFFFFFFFFFFFFFFFFFFF AND PUSH4 0x23B872DD DUP6 ADDRESS DUP14 PUSH1 0x40 MLOAD DUP5 PUSH4 0xFFFFFFFF AND PUSH1 0xE0 SHL DUP2 MSTORE PUSH1 0x4 ADD PUSH2 0xD1B SWAP4 SWAP3 SWAP2 SWAP1 PUSH2 0x2112 JUMP JUMPDEST PUSH1 0x20 PUSH1 0x40 MLOAD DUP1 DUP4 SUB DUP2 PUSH0 DUP8 GAS CALL ISZERO DUP1 ISZERO PUSH2 0xD37 JUMPI RETURNDATASIZE PUSH0 DUP1 RETURNDATACOPY RETURNDATASIZE PUSH0 REVERT JUMPDEST POP POP POP POP PUSH1 0x40 MLOAD RETURNDATASIZE PUSH1 0x1F NOT PUSH1 0x1F DUP3 ADD AND DUP3 ADD DUP1 PUSH1 0x40 MSTORE POP DUP2 ADD SWAP1 PUSH2 0xD5B SWAP2 SWAP1 PUSH2 0x2171 JUMP JUMPDEST POP DUP11 PUSH20 0xFFFFFFFFFFFFFFFFFFFFFFFFFFFFFFFFFFFFFFFF AND PUSH4 0x95EA7B3 PUSH1 0x1 PUSH0 SWAP1 SLOAD SWAP1 PUSH2 0x100 EXP SWAP1 DIV PUSH20 0xFFFFFFFFFFFFFFFFFFFFFFFFFFFFFFFFFFFFFFFF AND DUP13 PUSH1 0x40 MLOAD DUP4 PUSH4 0xFFFFFFFF AND PUSH1 0xE0 SHL DUP2 MSTORE PUSH1 0x4 ADD PUSH2 0xDB8 SWAP3 SWAP2 SWAP1 PUSH2 0x219C JUMP JUMPDEST PUSH1 0x20 PUSH1 0x40 MLOAD DUP1 DUP4 SUB DUP2 PUSH0 DUP8 GAS CALL ISZERO DUP1 ISZERO PUSH2 0xDD4 JUMPI RETURNDATASIZE PUSH0 DUP1 RETURNDATACOPY RETURNDATASIZE PUSH0 REVERT JUMPDEST POP POP POP POP PUSH1 0x40 MLOAD RETURNDATASIZE PUSH1 0x1F NOT PUSH1 0x1F DUP3 ADD AND DUP3 ADD DUP1 PUSH1 0x40 MSTORE POP DUP2 ADD SWAP1 PUSH2 0xDF8 SWAP2 SWAP1 PUSH2 0x2171 JUMP JUMPDEST POP PUSH0 PUSH1 0x1 PUSH0 SWAP1 SLOAD SWAP1 PUSH2 0x100 EXP SWAP1 DIV PUSH20 0xFFFFFFFFFFFFFFFFFFFFFFFFFFFFFFFFFFFFFFFF AND PUSH20 0xFFFFFFFFFFFFFFFFFFFFFFFFFFFFFFFFFFFFFFFF AND PUSH4 0x18CBAFE5 DUP13 DUP13 DUP8 ADDRESS TIMESTAMP PUSH1 0x40 MLOAD DUP7 PUSH4 0xFFFFFFFF AND PUSH1 0xE0 SHL DUP2 MSTORE PUSH1 0x4 ADD PUSH2 0xE5C SWAP6 SWAP5 SWAP4 SWAP3 SWAP2 SWAP1 PUSH2 0x22E6 JUMP JUMPDEST PUSH0 PUSH1 0x40 MLOAD DUP1 DUP4 SUB DUP2 PUSH0 DUP8 GAS CALL ISZERO DUP1 ISZERO PUSH2 0xE77 JUMPI RETURNDATASIZE PUSH0 DUP1 RETURNDATACOPY RETURNDATASIZE PUSH0 REVERT JUMPDEST POP POP POP POP PUSH1 0x40 MLOAD RETURNDATASIZE PUSH0 DUP3 RETURNDATACOPY RETURNDATASIZE PUSH1 0x1F NOT PUSH1 0x1F DUP3 ADD AND DUP3 ADD DUP1 PUSH1 0x40 MSTORE POP DUP2 ADD SWAP1 PUSH2 0xE9F SWAP2 SWAP1 PUSH2 0x2416 JUMP JUMPDEST SWAP1 POP GASPRICE PUSH3 0x186A0 GAS DUP10 PUSH2 0xEB2 SWAP2 SWAP1 PUSH2 0x2528 JUMP JUMPDEST PUSH2 0xEBC SWAP2 SWAP1 PUSH2 0x2871 JUMP JUMPDEST PUSH2 0xEC6 SWAP2 SWAP1 PUSH2 0x248A JUMP JUMPDEST SWAP7 POP CALLER PUSH20 0xFFFFFFFFFFFFFFFFFFFFFFFFFFFFFFFFFFFFFFFF AND PUSH2 0x8FC DUP9 SWAP1 DUP2 ISZERO MUL SWAP1 PUSH1 0x40 MLOAD PUSH0 PUSH1 0x40 MLOAD DUP1 DUP4 SUB DUP2 DUP6 DUP9 DUP9 CALL SWAP4 POP POP POP POP ISZERO DUP1 ISZERO PUSH2 0xF0B JUMPI RETURNDATASIZE PUSH0 DUP1 RETURNDATACOPY RETURNDATASIZE PUSH0 REVERT JUMPDEST POP PUSH0 DUP8 DUP3 PUSH1 0x1 DUP2 MLOAD DUP2 LT PUSH2 0xF22 JUMPI PUSH2 0xF21 PUSH2 0x21C3 JUMP JUMPDEST JUMPDEST PUSH1 0x20 MUL PUSH1 0x20 ADD ADD MLOAD PUSH2 0xF34 SWAP2 SWAP1 PUSH2 0x2528 JUMP JUMPDEST SWAP1 POP PUSH0 DUP12 DUP5 GT PUSH2 0xF44 JUMPI PUSH0 PUSH2 0xF51 JUMP JUMPDEST DUP12 DUP5 PUSH2 0xF50 SWAP2 SWAP1 PUSH2 0x2528 JUMP JUMPDEST JUMPDEST SWAP1 POP PUSH0 DUP5 DUP4 GT PUSH2 0xF61 JUMPI PUSH0 PUSH2 0xF6E JUMP JUMPDEST DUP5 DUP4 PUSH2 0xF6D SWAP2 SWAP1 PUSH2 0x2528 JUMP JUMPDEST JUMPDEST SWAP1 POP PUSH0 PUSH1 0x64 PUSH1 0x28 DUP4 PUSH2 0xF80 SWAP2 SWAP1 PUSH2 0x248A JUMP JUMPDEST PUSH2 0xF8A SWAP2 SWAP1 PUSH2 0x24F8 JUMP JUMPDEST PUSH2 0x2710 PUSH1 0x3 SLOAD DUP5 DUP7 DUP9 PUSH2 0xF9D SWAP2 SWAP1 PUSH2 0x2528 JUMP JUMPDEST PUSH2 0xFA7 SWAP2 SWAP1 PUSH2 0x2528 JUMP JUMPDEST PUSH2 0xFB1 SWAP2 SWAP1 PUSH2 0x248A JUMP JUMPDEST PUSH2 0xFBB SWAP2 SWAP1 PUSH2 0x24F8 JUMP JUMPDEST PUSH2 0xFC5 SWAP2 SWAP1 PUSH2 0x2871 JUMP JUMPDEST SWAP1 POP PUSH1 0x2 PUSH0 SWAP1 SLOAD SWAP1 PUSH2 0x100 EXP SWAP1 DIV PUSH20 0xFFFFFFFFFFFFFFFFFFFFFFFFFFFFFFFFFFFFFFFF AND PUSH20 0xFFFFFFFFFFFFFFFFFFFFFFFFFFFFFFFFFFFFFFFF AND PUSH4 0x99DA9E9 PUSH1 0x64 PUSH1 0x5A DUP5 PUSH2 0x1013 SWAP2 SWAP1 PUSH2 0x248A JUMP JUMPDEST PUSH2 0x101D SWAP2 SWAP1 PUSH2 0x24F8 JUMP JUMPDEST PUSH1 0x40 MLOAD DUP3 PUSH4 0xFFFFFFFF AND PUSH1 0xE0 SHL DUP2 MSTORE PUSH1 0x4 ADD PUSH2 0x1039 SWAP2 SWAP1 PUSH2 0x1E24 JUMP JUMPDEST PUSH0 PUSH1 0x40 MLOAD DUP1 DUP4 SUB DUP2 PUSH0 DUP8 DUP1 EXTCODESIZE ISZERO DUP1 ISZERO PUSH2 0x1050 JUMPI PUSH0 DUP1 REVERT JUMPDEST POP GAS CALL ISZERO DUP1 ISZERO PUSH2 0x1062 JUMPI RETURNDATASIZE PUSH0 DUP1 RETURNDATACOPY RETURNDATASIZE PUSH0 REVERT JUMPDEST POP POP POP POP DUP9 PUSH20 0xFFFFFFFFFFFFFFFFFFFFFFFFFFFFFFFFFFFFFFFF AND PUSH2 0x8FC DUP3 DUP7 PUSH2 0x108C SWAP2 SWAP1 PUSH2 0x2528 JUMP JUMPDEST SWAP1 DUP2 ISZERO MUL SWAP1 PUSH1 0x40 MLOAD PUSH0 PUSH1 0x40 MLOAD DUP1 DUP4 SUB DUP2 DUP6 DUP9 DUP9 CALL SWAP4 POP POP POP POP ISZERO DUP1 ISZERO PUSH2 0x10B4 JUMPI RETURNDATASIZE PUSH0 DUP1 RETURNDATACOPY RETURNDATASIZE PUSH0 REVERT JUMPDEST POP DUP9 PUSH20 0xFFFFFFFFFFFFFFFFFFFFFFFFFFFFFFFFFFFFFFFF AND PUSH32 0xF12A93B520E347A9F6FAC0D0EADF4603283511A046AFE4CE7758C144FCB80065 DUP6 PUSH1 0x40 MLOAD PUSH2 0x10FB SWAP2 SWAP1 PUSH2 0x1E24 JUMP JUMPDEST PUSH1 0x40 MLOAD DUP1 SWAP2 SUB SWAP1 LOG2 POP POP POP POP POP POP POP POP POP POP POP POP POP POP POP POP JUMP JUMPDEST PUSH1 0x4 SLOAD DUP2 JUMP JUMPDEST PUSH2 0x1123 PUSH2 0x1954 JUMP JUMPDEST PUSH0 PUSH20 0xFFFFFFFFFFFFFFFFFFFFFFFFFFFFFFFFFFFFFFFF AND DUP2 PUSH20 0xFFFFFFFFFFFFFFFFFFFFFFFFFFFFFFFFFFFFFFFF AND SUB PUSH2 0x1191 JUMPI PUSH1 0x40 MLOAD PUSH32 0x8C379A000000000000000000000000000000000000000000000000000000000 DUP2 MSTORE PUSH1 0x4 ADD PUSH2 0x1188 SWAP1 PUSH2 0x28EE JUMP JUMPDEST PUSH1 0x40 MLOAD DUP1 SWAP2 SUB SWAP1 REVERT JUMPDEST DUP1 PUSH1 0x2 PUSH0 PUSH2 0x100 EXP DUP2 SLOAD DUP2 PUSH20 0xFFFFFFFFFFFFFFFFFFFFFFFFFFFFFFFFFFFFFFFF MUL NOT AND SWAP1 DUP4 PUSH20 0xFFFFFFFFFFFFFFFFFFFFFFFFFFFFFFFFFFFFFFFF AND MUL OR SWAP1 SSTORE POP PUSH32 0xECB9755730C832A50C16EA8001A277BE77D816B09DC686FE072D4F2285E5CECE DUP2 PUSH1 0x40 MLOAD PUSH2 0x1200 SWAP2 SWAP1 PUSH2 0x1CBC JUMP JUMPDEST PUSH1 0x40 MLOAD DUP1 SWAP2 SUB SWAP1 LOG1 POP JUMP JUMPDEST PUSH2 0x1213 PUSH2 0x1954 JUMP JUMPDEST PUSH2 0x121C PUSH0 PUSH2 0x19DB JUMP JUMPDEST JUMP JUMPDEST PUSH1 0x1 PUSH0 SWAP1 SLOAD SWAP1 PUSH2 0x100 EXP SWAP1 DIV PUSH20 0xFFFFFFFFFFFFFFFFFFFFFFFFFFFFFFFFFFFFFFFF AND DUP2 JUMP JUMPDEST PUSH0 DUP1 PUSH0 SWAP1 SLOAD SWAP1 PUSH2 0x100 EXP SWAP1 DIV PUSH20 0xFFFFFFFFFFFFFFFFFFFFFFFFFFFFFFFFFFFFFFFF AND SWAP1 POP SWAP1 JUMP JUMPDEST PUSH1 0x2 PUSH0 SWAP1 SLOAD SWAP1 PUSH2 0x100 EXP SWAP1 DIV PUSH20 0xFFFFFFFFFFFFFFFFFFFFFFFFFFFFFFFFFFFFFFFF AND DUP2 JUMP JUMPDEST PUSH2 0x1297 PUSH2 0x1954 JUMP JUMPDEST DUP1 PUSH1 0x4 DUP2 SWAP1 SSTORE POP POP JUMP JUMPDEST PUSH1 0x3 SLOAD DUP2 JUMP JUMPDEST PUSH0 DUP1 PUSH0 DUP1 PUSH1 0x2 PUSH8 0xFFFFFFFFFFFFFFFF DUP2 GT ISZERO PUSH2 0x12C6 JUMPI PUSH2 0x12C5 PUSH2 0x1AFF JUMP JUMPDEST JUMPDEST PUSH1 0x40 MLOAD SWAP1 DUP1 DUP3 MSTORE DUP1 PUSH1 0x20 MUL PUSH1 0x20 ADD DUP3 ADD PUSH1 0x40 MSTORE DUP1 ISZERO PUSH2 0x12F4 JUMPI DUP2 PUSH1 0x20 ADD PUSH1 0x20 DUP3 MUL DUP1 CALLDATASIZE DUP4 CALLDATACOPY DUP1 DUP3 ADD SWAP2 POP POP SWAP1 POP JUMPDEST POP SWAP1 POP DUP8 DUP2 PUSH0 DUP2 MLOAD DUP2 LT PUSH2 0x130B JUMPI PUSH2 0x130A PUSH2 0x21C3 JUMP JUMPDEST JUMPDEST PUSH1 0x20 MUL PUSH1 0x20 ADD ADD SWAP1 PUSH20 0xFFFFFFFFFFFFFFFFFFFFFFFFFFFFFFFFFFFFFFFF AND SWAP1 DUP2 PUSH20 0xFFFFFFFFFFFFFFFFFFFFFFFFFFFFFFFFFFFFFFFF AND DUP2 MSTORE POP POP PUSH1 0x1 PUSH0 SWAP1 SLOAD SWAP1 PUSH2 0x100 EXP SWAP1 DIV PUSH20 0xFFFFFFFFFFFFFFFFFFFFFFFFFFFFFFFFFFFFFFFF AND PUSH20 0xFFFFFFFFFFFFFFFFFFFFFFFFFFFFFFFFFFFFFFFF AND PUSH4 0xAD5C4648 PUSH1 0x40 MLOAD DUP2 PUSH4 0xFFFFFFFF AND PUSH1 0xE0 SHL DUP2 MSTORE PUSH1 0x4 ADD PUSH1 0x20 PUSH1 0x40 MLOAD DUP1 DUP4 SUB DUP2 DUP7 GAS STATICCALL ISZERO DUP1 ISZERO PUSH2 0x13AF JUMPI RETURNDATASIZE PUSH0 DUP1 RETURNDATACOPY RETURNDATASIZE PUSH0 REVERT JUMPDEST POP POP POP POP PUSH1 0x40 MLOAD RETURNDATASIZE PUSH1 0x1F NOT PUSH1 0x1F DUP3 ADD AND DUP3 ADD DUP1 PUSH1 0x40 MSTORE POP DUP2 ADD SWAP1 PUSH2 0x13D3 SWAP2 SWAP1 PUSH2 0x2204 JUMP JUMPDEST DUP2 PUSH1 0x1 DUP2 MLOAD DUP2 LT PUSH2 0x13E7 JUMPI PUSH2 0x13E6 PUSH2 0x21C3 JUMP JUMPDEST JUMPDEST PUSH1 0x20 MUL PUSH1 0x20 ADD ADD SWAP1 PUSH20 0xFFFFFFFFFFFFFFFFFFFFFFFFFFFFFFFFFFFFFFFF AND SWAP1 DUP2 PUSH20 0xFFFFFFFFFFFFFFFFFFFFFFFFFFFFFFFFFFFFFFFF AND DUP2 MSTORE POP POP PUSH0 DUP1 PUSH2 0x142D DUP10 DUP5 PUSH2 0x187F JUMP JUMPDEST SWAP2 POP SWAP2 POP DUP2 PUSH2 0x1471 JUMPI PUSH1 0x40 MLOAD PUSH32 0x8C379A000000000000000000000000000000000000000000000000000000000 DUP2 MSTORE PUSH1 0x4 ADD PUSH2 0x1468 SWAP1 PUSH2 0x2956 JUMP JUMPDEST PUSH1 0x40 MLOAD DUP1 SWAP2 SUB SWAP1 REVERT JUMPDEST PUSH2 0x2710 DUP9 PUSH2 0x2710 PUSH2 0x1482 SWAP2 SWAP1 PUSH2 0x2528 JUMP JUMPDEST DUP3 PUSH2 0x148D SWAP2 SWAP1 PUSH2 0x248A JUMP JUMPDEST PUSH2 0x1497 SWAP2 SWAP1 PUSH2 0x24F8 JUMP JUMPDEST SWAP6 POP DUP7 PUSH1 0x4 SLOAD PUSH2 0x14A7 SWAP2 SWAP1 PUSH2 0x248A JUMP JUMPDEST SWAP5 POP DUP6 DUP6 PUSH2 0x14B6 DUP13 DUP13 DUP12 PUSH2 0x1512 JUMP JUMPDEST SWAP6 POP SWAP6 POP SWAP6 POP POP POP POP SWAP5 POP SWAP5 POP SWAP5 SWAP2 POP POP JUMP JUMPDEST PUSH2 0x14D1 PUSH2 0x1954 JUMP JUMPDEST DUP1 PUSH1 0x3 DUP2 SWAP1 SSTORE POP PUSH32 0x8C4D35E54A3F2EF1134138FD8EA3DAEE6A3C89E10D2665996BABDF70261E2C76 DUP2 PUSH1 0x40 MLOAD PUSH2 0x1507 SWAP2 SWAP1 PUSH2 0x1E24 JUMP JUMPDEST PUSH1 0x40 MLOAD DUP1 SWAP2 SUB SWAP1 LOG1 POP JUMP JUMPDEST PUSH0 DUP1 PUSH1 0x2 PUSH8 0xFFFFFFFFFFFFFFFF DUP2 GT ISZERO PUSH2 0x152F JUMPI PUSH2 0x152E PUSH2 0x1AFF JUMP JUMPDEST JUMPDEST PUSH1 0x40 MLOAD SWAP1 DUP1 DUP3 MSTORE DUP1 PUSH1 0x20 MUL PUSH1 0x20 ADD DUP3 ADD PUSH1 0x40 MSTORE DUP1 ISZERO PUSH2 0x155D JUMPI DUP2 PUSH1 0x20 ADD PUSH1 0x20 DUP3 MUL DUP1 CALLDATASIZE DUP4 CALLDATACOPY DUP1 DUP3 ADD SWAP2 POP POP SWAP1 POP JUMPDEST POP SWAP1 POP DUP5 DUP2 PUSH0 DUP2 MLOAD DUP2 LT PUSH2 0x1574 JUMPI PUSH2 0x1573 PUSH2 0x21C3 JUMP JUMPDEST JUMPDEST PUSH1 0x20 MUL PUSH1 0x20 ADD ADD SWAP1 PUSH20 0xFFFFFFFFFFFFFFFFFFFFFFFFFFFFFFFFFFFFFFFF AND SWAP1 DUP2 PUSH20 0xFFFFFFFFFFFFFFFFFFFFFFFFFFFFFFFFFFFFFFFF AND DUP2 MSTORE POP POP PUSH1 0x1 PUSH0 SWAP1 SLOAD SWAP1 PUSH2 0x100 EXP SWAP1 DIV PUSH20 0xFFFFFFFFFFFFFFFFFFFFFFFFFFFFFFFFFFFFFFFF AND PUSH20 0xFFFFFFFFFFFFFFFFFFFFFFFFFFFFFFFFFFFFFFFF AND PUSH4 0xAD5C4648 PUSH1 0x40 MLOAD DUP2 PUSH4 0xFFFFFFFF AND PUSH1 0xE0 SHL DUP2 MSTORE PUSH1 0x4 ADD PUSH1 0x20 PUSH1 0x40 MLOAD DUP1 DUP4 SUB DUP2 DUP7 GAS STATICCALL ISZERO DUP1 ISZERO PUSH2 0x1618 JUMPI RETURNDATASIZE PUSH0 DUP1 RETURNDATACOPY RETURNDATASIZE PUSH0 REVERT JUMPDEST POP POP POP POP PUSH1 0x40 MLOAD RETURNDATASIZE PUSH1 0x1F NOT PUSH1 0x1F DUP3 ADD AND DUP3 ADD DUP1 PUSH1 0x40 MSTORE POP DUP2 ADD SWAP1 PUSH2 0x163C SWAP2 SWAP1 PUSH2 0x2204 JUMP JUMPDEST DUP2 PUSH1 0x1 DUP2 MLOAD DUP2 LT PUSH2 0x1650 JUMPI PUSH2 0x164F PUSH2 0x21C3 JUMP JUMPDEST JUMPDEST PUSH1 0x20 MUL PUSH1 0x20 ADD ADD SWAP1 PUSH20 0xFFFFFFFFFFFFFFFFFFFFFFFFFFFFFFFFFFFFFFFF AND SWAP1 DUP2 PUSH20 0xFFFFFFFFFFFFFFFFFFFFFFFFFFFFFFFFFFFFFFFF AND DUP2 MSTORE POP POP PUSH0 DUP1 PUSH2 0x1696 DUP7 DUP5 PUSH2 0x187F JUMP JUMPDEST SWAP2 POP SWAP2 POP DUP2 ISZERO DUP1 PUSH2 0x16A6 JUMPI POP PUSH0 DUP2 EQ JUMPDEST ISZERO PUSH2 0x16B6 JUMPI PUSH0 SWAP4 POP POP POP POP PUSH2 0x16E3 JUMP JUMPDEST PUSH0 DUP6 PUSH1 0x4 SLOAD PUSH2 0x16C5 SWAP2 SWAP1 PUSH2 0x248A JUMP JUMPDEST SWAP1 POP DUP2 DUP2 LT PUSH2 0x16DA JUMPI PUSH0 SWAP5 POP POP POP POP POP PUSH2 0x16E3 JUMP JUMPDEST PUSH1 0x1 SWAP5 POP POP POP POP POP JUMPDEST SWAP4 SWAP3 POP POP POP JUMP JUMPDEST PUSH2 0x16F2 PUSH2 0x1954 JUMP JUMPDEST PUSH0 PUSH20 0xFFFFFFFFFFFFFFFFFFFFFFFFFFFFFFFFFFFFFFFF AND DUP2 PUSH20 0xFFFFFFFFFFFFFFFFFFFFFFFFFFFFFFFFFFFFFFFF AND SUB PUSH2 0x1760 JUMPI PUSH1 0x40 MLOAD PUSH32 0x8C379A000000000000000000000000000000000000000000000000000000000 DUP2 MSTORE PUSH1 0x4 ADD PUSH2 0x1757 SWAP1 PUSH2 0x28EE JUMP JUMPDEST PUSH1 0x40 MLOAD DUP1 SWAP2 SUB SWAP1 REVERT JUMPDEST DUP1 PUSH1 0x1 PUSH0 PUSH2 0x100 EXP DUP2 SLOAD DUP2 PUSH20 0xFFFFFFFFFFFFFFFFFFFFFFFFFFFFFFFFFFFFFFFF MUL NOT AND SWAP1 DUP4 PUSH20 0xFFFFFFFFFFFFFFFFFFFFFFFFFFFFFFFFFFFFFFFF AND MUL OR SWAP1 SSTORE POP POP JUMP JUMPDEST PUSH2 0x17AB PUSH2 0x1954 JUMP JUMPDEST PUSH2 0x17B3 PUSH2 0x1243 JUMP JUMPDEST PUSH20 0xFFFFFFFFFFFFFFFFFFFFFFFFFFFFFFFFFFFFFFFF AND PUSH2 0x8FC DUP3 SWAP1 DUP2 ISZERO MUL SWAP1 PUSH1 0x40 MLOAD PUSH0 PUSH1 0x40 MLOAD DUP1 DUP4 SUB DUP2 DUP6 DUP9 DUP9 CALL SWAP4 POP POP POP POP ISZERO DUP1 ISZERO PUSH2 0x17F5 JUMPI RETURNDATASIZE PUSH0 DUP1 RETURNDATACOPY RETURNDATASIZE PUSH0 REVERT JUMPDEST POP POP JUMP JUMPDEST PUSH2 0x1801 PUSH2 0x1954 JUMP JUMPDEST PUSH0 PUSH20 0xFFFFFFFFFFFFFFFFFFFFFFFFFFFFFFFFFFFFFFFF AND DUP2 PUSH20 0xFFFFFFFFFFFFFFFFFFFFFFFFFFFFFFFFFFFFFFFF AND SUB PUSH2 0x1871 JUMPI PUSH0 PUSH1 0x40 MLOAD PUSH32 0x1E4FBDF700000000000000000000000000000000000000000000000000000000 DUP2 MSTORE PUSH1 0x4 ADD PUSH2 0x1868 SWAP2 SWAP1 PUSH2 0x1CBC JUMP JUMPDEST PUSH1 0x40 MLOAD DUP1 SWAP2 SUB SWAP1 REVERT JUMPDEST PUSH2 0x187A DUP2 PUSH2 0x19DB JUMP JUMPDEST POP JUMP JUMPDEST JUMP JUMPDEST PUSH0 DUP1 PUSH1 0x1 PUSH0 SWAP1 SLOAD SWAP1 PUSH2 0x100 EXP SWAP1 DIV PUSH20 0xFFFFFFFFFFFFFFFFFFFFFFFFFFFFFFFFFFFFFFFF AND PUSH20 0xFFFFFFFFFFFFFFFFFFFFFFFFFFFFFFFFFFFFFFFF AND PUSH4 0xD06CA61F DUP6 DUP6 PUSH1 0x40 MLOAD DUP4 PUSH4 0xFFFFFFFF AND PUSH1 0xE0 SHL DUP2 MSTORE PUSH1 0x4 ADD PUSH2 0x18DD SWAP3 SWAP2 SWAP1 PUSH2 0x2974 JUMP JUMPDEST PUSH0 PUSH1 0x40 MLOAD DUP1 DUP4 SUB DUP2 DUP7 GAS STATICCALL SWAP3 POP POP POP DUP1 ISZERO PUSH2 0x191A JUMPI POP PUSH1 0x40 MLOAD RETURNDATASIZE PUSH0 DUP3 RETURNDATACOPY RETURNDATASIZE PUSH1 0x1F NOT PUSH1 0x1F DUP3 ADD AND DUP3 ADD DUP1 PUSH1 0x40 MSTORE POP DUP2 ADD SWAP1 PUSH2 0x1917 SWAP2 SWAP1 PUSH2 0x2416 JUMP JUMPDEST PUSH1 0x1 JUMPDEST PUSH2 0x1929 JUMPI PUSH0 DUP1 SWAP2 POP SWAP2 POP PUSH2 0x194D JUMP JUMPDEST PUSH1 0x1 DUP2 PUSH1 0x1 DUP2 MLOAD DUP2 LT PUSH2 0x193F JUMPI PUSH2 0x193E PUSH2 0x21C3 JUMP JUMPDEST JUMPDEST PUSH1 0x20 MUL PUSH1 0x20 ADD ADD MLOAD SWAP3 POP SWAP3 POP POP JUMPDEST SWAP3 POP SWAP3 SWAP1 POP JUMP JUMPDEST PUSH2 0x195C PUSH2 0x1A9C JUMP JUMPDEST PUSH20 0xFFFFFFFFFFFFFFFFFFFFFFFFFFFFFFFFFFFFFFFF AND PUSH2 0x197A PUSH2 0x1243 JUMP JUMPDEST PUSH20 0xFFFFFFFFFFFFFFFFFFFFFFFFFFFFFFFFFFFFFFFF AND EQ PUSH2 0x19D9 JUMPI PUSH2 0x199D PUSH2 0x1A9C JUMP JUMPDEST PUSH1 0x40 MLOAD PUSH32 0x118CDAA700000000000000000000000000000000000000000000000000000000 DUP2 MSTORE PUSH1 0x4 ADD PUSH2 0x19D0 SWAP2 SWAP1 PUSH2 0x1CBC JUMP JUMPDEST PUSH1 0x40 MLOAD DUP1 SWAP2 SUB SWAP1 REVERT JUMPDEST JUMP JUMPDEST PUSH0 DUP1 PUSH0 SWAP1 SLOAD SWAP1 PUSH2 0x100 EXP SWAP1 DIV PUSH20 0xFFFFFFFFFFFFFFFFFFFFFFFFFFFFFFFFFFFFFFFF AND SWAP1 POP DUP2 PUSH0 DUP1 PUSH2 0x100 EXP DUP2 SLOAD DUP2 PUSH20 0xFFFFFFFFFFFFFFFFFFFFFFFFFFFFFFFFFFFFFFFF MUL NOT AND SWAP1 DUP4 PUSH20 0xFFFFFFFFFFFFFFFFFFFFFFFFFFFFFFFFFFFFFFFF AND MUL OR SWAP1 SSTORE POP DUP2 PUSH20 0xFFFFFFFFFFFFFFFFFFFFFFFFFFFFFFFFFFFFFFFF AND DUP2 PUSH20 0xFFFFFFFFFFFFFFFFFFFFFFFFFFFFFFFFFFFFFFFF AND PUSH32 0x8BE0079C531659141344CD1FD0A4F28419497F9722A3DAAFE3B4186F6B6457E0 PUSH1 0x40 MLOAD PUSH1 0x40 MLOAD DUP1 SWAP2 SUB SWAP1 LOG3 POP POP JUMP JUMPDEST PUSH0 CALLER SWAP1 POP SWAP1 JUMP JUMPDEST PUSH0 PUSH1 0x40 MLOAD SWAP1 POP SWAP1 JUMP JUMPDEST PUSH0 DUP1 REVERT JUMPDEST PUSH0 DUP1 REVERT JUMPDEST PUSH0 DUP2 SWAP1 POP SWAP2 SWAP1 POP JUMP JUMPDEST PUSH2 0x1AC6 DUP2 PUSH2 0x1AB4 JUMP JUMPDEST DUP2 EQ PUSH2 0x1AD0 JUMPI PUSH0 DUP1 REVERT JUMPDEST POP JUMP JUMPDEST PUSH0 DUP2 CALLDATALOAD SWAP1 POP PUSH2 0x1AE1 DUP2 PUSH2 0x1ABD JUMP JUMPDEST SWAP3 SWAP2 POP POP JUMP JUMPDEST PUSH0 DUP1 REVERT JUMPDEST PUSH0 DUP1 REVERT JUMPDEST PUSH0 PUSH1 0x1F NOT PUSH1 0x1F DUP4 ADD AND SWAP1 POP SWAP2 SWAP1 POP JUMP JUMPDEST PUSH32 0x4E487B7100000000000000000000000000000000000000000000000000000000 PUSH0 MSTORE PUSH1 0x41 PUSH1 0x4 MSTORE PUSH1 0x24 PUSH0 REVERT JUMPDEST PUSH2 0x1B35 DUP3 PUSH2 0x1AEF JUMP JUMPDEST DUP2 ADD DUP2 DUP2 LT PUSH8 0xFFFFFFFFFFFFFFFF DUP3 GT OR ISZERO PUSH2 0x1B54 JUMPI PUSH2 0x1B53 PUSH2 0x1AFF JUMP JUMPDEST JUMPDEST DUP1 PUSH1 0x40 MSTORE POP POP POP JUMP JUMPDEST PUSH0 PUSH2 0x1B66 PUSH2 0x1AA3 JUMP JUMPDEST SWAP1 POP PUSH2 0x1B72 DUP3 DUP3 PUSH2 0x1B2C JUMP JUMPDEST SWAP2 SWAP1 POP JUMP JUMPDEST PUSH0 PUSH8 0xFFFFFFFFFFFFFFFF DUP3 GT ISZERO PUSH2 0x1B91 JUMPI PUSH2 0x1B90 PUSH2 0x1AFF JUMP JUMPDEST JUMPDEST PUSH2 0x1B9A DUP3 PUSH2 0x1AEF JUMP JUMPDEST SWAP1 POP PUSH1 0x20 DUP2 ADD SWAP1 POP SWAP2 SWAP1 POP JUMP JUMPDEST DUP3 DUP2 DUP4 CALLDATACOPY PUSH0 DUP4 DUP4 ADD MSTORE POP POP POP JUMP JUMPDEST PUSH0 PUSH2 0x1BC7 PUSH2 0x1BC2 DUP5 PUSH2 0x1B77 JUMP JUMPDEST PUSH2 0x1B5D JUMP JUMPDEST SWAP1 POP DUP3 DUP2 MSTORE PUSH1 0x20 DUP2 ADD DUP5 DUP5 DUP5 ADD GT ISZERO PUSH2 0x1BE3 JUMPI PUSH2 0x1BE2 PUSH2 0x1AEB JUMP JUMPDEST JUMPDEST PUSH2 0x1BEE DUP5 DUP3 DUP6 PUSH2 0x1BA7 JUMP JUMPDEST POP SWAP4 SWAP3 POP POP POP JUMP JUMPDEST PUSH0 DUP3 PUSH1 0x1F DUP4 ADD SLT PUSH2 0x1C0A JUMPI PUSH2 0x1C09 PUSH2 0x1AE7 JUMP JUMPDEST JUMPDEST DUP2 CALLDATALOAD PUSH2 0x1C1A DUP5 DUP3 PUSH1 0x20 DUP7 ADD PUSH2 0x1BB5 JUMP JUMPDEST SWAP2 POP POP SWAP3 SWAP2 POP POP JUMP JUMPDEST PUSH0 DUP1 PUSH1 0x40 DUP4 DUP6 SUB SLT ISZERO PUSH2 0x1C39 JUMPI PUSH2 0x1C38 PUSH2 0x1AAC JUMP JUMPDEST JUMPDEST PUSH0 PUSH2 0x1C46 DUP6 DUP3 DUP7 ADD PUSH2 0x1AD3 JUMP JUMPDEST SWAP3 POP POP PUSH1 0x20 DUP4 ADD CALLDATALOAD PUSH8 0xFFFFFFFFFFFFFFFF DUP2 GT ISZERO PUSH2 0x1C67 JUMPI PUSH2 0x1C66 PUSH2 0x1AB0 JUMP JUMPDEST JUMPDEST PUSH2 0x1C73 DUP6 DUP3 DUP7 ADD PUSH2 0x1BF6 JUMP JUMPDEST SWAP2 POP POP SWAP3 POP SWAP3 SWAP1 POP JUMP JUMPDEST PUSH0 PUSH20 0xFFFFFFFFFFFFFFFFFFFFFFFFFFFFFFFFFFFFFFFF DUP3 AND SWAP1 POP SWAP2 SWAP1 POP JUMP JUMPDEST PUSH0 PUSH2 0x1CA6 DUP3 PUSH2 0x1C7D JUMP JUMPDEST SWAP1 POP SWAP2 SWAP1 POP JUMP JUMPDEST PUSH2 0x1CB6 DUP2 PUSH2 0x1C9C JUMP JUMPDEST DUP3 MSTORE POP POP JUMP JUMPDEST PUSH0 PUSH1 0x20 DUP3 ADD SWAP1 POP PUSH2 0x1CCF PUSH0 DUP4 ADD DUP5 PUSH2 0x1CAD JUMP JUMPDEST SWAP3 SWAP2 POP POP JUMP JUMPDEST PUSH2 0x1CDE DUP2 PUSH2 0x1C9C JUMP JUMPDEST DUP2 EQ PUSH2 0x1CE8 JUMPI PUSH0 DUP1 REVERT JUMPDEST POP JUMP JUMPDEST PUSH0 DUP2 CALLDATALOAD SWAP1 POP PUSH2 0x1CF9 DUP2 PUSH2 0x1CD5 JUMP JUMPDEST SWAP3 SWAP2 POP POP JUMP JUMPDEST PUSH0 DUP2 SWAP1 POP SWAP2 SWAP1 POP JUMP JUMPDEST PUSH2 0x1D11 DUP2 PUSH2 0x1CFF JUMP JUMPDEST DUP2 EQ PUSH2 0x1D1B JUMPI PUSH0 DUP1 REVERT JUMPDEST POP JUMP JUMPDEST PUSH0 DUP2 CALLDATALOAD SWAP1 POP PUSH2 0x1D2C DUP2 PUSH2 0x1D08 JUMP JUMPDEST SWAP3 SWAP2 POP POP JUMP JUMPDEST PUSH0 DUP1 PUSH0 PUSH1 0x60 DUP5 DUP7 SUB SLT ISZERO PUSH2 0x1D49 JUMPI PUSH2 0x1D48 PUSH2 0x1AAC JUMP JUMPDEST JUMPDEST PUSH0 PUSH2 0x1D56 DUP7 DUP3 DUP8 ADD PUSH2 0x1CEB JUMP JUMPDEST SWAP4 POP POP PUSH1 0x20 PUSH2 0x1D67 DUP7 DUP3 DUP8 ADD PUSH2 0x1D1E JUMP JUMPDEST SWAP3 POP POP PUSH1 0x40 PUSH2 0x1D78 DUP7 DUP3 DUP8 ADD PUSH2 0x1D1E JUMP JUMPDEST SWAP2 POP POP SWAP3 POP SWAP3 POP SWAP3 JUMP JUMPDEST PUSH0 DUP1 PUSH0 DUP1 PUSH0 PUSH1 0xA0 DUP7 DUP9 SUB SLT ISZERO PUSH2 0x1D9B JUMPI PUSH2 0x1D9A PUSH2 0x1AAC JUMP JUMPDEST JUMPDEST PUSH0 PUSH2 0x1DA8 DUP9 DUP3 DUP10 ADD PUSH2 0x1CEB JUMP JUMPDEST SWAP6 POP POP PUSH1 0x20 PUSH2 0x1DB9 DUP9 DUP3 DUP10 ADD PUSH2 0x1D1E JUMP JUMPDEST SWAP5 POP POP PUSH1 0x40 PUSH2 0x1DCA DUP9 DUP3 DUP10 ADD PUSH2 0x1D1E JUMP JUMPDEST SWAP4 POP POP PUSH1 0x60 DUP7 ADD CALLDATALOAD PUSH8 0xFFFFFFFFFFFFFFFF DUP2 GT ISZERO PUSH2 0x1DEB JUMPI PUSH2 0x1DEA PUSH2 0x1AB0 JUMP JUMPDEST JUMPDEST PUSH2 0x1DF7 DUP9 DUP3 DUP10 ADD PUSH2 0x1BF6 JUMP JUMPDEST SWAP3 POP POP PUSH1 0x80 PUSH2 0x1E08 DUP9 DUP3 DUP10 ADD PUSH2 0x1D1E JUMP JUMPDEST SWAP2 POP POP SWAP3 SWAP6 POP SWAP3 SWAP6 SWAP1 SWAP4 POP JUMP JUMPDEST PUSH2 0x1E1E DUP2 PUSH2 0x1CFF JUMP JUMPDEST DUP3 MSTORE POP POP JUMP JUMPDEST PUSH0 PUSH1 0x20 DUP3 ADD SWAP1 POP PUSH2 0x1E37 PUSH0 DUP4 ADD DUP5 PUSH2 0x1E15 JUMP JUMPDEST SWAP3 SWAP2 POP POP JUMP JUMPDEST PUSH0 PUSH1 0x20 DUP3 DUP5 SUB SLT ISZERO PUSH2 0x1E52 JUMPI PUSH2 0x1E51 PUSH2 0x1AAC JUMP JUMPDEST JUMPDEST PUSH0 PUSH2 0x1E5F DUP5 DUP3 DUP6 ADD PUSH2 0x1CEB JUMP JUMPDEST SWAP2 POP POP SWAP3 SWAP2 POP POP JUMP JUMPDEST PUSH0 DUP2 SWAP1 POP SWAP2 SWAP1 POP JUMP JUMPDEST PUSH0 PUSH2 0x1E8B PUSH2 0x1E86 PUSH2 0x1E81 DUP5 PUSH2 0x1C7D JUMP JUMPDEST PUSH2 0x1E68 JUMP JUMPDEST PUSH2 0x1C7D JUMP JUMPDEST SWAP1 POP SWAP2 SWAP1 POP JUMP JUMPDEST PUSH0 PUSH2 0x1E9C DUP3 PUSH2 0x1E71 JUMP JUMPDEST SWAP1 POP SWAP2 SWAP1 POP JUMP JUMPDEST PUSH0 PUSH2 0x1EAD DUP3 PUSH2 0x1E92 JUMP JUMPDEST SWAP1 POP SWAP2 SWAP1 POP JUMP JUMPDEST PUSH2 0x1EBD DUP2 PUSH2 0x1EA3 JUMP JUMPDEST DUP3 MSTORE POP POP JUMP JUMPDEST PUSH0 PUSH1 0x20 DUP3 ADD SWAP1 POP PUSH2 0x1ED6 PUSH0 DUP4 ADD DUP5 PUSH2 0x1EB4 JUMP JUMPDEST SWAP3 SWAP2 POP POP JUMP JUMPDEST PUSH0 PUSH2 0x1EE6 DUP3 PUSH2 0x1E92 JUMP JUMPDEST SWAP1 POP SWAP2 SWAP1 POP JUMP JUMPDEST PUSH2 0x1EF6 DUP2 PUSH2 0x1EDC JUMP JUMPDEST DUP3 MSTORE POP POP JUMP JUMPDEST PUSH0 PUSH1 0x20 DUP3 ADD SWAP1 POP PUSH2 0x1F0F PUSH0 DUP4 ADD DUP5 PUSH2 0x1EED JUMP JUMPDEST SWAP3 SWAP2 POP POP JUMP JUMPDEST PUSH0 PUSH1 0x20 DUP3 DUP5 SUB SLT ISZERO PUSH2 0x1F2A JUMPI PUSH2 0x1F29 PUSH2 0x1AAC JUMP JUMPDEST JUMPDEST PUSH0 PUSH2 0x1F37 DUP5 DUP3 DUP6 ADD PUSH2 0x1D1E JUMP JUMPDEST SWAP2 POP POP SWAP3 SWAP2 POP POP JUMP JUMPDEST PUSH0 DUP1 PUSH0 DUP1 PUSH1 0x80 DUP6 DUP8 SUB SLT ISZERO PUSH2 0x1F58 JUMPI PUSH2 0x1F57 PUSH2 0x1AAC JUMP JUMPDEST JUMPDEST PUSH0 PUSH2 0x1F65 DUP8 DUP3 DUP9 ADD PUSH2 0x1CEB JUMP JUMPDEST SWAP5 POP POP PUSH1 0x20 PUSH2 0x1F76 DUP8 DUP3 DUP9 ADD PUSH2 0x1D1E JUMP JUMPDEST SWAP4 POP POP PUSH1 0x40 PUSH2 0x1F87 DUP8 DUP3 DUP9 ADD PUSH2 0x1D1E JUMP JUMPDEST SWAP3 POP POP PUSH1 0x60 PUSH2 0x1F98 DUP8 DUP3 DUP9 ADD PUSH2 0x1D1E JUMP JUMPDEST SWAP2 POP POP SWAP3 SWAP6 SWAP2 SWAP5 POP SWAP3 POP JUMP JUMPDEST PUSH0 DUP2 ISZERO ISZERO SWAP1 POP SWAP2 SWAP1 POP JUMP JUMPDEST PUSH2 0x1FB8 DUP2 PUSH2 0x1FA4 JUMP JUMPDEST DUP3 MSTORE POP POP JUMP JUMPDEST PUSH0 PUSH1 0x60 DUP3 ADD SWAP1 POP PUSH2 0x1FD1 PUSH0 DUP4 ADD DUP7 PUSH2 0x1E15 JUMP JUMPDEST PUSH2 0x1FDE PUSH1 0x20 DUP4 ADD DUP6 PUSH2 0x1E15 JUMP JUMPDEST PUSH2 0x1FEB PUSH1 0x40 DUP4 ADD DUP5 PUSH2 0x1FAF JUMP JUMPDEST SWAP5 SWAP4 POP POP POP POP JUMP JUMPDEST PUSH0 PUSH1 0x20 DUP3 ADD SWAP1 POP PUSH2 0x2006 PUSH0 DUP4 ADD DUP5 PUSH2 0x1FAF JUMP JUMPDEST SWAP3 SWAP2 POP POP JUMP JUMPDEST PUSH0 DUP2 SWAP1 POP SWAP3 SWAP2 POP POP JUMP JUMPDEST PUSH32 0x19457468657265756D205369676E6564204D6573736167653A0A333200000000 PUSH0 DUP3 ADD MSTORE POP JUMP JUMPDEST PUSH0 PUSH2 0x204A PUSH1 0x1C DUP4 PUSH2 0x200C JUMP JUMPDEST SWAP2 POP PUSH2 0x2055 DUP3 PUSH2 0x2016 JUMP JUMPDEST PUSH1 0x1C DUP3 ADD SWAP1 POP SWAP2 SWAP1 POP JUMP JUMPDEST PUSH0 DUP2 SWAP1 POP SWAP2 SWAP1 POP JUMP JUMPDEST PUSH2 0x207A PUSH2 0x2075 DUP3 PUSH2 0x1AB4 JUMP JUMPDEST PUSH2 0x2060 JUMP JUMPDEST DUP3 MSTORE POP POP JUMP JUMPDEST PUSH0 PUSH2 0x208A DUP3 PUSH2 0x203E JUMP JUMPDEST SWAP2 POP PUSH2 0x2096 DUP3 DUP5 PUSH2 0x2069 JUMP JUMPDEST PUSH1 0x20 DUP3 ADD SWAP2 POP DUP2 SWAP1 POP SWAP3 SWAP2 POP POP JUMP JUMPDEST PUSH2 0x20AE DUP2 PUSH2 0x1AB4 JUMP JUMPDEST DUP3 MSTORE POP POP JUMP JUMPDEST PUSH0 PUSH1 0xFF DUP3 AND SWAP1 POP SWAP2 SWAP1 POP JUMP JUMPDEST PUSH2 0x20C9 DUP2 PUSH2 0x20B4 JUMP JUMPDEST DUP3 MSTORE POP POP JUMP JUMPDEST PUSH0 PUSH1 0x80 DUP3 ADD SWAP1 POP PUSH2 0x20E2 PUSH0 DUP4 ADD DUP8 PUSH2 0x20A5 JUMP JUMPDEST PUSH2 0x20EF PUSH1 0x20 DUP4 ADD DUP7 PUSH2 0x20C0 JUMP JUMPDEST PUSH2 0x20FC PUSH1 0x40 DUP4 ADD DUP6 PUSH2 0x20A5 JUMP JUMPDEST PUSH2 0x2109 PUSH1 0x60 DUP4 ADD DUP5 PUSH2 0x20A5 JUMP JUMPDEST SWAP6 SWAP5 POP POP POP POP POP JUMP JUMPDEST PUSH0 PUSH1 0x60 DUP3 ADD SWAP1 POP PUSH2 0x2125 PUSH0 DUP4 ADD DUP7 PUSH2 0x1CAD JUMP JUMPDEST PUSH2 0x2132 PUSH1 0x20 DUP4 ADD DUP6 PUSH2 0x1CAD JUMP JUMPDEST PUSH2 0x213F PUSH1 0x40 DUP4 ADD DUP5 PUSH2 0x1E15 JUMP JUMPDEST SWAP5 SWAP4 POP POP POP POP JUMP JUMPDEST PUSH2 0x2150 DUP2 PUSH2 0x1FA4 JUMP JUMPDEST DUP2 EQ PUSH2 0x215A JUMPI PUSH0 DUP1 REVERT JUMPDEST POP JUMP JUMPDEST PUSH0 DUP2 MLOAD SWAP1 POP PUSH2 0x216B DUP2 PUSH2 0x2147 JUMP JUMPDEST SWAP3 SWAP2 POP POP JUMP JUMPDEST PUSH0 PUSH1 0x20 DUP3 DUP5 SUB SLT ISZERO PUSH2 0x2186 JUMPI PUSH2 0x2185 PUSH2 0x1AAC JUMP JUMPDEST JUMPDEST PUSH0 PUSH2 0x2193 DUP5 DUP3 DUP6 ADD PUSH2 0x215D JUMP JUMPDEST SWAP2 POP POP SWAP3 SWAP2 POP POP JUMP JUMPDEST PUSH0 PUSH1 0x40 DUP3 ADD SWAP1 POP PUSH2 0x21AF PUSH0 DUP4 ADD DUP6 PUSH2 0x1CAD JUMP JUMPDEST PUSH2 0x21BC PUSH1 0x20 DUP4 ADD DUP5 PUSH2 0x1E15 JUMP JUMPDEST SWAP4 SWAP3 POP POP POP JUMP JUMPDEST PUSH32 0x4E487B7100000000000000000000000000000000000000000000000000000000 PUSH0 MSTORE PUSH1 0x32 PUSH1 0x4 MSTORE PUSH1 0x24 PUSH0 REVERT JUMPDEST PUSH0 DUP2 MLOAD SWAP1 POP PUSH2 0x21FE DUP2 PUSH2 0x1CD5 JUMP JUMPDEST SWAP3 SWAP2 POP POP JUMP JUMPDEST PUSH0 PUSH1 0x20 DUP3 DUP5 SUB SLT ISZERO PUSH2 0x2219 JUMPI PUSH2 0x2218 PUSH2 0x1AAC JUMP JUMPDEST JUMPDEST PUSH0 PUSH2 0x2226 DUP5 DUP3 DUP6 ADD PUSH2 0x21F0 JUMP JUMPDEST SWAP2 POP POP SWAP3 SWAP2 POP POP JUMP JUMPDEST PUSH0 DUP2 MLOAD SWAP1 POP SWAP2 SWAP1 POP JUMP JUMPDEST PUSH0 DUP3 DUP3 MSTORE PUSH1 0x20 DUP3 ADD SWAP1 POP SWAP3 SWAP2 POP POP JUMP JUMPDEST PUSH0 DUP2 SWAP1 POP PUSH1 0x20 DUP3 ADD SWAP1 POP SWAP2 SWAP1 POP JUMP JUMPDEST PUSH2 0x2261 DUP2 PUSH2 0x1C9C JUMP JUMPDEST DUP3 MSTORE POP POP JUMP JUMPDEST PUSH0 PUSH2 0x2272 DUP4 DUP4 PUSH2 0x2258 JUMP JUMPDEST PUSH1 0x20 DUP4 ADD SWAP1 POP SWAP3 SWAP2 POP POP JUMP JUMPDEST PUSH0 PUSH1 0x20 DUP3 ADD SWAP1 POP SWAP2 SWAP1 POP JUMP JUMPDEST PUSH0 PUSH2 0x2294 DUP3 PUSH2 0x222F JUMP JUMPDEST PUSH2 0x229E DUP2 DUP6 PUSH2 0x2239 JUMP JUMPDEST SWAP4 POP PUSH2 0x22A9 DUP4 PUSH2 0x2249 JUMP JUMPDEST DUP1 PUSH0 JUMPDEST DUP4 DUP2 LT ISZERO PUSH2 0x22D9 JUMPI DUP2 MLOAD PUSH2 0x22C0 DUP9 DUP3 PUSH2 0x2267 JUMP JUMPDEST SWAP8 POP PUSH2 0x22CB DUP4 PUSH2 0x227E JUMP JUMPDEST SWAP3 POP POP PUSH1 0x1 DUP2 ADD SWAP1 POP PUSH2 0x22AC JUMP JUMPDEST POP DUP6 SWAP4 POP POP POP POP SWAP3 SWAP2 POP POP JUMP JUMPDEST PUSH0 PUSH1 0xA0 DUP3 ADD SWAP1 POP PUSH2 0x22F9 PUSH0 DUP4 ADD DUP9 PUSH2 0x1E15 JUMP JUMPDEST PUSH2 0x2306 PUSH1 0x20 DUP4 ADD DUP8 PUSH2 0x1E15 JUMP JUMPDEST DUP2 DUP2 SUB PUSH1 0x40 DUP4 ADD MSTORE PUSH2 0x2318 DUP2 DUP7 PUSH2 0x228A JUMP JUMPDEST SWAP1 POP PUSH2 0x2327 PUSH1 0x60 DUP4 ADD DUP6 PUSH2 0x1CAD JUMP JUMPDEST PUSH2 0x2334 PUSH1 0x80 DUP4 ADD DUP5 PUSH2 0x1E15 JUMP JUMPDEST SWAP7 SWAP6 POP POP POP POP POP POP JUMP JUMPDEST PUSH0 PUSH8 0xFFFFFFFFFFFFFFFF DUP3 GT ISZERO PUSH2 0x2358 JUMPI PUSH2 0x2357 PUSH2 0x1AFF JUMP JUMPDEST JUMPDEST PUSH1 0x20 DUP3 MUL SWAP1 POP PUSH1 0x20 DUP2 ADD SWAP1 POP SWAP2 SWAP1 POP JUMP JUMPDEST PUSH0 DUP1 REVERT JUMPDEST PUSH0 DUP2 MLOAD SWAP1 POP PUSH2 0x237B DUP2 PUSH2 0x1D08 JUMP JUMPDEST SWAP3 SWAP2 POP POP JUMP JUMPDEST PUSH0 PUSH2 0x2393 PUSH2 0x238E DUP5 PUSH2 0x233E JUMP JUMPDEST PUSH2 0x1B5D JUMP JUMPDEST SWAP1 POP DUP1 DUP4 DUP3 MSTORE PUSH1 0x20 DUP3 ADD SWAP1 POP PUSH1 0x20 DUP5 MUL DUP4 ADD DUP6 DUP2 GT ISZERO PUSH2 0x23B6 JUMPI PUSH2 0x23B5 PUSH2 0x2369 JUMP JUMPDEST JUMPDEST DUP4 JUMPDEST DUP2 DUP2 LT ISZERO PUSH2 0x23DF JUMPI DUP1 PUSH2 0x23CB DUP9 DUP3 PUSH2 0x236D JUMP JUMPDEST DUP5 MSTORE PUSH1 0x20 DUP5 ADD SWAP4 POP POP PUSH1 0x20 DUP2 ADD SWAP1 POP PUSH2 0x23B8 JUMP JUMPDEST POP POP POP SWAP4 SWAP3 POP POP POP JUMP JUMPDEST PUSH0 DUP3 PUSH1 0x1F DUP4 ADD SLT PUSH2 0x23FD JUMPI PUSH2 0x23FC PUSH2 0x1AE7 JUMP JUMPDEST JUMPDEST DUP2 MLOAD PUSH2 0x240D DUP5 DUP3 PUSH1 0x20 DUP7 ADD PUSH2 0x2381 JUMP JUMPDEST SWAP2 POP POP SWAP3 SWAP2 POP POP JUMP JUMPDEST PUSH0 PUSH1 0x20 DUP3 DUP5 SUB SLT ISZERO PUSH2 0x242B JUMPI PUSH2 0x242A PUSH2 0x1AAC JUMP JUMPDEST JUMPDEST PUSH0 DUP3 ADD MLOAD PUSH8 0xFFFFFFFFFFFFFFFF DUP2 GT ISZERO PUSH2 0x2448 JUMPI PUSH2 0x2447 PUSH2 0x1AB0 JUMP JUMPDEST JUMPDEST PUSH2 0x2454 DUP5 DUP3 DUP6 ADD PUSH2 0x23E9 JUMP JUMPDEST SWAP2 POP POP SWAP3 SWAP2 POP POP JUMP JUMPDEST PUSH32 0x4E487B7100000000000000000000000000000000000000000000000000000000 PUSH0 MSTORE PUSH1 0x11 PUSH1 0x4 MSTORE PUSH1 0x24 PUSH0 REVERT JUMPDEST PUSH0 PUSH2 0x2494 DUP3 PUSH2 0x1CFF JUMP JUMPDEST SWAP2 POP PUSH2 0x249F DUP4 PUSH2 0x1CFF JUMP JUMPDEST SWAP3 POP DUP3 DUP3 MUL PUSH2 0x24AD DUP2 PUSH2 0x1CFF JUMP JUMPDEST SWAP2 POP DUP3 DUP3 DIV DUP5 EQ DUP4 ISZERO OR PUSH2 0x24C4 JUMPI PUSH2 0x24C3 PUSH2 0x245D JUMP JUMPDEST JUMPDEST POP SWAP3 SWAP2 POP POP JUMP JUMPDEST PUSH32 0x4E487B7100000000000000000000000000000000000000000000000000000000 PUSH0 MSTORE PUSH1 0x12 PUSH1 0x4 MSTORE PUSH1 0x24 PUSH0 REVERT JUMPDEST PUSH0 PUSH2 0x2502 DUP3 PUSH2 0x1CFF JUMP JUMPDEST SWAP2 POP PUSH2 0x250D DUP4 PUSH2 0x1CFF JUMP JUMPDEST SWAP3 POP DUP3 PUSH2 0x251D JUMPI PUSH2 0x251C PUSH2 0x24CB JUMP JUMPDEST JUMPDEST DUP3 DUP3 DIV SWAP1 POP SWAP3 SWAP2 POP POP JUMP JUMPDEST PUSH0 PUSH2 0x2532 DUP3 PUSH2 0x1CFF JUMP JUMPDEST SWAP2 POP PUSH2 0x253D DUP4 PUSH2 0x1CFF JUMP JUMPDEST SWAP3 POP DUP3 DUP3 SUB SWAP1 POP DUP2 DUP2 GT ISZERO PUSH2 0x2555 JUMPI PUSH2 0x2554 PUSH2 0x245D JUMP JUMPDEST JUMPDEST SWAP3 SWAP2 POP POP JUMP JUMPDEST PUSH0 DUP3 DUP3 MSTORE PUSH1 0x20 DUP3 ADD SWAP1 POP SWAP3 SWAP2 POP POP JUMP JUMPDEST PUSH32 0x457374696D617465642067617320636F73742065786365656473206D696E416D PUSH0 DUP3 ADD MSTORE PUSH32 0x6F756E744F757400000000000000000000000000000000000000000000000000 PUSH1 0x20 DUP3 ADD MSTORE POP JUMP JUMPDEST PUSH0 PUSH2 0x25C5 PUSH1 0x27 DUP4 PUSH2 0x255B JUMP JUMPDEST SWAP2 POP PUSH2 0x25D0 DUP3 PUSH2 0x256B JUMP JUMPDEST PUSH1 0x40 DUP3 ADD SWAP1 POP SWAP2 SWAP1 POP JUMP JUMPDEST PUSH0 PUSH1 0x20 DUP3 ADD SWAP1 POP DUP2 DUP2 SUB PUSH0 DUP4 ADD MSTORE PUSH2 0x25F2 DUP2 PUSH2 0x25B9 JUMP JUMPDEST SWAP1 POP SWAP2 SWAP1 POP JUMP JUMPDEST PUSH0 DUP2 PUSH1 0x60 SHL SWAP1 POP SWAP2 SWAP1 POP JUMP JUMPDEST PUSH0 PUSH2 0x260F DUP3 PUSH2 0x25F9 JUMP JUMPDEST SWAP1 POP SWAP2 SWAP1 POP JUMP JUMPDEST PUSH0 PUSH2 0x2620 DUP3 PUSH2 0x2605 JUMP JUMPDEST SWAP1 POP SWAP2 SWAP1 POP JUMP JUMPDEST PUSH2 0x2638 PUSH2 0x2633 DUP3 PUSH2 0x1C9C JUMP JUMPDEST PUSH2 0x2616 JUMP JUMPDEST DUP3 MSTORE POP POP JUMP JUMPDEST PUSH0 DUP2 SWAP1 POP SWAP2 SWAP1 POP JUMP JUMPDEST PUSH2 0x2658 PUSH2 0x2653 DUP3 PUSH2 0x1CFF JUMP JUMPDEST PUSH2 0x263E JUMP JUMPDEST DUP3 MSTORE POP POP JUMP JUMPDEST PUSH0 PUSH2 0x2669 DUP3 DUP8 PUSH2 0x2627 JUMP JUMPDEST PUSH1 0x14 DUP3 ADD SWAP2 POP PUSH2 0x2679 DUP3 DUP7 PUSH2 0x2647 JUMP JUMPDEST PUSH1 0x20 DUP3 ADD SWAP2 POP PUSH2 0x2689 DUP3 DUP6 PUSH2 0x2647 JUMP JUMPDEST PUSH1 0x20 DUP3 ADD SWAP2 POP PUSH2 0x2699 DUP3 DUP5 PUSH2 0x2647 JUMP JUMPDEST PUSH1 0x20 DUP3 ADD SWAP2 POP DUP2 SWAP1 POP SWAP6 SWAP5 POP POP POP POP POP JUMP JUMPDEST PUSH32 0x496E76616C6964207369676E6174757265000000000000000000000000000000 PUSH0 DUP3 ADD MSTORE POP JUMP JUMPDEST PUSH0 PUSH2 0x26DF PUSH1 0x11 DUP4 PUSH2 0x255B JUMP JUMPDEST SWAP2 POP PUSH2 0x26EA DUP3 PUSH2 0x26AB JUMP JUMPDEST PUSH1 0x20 DUP3 ADD SWAP1 POP SWAP2 SWAP1 POP JUMP JUMPDEST PUSH0 PUSH1 0x20 DUP3 ADD SWAP1 POP DUP2 DUP2 SUB PUSH0 DUP4 ADD MSTORE PUSH2 0x270C DUP2 PUSH2 0x26D3 JUMP JUMPDEST SWAP1 POP SWAP2 SWAP1 POP JUMP JUMPDEST PUSH32 0x5377617020457870656374656420746F206661696C0000000000000000000000 PUSH0 DUP3 ADD MSTORE POP JUMP JUMPDEST PUSH0 PUSH2 0x2747 PUSH1 0x15 DUP4 PUSH2 0x255B JUMP JUMPDEST SWAP2 POP PUSH2 0x2752 DUP3 PUSH2 0x2713 JUMP JUMPDEST PUSH1 0x20 DUP3 ADD SWAP1 POP SWAP2 SWAP1 POP JUMP JUMPDEST PUSH0 PUSH1 0x20 DUP3 ADD SWAP1 POP DUP2 DUP2 SUB PUSH0 DUP4 ADD MSTORE PUSH2 0x2774 DUP2 PUSH2 0x273B JUMP JUMPDEST SWAP1 POP SWAP2 SWAP1 POP JUMP JUMPDEST PUSH32 0x457870656374656420676173206D6F7265207468616E2072657475726E000000 PUSH0 DUP3 ADD MSTORE POP JUMP JUMPDEST PUSH0 PUSH2 0x27AF PUSH1 0x1D DUP4 PUSH2 0x255B JUMP JUMPDEST SWAP2 POP PUSH2 0x27BA DUP3 PUSH2 0x277B JUMP JUMPDEST PUSH1 0x20 DUP3 ADD SWAP1 POP SWAP2 SWAP1 POP JUMP JUMPDEST PUSH0 PUSH1 0x20 DUP3 ADD SWAP1 POP DUP2 DUP2 SUB PUSH0 DUP4 ADD MSTORE PUSH2 0x27DC DUP2 PUSH2 0x27A3 JUMP JUMPDEST SWAP1 POP SWAP2 SWAP1 POP JUMP JUMPDEST PUSH32 0x457870656374656420616D6F756E74206C657373207468616E206D696E696D75 PUSH0 DUP3 ADD MSTORE PUSH32 0x6D20726571756972656400000000000000000000000000000000000000000000 PUSH1 0x20 DUP3 ADD MSTORE POP JUMP JUMPDEST PUSH0 PUSH2 0x283D PUSH1 0x2A DUP4 PUSH2 0x255B JUMP JUMPDEST SWAP2 POP PUSH2 0x2848 DUP3 PUSH2 0x27E3 JUMP JUMPDEST PUSH1 0x40 DUP3 ADD SWAP1 POP SWAP2 SWAP1 POP JUMP JUMPDEST PUSH0 PUSH1 0x20 DUP3 ADD SWAP1 POP DUP2 DUP2 SUB PUSH0 DUP4 ADD MSTORE PUSH2 0x286A DUP2 PUSH2 0x2831 JUMP JUMPDEST SWAP1 POP SWAP2 SWAP1 POP JUMP JUMPDEST PUSH0 PUSH2 0x287B DUP3 PUSH2 0x1CFF JUMP JUMPDEST SWAP2 POP PUSH2 0x2886 DUP4 PUSH2 0x1CFF JUMP JUMPDEST SWAP3 POP DUP3 DUP3 ADD SWAP1 POP DUP1 DUP3 GT ISZERO PUSH2 0x289E JUMPI PUSH2 0x289D PUSH2 0x245D JUMP JUMPDEST JUMPDEST SWAP3 SWAP2 POP POP JUMP JUMPDEST PUSH32 0x496E76616C696420616464726573730000000000000000000000000000000000 PUSH0 DUP3 ADD MSTORE POP JUMP JUMPDEST PUSH0 PUSH2 0x28D8 PUSH1 0xF DUP4 PUSH2 0x255B JUMP JUMPDEST SWAP2 POP PUSH2 0x28E3 DUP3 PUSH2 0x28A4 JUMP JUMPDEST PUSH1 0x20 DUP3 ADD SWAP1 POP SWAP2 SWAP1 POP JUMP JUMPDEST PUSH0 PUSH1 0x20 DUP3 ADD SWAP1 POP DUP2 DUP2 SUB PUSH0 DUP4 ADD MSTORE PUSH2 0x2905 DUP2 PUSH2 0x28CC JUMP JUMPDEST SWAP1 POP SWAP2 SWAP1 POP JUMP JUMPDEST PUSH32 0x4E6F206C697175696469747920666F72207468697320746F6B656E0000000000 PUSH0 DUP3 ADD MSTORE POP JUMP JUMPDEST PUSH0 PUSH2 0x2940 PUSH1 0x1B DUP4 PUSH2 0x255B JUMP JUMPDEST SWAP2 POP PUSH2 0x294B DUP3 PUSH2 0x290C JUMP JUMPDEST PUSH1 0x20 DUP3 ADD SWAP1 POP SWAP2 SWAP1 POP JUMP JUMPDEST PUSH0 PUSH1 0x20 DUP3 ADD SWAP1 POP DUP2 DUP2 SUB PUSH0 DUP4 ADD MSTORE PUSH2 0x296D DUP2 PUSH2 0x2934 JUMP JUMPDEST SWAP1 POP SWAP2 SWAP1 POP JUMP JUMPDEST PUSH0 PUSH1 0x40 DUP3 ADD SWAP1 POP PUSH2 0x2987 PUSH0 DUP4 ADD DUP6 PUSH2 0x1E15 JUMP JUMPDEST DUP2 DUP2 SUB PUSH1 0x20 DUP4 ADD MSTORE PUSH2 0x2999 DUP2 DUP5 PUSH2 0x228A JUMP JUMPDEST SWAP1 POP SWAP4 SWAP3 POP POP POP JUMP INVALID LOG2 PUSH5 0x6970667358 0x22 SLT KECCAK256 MSIZE 0xD7 0x26 0xE3 BLOCKHASH 0xF6 LOG2 0xDC PUSH20 0x1CA4FBEB7353EACEAC957EC547E398E7FA769782 DUP7 0xFC 0xD1 PUSH5 0x736F6C6343 STOP ADDMOD ISZERO STOP CALLER "
				},
				"gasEstimates": {
					"creation": {
						"codeDepositCost": "2142400",
						"executionCost": "infinite",
						"totalCost": "infinite"
					},
					"external": {
						"canSwap(address,uint256,uint256)": "infinite",
						"depositETH()": "229",
						"estimatedGasForSwap()": "2515",
						"feePercentage()": "2470",
						"getSignerAddress(bytes32,bytes)": "infinite",
						"getSwapQuote(address,uint256,uint256,uint256)": "infinite",
						"owner()": "2604",
						"renounceOwnership()": "infinite",
						"rewardPot()": "infinite",
						"setEstimatedGasForSwap(uint256)": "infinite",
						"setFeePercentage(uint256)": "infinite",
						"setRewardPot(address)": "infinite",
						"setUniswapRouter(address)": "infinite",
						"swapTokensForETH(address,uint256,uint256,bytes,uint256)": "infinite",
						"swapTokensForETH_UserPaysGas(address,uint256,uint256)": "infinite",
						"transferOwnership(address)": "infinite",
						"uniswapRouter()": "infinite",
						"withdrawETH(uint256)": "infinite"
					},
					"internal": {
						"bytesToBytes32(bytes memory,uint256)": "infinite",
						"tryGetAmountsOut(uint256,address[] memory)": "infinite"
					}
				},
				"methodIdentifiers": {
					"canSwap(address,uint256,uint256)": "b4798209",
					"depositETH()": "f6326fb3",
					"estimatedGasForSwap()": "344954af",
					"feePercentage()": "a001ecdd",
					"getSignerAddress(bytes32,bytes)": "0f7d8e39",
					"getSwapQuote(address,uint256,uint256,uint256)": "ad9902a1",
					"owner()": "8da5cb5b",
					"renounceOwnership()": "715018a6",
					"rewardPot()": "93ad7440",
					"setEstimatedGasForSwap(uint256)": "98281c75",
					"setFeePercentage(uint256)": "ae06c1b7",
					"setRewardPot(address)": "4e63c29e",
					"setUniswapRouter(address)": "bea9849e",
					"swapTokensForETH(address,uint256,uint256,bytes,uint256)": "238cb67d",
					"swapTokensForETH_UserPaysGas(address,uint256,uint256)": "0fe6a787",
					"transferOwnership(address)": "f2fde38b",
					"uniswapRouter()": "735de9f7",
					"withdrawETH(uint256)": "f14210a6"
				}
			},
			"storageLayout": {
				"storage": [
					{
						"astId": 8,
						"contract": "Bitxchange.sol:Bitxchange",
						"label": "_owner",
						"offset": 0,
						"slot": "0",
						"type": "t_address"
					},
					{
						"astId": 659,
						"contract": "Bitxchange.sol:Bitxchange",
						"label": "uniswapRouter",
						"offset": 0,
						"slot": "1",
						"type": "t_contract(IUniswapV2Router02)643"
					},
					{
						"astId": 662,
						"contract": "Bitxchange.sol:Bitxchange",
						"label": "rewardPot",
						"offset": 0,
						"slot": "2",
						"type": "t_contract(IRewardPot)654"
					},
					{
						"astId": 665,
						"contract": "Bitxchange.sol:Bitxchange",
						"label": "feePercentage",
						"offset": 0,
						"slot": "3",
						"type": "t_uint256"
					},
					{
						"astId": 668,
						"contract": "Bitxchange.sol:Bitxchange",
						"label": "estimatedGasForSwap",
						"offset": 0,
						"slot": "4",
						"type": "t_uint256"
					}
				],
				"types": {
					"t_address": {
						"encoding": "inplace",
						"label": "address",
						"numberOfBytes": "20"
					},
					"t_contract(IRewardPot)654": {
						"encoding": "inplace",
						"label": "contract IRewardPot",
						"numberOfBytes": "20"
					},
					"t_contract(IUniswapV2Router02)643": {
						"encoding": "inplace",
						"label": "contract IUniswapV2Router02",
						"numberOfBytes": "20"
					},
					"t_uint256": {
						"encoding": "inplace",
						"label": "uint256",
						"numberOfBytes": "32"
					}
				}
			},
			"userdoc": {
				"kind": "user",
				"methods": {},
				"version": 1
			}
		}
	}
}